10336213140001600034450680073 CRISTINA ISABEL DE CAMPOS          Belo Horizonte                MG31999760132024020120240229331
11Rua Caconde                       00875                      Renascença     31130510VINICIUS MURTA NERY         031934225098
5000051826127887ISENTO        20240221MG551  0000565405P000000001460000000000000000000000000000000000000000000000000146000000N
5000055978606668ISENTO        20240226MG551  0000635405P000000002740000000000000000000000000000000000000000000000000768000000N
5000006055005689ISENTO        20240228MG551  0000585405P000000002840000000000000000000000000000000000000000000000000284000000N
5000086969960625ISENTO        20240229MG551  0000745405P000000002420000000000000000000000000000000000000000000000000474000000N
5000057620377620ISENTO        20240226MG551  0000645405P000000008130000000000000000000000000000000000000000000000001303000000N
5000003749579679ISENTO        20240224MG551  0000595405P000000009360000000000000000000000000000000000000000000000002472000000N
5000090505859653ISENTO        20240226MG551  0000605405P000000013430000000000000000000000000000000000000000000000004701000000N
5000048674621600ISENTO        20240224MG551  0000615405P000000003760000000000000000000000000000000000000000000000000745000000N
5000029267838172ISENTO        20240226MG551  0000655405P000000001910000000000000000000000000000000000000000000000000313000000N
5000003769792670ISENTO        20240224MG551  0000625405P000000021680000000000000000000000000000000000000000000000014096000000N
5000001563860627ISENTO        20240226MG551  0000665405P000000002140000000000000000000000000000000000000000000000000386000000N
5000003113708613ISENTO        20240226MG551  0000675405P000000000760000000000000000000000000000000000000000000000000076000000N
5000021780064691ISENTO        20240226MG551  0000685405P000000026820500000000000000000000000000000000000000000000013729430000N
5000012355743690ISENTO        20240226MG551  0000695405P000000000890000000000000000000000000000000000000000000000000089000000N
5000002445879655ISENTO        20240226MG551  0000705405P000000006700000000000000000000000000000000000000000000000001666000000N
5000029441730653ISENTO        20240226MG551  0000715405P000000001990000000000000000000000000000000000000000000000000335000000N
5000006367043608ISENTO        20240226MG551  0000725405P000000000920000000000000000000000000000000000000000000000000092000000N
5000005691927655ISENTO        20240226MG551  0000735405P000000007250000000000000000000000000000000000000000000000002427000000N
50215322700001130624775200061 20240202MG551  0082211403T000000084452600000000000000000000000000000000000000000000000000000000N
50215322700001130624775200061 20240208MG551  0082681403T000000022176000000000000000000000000000000000000000000000000000000000N
50215322700001130624775200061 20240222MG551  0083251403T000000056983400000000000000000000000000000000000000000000000000000000N
51215322700001130624775200061 20240202MG1  00822114030000000000000000000000000000000000000000000000000000                    N
51215322700001130624775200061 20240208MG1  00826814030000000000000000000000000000000000000000000000000000                    N
5100051826127887ISENTO        20240221MG1  00005654050000000000000000000000000000000000000000000000000000                    N
51215322700001130624775200061 20240222MG1  00832514030000000000000000000000000000000000000000000000000000                    N
5100003749579679ISENTO        20240224MG1  00005954050000000000000000000000000000000000000000000000000000                    N
5100048674621600ISENTO        20240224MG1  00006154050000000000000000000000000000000000000000000000000000                    N
5100003769792670ISENTO        20240224MG1  00006254050000000000000000000000000000000000000000000000000000                    N
5100055978606668ISENTO        20240226MG1  00006354050000000000000000000000000000000000000000000000000000                    N
5100057620377620ISENTO        20240226MG1  00006454050000000000000000000000000000000000000000000000000000                    N
5100029267838172ISENTO        20240226MG1  00006554050000000000000000000000000000000000000000000000000000                    N
5100001563860627ISENTO        20240226MG1  00006654050000000000000000000000000000000000000000000000000000                    N
5100003113708613ISENTO        20240226MG1  00006754050000000000000000000000000000000000000000000000000000                    N
5100021780064691ISENTO        20240226MG1  00006854050000000000000000000000000000000000000000000000000000                    N
5100012355743690ISENTO        20240226MG1  00006954050000000000000000000000000000000000000000000000000000                    N
5100090505859653ISENTO        20240226MG1  00006054050000000000000000000000000000000000000000000000000000                    N
5100002445879655ISENTO        20240226MG1  00007054050000000000000000000000000000000000000000000000000000                    N
5100029441730653ISENTO        20240226MG1  00007154050000000000000000000000000000000000000000000000000000                    N
5100006367043608ISENTO        20240226MG1  00007254050000000000000000000000000000000000000000000000000000                    N
5100005691927655ISENTO        20240226MG1  00007354050000000000000000000000000000000000000000000000000000                    N
5100006055005689ISENTO        20240228MG1  00005854050000000000000000000000000000000000000000000000000000                    N
5100086969960625ISENTO        20240229MG1  00007454050000000000000000000000000000000000000000000000000000                    N
5300051826127887ISENTO        20240221MG551  0000565405P000000000000000000000000000000000000000N                              
5300055978606668ISENTO        20240226MG551  0000635405P000000000000000000000000000000000000000N                              
5300006055005689ISENTO        20240228MG551  0000585405P000000000000000000000000000000000000000N                              
5300086969960625ISENTO        20240229MG551  0000745405P000000000000000000000000000000000000000N                              
5300057620377620ISENTO        20240226MG551  0000645405P000000000000000000000000000000000000000N                              
5300003749579679ISENTO        20240224MG551  0000595405P000000000000000000000000000000000000000N                              
5300090505859653ISENTO        20240226MG551  0000605405P000000000000000000000000000000000000000N                              
5300048674621600ISENTO        20240224MG551  0000615405P000000000000000000000000000000000000000N                              
5300029267838172ISENTO        20240226MG551  0000655405P000000000000000000000000000000000000000N                              
5300003769792670ISENTO        20240224MG551  0000625405P000000000000000000000000000000000000000N                              
5300001563860627ISENTO        20240226MG551  0000665405P000000000000000000000000000000000000000N                              
5300003113708613ISENTO        20240226MG551  0000675405P000000000000000000000000000000000000000N                              
5300021780064691ISENTO        20240226MG551  0000685405P000000000000000000000000000000000000000N                              
5300012355743690ISENTO        20240226MG551  0000695405P000000000000000000000000000000000000000N                              
5300002445879655ISENTO        20240226MG551  0000705405P000000000000000000000000000000000000000N                              
5300029441730653ISENTO        20240226MG551  0000715405P000000000000000000000000000000000000000N                              
5300006367043608ISENTO        20240226MG551  0000725405P000000000000000000000000000000000000000N                              
5300005691927655ISENTO        20240226MG551  0000735405P000000000000000000000000000000000000000N                              
53215322700001130624775200061 20240202MG551  0082211403T000000000000000000000000000000000000000N                              
53215322700001130624775200061 20240208MG551  0082681403T000000000000000000000000000000000000000N                              
53215322700001130624775200061 20240222MG551  0083251403T000000000000000000000000000000000000000N                              
5400051826127887551  0000565405500001613           000000010000000000146000000000000000000000000000000000000000000000000000000
5400055978606668551  0000635405500001812           000000010000000000042000000000000000000000000000000000000000000000000000000
5400055978606668551  0000635405500002814           000000010000000000062000000000000000000000000000000000000000000000000000000
5400055978606668551  0000635405500003813           000000010000000000038000000000000000000000000000000000000000000000000000000
5400055978606668551  0000635405500004811           000000010000000000064000000000000000000000000000000000000000000000000000000
5400055978606668551  0000635405500005578           000000010000000000068000000000000000000000000000000000000000000000000000000
5400006055005689551  0000585405500001749           000000010000000000284000000000000000000000000000000000000000000000000000000
5400086969960625551  0000745405500001675           000000010000000000034000000000000000000000000000000000000000000000000000000
5400086969960625551  0000745405500002693           000000010000000000048000000000000000000000000000000000000000000000000000000
5400086969960625551  0000745405500003680           000000010000000000034000000000000000000000000000000000000000000000000000000
5400086969960625551  0000745405500004513           000000030000000000126000000000000000000000000000000000000000000000000000000
5400057620377620551  0000645405500001791           000000010000000000226000000000000000000000000000000000000000000000000000000
5400057620377620551  0000645405500002513           000000010000000000038000000000000000000000000000000000000000000000000000000
5400057620377620551  0000645405500003792           000000010000000000549000000000000000000000000000000000000000000000000000000
5400003749579679551  0000595405500001762           000000010000000000745000000000000000000000000000000000000000000000000000000
5400003749579679551  0000595405500002640           000000010000000000046000000000000000000000000000000000000000000000000000000
5400003749579679551  0000595405500003761           000000010000000000145000000000000000000000000000000000000000000000000000000
5400090505859653551  0000605405500001765           000000020000000000898000000000000000000000000000000000000000000000000000000
5400090505859653551  0000605405500002766           000000020000000000278000000000000000000000000000000000000000000000000000000
5400090505859653551  0000605405500003767           000000020000000000108000000000000000000000000000000000000000000000000000000
5400090505859653551  0000605405500004768           000000010000000000059000000000000000000000000000000000000000000000000000000
5400048674621600551  0000615405500001760           000000010000000000127000000000000000000000000000000000000000000000000000000
5400048674621600551  0000615405500002759           000000010000000000115000000000000000000000000000000000000000000000000000000
5400048674621600551  0000615405500003754           000000010000000000134000000000000000000000000000000000000000000000000000000
5400029267838172551  0000655405500001810           000000010000000000122000000000000000000000000000000000000000000000000000000
5400029267838172551  0000655405500002815           000000010000000000069000000000000000000000000000000000000000000000000000000
5400003769792670551  0000625405500001725           000000010000000000462000000000000000000000000000000000000000000000000000000
5400003769792670551  0000625405500002729           000000020000000000338000000000000000000000000000000000000000000000000000000
5400003769792670551  0000625405500003724           000000010000000000462000000000000000000000000000000000000000000000000000000
5400003769792670551  0000625405500004727           000000010000000000336000000000000000000000000000000000000000000000000000000
5400003769792670551  0000625405500005726           000000010000000000252000000000000000000000000000000000000000000000000000000
5400003769792670551  0000625405500006728           000000010000000000047000000000000000000000000000000000000000000000000000000
5400003769792670551  0000625405500007730           000000010000000000098000000000000000000000000000000000000000000000000000000
5400003769792670551  0000625405500008752           000000010000000000069000000000000000000000000000000000000000000000000000000
5400003769792670551  0000625405500009753           000000010000000000104000000000000000000000000000000000000000000000000000000
5400001563860627551  0000665405500001789           000000010000000000172000000000000000000000000000000000000000000000000000000
5400001563860627551  0000665405500002790           000000010000000000042000000000000000000000000000000000000000000000000000000
5400003113708613551  0000675405500001806           000000010000000000076000000000000000000000000000000000000000000000000000000
5400021780064691551  0000685405500001796           000000010000000000079000000000003990000000000000000000000000000000000000000
5400021780064691551  0000685405500002795           000000010000000000079000000000003990000000000000000000000000000000000000000
5400021780064691551  0000685405500003797           000000010000000000153000000000007740000000000000000000000000000000000000000
5400021780064691551  0000685405500004803           000000020000000000024000000000001200000000000000000000000000000000000000000
5400021780064691551  0000685405500005804           000000010000000000099000000000005010000000000000000000000000000000000000000
5400021780064691551  0000685405500006798           000000020000000000430000000000021770000000000000000000000000000000000000000
5400021780064691551  0000685405500007799           000000010000000000206000000000010430000000000000000000000000000000000000000
5400021780064691551  0000685405500008800           000000010000000000206000000000010430000000000000000000000000000000000000000
5400021780064691551  0000685405500009794           000000020000000000104000000000005260000000000000000000000000000000000000000
5400021780064691551  0000685405500010802           000000010000000000379000000000019180000000000000000000000000000000000000000
5400021780064691551  0000685405500011805           000000020000000000178000000000009010000000000000000000000000000000000000000
5400021780064691551  0000685405500012801           000000020000000000096000000000004850000000000000000000000000000000000000000
5400021780064691551  0000685405500013793           000000020000000000792000000000040090000000000000000000000000000000000000000
5400012355743690551  0000695405500001788           000000010000000000089000000000000000000000000000000000000000000000000000000
5400002445879655551  0000705405500001758           000000010000000000448000000000000000000000000000000000000000000000000000000
5400002445879655551  0000705405500002629           000000040000000000100000000000000000000000000000000000000000000000000000000
5400002445879655551  0000705405500003757           000000010000000000122000000000000000000000000000000000000000000000000000000
5400029441730653551  0000715405500001755           000000020000000000136000000000000000000000000000000000000000000000000000000
5400029441730653551  0000715405500002558           000000010000000000063000000000000000000000000000000000000000000000000000000
5400006367043608551  0000725405500001756           000000010000000000092000000000000000000000000000000000000000000000000000000
5400005691927655551  0000735405500001747           000000010000000000298000000000000000000000000000000000000000000000000000000
5400005691927655551  0000735405500002737           000000010000000000073000000000000000000000000000000000000000000000000000000
5400005691927655551  0000735405500003748           000000010000000000036000000000000000000000000000000000000000000000000000000
5400005691927655551  0000735405500004740           000000010000000000219000000000000000000000000000000000000000000000000000000
5400005691927655551  0000735405500005741           000000010000000000099000000000000000000000000000000000000000000000000000000
5421532270000113551  0082211403060001708           000000020000000000034920000000000000000000000000000000000000000000000000000
5421532270000113551  0082211403060002513           000000020000000000057680000000000000000000000000000000000000000000000000000
5421532270000113551  0082211403060003710           000000010000000000073920000000000000000000000000000000000000000000000000000
5421532270000113551  0082211403060004711           000000010000000000866720000000000000000000000000000000000000000000000000000
5421532270000113551  0082211403060005671           000000010000000000073110000000000000000000000000000000000000000000000000000
5421532270000113551  0082211403060006688           000000010000000000272120000000000000000000000000000000000000000000000000000
5421532270000113551  0082211403060007712           000000010000000000324110000000000000000000000000000000000000000000000000000
5421532270000113551  0082211403060008713           000000010000000000428890000000000000000000000000000000000000000000000000000
5421532270000113551  0082211403060009714           000000010000000000095850000000000000000000000000000000000000000000000000000
5421532270000113551  0082211403060010715           000000010000000000169770000000000000000000000000000000000000000000000000000
5421532270000113551  0082211403060011716           000000010000000000177080000000000000000000000000000000000000000000000000000
5421532270000113551  0082211403060012717           000000010000000000154340000000000000000000000000000000000000000000000000000
5421532270000113551  0082211403060013718           000000010000000000268060000000000000000000000000000000000000000000000000000
5421532270000113551  0082211403060014719           000000010000000000099510000000000000000000000000000000017650000000000000000
5421532270000113551  0082211403060015720           000000010000000000121840000000000000000000000000000000000000000000000000000
5421532270000113551  0082211403060016721           000000010000000000019500000000000000000000000000000000000000000000000000000
5421532270000113551  0082211403060017722           000000020000000000110480000000000000000000000000000000000000000000000000000
5421532270000113551  0082211403060018723           000000020000000000079600000000000000000000000000000000009630000000000000000
5421532270000113551  0082211403060019504           000000020000000000026800000000000000000000000000000000000000000000000000000
5421532270000113551  0082211403060020709           000000020000000000034920000000000000000000000000000000000000000000000000000
5421532270000113551  0082211403060021513           000000020000000000057680000000000000000000000000000000000000000000000000000
5421532270000113551  0082211403060022724           000000010000000000353350000000000000000000000000000000000000000000000000000
5421532270000113551  0082211403060023725           000000010000000000353350000000000000000000000000000000000000000000000000000
5421532270000113551  0082211403060024726           000000010000000000190890000000000000000000000000000000000000000000000000000
5421532270000113551  0082211403060025727           000000010000000000251000000000000000000000000000000000000000000000000000000
5421532270000113551  0082211403060026728           000000010000000000035340000000000000000000000000000000000000000000000000000
5421532270000113551  0082211403060027729           000000020000000000255060000000000000000000000000000000029420000000000000000
5421532270000113551  0082211403060028730           000000010000000000064170000000000000000000000000000000000000000000000000000
5421532270000113551  0082211403060029731           000000010000000000161650000000000000000000000000000000000000000000000000000
5421532270000113551  0082211403060030732           000000010000000000056050000000000000000000000000000000000000000000000000000
5421532270000113551  0082211403060031733           000000010000000000091790000000000000000000000000000000000000000000000000000
5421532270000113551  0082211403060032734           000000010000000000054420000000000000000000000000000000000000000000000000000
5421532270000113551  0082211403060033735           000000010000000000033300000000000000000000000000000000000000000000000000000
5421532270000113551  0082211403060034736           000000010000000000020710000000000000000000000000000000000000000000000000000
5421532270000113551  0082211403060035515           000000120000000000231480000000000000000000000000000000000000000000000000000
5421532270000113551  0082211403060036737           000000010000000000055240000000000000000000000000000000000000000000000000000
5421532270000113551  0082211403060037738           000000010000000000093410000000000000000000000000000000000000000000000000000
5421532270000113551  0082211403060038739           000000010000000000056860000000000000000000000000000000000000000000000000000
5421532270000113551  0082211403060039740           000000010000000000164900000000000000000000000000000000000000000000000000000
5421532270000113551  0082211403060040741           000000010000000000076360000000000000000000000000000000000000000000000000000
5421532270000113551  0082211403060041742           000000020000000000152720000000000000000000000000000000000000000000000000000
5421532270000113551  0082211403060042743           000000010000000000016250000000000000000000000000000000000000000000000000000
5421532270000113551  0082211403060043744           000000010000000000067420000000000000000000000000000000000000000000000000000
5421532270000113551  0082211403060044745           000000010000000000028840000000000000000000000000000000003120000000000000000
5421532270000113551  0082211403060045633           000000040000000000146200000000000000000000000000000000000000000000000000000
5421532270000113551  0082211403060046746           000000010000000000040210000000000000000000000000000000000000000000000000000
5421532270000113551  0082211403060047747           000000010000000000231510000000000000000000000000000000000000000000000000000
5421532270000113551  0082211403060048748           000000010000000000020310000000000000000000000000000000000000000000000000000
5421532270000113551  0082211403060049749           000000010000000000216880000000000000000000000000000000000000000000000000000
5421532270000113551  0082211403060050750           000000010000000000155960000000000000000000000000000000000000000000000000000
5421532270000113551  0082211403060051751           000000020000000000112900000000000000000000000000000000000000000000000000000
5421532270000113551  0082211403060052752           000000010000000000048660000000000000000000000000000000000000000000000000000
5421532270000113551  0082211403060053753           000000010000000000078790000000000000000000000000000000000000000000000000000
5421532270000113551  0082211403060054754           000000010000000000094230000000000000000000000000000000000000000000000000000
5421532270000113551  0082211403060055755           000000020000000000079600000000000000000000000000000000000000000000000000000
5421532270000113551  0082211403060056558           000000010000000000046300000000000000000000000000000000000000000000000000000
5421532270000113551  0082211403060057559           000000010000000000025990000000000000000000000000000000000000000000000000000
5421532270000113551  0082211403060058756           000000010000000000048660000000000000000000000000000000006500000000000000000
5421532270000113551  0082211403060059757           000000010000000000113720000000000000000000000000000000000000000000000000000
5421532270000113551  0082211403060060629           000000040000000000084480000000000000000000000000000000000000000000000000000
5421532270000113551  0082211403060061758           000000010000000000324510000000000000000000000000000000000000000000000000000
5421532270000113551  0082211403060062759           000000010000000000071480000000000000000000000000000000000000000000000000000
5421532270000113551  0082211403060063760           000000010000000000093410000000000000000000000000000000000000000000000000000
5421532270000113551  0082681403060001761           000000010000000000095040000000000000000000000000000000000000000000000000000
5421532270000113551  0082681403060002762           000000010000000000540180000000000000000000000000000000062910000000000000000
5421532270000113551  0082681403060003763           000000010000000000036550000000000000000000000000000000000000000000000000000
5421532270000113551  0082681403060004764           000000010000000000074730000000000000000000000000000000000000000000000000000
5421532270000113551  0082681403060005765           000000020000000000685580000000000000000000000000000000080650000000000000000
5421532270000113551  0082681403060006766           000000020000000000203080000000000000000000000000000000020310000000000000000
5421532270000113551  0082681403060007767           000000020000000000075540000000000000000000000000000000000000000000000000000
5421532270000113551  0082681403060008768           000000010000000000066610000000000000000000000000000000000000000000000000000
5421532270000113551  0082681403060009640           000000010000000000034120000000000000000000000000000000000000000000000000000
5421532270000113551  0082681403060010701           000000040000000000220960000000000000000000000000000000000000000000000000000
5421532270000113551  0082681403060011769           000000010000000000076360000000000000000000000000000000000000000000000000000
5421532270000113551  0082681403060012770           000000010000000000027620000000000000000000000000000000000000000000000000000
5421532270000113551  0082681403060013771           000000010000000000081230000000000000000000000000000000000000000000000000000
5421532270000113551  0083251403060001772           000000010000000000170580000000000000000000000000000000000000000000000000000
5421532270000113551  0083251403060002723           000000010000000000039800000000000000000000000000000000000000000000000000000
5421532270000113551  0083251403060003773           000000010000000000048660000000000000000000000000000000000000000000000000000
5421532270000113551  0083251403060004774           000000010000000000134030000000000000000000000000000000000000000000000000000
5421532270000113551  0083251403060005775           000000040000000000064160000000000000000000000000000000000000000000000000000
5421532270000113551  0083251403060006776           000000010000000000017460000000000000000000000000000000000000000000000000000
5421532270000113551  0083251403060007634           000000020000000000042240000000000000000000000000000000000000000000000000000
5421532270000113551  0083251403060008707           000000010000000000062140000000000000000000000000000000000000000000000000000
5421532270000113551  0083251403060009777           000000010000000000089350000000000000000000000000000000000000000000000000000
5421532270000113551  0083251403060010778           000000010000000000014620000000000000000000000000000000000000000000000000000
5421532270000113551  0083251403060011779           000000010000000000017870000000000000000000000000000000000000000000000000000
5421532270000113551  0083251403060012780           000000020000000000028920000000000000000000000000000000000000000000000000000
5421532270000113551  0083251403060013781           000000020000000000024200000000000000000000000000000000002820000000000000000
5421532270000113551  0083251403060014782           000000010000000000166520000000000000000000000000000000000000000000000000000
5421532270000113551  0083251403060015783           000000010000000000012180000000000000000000000000000000000000000000000000000
5421532270000113551  0083251403060016784           000000010000000000216880000000000000000000000000000000000000000000000000000
5421532270000113551  0083251403060017785           000000010000000000036550000000000000000000000000000000000000000000000000000
5421532270000113551  0083251403060018613           000000010000000000105600000000000000000000000000000000000000000000000000000
5421532270000113551  0083251403060019786           000000010000000000499560000000000000000000000000000000000000000000000000000
5421532270000113551  0083251403060020613           000000010000000000105600000000000000000000000000000000000000000000000000000
5421532270000113551  0083251403060021787           000000010000000000060920000000000000000000000000000000000000000000000000000
5421532270000113551  0083251403060022616           000000040000000000055240000000000000000000000000000000000000000000000000000
5421532270000113551  0083251403060023788           000000010000000000072290000000000000000000000000000000000000000000000000000
5421532270000113551  0083251403060024789           000000010000000000127530000000000000000000000000000000000000000000000000000
5421532270000113551  0083251403060025790           000000050000000000150300000000000000000000000000000000000000000000000000000
5421532270000113551  0083251403060026791           000000010000000000161650000000000000000000000000000000019860000000000000000
5421532270000113551  0083251403060027792           000000010000000000413460000000000000000000000000000000000000000000000000000
5421532270000113551  0083251403060028793           000000020000000000599480000000000000000000000000000000000000000000000000000
5421532270000113551  0083251403060029794           000000020000000000066600000000000000000000000000000000000000000000000000000
5421532270000113551  0083251403060030795           000000010000000000059300000000000000000000000000000000000000000000000000000
5421532270000113551  0083251403060031796           000000010000000000059300000000000000000000000000000000000000000000000000000
5421532270000113551  0083251403060032797           000000010000000000116970000000000000000000000000000000009360000000000000000
5421532270000113551  0083251403060033798           000000020000000000329800000000000000000000000000000000000000000000000000000
5421532270000113551  0083251403060034799           000000010000000000158400000000000000000000000000000000000000000000000000000
5421532270000113551  0083251403060035800           000000010000000000158400000000000000000000000000000000000000000000000000000
5421532270000113551  0083251403060036801           000000020000000000064820000000000000000000000000000000000000000000000000000
5421532270000113551  0083251403060037802           000000010000000000255870000000000000000000000000000000000000000000000000000
5421532270000113551  0083251403060038803           000000020000000000012180000000000000000000000000000000000000000000000000000
5421532270000113551  0083251403060039804           000000010000000000074730000000000000000000000000000000000000000000000000000
5421532270000113551  0083251403060040805           000000020000000000129160000000000000000000000000000000000000000000000000000
5421532270000113551  0083251403060041806           000000010000000000053610000000000000000000000000000000008250000000000000000
5421532270000113551  0083251403060042697           000000010000000000147840000000000000000000000000000000000000000000000000000
5421532270000113551  0083251403060043807           000000020000000000063360000000000000000000000000000000000000000000000000000
5421532270000113551  0083251403060044808           000000010000000000103570000000000000000000000000000000000000000000000000000
5421532270000113551  0083251403060045809           000000010000000000009750000000000000000000000000000000000000000000000000000
5421532270000113551  0083251403060046810           000000010000000000089350000000000000000000000000000000000000000000000000000
5421532270000113551  0083251403060047811           000000010000000000027620000000000000000000000000000000000000000000000000000
5421532270000113551  0083251403060048578           000000010000000000038990000000000000000000000000000000000000000000000000000
5421532270000113551  0083251403060049812           000000010000000000028430000000000000000000000000000000000000000000000000000
5421532270000113551  0083251403060050813           000000010000000000025180000000000000000000000000000000000000000000000000000
5421532270000113551  0083251403060051814           000000010000000000043860000000000000000000000000000000000000000000000000000
5421532270000113551  0083251403060052815           000000010000000000043460000000000000000000000000000000000000000000000000000
74202312311             000000000000000000000000001336213140001600034450680073 MG                                             
74202312312             000000001050000000000136501336213140001600034450680073 MG                                             
74202312313             000000024300000000004374001336213140001600034450680073 MG                                             
74202312314             000000000800000000000000001336213140001600034450680073 MG                                             
74202312315             000000000200000000000000001336213140001600034450680073 MG                                             
74202312316             000000019900000000002388001336213140001600034450680073 MG                                             
74202312317             000000001800000000000000001336213140001600034450680073 MG                                             
74202312318             000000002200000000000000001336213140001600034450680073 MG                                             
74202312319             000000000300000000000000001336213140001600034450680073 MG                                             
742023123110            000000002500000000000000001336213140001600034450680073 MG                                             
742023123111            000000001000000000000000001336213140001600034450680073 MG                                             
742023123112            000000000800000000000000001336213140001600034450680073 MG                                             
742023123113            000000002300000000000000001336213140001600034450680073 MG                                             
742023123114            000000000000000000000000001336213140001600034450680073 MG                                             
742023123115            000000000200000000000000001336213140001600034450680073 MG                                             
742023123116            000000000900000000000000001336213140001600034450680073 MG                                             
742023123117            000000000000000000000000001336213140001600034450680073 MG                                             
742023123118            000000001800000000000000001336213140001600034450680073 MG                                             
742023123119            000000000000000000000000001336213140001600034450680073 MG                                             
742023123120            000000006200000000001240001336213140001600034450680073 MG                                             
742023123121            000000001400000000000000001336213140001600034450680073 MG                                             
742023123122            000000001600000000000000001336213140001600034450680073 MG                                             
742023123123            000000003000000000000387001336213140001600034450680073 MG                                             
742023123124            000000000600000000000000001336213140001600034450680073 MG                                             
742023123125            000000000100000000000000001336213140001600034450680073 MG                                             
742023123126            000000000400000000000000001336213140001600034450680073 MG                                             
742023123127            000000000000000000000000001336213140001600034450680073 MG                                             
742023123128            000000000200000000000000001336213140001600034450680073 MG                                             
742023123129            000000000000000000000000001336213140001600034450680073 MG                                             
742023123130            000000000000000000000000001336213140001600034450680073 MG                                             
742023123131            000000001900000000000000001336213140001600034450680073 MG                                             
742023123132            000000000000000000000000001336213140001600034450680073 MG                                             
742023123133            000000000200000000000000001336213140001600034450680073 MG                                             
742023123134            000000000000000000000000001336213140001600034450680073 MG                                             
742023123135            000000000000000000000000001336213140001600034450680073 MG                                             
742023123136            000000000000000000000000001336213140001600034450680073 MG                                             
742023123137            000000000000000000000000001336213140001600034450680073 MG                                             
742023123138            000000000200000000000000001336213140001600034450680073 MG                                             
742023123139            000000001000000000000000001336213140001600034450680073 MG                                             
742023123140            000000000600000000000000001336213140001600034450680073 MG                                             
742023123141            000000002600000000000364001336213140001600034450680073 MG                                             
742023123142            000000000500000000000000001336213140001600034450680073 MG                                             
742023123143            000000004000000000001240001336213140001600034450680073 MG                                             
742023123144            000000003300000000000000001336213140001600034450680073 MG                                             
742023123145            000000000500000000000000001336213140001600034450680073 MG                                             
742023123146            000000000700000000000000001336213140001600034450680073 MG                                             
742023123147            000000000000000000000000001336213140001600034450680073 MG                                             
742023123148            000000000200000000000000001336213140001600034450680073 MG                                             
742023123149            000000000300000000000000001336213140001600034450680073 MG                                             
742023123150            000000000000000000000000001336213140001600034450680073 MG                                             
742023123151            000000000000000000000000001336213140001600034450680073 MG                                             
742023123152            000000002000000000000000001336213140001600034450680073 MG                                             
742023123153            000000000000000000000000001336213140001600034450680073 MG                                             
742023123154            000000001000000000000000001336213140001600034450680073 MG                                             
742023123155            000000000000000000000000001336213140001600034450680073 MG                                             
742023123156            000000006500000000000000001336213140001600034450680073 MG                                             
742023123157            000000000000000000000000001336213140001600034450680073 MG                                             
742023123158            000000000300000000000000001336213140001600034450680073 MG                                             
742023123159            000000000000000000000000001336213140001600034450680073 MG                                             
742023123160            000000000000000000000000001336213140001600034450680073 MG                                             
742023123161            000000000700000000000000001336213140001600034450680073 MG                                             
742023123162            000000002800000000000000001336213140001600034450680073 MG                                             
742023123163            000000000000000000000000001336213140001600034450680073 MG                                             
742023123164            000000001100000000000000001336213140001600034450680073 MG                                             
742023123165            000000000100000000000000001336213140001600034450680073 MG                                             
742023123166            000000000000000000000000001336213140001600034450680073 MG                                             
742023123167            000000000000000000000000001336213140001600034450680073 MG                                             
742023123168            000000000500000000000000001336213140001600034450680073 MG                                             
742023123169            000000000300000000000000001336213140001600034450680073 MG                                             
742023123170            000000000000000000000000001336213140001600034450680073 MG                                             
742023123171            000000000700000000000000001336213140001600034450680073 MG                                             
742023123172            000000000400000000000000001336213140001600034450680073 MG                                             
742023123173            000000000000000000000000001336213140001600034450680073 MG                                             
742023123174            000000000100000000000000001336213140001600034450680073 MG                                             
742023123175            000000000000000000000000001336213140001600034450680073 MG                                             
742023123176            000000000300000000000000001336213140001600034450680073 MG                                             
742023123177            000000000500000000000000001336213140001600034450680073 MG                                             
742023123178            000000001800000000000000001336213140001600034450680073 MG                                             
742023123179            000000000300000000000000001336213140001600034450680073 MG                                             
742023123180            000000000000000000000000001336213140001600034450680073 MG                                             
742023123181            000000000000000000000000001336213140001600034450680073 MG                                             
742023123182            000000000000000000000000001336213140001600034450680073 MG                                             
742023123183            000000000300000000000000001336213140001600034450680073 MG                                             
742023123184            000000001300000000000000001336213140001600034450680073 MG                                             
742023123185            000000001000000000000000001336213140001600034450680073 MG                                             
742023123186            000000000000000000000000001336213140001600034450680073 MG                                             
742023123187            000000000000000000000000001336213140001600034450680073 MG                                             
742023123188            000000002000000000000000001336213140001600034450680073 MG                                             
742023123189            000000000300000000000000001336213140001600034450680073 MG                                             
742023123190            000000000200000000000000001336213140001600034450680073 MG                                             
742023123191            000000000100000000000000001336213140001600034450680073 MG                                             
742023123192            000000000000000000000000001336213140001600034450680073 MG                                             
742023123193            000000000400000000000000001336213140001600034450680073 MG                                             
742023123194            000000000000000000000000001336213140001600034450680073 MG                                             
742023123195            000000000100000000000000001336213140001600034450680073 MG                                             
742023123196            000000000000000000000000001336213140001600034450680073 MG                                             
742023123197            000000000000000000000000001336213140001600034450680073 MG                                             
742023123198            000000026050000000006512501336213140001600034450680073 MG                                             
742023123199            000000000000000000000000001336213140001600034450680073 MG                                             
7420231231100           000000000300000000000000001336213140001600034450680073 MG                                             
7420231231101           000000000000000000000000001336213140001600034450680073 MG                                             
7420231231102           000000000000000000000000001336213140001600034450680073 MG                                             
7420231231103           000000000800000000000000001336213140001600034450680073 MG                                             
7420231231104           000000000400000000000000001336213140001600034450680073 MG                                             
7420231231105           000000000500000000000000001336213140001600034450680073 MG                                             
7420231231106           000000001700000000000000001336213140001600034450680073 MG                                             
7420231231107           000000000000000000000000001336213140001600034450680073 MG                                             
7420231231108           000000000000000000000000001336213140001600034450680073 MG                                             
7420231231109           000000000200000000000000001336213140001600034450680073 MG                                             
7420231231110           000000000300000000000015001336213140001600034450680073 MG                                             
7420231231111           000000001800000000000000001336213140001600034450680073 MG                                             
7420231231112           000000000000000000000000001336213140001600034450680073 MG                                             
7420231231113           000000000000000000000000001336213140001600034450680073 MG                                             
7420231231114           000000002800000000000280001336213140001600034450680073 MG                                             
7420231231115           000000000000000000000000001336213140001600034450680073 MG                                             
7420231231116           000000000000000000000000001336213140001600034450680073 MG                                             
7420231231117           000000000000000000000000001336213140001600034450680073 MG                                             
7420231231118           000000000100000000000023001336213140001600034450680073 MG                                             
7420231231119           000000000000000000000000001336213140001600034450680073 MG                                             
7420231231120           000000000000000000000000001336213140001600034450680073 MG                                             
7420231231121           000000000300000000000219001336213140001600034450680073 MG                                             
7420231231122           000000000700000000000000001336213140001600034450680073 MG                                             
7420231231123           000000000000000000000000001336213140001600034450680073 MG                                             
7420231231124           000000000200000000000000001336213140001600034450680073 MG                                             
7420231231125           000000000000000000000000001336213140001600034450680073 MG                                             
7420231231126           000000000000000000000000001336213140001600034450680073 MG                                             
7420231231127           000000000000000000000000001336213140001600034450680073 MG                                             
7420231231128           000000000200000000000000001336213140001600034450680073 MG                                             
7420231231129           000000000000000000000000001336213140001600034450680073 MG                                             
7420231231130           000000000000000000000000001336213140001600034450680073 MG                                             
7420231231131           000000000000000000000000001336213140001600034450680073 MG                                             
7420231231132           000000000300000000000000001336213140001600034450680073 MG                                             
7420231231133           000000000300000000000000001336213140001600034450680073 MG                                             
7420231231134           000000000000000000000000001336213140001600034450680073 MG                                             
7420231231135           000000000000000000000000001336213140001600034450680073 MG                                             
7420231231136           000000000000000000000000001336213140001600034450680073 MG                                             
7420231231137           000000000000000000000000001336213140001600034450680073 MG                                             
7420231231138           000000000000000000000000001336213140001600034450680073 MG                                             
7420231231139           000000000100000000000003001336213140001600034450680073 MG                                             
7420231231140           000000000000000000000000001336213140001600034450680073 MG                                             
7420231231141           000000000000000000000000001336213140001600034450680073 MG                                             
7420231231142           000000000200000000000090001336213140001600034450680073 MG                                             
7420231231143           000000000500000000000050001336213140001600034450680073 MG                                             
7420231231144           000000000000000000000000001336213140001600034450680073 MG                                             
7420231231145           000000000000000000000000001336213140001600034450680073 MG                                             
7420231231146           000000000000000000000000001336213140001600034450680073 MG                                             
7420231231147           000000001200000000000000001336213140001600034450680073 MG                                             
7420231231148           000000000000000000000000001336213140001600034450680073 MG                                             
7420231231149           000000000300000000000000001336213140001600034450680073 MG                                             
7420231231150           000000000100000000000000001336213140001600034450680073 MG                                             
7420231231151           000000000000000000000000001336213140001600034450680073 MG                                             
7420231231152           000000000300000000000000001336213140001600034450680073 MG                                             
7420231231153           000000000000000000000000001336213140001600034450680073 MG                                             
7420231231154           000000000000000000000000001336213140001600034450680073 MG                                             
7420231231155           000000000000000000000000001336213140001600034450680073 MG                                             
7420231231156           000000000300000000000000001336213140001600034450680073 MG                                             
7420231231157           000000000000000000000000001336213140001600034450680073 MG                                             
7420231231158           000000000000000000000000001336213140001600034450680073 MG                                             
7420231231159           000000000000000000000000001336213140001600034450680073 MG                                             
7420231231160           000000000000000000000000001336213140001600034450680073 MG                                             
7420231231161           000000000000000000000000001336213140001600034450680073 MG                                             
7420231231162           000000000000000000000000001336213140001600034450680073 MG                                             
7420231231163           000000000000000000000000001336213140001600034450680073 MG                                             
7420231231164           000000000300000000000000001336213140001600034450680073 MG                                             
7420231231165           000000000000000000000000001336213140001600034450680073 MG                                             
7420231231166           000000000000000000000000001336213140001600034450680073 MG                                             
7420231231167           000000000000000000000000001336213140001600034450680073 MG                                             
7420231231168           000000000000000000000000001336213140001600034450680073 MG                                             
7420231231169           000000000200000000000000001336213140001600034450680073 MG                                             
7420231231170           000000005300000000000053001336213140001600034450680073 MG                                             
7420231231171           000000000100000000000000001336213140001600034450680073 MG                                             
7420231231172           000000000000000000000000001336213140001600034450680073 MG                                             
7420231231173           000000000000000000000000001336213140001600034450680073 MG                                             
7420231231174           000000000000000000000000001336213140001600034450680073 MG                                             
7420231231175           000000000000000000000000001336213140001600034450680073 MG                                             
7420231231176           000000000000000000000000001336213140001600034450680073 MG                                             
7420231231177           000000000300000000000000001336213140001600034450680073 MG                                             
7420231231178           000000000000000000000000001336213140001600034450680073 MG                                             
7420231231179           000000000400000000000028001336213140001600034450680073 MG                                             
7420231231180           000000000200000000000300001336213140001600034450680073 MG                                             
7420231231181           000000000000000000000000001336213140001600034450680073 MG                                             
7420231231182           000000000000000000000000001336213140001600034450680073 MG                                             
7420231231183           000000000000000000000000001336213140001600034450680073 MG                                             
7420231231184           000000000000000000000000001336213140001600034450680073 MG                                             
7420231231185           000000000100000000000000001336213140001600034450680073 MG                                             
7420231231186           000000001000000000000000001336213140001600034450680073 MG                                             
7420231231187           000000000000000000000000001336213140001600034450680073 MG                                             
7420231231188           000000000000000000000000001336213140001600034450680073 MG                                             
7420231231189           000000000000000000000000001336213140001600034450680073 MG                                             
7420231231190           000000000200000000000000001336213140001600034450680073 MG                                             
7420231231191           000000000000000000000000001336213140001600034450680073 MG                                             
7420231231192           000000000000000000000000001336213140001600034450680073 MG                                             
7420231231193           000000000000000000000000001336213140001600034450680073 MG                                             
7420231231194           000000000300000000000180001336213140001600034450680073 MG                                             
7420231231195           000000000100000000000000001336213140001600034450680073 MG                                             
7420231231196           000000000000000000000000001336213140001600034450680073 MG                                             
7420231231197           000000000000000000000000001336213140001600034450680073 MG                                             
7420231231198           000000000000000000000000001336213140001600034450680073 MG                                             
7420231231199           000000001000000000000010001336213140001600034450680073 MG                                             
7420231231200           000000000100000000000000001336213140001600034450680073 MG                                             
7420231231201           000000000100000000000000001336213140001600034450680073 MG                                             
7420231231202           000000000300000000000006001336213140001600034450680073 MG                                             
7420231231203           000000000000000000000000001336213140001600034450680073 MG                                             
7420231231204           000000000000000000000000001336213140001600034450680073 MG                                             
7420231231205           000000000000000000000000001336213140001600034450680073 MG                                             
7420231231206           000000000000000000000000001336213140001600034450680073 MG                                             
7420231231207           000000000000000000000000001336213140001600034450680073 MG                                             
7420231231208           000000000200000000000026001336213140001600034450680073 MG                                             
7420231231209           000000000000000000000000001336213140001600034450680073 MG                                             
7420231231210           000000000100000000000000001336213140001600034450680073 MG                                             
7420231231211           000000000000000000000000001336213140001600034450680073 MG                                             
7420231231212           000000000000000000000000001336213140001600034450680073 MG                                             
7420231231213           000000001000000000000000001336213140001600034450680073 MG                                             
7420231231214           000000000000000000000000001336213140001600034450680073 MG                                             
7420231231215           000000000000000000000000001336213140001600034450680073 MG                                             
7420231231216           000000000000000000000000001336213140001600034450680073 MG                                             
7420231231217           000000000200000000000000001336213140001600034450680073 MG                                             
7420231231218           000000000100000000000000001336213140001600034450680073 MG                                             
7420231231219           000000000000000000000000001336213140001600034450680073 MG                                             
7420231231220           000000000000000000000000001336213140001600034450680073 MG                                             
7420231231221           000000000000000000000000001336213140001600034450680073 MG                                             
7420231231222           000000000000000000000000001336213140001600034450680073 MG                                             
7420231231223           000000001200000000000000001336213140001600034450680073 MG                                             
7420231231224           000000000000000000000000001336213140001600034450680073 MG                                             
7420231231225           000000000000000000000000001336213140001600034450680073 MG                                             
7420231231226           000000000000000000000000001336213140001600034450680073 MG                                             
7420231231227           000000000000000000000000001336213140001600034450680073 MG                                             
7420231231228           000000001200000000000000001336213140001600034450680073 MG                                             
7420231231229           000000000100000000000000001336213140001600034450680073 MG                                             
7420231231230           000000000400000000000000001336213140001600034450680073 MG                                             
7420231231231           000000000000000000000000001336213140001600034450680073 MG                                             
7420231231232           000000000000000000000000001336213140001600034450680073 MG                                             
7420231231233           000000000100000000000000001336213140001600034450680073 MG                                             
7420231231234           000000000000000000000000001336213140001600034450680073 MG                                             
7420231231235           000000000000000000000000001336213140001600034450680073 MG                                             
7420231231236           000000000000000000000000001336213140001600034450680073 MG                                             
7420231231237           000000000500000000000000001336213140001600034450680073 MG                                             
7420231231238           000000000000000000000000001336213140001600034450680073 MG                                             
7420231231239           000000000000000000000000001336213140001600034450680073 MG                                             
7420231231240           000000000100000000000000001336213140001600034450680073 MG                                             
7420231231241           000000000000000000000000001336213140001600034450680073 MG                                             
7420231231242           000000000000000000000000001336213140001600034450680073 MG                                             
7420231231243           000000000200000000000000001336213140001600034450680073 MG                                             
7420231231244           000000000000000000000000001336213140001600034450680073 MG                                             
7420231231245           000000000000000000000000001336213140001600034450680073 MG                                             
7420231231246           000000000300000000000000001336213140001600034450680073 MG                                             
7420231231247           000000000000000000000000001336213140001600034450680073 MG                                             
7420231231248           000000000000000000000000001336213140001600034450680073 MG                                             
7420231231249           000000000000000000000000001336213140001600034450680073 MG                                             
7420231231250           000000000000000000000000001336213140001600034450680073 MG                                             
7420231231251           000000000000000000000000001336213140001600034450680073 MG                                             
7420231231252           000000000000000000000000001336213140001600034450680073 MG                                             
7420231231253           000000000000000000000000001336213140001600034450680073 MG                                             
7420231231254           000000000000000000000000001336213140001600034450680073 MG                                             
7420231231255           000000000600000000000270001336213140001600034450680073 MG                                             
7420231231256           000000000000000000000000001336213140001600034450680073 MG                                             
7420231231257           000000000000000000000000001336213140001600034450680073 MG                                             
7420231231258           000000000400000000000000001336213140001600034450680073 MG                                             
7420231231259           000000000200000000000000001336213140001600034450680073 MG                                             
7420231231260           000000000100000000000000001336213140001600034450680073 MG                                             
7420231231261           000000001000000000000000001336213140001600034450680073 MG                                             
7420231231262           000000000000000000000000001336213140001600034450680073 MG                                             
7420231231263           000000000000000000000000001336213140001600034450680073 MG                                             
7420231231264           000000000000000000000000001336213140001600034450680073 MG                                             
7420231231265           000000000000000000000000001336213140001600034450680073 MG                                             
7420231231266           000000000000000000000000001336213140001600034450680073 MG                                             
7420231231267           000000000000000000000000001336213140001600034450680073 MG                                             
7420231231268           000000000000000000000000001336213140001600034450680073 MG                                             
7420231231269           000000000000000000000000001336213140001600034450680073 MG                                             
7420231231270           000000000000000000000000001336213140001600034450680073 MG                                             
7420231231271           000000000000000000000000001336213140001600034450680073 MG                                             
7420231231272           000000000000000000000000001336213140001600034450680073 MG                                             
7420231231273           000000000200000000000000001336213140001600034450680073 MG                                             
7420231231274           000000000000000000000000001336213140001600034450680073 MG                                             
7420231231275           000000000000000000000000001336213140001600034450680073 MG                                             
7420231231276           000000000000000000000000001336213140001600034450680073 MG                                             
7420231231277           000000000000000000000000001336213140001600034450680073 MG                                             
7420231231278           000000000000000000000000001336213140001600034450680073 MG                                             
7420231231279           000000000000000000000000001336213140001600034450680073 MG                                             
7420231231280           000000000000000000000000001336213140001600034450680073 MG                                             
7420231231281           000000000000000000000000001336213140001600034450680073 MG                                             
7420231231282           000000000000000000000000001336213140001600034450680073 MG                                             
7420231231283           000000000100000000000000001336213140001600034450680073 MG                                             
7420231231284           000000000000000000000000001336213140001600034450680073 MG                                             
7420231231285           000000000100000000000035001336213140001600034450680073 MG                                             
7420231231286           000000000100000000000040001336213140001600034450680073 MG                                             
7420231231287           000000000000000000000000001336213140001600034450680073 MG                                             
7420231231288           000000000000000000000000001336213140001600034450680073 MG                                             
7420231231289           000000000000000000000000001336213140001600034450680073 MG                                             
7420231231290           000000000300000000000012001336213140001600034450680073 MG                                             
7420231231291           000000000000000000000000001336213140001600034450680073 MG                                             
7420231231292           000000000000000000000000001336213140001600034450680073 MG                                             
7420231231293           000000000100000000000000001336213140001600034450680073 MG                                             
7420231231294           000000000000000000000000001336213140001600034450680073 MG                                             
7420231231295           000000000000000000000000001336213140001600034450680073 MG                                             
7420231231296           000000000000000000000000001336213140001600034450680073 MG                                             
7420231231297           000000000000000000000000001336213140001600034450680073 MG                                             
7420231231298           000000000000000000000000001336213140001600034450680073 MG                                             
7420231231299           000000000000000000000000001336213140001600034450680073 MG                                             
7420231231300           000000000000000000000000001336213140001600034450680073 MG                                             
7420231231301           000000000000000000000000001336213140001600034450680073 MG                                             
7420231231302           000000000000000000000000001336213140001600034450680073 MG                                             
7420231231303           000000000000000000000000001336213140001600034450680073 MG                                             
7420231231304           000000000000000000000000001336213140001600034450680073 MG                                             
7420231231305           000000000000000000000000001336213140001600034450680073 MG                                             
7420231231306           000000000000000000000000001336213140001600034450680073 MG                                             
7420231231307           000000000100000000000000001336213140001600034450680073 MG                                             
7420231231308           000000000000000000000000001336213140001600034450680073 MG                                             
7420231231309           000000000200000000000032001336213140001600034450680073 MG                                             
7420231231310           000000000000000000000000001336213140001600034450680073 MG                                             
7420231231311           000000000000000000000000001336213140001600034450680073 MG                                             
7420231231312           000000000000000000000000001336213140001600034450680073 MG                                             
7420231231313           000000000000000000000000001336213140001600034450680073 MG                                             
7420231231314           000000000100000000000000001336213140001600034450680073 MG                                             
7420231231315           000000000000000000000000001336213140001600034450680073 MG                                             
7420231231316           000000000100000000000000001336213140001600034450680073 MG                                             
7420231231317           000000000000000000000000001336213140001600034450680073 MG                                             
7420231231318           000000000200000000000000001336213140001600034450680073 MG                                             
7420231231319           000000000500000000000150001336213140001600034450680073 MG                                             
7420231231320           000000000200000000000014001336213140001600034450680073 MG                                             
7420231231321           000000000000000000000000001336213140001600034450680073 MG                                             
7420231231322           000000000000000000000000001336213140001600034450680073 MG                                             
7420231231323           000000000000000000000000001336213140001600034450680073 MG                                             
7420231231324           000000000000000000000000001336213140001600034450680073 MG                                             
7420231231325           000000000600000000000720001336213140001600034450680073 MG                                             
7420231231326           000000000100000000000173001336213140001600034450680073 MG                                             
7420231231327           000000000000000000000000001336213140001600034450680073 MG                                             
7420231231328           000000001800000000000396001336213140001600034450680073 MG                                             
7420231231329           000000000100000000000000001336213140001600034450680073 MG                                             
7420231231330           000000000000000000000000001336213140001600034450680073 MG                                             
7420231231331           000000000500000000000060001336213140001600034450680073 MG                                             
7420231231332           000000000300000000000315001336213140001600034450680073 MG                                             
7420231231333           000000000000000000000000001336213140001600034450680073 MG                                             
7420231231334           000000000000000000000000001336213140001600034450680073 MG                                             
7420231231335           000000000000000000000000001336213140001600034450680073 MG                                             
7420231231336           000000000000000000000000001336213140001600034450680073 MG                                             
7420231231337           000000000000000000000000001336213140001600034450680073 MG                                             
7420231231338           000000000000000000000000001336213140001600034450680073 MG                                             
7420231231339           000000000000000000000000001336213140001600034450680073 MG                                             
7420231231340           000000000000000000000000001336213140001600034450680073 MG                                             
7420231231341           000000000000000000000000001336213140001600034450680073 MG                                             
7420231231342           000000000000000000000000001336213140001600034450680073 MG                                             
7420231231343           000000000000000000000000001336213140001600034450680073 MG                                             
7420231231344           000000000100000000000110001336213140001600034450680073 MG                                             
7420231231345           000000000000000000000000001336213140001600034450680073 MG                                             
7420231231346           000000000400000000000000001336213140001600034450680073 MG                                             
7420231231347           000000000000000000000000001336213140001600034450680073 MG                                             
7420231231348           000000000000000000000000001336213140001600034450680073 MG                                             
7420231231349           000000000700000000000000001336213140001600034450680073 MG                                             
7420231231350           000000000000000000000000001336213140001600034450680073 MG                                             
7420231231351           000000000000000000000000001336213140001600034450680073 MG                                             
7420231231352           000000000000000000000000001336213140001600034450680073 MG                                             
7420231231353           000000000000000000000000001336213140001600034450680073 MG                                             
7420231231354           000000000400000000000000001336213140001600034450680073 MG                                             
7420231231355           000000000000000000000000001336213140001600034450680073 MG                                             
7420231231356           000000000000000000000000001336213140001600034450680073 MG                                             
7420231231357           000000000000000000000000001336213140001600034450680073 MG                                             
7420231231358           000000000000000000000000001336213140001600034450680073 MG                                             
7420231231359           000000000100000000000384001336213140001600034450680073 MG                                             
7420231231360           000000000000000000000000001336213140001600034450680073 MG                                             
7420231231361           000000000000000000000000001336213140001600034450680073 MG                                             
7420231231362           000000000000000000000000001336213140001600034450680073 MG                                             
7420231231363           000000000000000000000000001336213140001600034450680073 MG                                             
7420231231364           000000000000000000000000001336213140001600034450680073 MG                                             
7420231231365           000000000000000000000000001336213140001600034450680073 MG                                             
7420231231366           000000000000000000000000001336213140001600034450680073 MG                                             
7420231231367           000000000000000000000000001336213140001600034450680073 MG                                             
7420231231368           000000000000000000000000001336213140001600034450680073 MG                                             
7420231231369           000000000000000000000000001336213140001600034450680073 MG                                             
7420231231370           000000000000000000000000001336213140001600034450680073 MG                                             
7420231231371           000000003900000000000897001336213140001600034450680073 MG                                             
7420231231372           000000000000000000000000001336213140001600034450680073 MG                                             
7420231231373           000000000100000000000130001336213140001600034450680073 MG                                             
7420231231374           000000000500000000000005001336213140001600034450680073 MG                                             
7420231231375           000000000000000000000000001336213140001600034450680073 MG                                             
7420231231376           000000000000000000000000001336213140001600034450680073 MG                                             
7420231231377           000000000100000000000000001336213140001600034450680073 MG                                             
7420231231378           000000000000000000000000001336213140001600034450680073 MG                                             
7420231231379           000000000000000000000000001336213140001600034450680073 MG                                             
7420231231380           000000000000000000000000001336213140001600034450680073 MG                                             
7420231231381           000000000100000000000107001336213140001600034450680073 MG                                             
7420231231382           000000000100000000000000001336213140001600034450680073 MG                                             
7420231231383           000000000100000000000160001336213140001600034450680073 MG                                             
7420231231384           000000000000000000000000001336213140001600034450680073 MG                                             
7420231231385           000000000000000000000000001336213140001600034450680073 MG                                             
7420231231386           000000000300000000000000001336213140001600034450680073 MG                                             
7420231231387           000000000000000000000000001336213140001600034450680073 MG                                             
7420231231388           000000000000000000000000001336213140001600034450680073 MG                                             
7420231231389           000000000000000000000000001336213140001600034450680073 MG                                             
7420231231390           000000000000000000000000001336213140001600034450680073 MG                                             
7420231231391           000000000000000000000000001336213140001600034450680073 MG                                             
7420231231392           000000000300000000000003001336213140001600034450680073 MG                                             
7420231231393           000000000500000000000020001336213140001600034450680073 MG                                             
7420231231394           000000000000000000000000001336213140001600034450680073 MG                                             
7420231231395           000000000100000000000032001336213140001600034450680073 MG                                             
7420231231396           000000000000000000000000001336213140001600034450680073 MG                                             
7420231231397           000000000000000000000000001336213140001600034450680073 MG                                             
7420231231398           000000000000000000000000001336213140001600034450680073 MG                                             
7420231231399           000000000000000000000000001336213140001600034450680073 MG                                             
7420231231400           000000000100000000000210001336213140001600034450680073 MG                                             
7420231231401           000000000000000000000000001336213140001600034450680073 MG                                             
7420231231402           000000000000000000000000001336213140001600034450680073 MG                                             
7420231231403           000000000000000000000000001336213140001600034450680073 MG                                             
7420231231404           000000000000000000000000001336213140001600034450680073 MG                                             
7420231231405           000000000000000000000000001336213140001600034450680073 MG                                             
7420231231406           000000000000000000000000001336213140001600034450680073 MG                                             
7420231231407           000000000000000000000000001336213140001600034450680073 MG                                             
7420231231408           000000000100000000000310001336213140001600034450680073 MG                                             
7420231231409           000000000000000000000000001336213140001600034450680073 MG                                             
7420231231410           000000000000000000000000001336213140001600034450680073 MG                                             
7420231231411           000000000000000000000000001336213140001600034450680073 MG                                             
7420231231412           000000000000000000000000001336213140001600034450680073 MG                                             
7420231231413           000000000000000000000000001336213140001600034450680073 MG                                             
7420231231414           000000000900000000000072001336213140001600034450680073 MG                                             
7420231231415           000000000100000000000017001336213140001600034450680073 MG                                             
7420231231416           000000000000000000000000001336213140001600034450680073 MG                                             
7420231231417           000000000000000000000000001336213140001600034450680073 MG                                             
7420231231418           000000000000000000000000001336213140001600034450680073 MG                                             
7420231231419           000000000000000000000000001336213140001600034450680073 MG                                             
7420231231420           000000000000000000000000001336213140001600034450680073 MG                                             
7420231231421           000000000000000000000000001336213140001600034450680073 MG                                             
7420231231422           000000000000000000000000001336213140001600034450680073 MG                                             
7420231231423           000000000000000000000000001336213140001600034450680073 MG                                             
7420231231424           000000000000000000000000001336213140001600034450680073 MG                                             
7420231231425           000000000000000000000000001336213140001600034450680073 MG                                             
7420231231426           000000000000000000000000001336213140001600034450680073 MG                                             
7420231231427           000000000000000000000000001336213140001600034450680073 MG                                             
7420231231428           000000000200000000000016001336213140001600034450680073 MG                                             
7420231231429           000000000100000000000018001336213140001600034450680073 MG                                             
7420231231430           000000000000000000000000001336213140001600034450680073 MG                                             
7420231231431           000000000000000000000000001336213140001600034450680073 MG                                             
7420231231432           000000000000000000000000001336213140001600034450680073 MG                                             
7420231231433           000000000100000000000000001336213140001600034450680073 MG                                             
7420231231434           000000000000000000000000001336213140001600034450680073 MG                                             
7420231231435           000000000000000000000000001336213140001600034450680073 MG                                             
7420231231436           000000000000000000000000001336213140001600034450680073 MG                                             
7420231231437           000000000000000000000000001336213140001600034450680073 MG                                             
7420231231438           000000000000000000000000001336213140001600034450680073 MG                                             
7420231231439           000000000000000000000000001336213140001600034450680073 MG                                             
7420231231440           000000000000000000000000001336213140001600034450680073 MG                                             
7420231231441           000000000000000000000000001336213140001600034450680073 MG                                             
7420231231442           000000000000000000000000001336213140001600034450680073 MG                                             
7420231231443           000000000000000000000000001336213140001600034450680073 MG                                             
7420231231444           000000000100000000000180001336213140001600034450680073 MG                                             
7420231231445           000000000000000000000000001336213140001600034450680073 MG                                             
7420231231446           000000000000000000000000001336213140001600034450680073 MG                                             
7420231231447           000000000000000000000000001336213140001600034450680073 MG                                             
7420231231448           000000000000000000000000001336213140001600034450680073 MG                                             
7420231231449           000000000000000000000000001336213140001600034450680073 MG                                             
7420231231450           000000000100000000000000001336213140001600034450680073 MG                                             
7420231231451           000000000000000000000000001336213140001600034450680073 MG                                             
7420231231452           000000000400000000000008001336213140001600034450680073 MG                                             
7420231231453           000000000800000000000016001336213140001600034450680073 MG                                             
7420231231454           000000000000000000000000001336213140001600034450680073 MG                                             
7420231231455           000000000200000000000006001336213140001600034450680073 MG                                             
7420231231456           000000000000000000000000001336213140001600034450680073 MG                                             
7420231231457           000000000000000000000000001336213140001600034450680073 MG                                             
7420231231458           000000000600000000000000001336213140001600034450680073 MG                                             
7420231231459           000000000000000000000000001336213140001600034450680073 MG                                             
7420231231460           000000000000000000000000001336213140001600034450680073 MG                                             
7420231231461           000000000000000000000000001336213140001600034450680073 MG                                             
7420231231462           000000000000000000000000001336213140001600034450680073 MG                                             
7420231231463           000000000000000000000000001336213140001600034450680073 MG                                             
7420231231464           000000000200000000000090001336213140001600034450680073 MG                                             
7420231231465           000000000000000000000000001336213140001600034450680073 MG                                             
7420231231466           000000000100000000000000001336213140001600034450680073 MG                                             
7420231231467           000000000000000000000000001336213140001600034450680073 MG                                             
7420231231468           000000000000000000000000001336213140001600034450680073 MG                                             
7420231231469           000000000000000000000000001336213140001600034450680073 MG                                             
7420231231470           000000000000000000000000001336213140001600034450680073 MG                                             
7420231231471           000000000000000000000000001336213140001600034450680073 MG                                             
7420231231472           000000004050000000001012501336213140001600034450680073 MG                                             
7420231231473           000000000500000000000000001336213140001600034450680073 MG                                             
7420231231474           000000003950000000000000001336213140001600034450680073 MG                                             
7420231231475           000000000100000000000000001336213140001600034450680073 MG                                             
7420231231476           000000000700000000000000001336213140001600034450680073 MG                                             
7420231231477           000000000000000000000000001336213140001600034450680073 MG                                             
7420231231478           000000000000000000000000001336213140001600034450680073 MG                                             
7420231231479           000000000100000000000000001336213140001600034450680073 MG                                             
7420231231480           000000002100000000000000001336213140001600034450680073 MG                                             
7420231231481           000000018200000000003640001336213140001600034450680073 MG                                             
7420231231482           000000029400000000007350001336213140001600034450680073 MG                                             
7420231231483           000000000100000000000075001336213140001600034450680073 MG                                             
7420231231484           000000000000000000000000001336213140001600034450680073 MG                                             
7420231231485           000000000400000000000000001336213140001600034450680073 MG                                             
7420231231486           000000000000000000000000001336213140001600034450680073 MG                                             
7420231231487           000000000000000000000000001336213140001600034450680073 MG                                             
7420231231488           000000000000000000000000001336213140001600034450680073 MG                                             
7420231231489           000000000500000000000000001336213140001600034450680073 MG                                             
7420231231490           000000000000000000000000001336213140001600034450680073 MG                                             
7420231231491           000000000000000000000000001336213140001600034450680073 MG                                             
7420231231492           000000000100000000000000001336213140001600034450680073 MG                                             
7420231231493           000000003000000000000000001336213140001600034450680073 MG                                             
7420231231494           000000000200000000000000001336213140001600034450680073 MG                                             
7420231231495           000000000000000000000000001336213140001600034450680073 MG                                             
7420231231496           000000000000000000000000001336213140001600034450680073 MG                                             
7420231231497           000000003200000000000000001336213140001600034450680073 MG                                             
7420231231498           000000000100000000000000001336213140001600034450680073 MG                                             
7420231231499           000000000200000000000000001336213140001600034450680073 MG                                             
7420231231500           000000000000000000000000001336213140001600034450680073 MG                                             
7420231231501           000000000400000000000000001336213140001600034450680073 MG                                             
7420231231502           000000001000000000000000001336213140001600034450680073 MG                                             
7420231231503           000000000100000000000151341336213140001600034450680073 MG                                             
7420231231504           000000000200000000000026801336213140001600034450680073 MG                                             
7420231231505           000000000200000000000418941336213140001600034450680073 MG                                             
7420231231506           000000000100000000000093201336213140001600034450680073 MG                                             
7420231231507           000000000100000000000022661336213140001600034450680073 MG                                             
7420231231508           000000000100000000000013681336213140001600034450680073 MG                                             
7420231231509           000000000100000000000022231336213140001600034450680073 MG                                             
7420231231510           000000000100000000000098331336213140001600034450680073 MG                                             
7420231231511           000000000300000000000294991336213140001600034450680073 MG                                             
7420231231512           000000000100000000000242881336213140001600034450680073 MG                                             
7420231231513           000000000200000000000057681336213140001600034450680073 MG                                             
7420231231514           000000000100000000000084651336213140001600034450680073 MG                                             
7420231231515           000000000400000000000077161336213140001600034450680073 MG                                             
7420231231516           000000000000000000000000001336213140001600034450680073 MG                                             
7420231231517           000000000100000000000012831336213140001600034450680073 MG                                             
7420231231518           000000000100000000000013681336213140001600034450680073 MG                                             
7420231231519           000000000100000000000039761336213140001600034450680073 MG                                             
7420231231520           000000000100000000000129891336213140001600034450680073 MG                                             
7420231231521           000000000200000000000011121336213140001600034450680073 MG                                             
7420231231522           000000000100000000000332601336213140001600034450680073 MG                                             
7420231231523           000000000100000000000047881336213140001600034450680073 MG                                             
7420231231524           000000000100000000000049591336213140001600034450680073 MG                                             
7420231231525           000000000100000000000057291336213140001600034450680073 MG                                             
7420231231526           000000000100000000000049591336213140001600034450680073 MG                                             
7420231231527           000000000200000000000136801336213140001600034450680073 MG                                             
7420231231528           000000000200000000000107741336213140001600034450680073 MG                                             
7420231231529           000000000200000000000101761336213140001600034450680073 MG                                             
7420231231530           000000000100000000000118851336213140001600034450680073 MG                                             
7420231231531           000000000200000000000013681336213140001600034450680073 MG                                             
