10336213140001600034450680073 CRISTINA ISABEL DE CAMPOS          Belo Horizonte                MG31999760132024060120240630331
11Rua Caconde                       00875                      Renascença     31130510VINICIUS MURTA NERY         031934225098
5000053382986604ISENTO        20240604MG551  0002085405P000000014600000000000000000000000000000000000000000000000003860000000N
5000008595372187ISENTO        20240610MG551  0002245656P000000002340000000000000000000000000000000000000000000000000234000000N
5000008595372187ISENTO        20240610MG551  0002245405P000000000960000000000000000000000000000000000000000000000000210000000N
5000004178914669ISENTO        20240601MG551  0002055405P000000002180000000000000000000000000000000000000000000000000681000000N
5000048597252634ISENTO        20240604MG551  0002095405P000000015040000000000000000000000000000000000000000000000009843000000N
5000003276225638ISENTO        20240601MG551  0002065405P000000001440000000000000000000000000000000000000000000000000216000000N
5000009763555663ISENTO        20240611MG551  0002295405P000000000160000000000000000000000000000000000000000000000000016000000N
5000000123362628ISENTO        20240601MG551  0002075405P000000001850000000000000000000000000000000000000000000000000345000000N
5000004611966623ISENTO        20240610MG551  0002255405P000000001240000000000000000000000000000000000000000000000000124000000N
50243544960001600027209100075 20240606MG551  0002105405P000000005920000000000000000000000000000000000000000000000002933000000N
5000001226854664ISENTO        20240606MG551  0002115405P000000009250000000000000000000000000000000000000000000000003610000000N
5000004335088680ISENTO        20240614MG551  0002345405P000000003300000000000000000000000000000000000000000000000001207000000N
5000029179122604ISENTO        20240610MG551  0002265405P000000000850000000000000000000000000000000000000000000000000085000000N
5000003185696638ISENTO        20240606MG551  0002125405P000000004060000000000000000000000000000000000000000000000001512000000N
5000000452115310ISENTO        20240610MG551  0002275405P000000001830000000000000000000000000000000000000000000000000460000000N
5000043676375653ISENTO        20240606MG551  0002135405P000000003220000000000000000000000000000000000000000000000001078000000N
5000008186577661ISENTO        20240606MG551  0002145405P000000003340000000000000000000000000000000000000000000000001106000000N
5000002971662632ISENTO        20240606MG551  0002155405P000000001040000000000000000000000000000000000000000000000000136000000N
5000004116831603ISENTO        20240611MG551  0002305656P000000001760000000000000000000000000000000000000000000000000176000000N
5000007588205695ISENTO        20240610MG551  0002285405P000000001960000000000000000000000000000000000000000000000000264000000N
5000071001352653ISENTO        20240617MG551  0002405405P000000003130000000000000000000000000000000000000000000000000802000000N
5000006724336643ISENTO        20240606MG551  0002165405P000000002190000000000000000000000000000000000000000000000000219000000N
5000091577187504ISENTO        20240606MG551  0002175656P000000001890000000000000000000000000000000000000000000000000189000000N
5000091577187504ISENTO        20240606MG551  0002175405P000000000600000000000000000000000000000000000000000000000000086000000N
5000049925652634ISENTO        20240606MG551  0002185405P000000002960000000000000000000000000000000000000000000000000296000000N
50154786940003060028570170149 20240606MG551  0002195405P000000003510000000000000000000000000000000000000000000000001603000000N
5000004412199690ISENTO        20240611MG551  0002315405P000000022990000000000000000000000000000000000000000000000012391000000N
5000090981138691ISENTO        20240614MG551  0002355405P000000002930000000000000000000000000000000000000000000000000899000000N
5000051964635691ISENTO        20240619MG551  0002425656P000000001980000000000000000000000000000000000000000000000000198000000N
5000051964635691ISENTO        20240619MG551  0002425405P000000003310000000000000000000000000000000000000000000000000873000000N
50154786940003060028570170149 20240606MG551  0002205405P000000005957000000000000000000000000000000000000000000000002672800000N
5000008352968653ISENTO        20240606MG551  0002215656P000000001760000000000000000000000000000000000000000000000000176000000N
5000008352968653ISENTO        20240606MG551  0002215405P000000000970000000000000000000000000000000000000000000000000247000000N
5000074137824649ISENTO        20240606MG551  0002225405P000000000820000000000000000000000000000000000000000000000000082000000N
5000004481778628ISENTO        20240606MG551  0002235405P000000010650000000000000000000000000000000000000000000000004665000000N
5000091788927672ISENTO        20240611MG551  0002325405P000000003160000000000000000000000000000000000000000000000000805000000N
5000080097227668ISENTO        20240614MG551  0002365405P000000005480000000000000000000000000000000000000000000000000548000000N
5000029866979687ISENTO        20240617MG551  0002415405P000000003050000000000000000000000000000000000000000000000001251000000N
5000031678521604ISENTO        20240624MG551  0002515405P000000002600000000000000000000000000000000000000000000000000892000000N
5000087958171668ISENTO        20240611MG551  0002335405P000000000840000000000000000000000000000000000000000000000000084000000N
5000052571580604ISENTO        20240614MG551  0002375405P000000005780000000000000000000000000000000000000000000000001072000000N
5000068232900644ISENTO        20240614MG551  0002385405P000000003640000000000000000000000000000000000000000000000001478000000N
5000068516460649ISENTO        20240614MG551  0002395405P000000000310000000000000000000000000000000000000000000000000056000000N
5000010199268649ISENTO        20240619MG551  0002435405P000000011330000000000000000000000000000000000000000000000003030000000N
5000016026276734ISENTO        20240626MG551  0002545405P000000001260000000000000000000000000000000000000000000000000126000000N
5000013006665600ISENTO        20240624MG551  0002525405P000000002210000000000000000000000000000000000000000000000000400000000N
5000001492908614ISENTO        20240619MG551  0002445405P000000002620000000000000000000000000000000000000000000000000356000000N
5000007014083678ISENTO        20240624MG551  0002535405P000000005130000000000000000000000000000000000000000000000001773000000N
5000007014083678ISENTO        20240624MG551  0002535656P000000001890000000000000000000000000000000000000000000000000189000000N
5000084819898604ISENTO        20240619MG551  0002455405P000000001430000000000000000000000000000000000000000000000000143000000N
5000068516460649ISENTO        20240629MG551  0002595405P000000000540000000000000000000000000000000000000000000000000054000000N
5000005691927655ISENTO        20240626MG551  0002555405P000000002520000000000000000000000000000000000000000000000000847000000N
5000007850812670ISENTO        20240619MG551  0002465656P000000001760000000000000000000000000000000000000000000000000176000000N
5000016338952620ISENTO        20240626MG551  0002565405P000000002390000000000000000000000000000000000000000000000000442000000N
5000014432854634ISENTO        20240619MG551  0002475405P000000005560000000000000000000000000000000000000000000000001818000000N
5000001186282673ISENTO        20240619MG551  0002485405P000000001330000000000000000000000000000000000000000000000000133000000N
5000015569560610ISENTO        20240619MG551  0002495405P000000014300000000000000000000000000000000000000000000000005360000000N
5000075401428634ISENTO        20240619MG551  0002505405P000000001650000000000000000000000000000000000000000000000000305000000N
5000049616897691ISENTO        20240626MG551  0002575405P000000002440000000000000000000000000000000000000000000000000454000000N
50215322700001130624775200061 20240606MG551  0090121403T000000039177100000000000000000000000000000000000000000000000000000000N
50215322700001130624775200061 20240603MG551  0089921403T000000021833700000000000000000000000000000000000000000000000000000000N
50215322700001130624775200061 20240612MG551  0090581403T000000056066300000000000000000000000000000000000000000000000000000000N
50307880730001500032196800031 20240619MG551  0769811102T000000000339600000000033960000000000611000000000000000000000000001800N
50307880730001500032196800031 20240619MG551  0769815655T000000012470400000000000000000000000000000000000000000000000000000000N
50307880730001500032196800031 20240619MG551  0769811403T000000001008000000000000000000000000000000000000000000000000000000000N
50215322700001130624775200061 20240628MG551  0091831403T000000043503800000000000000000000000000000000000000000000000000000000N
50436489710053861312885600405 20240613MG551  2063371556T000000004596900000000459690000000008275000000000000000000000000001800N
50436489710053861312885600405 20240613MG551  2063371102T000000001177700000000117770000000002119000000000000000000000000001800N
50436489710053861312885600405 20240613MG551  2063371653T000000000457100000000000000000000000000000000000000000000000000000000N
504444858100010246329510067   20240611MG551  0005011656T000000012854400000000000000000000000000000000000000000000001285440000N
50215322700001130624775200061 20240620MG551  0091041403T000000037723400000000000000000000000000000000000000000000000000000000N
5100004178914669ISENTO        20240601MG1  00020554050000000000000000000000000000000000000000000000000000                    N
5100003276225638ISENTO        20240601MG1  00020654050000000000000000000000000000000000000000000000000000                    N
5100000123362628ISENTO        20240601MG1  00020754050000000000000000000000000000000000000000000000000000                    N
51215322700001130624775200061 20240603MG1  00899214030000000000000000000000000000000000000000000000000000                    N
5100053382986604ISENTO        20240604MG1  00020854050000000000000000000000000000000000000000000000000000                    N
5100048597252634ISENTO        20240604MG1  00020954050000000000000000000000000000000000000000000000000000                    N
51215322700001130624775200061 20240606MG1  00901214030000000000000000000000000000000000000000000000000000                    N
51243544960001600027209100075 20240606MG1  00021054050000000000000000000000000000000000000000000000000000                    N
5100001226854664ISENTO        20240606MG1  00021154050000000000000000000000000000000000000000000000000000                    N
5100003185696638ISENTO        20240606MG1  00021254050000000000000000000000000000000000000000000000000000                    N
5100043676375653ISENTO        20240606MG1  00021354050000000000000000000000000000000000000000000000000000                    N
5100008186577661ISENTO        20240606MG1  00021454050000000000000000000000000000000000000000000000000000                    N
5100002971662632ISENTO        20240606MG1  00021554050000000000000000000000000000000000000000000000000000                    N
5100006724336643ISENTO        20240606MG1  00021654050000000000000000000000000000000000000000000000000000                    N
5100091577187504ISENTO        20240606MG1  00021756560000000000000000000000000000000000000000000000000000                    N
5100091577187504ISENTO        20240606MG1  00021754050000000000000000000000000000000000000000000000000000                    N
5100049925652634ISENTO        20240606MG1  00021854050000000000000000000000000000000000000000000000000000                    N
51154786940003060028570170149 20240606MG1  00021954050000000000000000000000000000000000000000000000000000                    N
51154786940003060028570170149 20240606MG1  00022054050000000000000000000000000000000000000000000000000000                    N
5100008352968653ISENTO        20240606MG1  00022156560000000000000000000000000000000000000000000000000000                    N
5100008352968653ISENTO        20240606MG1  00022154050000000000000000000000000000000000000000000000000000                    N
5100074137824649ISENTO        20240606MG1  00022254050000000000000000000000000000000000000000000000000000                    N
5100004481778628ISENTO        20240606MG1  00022354050000000000000000000000000000000000000000000000000000                    N
5100008595372187ISENTO        20240610MG1  00022454050000000000000000000000000000000000000000000000000000                    N
5100008595372187ISENTO        20240610MG1  00022456560000000000000000000000000000000000000000000000000000                    N
5100004611966623ISENTO        20240610MG1  00022554050000000000000000000000000000000000000000000000000000                    N
5100029179122604ISENTO        20240610MG1  00022654050000000000000000000000000000000000000000000000000000                    N
5100000452115310ISENTO        20240610MG1  00022754050000000000000000000000000000000000000000000000000000                    N
5100007588205695ISENTO        20240610MG1  00022854050000000000000000000000000000000000000000000000000000                    N
514444858100010246329510067   20240611MG1  00050116560000000000000000000000000000000000000000000000000000                    N
5100009763555663ISENTO        20240611MG1  00022954050000000000000000000000000000000000000000000000000000                    N
5100004116831603ISENTO        20240611MG1  00023056560000000000000000000000000000000000000000000000000000                    N
5100004412199690ISENTO        20240611MG1  00023154050000000000000000000000000000000000000000000000000000                    N
5100091788927672ISENTO        20240611MG1  00023254050000000000000000000000000000000000000000000000000000                    N
5100087958171668ISENTO        20240611MG1  00023354050000000000000000000000000000000000000000000000000000                    N
51215322700001130624775200061 20240612MG1  00905814030000000000000000000000000000000000000000000000000000                    N
51436489710053861312885600405 20240613MG1  20633716530000000000000000000000000000000000000000000000000000                    N
51436489710053861312885600405 20240613MG1  20633711020000000000000000000000000000000000000000000000000000                    N
51436489710053861312885600405 20240613MG1  20633715560000000000000000000000000000000000000000000000000000                    N
5100004335088680ISENTO        20240614MG1  00023454050000000000000000000000000000000000000000000000000000                    N
5100090981138691ISENTO        20240614MG1  00023554050000000000000000000000000000000000000000000000000000                    N
5100080097227668ISENTO        20240614MG1  00023654050000000000000000000000000000000000000000000000000000                    N
5100052571580604ISENTO        20240614MG1  00023754050000000000000000000000000000000000000000000000000000                    N
5100068232900644ISENTO        20240614MG1  00023854050000000000000000000000000000000000000000000000000000                    N
5100068516460649ISENTO        20240614MG1  00023954050000000000000000000000000000000000000000000000000000                    N
5100071001352653ISENTO        20240617MG1  00024054050000000000000000000000000000000000000000000000000000                    N
5100029866979687ISENTO        20240617MG1  00024154050000000000000000000000000000000000000000000000000000                    N
5100051964635691ISENTO        20240619MG1  00024254050000000000000000000000000000000000000000000000000000                    N
5100051964635691ISENTO        20240619MG1  00024256560000000000000000000000000000000000000000000000000000                    N
5100010199268649ISENTO        20240619MG1  00024354050000000000000000000000000000000000000000000000000000                    N
5100001492908614ISENTO        20240619MG1  00024454050000000000000000000000000000000000000000000000000000                    N
5100084819898604ISENTO        20240619MG1  00024554050000000000000000000000000000000000000000000000000000                    N
51307880730001500032196800031 20240619MG1  07698156550000000000000000000000000000000000000000000000000000                    N
51307880730001500032196800031 20240619MG1  07698114030000000000000000000000000000000000000000000000000000                    N
51307880730001500032196800031 20240619MG1  07698111020000000000000000000000000000000000000000000000000000                    N
5100007850812670ISENTO        20240619MG1  00024656560000000000000000000000000000000000000000000000000000                    N
5100014432854634ISENTO        20240619MG1  00024754050000000000000000000000000000000000000000000000000000                    N
5100001186282673ISENTO        20240619MG1  00024854050000000000000000000000000000000000000000000000000000                    N
5100015569560610ISENTO        20240619MG1  00024954050000000000000000000000000000000000000000000000000000                    N
5100075401428634ISENTO        20240619MG1  00025054050000000000000000000000000000000000000000000000000000                    N
51215322700001130624775200061 20240620MG1  00910414030000000000000000000000000000000000000000000000000000                    N
5100031678521604ISENTO        20240624MG1  00025154050000000000000000000000000000000000000000000000000000                    N
5100013006665600ISENTO        20240624MG1  00025254050000000000000000000000000000000000000000000000000000                    N
5100007014083678ISENTO        20240624MG1  00025354050000000000000000000000000000000000000000000000000000                    N
5100007014083678ISENTO        20240624MG1  00025356560000000000000000000000000000000000000000000000000000                    N
5100016026276734ISENTO        20240626MG1  00025454050000000000000000000000000000000000000000000000000000                    N
5100005691927655ISENTO        20240626MG1  00025554050000000000000000000000000000000000000000000000000000                    N
5100016338952620ISENTO        20240626MG1  00025654050000000000000000000000000000000000000000000000000000                    N
5100049616897691ISENTO        20240626MG1  00025754050000000000000000000000000000000000000000000000000000                    N
51215322700001130624775200061 20240628MG1  00918314030000000000000000000000000000000000000000000000000000                    N
5100068516460649ISENTO        20240629MG1  00025954050000000000000000000000000000000000000000000000000000                    N
5300053382986604ISENTO        20240604MG551  0002085405P000000000000000000000000000000000000000N                              
5300008595372187ISENTO        20240610MG551  0002245656P000000000000000000000000000000000000000N                              
5300008595372187ISENTO        20240610MG551  0002245405P000000000000000000000000000000000000000N                              
5300004178914669ISENTO        20240601MG551  0002055405P000000000000000000000000000000000000000N                              
5300048597252634ISENTO        20240604MG551  0002095405P000000000000000000000000000000000000000N                              
5300003276225638ISENTO        20240601MG551  0002065405P000000000000000000000000000000000000000N                              
5300009763555663ISENTO        20240611MG551  0002295405P000000000000000000000000000000000000000N                              
5300000123362628ISENTO        20240601MG551  0002075405P000000000000000000000000000000000000000N                              
5300004611966623ISENTO        20240610MG551  0002255405P000000000000000000000000000000000000000N                              
53243544960001600027209100075 20240606MG551  0002105405P000000000000000000000000000000000000000N                              
5300001226854664ISENTO        20240606MG551  0002115405P000000000000000000000000000000000000000N                              
5300004335088680ISENTO        20240614MG551  0002345405P000000000000000000000000000000000000000N                              
5300029179122604ISENTO        20240610MG551  0002265405P000000000000000000000000000000000000000N                              
5300003185696638ISENTO        20240606MG551  0002125405P000000000000000000000000000000000000000N                              
5300000452115310ISENTO        20240610MG551  0002275405P000000000000000000000000000000000000000N                              
5300043676375653ISENTO        20240606MG551  0002135405P000000000000000000000000000000000000000N                              
5300008186577661ISENTO        20240606MG551  0002145405P000000000000000000000000000000000000000N                              
5300002971662632ISENTO        20240606MG551  0002155405P000000000000000000000000000000000000000N                              
5300004116831603ISENTO        20240611MG551  0002305656P000000000000000000000000000000000000000N                              
5300007588205695ISENTO        20240610MG551  0002285405P000000000000000000000000000000000000000N                              
5300071001352653ISENTO        20240617MG551  0002405405P000000000000000000000000000000000000000N                              
5300006724336643ISENTO        20240606MG551  0002165405P000000000000000000000000000000000000000N                              
5300091577187504ISENTO        20240606MG551  0002175656P000000000000000000000000000000000000000N                              
5300091577187504ISENTO        20240606MG551  0002175405P000000000000000000000000000000000000000N                              
5300049925652634ISENTO        20240606MG551  0002185405P000000000000000000000000000000000000000N                              
53154786940003060028570170149 20240606MG551  0002195405P000000000000000000000000000000000000000N                              
5300004412199690ISENTO        20240611MG551  0002315405P000000000000000000000000000000000000000N                              
5300090981138691ISENTO        20240614MG551  0002355405P000000000000000000000000000000000000000N                              
5300051964635691ISENTO        20240619MG551  0002425656P000000000000000000000000000000000000000N                              
5300051964635691ISENTO        20240619MG551  0002425405P000000000000000000000000000000000000000N                              
53154786940003060028570170149 20240606MG551  0002205405P000000000000000000000000000000000000000N                              
5300008352968653ISENTO        20240606MG551  0002215656P000000000000000000000000000000000000000N                              
5300008352968653ISENTO        20240606MG551  0002215405P000000000000000000000000000000000000000N                              
5300074137824649ISENTO        20240606MG551  0002225405P000000000000000000000000000000000000000N                              
5300004481778628ISENTO        20240606MG551  0002235405P000000000000000000000000000000000000000N                              
5300091788927672ISENTO        20240611MG551  0002325405P000000000000000000000000000000000000000N                              
5300080097227668ISENTO        20240614MG551  0002365405P000000000000000000000000000000000000000N                              
5300029866979687ISENTO        20240617MG551  0002415405P000000000000000000000000000000000000000N                              
5300031678521604ISENTO        20240624MG551  0002515405P000000000000000000000000000000000000000N                              
5300087958171668ISENTO        20240611MG551  0002335405P000000000000000000000000000000000000000N                              
5300052571580604ISENTO        20240614MG551  0002375405P000000000000000000000000000000000000000N                              
5300068232900644ISENTO        20240614MG551  0002385405P000000000000000000000000000000000000000N                              
5300068516460649ISENTO        20240614MG551  0002395405P000000000000000000000000000000000000000N                              
5300010199268649ISENTO        20240619MG551  0002435405P000000000000000000000000000000000000000N                              
5300016026276734ISENTO        20240626MG551  0002545405P000000000000000000000000000000000000000N                              
5300013006665600ISENTO        20240624MG551  0002525405P000000000000000000000000000000000000000N                              
5300001492908614ISENTO        20240619MG551  0002445405P000000000000000000000000000000000000000N                              
5300007014083678ISENTO        20240624MG551  0002535405P000000000000000000000000000000000000000N                              
5300007014083678ISENTO        20240624MG551  0002535656P000000000000000000000000000000000000000N                              
5300084819898604ISENTO        20240619MG551  0002455405P000000000000000000000000000000000000000N                              
5300068516460649ISENTO        20240629MG551  0002595405P000000000000000000000000000000000000000N                              
5300005691927655ISENTO        20240626MG551  0002555405P000000000000000000000000000000000000000N                              
5300007850812670ISENTO        20240619MG551  0002465656P000000000000000000000000000000000000000N                              
5300016338952620ISENTO        20240626MG551  0002565405P000000000000000000000000000000000000000N                              
5300014432854634ISENTO        20240619MG551  0002475405P000000000000000000000000000000000000000N                              
5300001186282673ISENTO        20240619MG551  0002485405P000000000000000000000000000000000000000N                              
5300015569560610ISENTO        20240619MG551  0002495405P000000000000000000000000000000000000000N                              
5300075401428634ISENTO        20240619MG551  0002505405P000000000000000000000000000000000000000N                              
5300049616897691ISENTO        20240626MG551  0002575405P000000000000000000000000000000000000000N                              
53215322700001130624775200061 20240606MG551  0090121403T000000000000000000000000000000000000000N                              
53215322700001130624775200061 20240603MG551  0089921403T000000000000000000000000000000000000000N                              
53215322700001130624775200061 20240612MG551  0090581403T000000000000000000000000000000000000000N                              
53307880730001500032196800031 20240619MG551  0769811102T000000000000000000000000000000000000000N                              
53307880730001500032196800031 20240619MG551  0769815655T000000000000000000000000000000000000000N                              
53307880730001500032196800031 20240619MG551  0769811403T000000000000000000000000000000000000000N                              
53215322700001130624775200061 20240628MG551  0091831403T000000000000000000000000000000000000000N                              
53436489710053861312885600405 20240613MG551  2063371556T000000000000000000000000000000000000000N                              
53436489710053861312885600405 20240613MG551  2063371102T000000000000000000000000000000000000000N                              
53436489710053861312885600405 20240613MG551  2063371653T000000000000000000000000000000000000000N                              
534444858100010246329510067   20240611MG551  0005011656T000000000000000000000000000000000000000N                              
53215322700001130624775200061 20240620MG551  0091041403T000000000000000000000000000000000000000N                              
5400000123362628551  0002075405500001916           000000040000000000160000000000000000000000000000000000000000000000000000000
5400000123362628551  0002075405500002882           000000010000000000025000000000000000000000000000000000000000000000000000000
5400000452115310551  0002275405500001915           000000030000000000126000000000000000000000000000000000000000000000000000000
5400000452115310551  0002275405500002882           000000010000000000025000000000000000000000000000000000000000000000000000000
5400000452115310551  0002275405500003929           000000010000000000032000000000000000000000000000000000000000000000000000000
5400001186282673551  0002485405500001916           000000035000000000133000000000000000000000000000000000000000000000000000000
5400001226854664551  0002115405500001703           000000010000000000126000000000000000000000000000000000000000000000000000000
5400001226854664551  0002115405500002927           000000020000000000616000000000000000000000000000000000000000000000000000000
5400001226854664551  0002115405500003855           000000035000000000154000000000000000000000000000000000000000000000000000000
5400001226854664551  0002115405500004882           000000010000000000025000000000000000000000000000000000000000000000000000000
5400001226854664551  0002115405500005923           000000010000000000004000000000000000000000000000000000000000000000000000000
5400001492908614551  0002445405500001636           000000040000000000094000000000000000000000000000000000000000000000000000000
5400001492908614551  0002445405500002662           000000010000000000168000000000000000000000000000000000000000000000000000000
5400002971662632551  0002155405500001811           000000010000000000032000000000000000000000000000000000000000000000000000000
5400002971662632551  0002155405500002513           000000020000000000072000000000000000000000000000000000000000000000000000000
5400003185696638551  0002125405500001915           000000050000000000210000000000000000000000000000000000000000000000000000000
5400003185696638551  0002125405500002680           000000010000000000034000000000000000000000000000000000000000000000000000000
5400003185696638551  0002125405500003670           000000010000000000074000000000000000000000000000000000000000000000000000000
5400003185696638551  0002125405500004972           000000010000000000016000000000000000000000000000000000000000000000000000000
5400003185696638551  0002125405500005790           000000020000000000072000000000000000000000000000000000000000000000000000000
5400003276225638551  0002065405500001790           000000020000000000072000000000000000000000000000000000000000000000000000000
5400003276225638551  0002065405500002644           000000010000000000072000000000000000000000000000000000000000000000000000000
5400004116831603551  0002305656500001886           000000040000000000176000000000000000000000000000000000000000000000000000000
5400004178914669551  0002055405500001915           000000030000000000126000000000000000000000000000000000000000000000000000000
5400004178914669551  0002055405500002882           000000010000000000025000000000000000000000000000000000000000000000000000000
5400004178914669551  0002055405500003857           000000010000000000035000000000000000000000000000000000000000000000000000000
5400004178914669551  0002055405500004880           000000010000000000032000000000000000000000000000000000000000000000000000000
5400004335088680551  0002345405500001915           000000030000000000126000000000000000000000000000000000000000000000000000000
5400004335088680551  0002345405500002882           000000010000000000025000000000000000000000000000000000000000000000000000000
5400004335088680551  0002345405500003736           000000010000000000019000000000000000000000000000000000000000000000000000000
5400004335088680551  0002345405500004972           000000010000000000006000000000000000000000000000000000000000000000000000000
5400004335088680551  0002345405500005971           000000010000000000078000000000000000000000000000000000000000000000000000000
5400004335088680551  0002345405500006790           000000020000000000076000000000000000000000000000000000000000000000000000000
5400004412199690551  0002315405500001915           000000045000000000189000000000000000000000000000000000000000000000000000000
5400004412199690551  0002315405500002882           000000010000000000025000000000000000000000000000000000000000000000000000000
5400004412199690551  0002315405500003735           000000010000000000044000000000000000000000000000000000000000000000000000000
5400004412199690551  0002315405500004780           000000010000000000028000000000000000000000000000000000000000000000000000000
5400004412199690551  0002315405500005880           000000010000000000032000000000000000000000000000000000000000000000000000000
5400004412199690551  0002315405500006936           000000010000000000138000000000000000000000000000000000000000000000000000000
5400004412199690551  0002315405500007646           000000010000000000089000000000000000000000000000000000000000000000000000000
5400004412199690551  0002315405500008741           000000010000000000119000000000000000000000000000000000000000000000000000000
5400004412199690551  0002315405500009956           000000010000000000096000000000000000000000000000000000000000000000000000000
5400004412199690551  0002315405500010773           000000020000000000156000000000000000000000000000000000000000000000000000000
5400004412199690551  0002315405500011799           000000020000000000338000000000000000000000000000000000000000000000000000000
5400004412199690551  0002315405500012682           000000020000000000828000000000000000000000000000000000000000000000000000000
5400004412199690551  0002315405500013509           000000020000000000068000000000000000000000000000000000000000000000000000000
5400004412199690551  0002315405500014774           000000010000000000149000000000000000000000000000000000000000000000000000000
5400004481778628551  0002235405500001762           000000010000000000725000000000000000000000000000000000000000000000000000000
5400004481778628551  0002235405500002832           000000020000000000138000000000000000000000000000000000000000000000000000000
5400004481778628551  0002235405500003915           000000030000000000126000000000000000000000000000000000000000000000000000000
5400004481778628551  0002235405500004680           000000010000000000034000000000000000000000000000000000000000000000000000000
5400004481778628551  0002235405500005893           000000010000000000042000000000000000000000000000000000000000000000000000000
5400004611966623551  0002255405500001877           000000010000000000124000000000000000000000000000000000000000000000000000000
5400005691927655551  0002555405500001916           000000045000000000180000000000000000000000000000000000000000000000000000000
5400005691927655551  0002555405500002882           000000010000000000025000000000000000000000000000000000000000000000000000000
5400005691927655551  0002555405500003972           000000010000000000005000000000000000000000000000000000000000000000000000000
5400005691927655551  0002555405500004790           000000010000000000042000000000000000000000000000000000000000000000000000000
5400006724336643551  0002165405500001870           000000010000000000219000000000000000000000000000000000000000000000000000000
5400007014083678551  0002535405500001688           000000010000000000378000000000000000000000000000000000000000000000000000000
5400007014083678551  0002535656500002887           000000045000000000189000000000000000000000000000000000000000000000000000000
5400007014083678551  0002535405500003680           000000010000000000036000000000000000000000000000000000000000000000000000000
5400007014083678551  0002535405500004693           000000010000000000054000000000000000000000000000000000000000000000000000000
5400007014083678551  0002535405500005880           000000010000000000045000000000000000000000000000000000000000000000000000000
5400007588205695551  0002285405500001637           000000010000000000068000000000000000000000000000000000000000000000000000000
5400007588205695551  0002285405500002632           000000010000000000128000000000000000000000000000000000000000000000000000000
5400007850812670551  0002465656500001886           000000040000000000176000000000000000000000000000000000000000000000000000000
5400008186577661551  0002145405500001915           000000050000000000210000000000000000000000000000000000000000000000000000000
5400008186577661551  0002145405500002745           000000010000000000034000000000000000000000000000000000000000000000000000000
5400008186577661551  0002145405500003670           000000010000000000074000000000000000000000000000000000000000000000000000000
5400008186577661551  0002145405500004972           000000010000000000016000000000000000000000000000000000000000000000000000000
5400008352968653551  0002215656500001886           000000040000000000176000000000000000000000000000000000000000000000000000000
5400008352968653551  0002215405500002829           000000010000000000025000000000000000000000000000000000000000000000000000000
5400008352968653551  0002215405500003735           000000010000000000035000000000000000000000000000000000000000000000000000000
5400008352968653551  0002215405500004972           000000010000000000005000000000000000000000000000000000000000000000000000000
5400008352968653551  0002215405500005880           000000010000000000032000000000000000000000000000000000000000000000000000000
5400008595372187551  0002245656500001886           000000045000000000234000000000000000000000000000000000000000000000000000000
5400008595372187551  0002245405500002680           000000010000000000034000000000000000000000000000000000000000000000000000000
5400008595372187551  0002245405500003735           000000010000000000046000000000000000000000000000000000000000000000000000000
5400008595372187551  0002245405500004972           000000010000000000016000000000000000000000000000000000000000000000000000000
5400009763555663551  0002295405500001972           000000010000000000016000000000000000000000000000000000000000000000000000000
5400010199268649551  0002435405500001915           000000045000000000189000000000000000000000000000000000000000000000000000000
5400010199268649551  0002435405500002745           000000010000000000038000000000000000000000000000000000000000000000000000000
5400010199268649551  0002435405500003693           000000010000000000044000000000000000000000000000000000000000000000000000000
5400010199268649551  0002435405500004972           000000010000000000016000000000000000000000000000000000000000000000000000000
5400010199268649551  0002435405500005851           000000020000000000636000000000000000000000000000000000000000000000000000000
5400010199268649551  0002435405500006807           000000020000000000210000000000000000000000000000000000000000000000000000000
5400013006665600551  0002525405500001764           000000010000000000179000000000000000000000000000000000000000000000000000000
5400013006665600551  0002525405500002790           000000010000000000042000000000000000000000000000000000000000000000000000000
5400014432854634551  0002475405500001916           000000030000000000120000000000000000000000000000000000000000000000000000000
5400014432854634551  0002475405500002882           000000010000000000025000000000000000000000000000000000000000000000000000000
5400014432854634551  0002475405500003972           000000010000000000006000000000000000000000000000000000000000000000000000000
5400014432854634551  0002475405500004782           000000010000000000228000000000000000000000000000000000000000000000000000000
5400014432854634551  0002475405500005866           000000010000000000088000000000000000000000000000000000000000000000000000000
5400014432854634551  0002475405500006756           000000010000000000089000000000000000000000000000000000000000000000000000000
5415478694000306551  0002195405500001917           000000010000000000122000000000000000000000000000000000000000000000000000000
5415478694000306551  0002195405500002649           000000010000000000098000000000000000000000000000000000000000000000000000000
5415478694000306551  0002195405500003943           000000010000000000034000000000000000000000000000000000000000000000000000000
5415478694000306551  0002195405500004578           000000010000000000065000000000000000000000000000000000000000000000000000000
5415478694000306551  0002195405500005857           000000010000000000018000000000000000000000000000000000000000000000000000000
5415478694000306551  0002195405500006923           000000020000000000014000000000000000000000000000000000000000000000000000000
5415478694000306551  0002205405500001844           000000010000000000198000000000000000000000000000000000000000000000000000000
5415478694000306551  0002205405500002754           000000010000000000134000000000000000000000000000000000000000000000000000000
5415478694000306551  0002205405500003618           000000010000000000072700000000000000000000000000000000000000000000000000000
5415478694000306551  0002205405500004855           000000035000000000154000000000000000000000000000000000000000000000000000000
5415478694000306551  0002205405500005882           000000010000000000025000000000000000000000000000000000000000000000000000000
5415478694000306551  0002205405500006972           000000010000000000012000000000000000000000000000000000000000000000000000000
5400015569560610551  0002495405500001772           000000040000000001192000000000000000000000000000000000000000000000000000000
5400015569560610551  0002495405500002916           000000040000000000160000000000000000000000000000000000000000000000000000000
5400015569560610551  0002495405500003829           000000010000000000034000000000000000000000000000000000000000000000000000000
5400015569560610551  0002495405500004735           000000010000000000044000000000000000000000000000000000000000000000000000000
5400016026276734551  0002545405500001915           000000030000000000126000000000000000000000000000000000000000000000000000000
5400016338952620551  0002565405500001633           000000035000000000203000000000000000000000000000000000000000000000000000000
5400016338952620551  0002565405500002680           000000010000000000036000000000000000000000000000000000000000000000000000000
5421532270000113551  00899214030600011010          000000010000000000015350000000000000000000000000000000001580000000000000000
5421532270000113551  00899214030600021011          000000010000000000075540000000000000000000000000000000000000000000000000000
5421532270000113551  00899214030600031012          000000020000000000415900000000000000000000000000000000053440000000000000000
5421532270000113551  00899214030600041013          000000010000000000140530000000000000000000000000000000013850000000000000000
5421532270000113551  0089921403060005746           000000010000000000037770000000000000000000000000000000000000000000000000000
5421532270000113551  0089921403060006766           000000020000000000178700000000000000000000000000000000020680000000000000000
5421532270000113551  00899214030600071014          000000020000000000126720000000000000000000000000000000009700000000000000000
5421532270000113551  0089921403060008759           000000010000000000071480000000000000000000000000000000008780000000000000000
5421532270000113551  00899214030600091015          000000010000000000072290000000000000000000000000000000007880000000000000000
5421532270000113551  00899214030600101016          000000010000000000012590000000000000000000000000000000000000000000000000000
5421532270000113551  00899214030600111017          000000010000000000077170000000000000000000000000000000007500000000000000000
5421532270000113551  0089921403060012813           000000010000000000025180000000000000000000000000000000002730000000000000000
5421532270000113551  00899214030600131018          000000010000000000042240000000000000000000000000000000004220000000000000000
5421532270000113551  00899214030600141019          000000010000000000034930000000000000000000000000000000000000000000000000000
5421532270000113551  00899214030600151020          000000010000000000045490000000000000000000000000000000000000000000000000000
5421532270000113551  00899214030600161021          000000010000000000025180000000000000000000000000000000002560000000000000000
5421532270000113551  00899214030600171022          000000010000000000054420000000000000000000000000000000005300000000000000000
5421532270000113551  00899214030600181023          000000010000000000051990000000000000000000000000000000005220000000000000000
5421532270000113551  0089921403060019528           000000020000000000102340000000000000000000000000000000010710000000000000000
5421532270000113551  00899214030600201024          000000010000000000033300000000000000000000000000000000002880000000000000000
5421532270000113551  00899214030600211025          000000010000000000101540000000000000000000000000000000011530000000000000000
5421532270000113551  00899214030600221026          000000010000000000018280000000000000000000000000000000002690000000000000000
5421532270000113551  0089921403060023775           000000040000000000065000000000000000000000000000000000007490000000000000000
5421532270000113551  0089921403060024787           000000010000000000064170000000000000000000000000000000006370000000000000000
5421532270000113551  00899214030600251027          000000010000000000085290000000000000000000000000000000000000000000000000000
5421532270000113551  0089921403060026618           000000010000000000072700000000000000000000000000000000006110000000000000000
5421532270000113551  00899214030600271028          000000010000000000034120000000000000000000000000000000002940000000000000000
5421532270000113551  0089921403060028548           000000010000000000103160000000000000000000000000000000012940000000000000000
5421532270000113551  0090121403060001529           000000010000000000048700000000000000000000000000000000007000000000000000000
5421532270000113551  0090121403060002996           000000020000000000451640000000000000000000000000000000076440000000000000000
5421532270000113551  0090121403060003563           000000010000000000040610000000000000000000000000000000004560000000000000000
5421532270000113551  0090121403060004543           000000010000000000052800000000000000000000000000000000005610000000000000000
5421532270000113551  0090121403060005997           000000010000000000051580000000000000000000000000000000008300000000000000000
5421532270000113551  0090121403060006750           000000010000000000161650000000000000000000000000000000022890000000000000000
5421532270000113551  0090121403060007772           000000040000000000692080000000000000000000000000000000097460000000000000000
5421532270000113551  0090121403060008998           000000010000000000064980000000000000000000000000000000006730000000000000000
5421532270000113551  0090121403060009999           000000010000000000064980000000000000000000000000000000006720000000000000000
5421532270000113551  0090121403060010543           000000010000000000052800000000000000000000000000000000005610000000000000000
5421532270000113551  00901214030600111000          000000010000000000022340000000000000000000000000000000000000000000000000000
5421532270000113551  0090121403060012872           000000010000000000079610000000000000000000000000000000008660000000000000000
5421532270000113551  00901214030600131001          000000010000000000142150000000000000000000000000000000017240000000000000000
5421532270000113551  00901214030600141002          000000010000000000101540000000000000000000000000000000011690000000000000000
5421532270000113551  00901214030600151003          000000010000000000053610000000000000000000000000000000005250000000000000000
5421532270000113551  0090121403060016754           000000010000000000102350000000000000000000000000000000007520000000000000000
5421532270000113551  0090121403060017618           000000010000000000072700000000000000000000000000000000006110000000000000000
5421532270000113551  0090121403060018615           000000010000000000024370000000000000000000000000000000000000000000000000000
5421532270000113551  0090121403060019616           000000040000000000056880000000000000000000000000000000007320000000000000000
5421532270000113551  00901214030600201004          000000010000000000418330000000000000000000000000000000000000000000000000000
5421532270000113551  0090121403060021644           000000010000000000026810000000000000000000000000000000002650000000000000000
5421532270000113551  00901214030600221005          000000010000000000096660000000000000000000000000000000000000000000000000000
5421532270000113551  00901214030600231006          000000010000000000069450000000000000000000000000000000007050000000000000000
5421532270000113551  00901214030600241007          000000010000000000131590000000000000000000000000000000000000000000000000000
5421532270000113551  0090121403060025843           000000010000000000012590000000000000000000000000000000001490000000000000000
5421532270000113551  0090121403060026546           000000010000000000048330000000000000000000000000000000007030000000000000000
5421532270000113551  00901214030600271008          000000010000000000698580000000000000000000000000000000000000000000000000000
5421532270000113551  00901214030600281009          000000040000000000078000000000000000000000000000000000009640000000000000000
5421532270000113551  0090581403060001579           000000010000000000052800000000000000000000000000000000000000000000000000000
5421532270000113551  00905814030600021029          000000010000000000405740000000000000000000000000000000057760000000000000000
5421532270000113551  00905814030600031030          000000030000000000087720000000000000000000000000000000000000000000000000000
5421532270000113551  00905814030600041031          000000010000000000218510000000000000000000000000000000036300000000000000000
5421532270000113551  00905814030600051032          000000010000000000161650000000000000000000000000000000000000000000000000000
5421532270000113551  00905814030600061033          000000010000000000027620000000000000000000000000000000002820000000000000000
5421532270000113551  0090581403060007530           000000010000000000112910000000000000000000000000000000000000000000000000000
5421532270000113551  00905814030600081034          000000020000000000469500000000000000000000000000000000000000000000000000000
5421532270000113551  00905814030600091035          000000040000000000089360000000000000000000000000000000000000000000000000000
5421532270000113551  0090581403060010832           000000020000000000096660000000000000000000000000000000010760000000000000000
5421532270000113551  00905814030600111036          000000010000000000518250000000000000000000000000000000073020000000000000000
5421532270000113551  00905814030600121037          000000010000000000315170000000000000000000000000000000000000000000000000000
5421532270000113551  00905814030600131038          000000010000000000315170000000000000000000000000000000045130000000000000000
5421532270000113551  00905814030600141039          000000020000000000109660000000000000000000000000000000000000000000000000000
5421532270000113551  00905814030600151040          000000020000000000073100000000000000000000000000000000000000000000000000000
5421532270000113551  0090581403060016613           000000010000000000109660000000000000000000000000000000015340000000000000000
5421532270000113551  0090581403060017905           000000010000000000020310000000000000000000000000000000002100000000000000000
5421532270000113551  0090581403060018729           000000020000000000256680000000000000000000000000000000000000000000000000000
5421532270000113551  00905814030600191041          000000010000000000090980000000000000000000000000000000000000000000000000000
5421532270000113551  00905814030600201042          000000010000000000066610000000000000000000000000000000006940000000000000000
5421532270000113551  00905814030600211043          000000010000000000069860000000000000000000000000000000004940000000000000000
5421532270000113551  00905814030600221044          000000010000000000242880000000000000000000000000000000038810000000000000000
5421532270000113551  0090581403060023700           000000010000000000101540000000000000000000000000000000002940000000000000000
5421532270000113551  00905814030600241045          000000010000000000262370000000000000000000000000000000000000000000000000000
5421532270000113551  0090581403060025829           000000020000000000048740000000000000000000000000000000006980000000000000000
5421532270000113551  0090581403060026511           000000040000000000378520000000000000000000000000000000000000000000000000000
5421532270000113551  00905814030600271046          000000010000000000044270000000000000000000000000000000000000000000000000000
5421532270000113551  00905814030600281047          000000010000000000126720000000000000000000000000000000019320000000000000000
5421532270000113551  0090581403060029754           000000010000000000102350000000000000000000000000000000007520000000000000000
5421532270000113551  00905814030600301048          000000010000000000056050000000000000000000000000000000000000000000000000000
5421532270000113551  00905814030600311049          000000010000000000012350000000000000000000000000000000001450000000000000000
5421532270000113551  00905814030600321050          000000010000000000085290000000000000000000000000000000008570000000000000000
5421532270000113551  0090581403060033520           000000010000000000146210000000000000000000000000000000000000000000000000000
5421532270000113551  0090581403060034522           000000010000000000264000000000000000000000000000000000000000000000000000000
5421532270000113551  0090581403060035586           000000010000000000049550000000000000000000000000000000000000000000000000000
5421532270000113551  0090581403060036588           000000010000000000017870000000000000000000000000000000000000000000000000000
5421532270000113551  0091041403060001826           000000040000000000939000000000000000000000000000000000000000000000000000000
5421532270000113551  0091041403060002746           000000010000000000038180000000000000000000000000000000004180000000000000000
5421532270000113551  0091041403060003718           000000010000000000332230000000000000000000000000000000045820000000000000000
5421532270000113551  00910414030600041135          000000030000000000286350000000000000000000000000000000037080000000000000000
5421532270000113551  0091041403060005656           000000010000000000365530000000000000000000000000000000047650000000000000000
5421532270000113551  0091041403060006520           000000010000000000146210000000000000000000000000000000000000000000000000000
5421532270000113551  0091041403060007864           000000010000000000069860000000000000000000000000000000011470000000000000000
5421532270000113551  009104140306000823            000000010000000000019900000000000000000000000000000000002130000000000000000
5421532270000113551  00910414030600091024          000000010000000000033300000000000000000000000000000000002880000000000000000
5421532270000113551  0091041403060010515           000000040000000000078000000000000000000000000000000000009600000000000000000
5421532270000113551  00910414030600111099          000000010000000000051990000000000000000000000000000000005740000000000000000
5421532270000113551  009104140306001231            000000020000000000486560000000000000000000000000000000061070000000000000000
5421532270000113551  0091041403060013807           000000020000000000160840000000000000000000000000000000018670000000000000000
5421532270000113551  0091041403060014898           000000040000000000402920000000000000000000000000000000000000000000000000000
5421532270000113551  0091041403060015854           000000010000000000361470000000000000000000000000000000044720000000000000000
5421532270000113551  00918314030600011055          000000010000000000045490000000000000000000033960000000005040000000000000000
5421532270000113551  0091831403060002635           000000010000000000126720000000000000000000033960000000014280000000000000000
5421532270000113551  0091831403060003636           000000040000000000067440000000000000000000033960000000008850000000000000000
5421532270000113551  00918314030600041056          000000010000000000253440000000000000000000033960000000033080000000000000000
5421532270000113551  00918314030600051057          000000010000000000125090000000000000000000033960000000014650000000000000000
5421532270000113551  00918314030600061058          000000020000000000077980000000000000000000033960000000011140000000000000000
5421532270000113551  00918314030600071059          000000010000000000043460000000000000000000033960000000006390000000000000000
5421532270000113551  00918314030600081060          000000010000000000093410000000000000000000033960000000000000000000000000000
5421532270000113551  0091831403060009662           000000010000000000115350000000000000000000033960000000012810000000000000000
5421532270000113551  00918314030600101054          000000010000000000012180000000000000000000033960000000000620000000000000000
5421532270000113551  00918314030600111061          000000010000000000041430000000000000000000033960000000000000000000000000000
5421532270000113551  00918314030600121062          000000010000000000109660000000000000000000033960000000000000000000000000000
5421532270000113551  0091831403060013782           000000010000000000169770000000000000000000033960000000013570000000000000000
5421532270000113551  0091831403060014581           000000010000000000022740000000000000000000033960000000002590000000000000000
5421532270000113551  00918314030600151063          000000010000000000029810000000000000000000033960000000001120000000000000000
5421532270000113551  00918314030600161064          000000010000000000035740000000000000000000033960000000000950000000000000000
5421532270000113551  0091831403060017776           000000010000000000017460000000000000000000033960000000000210000000000000000
5421532270000113551  0091831403060018613           000000010000000000109660000000000000000000033960000000014560000000000000000
5421532270000113551  0091831403060019754           000000010000000000102350000000000000000000033960000000007520000000000000000
5421532270000113551  00918314030600201002          000000010000000000101540000000000000000000033960000000011690000000000000000
5421532270000113551  00918314030600211065          000000010000000000095040000000000000000000033960000000003910000000000000000
5421532270000113551  00918314030600221066          000000010000000000150280000000000000000000033960000000021030000000000000000
5421532270000113551  00918314030600231018          000000010000000000047110000000000000000000033960000000000000000000000000000
5421532270000113551  0091831403060024619           000000010000000000063360000000000000000000033960000000000000000000000000000
5421532270000113551  0091831403060025616           000000040000000000056880000000000000000000033960000000007320000000000000000
5421532270000113551  00918314030600261067          000000010000000000113320000000000000000000033960000000000000000000000000000
5421532270000113551  0091831403060027813           000000010000000000025990000000000000000000033960000000002230000000000000000
5421532270000113551  0091831403060028835           000000010000000000012590000000000000000000033960000000000000000000000000000
5421532270000113551  0091831403060029578           000000010000000000041020000000000000000000033960000000007540000000000000000
5421532270000113551  00918314030600301068          000000020000000000030060000000000000000000033960000000001560000000000000000
5421532270000113551  0091831403060031984           000000020000000000108840000000000000000000033960000000018460000000000000000
5421532270000113551  0091831403060032985           000000020000000000095860000000000000000000033960000000012920000000000000000
5421532270000113551  0091831403060033944           000000010000000000072290000000000000000000033960000000005150000000000000000
5421532270000113551  00918314030600341015          000000010000000000072290000000000000000000033960000000007340000000000000000
5421532270000113551  0091831403060035954           000000010000000000077170000000000000000000033960000000014080000000000000000
5421532270000113551  0091831403060036955           000000010000000000077170000000000000000000033960000000006240000000000000000
5421532270000113551  0091831403060037658           000000010000000000081150000000000000000000033960000000006700000000000000000
5421532270000113551  00918314030600381069          000000010000000000055240000000000000000000033960000000008190000000000000000
5421532270000113551  00918314030600391070          000000010000000000072290000000000000000000033960000000010310000000000000000
5421532270000113551  0091831403060040569           000000080000000000321680000000000000000000033960000000000000000000000000000
5421532270000113551  00918314030600411071          000000010000000000008940000000000000000000033960000000000800000000000000000
5421532270000113551  00918314030600421072          000000010000000000015840000000000000000000033960000000001200000000000000000
5421532270000113551  00918314030600431073          000000010000000000087730000000000000000000033960000000011660000000000000000
5421532270000113551  00918314030600441074          000000010000000000011780000000000000000000033960000000000000000000000000000
5421532270000113551  0091831403060045893           000000010000000000043050000000000000000000033960000000005160000000000000000
5421532270000113551  00918314030600461075          000000010000000000145400000000000000000000033960000000009010000000000000000
5421532270000113551  00918314030600471054          000000010000000000012180000000000000000000033960000000000620000000000000000
5421532270000113551  0091831403060048802           000000010000000000247750000000000000000000033960000000032180000000000000000
5421532270000113551  0091831403060049594           000000010000000000014620000000000000000000033960000000001480000000000000000
5421532270000113551  00918314030600501076          000000010000000000112910000000000000000000033960000000010470000000000000000
5421532270000113551  00918314030600511077          000000010000000000056450000000000000000000033960000000000000000000000000000
5421532270000113551  0091831403060052926           000000010000000000145400000000000000000000033960000000014660000000000000000
5421532270000113551  00918314030600531078          000000010000000000077980000000000000000000033960000000009440000000000000000
5424354496000160551  0002105405500001637           000000010000000000068000000000000000000000000000000000000000000000000000000
5424354496000160551  0002105405500002855           000000040000000000176000000000000000000000000000000000000000000000000000000
5424354496000160551  0002105405500003882           000000010000000000025000000000000000000000000000000000000000000000000000000
5424354496000160551  0002105405500004640           000000010000000000036000000000000000000000000000000000000000000000000000000
5424354496000160551  0002105405500005923           000000010000000000004000000000000000000000000000000000000000000000000000000
5424354496000160551  0002105405500006780           000000010000000000029000000000000000000000000000000000000000000000000000000
5424354496000160551  0002105405500007905           000000010000000000032000000000000000000000000000000000000000000000000000000
5424354496000160551  0002105405500008509           000000020000000000068000000000000000000000000000000000000000000000000000000
5424354496000160551  0002105405500009649           000000010000000000154000000000000000000000000000000000000000000000000000000
5400029179122604551  0002265405500001811           000000010000000000085000000000000000000000000000000000000000000000000000000
5400029866979687551  0002415405500001915           000000045000000000189000000000000000000000000000000000000000000000000000000
5400029866979687551  0002415405500002745           000000010000000000034000000000000000000000000000000000000000000000000000000
5400029866979687551  0002415405500003929           000000010000000000036000000000000000000000000000000000000000000000000000000
5400029866979687551  0002415405500004972           000000010000000000016000000000000000000000000000000000000000000000000000000
5400029866979687551  0002415405500005910           000000010000000000030000000000000000000000000000000000000000000000000000000
5430788073000150551  07698111020000011051          000000020000000000033960000000000000000000033960000000000000000000000001800
5430788073000150551  07698156550600021052          000000020000000001247040000000000000000000033960000000098990000000000000000
5430788073000150551  07698114030600031053          000000060000000000100800000000000000000000033960000000000000000000000000000
5400031678521604551  0002515405500001915           000000040000000000176000000000000000000000000000000000000000000000000000000
5400031678521604551  0002515405500002882           000000010000000000025000000000000000000000000000000000000000000000000000000
5400031678521604551  0002515405500003621           000000010000000000054000000000000000000000000000000000000000000000000000000
5400031678521604551  0002515405500004972           000000010000000000005000000000000000000000000000000000000000000000000000000
5443648971005386551  20633715560000011153          000000010000000000271410000000000000000000316670000000000000000000000001800
5443648971005386551  2063371102000002237           000000010000000000011900000000000000000000329070000000000000000000000001800
5443648971005386551  2063371102000003237           000000030000000000035700000000000000000000366260000000000000000000000001800
5443648971005386551  20633716530600041154          000000010000000000043890000000000000000000366260000000000000000000000000000
5443648971005386551  20633715560000051155          000000010000000000169910000000000000000000543240000000000000000000000001800
5443648971005386551  2063371102000006972           000000500000000000065460000000000000000000611420000000000000000000000001800
5400043676375653551  0002135405500001855           000000040000000000208000000000000000000000000000000000000000000000000000000
5400043676375653551  0002135405500002745           000000010000000000034000000000000000000000000000000000000000000000000000000
5400043676375653551  0002135405500003885           000000010000000000064000000000000000000000000000000000000000000000000000000
5400043676375653551  0002135405500004972           000000010000000000016000000000000000000000000000000000000000000000000000000
5444448581000102551  0005011656500001886           000000480000000001285440000000000000000000000000000000143840000000000000000
5400048597252634551  0002095405500001718           000000010000000000897000000000000000000000000000000000000000000000000000000
5400048597252634551  0002095405500002509           000000010000000000034000000000000000000000000000000000000000000000000000000
5400048597252634551  0002095405500003626           000000010000000000176000000000000000000000000000000000000000000000000000000
5400048597252634551  0002095405500004905           000000010000000000031000000000000000000000000000000000000000000000000000000
5400048597252634551  0002095405500005916           000000060000000000240000000000000000000000000000000000000000000000000000000
5400048597252634551  0002095405500006938           000000010000000000034000000000000000000000000000000000000000000000000000000
5400048597252634551  0002095405500007874           000000010000000000064000000000000000000000000000000000000000000000000000000
5400048597252634551  0002095405500008779           000000010000000000028000000000000000000000000000000000000000000000000000000
5400049616897691551  0002575405500001915           000000050000000000210000000000000000000000000000000000000000000000000000000
5400049616897691551  0002575405500002745           000000010000000000034000000000000000000000000000000000000000000000000000000
5400049925652634551  0002185405500001651           000000010000000000296000000000000000000000000000000000000000000000000000000
5400051964635691551  0002425656500001886           000000045000000000198000000000000000000000000000000000000000000000000000000
5400051964635691551  0002425405500002829           000000010000000000034000000000000000000000000000000000000000000000000000000
5400051964635691551  0002425405500003670           000000010000000000069000000000000000000000000000000000000000000000000000000
5400051964635691551  0002425405500004972           000000010000000000016000000000000000000000000000000000000000000000000000000
5400051964635691551  0002425405500005764           000000010000000000167000000000000000000000000000000000000000000000000000000
5400051964635691551  0002425405500006790           000000010000000000045000000000000000000000000000000000000000000000000000000
5400052571580604551  0002375405500001656           000000010000000000494000000000000000000000000000000000000000000000000000000
5400052571580604551  0002375405500002790           000000020000000000084000000000000000000000000000000000000000000000000000000
5400053382986604551  0002085405500001725           000000020000000001108000000000000000000000000000000000000000000000000000000
5400053382986604551  0002085405500002878           000000020000000000184000000000000000000000000000000000000000000000000000000
5400053382986604551  0002085405500003958           000000020000000000168000000000000000000000000000000000000000000000000000000
5400068232900644551  0002385405500001915           000000050000000000210000000000000000000000000000000000000000000000000000000
5400068232900644551  0002385405500002657           000000010000000000034000000000000000000000000000000000000000000000000000000
5400068232900644551  0002385405500003666           000000010000000000068000000000000000000000000000000000000000000000000000000
5400068232900644551  0002385405500004905           000000010000000000036000000000000000000000000000000000000000000000000000000
5400068232900644551  0002385405500005972           000000010000000000016000000000000000000000000000000000000000000000000000000
5400068516460649551  0002395405500001882           000000010000000000025000000000000000000000000000000000000000000000000000000
5400068516460649551  0002395405500002972           000000010000000000006000000000000000000000000000000000000000000000000000000
5400068516460649551  0002595405500001883           000000010000000000054000000000000000000000000000000000000000000000000000000
5400071001352653551  0002405405500001633           000000040000000000232000000000000000000000000000000000000000000000000000000
5400071001352653551  0002405405500002882           000000010000000000025000000000000000000000000000000000000000000000000000000
5400071001352653551  0002405405500003857           000000010000000000056000000000000000000000000000000000000000000000000000000
5400074137824649551  0002225405500001820           000000010000000000082000000000000000000000000000000000000000000000000000000
5400075401428634551  0002505405500001916           000000035000000000140000000000000000000000000000000000000000000000000000000
5400075401428634551  0002505405500002882           000000010000000000025000000000000000000000000000000000000000000000000000000
5400080097227668551  0002365405500001511           000000040000000000548000000000000000000000000000000000000000000000000000000
5400084819898604551  0002455405500001757           000000010000000000143000000000000000000000000000000000000000000000000000000
5400087958171668551  0002335405500001790           000000020000000000084000000000000000000000000000000000000000000000000000000
5400090981138691551  0002355405500001915           000000040000000000168000000000000000000000000000000000000000000000000000000
5400090981138691551  0002355405500002882           000000010000000000025000000000000000000000000000000000000000000000000000000
5400090981138691551  0002355405500003874           000000010000000000052000000000000000000000000000000000000000000000000000000
5400090981138691551  0002355405500004849           000000010000000000048000000000000000000000000000000000000000000000000000000
5400091577187504551  0002175656500001887           000000045000000000189000000000000000000000000000000000000000000000000000000
5400091577187504551  0002175405500002829           000000010000000000026000000000000000000000000000000000000000000000000000000
5400091577187504551  0002175405500003735           000000010000000000034000000000000000000000000000000000000000000000000000000
5400091788927672551  0002325405500001633           000000040000000000232000000000000000000000000000000000000000000000000000000
5400091788927672551  0002325405500002938           000000010000000000025000000000000000000000000000000000000000000000000000000
5400091788927672551  0002325405500003806           000000010000000000059000000000000000000000000000000000000000000000000000000
7520240601202406301000          84219999LX3544-FILTRO AR                                     PC    000000000000000000000000000
7520240601202406301001          87083019N305-PASTILHA FREIO                                  JG    000000000000000000000000000
7520240601202406301002          8484900079519-JUNTA CABECOTE SUPERIOR                        JG    000000000000000000000000000
7520240601202406301003          87089100MF408-RESERV AGUA RADIADOR                           PC    000000000000000000000000000
7520240601202406301004          8708800052004329-COXIM CAMBIO                                PC    000000000000000000000000000
7520240601202406301005          87083090CL6136D-CILINDRO RODA                                PC    000000000000000000000000000
7520240601202406301006          87083090IKS1247-CABO FREIO DE MAO                            PC    000000000000000000000000000
7520240601202406301007          40103100117205652R-CORREIA                                   PC    000000000000000000000000000
7520240601202406301008          848350905300638100-KIT CORREIA TENSOR                        PC    000000000000000000000000000
7520240601202406301009          85111000BKR6ESZ10-VELA IGNICAO                               PC    000000000000000000000000000
7520240601202406301010          84213990CU200061-FILTRO ANTI POLEM                           PC    000000000000000000000000000
7520240601202406301011          85129000BSD11-PALHETA LIMPADOR                               PC    000000000000000000000000000
7520240601202406301012          87083090BD5441-DISCO FREIO                                   PC    000000000000000000000000000
7520240601202406301013          87083019PD669-PASTILHA FREIO                                 JG    000000000000000000000000000
7520240601202406301014          87089990540182-KIT AMORTECEDOR DIANTEIRO                     PC    000000000000000000000000000
7520240601202406301015          4009310073203-MANGUEIRA INFERIOR RADIADOR                    PC    000000000000000000000000000
7520240601202406301016          401693008642086-KIT ANEIS VEDACAO                            JG    000000000000000000000000000
7520240601202406301017          840991900106121-PROTETOR DE CORREIAS                         PC    000000000000000000000000000
7520240601202406301018          840991900106056-PROTETOR DE CORREIAS                         JG    000000000000000000000000000
7520240601202406301019          40093100913082-MANGUEIRA                                     PC    000000000000000000000000000
7520240601202406301020          40093100197079-MANGUEIRA                                     PC    000000000000000000000000000
7520240601202406301021          8484100084616-JUNTA COLETOR ESCAP/ADM                        PC    000000000000000000000000000
7520240601202406301022          87083090EF780I-CABO FREIO DE MAO                             PC    000000000000000000000000000
7520240601202406301023          87083090EF780J-CABO FREIO DE MAO                             PC    000000000000000000000000000
7520240601202406301024          68138190VW276-LONA FREIO                                     JG    000000000000000000000000000
7520240601202406301025          854430009295080049-CABO VELA                                 JG    000000000000000000000000000
7520240601202406301026          84212300W7195-FILTRO OLEO MOTOR                              PC    000000000000000000000000000
7520240601202406301027          8501101940380202-MOTOR PASSO                                 PC    000000000000000000000000000
7520240601202406301028          8708999024578675-JUNTA TAMPA VALVULA                         PC    000000000000000000000000000
7520240601202406301029          8413303010254-BOMBA OLEO MOTOR                               PC    000000000000000000000000000
7520240601202406301030          27101932SAE80-OLEO CAMBIO                                    PC    000000000000000000000000000
7520240601202406301031          90271000OZA488D7-SONDA LAMBDA                                PC    000000000000000000000000000
7520240601202406301032          87089490133213-COXIM MOTOR                                   PC    000000000000000000000000000
7520240601202406301033          84814000087150-ANTI CHAMA                                    PC    000000000000000000000000000
7520240601202406301034          85113020U5329-BOBINA IGNICAO PLASTICA                        PC    000000000000000000000000000
7520240601202406301035          85111000FR7DDEG-VELA IGNICAO                                 PC    000000000000000000000000000
7520240601202406301036          870893003000001340-KIT EMBREAGEM                             PC    000000000000000000000000000
7520240601202406301037          87088000SP018-AMORT SUSPENSAO DIANT                          PC    000000000000000000000000000
7520240601202406301038          87088000SP019-AMORT SUSPENSAO DIANT                          PC    000000000000000000000000000
7520240601202406301039          870880000111508-BUCHA BANDEJA                                PC    000000000000000000000000000
7520240601202406301040          87088000SK3127-BUCHA EIXO TRASEIRO                           PC    000000000000000000000000000
7520240601202406301041          87088000NAK3067-PIVO SUSPENSAO                               PC    000000000000000000000000000
7520240601202406301042          84835010VKM4794-POLIA ALTERNADOR                             PC    000000000000000000000000000
7520240601202406301043          87089990NAK93012-TERMINAL BARRA DIRECAO                      PC    000000000000000000000000000
7520240601202406301044          40103500CT821-CORREIA DISTRIBUICAO                           PC    000000000000000000000000000
7520240601202406301045          84835090VKM75616-TENSOR CORREIA DENTADA                      PC    000000000000000000000000000
7520240601202406301046          39174090VC140L-CONEXAO                                       PC    000000000000000000000000000
7520240601202406301047          84822010101291-ROL RODA                                      PC    000000000000000000000000000
7520240601202406301048          4016930005782BRGP-RETENTOR VIRABREQUIM - POLIA               PC    000000000000000000000000000
7520240601202406301049          84212300GI047-FILTRO COMBUSTIVEL                             PC    000000000000000000000000000
7520240601202406301050          87083019P71-PASTILHA FREIO                                   JG    000000000000000000000000000
7520240601202406301051          15180090CS PRETEADOR DE PNEUS AEROSSOL 400 ML                UN    000000000000000000000000000
7520240601202406301052          27101932QUARTZ 9000 FUT XT 5W30 24X1                         CX    000000000000000000000000000
7520240601202406301053          84219999WOE912                                               PC    000000000000000000000000000
7520240601202406301054          4016930076090-ANEL VEDACAO                                   PC    000000000000000000000000000
7520240601202406301055          84219999LX2830-FILTRO AR                                     PC    000000000000000000000000000
7520240601202406301056          90271000OZA723EE14-SONDA LAMBDA                              PC    000000000000000000000000000
7520240601202406301057          87089100MF580-RESERV AGUA RADIADOR                           PC    000000000000000000000000000
7520240601202406301058          87083090ATE6013-CILINDRO RODA                                PC    000000000000000000000000000
7520240601202406301059          401033005PK1815-CORREIA                                      PC    000000000000000000000000000
7520240601202406301060          87083090CB49CPA-SAPATA FREIO C/ LONA COLADA                  JG    000000000000000000000000000
7520240601202406301061          9026209055202374-INTER PRESSAO OLEO                          PC    000000000000000000000000000
7520240601202406301062          8481802155242321-VALVULA TERMOSTATICA                        PC    000000000000000000000000000
7520240601202406301063          8708999055216827-PROTETOR DE CORREIAS                        PC    000000000000000000000000000
7520240601202406301064          8708999055195387-PROTETOR DE CORREIAS                        PC    000000000000000000000000000
7520240601202406301065          4009110024591704-MANGUEIRA                                   PC    000000000000000000000000000
7520240601202406301066          73181500B244000-PARAFUSO CABECOTE                            PC    000000000000000000000000000
7520240601202406301067          87083019PD689-PASTILHA FREIO TRASEIRO                        JG    000000000000000000000000000
7520240601202406301068          8409919011056093-SELO MOTOR                                  PC    000000000000000000000000000
7520240601202406301069          84219999LX3713-FILTRO AR                                     PC    000000000000000000000000000
7520240601202406301070          84212300W9069-FILTRO OLEO MOTOR                              PC    000000000000000000000000000
7520240601202406301071          87089990VC408-CONEXAO MANG RADIADOR                          PC    000000000000000000000000000
7520240601202406301072          7318150093373723-PARAFUSO                                    PC    000000000000000000000000000
7520240601202406301073          87083090FD61CPA-SAPATA FREIO C/ LONA COLADA                  JG    000000000000000000000000000
7520240601202406301074          401693004328364-ANEL VEDACAO                                 PC    000000000000000000000000000
7520240601202406301075          87083019PD1348-PASTILHA FREIO                                JG    000000000000000000000000000
7520240601202406301076          84219999ARL2218-FILTRO AR                                    PC    000000000000000000000000000
7520240601202406301077          27101932ATF CVT-OLEO HIDRAULICO                              PC    000000000000000000000000000
7520240601202406301078          87089300511015510-CIL EMBREAGEM                              PC    000000000000000000000000000
7520240601202406301099          87089100MF441-RESERV AGUA RADIADOR                           PC    000000000000000000000000000
7520240601202406301135          8511100046480362-VELA IGNICAO                                PC    000000000000000000000000000
7520240601202406301153          82054000JOGO CHAVES FENDA/PHILIPS ZEBRA - 6PCS               UN    000000000000000000000000000
7520240601202406301154          27101932HHS 2000 200 ML                                      UN    000000000000000000000000000
7520240601202406301155          85131090LANTERNA LED CABECA RECAR ERGO COMPACT               UN    000000000000000000000000000
75202406012024063023            84212300FILTRO DE COMBUSTíVEL                                PÇ    000000000000000000000000000
752024060120240630237           73181500BUJãO DO CARTER                                      PÇ    000000000000000000000000000
75202406012024063031            87088000AMORTECEDOR TRASEIRO                                 PÇ    000000000000000000000000000
752024060120240630509           38190000DOT4 ATE-OLEO FREIO                                  FR    000000000000000000000000000
752024060120240630511           85111000DILFR6D11D-VELA IGNICAO                              PC    000000000000000000000000000
752024060120240630513           27101932SAE80 GL4-OLEO CAMBIO                                PC    000000000000000000000000000
752024060120240630515           85111000BKR7ESB-VELA IGNICAO                                 PC    000000000000000000000000000
752024060120240630520           84213990030103464A-ANTI CHAMA                                PC    000000000000000000000000000
752024060120240630522           87089990032121026CP-CARCACA VALVULA TERMOSTATICA             PC    000000000000000000000000000
752024060120240630528           870880000441482-KIT AMORTECEDOR TRASEIRO                     JG    000000000000000000000000000
752024060120240630529           87087090VKBA4529-KIT ROL TRAS                                JG    000000000000000000000000000
752024060120240630530           400931005U0201153A-MANGUEIRA                                 PC    000000000000000000000000000
752024060120240630543           84219999LX4372-FILTRO AR                                     PC    000000000000000000000000000
752024060120240630546           84219999LX4669-FILTRO AR                                     PC    000000000000000000000000000
752024060120240630548           87083019PD94-PASTILHA FREIO                                  JG    000000000000000000000000000
752024060120240630563           84219999C23023-FILTRO AR                                     PC    000000000000000000000000000
752024060120240630569           271019325W30 BRUTUS-OLEO MOTOR                               LT    000000000000000000000000000
752024060120240630578           40103500111SP170H-CORREIA DISTRIBUICAO                       PC    000000000000000000000000000
752024060120240630579           9025909055214055-CARCACA                                     PC    000000000000000000000000000
752024060120240630581           4016930075613-JUNTA TAMPA VALVULA                            PC    000000000000000000000000000
752024060120240630586           84841000589590-JUNTA CABECOTE                                PC    000000000000000000000000000
752024060120240630588           721012002081910-JUNTA COLETOR ESCAP/ADM                      PC    000000000000000000000000000
752024060120240630594           84213990LA655-FILTRO ANTI POLEM                              PC    000000000000000000000000000
752024060120240630613           85443000SCG73-CABO VELA                                      JG    000000000000000000000000000
752024060120240630615           870891005050140-TAMPA RESERVATORIO                           PC    000000000000000000000000000
752024060120240630616           85111000BR8ES-VELA IGNICAO                                   PC    000000000000000000000000000
752024060120240630618           8483501090354858-ENGRENAGEM VIRABREQUIM                      PC    000000000000000000000000000
752024060120240630619           84818021314792-VALVULA TERMOSTATICA                          PC    000000000000000000000000000
752024060120240630621           84219999C24005-FILTRO AR                                     PC    000000000000000000000000000
752024060120240630626           401031006PK1822-CORREIA                                      PC    000000000000000000000000000
752024060120240630632           84835090VKM11113-TENSOR CORREIA DENTADA                      PC    000000000000000000000000000
752024060120240630633           271019320W20 PRO DS-OLEO MOTOR                               LT    000000000000000000000000000
752024060120240630635           85443000SCG101-CABO VELA                                     JG    000000000000000000000000000
752024060120240630636           85111000BPR7E-VELA IGNICAO                                   PC    000000000000000000000000000
752024060120240630637           40103500135STP8M190H-CORREIA DISTRIBUICAO                    PC    000000000000000000000000000
752024060120240630640           84219999C34853-FILTRO AR                                     PC    000000000000000000000000000
752024060120240630644           87089990MF71-TAMPA RESERVATORIO                              PC    000000000000000000000000000
752024060120240630646           84835010VKM4909-POLIA ALTERNADOR                             PC    000000000000000000000000000
752024060120240630649           870899901323Y2-MANGUEIRA                                     PC    000000000000000000000000000
752024060120240630651           90271000OZA659EE89-SONDA LAMBDA                              PC    000000000000000000000000000
752024060120240630656           87089100735124R-RADIADOR AGUA                                PC    000000000000000000000000000
752024060120240630657           84219999HU71151X-FILTRO OLEO MOTOR                           PC    000000000000000000000000000
752024060120240630658           87083019P435-PASTILHA FREIO                                  JG    000000000000000000000000000
752024060120240630662           85443000SCF30-CABO VELA                                      PC    000000000000000000000000000
752024060120240630666           84219999C2330-FILTRO AR                                      PC    000000000000000000000000000
752024060120240630670           84219999C24021-FILTRO AR                                     PC    000000000000000000000000000
752024060120240630680           84212300W71930-FILTRO OLEO MOTOR                             PC    000000000000000000000000000
752024060120240630682           87088000SP070-AMORT SUSPENSAO DIANT                          PC    000000000000000000000000000
752024060120240630688           84212300WFC972-FILTRO CAMBIO AUTOMATICO                      PC    000000000000000000000000000
752024060120240630693           84219999LX684-FILTRO AR                                      PC    000000000000000000000000000
752024060120240630700           4016930015171942BN-JUNTA TAMPA VALVULA                       PC    000000000000000000000000000
752024060120240630703           85111000BKR7E11D-VELA IGNICAO                                PC    000000000000000000000000000
752024060120240630718           84835090530019510-KIT CORREIA TENSOR                         PC    000000000000000000000000000
752024060120240630725           87088000SP043-AMORT SUSPENSAO DIANT                          PC    000000000000000000000000000
752024060120240630729           870880000441130-KIT AMORTECEDOR DIANTEIRO                    PC    000000000000000000000000000
752024060120240630735           842139900986AF2441-FILTRO AR                                 PC    000000000000000000000000000
752024060120240630736           84219999C22952-FILTRO AR                                     PC    000000000000000000000000000
752024060120240630741           87088000503124-PIVO SUSPENSAO                                PC    000000000000000000000000000
752024060120240630745           84212300W7013-FILTRO OLEO MOTOR                              PC    000000000000000000000000000
752024060120240630746           84219999C22035-FILTRO AR                                     PC    000000000000000000000000000
752024060120240630750           85443000STV25-CABO VELA                                      JG    000000000000000000000000000
752024060120240630754           3917409093383625-CONEXAO                                     PC    000000000000000000000000000
752024060120240630756           87083019P88-PASTILHA FREIO                                   JG    000000000000000000000000000
752024060120240630757           85443000SCR16-CABO VELA                                      JG    000000000000000000000000000
752024060120240630759           8413309020189-BOMBA DAGUA                                    PC    000000000000000000000000000
752024060120240630762           870893003000000811-KIT EMBREAGEM                             JG    000000000000000000000000000
752024060120240630764           87089100MF498-RESERV AGUA RADIADOR                           PC    000000000000000000000000000
752024060120240630766           87088000LT90111-COXIM AMORTECEDOR                            PC    000000000000000000000000000
752024060120240630772           840991900280156403-BICO INJETOR                              PC    000000000000000000000000000
752024060120240630773           870880000111247-BUCHA BANDEJA                                PC    000000000000000000000000000
752024060120240630774           85443000SCG76-CABO VELA                                      JG    000000000000000000000000000
752024060120240630775           85111000BPR5EY-VELA IGNICAO                                  PC    000000000000000000000000000
752024060120240630776           7326190014329201-SELO MOTOR                                  PC    000000000000000000000000000
752024060120240630779           84212300WK6127-FILTRO COMBUSTIVEL                            PC    000000000000000000000000000
752024060120240630780           84212990WK583-FILTRO COMBUSTIVEL                             PC    000000000000000000000000000
752024060120240630782           87085099JHC03122-HOMOC RODA                                  JG    000000000000000000000000000
752024060120240630787           87089100G1251-RESERV AGUA RADIADOR                           PC    000000000000000000000000000
752024060120240630790           38200000COOLANT UP-ADITIVO RADIADOR                          PC    000000000000000000000000000
752024060120240630799           870899900441141-KIT AMORTECEDOR DIANTEIRO                    PC    000000000000000000000000000
752024060120240630802           87089100732353R-RADIADOR AGUA                                PC    000000000000000000000000000
752024060120240630806           84219999C27009-FILTRO AR                                     PC    000000000000000000000000000
752024060120240630807           87088000SK423S-KIT AMORTECEDOR TRASEIRO                      JG    000000000000000000000000000
752024060120240630811           39174090087203-CONEXAO                                       PC    000000000000000000000000000
752024060120240630813           4016930002178BRAGS-RETENTOR COMANDO VALVULAS                 PC    000000000000000000000000000
752024060120240630820           85334011411280-SENSOR TEMPERATURA I.E.                       PC    000000000000000000000000000
752024060120240630826           840991900280158231-BICO INJETOR                              PC    000000000000000000000000000
752024060120240630829           84212300W6880-FILTRO OLEO MOTOR                              PC    000000000000000000000000000
752024060120240630832           87088000LT60443-BIELETA BARRA ESTABILIZADORA                 PC    000000000000000000000000000
752024060120240630835           84841000TAR270515-JUNTA COLETOR ESCAP/ADM                    PC    000000000000000000000000000
752024060120240630843           84213990FAC554-FILTRO ANTI POLEM                             PC    000000000000000000000000000
752024060120240630844           8484900079409FLEX-JUNTA CABECOTE SUPERIOR                    PC    000000000000000000000000000
752024060120240630849           87089990TC7094-TAMPA RADIADOR AGUA                           PC    000000000000000000000000000
752024060120240630851           87088000SP224-AMORT SUSPENSAO TRAS                           PC    000000000000000000000000000
752024060120240630854           8413303010188-BOMBA OLEO MOTOR                               PC    000000000000000000000000000
752024060120240630855           271019325W40 MAXI PERFORMANC-OLEO MOTOR                      LT    000000000000000000000000000
752024060120240630857           84219999C290031-FILTRO AR                                    PC    000000000000000000000000000
752024060120240630864           870830900986AB8653-CILINDRO RODA                             PC    000000000000000000000000000
752024060120240630866           870899902028010OR-COIFA HOMOC                                JG    000000000000000000000000000
752024060120240630870           8708999052004316-COXIM CAMBIO                                PC    000000000000000000000000000
752024060120240630872           87083019P94-PASTILHA FREIO                                   JG    000000000000000000000000000
752024060120240630874           84219999HLP2203-FILTRO AR                                    PC    000000000000000000000000000
752024060120240630877           87083019P1348-PASTILHA FREIO                                 JG    000000000000000000000000000
752024060120240630878           87088000SK8112A-COXIM AMORTECEDOR                            PC    000000000000000000000000000
752024060120240630880           84213990LA87-FILTRO ANTI POLEM                               PC    000000000000000000000000000
752024060120240630882           84212300W6730-FILTRO OLEO MOTOR                              PC    000000000000000000000000000
752024060120240630883           87083019P338-PASTILHA FREIO                                  JG    000000000000000000000000000
752024060120240630885           84219999LX3815-FILTRO AR                                     PC    000000000000000000000000000
752024060120240630886           27101932RALOY ULTRA SYNTH SAE 5W40 API SN - 24/1             LT    000000000000000000000000000
752024060120240630887           27101932RALOY ULTRA SYNTH SAE 5W30 API SP - 24/1             LT    000000000000000000000000000
752024060120240630893           84219999LX3452-FILTRO AR                                     PC    000000000000000000000000000
752024060120240630898           851110000242135559-VELA IGNICAO                              PC    000000000000000000000000000
752024060120240630905           84213990LA117-FILTRO ANTI POLEM                              PC    000000000000000000000000000
752024060120240630910           85392910LMM7515-LAMPADA                                      PC    000000000000000000000000000
752024060120240630915           271019325W30 F1 MASTER-OLEO MOTOR                            LT    000000000000000000000000000
752024060120240630916           2710193210W40 GTX-OLEO MOTOR                                 LT    000000000000000000000000000
752024060120240630917           8413309020025-BOMBA DAGUA                                    PC    000000000000000000000000000
752024060120240630923           401693002131835-VEDADOR                                      PC    000000000000000000000000000
752024060120240630926           4016930075505-JUNTA TAMPA VALVULA                            PC    000000000000000000000000000
752024060120240630927           8511302046344869-BOBINA IGNICAO PLASTICA                     PC    000000000000000000000000000
752024060120240630929           84219999C24034-FILTRO AR                                     PC    000000000000000000000000000
752024060120240630936           3926909024579936-CONEXAO                                     PC    000000000000000000000000000
752024060120240630938           84219999HU8162X-FILTRO OLEO MOTOR                            PC    000000000000000000000000000
752024060120240630943           4016930024587738-RETENTOR COMANDO VALVULAS                   PC    000000000000000000000000000
752024060120240630944           40091100C9018-MANGUEIRA FILTRO AR                            PC    000000000000000000000000000
752024060120240630954           87089990NBJ3010D-SUPORTE BARRA ESTABILIZADORA                PC    000000000000000000000000000
752024060120240630955           87088000NBJ3010E-SUPORTE BARRA ESTABILIZADORA                PC    000000000000000000000000000
752024060120240630956           87089990NAK3072-TERMINAL BARRA DIRECAO                       PC    000000000000000000000000000
752024060120240630958           87088000SK846D-KIT AMORTECEDOR DIANTEIRO                     PC    000000000000000000000000000
752024060120240630971           87089100MF412-RESERV AGUA RADIADOR                           PC    000000000000000000000000000
752024060120240630972           4016999050008048-ANEL VEDACAO                                PC    000000000000000000000000000
752024060120240630984           87083090ATE6447-CILINDRO RODA                                PC    000000000000000000000000000
752024060120240630985           870880000440840-KIT AMORTECEDOR DIANTEIRO                    PC    000000000000000000000000000
752024060120240630996           8708999048586399-HOMOC RODA                                  PC    000000000000000000000000000
