10336213140001600034450680073 CRISTINA ISABEL DE CAMPOS          Belo Horizonte                MG31999760132024120120241231331
11Rua Caconde                       00875                      Renascença     31130510VINICIUS MURTA NERY         031934225098
5000090981138691ISENTO        20241202MG551  0005525656P000000001760000000000000000000000000000000000000000000000000176000000N
5000090981138691ISENTO        20241202MG551  0005525405P000000000780000000000000000000000000000000000000000000000000104000000N
5000029179122604ISENTO        20241205MG551  0005555656P000000001540000000000000000000000000000000000000000000000000154000000N
5000029179122604ISENTO        20241205MG551  0005555405P000000000640000000000000000000000000000000000000000000000000090000000N
5000029179122604ISENTO        20241205MG551  0005555102P000000000400000000000000000000000000000000000000000000000000045000000N
5000024324299668ISENTO        20241202MG551  0005535656P000000001540000000000000000000000000000000000000000000000000154000000N
5000024324299668ISENTO        20241202MG551  0005535405P000000000800000000000000000000000000000000000000000000000000114000000N
5000024324299668ISENTO        20241202MG551  0005535102P000000000350000000000000000000000000000000000000000000000000035000000N
5000010372725600ISENTO        20241226MG551  0005595405P000000002900000000000000000000000000000000000000000000000000764000000N
5000010372725600ISENTO        20241226MG551  0005595102P000000000160000000000000000000000000000000000000000000000000016000000N
5000020315490659ISENTO        20241202MG551  0005545656P000000001980000000000000000000000000000000000000000000000000198000000N
5000020315490659ISENTO        20241202MG551  0005545405P000000000810000000000000000000000000000000000000000000000000109000000N
5000006329909610ISENTO        20241227MG551  0005735656P000000001320000000000000000000000000000000000000000000000000132000000N
5000006329909610ISENTO        20241227MG551  0005735405P000000000730000000000000000000000000000000000000000000000000108000000N
5000012729417605ISENTO        20241205MG551  0005565656P000000002200000000000000000000000000000000000000000000000000220000000N
5000012729417605ISENTO        20241205MG551  0005565405P000000001850000000000000000000000000000000000000000000000000467000000N
5000012729417605ISENTO        20241205MG551  0005565102P000000000350000000000000000000000000000000000000000000000000035000000N
5000044692153687ISENTO        20241226MG551  0005605405P000000003400000000000000000000000000000000000000000000000000830000000N
5000044692153687ISENTO        20241226MG551  0005605102P000000000350000000000000000000000000000000000000000000000000035000000N
5000010919509622ISENTO        20241231MG551  0006015405P000000001980000000000000000000000000000000000000000000000000198000000N
5000010919509622ISENTO        20241231MG551  0006015102P000000000120000000000000000000000000000000000000000000000000012000000N
5000005535736678ISENTO        20241205MG551  0005575405P000000006260000000000000000000000000000000000000000000000002076000000N
5000005535736678ISENTO        20241205MG551  0005575102P000000000160000000000000000000000000000000000000000000000000016000000N
5000040085678600ISENTO        20241226MG551  0005615405P000000002950000000000000000000000000000000000000000000000000735000000N
5000040085678600ISENTO        20241226MG551  0005615102P000000000160000000000000000000000000000000000000000000000000016000000N
5000008170537606ISENTO        20241205MG551  0005585656P000000001380000000000000000000000000000000000000000000000000138000000N
5000008170537606ISENTO        20241205MG551  0005585405P000000007100000000000000000000000000000000000000000000000003587000000N
5000054919428634ISENTO        20241226MG551  0005625405P000000004360000000000000000000000000000000000000000000000001328000000N
5000054919428634ISENTO        20241226MG551  0005625102P000000000510000000000000000000000000000000000000000000000000067000000N
5000024479659668ISENTO        20241227MG551  0005745405P000000000120000000000000000000000000000000000000000000000000012000000N
5000037325043600ISENTO        20241227MG551  0005755405P000000000340000000000000000000000000000000000000000000000000034000000N
5000037325043600ISENTO        20241227MG551  0005755102P000000000350000000000000000000000000000000000000000000000000035000000N
5000001454990651ISENTO        20241226MG551  0005635405P000000001180000000000000000000000000000000000000000000000000144000000N
5000001454990651ISENTO        20241226MG551  0005635102P000000000050000000000000000000000000000000000000000000000000005000000N
5000040182606600ISENTO        20241230MG551  0005785656P000000001840000000000000000000000000000000000000000000000000184000000N
5000040182606600ISENTO        20241230MG551  0005785405P000000000620000000000000000000000000000000000000000000000000088000000N
5000040182606600ISENTO        20241230MG551  0005785102P000000000050000000000000000000000000000000000000000000000000005000000N
5000004963915693ISENTO        20241231MG551  0006025405P000000003580000000000000000000000000000000000000000000000000678000000N
5000004963915693ISENTO        20241231MG551  0006025102P000000000350000000000000000000000000000000000000000000000000035000000N
5000016046242649ISENTO        20241227MG551  0005765405P000000004100000000000000000000000000000000000000000000000001372000000N
5000016046242649ISENTO        20241227MG551  0005765102P000000000350000000000000000000000000000000000000000000000000035000000N
5000057655766649ISENTO        20241226MG551  0005645405P000000003020000000000000000000000000000000000000000000000000792000000N
5000005023719600ISENTO        20241230MG551  0005795405P000000003790000000000000000000000000000000000000000000000000379000000N
5000043857264691ISENTO        20241226MG551  0005655656P000000001760000000000000000000000000000000000000000000000000176000000N
5000043857264691ISENTO        20241226MG551  0005655405P000000000640000000000000000000000000000000000000000000000000090000000N
5000091491495634ISENTO        20241227MG551  0005775656P000000001540000000000000000000000000000000000000000000000000154000000N
5000091491495634ISENTO        20241227MG551  0005775405P000000000800000000000000000000000000000000000000000000000000126000000N
5000052571580604ISENTO        20241226MG551  0005665405P000000000790000000000000000000000000000000000000000000000000079000000N
5000051826127887ISENTO        20241226MG551  0005675656P000000001320000000000000000000000000000000000000000000000000132000000N
5000051826127887ISENTO        20241226MG551  0005675405P000000000260000000000000000000000000000000000000000000000000026000000N
5000051826127887ISENTO        20241226MG551  0005675102P000000000050000000000000000000000000000000000000000000000000005000000N
5000007434620684ISENTO        20241230MG551  0005805405P000000003020000000000000000000000000000000000000000000000000926000000N
5000007434620684ISENTO        20241230MG551  0005805656P000000001320000000000000000000000000000000000000000000000000132000000N
5000005973683680ISENTO        20241226MG551  0005685405P000000003450000000000000000000000000000000000000000000000000461000000N
5000005973683680ISENTO        20241226MG551  0005685102P000000000350000000000000000000000000000000000000000000000000035000000N
5000023078600610ISENTO        20241226MG551  0005695405P000000004350000000000000000000000000000000000000000000000000821000000N
5000040927954591ISENTO        20241226MG551  0005705656P000000001980000000000000000000000000000000000000000000000000198000000N
5000040927954591ISENTO        20241226MG551  0005705405P000000000350000000000000000000000000000000000000000000000000035000000N
5000001563860627ISENTO        20241230MG551  0005815405P000000001520000000000000000000000000000000000000000000000000250000000N
5000001340790602ISENTO        20241226MG551  0005715656P000000001380000000000000000000000000000000000000000000000000138000000N
5000001340790602ISENTO        20241226MG551  0005715405P000000000260000000000000000000000000000000000000000000000000026000000N
5000076866629691ISENTO        20241231MG551  0006035656P000000001760000000000000000000000000000000000000000000000000176000000N
5000076866629691ISENTO        20241231MG551  0006035405P000000000970000000000000000000000000000000000000000000000000159000000N
5000030542855704ISENTO        20241226MG551  0005725656P000000001980000000000000000000000000000000000000000000000000198000000N
5000030542855704ISENTO        20241226MG551  0005725405P000000000950000000000000000000000000000000000000000000000000131000000N
5000030542855704ISENTO        20241226MG551  0005725102P000000000400000000000000000000000000000000000000000000000000045000000N
5000009797297691ISENTO        20241230MG551  0005825656P000000001760000000000000000000000000000000000000000000000000176000000N
5000009797297691ISENTO        20241230MG551  0005825405P000000003840000000000000000000000000000000000000000000000001265000000N
5000009797297691ISENTO        20241230MG551  0005825102P000000000350000000000000000000000000000000000000000000000000035000000N
5000093640471687ISENTO        20241231ES551  0006046403P000000001680000000000000000000000000000000000000000000000000168000000N
5000019558074691ISENTO        20241230MG551  0005835405P000000003670000000000000000000000000000000000000000000000001011000000N
5000000076205606ISENTO        20241230MG551  0005845405P000000003120000000000000000000000000000000000000000000000000802000000N
5000039099261691ISENTO        20241231MG551  0006055656P000000001840000000000000000000000000000000000000000000000000184000000N
5000039099261691ISENTO        20241231MG551  0006055405P000000000600000000000000000000000000000000000000000000000000094000000N
5000039099261691ISENTO        20241231MG551  0006055102P000000000050000000000000000000000000000000000000000000000000005000000N
5000004602797695ISENTO        20241230MG551  0005855656P000000001540000000000000000000000000000000000000000000000000154000000N
5000004602797695ISENTO        20241230MG551  0005855405P000000000800000000000000000000000000000000000000000000000000114000000N
5000068516460649ISENTO        20241230MG551  0005865405P000000000260000000000000000000000000000000000000000000000000026000000N
5000003634098660ISENTO        20241231MG551  0006065405P000000002980000000000000000000000000000000000000000000000000298000000N
5000012375045629ISENTO        20241230MG551  0005875405P000000006480000000000000000000000000000000000000000000000002374000000N
5000012375045629ISENTO        20241230MG551  0005875102P000000000160000000000000000000000000000000000000000000000000016000000N
5000007631997616ISENTO        20241230MG551  0005885656P000000001540000000000000000000000000000000000000000000000000154000000N
5000007631997616ISENTO        20241230MG551  0005885405P000000000890000000000000000000000000000000000000000000000000160000000N
5000007631997616ISENTO        20241230MG551  0005885102P000000000050000000000000000000000000000000000000000000000000005000000N
5000009763555663ISENTO        20241231MG551  0006075102P000000000160000000000000000000000000000000000000000000000000016000000N
5000009763555663ISENTO        20241231MG551  0006075405P000000000730000000000000000000000000000000000000000000000000073000000N
5000060389320625ISENTO        20241230MG551  0005895656P000000001980000000000000000000000000000000000000000000000000198000000N
5000060389320625ISENTO        20241230MG551  0005895405P000000000700000000000000000000000000000000000000000000000000106000000N
5000060389320625ISENTO        20241230MG551  0005895102P000000000160000000000000000000000000000000000000000000000000016000000N
5000004818869660ISENTO        20241231MG551  0006085656P000000001760000000000000000000000000000000000000000000000000176000000N
5000004818869660ISENTO        20241231MG551  0006085405P000000000720000000000000000000000000000000000000000000000000118000000N
5000005371679600ISENTO        20241230MG551  0005905405P000000004250000000000000000000000000000000000000000000000001614000000N
5000005234918670ISENTO        20241230MG551  0005915656P000000001760000000000000000000000000000000000000000000000000176000000N
5000005234918670ISENTO        20241230MG551  0005915405P000000000640000000000000000000000000000000000000000000000000090000000N
5000005234918670ISENTO        20241230MG551  0005915102P000000000350000000000000000000000000000000000000000000000000035000000N
5000000395753651ISENTO        20241231MG551  0006095405P000000002440000000000000000000000000000000000000000000000000622000000N
5000012511618630ISENTO        20241230MG551  0005925656P000000001540000000000000000000000000000000000000000000000000154000000N
5000012511618630ISENTO        20241230MG551  0005925405P000000000820000000000000000000000000000000000000000000000000116000000N
5000044773668687ISENTO        20241231MG551  0006105405P000000006730000000000000000000000000000000000000000000000001767000000N
5000005035697630ISENTO        20241230MG551  0005935405P000000008250000000000000000000000000000000000000000000000003258000000N
5000003057790607ISENTO        20241230MG551  0005945656P000000001760000000000000000000000000000000000000000000000000176000000N
5000003057790607ISENTO        20241230MG551  0005945405P000000000700000000000000000000000000000000000000000000000000114000000N
5000003057790607ISENTO        20241230MG551  0005945102P000000000160000000000000000000000000000000000000000000000000016000000N
5000003206244633ISENTO        20241231MG551  0006115405P000000013060000000000000000000000000000000000000000000000001884000000N
5000003206244633ISENTO        20241231MG551  0006115102P000000000510000000000000000000000000000000000000000000000000067000000N
5000081246510600ISENTO        20241230MG551  0005955405P000000008190000000000000000000000000000000000000000000000004478000000N
5000007850812670ISENTO        20241230MG551  0005965656P000000001840000000000000000000000000000000000000000000000000184000000N
5000007850812670ISENTO        20241230MG551  0005965405P000000000610000000000000000000000000000000000000000000000000087000000N
5000007850812670ISENTO        20241230MG551  0005965102P000000000050000000000000000000000000000000000000000000000000005000000N
5000043539475672ISENTO        20241230MG551  0005975656P000000001840000000000000000000000000000000000000000000000000184000000N
5000043539475672ISENTO        20241230MG551  0005975405P000000000610000000000000000000000000000000000000000000000000087000000N
5000043539475672ISENTO        20241230MG551  0005975102P000000000050000000000000000000000000000000000000000000000000005000000N
5000008866972630ISENTO        20241231MG551  0006125405P000000000620000000000000000000000000000000000000000000000000062000000N
5000008866972630ISENTO        20241231MG551  0006125102P000000000350000000000000000000000000000000000000000000000000035000000N
5000040927954591ISENTO        20241231MG551  0006135405P000000008720000000000000000000000000000000000000000000000003246000000N
5000091788927672ISENTO        20241230MG551  0005985405P000000004060000000000000000000000000000000000000000000000001246000000N
5000054123038620ISENTO        20241230MG551  0005995405P000000011130000000000000000000000000000000000000000000000005732000000N
5000054123038620ISENTO        20241230MG551  0005995656P000000001540000000000000000000000000000000000000000000000000154000000N
5000000452115310ISENTO        20241230MG551  0006005656P000000001320000000000000000000000000000000000000000000000000132000000N
5000000452115310ISENTO        20241230MG551  0006005405P000000017270000000000000000000000000000000000000000000000006464000000N
5000019635419600ISENTO        20241231MG551  0006145405P000000006620000000000000000000000000000000000000000000000002400000000N
5000019635419600ISENTO        20241231MG551  0006145102P000000000160000000000000000000000000000000000000000000000000016000000N
5000007382625605ISENTO        20241231MG551  0006155656P000000001610000000000000000000000000000000000000000000000000161000000N
5000007382625605ISENTO        20241231MG551  0006155405P000000001150000000000000000000000000000000000000000000000000221000000N
5000007382625605ISENTO        20241231MG551  0006155102P000000000510000000000000000000000000000000000000000000000000086000000N
5000008186577661ISENTO        20241231MG551  0006165656P000000002200000000000000000000000000000000000000000000000000220000000N
5000008186577661ISENTO        20241231MG551  0006165405P000000001080000000000000000000000000000000000000000000000000182000000N
5000008186577661ISENTO        20241231MG551  0006165102P000000000160000000000000000000000000000000000000000000000000016000000N
5000021472157753ISENTO        20241231MG551  0006175405P000000000520000000000000000000000000000000000000000000000000052000000N
5000021472157753ISENTO        20241231MG551  0006175102P000000000350000000000000000000000000000000000000000000000000035000000N
5000006101226654ISENTO        20241231MG551  0006185405P000000006340000000000000000000000000000000000000000000000003005000000N
5000006101226654ISENTO        20241231MG551  0006185102P000000000160000000000000000000000000000000000000000000000000016000000N
504444858100010246329510067   20241204MG551  0006445655T000000007502400000000000000000000000000000000000000000000000750240000N
50436489710053861312885600405 20241203MG551  2477011102T000000002025600000000202560000000006279000000000000000000000000003100N
50436489710053861312885600405 20241203MG551  2477011102T000000003577000000000357700000000006439000000000000000000000000001800N
50215322700001130624775200061 20241206MG551  0105061403T000000046255100000000000000000000000000000000000000000000000000000000N
50215322700001130624775200061 20241213MG551  0105691403T000000021558300000000000000000000000000000000000000000000000000000000N
50215322700001130624775200061 20241220MG551  0106461403T000000025580000000000000000000000000000000000000000000000000000000000N
50215322700001130624775200061 20241227MG551  0107191403T000000042526400000000000000000000000000000000000000000000000000000000N
5100090981138691ISENTO        20241202MG1  00055254050000000000000000000000000000000000000000000000000000                    N
5100090981138691ISENTO        20241202MG1  00055256560000000000000000000000000000000000000000000000000000                    N
5100024324299668ISENTO        20241202MG1  00055356560000000000000000000000000000000000000000000000000000                    N
5100024324299668ISENTO        20241202MG1  00055354050000000000000000000000000000000000000000000000000000                    N
5100024324299668ISENTO        20241202MG1  00055351020000000000000000000000000000000000000000000000000000                    N
5100020315490659ISENTO        20241202MG1  00055454050000000000000000000000000000000000000000000000000000                    N
5100020315490659ISENTO        20241202MG1  00055456560000000000000000000000000000000000000000000000000000                    N
51436489710053861312885600405 20241203MG1  24770111020000000000000000000000000000000000000000000000000000                    N
51436489710053861312885600405 20241203MG1  24770111020000000000000000000000000000000000000000000000000000                    N
514444858100010246329510067   20241204MG1  00064456550000000000000000000000000000000000000000000000000000                    N
5100029179122604ISENTO        20241205MG1  00055551020000000000000000000000000000000000000000000000000000                    N
5100029179122604ISENTO        20241205MG1  00055556560000000000000000000000000000000000000000000000000000                    N
5100029179122604ISENTO        20241205MG1  00055554050000000000000000000000000000000000000000000000000000                    N
5100012729417605ISENTO        20241205MG1  00055654050000000000000000000000000000000000000000000000000000                    N
5100012729417605ISENTO        20241205MG1  00055656560000000000000000000000000000000000000000000000000000                    N
5100012729417605ISENTO        20241205MG1  00055651020000000000000000000000000000000000000000000000000000                    N
5100005535736678ISENTO        20241205MG1  00055754050000000000000000000000000000000000000000000000000000                    N
5100005535736678ISENTO        20241205MG1  00055751020000000000000000000000000000000000000000000000000000                    N
5100008170537606ISENTO        20241205MG1  00055856560000000000000000000000000000000000000000000000000000                    N
5100008170537606ISENTO        20241205MG1  00055854050000000000000000000000000000000000000000000000000000                    N
51215322700001130624775200061 20241206MG1  01050614030000000000000000000000000000000000000000000000000000                    N
51215322700001130624775200061 20241213MG1  01056914030000000000000000000000000000000000000000000000000000                    N
51215322700001130624775200061 20241220MG1  01064614030000000000000000000000000000000000000000000000000000                    N
5100010372725600ISENTO        20241226MG1  00055951020000000000000000000000000000000000000000000000000000                    N
5100010372725600ISENTO        20241226MG1  00055954050000000000000000000000000000000000000000000000000000                    N
5100044692153687ISENTO        20241226MG1  00056054050000000000000000000000000000000000000000000000000000                    N
5100044692153687ISENTO        20241226MG1  00056051020000000000000000000000000000000000000000000000000000                    N
5100040085678600ISENTO        20241226MG1  00056154050000000000000000000000000000000000000000000000000000                    N
5100040085678600ISENTO        20241226MG1  00056151020000000000000000000000000000000000000000000000000000                    N
5100054919428634ISENTO        20241226MG1  00056254050000000000000000000000000000000000000000000000000000                    N
5100054919428634ISENTO        20241226MG1  00056251020000000000000000000000000000000000000000000000000000                    N
5100001454990651ISENTO        20241226MG1  00056351020000000000000000000000000000000000000000000000000000                    N
5100001454990651ISENTO        20241226MG1  00056354050000000000000000000000000000000000000000000000000000                    N
5100057655766649ISENTO        20241226MG1  00056454050000000000000000000000000000000000000000000000000000                    N
5100043857264691ISENTO        20241226MG1  00056554050000000000000000000000000000000000000000000000000000                    N
5100043857264691ISENTO        20241226MG1  00056556560000000000000000000000000000000000000000000000000000                    N
5100052571580604ISENTO        20241226MG1  00056654050000000000000000000000000000000000000000000000000000                    N
5100051826127887ISENTO        20241226MG1  00056756560000000000000000000000000000000000000000000000000000                    N
5100051826127887ISENTO        20241226MG1  00056751020000000000000000000000000000000000000000000000000000                    N
5100051826127887ISENTO        20241226MG1  00056754050000000000000000000000000000000000000000000000000000                    N
5100005973683680ISENTO        20241226MG1  00056851020000000000000000000000000000000000000000000000000000                    N
5100005973683680ISENTO        20241226MG1  00056854050000000000000000000000000000000000000000000000000000                    N
5100023078600610ISENTO        20241226MG1  00056954050000000000000000000000000000000000000000000000000000                    N
5100040927954591ISENTO        20241226MG1  00057056560000000000000000000000000000000000000000000000000000                    N
5100040927954591ISENTO        20241226MG1  00057054050000000000000000000000000000000000000000000000000000                    N
5100001340790602ISENTO        20241226MG1  00057154050000000000000000000000000000000000000000000000000000                    N
5100001340790602ISENTO        20241226MG1  00057156560000000000000000000000000000000000000000000000000000                    N
5100030542855704ISENTO        20241226MG1  00057254050000000000000000000000000000000000000000000000000000                    N
5100030542855704ISENTO        20241226MG1  00057256560000000000000000000000000000000000000000000000000000                    N
5100030542855704ISENTO        20241226MG1  00057251020000000000000000000000000000000000000000000000000000                    N
51215322700001130624775200061 20241227MG1  01071914030000000000000000000000000000000000000000000000000000                    N
5100006329909610ISENTO        20241227MG1  00057356560000000000000000000000000000000000000000000000000000                    N
5100006329909610ISENTO        20241227MG1  00057354050000000000000000000000000000000000000000000000000000                    N
5100024479659668ISENTO        20241227MG1  00057454050000000000000000000000000000000000000000000000000000                    N
5100037325043600ISENTO        20241227MG1  00057551020000000000000000000000000000000000000000000000000000                    N
5100037325043600ISENTO        20241227MG1  00057554050000000000000000000000000000000000000000000000000000                    N
5100016046242649ISENTO        20241227MG1  00057651020000000000000000000000000000000000000000000000000000                    N
5100016046242649ISENTO        20241227MG1  00057654050000000000000000000000000000000000000000000000000000                    N
5100091491495634ISENTO        20241227MG1  00057756560000000000000000000000000000000000000000000000000000                    N
5100091491495634ISENTO        20241227MG1  00057754050000000000000000000000000000000000000000000000000000                    N
5100040182606600ISENTO        20241230MG1  00057851020000000000000000000000000000000000000000000000000000                    N
5100040182606600ISENTO        20241230MG1  00057854050000000000000000000000000000000000000000000000000000                    N
5100040182606600ISENTO        20241230MG1  00057856560000000000000000000000000000000000000000000000000000                    N
5100005023719600ISENTO        20241230MG1  00057954050000000000000000000000000000000000000000000000000000                    N
5100007434620684ISENTO        20241230MG1  00058054050000000000000000000000000000000000000000000000000000                    N
5100007434620684ISENTO        20241230MG1  00058056560000000000000000000000000000000000000000000000000000                    N
5100001563860627ISENTO        20241230MG1  00058154050000000000000000000000000000000000000000000000000000                    N
5100009797297691ISENTO        20241230MG1  00058251020000000000000000000000000000000000000000000000000000                    N
5100009797297691ISENTO        20241230MG1  00058256560000000000000000000000000000000000000000000000000000                    N
5100009797297691ISENTO        20241230MG1  00058254050000000000000000000000000000000000000000000000000000                    N
5100019558074691ISENTO        20241230MG1  00058354050000000000000000000000000000000000000000000000000000                    N
5100000076205606ISENTO        20241230MG1  00058454050000000000000000000000000000000000000000000000000000                    N
5100004602797695ISENTO        20241230MG1  00058554050000000000000000000000000000000000000000000000000000                    N
5100004602797695ISENTO        20241230MG1  00058556560000000000000000000000000000000000000000000000000000                    N
5100068516460649ISENTO        20241230MG1  00058654050000000000000000000000000000000000000000000000000000                    N
5100012375045629ISENTO        20241230MG1  00058754050000000000000000000000000000000000000000000000000000                    N
5100012375045629ISENTO        20241230MG1  00058751020000000000000000000000000000000000000000000000000000                    N
5100007631997616ISENTO        20241230MG1  00058856560000000000000000000000000000000000000000000000000000                    N
5100007631997616ISENTO        20241230MG1  00058854050000000000000000000000000000000000000000000000000000                    N
5100007631997616ISENTO        20241230MG1  00058851020000000000000000000000000000000000000000000000000000                    N
5100060389320625ISENTO        20241230MG1  00058951020000000000000000000000000000000000000000000000000000                    N
5100060389320625ISENTO        20241230MG1  00058954050000000000000000000000000000000000000000000000000000                    N
5100060389320625ISENTO        20241230MG1  00058956560000000000000000000000000000000000000000000000000000                    N
5100005371679600ISENTO        20241230MG1  00059054050000000000000000000000000000000000000000000000000000                    N
5100005234918670ISENTO        20241230MG1  00059151020000000000000000000000000000000000000000000000000000                    N
5100005234918670ISENTO        20241230MG1  00059154050000000000000000000000000000000000000000000000000000                    N
5100005234918670ISENTO        20241230MG1  00059156560000000000000000000000000000000000000000000000000000                    N
5100012511618630ISENTO        20241230MG1  00059254050000000000000000000000000000000000000000000000000000                    N
5100012511618630ISENTO        20241230MG1  00059256560000000000000000000000000000000000000000000000000000                    N
5100005035697630ISENTO        20241230MG1  00059354050000000000000000000000000000000000000000000000000000                    N
5100003057790607ISENTO        20241230MG1  00059454050000000000000000000000000000000000000000000000000000                    N
5100003057790607ISENTO        20241230MG1  00059451020000000000000000000000000000000000000000000000000000                    N
5100003057790607ISENTO        20241230MG1  00059456560000000000000000000000000000000000000000000000000000                    N
5100081246510600ISENTO        20241230MG1  00059554050000000000000000000000000000000000000000000000000000                    N
5100007850812670ISENTO        20241230MG1  00059651020000000000000000000000000000000000000000000000000000                    N
5100007850812670ISENTO        20241230MG1  00059654050000000000000000000000000000000000000000000000000000                    N
5100007850812670ISENTO        20241230MG1  00059656560000000000000000000000000000000000000000000000000000                    N
5100043539475672ISENTO        20241230MG1  00059754050000000000000000000000000000000000000000000000000000                    N
5100043539475672ISENTO        20241230MG1  00059756560000000000000000000000000000000000000000000000000000                    N
5100043539475672ISENTO        20241230MG1  00059751020000000000000000000000000000000000000000000000000000                    N
5100091788927672ISENTO        20241230MG1  00059854050000000000000000000000000000000000000000000000000000                    N
5100054123038620ISENTO        20241230MG1  00059956560000000000000000000000000000000000000000000000000000                    N
5100054123038620ISENTO        20241230MG1  00059954050000000000000000000000000000000000000000000000000000                    N
5100000452115310ISENTO        20241230MG1  00060054050000000000000000000000000000000000000000000000000000                    N
5100000452115310ISENTO        20241230MG1  00060056560000000000000000000000000000000000000000000000000000                    N
5100010919509622ISENTO        20241231MG1  00060154050000000000000000000000000000000000000000000000000000                    N
5100010919509622ISENTO        20241231MG1  00060151020000000000000000000000000000000000000000000000000000                    N
5100004963915693ISENTO        20241231MG1  00060254050000000000000000000000000000000000000000000000000000                    N
5100004963915693ISENTO        20241231MG1  00060251020000000000000000000000000000000000000000000000000000                    N
5100076866629691ISENTO        20241231MG1  00060356560000000000000000000000000000000000000000000000000000                    N
5100076866629691ISENTO        20241231MG1  00060354050000000000000000000000000000000000000000000000000000                    N
5100093640471687ISENTO        20241231ES1  00060464030000000000000000000000000000000000000000000000000000                    N
5100039099261691ISENTO        20241231MG1  00060554050000000000000000000000000000000000000000000000000000                    N
5100039099261691ISENTO        20241231MG1  00060556560000000000000000000000000000000000000000000000000000                    N
5100039099261691ISENTO        20241231MG1  00060551020000000000000000000000000000000000000000000000000000                    N
5100003634098660ISENTO        20241231MG1  00060654050000000000000000000000000000000000000000000000000000                    N
5100009763555663ISENTO        20241231MG1  00060754050000000000000000000000000000000000000000000000000000                    N
5100009763555663ISENTO        20241231MG1  00060751020000000000000000000000000000000000000000000000000000                    N
5100004818869660ISENTO        20241231MG1  00060856560000000000000000000000000000000000000000000000000000                    N
5100004818869660ISENTO        20241231MG1  00060854050000000000000000000000000000000000000000000000000000                    N
5100000395753651ISENTO        20241231MG1  00060954050000000000000000000000000000000000000000000000000000                    N
5100044773668687ISENTO        20241231MG1  00061054050000000000000000000000000000000000000000000000000000                    N
5100003206244633ISENTO        20241231MG1  00061151020000000000000000000000000000000000000000000000000000                    N
5100003206244633ISENTO        20241231MG1  00061154050000000000000000000000000000000000000000000000000000                    N
5100008866972630ISENTO        20241231MG1  00061251020000000000000000000000000000000000000000000000000000                    N
5100008866972630ISENTO        20241231MG1  00061254050000000000000000000000000000000000000000000000000000                    N
5100040927954591ISENTO        20241231MG1  00061354050000000000000000000000000000000000000000000000000000                    N
5100019635419600ISENTO        20241231MG1  00061451020000000000000000000000000000000000000000000000000000                    N
5100019635419600ISENTO        20241231MG1  00061454050000000000000000000000000000000000000000000000000000                    N
5100007382625605ISENTO        20241231MG1  00061551020000000000000000000000000000000000000000000000000000                    N
5100007382625605ISENTO        20241231MG1  00061554050000000000000000000000000000000000000000000000000000                    N
5100007382625605ISENTO        20241231MG1  00061556560000000000000000000000000000000000000000000000000000                    N
5100008186577661ISENTO        20241231MG1  00061654050000000000000000000000000000000000000000000000000000                    N
5100008186577661ISENTO        20241231MG1  00061656560000000000000000000000000000000000000000000000000000                    N
5100008186577661ISENTO        20241231MG1  00061651020000000000000000000000000000000000000000000000000000                    N
5100021472157753ISENTO        20241231MG1  00061751020000000000000000000000000000000000000000000000000000                    N
5100021472157753ISENTO        20241231MG1  00061754050000000000000000000000000000000000000000000000000000                    N
5100006101226654ISENTO        20241231MG1  00061854050000000000000000000000000000000000000000000000000000                    N
5100006101226654ISENTO        20241231MG1  00061851020000000000000000000000000000000000000000000000000000                    N
5300090981138691ISENTO        20241202MG551  0005525656P000000000000000000000000000000000000000N                              
5300090981138691ISENTO        20241202MG551  0005525405P000000000000000000000000000000000000000N                              
5300029179122604ISENTO        20241205MG551  0005555656P000000000000000000000000000000000000000N                              
5300029179122604ISENTO        20241205MG551  0005555405P000000000000000000000000000000000000000N                              
5300029179122604ISENTO        20241205MG551  0005555102P000000000000000000000000000000000000000N                              
5300024324299668ISENTO        20241202MG551  0005535656P000000000000000000000000000000000000000N                              
5300024324299668ISENTO        20241202MG551  0005535405P000000000000000000000000000000000000000N                              
5300024324299668ISENTO        20241202MG551  0005535102P000000000000000000000000000000000000000N                              
5300010372725600ISENTO        20241226MG551  0005595405P000000000000000000000000000000000000000N                              
5300010372725600ISENTO        20241226MG551  0005595102P000000000000000000000000000000000000000N                              
5300020315490659ISENTO        20241202MG551  0005545656P000000000000000000000000000000000000000N                              
5300020315490659ISENTO        20241202MG551  0005545405P000000000000000000000000000000000000000N                              
5300006329909610ISENTO        20241227MG551  0005735656P000000000000000000000000000000000000000N                              
5300006329909610ISENTO        20241227MG551  0005735405P000000000000000000000000000000000000000N                              
5300012729417605ISENTO        20241205MG551  0005565656P000000000000000000000000000000000000000N                              
5300012729417605ISENTO        20241205MG551  0005565405P000000000000000000000000000000000000000N                              
5300012729417605ISENTO        20241205MG551  0005565102P000000000000000000000000000000000000000N                              
5300044692153687ISENTO        20241226MG551  0005605405P000000000000000000000000000000000000000N                              
5300044692153687ISENTO        20241226MG551  0005605102P000000000000000000000000000000000000000N                              
5300010919509622ISENTO        20241231MG551  0006015405P000000000000000000000000000000000000000N                              
5300010919509622ISENTO        20241231MG551  0006015102P000000000000000000000000000000000000000N                              
5300005535736678ISENTO        20241205MG551  0005575405P000000000000000000000000000000000000000N                              
5300005535736678ISENTO        20241205MG551  0005575102P000000000000000000000000000000000000000N                              
5300040085678600ISENTO        20241226MG551  0005615405P000000000000000000000000000000000000000N                              
5300040085678600ISENTO        20241226MG551  0005615102P000000000000000000000000000000000000000N                              
5300008170537606ISENTO        20241205MG551  0005585656P000000000000000000000000000000000000000N                              
5300008170537606ISENTO        20241205MG551  0005585405P000000000000000000000000000000000000000N                              
5300054919428634ISENTO        20241226MG551  0005625405P000000000000000000000000000000000000000N                              
5300054919428634ISENTO        20241226MG551  0005625102P000000000000000000000000000000000000000N                              
5300024479659668ISENTO        20241227MG551  0005745405P000000000000000000000000000000000000000N                              
5300037325043600ISENTO        20241227MG551  0005755405P000000000000000000000000000000000000000N                              
5300037325043600ISENTO        20241227MG551  0005755102P000000000000000000000000000000000000000N                              
5300001454990651ISENTO        20241226MG551  0005635405P000000000000000000000000000000000000000N                              
5300001454990651ISENTO        20241226MG551  0005635102P000000000000000000000000000000000000000N                              
5300040182606600ISENTO        20241230MG551  0005785656P000000000000000000000000000000000000000N                              
5300040182606600ISENTO        20241230MG551  0005785405P000000000000000000000000000000000000000N                              
5300040182606600ISENTO        20241230MG551  0005785102P000000000000000000000000000000000000000N                              
5300004963915693ISENTO        20241231MG551  0006025405P000000000000000000000000000000000000000N                              
5300004963915693ISENTO        20241231MG551  0006025102P000000000000000000000000000000000000000N                              
5300016046242649ISENTO        20241227MG551  0005765405P000000000000000000000000000000000000000N                              
5300016046242649ISENTO        20241227MG551  0005765102P000000000000000000000000000000000000000N                              
5300057655766649ISENTO        20241226MG551  0005645405P000000000000000000000000000000000000000N                              
5300005023719600ISENTO        20241230MG551  0005795405P000000000000000000000000000000000000000N                              
5300043857264691ISENTO        20241226MG551  0005655656P000000000000000000000000000000000000000N                              
5300043857264691ISENTO        20241226MG551  0005655405P000000000000000000000000000000000000000N                              
5300091491495634ISENTO        20241227MG551  0005775656P000000000000000000000000000000000000000N                              
5300091491495634ISENTO        20241227MG551  0005775405P000000000000000000000000000000000000000N                              
5300052571580604ISENTO        20241226MG551  0005665405P000000000000000000000000000000000000000N                              
5300051826127887ISENTO        20241226MG551  0005675656P000000000000000000000000000000000000000N                              
5300051826127887ISENTO        20241226MG551  0005675405P000000000000000000000000000000000000000N                              
5300051826127887ISENTO        20241226MG551  0005675102P000000000000000000000000000000000000000N                              
5300007434620684ISENTO        20241230MG551  0005805405P000000000000000000000000000000000000000N                              
5300007434620684ISENTO        20241230MG551  0005805656P000000000000000000000000000000000000000N                              
5300005973683680ISENTO        20241226MG551  0005685405P000000000000000000000000000000000000000N                              
5300005973683680ISENTO        20241226MG551  0005685102P000000000000000000000000000000000000000N                              
5300023078600610ISENTO        20241226MG551  0005695405P000000000000000000000000000000000000000N                              
5300040927954591ISENTO        20241226MG551  0005705656P000000000000000000000000000000000000000N                              
5300040927954591ISENTO        20241226MG551  0005705405P000000000000000000000000000000000000000N                              
5300001563860627ISENTO        20241230MG551  0005815405P000000000000000000000000000000000000000N                              
5300001340790602ISENTO        20241226MG551  0005715656P000000000000000000000000000000000000000N                              
5300001340790602ISENTO        20241226MG551  0005715405P000000000000000000000000000000000000000N                              
5300076866629691ISENTO        20241231MG551  0006035656P000000000000000000000000000000000000000N                              
5300076866629691ISENTO        20241231MG551  0006035405P000000000000000000000000000000000000000N                              
5300030542855704ISENTO        20241226MG551  0005725656P000000000000000000000000000000000000000N                              
5300030542855704ISENTO        20241226MG551  0005725405P000000000000000000000000000000000000000N                              
5300030542855704ISENTO        20241226MG551  0005725102P000000000000000000000000000000000000000N                              
5300009797297691ISENTO        20241230MG551  0005825656P000000000000000000000000000000000000000N                              
5300009797297691ISENTO        20241230MG551  0005825405P000000000000000000000000000000000000000N                              
5300009797297691ISENTO        20241230MG551  0005825102P000000000000000000000000000000000000000N                              
5300093640471687ISENTO        20241231ES551  0006046403P000000000000000000000000000000000000000N                              
5300019558074691ISENTO        20241230MG551  0005835405P000000000000000000000000000000000000000N                              
5300000076205606ISENTO        20241230MG551  0005845405P000000000000000000000000000000000000000N                              
5300039099261691ISENTO        20241231MG551  0006055656P000000000000000000000000000000000000000N                              
5300039099261691ISENTO        20241231MG551  0006055405P000000000000000000000000000000000000000N                              
5300039099261691ISENTO        20241231MG551  0006055102P000000000000000000000000000000000000000N                              
5300004602797695ISENTO        20241230MG551  0005855656P000000000000000000000000000000000000000N                              
5300004602797695ISENTO        20241230MG551  0005855405P000000000000000000000000000000000000000N                              
5300068516460649ISENTO        20241230MG551  0005865405P000000000000000000000000000000000000000N                              
5300003634098660ISENTO        20241231MG551  0006065405P000000000000000000000000000000000000000N                              
5300012375045629ISENTO        20241230MG551  0005875405P000000000000000000000000000000000000000N                              
5300012375045629ISENTO        20241230MG551  0005875102P000000000000000000000000000000000000000N                              
5300007631997616ISENTO        20241230MG551  0005885656P000000000000000000000000000000000000000N                              
5300007631997616ISENTO        20241230MG551  0005885405P000000000000000000000000000000000000000N                              
5300007631997616ISENTO        20241230MG551  0005885102P000000000000000000000000000000000000000N                              
5300009763555663ISENTO        20241231MG551  0006075102P000000000000000000000000000000000000000N                              
5300009763555663ISENTO        20241231MG551  0006075405P000000000000000000000000000000000000000N                              
5300060389320625ISENTO        20241230MG551  0005895656P000000000000000000000000000000000000000N                              
5300060389320625ISENTO        20241230MG551  0005895405P000000000000000000000000000000000000000N                              
5300060389320625ISENTO        20241230MG551  0005895102P000000000000000000000000000000000000000N                              
5300004818869660ISENTO        20241231MG551  0006085656P000000000000000000000000000000000000000N                              
5300004818869660ISENTO        20241231MG551  0006085405P000000000000000000000000000000000000000N                              
5300005371679600ISENTO        20241230MG551  0005905405P000000000000000000000000000000000000000N                              
5300005234918670ISENTO        20241230MG551  0005915656P000000000000000000000000000000000000000N                              
5300005234918670ISENTO        20241230MG551  0005915405P000000000000000000000000000000000000000N                              
5300005234918670ISENTO        20241230MG551  0005915102P000000000000000000000000000000000000000N                              
5300000395753651ISENTO        20241231MG551  0006095405P000000000000000000000000000000000000000N                              
5300012511618630ISENTO        20241230MG551  0005925656P000000000000000000000000000000000000000N                              
5300012511618630ISENTO        20241230MG551  0005925405P000000000000000000000000000000000000000N                              
5300044773668687ISENTO        20241231MG551  0006105405P000000000000000000000000000000000000000N                              
5300005035697630ISENTO        20241230MG551  0005935405P000000000000000000000000000000000000000N                              
5300003057790607ISENTO        20241230MG551  0005945656P000000000000000000000000000000000000000N                              
5300003057790607ISENTO        20241230MG551  0005945405P000000000000000000000000000000000000000N                              
5300003057790607ISENTO        20241230MG551  0005945102P000000000000000000000000000000000000000N                              
5300003206244633ISENTO        20241231MG551  0006115405P000000000000000000000000000000000000000N                              
5300003206244633ISENTO        20241231MG551  0006115102P000000000000000000000000000000000000000N                              
5300081246510600ISENTO        20241230MG551  0005955405P000000000000000000000000000000000000000N                              
5300007850812670ISENTO        20241230MG551  0005965656P000000000000000000000000000000000000000N                              
5300007850812670ISENTO        20241230MG551  0005965405P000000000000000000000000000000000000000N                              
5300007850812670ISENTO        20241230MG551  0005965102P000000000000000000000000000000000000000N                              
5300043539475672ISENTO        20241230MG551  0005975656P000000000000000000000000000000000000000N                              
5300043539475672ISENTO        20241230MG551  0005975405P000000000000000000000000000000000000000N                              
5300043539475672ISENTO        20241230MG551  0005975102P000000000000000000000000000000000000000N                              
5300008866972630ISENTO        20241231MG551  0006125405P000000000000000000000000000000000000000N                              
5300008866972630ISENTO        20241231MG551  0006125102P000000000000000000000000000000000000000N                              
5300040927954591ISENTO        20241231MG551  0006135405P000000000000000000000000000000000000000N                              
5300091788927672ISENTO        20241230MG551  0005985405P000000000000000000000000000000000000000N                              
5300054123038620ISENTO        20241230MG551  0005995405P000000000000000000000000000000000000000N                              
5300054123038620ISENTO        20241230MG551  0005995656P000000000000000000000000000000000000000N                              
5300000452115310ISENTO        20241230MG551  0006005656P000000000000000000000000000000000000000N                              
5300000452115310ISENTO        20241230MG551  0006005405P000000000000000000000000000000000000000N                              
5300019635419600ISENTO        20241231MG551  0006145405P000000000000000000000000000000000000000N                              
5300019635419600ISENTO        20241231MG551  0006145102P000000000000000000000000000000000000000N                              
5300007382625605ISENTO        20241231MG551  0006155656P000000000000000000000000000000000000000N                              
5300007382625605ISENTO        20241231MG551  0006155405P000000000000000000000000000000000000000N                              
5300007382625605ISENTO        20241231MG551  0006155102P000000000000000000000000000000000000000N                              
5300008186577661ISENTO        20241231MG551  0006165656P000000000000000000000000000000000000000N                              
5300008186577661ISENTO        20241231MG551  0006165405P000000000000000000000000000000000000000N                              
5300008186577661ISENTO        20241231MG551  0006165102P000000000000000000000000000000000000000N                              
5300021472157753ISENTO        20241231MG551  0006175405P000000000000000000000000000000000000000N                              
5300021472157753ISENTO        20241231MG551  0006175102P000000000000000000000000000000000000000N                              
5300006101226654ISENTO        20241231MG551  0006185405P000000000000000000000000000000000000000N                              
5300006101226654ISENTO        20241231MG551  0006185102P000000000000000000000000000000000000000N                              
534444858100010246329510067   20241204MG551  0006445655T000000000000000000000000000000000000000N                              
53436489710053861312885600405 20241203MG551  2477011102T000000000000000000000000000000000000000N                              
53436489710053861312885600405 20241203MG551  2477011102T000000000000000000000000000000000000000N                              
53215322700001130624775200061 20241206MG551  0105061403T000000000000000000000000000000000000000N                              
53215322700001130624775200061 20241213MG551  0105691403T000000000000000000000000000000000000000N                              
53215322700001130624775200061 20241220MG551  0106461403T000000000000000000000000000000000000000N                              
53215322700001130624775200061 20241227MG551  0107191403T000000000000000000000000000000000000000N                              
5400000076205606551  0005845405500001633           000000040000000000232000000000000000000000000000000000000000000000000000000
5400000076205606551  0005845405500002882           000000010000000000026000000000000000000000000000000000000000000000000000000
5400000076205606551  00058454055000031437          000000010000000000054000000000000000000000000000000000000000000000000000000
5400000395753651551  0006095405500001916           000000040000000000160000000000000000000000000000000000000000000000000000000
5400000395753651551  00060954055000021463          000000010000000000058000000000000000000000000000000000000000000000000000000
5400000395753651551  0006095405500003882           000000010000000000026000000000000000000000000000000000000000000000000000000
5400000452115310551  00060056565000011260          000000030000000000132000000000000000000000000000000000000000000000000000000
5400000452115310551  0006005405500002929           000000010000000000034000000000000000000000000000000000000000000000000000000
5400000452115310551  0006005405500003882           000000010000000000026000000000000000000000000000000000000000000000000000000
5400000452115310551  0006005405500004801           000000010000000000048000000000000000000000000000000000000000000000000000000
5400000452115310551  0006005405500005873           000000010000000000052000000000000000000000000000000000000000000000000000000
5400000452115310551  00060054055000061141          000000020000000000996000000000000000000000000000000000000000000000000000000
5400000452115310551  0006005405500007686           000000020000000000404000000000000000000000000000000000000000000000000000000
5400000452115310551  00060054055000081443          000000010000000000099000000000000000000000000000000000000000000000000000000
5400000452115310551  00060054055000091208          000000010000000000068000000000000000000000000000000000000000000000000000000
5400001340790602551  0005715656500001886           000000030000000000138000000000000000000000000000000000000000000000000000000
5400001340790602551  0005715405500002882           000000010000000000026000000000000000000000000000000000000000000000000000000
5400001454990651551  0005635405500001882           000000010000000000026000000000000000000000000000000000000000000000000000000
5400001454990651551  00056354055000021457          000000010000000000092000000000000000000000000000000000000000000000000000000
5400001454990651551  0005635102102003972           000000010000000000005000000000000000000000000000000000000000000000000000000
5400001563860627551  0005815405500001785           000000010000000000098000000000000000000000000000000000000000000000000000000
5400001563860627551  0005815405500002653           000000020000000000054000000000000000000000000000000000000000000000000000000
5400003057790607551  00059456565000011260          000000040000000000176000000000000000000000000000000000000000000000000000000
5400003057790607551  0005945405500002624           000000010000000000044000000000000000000000000000000000000000000000000000000
5400003057790607551  0005945405500003829           000000010000000000026000000000000000000000000000000000000000000000000000000
5400003057790607551  0005945102102004972           000000010000000000016000000000000000000000000000000000000000000000000000000
5400003206244633551  0006115405500001916           000000040000000000160000000000000000000000000000000000000000000000000000000
5400003206244633551  0006115405500002829           000000010000000000028000000000000000000000000000000000000000000000000000000
5400003206244633551  0006115405500003746           000000010000000000042000000000000000000000000000000000000000000000000000000
5400003206244633551  0006115102102004972           000000010000000000016000000000000000000000000000000000000000000000000000000
5400003206244633551  0006115405500005772           000000040000000001076000000000000000000000000000000000000000000000000000000
5400003206244633551  00061151021020061459          000000010000000000035000000000000000000000000000000000000000000000000000000
5400003634098660551  00060654055000011465          000000010000000000298000000000000000000000000000000000000000000000000000000
5400004602797695551  0005855656500001887           000000035000000000154000000000000000000000000000000000000000000000000000000
5400004602797695551  0005855405500002829           000000010000000000034000000000000000000000000000000000000000000000000000000
5400004602797695551  0005855405500003746           000000010000000000046000000000000000000000000000000000000000000000000000000
5400004818869660551  0006085656500001887           000000040000000000176000000000000000000000000000000000000000000000000000000
5400004818869660551  00060854055000021441          000000010000000000046000000000000000000000000000000000000000000000000000000
5400004818869660551  0006085405500003829           000000010000000000026000000000000000000000000000000000000000000000000000000
5400004963915693551  00060254055000011163          000000010000000000126000000000000000000000000000000000000000000000000000000
5400004963915693551  0006025405500002509           000000020000000000068000000000000000000000000000000000000000000000000000000
5400004963915693551  0006025405500003866           000000020000000000164000000000000000000000000000000000000000000000000000000
5400004963915693551  00060251021020041459          000000010000000000035000000000000000000000000000000000000000000000000000000
5400005023719600551  00057954055000011502          000000010000000000379000000000000000000000000000000000000000000000000000000
5400005035697630551  00059354055000011501          000000010000000000009000000000000000000000000000000000000000000000000000000
5400005035697630551  00059354055000021512          000000010000000000205000000000000000000000000000000000000000000000000000000
5400005035697630551  0005935405500003509           000000020000000000068000000000000000000000000000000000000000000000000000000
5400005035697630551  00059354055000041509          000000020000000000178000000000000000000000000000000000000000000000000000000
5400005035697630551  0005935405500005771           000000020000000000232000000000000000000000000000000000000000000000000000000
5400005035697630551  00059354055000061513          000000020000000000084000000000000000000000000000000000000000000000000000000
5400005035697630551  00059354055000071024          000000010000000000049000000000000000000000000000000000000000000000000000000
5400005234918670551  00059156565000011260          000000040000000000176000000000000000000000000000000000000000000000000000000
5400005234918670551  0005915405500002882           000000010000000000026000000000000000000000000000000000000000000000000000000
5400005234918670551  0005915405500003655           000000010000000000038000000000000000000000000000000000000000000000000000000
5400005234918670551  00059151021020041459          000000010000000000035000000000000000000000000000000000000000000000000000000
5400005371679600551  0005905405500001759           000000010000000000119000000000000000000000000000000000000000000000000000000
5400005371679600551  0005905405500002578           000000010000000000069000000000000000000000000000000000000000000000000000000
5400005371679600551  00059054055000031018          000000010000000000064000000000000000000000000000000000000000000000000000000
5400005371679600551  00059054055000041506          000000010000000000042000000000000000000000000000000000000000000000000000000
5400005371679600551  00059054055000051478          000000010000000000042000000000000000000000000000000000000000000000000000000
5400005371679600551  0005905405500006619           000000010000000000089000000000000000000000000000000000000000000000000000000
5400005535736678551  0005575405500001855           000000045000000000243000000000000000000000000000000000000000000000000000000
5400005535736678551  0005575405500002745           000000010000000000034000000000000000000000000000000000000000000000000000000
5400005535736678551  00055754055000031420          000000010000000000059000000000000000000000000000000000000000000000000000000
5400005535736678551  0005575102102004972           000000010000000000016000000000000000000000000000000000000000000000000000000
5400005535736678551  00055754055000051243          000000020000000000258000000000000000000000000000000000000000000000000000000
5400005535736678551  00055754055000061252          000000010000000000032000000000000000000000000000000000000000000000000000000
5400005973683680551  0005685405500001703           000000040000000000116000000000000000000000000000000000000000000000000000000
5400005973683680551  0005685405500002750           000000010000000000229000000000000000000000000000000000000000000000000000000
5400005973683680551  00056851021020031459          000000010000000000035000000000000000000000000000000000000000000000000000000
5400006101226654551  0006185405500001855           000000035000000000161000000000000000000000000000000000000000000000000000000
5400006101226654551  0006185405500002745           000000010000000000034000000000000000000000000000000000000000000000000000000
5400006101226654551  0006185405500003621           000000010000000000058000000000000000000000000000000000000000000000000000000
5400006101226654551  00061854055000041224          000000010000000000038000000000000000000000000000000000000000000000000000000
5400006101226654551  0006185405500005703           000000030000000000108000000000000000000000000000000000000000000000000000000
5400006101226654551  0006185405500006509           000000020000000000068000000000000000000000000000000000000000000000000000000
5400006101226654551  0006185102102007972           000000010000000000016000000000000000000000000000000000000000000000000000000
5400006101226654551  0006185405500008808           000000010000000000138000000000000000000000000000000000000000000000000000000
5400006101226654551  0006185405500009780           000000010000000000029000000000000000000000000000000000000000000000000000000
5400006329909610551  00057356565000011260          000000030000000000132000000000000000000000000000000000000000000000000000000
5400006329909610551  0005735405500002993           000000010000000000035000000000000000000000000000000000000000000000000000000
5400006329909610551  00057354055000031466          000000010000000000038000000000000000000000000000000000000000000000000000000
5400007382625605551  0006155656500001886           000000035000000000161000000000000000000000000000000000000000000000000000000
5400007382625605551  0006155405500002829           000000010000000000026000000000000000000000000000000000000000000000000000000
5400007382625605551  00061554055000031441          000000010000000000054000000000000000000000000000000000000000000000000000000
5400007382625605551  00061554055000041010          000000010000000000035000000000000000000000000000000000000000000000000000000
5400007382625605551  00061551021020051459          000000010000000000035000000000000000000000000000000000000000000000000000000
5400007382625605551  0006155102102006972           000000010000000000016000000000000000000000000000000000000000000000000000000
5400007434620684551  00058054055000011302          000000040000000000114000000000000000000000000000000000000000000000000000000
5400007434620684551  00058054055000021134          000000010000000000128000000000000000000000000000000000000000000000000000000
5400007434620684551  00058056565000031260          000000030000000000132000000000000000000000000000000000000000000000000000000
5400007434620684551  0005805405500004829           000000010000000000026000000000000000000000000000000000000000000000000000000
5400007434620684551  0005805405500005929           000000010000000000034000000000000000000000000000000000000000000000000000000
5400007631997616551  00058856565000011260          000000035000000000154000000000000000000000000000000000000000000000000000000
5400007631997616551  0005885405500002882           000000010000000000026000000000000000000000000000000000000000000000000000000
5400007631997616551  0005885405500003857           000000010000000000019000000000000000000000000000000000000000000000000000000
5400007631997616551  0005885102102004972           000000010000000000005000000000000000000000000000000000000000000000000000000
5400007631997616551  0005885405500005790           000000010000000000044000000000000000000000000000000000000000000000000000000
5400007850812670551  0005965656500001886           000000040000000000184000000000000000000000000000000000000000000000000000000
5400007850812670551  0005965405500002829           000000010000000000026000000000000000000000000000000000000000000000000000000
5400007850812670551  0005965405500003655           000000010000000000035000000000000000000000000000000000000000000000000000000
5400007850812670551  0005965102102004972           000000010000000000005000000000000000000000000000000000000000000000000000000
5400008170537606551  0005585656500001886           000000030000000000138000000000000000000000000000000000000000000000000000000
5400008170537606551  0005585405500002882           000000010000000000026000000000000000000000000000000000000000000000000000000
5400008170537606551  0005585405500003876           000000010000000000035000000000000000000000000000000000000000000000000000000
5400008170537606551  0005585405500004665           000000010000000000198000000000000000000000000000000000000000000000000000000
5400008170537606551  00055854055000051245          000000010000000000128000000000000000000000000000000000000000000000000000000
5400008170537606551  00055854055000061223          000000010000000000065000000000000000000000000000000000000000000000000000000
5400008170537606551  00055854055000071019          000000010000000000042000000000000000000000000000000000000000000000000000000
5400008170537606551  0005585405500008674           000000010000000000038000000000000000000000000000000000000000000000000000000
5400008170537606551  00055854055000091364          000000010000000000134000000000000000000000000000000000000000000000000000000
5400008170537606551  0005585405500010790           000000010000000000044000000000000000000000000000000000000000000000000000000
5400008186577661551  0006165656500001887           000000050000000000220000000000000000000000000000000000000000000000000000000
5400008186577661551  00061654055000021231          000000010000000000074000000000000000000000000000000000000000000000000000000
5400008186577661551  0006165405500003745           000000010000000000034000000000000000000000000000000000000000000000000000000
5400008186577661551  0006165102102004972           000000010000000000016000000000000000000000000000000000000000000000000000000
5400008866972630551  0006125405500001806           000000010000000000062000000000000000000000000000000000000000000000000000000
5400008866972630551  00061251021020021459          000000010000000000035000000000000000000000000000000000000000000000000000000
5400009763555663551  0006075102102001972           000000010000000000016000000000000000000000000000000000000000000000000000000
5400009763555663551  00060754055000021398          000000010000000000073000000000000000000000000000000000000000000000000000000
5400009797297691551  00058256565000011260          000000040000000000176000000000000000000000000000000000000000000000000000000
5400009797297691551  0005825405500002829           000000010000000000028000000000000000000000000000000000000000000000000000000
5400009797297691551  00058254055000031231          000000010000000000079000000000000000000000000000000000000000000000000000000
5400009797297691551  00058254055000041252          000000010000000000043000000000000000000000000000000000000000000000000000000
5400009797297691551  0005825405500005664           000000040000000000130000000000000000000000000000000000000000000000000000000
5400009797297691551  0005825405500006905           000000010000000000036000000000000000000000000000000000000000000000000000000
5400009797297691551  0005825405500007509           000000020000000000068000000000000000000000000000000000000000000000000000000
5400009797297691551  00058251021020081459          000000010000000000035000000000000000000000000000000000000000000000000000000
5400010372725600551  0005595405500001915           000000050000000000220000000000000000000000000000000000000000000000000000000
5400010372725600551  00055954055000021053          000000010000000000034000000000000000000000000000000000000000000000000000000
5400010372725600551  0005595405500003655           000000010000000000036000000000000000000000000000000000000000000000000000000
5400010372725600551  0005595102102004972           000000010000000000016000000000000000000000000000000000000000000000000000000
5400010919509622551  0006015405500001710           000000010000000000198000000000000000000000000000000000000000000000000000000
5400010919509622551  0006015102102002972           000000010000000000012000000000000000000000000000000000000000000000000000000
5400012375045629551  0005875405500001855           000000045000000000234000000000000000000000000000000000000000000000000000000
5400012375045629551  0005875405500002745           000000010000000000034000000000000000000000000000000000000000000000000000000
5400012375045629551  0005875405500003806           000000010000000000072000000000000000000000000000000000000000000000000000000
5400012375045629551  00058754055000041498          000000010000000000035000000000000000000000000000000000000000000000000000000
5400012375045629551  00058754055000051507          000000010000000000134000000000000000000000000000000000000000000000000000000
5400012375045629551  00058754055000061511          000000010000000000139000000000000000000000000000000000000000000000000000000
5400012375045629551  0005875102102007972           000000010000000000016000000000000000000000000000000000000000000000000000000
5400012511618630551  0005925656500001887           000000035000000000154000000000000000000000000000000000000000000000000000000
5400012511618630551  0005925405500002745           000000010000000000034000000000000000000000000000000000000000000000000000000
5400012511618630551  00059254055000031441          000000010000000000048000000000000000000000000000000000000000000000000000000
5400012729417605551  00055656565000011260          000000050000000000220000000000000000000000000000000000000000000000000000000
5400012729417605551  00055654055000021053          000000010000000000034000000000000000000000000000000000000000000000000000000
5400012729417605551  0005565405500003997           000000010000000000075000000000000000000000000000000000000000000000000000000
5400012729417605551  00055654055000041252          000000010000000000030000000000000000000000000000000000000000000000000000000
5400012729417605551  00055654055000051349          000000010000000000046000000000000000000000000000000000000000000000000000000
5400012729417605551  00055651021020061459          000000010000000000035000000000000000000000000000000000000000000000000000000
5400016046242649551  0005765405500001934           000000010000000000262000000000000000000000000000000000000000000000000000000
5400016046242649551  00057654055000021449          000000010000000000072000000000000000000000000000000000000000000000000000000
5400016046242649551  00057654055000031252          000000010000000000032000000000000000000000000000000000000000000000000000000
5400016046242649551  0005765405500004949           000000010000000000044000000000000000000000000000000000000000000000000000000
5400016046242649551  00057651021020051459          000000010000000000035000000000000000000000000000000000000000000000000000000
5400019558074691551  0005835405500001633           000000030000000000174000000000000000000000000000000000000000000000000000000
5400019558074691551  0005835405500002829           000000010000000000034000000000000000000000000000000000000000000000000000000
5400019558074691551  0005835405500003640           000000010000000000054000000000000000000000000000000000000000000000000000000
5400019558074691551  00058354055000041443          000000010000000000105000000000000000000000000000000000000000000000000000000
5400019635419600551  0006145405500001913           000000010000000000058000000000000000000000000000000000000000000000000000000
5400019635419600551  0006145405500002509           000000020000000000068000000000000000000000000000000000000000000000000000000
5400019635419600551  00061454055000031095          000000020000000000296000000000000000000000000000000000000000000000000000000
5400019635419600551  00061454055000041140          000000010000000000074000000000000000000000000000000000000000000000000000000
5400019635419600551  0006145405500005916           000000035000000000140000000000000000000000000000000000000000000000000000000
5400019635419600551  0006145405500006882           000000010000000000026000000000000000000000000000000000000000000000000000000
5400019635419600551  0006145102102007972           000000010000000000016000000000000000000000000000000000000000000000000000000
5400020315490659551  0005545656500001887           000000045000000000198000000000000000000000000000000000000000000000000000000
5400020315490659551  00055454055000021026          000000010000000000028000000000000000000000000000000000000000000000000000000
5400020315490659551  0005545405500003621           000000010000000000053000000000000000000000000000000000000000000000000000000
5400021472157753551  00061754055000011441          000000010000000000052000000000000000000000000000000000000000000000000000000
5400021472157753551  00061751021020021459          000000010000000000035000000000000000000000000000000000000000000000000000000
5421532270000113551  01050614030600011168          000000010000000000190890000000000000000000560260000000017010000000000000000
5421532270000113551  01050614030600021461          000000080000000000441920000000000000000000560260000000000000000000000000000
5421532270000113551  0105061403060003808           000000010000000000103570000000000000000000560260000000012370000000000000000
5421532270000113551  01050614030600041462          000000040000000000082840000000000000000000560260000000014150000000000000000
5421532270000113551  0105061403060005546           000000010000000000048330000000000000000000560260000000008350000000000000000
5421532270000113551  0105061403060006718           000000010000000000348480000000000000000000560260000000043400000000000000000
5421532270000113551  01050614030600071461          000000010000000000055240000000000000000000560260000000000000000000000000000
5421532270000113551  01050614030600081463          000000010000000000031270000000000000000000560260000000003230000000000000000
5421532270000113551  01050614030600091464          000000020000000000284300000000000000000000560260000000036750000000000000000
5421532270000113551  01050614030600101465          000000010000000000135650000000000000000000560260000000015860000000000000000
5421532270000113551  01050614030600111249          000000010000000000034120000000000000000000560260000000004020000000000000000
5421532270000113551  0105061403060012746           000000010000000000036150000000000000000000560260000000003810000000000000000
5421532270000113551  01050614030600131466          000000010000000000023960000000000000000000560260000000002240000000000000000
5421532270000113551  01050614030600141467          000000010000000000035740000000000000000000560260000000005130000000000000000
5421532270000113551  0105061403060015882           000000010000000000017870000000000000000000560260000000002550000000000000000
5421532270000113551  01050614030600161413          000000010000000000345230000000000000000000560260000000039390000000000000000
5421532270000113551  01050614030600171425          000000010000000000074730000000000000000000560260000000000000000000000000000
5421532270000113551  01050614030600181468          000000010000000000178710000000000000000000560260000000007080000000000000000
5421532270000113551  0105061403060019746           000000010000000000036150000000000000000000560260000000003810000000000000000
5421532270000113551  01050614030600201469          000000030000000000316800000000000000000000560260000000000000000000000000000
5421532270000113551  01050614030600211470          000000010000000000038830000000000000000000560260000000001910000000000000000
5421532270000113551  0105061403060022612           000000010000000000048330000000000000000000560260000000003820000000000000000
5421532270000113551  0105061403060023555           000000010000000000055240000000000000000000560260000000009520000000000000000
5421532270000113551  01050614030600241471          000000010000000000012180000000000000000000560260000000001630000000000000000
5421532270000113551  01050614030600251472          000000010000000000030870000000000000000000560260000000002490000000000000000
5421532270000113551  01050614030600261473          000000010000000000040210000000000000000000560260000000005150000000000000000
5421532270000113551  0105061403060027504           000000020000000000027620000000000000000000560260000000003040000000000000000
5421532270000113551  01050614030600281474          000000020000000000063360000000000000000000560260000000006850000000000000000
5421532270000113551  01050614030600291250          000000020000000000095860000000000000000000560260000000010020000000000000000
5421532270000113551  01050614030600301475          000000020000000000133220000000000000000000560260000000014760000000000000000
5421532270000113551  0105061403060031838           000000040000000000084480000000000000000000560260000000007180000000000000000
5421532270000113551  01050614030600321476          000000020000000000341160000000000000000000560260000000018220000000000000000
5421532270000113551  01050614030600331477          000000020000000000063360000000000000000000560260000000007100000000000000000
5421532270000113551  01050614030600341478          000000010000000000035740000000000000000000560260000000000310000000000000000
5421532270000113551  0105061403060035548           000000010000000000101540000000000000000000560260000000008950000000000000000
5421532270000113551  01050614030600361479          000000010000000000011370000000000000000000560260000000001170000000000000000
5421532270000113551  0105061403060037987           000000010000000000045490000000000000000000560260000000005000000000000000000
5421532270000113551  0105061403060038559           000000010000000000025990000000000000000000560260000000003640000000000000000
5421532270000113551  01050614030600391480          000000010000000000062140000000000000000000560260000000008640000000000000000
5421532270000113551  01050614030600401481          000000010000000000022740000000000000000000560260000000002970000000000000000
5421532270000113551  0105061403060041802           000000010000000000251810000000000000000000560260000000000000000000000000000
5421532270000113551  0105061403060042971           000000010000000000052800000000000000000000560260000000005230000000000000000
5421532270000113551  0105061403060043563           000000010000000000038180000000000000000000560260000000004210000000000000000
5421532270000113551  0105061403060044565           000000010000000000025180000000000000000000560260000000004300000000000000000
5421532270000113551  01050614030600451482          000000010000000000047930000000000000000000560260000000005780000000000000000
5421532270000113551  01050614030600461483          000000010000000000047930000000000000000000560260000000005780000000000000000
5421532270000113551  0105691403060001524           000000010000000000047110000000000000000000560260000000005660000000000000000
5421532270000113551  01056914030600021484          000000010000000000062550000000000000000000560260000000000000000000000000000
5421532270000113551  01056914030600031180          000000040000000000076360000000000000000000560260000000010140000000000000000
5421532270000113551  01056914030600041485          000000010000000000097480000000000000000000560260000000004200000000000000000
5421532270000113551  0105691403060005543           000000010000000000052800000000000000000000560260000000008840000000000000000
5421532270000113551  01056914030600061486          000000020000000000056040000000000000000000560260000000005360000000000000000
5421532270000113551  01056914030600071243          000000020000000000160840000000000000000000560260000000018000000000000000000
5421532270000113551  0105691403060008822           000000010000000000069860000000000000000000560260000000009850000000000000000
5421532270000113551  0105691403060009674           000000010000000000023150000000000000000000560260000000002730000000000000000
5421532270000113551  01056914030600101487          000000010000000000048330000000000000000000560260000000000000000000000000000
5421532270000113551  01056914030600111245          000000010000000000092600000000000000000000560260000000000000000000000000000
5421532270000113551  0105691403060012665           000000010000000000145400000000000000000000560260000000015630000000000000000
5421532270000113551  0105691403060013547           000000020000000000186820000000000000000000560260000000014400000000000000000
5421532270000113551  01056914030600141000          000000020000000000044680000000000000000000560260000000000000000000000000000
5421532270000113551  0105691403060015548           000000010000000000101540000000000000000000560260000000008950000000000000000
5421532270000113551  01056914030600161488          000000010000000000026810000000000000000000560260000000000000000000000000000
5421532270000113551  0105691403060017750           000000010000000000166520000000000000000000560260000000023170000000000000000
5421532270000113551  01056914030600181489          000000010000000000018280000000000000000000560260000000001780000000000000000
5421532270000113551  01056914030600191490          000000010000000000021120000000000000000000560260000000002410000000000000000
5421532270000113551  0105691403060020562           000000010000000000043050000000000000000000560260000000004650000000000000000
5421532270000113551  01056914030600211491          000000010000000000047110000000000000000000560260000000004520000000000000000
5421532270000113551  01056914030600221348          000000010000000000028430000000000000000000560260000000004620000000000000000
5421532270000113551  01056914030600231492          000000010000000000034930000000000000000000560260000000005800000000000000000
5421532270000113551  0105691403060024562           000000010000000000043050000000000000000000560260000000004650000000000000000
5421532270000113551  0105691403060025938           000000010000000000022340000000000000000000560260000000002450000000000000000
5421532270000113551  0105691403060026642           000000010000000000073920000000000000000000560260000000008590000000000000000
5421532270000113551  0105691403060027535           000000010000000000153520000000000000000000560260000000017410000000000000000
5421532270000113551  01056914030600281318          000000010000000000006500000000000000000000560260000000000200000000000000000
5421532270000113551  01056914030600291493          000000010000000000153520000000000000000000560260000000000000000000000000000
5421532270000113551  0105691403060030627           000000010000000000015430000000000000000000560260000000000000000000000000000
5421532270000113551  01056914030600311494          000000010000000000035740000000000000000000560260000000005120000000000000000
5421532270000113551  01064614030600011495          000000010000000000017870000000000000000000560260000000001930000000000000000
5421532270000113551  01064614030600021496          000000010000000000040210000000000000000000560260000000004030000000000000000
5421532270000113551  0106461403060003934           000000010000000000185200000000000000000000560260000000015370000000000000000
5421532270000113551  01064614030600041181          000000010000000000013000000000000000000000560260000000000000000000000000000
5421532270000113551  01064614030600051182          000000020000000000020300000000000000000000560260000000000000000000000000000
5421532270000113551  01064614030600061183          000000010000000000019500000000000000000000560260000000000000000000000000000
5421532270000113551  01064614030600071184          000000010000000000015430000000000000000000560260000000000000000000000000000
5421532270000113551  01064614030600081497          000000010000000000062550000000000000000000560260000000006780000000000000000
5421532270000113551  0106461403060009653           000000020000000000027300000000000000000000560260000000002570000000000000000
5421532270000113551  01064614030600101498          000000010000000000021120000000000000000000560260000000002450000000000000000
5421532270000113551  01064614030600111147          000000010000000000060920000000000000000000560260000000008920000000000000000
5421532270000113551  01064614030600121499          000000010000000000032490000000000000000000560260000000003260000000000000000
5421532270000113551  0106461403060013664           000000040000000000089360000000000000000000560260000000011160000000000000000
5421532270000113551  01064614030600141500          000000020000000000160840000000000000000000560260000000010560000000000000000
5421532270000113551  01064614030600151501          000000010000000000003250000000000000000000560260000000000000000000000000000
5421532270000113551  01064614030600161502          000000010000000000268060000000000000000000560260000000000000000000000000000
5421532270000113551  01064614030600171134          000000010000000000094230000000000000000000560260000000009980000000000000000
5421532270000113551  01064614030600181302          000000040000000000057680000000000000000000560260000000002880000000000000000
5421532270000113551  01064614030600191443          000000010000000000077170000000000000000000560260000000008940000000000000000
5421532270000113551  0106461403060020988           000000010000000000099100000000000000000000560260000000012490000000000000000
5421532270000113551  01064614030600211503          000000040000000000087720000000000000000000560260000000009980000000000000000
5421532270000113551  0106461403060022759           000000010000000000071480000000000000000000560260000000008270000000000000000
5421532270000113551  01064614030600231504          000000010000000000004060000000000000000000560260000000000280000000000000000
5421532270000113551  01064614030600241505          000000010000000000002840000000000000000000560260000000000000000000000000000
5421532270000113551  01064614030600251018          000000010000000000047110000000000000000000560260000000004470000000000000000
5421532270000113551  01064614030600261506          000000010000000000031680000000000000000000560260000000003290000000000000000
5421532270000113551  0106461403060027619           000000010000000000064170000000000000000000560260000000000000000000000000000
5421532270000113551  01064614030600281507          000000010000000000099910000000000000000000560260000000011530000000000000000
5421532270000113551  0106461403060029771           000000020000000000162460000000000000000000560260000000018840000000000000000
5421532270000113551  01064614030600301508          000000010000000000065390000000000000000000560260000000005220000000000000000
5421532270000113551  01064614030600311509          000000010000000000065390000000000000000000560260000000005220000000000000000
5421532270000113551  01064614030600321510          000000030000000000085290000000000000000000560260000000000000000000000000000
5421532270000113551  01064614030600331024          000000010000000000034520000000000000000000560260000000002680000000000000000
5421532270000113551  01064614030600341247          000000010000000000023150000000000000000000560260000000001390000000000000000
5421532270000113551  0106461403060035806           000000010000000000053610000000000000000000560260000000007760000000000000000
5421532270000113551  01064614030600361511          000000010000000000089350000000000000000000560260000000010570000000000000000
5421532270000113551  01064614030600371512          000000010000000000145810000000000000000000560260000000011680000000000000000
5421532270000113551  01064614030600381513          000000020000000000058480000000000000000000560260000000000000000000000000000
5421532270000113551  01071914030600011514          000000010000000000062550000000000000000000560260000000007850000000000000000
5421532270000113551  01071914030600021515          000000010000000000379340000000000000000000560260000000000000000000000000000
5421532270000113551  01071914030600031516          000000010000000000379340000000000000000000560260000000064840000000000000000
5421532270000113551  01071914030600041517          000000010000000000036960000000000000000000560260000000004390000000000000000
5421532270000113551  01071914030600051518          000000020000000000307040000000000000000000560260000000036580000000000000000
5421532270000113551  01071914030600061443          000000010000000000077170000000000000000000560260000000006430000000000000000
5421532270000113551  0107191403060007801           000000010000000000032900000000000000000000560260000000002900000000000000000
5421532270000113551  01071914030600081519          000000010000000000048660000000000000000000560260000000005890000000000000000
5421532270000113551  0107191403060009763           000000010000000000037370000000000000000000560260000000006260000000000000000
5421532270000113551  0107191403060010553           000000010000000000012590000000000000000000560260000000000000000000000000000
5421532270000113551  01071914030600111520          000000010000000000021930000000000000000000560260000000000000000000000000000
5421532270000113551  01071914030600121521          000000060000000000017040000000000000000000560260000000001250000000000000000
5421532270000113551  0107191403060013640           000000010000000000034120000000000000000000560260000000003570000000000000000
5421532270000113551  0107191403060014893           000000010000000000043860000000000000000000560260000000005020000000000000000
5421532270000113551  01071914030600151348          000000010000000000028430000000000000000000560260000000004620000000000000000
5421532270000113551  0107191403060016763           000000010000000000037370000000000000000000560260000000006260000000000000000
5421532270000113551  01071914030600171522          000000020000000000420780000000000000000000560260000000032280000000000000000
5421532270000113551  01071914030600181088          000000010000000000015430000000000000000000560260000000001550000000000000000
5421532270000113551  01071914030600191146          000000010000000000064580000000000000000000560260000000004690000000000000000
5421532270000113551  0107191403060020619           000000010000000000064170000000000000000000560260000000006480000000000000000
5421532270000113551  0107191403060021555           000000010000000000055240000000000000000000560260000000009520000000000000000
5421532270000113551  01071914030600221058          000000020000000000074740000000000000000000560260000000011690000000000000000
5421532270000113551  01071914030600231523          000000010000000000127530000000000000000000560260000000014170000000000000000
5421532270000113551  0107191403060024913           000000010000000000040530000000000000000000560260000000007010000000000000000
5421532270000113551  01071914030600251095          000000020000000000224200000000000000000000560260000000018280000000000000000
5421532270000113551  01071914030600261524          000000010000000000053610000000000000000000560260000000006610000000000000000
5421532270000113551  01071914030600271247          000000020000000000046300000000000000000000560260000000002780000000000000000
5421532270000113551  0107191403060028509           000000020000000000039000000000000000000000560260000000000000000000000000000
5421532270000113551  0107191403060029808           000000010000000000101540000000000000000000560260000000008900000000000000000
5421532270000113551  01071914030600301525          000000030000000000071880000000000000000000560260000000009710000000000000000
5421532270000113551  01071914030600311413          000000010000000000345230000000000000000000560260000000040520000000000000000
5421532270000113551  01071914030600321425          000000010000000000074730000000000000000000560260000000000000000000000000000
5421532270000113551  01071914030600331526          000000010000000000027210000000000000000000560260000000002150000000000000000
5421532270000113551  01071914030600341527          000000010000000000056860000000000000000000560260000000000000000000000000000
5421532270000113551  01071914030600351363          000000010000000000032090000000000000000000560260000000004250000000000000000
5421532270000113551  01071914030600361528          000000010000000000058490000000000000000000560260000000009600000000000000000
5421532270000113551  01071914030600371529          000000010000000000029240000000000000000000560260000000003530000000000000000
5421532270000113551  01071914030600381530          000000080000000000152720000000000000000000560260000000015760000000000000000
5421532270000113551  01071914030600391531          000000020000000000170580000000000000000000560260000000025440000000000000000
5421532270000113551  01071914030600401532          000000010000000000146210000000000000000000560260000000047530000000000000000
5421532270000113551  01071914030600411533          000000020000000000203080000000000000000000560260000000022760000000000000000
5400023078600610551  0005695405500001637           000000010000000000069000000000000000000000000000000000000000000000000000000
5400023078600610551  0005695405500002535           000000010000000000248000000000000000000000000000000000000000000000000000000
5400023078600610551  0005695405500003642           000000010000000000118000000000000000000000000000000000000000000000000000000
5400024324299668551  0005535656500001887           000000035000000000154000000000000000000000000000000000000000000000000000000
5400024324299668551  0005535405500002829           000000010000000000034000000000000000000000000000000000000000000000000000000
5400024324299668551  00055354055000031441          000000010000000000046000000000000000000000000000000000000000000000000000000
5400024324299668551  00055351021020041259          000000010000000000035000000000000000000000000000000000000000000000000000000
5400024479659668551  00057454055000011318          000000010000000000012000000000000000000000000000000000000000000000000000000
5400029179122604551  00055556565000011260          000000035000000000154000000000000000000000000000000000000000000000000000000
5400029179122604551  0005555405500002882           000000010000000000026000000000000000000000000000000000000000000000000000000
5400029179122604551  00055554055000031317          000000010000000000038000000000000000000000000000000000000000000000000000000
5400029179122604551  0005555102102004972           000000010000000000005000000000000000000000000000000000000000000000000000000
5400029179122604551  00055551021020051459          000000010000000000035000000000000000000000000000000000000000000000000000000
5400030542855704551  00057256565000011260          000000045000000000198000000000000000000000000000000000000000000000000000000
5400030542855704551  0005725405500002680           000000010000000000036000000000000000000000000000000000000000000000000000000
5400030542855704551  0005725405500003621           000000010000000000059000000000000000000000000000000000000000000000000000000
5400030542855704551  0005725102102004972           000000010000000000005000000000000000000000000000000000000000000000000000000
5400030542855704551  00057251021020051459          000000010000000000035000000000000000000000000000000000000000000000000000000
5400037325043600551  0005755405500001993           000000010000000000034000000000000000000000000000000000000000000000000000000
5400037325043600551  00057551021020021459          000000010000000000035000000000000000000000000000000000000000000000000000000
5400039099261691551  0006055656500001886           000000040000000000184000000000000000000000000000000000000000000000000000000
5400039099261691551  0006055405500002655           000000010000000000034000000000000000000000000000000000000000000000000000000
5400039099261691551  0006055405500003829           000000010000000000026000000000000000000000000000000000000000000000000000000
5400039099261691551  0006055102102004972           000000010000000000005000000000000000000000000000000000000000000000000000000
5400040085678600551  0005615405500001633           000000035000000000203000000000000000000000000000000000000000000000000000000
5400040085678600551  0005615405500002745           000000010000000000034000000000000000000000000000000000000000000000000000000
5400040085678600551  0005615405500003746           000000010000000000058000000000000000000000000000000000000000000000000000000
5400040085678600551  0005615102102004972           000000010000000000016000000000000000000000000000000000000000000000000000000
5400040182606600551  0005785656500001886           000000040000000000184000000000000000000000000000000000000000000000000000000
5400040182606600551  0005785405500002829           000000010000000000026000000000000000000000000000000000000000000000000000000
5400040182606600551  0005785405500003867           000000010000000000036000000000000000000000000000000000000000000000000000000
5400040182606600551  0005785102102004972           000000010000000000005000000000000000000000000000000000000000000000000000000
5400040927954591551  00057056565000011260          000000045000000000198000000000000000000000000000000000000000000000000000000
5400040927954591551  00057054055000021053          000000010000000000035000000000000000000000000000000000000000000000000000000
5400040927954591551  00061354055000011413          000000010000000000459000000000000000000000000000000000000000000000000000000
5400040927954591551  00061354055000021425          000000010000000000098000000000000000000000000000000000000000000000000000000
5400040927954591551  00061354055000031085          000000010000000000078000000000000000000000000000000000000000000000000000000
5400040927954591551  0006135405500004790           000000020000000000088000000000000000000000000000000000000000000000000000000
5400040927954591551  00061354055000051487          000000010000000000149000000000000000000000000000000000000000000000000000000
5400043539475672551  0005975656500001886           000000040000000000184000000000000000000000000000000000000000000000000000000
5400043539475672551  0005975405500002882           000000010000000000026000000000000000000000000000000000000000000000000000000
