10336213140001600034450680073 CRISTINA ISABEL DE CAMPOS          Belo Horizonte                MG31999760132025030120250331331
11Rua Caconde                       00875                      Renascença     31130510VINICIUS MURTA NERY         031934225098
5000097154881615ISENTO        20250311MG551  0007135405P000000001040000000000000000000000000000000000000000000000000182000000N
5000097154881615ISENTO        20250311MG551  0007135102P000000000140000000000000000000000000000000000000000000000000014000000N
5000013006665600ISENTO        20250312MG551  0007155405P000000005670000000000000000000000000000000000000000000000000567000000N
5000013006665600ISENTO        20250312MG551  0007155102P000000000350000000000000000000000000000000000000000000000000035000000N
5000029267838172ISENTO        20250312MG551  0007145405P000000000720000000000000000000000000000000000000000000000000072000000N
5060563731000762ISENTO        20250314MG551  0007165656P000000001980000000000000000000000000000000000000000000000000198000000N
5060563731000762ISENTO        20250314MG551  0007165405P000000001430000000000000000000000000000000000000000000000000288000000N
5000001413754694ISENTO        20250322MG551  0007175405P000000005420000000000000000000000000000000000000000000000001806000000N
5000001413754694ISENTO        20250322MG551  0007175656P000000001760000000000000000000000000000000000000000000000000176000000N
5000010835151603ISENTO        20250324MG551  0007485405P000000011670000000000000000000000000000000000000000000000001167000000N
5000010835151603ISENTO        20250324MG551  0007485102P000000000350000000000000000000000000000000000000000000000000035000000N
5000007773826609ISENTO        20250325MG551  0007515656P000000001320000000000000000000000000000000000000000000000000132000000N
5000007773826609ISENTO        20250325MG551  0007515405P000000000630000000000000000000000000000000000000000000000000091000000N
5000041971000604ISENTO        20250324MG551  0007495405P000000001390000000000000000000000000000000000000000000000000139000000N
5000003276225638ISENTO        20250327MG551  0007585405P000000002530000000000000000000000000000000000000000000000000503000000N
5000063150956668ISENTO        20250324MG551  0007505656P000000001760000000000000000000000000000000000000000000000000176000000N
5000063150956668ISENTO        20250324MG551  0007505405P000000012250000000000000000000000000000000000000000000000002203000000N
5000005237735606ISENTO        20250322MG551  0007185405P000000018310000000000000000000000000000000000000000000000018968000000N
5000005237735606ISENTO        20250322MG551  0007185102P000000000700000000000000000000000000000000000000000000000000105000000N
5000005253169652ISENTO        20250325MG551  0007525405P000000008040000000000000000000000000000000000000000000000004522000000N
5000005253169652ISENTO        20250325MG551  0007525102P000000000280000000000000000000000000000000000000000000000000028000000N
5000000524234680ISENTO        20250331MG551  0007595656P000000001320000000000000000000000000000000000000000000000000132000000N
5000000524234680ISENTO        20250331MG551  0007595405P000000003200000000000000000000000000000000000000000000000000891000000N
5000011521426660ISENTO        20250322MG551  0007195405P000000006980000000000000000000000000000000000000000000000000698000000N
5000011521426660ISENTO        20250322MG551  0007195102P000000000710000000000000000000000000000000000000000000000000107000000N
5000045534942649ISENTO        20250322MG551  0007205656P000000002200000000000000000000000000000000000000000000000000220000000N
5000045534942649ISENTO        20250322MG551  0007205405P000000001080000000000000000000000000000000000000000000000000142000000N
5000045534942649ISENTO        20250322MG551  0007205102P000000000160000000000000000000000000000000000000000000000000016000000N
5000020316399604ISENTO        20250331MG551  0007605405P000000003600000000000000000000000000000000000000000000000001332000000N
5000001837339678ISENTO        20250322MG551  0007215405P000000002420000000000000000000000000000000000000000000000000616000000N
5000001837339678ISENTO        20250322MG551  0007215102P000000000190000000000000000000000000000000000000000000000000033000000N
5000001837339678ISENTO        20250322MG551  0007215656P000000001540000000000000000000000000000000000000000000000000154000000N
5000057654891687ISENTO        20250325MG551  0007535405P000000002580000000000000000000000000000000000000000000000000512000000N
5000057654891687ISENTO        20250325MG551  0007535102P000000000050000000000000000000000000000000000000000000000000005000000N
5000004963915693ISENTO        20250322MG551  0007225656P000000001760000000000000000000000000000000000000000000000000176000000N
5000004963915693ISENTO        20250322MG551  0007225405P000000003910000000000000000000000000000000000000000000000000488000000N
5000085072230600ISENTO        20250322MG551  0007235656P000000001320000000000000000000000000000000000000000000000000132000000N
5000085072230600ISENTO        20250322MG551  0007235405P000000000770000000000000000000000000000000000000000000000000112000000N
5000024479659668ISENTO        20250322MG551  0007245405P000000006400000000000000000000000000000000000000000000000001688000000N
5000024479659668ISENTO        20250322MG551  0007245102P000000000180000000000000000000000000000000000000000000000000018000000N
5000008950380641ISENTO        20250325MG551  0007545405P000000001520000000000000000000000000000000000000000000000000152000000N
5000006513144612ISENTO        20250331MG551  0007615656P000000001540000000000000000000000000000000000000000000000000154000000N
5000006513144612ISENTO        20250331MG551  0007615405P000000000930000000000000000000000000000000000000000000000000211000000N
5000006513144612ISENTO        20250331MG551  0007615102P000000000350000000000000000000000000000000000000000000000000035000000N
5000011547034602ISENTO        20250325MG551  0007555405P000000005940000000000000000000000000000000000000000000000001010000000N
5000048674621600ISENTO        20250322MG551  0007255656P000000001540000000000000000000000000000000000000000000000000154000000N
5000048674621600ISENTO        20250322MG551  0007255405P000000001530000000000000000000000000000000000000000000000000397000000N
5000048674621600ISENTO        20250322MG551  0007255102P000000000050000000000000000000000000000000000000000000000000005000000N
5000084819898604ISENTO        20250322MG551  0007265102P000000000160000000000000000000000000000000000000000000000000016000000N
5000024324299668ISENTO        20250322MG551  0007275656P000000001540000000000000000000000000000000000000000000000000154000000N
5000024324299668ISENTO        20250322MG551  0007275405P000000000800000000000000000000000000000000000000000000000000114000000N
5000040085678600ISENTO        20250325MG551  0007565405P000000002960000000000000000000000000000000000000000000000000737000000N
5000005431583654ISENTO        20250331MG551  0007625405P000000019650000000000000000000000000000000000000000000000009744000000N
5000005431583654ISENTO        20250331MG551  0007625102P000000000350000000000000000000000000000000000000000000000000035000000N
5000001340790602ISENTO        20250322MG551  0007285405P000000002460000000000000000000000000000000000000000000000000640000000N
5000019558074691ISENTO        20250325MG551  0007575405P000000002620000000000000000000000000000000000000000000000000644000000N
5000008726348683ISENTO        20250322MG551  0007295656P000000001980000000000000000000000000000000000000000000000000198000000N
5000008726348683ISENTO        20250322MG551  0007295405P000000000800000000000000000000000000000000000000000000000000114000000N
5000008726348683ISENTO        20250322MG551  0007295102P000000000050000000000000000000000000000000000000000000000000005000000N
5000061343170630ISENTO        20250322MG551  0007305405P000000003100000000000000000000000000000000000000000000000000793000000N
5000061343170630ISENTO        20250322MG551  0007305102P000000000350000000000000000000000000000000000000000000000000035000000N
5000001413754694ISENTO        20250322MG551  0007315405P000000003460000000000000000000000000000000000000000000000000346000000N
5000001413754694ISENTO        20250322MG551  0007315102P000000000120000000000000000000000000000000000000000000000000012000000N
5000059332085668ISENTO        20250322MG551  0007325405P000000009900000000000000000000000000000000000000000000000001294000000N
5000000720566657ISENTO        20250331MG551  0007635656P000000001980000000000000000000000000000000000000000000000000198000000N
5000000720566657ISENTO        20250331MG551  0007635405P000000000360000000000000000000000000000000000000000000000000036000000N
5000000720566657ISENTO        20250331MG551  0007635102P000000000160000000000000000000000000000000000000000000000000016000000N
5000001340790602ISENTO        20250331MG551  0007645405P000000000620000000000000000000000000000000000000000000000000062000000N
5000060286490668ISENTO        20250322MG551  0007335405P000000000240000000000000000000000000000000000000000000000000024000000N
5000060286490668ISENTO        20250322MG551  0007335102P000000000070000000000000000000000000000000000000000000000000007000000N
5000043676375653ISENTO        20250322MG551  0007345405P000000002480000000000000000000000000000000000000000000000000605000000N
5000043676375653ISENTO        20250322MG551  0007345102P000000000160000000000000000000000000000000000000000000000000016000000N
5000049196227672ISENTO        20250331MG551  0007655405P000000008420000000000000000000000000000000000000000000000000842000000N
5000011818958635ISENTO        20250322MG551  0007355405P000000022930000000000000000000000000000000000000000000000010867000000N
5000060798998687ISENTO        20250331MG551  0007665656P000000001320000000000000000000000000000000000000000000000000132000000N
5000060798998687ISENTO        20250331MG551  0007665405P000000001570000000000000000000000000000000000000000000000000326000000N
5000060798998687ISENTO        20250331MG551  0007665102P000000000050000000000000000000000000000000000000000000000000005000000N
5000049403745649ISENTO        20250322MG551  0007365656P000000001540000000000000000000000000000000000000000000000000154000000N
5000049403745649ISENTO        20250322MG551  0007365405P000000001170000000000000000000000000000000000000000000000000248000000N
5000049403745649ISENTO        20250322MG551  0007365102P000000000050000000000000000000000000000000000000000000000000005000000N
5000016077118699ISENTO        20250322MG551  0007375656P000000001320000000000000000000000000000000000000000000000000132000000N
5000016077118699ISENTO        20250322MG551  0007375405P000000006000000000000000000000000000000000000000000000000001779000000N
5000016077118699ISENTO        20250322MG551  0007375102P000000000410000000000000000000000000000000000000000000000000047000000N
5000020316399604ISENTO        20250331MG551  0007675405P000000001060000000000000000000000000000000000000000000000000248000000N
5000040182606600ISENTO        20250322MG551  0007385405P000000002790000000000000000000000000000000000000000000000000901000000N
5000040182606600ISENTO        20250322MG551  0007385102P000000000400000000000000000000000000000000000000000000000000045000000N
5000047980303687ISENTO        20250331MG551  0007685656P000000001540000000000000000000000000000000000000000000000000154000000N
5000047980303687ISENTO        20250331MG551  0007685405P000000000350000000000000000000000000000000000000000000000000035000000N
5000009008835614ISENTO        20250322MG551  0007395405P000000022520000000000000000000000000000000000000000000000013211000000N
5000009008835614ISENTO        20250322MG551  0007395656P000000001980000000000000000000000000000000000000000000000000198000000N
5000079273548687ISENTO        20250322MG551  0007405405P000000000780000000000000000000000000000000000000000000000000078000000N
5000055024491653ISENTO        20250331MG551  0007695656P000000001540000000000000000000000000000000000000000000000000154000000N
5000055024491653ISENTO        20250331MG551  0007695405P000000000960000000000000000000000000000000000000000000000000134000000N
5000004146201608ISENTO        20250322MG551  0007415405P000000002800000000000000000000000000000000000000000000000000894000000N
5000004146201608ISENTO        20250322MG551  0007415102P000000000350000000000000000000000000000000000000000000000000035000000N
5000022228209600ISENTO        20250322MG551  0007425405P000000001560000000000000000000000000000000000000000000000000224000000N
5000022228209600ISENTO        20250322MG551  0007425102P000000000520000000000000000000000000000000000000000000000000052000000N
5000013182759620ISENTO        20250322MG551  0007435405P000000002840000000000000000000000000000000000000000000000000720000000N
5000029866979687ISENTO        20250322MG551  0007445656P000000001980000000000000000000000000000000000000000000000000198000000N
5000029866979687ISENTO        20250322MG551  0007445405P000000000900000000000000000000000000000000000000000000000000200000000N
5000080178510815ISENTO        20250331MG551  0007705656P000000002160000000000000000000000000000000000000000000000000216000000N
5000080178510815ISENTO        20250331MG551  0007705405P000000000360000000000000000000000000000000000000000000000000036000000N
5000001377828611ISENTO        20250322MG551  0007455405P000000009920000000000000000000000000000000000000000000000001940000000N
5000004289631614ISENTO        20250331MG551  0007715102P000000000350000000000000000000000000000000000000000000000000035000000N
5000040352340606ISENTO        20250322MG551  0007465405P000000015820000000000000000000000000000000000000000000000011833000000N
5000040352340606ISENTO        20250322MG551  0007465656P000000001980000000000000000000000000000000000000000000000000198000000N
5000040352340606ISENTO        20250322MG551  0007465102P000000000900000000000000000000000000000000000000000000000000167000000N
5000005023719600ISENTO        20250322MG551  0007475405P000000002120000000000000000000000000000000000000000000000000396000000N
5000005023719600ISENTO        20250322MG551  0007475102P000000000050000000000000000000000000000000000000000000000000005000000N
5000002870034695ISENTO        20250331MG551  0007725405P000000014580000000000000000000000000000000000000000000000008344000000N
5000002870034695ISENTO        20250331MG551  0007725656P000000001760000000000000000000000000000000000000000000000000176000000N
5000001441980610ISENTO        20250331MG551  0007735656P000000001760000000000000000000000000000000000000000000000000176000000N
5000001441980610ISENTO        20250331MG551  0007735405P000000002790000000000000000000000000000000000000000000000000633000000N
5000001441980610ISENTO        20250331MG551  0007735102P000000000350000000000000000000000000000000000000000000000000035000000N
5000042026369615ISENTO        20250331MG551  0007745656P000000001760000000000000000000000000000000000000000000000000176000000N
5000042026369615ISENTO        20250331MG551  0007745405P000000010330000000000000000000000000000000000000000000000003955000000N
5000042026369615ISENTO        20250331MG551  0007745102P000000000510000000000000000000000000000000000000000000000000067000000N
5000052672409749ISENTO        20250331MG551  0007755405P000000018590000000000000000000000000000000000000000000000006295000000N
50215322700001130624775200061 20250310MG551  0114181403T000000051133000000000000000000000000000000000000000000000000000000000N
50215322700001130624775200061 20250312MG551  0114551403T000000022626500000000000000000000000000000000000000000000000000000000N
50436489710053861312885600405 20250325MG551  2690041102T000000007640500000000764050000000013753000000000000000000000000001800N
50215322700001130624775200061 20250319MG551  0115331403T000000066572300000000000000000000000000000000000000000000000000000000N
50215322700001130624775200061 20250326MG551  0116471403T000000054629400000000000000000000000000000000000000000000000000000000N
51215322700001130624775200061 20250310MG1  01141814030000000000000000000000000000000000000000000000000000                    N
5100097154881615ISENTO        20250311MG1  00071351020000000000000000000000000000000000000000000000000000                    N
5100097154881615ISENTO        20250311MG1  00071354050000000000000000000000000000000000000000000000000000                    N
51215322700001130624775200061 20250312MG1  01145514030000000000000000000000000000000000000000000000000000                    N
5100013006665600ISENTO        20250312MG1  00071554050000000000000000000000000000000000000000000000000000                    N
5100013006665600ISENTO        20250312MG1  00071551020000000000000000000000000000000000000000000000000000                    N
5100029267838172ISENTO        20250312MG1  00071454050000000000000000000000000000000000000000000000000000                    N
5160563731000762ISENTO        20250314MG1  00071656560000000000000000000000000000000000000000000000000000                    N
5160563731000762ISENTO        20250314MG1  00071654050000000000000000000000000000000000000000000000000000                    N
51215322700001130624775200061 20250319MG1  01153314030000000000000000000000000000000000000000000000000000                    N
5100001413754694ISENTO        20250322MG1  00071754050000000000000000000000000000000000000000000000000000                    N
5100001413754694ISENTO        20250322MG1  00071756560000000000000000000000000000000000000000000000000000                    N
5100005237735606ISENTO        20250322MG1  00071854050000000000000000000000000000000000000000000000000000                    N
5100005237735606ISENTO        20250322MG1  00071851020000000000000000000000000000000000000000000000000000                    N
5100011521426660ISENTO        20250322MG1  00071951020000000000000000000000000000000000000000000000000000                    N
5100011521426660ISENTO        20250322MG1  00071954050000000000000000000000000000000000000000000000000000                    N
5100045534942649ISENTO        20250322MG1  00072056560000000000000000000000000000000000000000000000000000                    N
5100045534942649ISENTO        20250322MG1  00072054050000000000000000000000000000000000000000000000000000                    N
5100045534942649ISENTO        20250322MG1  00072051020000000000000000000000000000000000000000000000000000                    N
5100001837339678ISENTO        20250322MG1  00072154050000000000000000000000000000000000000000000000000000                    N
5100001837339678ISENTO        20250322MG1  00072151020000000000000000000000000000000000000000000000000000                    N
5100001837339678ISENTO        20250322MG1  00072156560000000000000000000000000000000000000000000000000000                    N
5100004963915693ISENTO        20250322MG1  00072256560000000000000000000000000000000000000000000000000000                    N
5100004963915693ISENTO        20250322MG1  00072254050000000000000000000000000000000000000000000000000000                    N
5100085072230600ISENTO        20250322MG1  00072356560000000000000000000000000000000000000000000000000000                    N
5100085072230600ISENTO        20250322MG1  00072354050000000000000000000000000000000000000000000000000000                    N
5100024479659668ISENTO        20250322MG1  00072454050000000000000000000000000000000000000000000000000000                    N
5100024479659668ISENTO        20250322MG1  00072451020000000000000000000000000000000000000000000000000000                    N
5100048674621600ISENTO        20250322MG1  00072551020000000000000000000000000000000000000000000000000000                    N
5100048674621600ISENTO        20250322MG1  00072556560000000000000000000000000000000000000000000000000000                    N
5100048674621600ISENTO        20250322MG1  00072554050000000000000000000000000000000000000000000000000000                    N
5100084819898604ISENTO        20250322MG1  00072651020000000000000000000000000000000000000000000000000000                    N
5100024324299668ISENTO        20250322MG1  00072754050000000000000000000000000000000000000000000000000000                    N
5100024324299668ISENTO        20250322MG1  00072756560000000000000000000000000000000000000000000000000000                    N
5100001340790602ISENTO        20250322MG1  00072854050000000000000000000000000000000000000000000000000000                    N
5100008726348683ISENTO        20250322MG1  00072951020000000000000000000000000000000000000000000000000000                    N
5100008726348683ISENTO        20250322MG1  00072954050000000000000000000000000000000000000000000000000000                    N
5100008726348683ISENTO        20250322MG1  00072956560000000000000000000000000000000000000000000000000000                    N
5100061343170630ISENTO        20250322MG1  00073051020000000000000000000000000000000000000000000000000000                    N
5100061343170630ISENTO        20250322MG1  00073054050000000000000000000000000000000000000000000000000000                    N
5100001413754694ISENTO        20250322MG1  00073151020000000000000000000000000000000000000000000000000000                    N
5100001413754694ISENTO        20250322MG1  00073154050000000000000000000000000000000000000000000000000000                    N
5100059332085668ISENTO        20250322MG1  00073254050000000000000000000000000000000000000000000000000000                    N
5100060286490668ISENTO        20250322MG1  00073351020000000000000000000000000000000000000000000000000000                    N
5100060286490668ISENTO        20250322MG1  00073354050000000000000000000000000000000000000000000000000000                    N
5100043676375653ISENTO        20250322MG1  00073451020000000000000000000000000000000000000000000000000000                    N
5100043676375653ISENTO        20250322MG1  00073454050000000000000000000000000000000000000000000000000000                    N
5100011818958635ISENTO        20250322MG1  00073554050000000000000000000000000000000000000000000000000000                    N
5100049403745649ISENTO        20250322MG1  00073651020000000000000000000000000000000000000000000000000000                    N
5100049403745649ISENTO        20250322MG1  00073654050000000000000000000000000000000000000000000000000000                    N
5100049403745649ISENTO        20250322MG1  00073656560000000000000000000000000000000000000000000000000000                    N
5100016077118699ISENTO        20250322MG1  00073751020000000000000000000000000000000000000000000000000000                    N
5100016077118699ISENTO        20250322MG1  00073754050000000000000000000000000000000000000000000000000000                    N
5100016077118699ISENTO        20250322MG1  00073756560000000000000000000000000000000000000000000000000000                    N
5100040182606600ISENTO        20250322MG1  00073854050000000000000000000000000000000000000000000000000000                    N
5100040182606600ISENTO        20250322MG1  00073851020000000000000000000000000000000000000000000000000000                    N
5100009008835614ISENTO        20250322MG1  00073954050000000000000000000000000000000000000000000000000000                    N
5100009008835614ISENTO        20250322MG1  00073956560000000000000000000000000000000000000000000000000000                    N
5100079273548687ISENTO        20250322MG1  00074054050000000000000000000000000000000000000000000000000000                    N
5100004146201608ISENTO        20250322MG1  00074151020000000000000000000000000000000000000000000000000000                    N
5100004146201608ISENTO        20250322MG1  00074154050000000000000000000000000000000000000000000000000000                    N
5100022228209600ISENTO        20250322MG1  00074251020000000000000000000000000000000000000000000000000000                    N
5100022228209600ISENTO        20250322MG1  00074254050000000000000000000000000000000000000000000000000000                    N
5100013182759620ISENTO        20250322MG1  00074354050000000000000000000000000000000000000000000000000000                    N
5100029866979687ISENTO        20250322MG1  00074454050000000000000000000000000000000000000000000000000000                    N
5100029866979687ISENTO        20250322MG1  00074456560000000000000000000000000000000000000000000000000000                    N
5100001377828611ISENTO        20250322MG1  00074554050000000000000000000000000000000000000000000000000000                    N
5100040352340606ISENTO        20250322MG1  00074651020000000000000000000000000000000000000000000000000000                    N
5100040352340606ISENTO        20250322MG1  00074656560000000000000000000000000000000000000000000000000000                    N
5100040352340606ISENTO        20250322MG1  00074654050000000000000000000000000000000000000000000000000000                    N
5100005023719600ISENTO        20250322MG1  00074751020000000000000000000000000000000000000000000000000000                    N
5100005023719600ISENTO        20250322MG1  00074754050000000000000000000000000000000000000000000000000000                    N
5100010835151603ISENTO        20250324MG1  00074854050000000000000000000000000000000000000000000000000000                    N
5100010835151603ISENTO        20250324MG1  00074851020000000000000000000000000000000000000000000000000000                    N
5100041971000604ISENTO        20250324MG1  00074954050000000000000000000000000000000000000000000000000000                    N
5100063150956668ISENTO        20250324MG1  00075054050000000000000000000000000000000000000000000000000000                    N
5100063150956668ISENTO        20250324MG1  00075056560000000000000000000000000000000000000000000000000000                    N
51436489710053861312885600405 20250325MG1  26900411020000000000000000000000000000000000000000000000000000                    N
5100007773826609ISENTO        20250325MG1  00075156560000000000000000000000000000000000000000000000000000                    N
5100007773826609ISENTO        20250325MG1  00075154050000000000000000000000000000000000000000000000000000                    N
5100005253169652ISENTO        20250325MG1  00075254050000000000000000000000000000000000000000000000000000                    N
5100005253169652ISENTO        20250325MG1  00075251020000000000000000000000000000000000000000000000000000                    N
5100057654891687ISENTO        20250325MG1  00075351020000000000000000000000000000000000000000000000000000                    N
5100057654891687ISENTO        20250325MG1  00075354050000000000000000000000000000000000000000000000000000                    N
5100008950380641ISENTO        20250325MG1  00075454050000000000000000000000000000000000000000000000000000                    N
5100011547034602ISENTO        20250325MG1  00075554050000000000000000000000000000000000000000000000000000                    N
5100040085678600ISENTO        20250325MG1  00075654050000000000000000000000000000000000000000000000000000                    N
5100019558074691ISENTO        20250325MG1  00075754050000000000000000000000000000000000000000000000000000                    N
51215322700001130624775200061 20250326MG1  01164714030000000000000000000000000000000000000000000000000000                    N
5100003276225638ISENTO        20250327MG1  00075854050000000000000000000000000000000000000000000000000000                    N
5100000524234680ISENTO        20250331MG1  00075954050000000000000000000000000000000000000000000000000000                    N
5100000524234680ISENTO        20250331MG1  00075956560000000000000000000000000000000000000000000000000000                    N
5100020316399604ISENTO        20250331MG1  00076054050000000000000000000000000000000000000000000000000000                    N
5100006513144612ISENTO        20250331MG1  00076156560000000000000000000000000000000000000000000000000000                    N
5100006513144612ISENTO        20250331MG1  00076151020000000000000000000000000000000000000000000000000000                    N
5100006513144612ISENTO        20250331MG1  00076154050000000000000000000000000000000000000000000000000000                    N
5100005431583654ISENTO        20250331MG1  00076254050000000000000000000000000000000000000000000000000000                    N
5100005431583654ISENTO        20250331MG1  00076251020000000000000000000000000000000000000000000000000000                    N
5100000720566657ISENTO        20250331MG1  00076351020000000000000000000000000000000000000000000000000000                    N
5100000720566657ISENTO        20250331MG1  00076354050000000000000000000000000000000000000000000000000000                    N
5100000720566657ISENTO        20250331MG1  00076356560000000000000000000000000000000000000000000000000000                    N
5100001340790602ISENTO        20250331MG1  00076454050000000000000000000000000000000000000000000000000000                    N
5100049196227672ISENTO        20250331MG1  00076554050000000000000000000000000000000000000000000000000000                    N
5100060798998687ISENTO        20250331MG1  00076656560000000000000000000000000000000000000000000000000000                    N
5100060798998687ISENTO        20250331MG1  00076654050000000000000000000000000000000000000000000000000000                    N
5100060798998687ISENTO        20250331MG1  00076651020000000000000000000000000000000000000000000000000000                    N
5100020316399604ISENTO        20250331MG1  00076754050000000000000000000000000000000000000000000000000000                    N
5100047980303687ISENTO        20250331MG1  00076856560000000000000000000000000000000000000000000000000000                    N
5100047980303687ISENTO        20250331MG1  00076854050000000000000000000000000000000000000000000000000000                    N
5100055024491653ISENTO        20250331MG1  00076954050000000000000000000000000000000000000000000000000000                    N
5100055024491653ISENTO        20250331MG1  00076956560000000000000000000000000000000000000000000000000000                    N
5100080178510815ISENTO        20250331MG1  00077054050000000000000000000000000000000000000000000000000000                    N
5100080178510815ISENTO        20250331MG1  00077056560000000000000000000000000000000000000000000000000000                    N
5100004289631614ISENTO        20250331MG1  00077151020000000000000000000000000000000000000000000000000000                    N
5100002870034695ISENTO        20250331MG1  00077256560000000000000000000000000000000000000000000000000000                    N
5100002870034695ISENTO        20250331MG1  00077254050000000000000000000000000000000000000000000000000000                    N
5100001441980610ISENTO        20250331MG1  00077354050000000000000000000000000000000000000000000000000000                    N
5100001441980610ISENTO        20250331MG1  00077356560000000000000000000000000000000000000000000000000000                    N
5100001441980610ISENTO        20250331MG1  00077351020000000000000000000000000000000000000000000000000000                    N
5100042026369615ISENTO        20250331MG1  00077456560000000000000000000000000000000000000000000000000000                    N
5100042026369615ISENTO        20250331MG1  00077454050000000000000000000000000000000000000000000000000000                    N
5100042026369615ISENTO        20250331MG1  00077451020000000000000000000000000000000000000000000000000000                    N
5100052672409749ISENTO        20250331MG1  00077554050000000000000000000000000000000000000000000000000000                    N
5300097154881615ISENTO        20250311MG551  0007135405P000000000000000000000000000000000000000N                              
5300097154881615ISENTO        20250311MG551  0007135102P000000000000000000000000000000000000000N                              
5300013006665600ISENTO        20250312MG551  0007155405P000000000000000000000000000000000000000N                              
5300013006665600ISENTO        20250312MG551  0007155102P000000000000000000000000000000000000000N                              
5300029267838172ISENTO        20250312MG551  0007145405P000000000000000000000000000000000000000N                              
5360563731000762ISENTO        20250314MG551  0007165656P000000000000000000000000000000000000000N                              
5360563731000762ISENTO        20250314MG551  0007165405P000000000000000000000000000000000000000N                              
5300001413754694ISENTO        20250322MG551  0007175405P000000000000000000000000000000000000000N                              
5300001413754694ISENTO        20250322MG551  0007175656P000000000000000000000000000000000000000N                              
5300010835151603ISENTO        20250324MG551  0007485405P000000000000000000000000000000000000000N                              
5300010835151603ISENTO        20250324MG551  0007485102P000000000000000000000000000000000000000N                              
5300007773826609ISENTO        20250325MG551  0007515656P000000000000000000000000000000000000000N                              
5300007773826609ISENTO        20250325MG551  0007515405P000000000000000000000000000000000000000N                              
5300041971000604ISENTO        20250324MG551  0007495405P000000000000000000000000000000000000000N                              
5300003276225638ISENTO        20250327MG551  0007585405P000000000000000000000000000000000000000N                              
5300063150956668ISENTO        20250324MG551  0007505656P000000000000000000000000000000000000000N                              
5300063150956668ISENTO        20250324MG551  0007505405P000000000000000000000000000000000000000N                              
5300005237735606ISENTO        20250322MG551  0007185405P000000000000000000000000000000000000000N                              
5300005237735606ISENTO        20250322MG551  0007185102P000000000000000000000000000000000000000N                              
5300005253169652ISENTO        20250325MG551  0007525405P000000000000000000000000000000000000000N                              
5300005253169652ISENTO        20250325MG551  0007525102P000000000000000000000000000000000000000N                              
5300000524234680ISENTO        20250331MG551  0007595656P000000000000000000000000000000000000000N                              
5300000524234680ISENTO        20250331MG551  0007595405P000000000000000000000000000000000000000N                              
5300011521426660ISENTO        20250322MG551  0007195405P000000000000000000000000000000000000000N                              
5300011521426660ISENTO        20250322MG551  0007195102P000000000000000000000000000000000000000N                              
5300045534942649ISENTO        20250322MG551  0007205656P000000000000000000000000000000000000000N                              
5300045534942649ISENTO        20250322MG551  0007205405P000000000000000000000000000000000000000N                              
5300045534942649ISENTO        20250322MG551  0007205102P000000000000000000000000000000000000000N                              
5300020316399604ISENTO        20250331MG551  0007605405P000000000000000000000000000000000000000N                              
5300001837339678ISENTO        20250322MG551  0007215405P000000000000000000000000000000000000000N                              
5300001837339678ISENTO        20250322MG551  0007215102P000000000000000000000000000000000000000N                              
5300001837339678ISENTO        20250322MG551  0007215656P000000000000000000000000000000000000000N                              
5300057654891687ISENTO        20250325MG551  0007535405P000000000000000000000000000000000000000N                              
5300057654891687ISENTO        20250325MG551  0007535102P000000000000000000000000000000000000000N                              
5300004963915693ISENTO        20250322MG551  0007225656P000000000000000000000000000000000000000N                              
5300004963915693ISENTO        20250322MG551  0007225405P000000000000000000000000000000000000000N                              
5300085072230600ISENTO        20250322MG551  0007235656P000000000000000000000000000000000000000N                              
5300085072230600ISENTO        20250322MG551  0007235405P000000000000000000000000000000000000000N                              
5300024479659668ISENTO        20250322MG551  0007245405P000000000000000000000000000000000000000N                              
5300024479659668ISENTO        20250322MG551  0007245102P000000000000000000000000000000000000000N                              
5300008950380641ISENTO        20250325MG551  0007545405P000000000000000000000000000000000000000N                              
5300006513144612ISENTO        20250331MG551  0007615656P000000000000000000000000000000000000000N                              
5300006513144612ISENTO        20250331MG551  0007615405P000000000000000000000000000000000000000N                              
5300006513144612ISENTO        20250331MG551  0007615102P000000000000000000000000000000000000000N                              
5300011547034602ISENTO        20250325MG551  0007555405P000000000000000000000000000000000000000N                              
5300048674621600ISENTO        20250322MG551  0007255656P000000000000000000000000000000000000000N                              
5300048674621600ISENTO        20250322MG551  0007255405P000000000000000000000000000000000000000N                              
5300048674621600ISENTO        20250322MG551  0007255102P000000000000000000000000000000000000000N                              
5300084819898604ISENTO        20250322MG551  0007265102P000000000000000000000000000000000000000N                              
5300024324299668ISENTO        20250322MG551  0007275656P000000000000000000000000000000000000000N                              
5300024324299668ISENTO        20250322MG551  0007275405P000000000000000000000000000000000000000N                              
5300040085678600ISENTO        20250325MG551  0007565405P000000000000000000000000000000000000000N                              
5300005431583654ISENTO        20250331MG551  0007625405P000000000000000000000000000000000000000N                              
5300005431583654ISENTO        20250331MG551  0007625102P000000000000000000000000000000000000000N                              
5300001340790602ISENTO        20250322MG551  0007285405P000000000000000000000000000000000000000N                              
5300019558074691ISENTO        20250325MG551  0007575405P000000000000000000000000000000000000000N                              
5300008726348683ISENTO        20250322MG551  0007295656P000000000000000000000000000000000000000N                              
5300008726348683ISENTO        20250322MG551  0007295405P000000000000000000000000000000000000000N                              
5300008726348683ISENTO        20250322MG551  0007295102P000000000000000000000000000000000000000N                              
5300061343170630ISENTO        20250322MG551  0007305405P000000000000000000000000000000000000000N                              
5300061343170630ISENTO        20250322MG551  0007305102P000000000000000000000000000000000000000N                              
5300001413754694ISENTO        20250322MG551  0007315405P000000000000000000000000000000000000000N                              
5300001413754694ISENTO        20250322MG551  0007315102P000000000000000000000000000000000000000N                              
5300059332085668ISENTO        20250322MG551  0007325405P000000000000000000000000000000000000000N                              
5300000720566657ISENTO        20250331MG551  0007635656P000000000000000000000000000000000000000N                              
5300000720566657ISENTO        20250331MG551  0007635405P000000000000000000000000000000000000000N                              
5300000720566657ISENTO        20250331MG551  0007635102P000000000000000000000000000000000000000N                              
5300001340790602ISENTO        20250331MG551  0007645405P000000000000000000000000000000000000000N                              
5300060286490668ISENTO        20250322MG551  0007335405P000000000000000000000000000000000000000N                              
5300060286490668ISENTO        20250322MG551  0007335102P000000000000000000000000000000000000000N                              
5300043676375653ISENTO        20250322MG551  0007345405P000000000000000000000000000000000000000N                              
5300043676375653ISENTO        20250322MG551  0007345102P000000000000000000000000000000000000000N                              
5300049196227672ISENTO        20250331MG551  0007655405P000000000000000000000000000000000000000N                              
5300011818958635ISENTO        20250322MG551  0007355405P000000000000000000000000000000000000000N                              
5300060798998687ISENTO        20250331MG551  0007665656P000000000000000000000000000000000000000N                              
5300060798998687ISENTO        20250331MG551  0007665405P000000000000000000000000000000000000000N                              
5300060798998687ISENTO        20250331MG551  0007665102P000000000000000000000000000000000000000N                              
5300049403745649ISENTO        20250322MG551  0007365656P000000000000000000000000000000000000000N                              
5300049403745649ISENTO        20250322MG551  0007365405P000000000000000000000000000000000000000N                              
5300049403745649ISENTO        20250322MG551  0007365102P000000000000000000000000000000000000000N                              
5300016077118699ISENTO        20250322MG551  0007375656P000000000000000000000000000000000000000N                              
5300016077118699ISENTO        20250322MG551  0007375405P000000000000000000000000000000000000000N                              
5300016077118699ISENTO        20250322MG551  0007375102P000000000000000000000000000000000000000N                              
5300020316399604ISENTO        20250331MG551  0007675405P000000000000000000000000000000000000000N                              
5300040182606600ISENTO        20250322MG551  0007385405P000000000000000000000000000000000000000N                              
5300040182606600ISENTO        20250322MG551  0007385102P000000000000000000000000000000000000000N                              
5300047980303687ISENTO        20250331MG551  0007685656P000000000000000000000000000000000000000N                              
5300047980303687ISENTO        20250331MG551  0007685405P000000000000000000000000000000000000000N                              
5300009008835614ISENTO        20250322MG551  0007395405P000000000000000000000000000000000000000N                              
5300009008835614ISENTO        20250322MG551  0007395656P000000000000000000000000000000000000000N                              
5300079273548687ISENTO        20250322MG551  0007405405P000000000000000000000000000000000000000N                              
5300055024491653ISENTO        20250331MG551  0007695656P000000000000000000000000000000000000000N                              
5300055024491653ISENTO        20250331MG551  0007695405P000000000000000000000000000000000000000N                              
5300004146201608ISENTO        20250322MG551  0007415405P000000000000000000000000000000000000000N                              
5300004146201608ISENTO        20250322MG551  0007415102P000000000000000000000000000000000000000N                              
5300022228209600ISENTO        20250322MG551  0007425405P000000000000000000000000000000000000000N                              
5300022228209600ISENTO        20250322MG551  0007425102P000000000000000000000000000000000000000N                              
5300013182759620ISENTO        20250322MG551  0007435405P000000000000000000000000000000000000000N                              
5300029866979687ISENTO        20250322MG551  0007445656P000000000000000000000000000000000000000N                              
5300029866979687ISENTO        20250322MG551  0007445405P000000000000000000000000000000000000000N                              
5300080178510815ISENTO        20250331MG551  0007705656P000000000000000000000000000000000000000N                              
5300080178510815ISENTO        20250331MG551  0007705405P000000000000000000000000000000000000000N                              
5300001377828611ISENTO        20250322MG551  0007455405P000000000000000000000000000000000000000N                              
5300004289631614ISENTO        20250331MG551  0007715102P000000000000000000000000000000000000000N                              
5300040352340606ISENTO        20250322MG551  0007465405P000000000000000000000000000000000000000N                              
5300040352340606ISENTO        20250322MG551  0007465656P000000000000000000000000000000000000000N                              
5300040352340606ISENTO        20250322MG551  0007465102P000000000000000000000000000000000000000N                              
5300005023719600ISENTO        20250322MG551  0007475405P000000000000000000000000000000000000000N                              
5300005023719600ISENTO        20250322MG551  0007475102P000000000000000000000000000000000000000N                              
5300002870034695ISENTO        20250331MG551  0007725405P000000000000000000000000000000000000000N                              
5300002870034695ISENTO        20250331MG551  0007725656P000000000000000000000000000000000000000N                              
5300001441980610ISENTO        20250331MG551  0007735656P000000000000000000000000000000000000000N                              
5300001441980610ISENTO        20250331MG551  0007735405P000000000000000000000000000000000000000N                              
5300001441980610ISENTO        20250331MG551  0007735102P000000000000000000000000000000000000000N                              
5300042026369615ISENTO        20250331MG551  0007745656P000000000000000000000000000000000000000N                              
5300042026369615ISENTO        20250331MG551  0007745405P000000000000000000000000000000000000000N                              
5300042026369615ISENTO        20250331MG551  0007745102P000000000000000000000000000000000000000N                              
5300052672409749ISENTO        20250331MG551  0007755405P000000000000000000000000000000000000000N                              
53215322700001130624775200061 20250310MG551  0114181403T000000000000000000000000000000000000000N                              
53215322700001130624775200061 20250312MG551  0114551403T000000000000000000000000000000000000000N                              
53436489710053861312885600405 20250325MG551  2690041102T000000000000000000000000000000000000000N                              
53215322700001130624775200061 20250319MG551  0115331403T000000000000000000000000000000000000000N                              
53215322700001130624775200061 20250326MG551  0116471403T000000000000000000000000000000000000000N                              
5400000524234680551  00075956565000011260          000000030000000000132000000000000000000000000000000000000000000000000000000
5400000524234680551  0007595405500002829           000000010000000000028000000000000000000000000000000000000000000000000000000
5400000524234680551  0007595405500003640           000000010000000000046000000000000000000000000000000000000000000000000000000
5400000524234680551  00075954055000041466          000000010000000000034000000000000000000000000000000000000000000000000000000
5400000524234680551  0007595405500005780           000000010000000000029000000000000000000000000000000000000000000000000000000
5400000524234680551  0007595405500006868           000000010000000000087000000000000000000000000000000000000000000000000000000
5400000524234680551  0007595405500007810           000000010000000000096000000000000000000000000000000000000000000000000000000
5400000720566657551  00076356565000011260          000000045000000000198000000000000000000000000000000000000000000000000000000
5400000720566657551  00076354055000021053          000000010000000000036000000000000000000000000000000000000000000000000000000
5400000720566657551  0007635102102003972           000000010000000000016000000000000000000000000000000000000000000000000000000
5400001340790602551  0007285405500001855           000000040000000000184000000000000000000000000000000000000000000000000000000
5400001340790602551  0007285405500002882           000000010000000000026000000000000000000000000000000000000000000000000000000
5400001340790602551  0007285405500003655           000000010000000000036000000000000000000000000000000000000000000000000000000
5400001340790602551  0007645405500001739           000000010000000000062000000000000000000000000000000000000000000000000000000
5400001377828611551  0007455405500001772           000000040000000000948000000000000000000000000000000000000000000000000000000
5400001377828611551  0007455405500002790           000000010000000000044000000000000000000000000000000000000000000000000000000
5400001413754694551  00071754055000011286          000000010000000000294000000000000000000000000000000000000000000000000000000
5400001413754694551  0007175405500002856           000000010000000000178000000000000000000000000000000000000000000000000000000
5400001413754694551  00071756565000031260          000000040000000000176000000000000000000000000000000000000000000000000000000
5400001413754694551  0007175405500004882           000000010000000000026000000000000000000000000000000000000000000000000000000
5400001413754694551  0007175405500005874           000000010000000000044000000000000000000000000000000000000000000000000000000
5400001413754694551  0007315405500001784           000000010000000000346000000000000000000000000000000000000000000000000000000
5400001413754694551  00073151021020021658          000000010000000000012000000000000000000000000000000000000000000000000000000
5400001441980610551  00077356565000011260          000000040000000000176000000000000000000000000000000000000000000000000000000
5400001441980610551  0007735405500002882           000000010000000000028000000000000000000000000000000000000000000000000000000
5400001441980610551  00077354055000031441          000000010000000000048000000000000000000000000000000000000000000000000000000
5400001441980610551  0007735405500004942           000000010000000000174000000000000000000000000000000000000000000000000000000
5400001441980610551  00077354055000051252          000000010000000000029000000000000000000000000000000000000000000000000000000
5400001441980610551  00077351021020061459          000000010000000000035000000000000000000000000000000000000000000000000000000
5400001837339678551  00072154055000011201          000000010000000000174000000000000000000000000000000000000000000000000000000
5400001837339678551  00072151021020021661          000000020000000000014000000000000000000000000000000000000000000000000000000
5400001837339678551  00072156565000031260          000000035000000000154000000000000000000000000000000000000000000000000000000
5400001837339678551  0007215405500004829           000000010000000000026000000000000000000000000000000000000000000000000000000
5400001837339678551  00072154055000051494          000000010000000000042000000000000000000000000000000000000000000000000000000
5400001837339678551  0007215102102006972           000000010000000000005000000000000000000000000000000000000000000000000000000
5400002870034695551  0007725405500001947           000000010000000000242000000000000000000000000000000000000000000000000000000
5400002870034695551  00077254055000021240          000000010000000000112000000000000000000000000000000000000000000000000000000
5400002870034695551  0007725405500003688           000000010000000000344000000000000000000000000000000000000000000000000000000
5400002870034695551  00077254055000041077          000000090000000000648000000000000000000000000000000000000000000000000000000
5400002870034695551  00077256565000051260          000000040000000000176000000000000000000000000000000000000000000000000000000
5400002870034695551  0007725405500006829           000000010000000000028000000000000000000000000000000000000000000000000000000
5400002870034695551  00077254055000071268          000000010000000000056000000000000000000000000000000000000000000000000000000
5400002870034695551  00077254055000081504          000000010000000000012000000000000000000000000000000000000000000000000000000
5400002870034695551  00077254055000091505          000000020000000000016000000000000000000000000000000000000000000000000000000
5400003276225638551  0007585405500001637           000000010000000000069000000000000000000000000000000000000000000000000000000
5400003276225638551  0007585405500002642           000000010000000000112000000000000000000000000000000000000000000000000000000
5400003276225638551  00075854055000031042          000000010000000000072000000000000000000000000000000000000000000000000000000
5400004146201608551  00074154055000011521          000000010000000000009000000000000000000000000000000000000000000000000000000
5400004146201608551  0007415405500002915           000000035000000000154000000000000000000000000000000000000000000000000000000
5400004146201608551  0007415405500003829           000000010000000000035000000000000000000000000000000000000000000000000000000
5400004146201608551  00074154055000041441          000000010000000000046000000000000000000000000000000000000000000000000000000
5400004146201608551  00074154055000051635          000000010000000000036000000000000000000000000000000000000000000000000000000
5400004146201608551  00074151021020061459          000000010000000000035000000000000000000000000000000000000000000000000000000
5400004289631614551  00077151021020011459          000000010000000000035000000000000000000000000000000000000000000000000000000
5400004963915693551  00072256565000011260          000000040000000000176000000000000000000000000000000000000000000000000000000
5400004963915693551  0007225405500002882           000000010000000000026000000000000000000000000000000000000000000000000000000
5400004963915693551  00072254055000031706          000000010000000000045000000000000000000000000000000000000000000000000000000
5400004963915693551  00072254055000041694          000000010000000000320000000000000000000000000000000000000000000000000000000
5400005023719600551  0007475405500001855           000000040000000000184000000000000000000000000000000000000000000000000000000
5400005023719600551  0007475405500002829           000000010000000000028000000000000000000000000000000000000000000000000000000
5400005023719600551  0007475102102003972           000000010000000000005000000000000000000000000000000000000000000000000000000
5400005237735606551  00071854055000011092          000000010000000000132000000000000000000000000000000000000000000000000000000
5400005237735606551  0007185405500002586           000000010000000000076000000000000000000000000000000000000000000000000000000
5400005237735606551  00071854055000031570          000000010000000000235000000000000000000000000000000000000000000000000000000
5400005237735606551  00071854055000041681          000000010000000000042000000000000000000000000000000000000000000000000000000
5400005237735606551  00071854055000051018          000000020000000000126000000000000000000000000000000000000000000000000000000
5400005237735606551  0007185405500006920           000000010000000000032000000000000000000000000000000000000000000000000000000
5400005237735606551  00071854055000071686          000000010000000000126000000000000000000000000000000000000000000000000000000
5400005237735606551  0007185405500008819           000000010000000000026000000000000000000000000000000000000000000000000000000
5400005237735606551  0007185405500009535           000000010000000000204000000000000000000000000000000000000000000000000000000
5400005237735606551  0007185405500010642           000000010000000000118000000000000000000000000000000000000000000000000000000
5400005237735606551  0007185405500011855           000000040000000000184000000000000000000000000000000000000000000000000000000
5400005237735606551  0007185405500012829           000000010000000000028000000000000000000000000000000000000000000000000000000
5400005237735606551  00071854055000131560          000000010000000000238000000000000000000000000000000000000000000000000000000
5400005237735606551  00071854055000141601          000000010000000000053000000000000000000000000000000000000000000000000000000
5400005237735606551  00071851021020151658          000000050000000000035000000000000000000000000000000000000000000000000000000
5400005237735606551  00071851021020161459          000000010000000000035000000000000000000000000000000000000000000000000000000
5400005237735606551  0007185405500017655           000000010000000000034000000000000000000000000000000000000000000000000000000
5400005237735606551  0007185405500018790           000000010000000000044000000000000000000000000000000000000000000000000000000
5400005237735606551  0007185405500019637           000000010000000000068000000000000000000000000000000000000000000000000000000
5400005237735606551  0007185405500020524           000000010000000000065000000000000000000000000000000000000000000000000000000
5400005253169652551  0007525405500001915           000000030000000000132000000000000000000000000000000000000000000000000000000
5400005253169652551  0007525405500002829           000000010000000000028000000000000000000000000000000000000000000000000000000
5400005253169652551  0007525405500003802           000000010000000000386000000000000000000000000000000000000000000000000000000
5400005253169652551  0007525405500004710           000000010000000000099000000000000000000000000000000000000000000000000000000
5400005253169652551  00075254055000051003          000000010000000000078000000000000000000000000000000000000000000000000000000
5400005253169652551  00075254055000061316          000000010000000000029000000000000000000000000000000000000000000000000000000
5400005253169652551  00075254055000071278          000000010000000000008000000000000000000000000000000000000000000000000000000
5400005253169652551  00075251021020081660          000000040000000000028000000000000000000000000000000000000000000000000000000
5400005253169652551  0007525405500009790           000000010000000000044000000000000000000000000000000000000000000000000000000
5400005431583654551  00076254055000011734          000000010000000000887000000000000000000000000000000000000000000000000000000
5400005431583654551  00076254055000021696          000000010000000000039000000000000000000000000000000000000000000000000000000
5400005431583654551  00076254055000031736          000000010000000000105000000000000000000000000000000000000000000000000000000
5400005431583654551  00076254055000041731          000000010000000000272000000000000000000000000000000000000000000000000000000
5400005431583654551  0007625405500005513           000000020000000000496000000000000000000000000000000000000000000000000000000
5400005431583654551  0007625405500006509           000000010000000000034000000000000000000000000000000000000000000000000000000
5400005431583654551  00076254055000071595          000000020000000000132000000000000000000000000000000000000000000000000000000
5400005431583654551  00076251021020081459          000000010000000000035000000000000000000000000000000000000000000000000000000
5400006513144612551  0007615656500001887           000000035000000000154000000000000000000000000000000000000000000000000000000
5400006513144612551  0007615405500002745           000000010000000000035000000000000000000000000000000000000000000000000000000
5400006513144612551  00076154055000031706          000000010000000000048000000000000000000000000000000000000000000000000000000
5400006513144612551  00076154055000041504          000000010000000000010000000000000000000000000000000000000000000000000000000
5400006513144612551  00076151021020051459          000000010000000000035000000000000000000000000000000000000000000000000000000
5400007773826609551  00075156565000011260          000000030000000000132000000000000000000000000000000000000000000000000000000
5400007773826609551  0007515405500002882           000000010000000000028000000000000000000000000000000000000000000000000000000
5400007773826609551  0007515405500003655           000000010000000000035000000000000000000000000000000000000000000000000000000
5400008726348683551  0007295656500001887           000000045000000000198000000000000000000000000000000000000000000000000000000
5400008726348683551  0007295405500002745           000000010000000000034000000000000000000000000000000000000000000000000000000
5400008726348683551  00072954055000031441          000000010000000000046000000000000000000000000000000000000000000000000000000
5400008726348683551  0007295102102004972           000000010000000000005000000000000000000000000000000000000000000000000000000
5400008950380641551  0007545405500001998           000000020000000000152000000000000000000000000000000000000000000000000000000
5400009008835614551  00073954055000011712          000000010000000000479000000000000000000000000000000000000000000000000000000
5400009008835614551  00073954055000021713          000000010000000000479000000000000000000000000000000000000000000000000000000
5400009008835614551  00073954055000031708          000000020000000000152000000000000000000000000000000000000000000000000000000
5400009008835614551  00073954055000041707          000000020000000000816000000000000000000000000000000000000000000000000000000
5400009008835614551  00073954055000051711          000000020000000000196000000000000000000000000000000000000000000000000000000
5400009008835614551  0007395656500006887           000000045000000000198000000000000000000000000000000000000000000000000000000
5400009008835614551  0007395405500007882           000000010000000000026000000000000000000000000000000000000000000000000000000
5400009008835614551  00073954055000081710          000000010000000000068000000000000000000000000000000000000000000000000000000
5400009008835614551  00073954055000091709          000000010000000000036000000000000000000000000000000000000000000000000000000
5400010835151603551  0007485405500001826           000000030000000001167000000000000000000000000000000000000000000000000000000
5400010835151603551  00074851021020021459          000000010000000000035000000000000000000000000000000000000000000000000000000
5400011521426660551  00071954055000011406          000000010000000000698000000000000000000000000000000000000000000000000000000
5400011521426660551  00071951021020021660          000000020000000000036000000000000000000000000000000000000000000000000000000
5400011521426660551  00071951021020031459          000000010000000000035000000000000000000000000000000000000000000000000000000
5400011547034602551  00075554055000011187          000000020000000000416000000000000000000000000000000000000000000000000000000
5400011547034602551  0007555405500002942           000000010000000000178000000000000000000000000000000000000000000000000000000
5400011818958635551  00073554055000011697          000000010000000000754000000000000000000000000000000000000000000000000000000
5400011818958635551  0007355405500002915           000000030000000000132000000000000000000000000000000000000000000000000000000
5400011818958635551  0007355405500003829           000000010000000000034000000000000000000000000000000000000000000000000000000
5400011818958635551  00073554055000041349          000000010000000000036000000000000000000000000000000000000000000000000000000
5400011818958635551  00073554055000051606          000000020000000000370000000000000000000000000000000000000000000000000000000
5400011818958635551  00073554055000061262          000000010000000000158000000000000000000000000000000000000000000000000000000
5400011818958635551  0007355405500007765           000000020000000000764000000000000000000000000000000000000000000000000000000
5400011818958635551  00073554055000081467          000000010000000000045000000000000000000000000000000000000000000000000000000
5400013006665600551  00071554055000011406          000000010000000000567000000000000000000000000000000000000000000000000000000
5400013006665600551  00071551021020021459          000000010000000000035000000000000000000000000000000000000000000000000000000
5400013182759620551  0007435405500001916           000000050000000000200000000000000000000000000000000000000000000000000000000
5400013182759620551  0007435405500002745           000000010000000000036000000000000000000000000000000000000000000000000000000
5400013182759620551  00074354055000031494          000000010000000000048000000000000000000000000000000000000000000000000000000
5400016077118699551  0007375656500001887           000000030000000000132000000000000000000000000000000000000000000000000000000
5400016077118699551  0007375405500002882           000000010000000000026000000000000000000000000000000000000000000000000000000
5400016077118699551  0007375405500003857           000000010000000000019000000000000000000000000000000000000000000000000000000
5400016077118699551  0007375405500004801           000000010000000000059000000000000000000000000000000000000000000000000000000
5400016077118699551  0007375405500005710           000000010000000000104000000000000000000000000000000000000000000000000000000
5400016077118699551  00073754055000061139          000000010000000000056000000000000000000000000000000000000000000000000000000
5400016077118699551  00073754055000071701          000000020000000000268000000000000000000000000000000000000000000000000000000
5400016077118699551  0007375405500008509           000000020000000000068000000000000000000000000000000000000000000000000000000
5400016077118699551  0007375102102009972           000000010000000000006000000000000000000000000000000000000000000000000000000
5400016077118699551  00073751021020101459          000000010000000000035000000000000000000000000000000000000000000000000000000
5400019558074691551  0007575405500001633           000000030000000000174000000000000000000000000000000000000000000000000000000
5400019558074691551  0007575405500002829           000000010000000000034000000000000000000000000000000000000000000000000000000
5400019558074691551  00075754055000031607          000000010000000000054000000000000000000000000000000000000000000000000000000
5400020316399604551  0007605405500001915           000000030000000000132000000000000000000000000000000000000000000000000000000
5400020316399604551  0007605405500002829           000000010000000000028000000000000000000000000000000000000000000000000000000
5400020316399604551  0007605405500003655           000000010000000000034000000000000000000000000000000000000000000000000000000
5400020316399604551  00076054055000041054          000000010000000000016000000000000000000000000000000000000000000000000000000
5400020316399604551  00076054055000051737          000000010000000000066000000000000000000000000000000000000000000000000000000
5400020316399604551  00076054055000061647          000000020000000000084000000000000000000000000000000000000000000000000000000
5400020316399604551  00076754055000011184          000000010000000000022000000000000000000000000000000000000000000000000000000
5400020316399604551  00076754055000021183          000000010000000000028000000000000000000000000000000000000000000000000000000
5400020316399604551  00076754055000031181          000000010000000000020000000000000000000000000000000000000000000000000000000
5400020316399604551  00076754055000041182          000000020000000000036000000000000000000000000000000000000000000000000000000
5421532270000113551  01141814030600011560          000000010000000000151900000000000000000000000000000000020840000000000000000
5421532270000113551  0114181403060002711           000000010000000000897590000000000000000000000000000000000000000000000000000
5421532270000113551  01141814030600031470          000000010000000000040610000000000000000000000000000000004880000000000000000
5421532270000113551  0114181403060004612           000000010000000000051990000000000000000000000000000000006110000000000000000
5421532270000113551  01141814030600051675          000000010000000000052800000000000000000000000000000000005990000000000000000
5421532270000113551  01141814030600061470          000000010000000000040610000000000000000000000000000000004880000000000000000
5421532270000113551  01141814030600071676          000000010000000000072290000000000000000000000000000000012450000000000000000
5421532270000113551  01141814030600081677          000000010000000000180330000000000000000000000000000000023260000000000000000
5421532270000113551  01141814030600091678          000000010000000000559670000000000000000000000000000000000000000000000000000
5421532270000113551  0114181403060010520           000000010000000000147840000000000000000000000000000000000000000000000000000
5421532270000113551  0114181403060011642           000000010000000000074730000000000000000000000000000000008590000000000000000
5421532270000113551  01141814030600121679          000000010000000000147840000000000000000000000000000000019000000000000000000
5421532270000113551  01141814030600131562          000000010000000000110470000000000000000000000000000000000000000000000000000
5421532270000113551  01141814030600141680          000000010000000000017870000000000000000000000000000000000000000000000000000
5421532270000113551  0114181403060015586           000000010000000000054420000000000000000000000000000000005540000000000000000
5421532270000113551  0114181403060016588           000000010000000000017870000000000000000000000000000000000000000000000000000
5421532270000113551  01141814030600171681          000000010000000000028430000000000000000000000000000000000000000000000000000
5421532270000113551  01141814030600181682          000000010000000000085700000000000000000000000000000000010530000000000000000
5421532270000113551  01141814030600191683          000000010000000000044680000000000000000000000000000000000000000000000000000
5421532270000113551  01141814030600201684          000000010000000000046300000000000000000000000000000000000000000000000000000
5421532270000113551  01141814030600211685          000000010000000000099910000000000000000000000000000000009950000000000000000
5421532270000113551  0114181403060022535           000000010000000000153520000000000000000000000000000000019270000000000000000
5421532270000113551  01141814030600231686          000000010000000000093410000000000000000000000000000000000000000000000000000
5421532270000113551  0114181403060024924           000000010000000000025990000000000000000000000000000000000000000000000000000
5421532270000113551  01141814030600251687          000000010000000000023960000000000000000000000000000000000000000000000000000
5421532270000113551  0114181403060026802           000000010000000000243610000000000000000000000000000000029410000000000000000
5421532270000113551  01141814030600271688          000000010000000000046300000000000000000000000000000000005400000000000000000
5421532270000113551  01141814030600281689          000000010000000000046300000000000000000000000000000000003190000000000000000
5421532270000113551  0114181403060029797           000000010000000000116970000000000000000000000000000000008580000000000000000
5421532270000113551  01141814030600301213          000000020000000000246940000000000000000000000000000000030810000000000000000
5421532270000113551  01141814030600311690          000000020000000000320040000000000000000000000000000000039990000000000000000
5421532270000113551  01141814030600321691          000000010000000000145810000000000000000000000000000000011700000000000000000
5421532270000113551  0114181403060033971           000000020000000000108840000000000000000000000000000000011080000000000000000
5421532270000113551  0114181403060034810           000000010000000000089350000000000000000000000000000000010450000000000000000
5421532270000113551  0114181403060035790           000000040000000000115360000000000000000000000000000000000000000000000000000
5421532270000113551  01141814030600361268          000000010000000000026400000000000000000000000000000000002860000000000000000
5421532270000113551  01141814030600371510          000000010000000000028430000000000000000000000000000000004350000000000000000
5421532270000113551  0114181403060038736           000000020000000000045480000000000000000000000000000000004910000000000000000
5421532270000113551  01141814030600391112          000000010000000000218510000000000000000000000000000000032280000000000000000
5421532270000113551  0114181403060040924           000000010000000000025990000000000000000000000000000000000000000000000000000
5421532270000113551  01141814030600411692          000000010000000000058490000000000000000000000000000000005630000000000000000
5421532270000113551  01141814030600421693          000000010000000000009750000000000000000000000000000000001050000000000000000
5421532270000113551  01145514030600011696          000000010000000000034120000000000000000000000000000000000000000000000000000
5421532270000113551  01145514030600021406          000000010000000000386650000000000000000000000000000000052960000000000000000
5421532270000113551  01145514030600031697          000000010000000000486970000000000000000000000000000000063350000000000000000
5421532270000113551  01145514030600041694          000000020000000000368780000000000000000000000000000000016190000000000000000
5421532270000113551  0114551403060005856           000000010000000000095040000000000000000000000000000000010910000000000000000
5421532270000113551  01145514030600061695          000000010000000000219320000000000000000000000000000000015670000000000000000
5421532270000113551  01145514030600071698          000000010000000000117780000000000000000000000000000000008530000000000000000
5421532270000113551  01145514030600081699          000000010000000000100730000000000000000000000000000000010510000000000000000
5421532270000113551  01145514030600091102          000000010000000000137280000000000000000000000000000000000000000000000000000
5421532270000113551  0114551403060010908           000000010000000000315980000000000000000000000000000000042110000000000000000
5421532270000113551  01153314030600011167          000000010000000000014620000000000000000000764050000000001590000000000000000
5421532270000113551  0115331403060002519           000000010000000000037770000000000000000000764050000000005130000000000000000
5421532270000113551  0115331403060003829           000000050000000000117800000000000000000000764050000000015920000000000000000
5421532270000113551  01153314030600041268          000000020000000000052800000000000000000000764050000000005750000000000000000
5421532270000113551  01153314030600051510          000000020000000000056860000000000000000000764050000000007760000000000000000
5421532270000113551  0115331403060006801           000000010000000000032900000000000000000000764050000000002680000000000000000
5421532270000113551  0115331403060007652           000000010000000000040530000000000000000000764050000000004820000000000000000
5421532270000113551  0115331403060008653           000000010000000000013650000000000000000000764050000000001290000000000000000
5421532270000113551  01153314030600091253          000000010000000000080420000000000000000000764050000000009080000000000000000
5421532270000113551  0115331403060010574           000000010000000000095850000000000000000000764050000000001130000000000000000
5421532270000113551  01153314030600111700          000000010000000000054420000000000000000000764050000000000000000000000000000
5421532270000113551  01153314030600121003          000000010000000000059300000000000000000000764050000000005990000000000000000
5421532270000113551  01153314030600131701          000000020000000000203080000000000000000000764050000000000000000000000000000
5421532270000113551  01153314030600141702          000000010000000000053610000000000000000000764050000000005440000000000000000
5421532270000113551  0115331403060015579           000000010000000000052800000000000000000000764050000000000050000000000000000
5421532270000113551  01153314030600161703          000000010000000000037770000000000000000000764050000000000000000000000000000
5421532270000113551  0115331403060017710           000000010000000000076760000000000000000000764050000000000000000000000000000
5421532270000113551  0115331403060018765           000000020000000000566980000000000000000000764050000000077420000000000000000
5421532270000113551  0115331403060019507           000000020000000000047120000000000000000000764050000000004920000000000000000
5421532270000113551  01153314030600201704          000000020000000000051180000000000000000000764050000000004900000000000000000
5421532270000113551  01153314030600211606          000000020000000000268060000000000000000000764050000000028950000000000000000
5421532270000113551  01153314030600221705          000000020000000000219320000000000000000000764050000000026940000000000000000
5421532270000113551  01153314030600231036          000000010000000000486570000000000000000000764050000000071560000000000000000
5421532270000113551  01153314030600241262          000000010000000000121840000000000000000000764050000000015570000000000000000
5421532270000113551  0115331403060025597           000000020000000000110470000000000000000000764050000000017960000000000000000
5421532270000113551  01153314030600261706          000000020000000000061740000000000000000000764050000000006590000000000000000
5421532270000113551  01153314030600271055          000000010000000000045490000000000000000000764050000000005040000000000000000
5421532270000113551  0115331403060028893           000000010000000000044680000000000000000000764050000000005320000000000000000
5421532270000113551  01153314030600291707          000000020000000000617340000000000000000000764050000000000000000000000000000
5421532270000113551  01153314030600301708          000000020000000000113720000000001140000000764050000000012010000000000000000
5421532270000113551  01153314030600311709          000000010000000000019090000000000000000000764050000000000000000000000000000
5421532270000113551  01153314030600321710          000000010000000000051170000000000000000000764050000000007050000000000000000
5421532270000113551  01153314030600331711          000000020000000000149460000000000000000000764050000000016940000000000000000
5421532270000113551  0115331403060034772           000000040000000000688840000000000000000000764050000000097190000000000000000
5421532270000113551  01153314030600351712          000000010000000000364720000000000000000000764050000000025980000000000000000
5421532270000113551  01153314030600361713          000000010000000000364720000000000000000000764050000000025830000000000000000
5421532270000113551  0115331403060037621           000000010000000000046300000000000000000000764050000000006670000000000000000
5421532270000113551  01153314030600381714          000000010000000000053610000000000000000000764050000000005880000000000000000
5421532270000113551  0115331403060039909           000000010000000000730260000000000000000000764050000000000000000000000000000
5421532270000113551  01153314030600401715          000000010000000000013570000000000000000000764050000000001360000000000000000
5421532270000113551  01153314030600411626          000000010000000000160840000000000000000000764050000000019160000000000000000
5421532270000113551  01153314030600421716          000000010000000000033300000000000000000000764050000000003020000000000000000
5421532270000113551  01153314030600431717          000000020000000000031680000000000000000000764050000000003950000000000000000
5421532270000113551  0115331403060044790           000000040000000000115360000000000000000000764050000000000000000000000000000
5421532270000113551  01164714030600011181          000000010000000000013000000000000000000000764050000000000000000000000000000
5421532270000113551  01164714030600021182          000000020000000000021940000000000000000000764050000000000000000000000000000
5421532270000113551  01164714030600031183          000000010000000000019500000000000000000000764050000000000000000000000000000
5421532270000113551  01164714030600041184          000000010000000000015430000000000000000000764050000000000000000000000000000
5421532270000113551  0116471403060005696           000000010000000000094230000000000000000000764050000000013490000000000000000
5421532270000113551  0116471403060006826           000000020000000000528000000000000000000000764050000000068720000000000000000
5421532270000113551  0116471403060007826           000000010000000000304610000000000000000000764050000000034360000000000000000
5421532270000113551  0116471403060008765           000000020000000000566980000000000000000000764050000000077420000000000000000
5421532270000113551  0116471403060009802           000000010000000000251810000000000000000000764050000000031790000000000000000
5421532270000113551  0116471403060010710           000000010000000000076760000000000000000000764050000000000000000000000000000
5421532270000113551  01164714030600111728          000000010000000000054420000000000000000000764050000000005510000000000000000
5421532270000113551  01164714030600121729          000000010000000000054420000000000000000000764050000000006120000000000000000
5421532270000113551  01164714030600131730          000000010000000000009750000000000000000000764050000000000770000000000000000
5421532270000113551  01164714030600141731          000000010000000000194950000000000000000000764050000000000000000000000000000
5421532270000113551  01164714030600151732          000000020000000000307040000000000000000000764050000000021810000000000000000
5421532270000113551  0116471403060016942           000000010000000000129970000000000000000000764050000000015800000000000000000
5421532270000113551  01164714030600171733          000000020000000000096660000000000000000000764050000000014640000000000000000
5421532270000113551  0116471403060018683           000000020000000000090980000000000000000000764050000000006110000000000000000
5421532270000113551  01164714030600191734          000000010000000000664460000000000000000000764050000000081590000000000000000
5421532270000113551  01164714030600201735          000000010000000000022740000000000000000000764050000000000000000000000000000
5421532270000113551  01164714030600211736          000000010000000000078790000000000000000000764050000000009520000000000000000
5421532270000113551  01164714030600221737          000000010000000000048330000000000000000000764050000000005420000000000000000
5421532270000113551  01164714030600231647          000000020000000000058480000000000000000000764050000000005750000000000000000
5421532270000113551  01164714030600241494          000000010000000000038180000000000000000000764050000000005170000000000000000
5421532270000113551  01164714030600251268          000000020000000000056040000000000000000000764050000000005750000000000000000
5421532270000113551  0116471403060026829           000000040000000000094240000000000000000000764050000000014000000000000000000
5421532270000113551  01164714030600271024          000000010000000000035740000000000000000000764050000000004330000000000000000
5421532270000113551  01164714030600281738          000000010000000000121030000000000000000000764050000000015010000000000000000
5421532270000113551  0116471403060029602           000000010000000000199010000000000000000000764050000000020490000000000000000
5421532270000113551  01164714030600301739          000000010000000000071480000000000000000000764050000000008460000000000000000
5421532270000113551  01164714030600311740          000000010000000000024370000000000000000000764050000000001830000000000000000
5421532270000113551  01164714030600321741          000000010000000000064580000000000000000000764050000000007750000000000000000
5421532270000113551  0116471403060033504           000000020000000000027620000000000000000000764050000000002960000000000000000
5421532270000113551  01164714030600341243          000000020000000000162300000000000000000000764050000000016460000000000000000
5421532270000113551  01164714030600351742          000000020000000000558860000000000000000000764050000000069300000000000000000
5421532270000113551  01164714030600361348          000000010000000000028430000000000000000000764050000000004620000000000000000
5421532270000113551  0116471403060037768           000000010000000000066610000000000000000000764050000000011900000000000000000
5421532270000113551  0116471403060038784           000000010000000000211200000000000000000000764050000000030470000000000000000
5400022228209600551  0007425405500001509           000000020000000000068000000000000000000000000000000000000000000000000000000
5400022228209600551  0007425405500002790           000000020000000000088000000000000000000000000000000000000000000000000000000
5400022228209600551  00074251021020031558          000000020000000000052000000000000000000000000000000000000000000000000000000
5400024324299668551  00072756565000011260          000000035000000000154000000000000000000000000000000000000000000000000000000
5400024324299668551  0007275405500002745           000000010000000000034000000000000000000000000000000000000000000000000000000
5400024324299668551  00072754055000031354          000000010000000000046000000000000000000000000000000000000000000000000000000
5400024479659668551  0007245405500001908           000000010000000000428000000000000000000000000000000000000000000000000000000
5400024479659668551  00072454055000021102          000000010000000000192000000000000000000000000000000000000000000000000000000
5400024479659668551  0007245102102003972           000000010000000000018000000000000000000000000000000000000000000000000000000
5400024479659668551  0007245405500004748           000000005000000000020000000000000000000000000000000000000000000000000000000
5400029267838172551  00071454055000011653          000000010000000000072000000000000000000000000000000000000000000000000000000
5400029866979687551  00074456565000011260          000000045000000000198000000000000000000000000000000000000000000000000000000
5400029866979687551  00074454055000021053          000000010000000000036000000000000000000000000000000000000000000000000000000
5400029866979687551  00074454055000031510          000000010000000000038000000000000000000000000000000000000000000000000000000
5400029866979687551  00074454055000041278          000000010000000000016000000000000000000000000000000000000000000000000000000
5400040085678600551  0007565405500001633           000000035000000000203000000000000000000000000000000000000000000000000000000
5400040085678600551  0007565405500002745           000000010000000000035000000000000000000000000000000000000000000000000000000
5400040085678600551  00075654055000031634          000000010000000000058000000000000000000000000000000000000000000000000000000
5400040182606600551  0007385405500001916           000000040000000000160000000000000000000000000000000000000000000000000000000
5400040182606600551  0007385405500002745           000000010000000000035000000000000000000000000000000000000000000000000000000
5400040182606600551  00073854055000031055          000000010000000000072000000000000000000000000000000000000000000000000000000
5400040182606600551  0007385102102004972           000000010000000000005000000000000000000000000000000000000000000000000000000
5400040182606600551  00073851021020051459          000000010000000000035000000000000000000000000000000000000000000000000000000
5400040182606600551  00073854055000061521          000000010000000000012000000000000000000000000000000000000000000000000000000
5400040352340606551  0007465405500001926           000000010000000000196000000000000000000000000000000000000000000000000000000
5400040352340606551  0007465405500002711           000000010000000001127000000000000000000000000000000000000000000000000000000
5400040352340606551  0007465656500003887           000000045000000000198000000000000000000000000000000000000000000000000000000
5400040352340606551  00074654055000041053          000000010000000000036000000000000000000000000000000000000000000000000000000
5400040352340606551  00074654055000051510          000000010000000000036000000000000000000000000000000000000000000000000000000
5400040352340606551  0007465405500006779           000000010000000000029000000000000000000000000000000000000000000000000000000
5400040352340606551  00074654055000071611          000000010000000000034000000000000000000000000000000000000000000000000000000
5400040352340606551  0007465405500008509           000000020000000000068000000000000000000000000000000000000000000000000000000
5400040352340606551  0007465405500009790           000000010000000000044000000000000000000000000000000000000000000000000000000
5400040352340606551  00074651021020101459          000000010000000000035000000000000000000000000000000000000000000000000000000
5400040352340606551  00074651021020111658          000000010000000000007000000000000000000000000000000000000000000000000000000
5400040352340606551  00074651021020121558          000000020000000000048000000000000000000000000000000000000000000000000000000
5400040352340606551  00074654055000131505          000000010000000000012000000000000000000000000000000000000000000000000000000
5400041971000604551  0007495405500001696           000000010000000000139000000000000000000000000000000000000000000000000000000
5400042026369615551  00077456565000011260          000000040000000000176000000000000000000000000000000000000000000000000000000
5400042026369615551  00077454055000021563          000000010000000000028000000000000000000000000000000000000000000000000000000
5400042026369615551  00077454055000031575          000000010000000000031000000000000000000000000000000000000000000000000000000
5400042026369615551  0007745405500004789           000000010000000000189000000000000000000000000000000000000000000000000000000
5400042026369615551  0007745405500005869           000000010000000000517000000000000000000000000000000000000000000000000000000
5400042026369615551  0007745102102006972           000000010000000000016000000000000000000000000000000000000000000000000000000
5400042026369615551  0007745405500007509           000000020000000000068000000000000000000000000000000000000000000000000000000
5400042026369615551  0007745405500008937           000000020000000000156000000000000000000000000000000000000000000000000000000
5400042026369615551  0007745405500009790           000000010000000000044000000000000000000000000000000000000000000000000000000
5400042026369615551  00077451021020101459          000000010000000000035000000000000000000000000000000000000000000000000000000
5443648971005386551  26900411020000011718          000000120000000000166800000000000000000000173030000000000000000000000001800
5443648971005386551  26900411020000021719          000000200000000000019800000000000000000000193570000000000000000000000001800
5443648971005386551  26900411020000031720          000000010000000000004990000000000000000000198750000000000000000000000001800
5443648971005386551  26900411020000041721          000000120000000000155880000000000000000000360450000000000000000000000001800
5443648971005386551  26900411020000051722          000000200000000000044200000000000000000000406300000000000000000000000001800
5443648971005386551  26900411020000061723          000000200000000000147200000000000000000000558990000000000000000000000001800
5443648971005386551  26900411020000071724          000000010000000000059900000000000000000000621130000000000000000000000001800
5443648971005386551  26900411020000081725          000000010000000000053990000000000000000000677140000000000000000000000001800
5443648971005386551  26900411020000091726          000001000000000000032000000000000000000000710320000000000000000000000001800
5443648971005386551  26900411020000101727          000000020000000000051800000000000000000000764050000000000000000000000001800
5400043676375653551  0007345405500001855           000000035000000000161000000000000000000000000000000000000000000000000000000
5400043676375653551  0007345405500002745           000000010000000000035000000000000000000000000000000000000000000000000000000
5400043676375653551  0007345405500003621           000000010000000000052000000000000000000000000000000000000000000000000000000
5400043676375653551  0007345102102004972           000000010000000000016000000000000000000000000000000000000000000000000000000
5400045534942649551  00072056565000011260          000000050000000000220000000000000000000000000000000000000000000000000000000
5400045534942649551  00072054055000021053          000000010000000000034000000000000000000000000000000000000000000000000000000
5400045534942649551  00072054055000031674          000000010000000000074000000000000000000000000000000000000000000000000000000
5400045534942649551  0007205102102004972           000000010000000000016000000000000000000000000000000000000000000000000000000
5400047980303687551  0007685656500001887           000000035000000000154000000000000000000000000000000000000000000000000000000
5400047980303687551  0007685405500002745           000000010000000000035000000000000000000000000000000000000000000000000000000
5400048674621600551  0007255656500001887           000000035000000000154000000000000000000000000000000000000000000000000000000
5400048674621600551  0007255405500002829           000000010000000000034000000000000000000000000000000000000000000000000000000
5400048674621600551  0007255405500003640           000000010000000000052000000000000000000000000000000000000000000000000000000
5400048674621600551  0007255102102004972           000000010000000000005000000000000000000000000000000000000000000000000000000
5400048674621600551  00072554055000051466          000000010000000000038000000000000000000000000000000000000000000000000000000
5400048674621600551  0007255405500006780           000000010000000000029000000000000000000000000000000000000000000000000000000
5400049196227672551  00076554055000011678          000000010000000000842000000000000000000000000000000000000000000000000000000
5400049403745649551  0007365656500001887           000000035000000000154000000000000000000000000000000000000000000000000000000
5400049403745649551  0007365405500002745           000000010000000000038000000000000000000000000000000000000000000000000000000
5400049403745649551  00073654055000031634          000000010000000000055000000000000000000000000000000000000000000000000000000
5400049403745649551  0007365102102004972           000000010000000000005000000000000000000000000000000000000000000000000000000
5400049403745649551  00073654055000051504          000000020000000000024000000000000000000000000000000000000000000000000000000
5400052672409749551  00077554055000011713          000000010000000000395000000000000000000000000000000000000000000000000000000
5400052672409749551  00077554055000021712          000000010000000000395000000000000000000000000000000000000000000000000000000
5400052672409749551  00077554055000031573          000000020000000000752000000000000000000000000000000000000000000000000000000
5400052672409749551  00077554055000041104          000000010000000000167000000000000000000000000000000000000000000000000000000
5400052672409749551  00077554055000051708          000000020000000000150000000000000000000000000000000000000000000000000000000
5400055024491653551  00076956565000011260          000000035000000000154000000000000000000000000000000000000000000000000000000
5400055024491653551  0007695405500002680           000000010000000000038000000000000000000000000000000000000000000000000000000
5400055024491653551  0007695405500003893           000000010000000000058000000000000000000000000000000000000000000000000000000
5400057654891687551  0007535405500001745           000000010000000000036000000000000000000000000000000000000000000000000000000
5400057654891687551  0007535405500002640           000000010000000000054000000000000000000000000000000000000000000000000000000
5400057654891687551  00075354055000031687          000000010000000000038000000000000000000000000000000000000000000000000000000
5400057654891687551  0007535102102004972           000000010000000000005000000000000000000000000000000000000000000000000000000
5400057654891687551  00075354055000051556          000000020000000000130000000000000000000000000000000000000000000000000000000
5400059332085668551  0007325405500001504           000000020000000000044000000000000000000000000000000000000000000000000000000
5400059332085668551  00073254055000021243          000000020000000000216000000000000000000000000000000000000000000000000000000
5400059332085668551  0007325405500003793           000000020000000000730000000000000000000000000000000000000000000000000000000
5400060286490668551  00073354055000011521          000000020000000000024000000000000000000000000000000000000000000000000000000
5400060286490668551  00073351021020021659          000000010000000000007000000000000000000000000000000000000000000000000000000
5460563731000762551  0007165656500001887           000000045000000000198000000000000000000000000000000000000000000000000000000
5460563731000762551  0007165405500002938           000000010000000000038000000000000000000000000000000000000000000000000000000
5460563731000762551  0007165405500003621           000000010000000000069000000000000000000000000000000000000000000000000000000
5460563731000762551  00071654055000041629          000000010000000000036000000000000000000000000000000000000000000000000000000
5400060798998687551  0007665656500001886           000000030000000000132000000000000000000000000000000000000000000000000000000
5400060798998687551  0007665405500002829           000000010000000000028000000000000000000000000000000000000000000000000000000
5400060798998687551  0007665405500003736           000000010000000000028000000000000000000000000000000000000000000000000000000
5400060798998687551  0007665405500004779           000000010000000000029000000000000000000000000000000000000000000000000000000
5400060798998687551  0007665102102005972           000000010000000000005000000000000000000000000000000000000000000000000000000
5400060798998687551  0007665405500006509           000000020000000000072000000000000000000000000000000000000000000000000000000
5400061343170630551  00073054055000011016          000000010000000000069000000000000000000000000000000000000000000000000000000
5400061343170630551  0007305405500002971           000000010000000000079000000000000000000000000000000000000000000000000000000
5400061343170630551  00073054055000031253          000000010000000000118000000000000000000000000000000000000000000000000000000
5400061343170630551  00073051021020041658          000000050000000000035000000000000000000000000000000000000000000000000000000
5400061343170630551  0007305405500005790           000000010000000000044000000000000000000000000000000000000000000000000000000
5400063150956668551  0007505656500001887           000000040000000000176000000000000000000000000000000000000000000000000000000
5400063150956668551  0007505405500002829           000000010000000000036000000000000000000000000000000000000000000000000000000
5400063150956668551  00075054055000031268          000000010000000000045000000000000000000000000000000000000000000000000000000
5400063150956668551  0007505405500004765           000000020000000000780000000000000000000000000000000000000000000000000000000
5400063150956668551  00075054055000051606          000000020000000000364000000000000000000000000000000000000000000000000000000
5400079273548687551  00074054055000011714          000000010000000000078000000000000000000000000000000000000000000000000000000
