10336213140001600034450680073 CRISTINA ISABEL DE CAMPOS          Belo Horizonte                MG31999760132025040120250430331
11Rua Caconde                       00875                      Renascença     31130510VINICIUS MURTA NERY         031934225098
5000006329909610ISENTO        20250401MG551  0007765656P000000001320000000000000000000000000000000000000000000000000132000000N
5000006329909610ISENTO        20250401MG551  0007765405P000000000800000000000000000000000000000000000000000000000000115000000N
5000006329909610ISENTO        20250401MG551  0007765102P000000000050000000000000000000000000000000000000000000000000005000000N
5060563731000762ISENTO        20250402MG551  0007775405P000000002630000000000000000000000000000000000000000000000000836000000N
5060563731000762ISENTO        20250402MG551  0007775102P000000000350000000000000000000000000000000000000000000000000035000000N
5000037845454249ISENTO        20250410MG551  0007785405P000000001740000000000000000000000000000000000000000000000000174000000N
5000005500533606ISENTO        20250411MG551  0007795405P000000004520000000000000000000000000000000000000000000000000452000000N
5000029267838172ISENTO        20250423MG551  0007805405P000000002950000000000000000000000000000000000000000000000001017000000N
5000029267838172ISENTO        20250423MG551  0007805102P000000000130000000000000000000000000000000000000000000000000019000000N
5065139743000192ISENTO        20250425MG551  0007895405P000000010570000000000000000000000000000000000000000000000004056000000N
5065139743000192ISENTO        20250425MG551  0007895102P000000000350000000000000000000000000000000000000000000000000035000000N
5000011287241620ISENTO        20250423MG551  0007815656P000000001320000000000000000000000000000000000000000000000000132000000N
5000011287241620ISENTO        20250423MG551  0007815405P000000001280000000000000000000000000000000000000000000000000282000000N
5000011287241620ISENTO        20250423MG551  0007815102P000000000060000000000000000000000000000000000000000000000000006000000N
5000005237735606ISENTO        20250429MG551  0007915405P000000011320000000000000000000000000000000000000000000000002268000000N
5065139743000192ISENTO        20250425MG551  0007905405P000000009090000000000000000000000000000000000000000000000002643000000N
5000000961720611ISENTO        20250423MG551  0007825405P000000001600000000000000000000000000000000000000000000000000160000000N
5000000961720611ISENTO        20250423MG551  0007825102P000000000520000000000000000000000000000000000000000000000000092000000N
5000029745802620ISENTO        20250423MG551  0007835405P000000006200000000000000000000000000000000000000000000000001288000000N
5000091577187504ISENTO        20250430MG551  0008055405P000000003300000000000000000000000000000000000000000000000000906000000N
5000091577187504ISENTO        20250430MG551  0008055656P000000001760000000000000000000000000000000000000000000000000176000000N
5000091577187504ISENTO        20250430MG551  0008055102P000000001140000000000000000000000000000000000000000000000000267000000N
5000027533425634ISENTO        20250423MG551  0007845405P000000012190000000000000000000000000000000000000000000000008782000000N
5000027533425634ISENTO        20250423MG551  0007845102P000000000350000000000000000000000000000000000000000000000000035000000N
5000008527855690ISENTO        20250429MG551  0007925405P000000002450000000000000000000000000000000000000000000000000755000000N
5000008527855690ISENTO        20250429MG551  0007925102P000000000080000000000000000000000000000000000000000000000000008000000N
5000007850812670ISENTO        20250423MG551  0007855405P000000012080000000000000000000000000000000000000000000000006212000000N
5000007850812670ISENTO        20250423MG551  0007855102P000000000350000000000000000000000000000000000000000000000000035000000N
5000054994411620ISENTO        20250429MG551  0007935102P000000001060000000000000000000000000000000000000000000000000219000000N
5000054994411620ISENTO        20250429MG551  0007935656P000000001320000000000000000000000000000000000000000000000000132000000N
5000054994411620ISENTO        20250429MG551  0007935405P000000001480000000000000000000000000000000000000000000000000389000000N
5000052954366249ISENTO        20250423MG551  0007865656P000000001540000000000000000000000000000000000000000000000000154000000N
5000052954366249ISENTO        20250423MG551  0007865405P000000000470000000000000000000000000000000000000000000000000075000000N
5000052954366249ISENTO        20250423MG551  0007865102P000000000050000000000000000000000000000000000000000000000000005000000N
5000045660220649ISENTO        20250430MG551  0008065656P000000001320000000000000000000000000000000000000000000000000132000000N
5000045660220649ISENTO        20250430MG551  0008065405P000000014300000000000000000000000000000000000000000000000003257000000N
5000045660220649ISENTO        20250430MG551  0008065102P000000000350000000000000000000000000000000000000000000000000035000000N
5000008726348683ISENTO        20250429MG551  0007945405P000000012580000000000000000000000000000000000000000000000006755000000N
5000098022245615ISENTO        20250423MG551  0007875656P000000001540000000000000000000000000000000000000000000000000154000000N
5000098022245615ISENTO        20250423MG551  0007875405P000000000470000000000000000000000000000000000000000000000000075000000N
5000098022245615ISENTO        20250423MG551  0007875102P000000000050000000000000000000000000000000000000000000000000005000000N
5000039189627849ISENTO        20250423MG551  0007885405P000000006140000000000000000000000000000000000000000000000001453000000N
5000039189627849ISENTO        20250423MG551  0007885656P000000001980000000000000000000000000000000000000000000000000198000000N
5000039189627849ISENTO        20250423MG551  0007885102P000000000050000000000000000000000000000000000000000000000000005000000N
5000014014050610ISENTO        20250429MG551  0007955656P000000001610000000000000000000000000000000000000000000000000161000000N
5000014014050610ISENTO        20250429MG551  0007955405P000000000580000000000000000000000000000000000000000000000000086000000N
5000014014050610ISENTO        20250429MG551  0007955102P000000001050000000000000000000000000000000000000000000000000229000000N
5000032094825604ISENTO        20250430MG551  0008075405P000000005430000000000000000000000000000000000000000000000000543000000N
5000002958893650ISENTO        20250430MG551  0008085405P000000003960000000000000000000000000000000000000000000000001386000000N
5000002958893650ISENTO        20250430MG551  0008085102P000000000420000000000000000000000000000000000000000000000000049000000N
5000085109908672ISENTO        20250429MG551  0007965405P000000005910000000000000000000000000000000000000000000000001452000000N
5000045175942620ISENTO        20250429MG551  0007975656P000000001760000000000000000000000000000000000000000000000000176000000N
5000045175942620ISENTO        20250429MG551  0007975405P000000000770000000000000000000000000000000000000000000000000105000000N
5000080957145691ISENTO        20250429MG551  0007985405P000000000890000000000000000000000000000000000000000000000000089000000N
5000088263452600ISENTO        20250429MG551  0007995405P000000001370000000000000000000000000000000000000000000000000261000000N
5000004621598686ISENTO        20250430MG551  0008095405P000000002910000000000000000000000000000000000000000000000000697000000N
5000004621598686ISENTO        20250430MG551  0008095102P000000000350000000000000000000000000000000000000000000000000035000000N
5000023018518691ISENTO        20250429MG551  0008005405P000000004350000000000000000000000000000000000000000000000000971000000N
5000023018518691ISENTO        20250429MG551  0008005102P000000000350000000000000000000000000000000000000000000000000035000000N
5000020316399604ISENTO        20250429MG551  0008015102P000000000100000000000000000000000000000000000000000000000000010000000N
5000020316399604ISENTO        20250429MG551  0008015405P000000000140000000000000000000000000000000000000000000000000014000000N
5000007850812670ISENTO        20250429MG551  0008025656P000000001380000000000000000000000000000000000000000000000000138000000N
5000007850812670ISENTO        20250429MG551  0008025405P000000000280000000000000000000000000000000000000000000000000028000000N
5000007850812670ISENTO        20250429MG551  0008025102P000000000400000000000000000000000000000000000000000000000000045000000N
5000000238909670ISENTO        20250430MG551  0008105656P000000001540000000000000000000000000000000000000000000000000154000000N
5000000238909670ISENTO        20250430MG551  0008105405P000000000480000000000000000000000000000000000000000000000000076000000N
5000000238909670ISENTO        20250430MG551  0008105102P000000000400000000000000000000000000000000000000000000000000045000000N
5000007790176684ISENTO        20250429MG551  0008035405P000000002880000000000000000000000000000000000000000000000000882000000N
5000006329909610ISENTO        20250430MG551  0008115405P000000003760000000000000000000000000000000000000000000000000986000000N
5000047980303687ISENTO        20250429MG551  0008045405P000000003050000000000000000000000000000000000000000000000000749000000N
5000059985410653ISENTO        20250430MG551  0008125405P000000009440000000000000000000000000000000000000000000000003893000000N
5000059985410653ISENTO        20250430MG551  0008125102P000000000280000000000000000000000000000000000000000000000000028000000N
50436489710053861312885600405 20250407MG551  2719881102T000000004604900000000460490000000008289000000000000000000000000001800N
500773014400049543962490019   20250408MG551  0038991403T000000004982200000000000000000000000000000000000000000000000000000000N
500773014400049543962490019   20250408MG551  0038991102T000000004371600000000437150000000007868000000000000000000000000001800N
50215322700001130624775200061 20250411MG551  0118781403T000000047935700000000000000000000000000000000000000000000000000000000N
50215322700001130624775200061 20250404MG551  0117721403T000000034373000000000000000000000000000000000000000000000000000000000N
50307880730001500032196800031 20250403MG551  0976921102T000000000536000000000053600000000000964000000000000000000000000001800N
50307880730001500032196800031 20250403MG551  0976921403T000000000708000000000000000000000000000000000000000000000000000000000N
50307880730001500032196800031 20250403MG551  0976925655T000000010550400000000000000000000000000000000000000000000000000000000N
50215322700001130624775200061 20250424MG551  0120041403T000000066635500000000000000000000000000000000000000000000000000000000N
50215322700001130624775200061 20250430MG551  0120971403T000000048277200000000000000000000000000000000000000000000000000000000N
5100006329909610ISENTO        20250401MG1  00077651020000000000000000000000000000000000000000000000000000                    N
5100006329909610ISENTO        20250401MG1  00077654050000000000000000000000000000000000000000000000000000                    N
5100006329909610ISENTO        20250401MG1  00077656560000000000000000000000000000000000000000000000000000                    N
5160563731000762ISENTO        20250402MG1  00077751020000000000000000000000000000000000000000000000000000                    N
5160563731000762ISENTO        20250402MG1  00077754050000000000000000000000000000000000000000000000000000                    N
51307880730001500032196800031 20250403MG1  09769256550000000000000000000000000000000000000000000000000000                    N
51307880730001500032196800031 20250403MG1  09769214030000000000000000000000000000000000000000000000000000                    N
51307880730001500032196800031 20250403MG1  09769211020000000000000000000000000000000000000000000000000000                    N
51215322700001130624775200061 20250404MG1  01177214030000000000000000000000000000000000000000000000000000                    N
51436489710053861312885600405 20250407MG1  27198811020000000000000000000000000000000000000000000000000000                    N
510773014400049543962490019   20250408MG1  00389911020000000000000000000000000000000000000000000000000000                    N
510773014400049543962490019   20250408MG1  00389914030000000000000000000000000000000000000000000000000000                    N
5100037845454249ISENTO        20250410MG1  00077854050000000000000000000000000000000000000000000000000000                    N
51215322700001130624775200061 20250411MG1  01187814030000000000000000000000000000000000000000000000000000                    N
5100005500533606ISENTO        20250411MG1  00077954050000000000000000000000000000000000000000000000000000                    N
5100029267838172ISENTO        20250423MG1  00078051020000000000000000000000000000000000000000000000000000                    N
5100029267838172ISENTO        20250423MG1  00078054050000000000000000000000000000000000000000000000000000                    N
5100011287241620ISENTO        20250423MG1  00078156560000000000000000000000000000000000000000000000000000                    N
5100011287241620ISENTO        20250423MG1  00078154050000000000000000000000000000000000000000000000000000                    N
5100011287241620ISENTO        20250423MG1  00078151020000000000000000000000000000000000000000000000000000                    N
5100000961720611ISENTO        20250423MG1  00078254050000000000000000000000000000000000000000000000000000                    N
5100000961720611ISENTO        20250423MG1  00078251020000000000000000000000000000000000000000000000000000                    N
5100029745802620ISENTO        20250423MG1  00078354050000000000000000000000000000000000000000000000000000                    N
5100027533425634ISENTO        20250423MG1  00078451020000000000000000000000000000000000000000000000000000                    N
5100027533425634ISENTO        20250423MG1  00078454050000000000000000000000000000000000000000000000000000                    N
5100007850812670ISENTO        20250423MG1  00078551020000000000000000000000000000000000000000000000000000                    N
5100007850812670ISENTO        20250423MG1  00078554050000000000000000000000000000000000000000000000000000                    N
5100052954366249ISENTO        20250423MG1  00078651020000000000000000000000000000000000000000000000000000                    N
5100052954366249ISENTO        20250423MG1  00078656560000000000000000000000000000000000000000000000000000                    N
5100052954366249ISENTO        20250423MG1  00078654050000000000000000000000000000000000000000000000000000                    N
5100098022245615ISENTO        20250423MG1  00078751020000000000000000000000000000000000000000000000000000                    N
5100098022245615ISENTO        20250423MG1  00078754050000000000000000000000000000000000000000000000000000                    N
5100098022245615ISENTO        20250423MG1  00078756560000000000000000000000000000000000000000000000000000                    N
5100039189627849ISENTO        20250423MG1  00078851020000000000000000000000000000000000000000000000000000                    N
5100039189627849ISENTO        20250423MG1  00078854050000000000000000000000000000000000000000000000000000                    N
5100039189627849ISENTO        20250423MG1  00078856560000000000000000000000000000000000000000000000000000                    N
51215322700001130624775200061 20250424MG1  01200414030000000000000000000000000000000000000000000000000000                    N
5165139743000192ISENTO        20250425MG1  00078951020000000000000000000000000000000000000000000000000000                    N
5165139743000192ISENTO        20250425MG1  00078954050000000000000000000000000000000000000000000000000000                    N
5165139743000192ISENTO        20250425MG1  00079054050000000000000000000000000000000000000000000000000000                    N
5100005237735606ISENTO        20250429MG1  00079154050000000000000000000000000000000000000000000000000000                    N
5100008527855690ISENTO        20250429MG1  00079251020000000000000000000000000000000000000000000000000000                    N
5100008527855690ISENTO        20250429MG1  00079254050000000000000000000000000000000000000000000000000000                    N
5100054994411620ISENTO        20250429MG1  00079354050000000000000000000000000000000000000000000000000000                    N
5100054994411620ISENTO        20250429MG1  00079356560000000000000000000000000000000000000000000000000000                    N
5100054994411620ISENTO        20250429MG1  00079351020000000000000000000000000000000000000000000000000000                    N
5100008726348683ISENTO        20250429MG1  00079454050000000000000000000000000000000000000000000000000000                    N
5100014014050610ISENTO        20250429MG1  00079556560000000000000000000000000000000000000000000000000000                    N
5100014014050610ISENTO        20250429MG1  00079554050000000000000000000000000000000000000000000000000000                    N
5100014014050610ISENTO        20250429MG1  00079551020000000000000000000000000000000000000000000000000000                    N
5100085109908672ISENTO        20250429MG1  00079654050000000000000000000000000000000000000000000000000000                    N
5100045175942620ISENTO        20250429MG1  00079754050000000000000000000000000000000000000000000000000000                    N
5100045175942620ISENTO        20250429MG1  00079756560000000000000000000000000000000000000000000000000000                    N
5100080957145691ISENTO        20250429MG1  00079854050000000000000000000000000000000000000000000000000000                    N
5100088263452600ISENTO        20250429MG1  00079954050000000000000000000000000000000000000000000000000000                    N
5100023018518691ISENTO        20250429MG1  00080051020000000000000000000000000000000000000000000000000000                    N
5100023018518691ISENTO        20250429MG1  00080054050000000000000000000000000000000000000000000000000000                    N
5100020316399604ISENTO        20250429MG1  00080154050000000000000000000000000000000000000000000000000000                    N
5100020316399604ISENTO        20250429MG1  00080151020000000000000000000000000000000000000000000000000000                    N
5100007850812670ISENTO        20250429MG1  00080251020000000000000000000000000000000000000000000000000000                    N
5100007850812670ISENTO        20250429MG1  00080254050000000000000000000000000000000000000000000000000000                    N
5100007850812670ISENTO        20250429MG1  00080256560000000000000000000000000000000000000000000000000000                    N
5100007790176684ISENTO        20250429MG1  00080354050000000000000000000000000000000000000000000000000000                    N
5100047980303687ISENTO        20250429MG1  00080454050000000000000000000000000000000000000000000000000000                    N
51215322700001130624775200061 20250430MG1  01209714030000000000000000000000000000000000000000000000000000                    N
5100091577187504ISENTO        20250430MG1  00080551020000000000000000000000000000000000000000000000000000                    N
5100091577187504ISENTO        20250430MG1  00080556560000000000000000000000000000000000000000000000000000                    N
5100091577187504ISENTO        20250430MG1  00080554050000000000000000000000000000000000000000000000000000                    N
5100045660220649ISENTO        20250430MG1  00080656560000000000000000000000000000000000000000000000000000                    N
5100045660220649ISENTO        20250430MG1  00080654050000000000000000000000000000000000000000000000000000                    N
5100045660220649ISENTO        20250430MG1  00080651020000000000000000000000000000000000000000000000000000                    N
5100032094825604ISENTO        20250430MG1  00080754050000000000000000000000000000000000000000000000000000                    N
5100002958893650ISENTO        20250430MG1  00080854050000000000000000000000000000000000000000000000000000                    N
5100002958893650ISENTO        20250430MG1  00080851020000000000000000000000000000000000000000000000000000                    N
5100004621598686ISENTO        20250430MG1  00080951020000000000000000000000000000000000000000000000000000                    N
5100004621598686ISENTO        20250430MG1  00080954050000000000000000000000000000000000000000000000000000                    N
5100000238909670ISENTO        20250430MG1  00081051020000000000000000000000000000000000000000000000000000                    N
5100000238909670ISENTO        20250430MG1  00081054050000000000000000000000000000000000000000000000000000                    N
5100000238909670ISENTO        20250430MG1  00081056560000000000000000000000000000000000000000000000000000                    N
5100006329909610ISENTO        20250430MG1  00081154050000000000000000000000000000000000000000000000000000                    N
5100059985410653ISENTO        20250430MG1  00081251020000000000000000000000000000000000000000000000000000                    N
5100059985410653ISENTO        20250430MG1  00081254050000000000000000000000000000000000000000000000000000                    N
5300006329909610ISENTO        20250401MG551  0007765656P000000000000000000000000000000000000000N                              
5300006329909610ISENTO        20250401MG551  0007765405P000000000000000000000000000000000000000N                              
5300006329909610ISENTO        20250401MG551  0007765102P000000000000000000000000000000000000000N                              
5360563731000762ISENTO        20250402MG551  0007775405P000000000000000000000000000000000000000N                              
5360563731000762ISENTO        20250402MG551  0007775102P000000000000000000000000000000000000000N                              
5300037845454249ISENTO        20250410MG551  0007785405P000000000000000000000000000000000000000N                              
5300005500533606ISENTO        20250411MG551  0007795405P000000000000000000000000000000000000000N                              
5300029267838172ISENTO        20250423MG551  0007805405P000000000000000000000000000000000000000N                              
5300029267838172ISENTO        20250423MG551  0007805102P000000000000000000000000000000000000000N                              
5365139743000192ISENTO        20250425MG551  0007895405P000000000000000000000000000000000000000N                              
5365139743000192ISENTO        20250425MG551  0007895102P000000000000000000000000000000000000000N                              
5300011287241620ISENTO        20250423MG551  0007815656P000000000000000000000000000000000000000N                              
5300011287241620ISENTO        20250423MG551  0007815405P000000000000000000000000000000000000000N                              
5300011287241620ISENTO        20250423MG551  0007815102P000000000000000000000000000000000000000N                              
5300005237735606ISENTO        20250429MG551  0007915405P000000000000000000000000000000000000000N                              
5365139743000192ISENTO        20250425MG551  0007905405P000000000000000000000000000000000000000N                              
5300000961720611ISENTO        20250423MG551  0007825405P000000000000000000000000000000000000000N                              
5300000961720611ISENTO        20250423MG551  0007825102P000000000000000000000000000000000000000N                              
5300029745802620ISENTO        20250423MG551  0007835405P000000000000000000000000000000000000000N                              
5300091577187504ISENTO        20250430MG551  0008055405P000000000000000000000000000000000000000N                              
5300091577187504ISENTO        20250430MG551  0008055656P000000000000000000000000000000000000000N                              
5300091577187504ISENTO        20250430MG551  0008055102P000000000000000000000000000000000000000N                              
5300027533425634ISENTO        20250423MG551  0007845405P000000000000000000000000000000000000000N                              
5300027533425634ISENTO        20250423MG551  0007845102P000000000000000000000000000000000000000N                              
5300008527855690ISENTO        20250429MG551  0007925405P000000000000000000000000000000000000000N                              
5300008527855690ISENTO        20250429MG551  0007925102P000000000000000000000000000000000000000N                              
5300007850812670ISENTO        20250423MG551  0007855405P000000000000000000000000000000000000000N                              
5300007850812670ISENTO        20250423MG551  0007855102P000000000000000000000000000000000000000N                              
5300054994411620ISENTO        20250429MG551  0007935102P000000000000000000000000000000000000000N                              
5300054994411620ISENTO        20250429MG551  0007935656P000000000000000000000000000000000000000N                              
5300054994411620ISENTO        20250429MG551  0007935405P000000000000000000000000000000000000000N                              
5300052954366249ISENTO        20250423MG551  0007865656P000000000000000000000000000000000000000N                              
5300052954366249ISENTO        20250423MG551  0007865405P000000000000000000000000000000000000000N                              
5300052954366249ISENTO        20250423MG551  0007865102P000000000000000000000000000000000000000N                              
5300045660220649ISENTO        20250430MG551  0008065656P000000000000000000000000000000000000000N                              
5300045660220649ISENTO        20250430MG551  0008065405P000000000000000000000000000000000000000N                              
5300045660220649ISENTO        20250430MG551  0008065102P000000000000000000000000000000000000000N                              
5300008726348683ISENTO        20250429MG551  0007945405P000000000000000000000000000000000000000N                              
5300098022245615ISENTO        20250423MG551  0007875656P000000000000000000000000000000000000000N                              
5300098022245615ISENTO        20250423MG551  0007875405P000000000000000000000000000000000000000N                              
5300098022245615ISENTO        20250423MG551  0007875102P000000000000000000000000000000000000000N                              
5300039189627849ISENTO        20250423MG551  0007885405P000000000000000000000000000000000000000N                              
5300039189627849ISENTO        20250423MG551  0007885656P000000000000000000000000000000000000000N                              
5300039189627849ISENTO        20250423MG551  0007885102P000000000000000000000000000000000000000N                              
5300014014050610ISENTO        20250429MG551  0007955656P000000000000000000000000000000000000000N                              
5300014014050610ISENTO        20250429MG551  0007955405P000000000000000000000000000000000000000N                              
5300014014050610ISENTO        20250429MG551  0007955102P000000000000000000000000000000000000000N                              
5300032094825604ISENTO        20250430MG551  0008075405P000000000000000000000000000000000000000N                              
5300002958893650ISENTO        20250430MG551  0008085405P000000000000000000000000000000000000000N                              
5300002958893650ISENTO        20250430MG551  0008085102P000000000000000000000000000000000000000N                              
5300085109908672ISENTO        20250429MG551  0007965405P000000000000000000000000000000000000000N                              
5300045175942620ISENTO        20250429MG551  0007975656P000000000000000000000000000000000000000N                              
5300045175942620ISENTO        20250429MG551  0007975405P000000000000000000000000000000000000000N                              
5300080957145691ISENTO        20250429MG551  0007985405P000000000000000000000000000000000000000N                              
5300088263452600ISENTO        20250429MG551  0007995405P000000000000000000000000000000000000000N                              
5300004621598686ISENTO        20250430MG551  0008095405P000000000000000000000000000000000000000N                              
5300004621598686ISENTO        20250430MG551  0008095102P000000000000000000000000000000000000000N                              
5300023018518691ISENTO        20250429MG551  0008005405P000000000000000000000000000000000000000N                              
5300023018518691ISENTO        20250429MG551  0008005102P000000000000000000000000000000000000000N                              
5300020316399604ISENTO        20250429MG551  0008015102P000000000000000000000000000000000000000N                              
5300020316399604ISENTO        20250429MG551  0008015405P000000000000000000000000000000000000000N                              
5300007850812670ISENTO        20250429MG551  0008025656P000000000000000000000000000000000000000N                              
5300007850812670ISENTO        20250429MG551  0008025405P000000000000000000000000000000000000000N                              
5300007850812670ISENTO        20250429MG551  0008025102P000000000000000000000000000000000000000N                              
5300000238909670ISENTO        20250430MG551  0008105656P000000000000000000000000000000000000000N                              
5300000238909670ISENTO        20250430MG551  0008105405P000000000000000000000000000000000000000N                              
5300000238909670ISENTO        20250430MG551  0008105102P000000000000000000000000000000000000000N                              
5300007790176684ISENTO        20250429MG551  0008035405P000000000000000000000000000000000000000N                              
5300006329909610ISENTO        20250430MG551  0008115405P000000000000000000000000000000000000000N                              
5300047980303687ISENTO        20250429MG551  0008045405P000000000000000000000000000000000000000N                              
5300059985410653ISENTO        20250430MG551  0008125405P000000000000000000000000000000000000000N                              
5300059985410653ISENTO        20250430MG551  0008125102P000000000000000000000000000000000000000N                              
53436489710053861312885600405 20250407MG551  2719881102T000000000000000000000000000000000000000N                              
530773014400049543962490019   20250408MG551  0038991403T000000000000000000000000000000000000000N                              
530773014400049543962490019   20250408MG551  0038991102T000000000000000000000000000000000000000N                              
53215322700001130624775200061 20250411MG551  0118781403T000000000000000000000000000000000000000N                              
53215322700001130624775200061 20250404MG551  0117721403T000000000000000000000000000000000000000N                              
53307880730001500032196800031 20250403MG551  0976921102T000000000000000000000000000000000000000N                              
53307880730001500032196800031 20250403MG551  0976921403T000000000000000000000000000000000000000N                              
53307880730001500032196800031 20250403MG551  0976925655T000000000000000000000000000000000000000N                              
53215322700001130624775200061 20250424MG551  0120041403T000000000000000000000000000000000000000N                              
53215322700001130624775200061 20250430MG551  0120971403T000000000000000000000000000000000000000N                              
5400000238909670551  00081056565000011260          000000035000000000154000000000000000000000000000000000000000000000000000000
5400000238909670551  0008105405500002882           000000010000000000028000000000000000000000000000000000000000000000000000000
5400000238909670551  00081054055000031471          000000010000000000020000000000000000000000000000000000000000000000000000000
5400000238909670551  0008105102102004972           000000010000000000005000000000000000000000000000000000000000000000000000000
5400000238909670551  00081051021020051459          000000010000000000035000000000000000000000000000000000000000000000000000000
5400000961720611551  0007825405500001831           000000010000000000160000000000000000000000000000000000000000000000000000000
5400000961720611551  00078251021020021719          000000050000000000040000000000000000000000000000000000000000000000000000000
5400000961720611551  00078251021020031722          000000010000000000012000000000000000000000000000000000000000000000000000000
5400002958893650551  0008085405500001578           000000010000000000068000000000000000000000000000000000000000000000000000000
5400002958893650551  0008085405500002814           000000010000000000067000000000000000000000000000000000000000000000000000000
5400002958893650551  0008085405500003813           000000010000000000042000000000000000000000000000000000000000000000000000000
5400002958893650551  00080854055000041739          000000010000000000106000000000000000000000000000000000000000000000000000000
5400002958893650551  0008085405500005812           000000010000000000044000000000000000000000000000000000000000000000000000000
5400002958893650551  00080854055000061702          000000010000000000069000000000000000000000000000000000000000000000000000000
5400002958893650551  00080851021020071661          000000010000000000007000000000000000000000000000000000000000000000000000000
5400002958893650551  00080851021020081459          000000010000000000035000000000000000000000000000000000000000000000000000000
5400004621598686551  0008095405500001916           000000045000000000189000000000000000000000000000000000000000000000000000000
5400004621598686551  00080954055000021781          000000010000000000028000000000000000000000000000000000000000000000000000000
5400004621598686551  0008095405500003625           000000010000000000074000000000000000000000000000000000000000000000000000000
5400004621598686551  00080951021020041459          000000010000000000035000000000000000000000000000000000000000000000000000000
5400005237735606551  00079154055000011777          000000020000000000116000000000000000000000000000000000000000000000000000000
5400005237735606551  0007915405500002772           000000040000000000904000000000000000000000000000000000000000000000000000000
5400005237735606551  0007915405500003703           000000040000000000112000000000000000000000000000000000000000000000000000000
5400005500533606551  0007795405500001772           000000020000000000452000000000000000000000000000000000000000000000000000000
5400006329909610551  00077656565000011260          000000030000000000132000000000000000000000000000000000000000000000000000000
5400006329909610551  0007765405500002829           000000010000000000035000000000000000000000000000000000000000000000000000000
5400006329909610551  00077654055000031268          000000010000000000045000000000000000000000000000000000000000000000000000000
5400006329909610551  0007765102102004972           000000010000000000005000000000000000000000000000000000000000000000000000000
5400006329909610551  0008115405500001642           000000010000000000115000000000000000000000000000000000000000000000000000000
5400006329909610551  0008115405500002637           000000010000000000068000000000000000000000000000000000000000000000000000000
5400006329909610551  00081154055000031216          000000010000000000129000000000000000000000000000000000000000000000000000000
5400006329909610551  00081154055000041684          000000010000000000064000000000000000000000000000000000000000000000000000000
5407730144000495551  00389914030600011752          000000200000000000015800000000000000000000460490000000000000000000000000000
5407730144000495551  00389914030600021753          000000010000000000123900000000000000000000460490000000000000000000000000000
5407730144000495551  00389911020000031754          000000010000000000049000000000000000000000514900000000000000000000000001800
5407730144000495551  00389914030600041755          000000100000000000094500000000000000000000514900000000000000000000000000000
5407730144000495551  00389914030600051756          000000100000000000026100000000000000000000514900000000000000000000000000000
5407730144000495551  00389914030600061757          000000010000000000096990000000000000000000514900000000000000000000000000000
5407730144000495551  00389914030600071758          000000010000000000049000000000000000000000514900000000000000000000000000000
5407730144000495551  00389914030600081759          000000100000000000042400000000000000000000514900000000000000000000000000000
5407730144000495551  00389911020000091760          000000010000000000344690000000000000000000897640000000000000000000000001800
5400007790176684551  0008035405500001916           000000040000000000160000000000000000000000000000000000000000000000000000000
5400007790176684551  0008035405500002882           000000010000000000028000000000000000000000000000000000000000000000000000000
5400007790176684551  00080354055000031496          000000010000000000058000000000000000000000000000000000000000000000000000000
5400007790176684551  0008035405500004905           000000010000000000042000000000000000000000000000000000000000000000000000000
5400007850812670551  0007855405500001855           000000030000000000144000000000000000000000000000000000000000000000000000000
5400007850812670551  0007855405500002882           000000010000000000028000000000000000000000000000000000000000000000000000000
5400007850812670551  0007855405500003857           000000010000000000035000000000000000000000000000000000000000000000000000000
5400007850812670551  00078554055000041252          000000010000000000028000000000000000000000000000000000000000000000000000000
5400007850812670551  0007855405500005858           000000010000000000058000000000000000000000000000000000000000000000000000000
5400007850812670551  0007855405500006851           000000020000000000448000000000000000000000000000000000000000000000000000000
5400007850812670551  00078554055000071380          000000010000000000259000000000000000000000000000000000000000000000000000000
5400007850812670551  0007855405500008801           000000010000000000048000000000000000000000000000000000000000000000000000000
5400007850812670551  00078554055000091608          000000020000000000116000000000000000000000000000000000000000000000000000000
5400007850812670551  0007855405500010509           000000010000000000044000000000000000000000000000000000000000000000000000000
5400007850812670551  00078551021020111459          000000010000000000035000000000000000000000000000000000000000000000000000000
5400007850812670551  0008025656500001886           000000030000000000138000000000000000000000000000000000000000000000000000000
5400007850812670551  0008025405500002829           000000010000000000028000000000000000000000000000000000000000000000000000000
5400007850812670551  0008025102102003972           000000010000000000005000000000000000000000000000000000000000000000000000000
5400007850812670551  00080251021020041459          000000010000000000035000000000000000000000000000000000000000000000000000000
5400008527855690551  0007925405500001915           000000030000000000132000000000000000000000000000000000000000000000000000000
5400008527855690551  00079254055000021782          000000010000000000035000000000000000000000000000000000000000000000000000000
5400008527855690551  00079254055000031779          000000010000000000044000000000000000000000000000000000000000000000000000000
5400008527855690551  00079254055000041629          000000010000000000034000000000000000000000000000000000000000000000000000000
5400008527855690551  00079251021020051719          000000010000000000008000000000000000000000000000000000000000000000000000000
5400008726348683551  00079454055000011788          000000010000000000792000000000000000000000000000000000000000000000000000000
5400008726348683551  00079454055000021789          000000010000000000035000000000000000000000000000000000000000000000000000000
5400008726348683551  00079454055000031471          000000010000000000019000000000000000000000000000000000000000000000000000000
5400008726348683551  0007945405500004974           000000040000000000084000000000000000000000000000000000000000000000000000000
5400008726348683551  0007945405500005683           000000010000000000052000000000000000000000000000000000000000000000000000000
5400008726348683551  0007945405500006977           000000020000000000138000000000000000000000000000000000000000000000000000000
5400008726348683551  0007945405500007955           000000010000000000138000000000000000000000000000000000000000000000000000000
5400011287241620551  0007815656500001887           000000030000000000132000000000000000000000000000000000000000000000000000000
5400011287241620551  0007815405500002882           000000010000000000028000000000000000000000000000000000000000000000000000000
5400011287241620551  00078154055000031471          000000010000000000019000000000000000000000000000000000000000000000000000000
5400011287241620551  00078154055000041629          000000010000000000032000000000000000000000000000000000000000000000000000000
5400011287241620551  0007815102102005972           000000010000000000006000000000000000000000000000000000000000000000000000000
5400011287241620551  0007815405500006801           000000010000000000049000000000000000000000000000000000000000000000000000000
5400014014050610551  0007955656500001886           000000035000000000161000000000000000000000000000000000000000000000000000000
5400014014050610551  0007955405500002829           000000010000000000028000000000000000000000000000000000000000000000000000000
5400014014050610551  0007955405500003736           000000010000000000030000000000000000000000000000000000000000000000000000000
5400014014050610551  0007955102102004972           000000010000000000005000000000000000000000000000000000000000000000000000000
5400014014050610551  00079551021020051459          000000010000000000035000000000000000000000000000000000000000000000000000000
5400014014050610551  00079551021020061747          000000010000000000039000000000000000000000000000000000000000000000000000000
5400014014050610551  00079551021020071748          000000010000000000026000000000000000000000000000000000000000000000000000000
5400020316399604551  00080151021020011719          000000010000000000010000000000000000000000000000000000000000000000000000000
5400020316399604551  00080154055000021755          000000010000000000014000000000000000000000000000000000000000000000000000000
5421532270000113551  01177214030600011761          000000020000000000094220000000000000000000897640000000010150000000000000000
5421532270000113551  01177214030600021010          000000020000000000029240000000000000000000897640000000003370000000000000000
5421532270000113551  0117721403060003857           000000020000000000049560000000000000000000897640000000005410000000000000000
5421532270000113551  01177214030600041762          000000020000000000084480000000000000000000897640000000008740000000000000000
5421532270000113551  0117721403060005801           000000010000000000032900000000000000000000897640000000002680000000000000000
5421532270000113551  01177214030600061763          000000010000000000199010000000000000000000897640000000023180000000000000000
5421532270000113551  0117721403060007874           000000010000000000029240000000000000000000897640000000004570000000000000000
5421532270000113551  01177214030600081437          000000010000000000031680000000000000000000897640000000003290000000000000000
5421532270000113551  0117721403060009736           000000010000000000022740000000000000000000897640000000002610000000000000000
5421532270000113551  0117721403060010992           000000010000000000040210000000000000000000897640000000004390000000000000000
5421532270000113551  0117721403060011642           000000010000000000074730000000000000000000897640000000008790000000000000000
5421532270000113551  0117721403060012525           000000010000000000051170000000000000000000897640000000007720000000000000000
5421532270000113551  0117721403060013532           000000010000000000073110000000000000000000897640000000009750000000000000000
5421532270000113551  0117721403060014541           000000010000000000080420000000000000000000897640000000008720000000000000000
5421532270000113551  01177214030600151764          000000020000000000341160000000000000000000897640000000044430000000000000000
5421532270000113551  0117721403060016893           000000020000000000089360000000000000000000897640000000010630000000000000000
5421532270000113551  01177214030600171765          000000020000000000047120000000000000000000897640000000004290000000000000000
5421532270000113551  0117721403060018970           000000010000000000052390000000000000000000897640000000005630000000000000000
5421532270000113551  0117721403060019858           000000010000000000043050000000000000000000897640000000003120000000000000000
5421532270000113551  01177214030600201510          000000020000000000056860000000000000000000897640000000008700000000000000000
5421532270000113551  01177214030600211766          000000020000000000035740000000000000000000897640000000003510000000000000000
5421532270000113551  01177214030600221629          000000010000000000018520000000000000000000897640000000001960000000000000000
5421532270000113551  01177214030600231000          000000010000000000022340000000000000000000897640000000000000000000000000000
5421532270000113551  0117721403060024937           000000020000000000116980000000000000000000897640000000012070000000000000000
5421532270000113551  0117721403060025509           000000020000000000042080000000000000000000897640000000000000000000000000000
5421532270000113551  01177214030600261767          000000010000000000388280000000000000000000897640000000000000000000000000000
5421532270000113551  0117721403060027789           000000010000000000144590000000000000000000897640000000010970000000000000000
5421532270000113551  01177214030600281768          000000010000000000177080000000000000000000897640000000020950000000000000000
5421532270000113551  01177214030600291240          000000010000000000085290000000000000000000897640000000007010000000000000000
5421532270000113551  01177214030600301769          000000010000000000264000000000000000000000897640000000025080000000000000000
5421532270000113551  01177214030600311077          000000090000000000489780000000000000000000897640000000000000000000000000000
5421532270000113551  0117721403060032942           000000010000000000129970000000000000000000897640000000000000000000000000000
5421532270000113551  01187814030600011772          000000010000000000320860000000000000000000897640000000022070000000000000000
5421532270000113551  01187814030600021773          000000010000000000320860000000000000000000897640000000000000000000000000000
5421532270000113551  01187814030600031774          000000020000000000610840000000000000000000897640000000000000000000000000000
5421532270000113551  01187814030600041775          000000010000000000111290000000000000000000897640000000013140000000000000000
5421532270000113551  0118781403060005546           000000010000000000048330000000000000000000897640000000006700000000000000000
5421532270000113551  01187814030600061776          000000010000000000059700000000000000000000897640000000008820000000000000000
5421532270000113551  01187814030600071628          000000010000000000276180000000000000000000897640000000031790000000000000000
5421532270000113551  01187814030600081629          000000010000000000018520000000000000000000897640000000001950000000000000000
5421532270000113551  01187814030600091049          000000010000000000012180000000000000000000897640000000001330000000000000000
5421532270000113551  01187814030600101368          000000010000000000068230000000000000000000897640000000008260000000000000000
5421532270000113551  01187814030600111777          000000020000000000077980000000000000000000897640000000009000000000000000000
5421532270000113551  01187814030600121778          000000010000000000118600000000000000000000897640000000018530000000000000000
5421532270000113551  01187814030600131382          000000010000000000081150000000000000000000897640000000006570000000000000000
5421532270000113551  0118781403060014636           000000040000000000073120000000000000000000897640000000009450000000000000000
5421532270000113551  0118781403060015971           000000010000000000054420000000000000000000897640000000005540000000000000000
5421532270000113551  01187814030600161397          000000010000000000017460000000000000000000897640000000000000000000000000000
5421532270000113551  01187814030600171779          000000010000000000034120000000000000000000897640000000000000000000000000000
5421532270000113551  01187814030600181780          000000020000000000035740000000000000000000897640000000003990000000000000000
5421532270000113551  01187814030600191781          000000060000000000078000000000000000000000897640000000012160000000000000000
5421532270000113551  01187814030600201782          000000020000000000047120000000000000000000897640000000006550000000000000000
5421532270000113551  01187814030600211783          000000010000000000096660000000000000000000897640000000010180000000000000000
5421532270000113551  01187814030600221784          000000010000000000010150000000000000000000897640000000001150000000000000000
5421532270000113551  0118781403060023801           000000010000000000032900000000000000000000897640000000002680000000000000000
5421532270000113551  01187814030600241785          000000010000000000091790000000000000000000897640000000010700000000000000000
5421532270000113551  0118781403060025865           000000020000000000203080000000000000000000897640000000027910000000000000000
5421532270000113551  01187814030600261786          000000010000000000030870000000000000000000897640000000000000000000000000000
5421532270000113551  0118781403060027808           000000010000000000107220000000000000000000897640000000008290000000000000000
5421532270000113551  01187814030600281787          000000060000000000102360000000000000000000897640000000008500000000000000000
5421532270000113551  01187814030600291788          000000010000000000559670000000000000000000897640000000048680000000000000000
5421532270000113551  0118781403060030974           000000040000000000063360000000000000000000897640000000006250000000000000000
5421532270000113551  01187814030600311789          000000010000000000021930000000000000000000897640000000001940000000000000000
5421532270000113551  01187814030600321061          000000010000000000043050000000000000000000897640000000000000000000000000000
5421532270000113551  0118781403060033977           000000020000000000099100000000000000000000897640000000009740000000000000000
5421532270000113551  01187814030600341790          000000020000000000073100000000000000000000897640000000013500000000000000000
5421532270000113551  01187814030600351791          000000010000000000104790000000000000000000897640000000019040000000000000000
5421532270000113551  0118781403060036772           000000040000000000688840000000000000000000897640000000122870000000000000000
5421532270000113551  01200414030600011144          000000020000000000253440000000000000000000951240000000028570000000000000000
5421532270000113551  01200414030600021792          000000010000000000082850000000000000000000951240000000010610000000000000000
5421532270000113551  01200414030600031546          000000010000000000030460000000000000000000951240000000005370000000000000000
5421532270000113551  01200414030600041529          000000010000000000030870000000000000000000951240000000003720000000000000000
5421532270000113551  01200414030600051547          000000010000000000026400000000000000000000951240000000004240000000000000000
5421532270000113551  01200414030600061636          000000020000000000043060000000000000000000951240000000007740000000000000000
5421532270000113551  01200414030600071793          000000030000000000048750000000000000000000951240000000006790000000000000000
5421532270000113551  01200414030600081529          000000010000000000030870000000000000000000951240000000003720000000000000000
5421532270000113551  0120041403060009507           000000020000000000047120000000000000000000951240000000005720000000000000000
5421532270000113551  01200414030600101794          000000010000000000128340000000000000000000951240000000004640000000000000000
5421532270000113551  01200414030600111292          000000010000000000020310000000000000000000951240000000002860000000000000000
5421532270000113551  0120041403060012519           000000010000000000037770000000000000000000951240000000005130000000000000000
5421532270000113551  01200414030600131572          000000030000000000037770000000000000000000951240000000005790000000000000000
5421532270000113551  01200414030600141471          000000010000000000012590000000000000000000951240000000001630000000000000000
5421532270000113551  0120041403060015962           000000010000000000029650000000000000000000951240000000000000000000000000000
5421532270000113551  0120041403060016703           000000040000000000078000000000000000000000951240000000010460000000000000000
5421532270000113551  01200414030600171795          000000020000000000259940000000000000000000951240000000019090000000000000000
5421532270000113551  01200414030600181443          000000010000000000080420000000000000000000951240000000009990000000000000000
5421532270000113551  01200414030600191302          000000040000000000057680000000000000000000951240000000007000000000000000000
5421532270000113551  01200414030600201075          000000010000000000145400000000000000000000951240000000000000000000000000000
5421532270000113551  01200414030600211796          000000010000000000109660000000000000000000951240000000009450000000000000000
5421532270000113551  0120041403060022772           000000020000000000344420000000000000000000951240000000046660000000000000000
5421532270000113551  01200414030600231797          000000010000000000117780000000000000000000951240000000011110000000000000000
5421532270000113551  01200414030600241798          000000010000000000185200000000000000000000951240000000019290000000000000000
5421532270000113551  01200414030600251799          000000010000000000205510000000000000000000951240000000027290000000000000000
5421532270000113551  0120041403060026801           000000020000000000065800000000000000000000951240000000005430000000000000000
5421532270000113551  01200414030600271068          000000020000000000030060000000000000000000951240000000001260000000000000000
5421532270000113551  01200414030600281800          000000010000000000090980000000000000000000951240000000009190000000000000000
5421532270000113551  01200414030600291801          000000010000000000131590000000000000000000951240000000000000000000000000000
5421532270000113551  01200414030600301187          000000020000000000318420000000000000000000951240000000042270000000000000000
5421532270000113551  0120041403060031545           000000010000000000017060000000000000000000951240000000001760000000000000000
5421532270000113551  01200414030600321802          000000010000000000048740000000000000000000951240000000006080000000000000000
5421532270000113551  01200414030600331803          000000010000000000145400000000000000000000951240000000017490000000000000000
5421532270000113551  0120041403060034629           000000040000000000102360000000000000000000951240000000012430000000000000000
5421532270000113551  01200414030600351519          000000010000000000049550000000000000000000951240000000006030000000000000000
5421532270000113551  01200414030600361804          000000010000000000103970000000000000000000951240000000012440000000000000000
5421532270000113551  0120041403060037543           000000010000000000052800000000000000000000951240000000006980000000000000000
5421532270000113551  0120041403060038504           000000020000000000027620000000000000000000951240000000002960000000000000000
5421532270000113551  01200414030600391805          000000020000000000064980000000000000000000951240000000000000000000000000000
5421532270000113551  01200414030600401806          000000010000000000043860000000000000000000951240000000000000000000000000000
5421532270000113551  01200414030600411024          000000010000000000036960000000000000000000951240000000004330000000000000000
5421532270000113551  0120041403060042656           000000010000000000364720000000000000000000951240000000046840000000000000000
5421532270000113551  01200414030600431807          000000020000000000300560000000000000000000951240000000025280000000000000000
5421532270000113551  0120041403060044525           000000010000000000051990000000000000000000951240000000005710000000000000000
5421532270000113551  01200414030600451216          000000010000000000101540000000000000000000951240000000014350000000000000000
5421532270000113551  0120041403060046507           000000010000000000023560000000000000000000951240000000002860000000000000000
5421532270000113551  01200414030600471494          000000010000000000038180000000000000000000951240000000007620000000000000000
5421532270000113551  0120041403060048992           000000010000000000040210000000000000000000951240000000004390000000000000000
5421532270000113551  01200414030600491808          000000010000000000031680000000000000000000951240000000003150000000000000000
5421532270000113551  01200414030600501268          000000010000000000028020000000000000000000951240000000002830000000000000000
5421532270000113551  01200414030600511404          000000010000000000059300000000000000000000951240000000007370000000000000000
5421532270000113551  01200414030600521485          000000010000000000101540000000000000000000951240000000000000000000000000000
5421532270000113551  01200414030600531099          000000010000000000052800000000000000000000951240000000005540000000000000000
5421532270000113551  01200414030600541281          000000010000000000041430000000000000000000951240000000004220000000000000000
5421532270000113551  01200414030600551081          000000020000000000066600000000000000000000951240000000002340000000000000000
5421532270000113551  0120041403060056799           000000010000000000174640000000000000000000951240000000022370000000000000000
5421532270000113551  0120041403060057800           000000010000000000174640000000000000000000951240000000022220000000000000000
5421532270000113551  01200414030600581245          000000010000000000105600000000000000000000951240000000000000000000000000000
5421532270000113551  01200414030600591487          000000010000000000048330000000000000000000951240000000001760000000000000000
5421532270000113551  01200414030600601809          000000010000000000030460000000000000000000951240000000004290000000000000000
5421532270000113551  01200414030600611810          000000010000000000170580000000000000000000951240000000000000000000000000000
5421532270000113551  0120041403060062970           000000010000000000052390000000000000000000951240000000005570000000000000000
5421532270000113551  01200414030600631519          000000010000000000049550000000000000000000951240000000006030000000000000000
5421532270000113551  01200414030600641811          000000010000000000013400000000000000000000951240000000000000000000000000000
5421532270000113551  0120041403060065799           000000010000000000174640000000000000000000951240000000022370000000000000000
5421532270000113551  0120041403060066800           000000010000000000174640000000000000000000951240000000022220000000000000000
5421532270000113551  01200414030600671103          000000010000000000038990000000000000000000951240000000005270000000000000000
5421532270000113551  0120041403060068562           000000010000000000043860000000000000000000951240000000004430000000000000000
5421532270000113551  0120041403060069745           000000010000000000032090000000000000000000951240000000003090000000000000000
5421532270000113551  0120041403060070857           000000010000000000024780000000000000000000951240000000002430000000000000000
5421532270000113551  01200414030600711812          000000010000000000049140000000000000000000951240000000006610000000000000000
5421532270000113551  01200414030600721813          000000010000000000079000000000000000000000951240000000000000000000000000000
5421532270000113551  01200414030600731814          000000010000000000150280000000000000000000951240000000019040000000000000000
5421532270000113551  01209714030600011234          000000010000000000046950000000000000000000951240000000006530000000000000000
5421532270000113551  01209714030600021000          000000020000000000048740000000000000000000951240000000005540000000000000000
5421532270000113551  0120971403060003635           000000010000000000137280000000000000000000951240000000017260000000000000000
5421532270000113551  0120971403060004636           000000040000000000073120000000000000000000951240000000009450000000000000000
5421532270000113551  01209714030600051815          000000010000000000177890000000000000000000951240000000013130000000000000000
5421532270000113551  01209714030600061327          000000010000000000345230000000000000000000951240000000042230000000000000000
5421532270000113551  01209714030600071328          000000010000000000345230000000000000000000951240000000042230000000000000000
5421532270000113551  01209714030600081816          000000020000000000357420000000000000000000951240000000000000000000000000000
5421532270000113551  01209714030600091325          000000020000000000112100000000000000000000951240000000012880000000000000000
5421532270000113551  01209714030600101324          000000010000000000080420000000000000000000951240000000011600000000000000000
5421532270000113551  01209714030600111817          000000010000000000068230000000000000000000951240000000009570000000000000000
5421532270000113551  0120971403060012739           000000010000000000057670000000000000000000951240000000010570000000000000000
5421532270000113551  01209714030600131818          000000010000000000211200000000000000000000951240000000025370000000000000000
5421532270000113551  01209714030600141819          000000020000000000100720000000000000000000951240000000011300000000000000000
5421532270000113551  01209714030600151523          000000010000000000127530000000000000000000951240000000009660000000000000000
5421532270000113551  0120971403060016604           000000010000000000109660000000000000000000951240000000013170000000000000000
5421532270000113551  0120971403060017729           000000020000000000273740000000000000000000951240000000028760000000000000000
5421532270000113551  0120971403060018524           000000010000000000047110000000000000000000951240000000005450000000000000000
5421532270000113551  0120971403060019541           000000010000000000080420000000000000000000951240000000009500000000000000000
5421532270000113551  01209714030600201820          000000020000000000461380000000000000000000951240000000000000000000000000000
5421532270000113551  01209714030600211821          000000010000000000346040000000000000000000951240000000016300000000000000000
5421532270000113551  01209714030600221822          000000010000000000028020000000000000000000951240000000002800000000000000000
5421532270000113551  0120971403060023640           000000010000000000034120000000000000000000951240000000003570000000000000000
5421532270000113551  0120971403060024780           000000010000000000013400000000000000000000951240000000001530000000000000000
5421532270000113551  01209714030600251823          000000040000000000138080000000000000000000951240000000010350000000000000000
5421532270000113551  01209714030600261824          000000010000000000072290000000000000000000951240000000008230000000000000000
5421532270000113551  0120971403060027519           000000010000000000037770000000000000000000951240000000005130000000000000000
5421532270000113551  01209714030600281406          000000010000000000410210000000000000000000951240000000055480000000000000000
5421532270000113551  0120971403060029846           000000010000000000053610000000000000000000951240000000006630000000000000000
5421532270000113551  01209714030600301825          000000010000000000069860000000000000000000951240000000005650000000000000000
5421532270000113551  0120971403060031812           000000010000000000031680000000000000000000951240000000003290000000000000000
5421532270000113551  0120971403060032813           000000010000000000025990000000000000000000951240000000000000000000000000000
5421532270000113551  0120971403060033814           000000010000000000048330000000000000000000951240000000000000000000000000000
5421532270000113551  01209714030600341826          000000010000000000032490000000000000000000951240000000000990000000000000000
5421532270000113551  01209714030600351827          000000010000000000080420000000000000000000951240000000009240000000000000000
5421532270000113551  01209714030600361828          000000010000000000054420000000000000000000951240000000000000000000000000000
5421532270000113551  01209714030600371146          000000010000000000064580000000000000000000951240000000004690000000000000000
5421532270000113551  01209714030600381829          000000010000000000024370000000000000000000951240000000000000000000000000000
5400023018518691551  00080054055000011796          000000010000000000169000000000000000000000000000000000000000000000000000000
5400023018518691551  00080054055000021075          000000010000000000198000000000000000000000000000000000000000000000000000000
5400023018518691551  0008005405500003509           000000020000000000068000000000000000000000000000000000000000000000000000000
5400023018518691551  00080051021020041459          000000010000000000035000000000000000000000000000000000000000000000000000000
5400027533425634551  0007845405500001578           000000010000000000064000000000000000000000000000000000000000000000000000000
5400027533425634551  0007845405500002633           000000040000000000232000000000000000000000000000000000000000000000000000000
5400027533425634551  00078454055000031368          000000010000000000097000000000000000000000000000000000000000000000000000000
5400027533425634551  00078454055000041629          000000010000000000031000000000000000000000000000000000000000000000000000000
5400027533425634551  00078454055000051049          000000010000000000028000000000000000000000000000000000000000000000000000000
5400027533425634551  00078454055000061377          000000010000000000079000000000000000000000000000000000000000000000000000000
5400027533425634551  00078454055000071628          000000010000000000368000000000000000000000000000000000000000000000000000000
5400027533425634551  00078454055000081382          000000010000000000116000000000000000000000000000000000000000000000000000000
5400027533425634551  0007845405500009636           000000040000000000114000000000000000000000000000000000000000000000000000000
5400027533425634551  0007845405500010829           000000010000000000028000000000000000000000000000000000000000000000000000000
5400027533425634551  00078451021020111459          000000010000000000035000000000000000000000000000000000000000000000000000000
5400027533425634551  00078454055000121453          000000010000000000046000000000000000000000000000000000000000000000000000000
5400027533425634551  00078454055000131054          000000010000000000016000000000000000000000000000000000000000000000000000000
5400029267838172551  0007805405500001915           000000030000000000132000000000000000000000000000000000000000000000000000000
5400029267838172551  0007805405500002882           000000010000000000028000000000000000000000000000000000000000000000000000000
5400029267838172551  00078054055000031489          000000010000000000019000000000000000000000000000000000000000000000000000000
5400029267838172551  0007805102102004972           000000010000000000006000000000000000000000000000000000000000000000000000000
5400029267838172551  0007805405500005971           000000010000000000072000000000000000000000000000000000000000000000000000000
5400029267838172551  0007805405500006790           000000010000000000044000000000000000000000000000000000000000000000000000000
5400029267838172551  00078051021020071659          000000010000000000007000000000000000000000000000000000000000000000000000000
5400029745802620551  0007835405500001855           000000040000000000192000000000000000000000000000000000000000000000000000000
5400029745802620551  0007835405500002865           000000020000000000284000000000000000000000000000000000000000000000000000000
5400029745802620551  0007835405500003808           000000010000000000144000000000000000000000000000000000000000000000000000000
5430788073000150551  09769211020000011770          000000020000000000019800000000000000000000917440000000000000000000000001800
5430788073000150551  09769214030600021581          000000100000000000049900000000000000000000917440000000000000000000000000000
5430788073000150551  09769211020000031051          000000020000000000033800000000000000000000951240000000000000000000000001800
5430788073000150551  09769214030600041771          000000010000000000020900000000000000000000951240000000000000000000000000000
5430788073000150551  09769256550600051052          000000020000000001055040000000000000000000951240000000249650000000000000000
5400032094825604551  00080754055000011406          000000010000000000543000000000000000000000000000000000000000000000000000000
5400037845454249551  00077854055000011698          000000010000000000174000000000000000000000000000000000000000000000000000000
5400039189627849551  0007885405500001921           000000010000000000148000000000000000000000000000000000000000000000000000000
5400039189627849551  00078856565000021260          000000045000000000198000000000000000000000000000000000000000000000000000000
5400039189627849551  00078854055000031542          000000010000000000035000000000000000000000000000000000000000000000000000000
5400039189627849551  00078854055000041494          000000010000000000049000000000000000000000000000000000000000000000000000000
5400039189627849551  0007885102102005972           000000010000000000005000000000000000000000000000000000000000000000000000000
5400039189627849551  0007885405500006790           000000010000000000044000000000000000000000000000000000000000000000000000000
5400039189627849551  00078854055000071144          000000020000000000338000000000000000000000000000000000000000000000000000000
5443648971005386551  27198811020000011743          000001000000000000094590000000000000000000100580000000000000000000000001800
5443648971005386551  27198811020000021744          000001000000000000094590000000000000000000201180000000000000000000000001800
5443648971005386551  27198811020000031745          000000020000000000060970000000000000000000266020000000000000000000000001800
5443648971005386551  27198811020000041746          000000060000000000055620000000000000000000325170000000000000000000000001800
5443648971005386551  27198811020000051747          000000030000000000053960000000000000000000382560000000000000000000000001800
5443648971005386551  27198811020000061748          000000020000000000027610000000000000000000411920000000000000000000000001800
5443648971005386551  27198811020000071749          000000010000000000015200000000000000000000428090000000000000000000000001800
5443648971005386551  27198811020000081750          000000010000000000015230000000000000000000444290000000000000000000000001800
5443648971005386551  27198811020000091751          000000010000000000015230000000000000000000460490000000000000000000000001800
5400045175942620551  0007975656500001887           000000040000000000176000000000000000000000000000000000000000000000000000000
5400045175942620551  00079754055000021781          000000010000000000028000000000000000000000000000000000000000000000000000000
5400045175942620551  00079754055000031453          000000010000000000049000000000000000000000000000000000000000000000000000000
5400045660220649551  0008065656500001887           000000030000000000132000000000000000000000000000000000000000000000000000000
5400045660220649551  00080654055000021782          000000010000000000038000000000000000000000000000000000000000000000000000000
5400045660220649551  00080654055000031466          000000010000000000044000000000000000000000000000000000000000000000000000000
5400045660220649551  0008065405500004625           000000010000000000048000000000000000000000000000000000000000000000000000000
5400045660220649551  00080654055000051252          000000010000000000029000000000000000000000000000000000000000000000000000000
5400045660220649551  00080651021020061459          000000010000000000035000000000000000000000000000000000000000000000000000000
5400045660220649551  0008065405500007727           000000010000000000459000000000000000000000000000000000000000000000000000000
5400045660220649551  00080654055000081295          000000040000000000182000000000000000000000000000000000000000000000000000000
5400045660220649551  00080654055000091764          000000020000000000630000000000000000000000000000000000000000000000000000000
5400047980303687551  0008045405500001633           000000035000000000203000000000000000000000000000000000000000000000000000000
5400047980303687551  00080454055000021780          000000010000000000038000000000000000000000000000000000000000000000000000000
5400047980303687551  00080454055000031576          000000010000000000064000000000000000000000000000000000000000000000000000000
5400052954366249551  00078656565000011260          000000035000000000154000000000000000000000000000000000000000000000000000000
5400052954366249551  00078654055000021572          000000010000000000028000000000000000000000000000000000000000000000000000000
5400052954366249551  00078654055000031471          000000010000000000019000000000000000000000000000000000000000000000000000000
5400052954366249551  0007865102102004972           000000010000000000005000000000000000000000000000000000000000000000000000000
5400054994411620551  00079351021020011747          000000010000000000039000000000000000000000000000000000000000000000000000000
5400054994411620551  00079356565000021260          000000030000000000132000000000000000000000000000000000000000000000000000000
5400054994411620551  00079354055000031293          000000010000000000035000000000000000000000000000000000000000000000000000000
5400054994411620551  0007935405500004519           000000010000000000052000000000000000000000000000000000000000000000000000000
5400054994411620551  00079354055000051292          000000010000000000032000000000000000000000000000000000000000000000000000000
5400054994411620551  0007935405500006781           000000010000000000029000000000000000000000000000000000000000000000000000000
5400054994411620551  00079351021020071459          000000010000000000035000000000000000000000000000000000000000000000000000000
5400054994411620551  00079351021020081748          000000010000000000032000000000000000000000000000000000000000000000000000000
5400059985410653551  0008125405500001633           000000050000000000290000000000000000000000000000000000000000000000000000000
5400059985410653551  00081254055000021782          000000010000000000049000000000000000000000000000000000000000000000000000000
5400059985410653551  00081254055000031231          000000010000000000074000000000000000000000000000000000000000000000000000000
5400059985410653551  00081254055000041687          000000010000000000038000000000000000000000000000000000000000000000000000000
5400059985410653551  00081254055000051252          000000010000000000129000000000000000000000000000000000000000000000000000000
5400059985410653551  00081254055000061672          000000010000000000296000000000000000000000000000000000000000000000000000000
5400059985410653551  0008125405500007509           000000020000000000068000000000000000000000000000000000000000000000000000000
5400059985410653551  00081251021020081558          000000010000000000028000000000000000000000000000000000000000000000000000000
5460563731000762551  0007775405500001855           000000030000000000144000000000000000000000000000000000000000000000000000000
5460563731000762551  0007775405500002745           000000010000000000038000000000000000000000000000000000000000000000000000000
5460563731000762551  00077754055000031510          000000010000000000065000000000000000000000000000000000000000000000000000000
5460563731000762551  00077754055000041054          000000010000000000016000000000000000000000000000000000000000000000000000000
5460563731000762551  00077751021020051459          000000010000000000035000000000000000000000000000000000000000000000000000000
5465139743000192551  00078954055000011802          000000010000000000069000000000000000000000000000000000000000000000000000000
5465139743000192551  00078954055000021187          000000020000000000424000000000000000000000000000000000000000000000000000000
5465139743000192551  00078954055000031803          000000010000000000192000000000000000000000000000000000000000000000000000000
5465139743000192551  00078954055000041007          000000010000000000174000000000000000000000000000000000000000000000000000000
5465139743000192551  00078954055000051555          000000010000000000034000000000000000000000000000000000000000000000000000000
5465139743000192551  0007895405500006629           000000040000000000164000000000000000000000000000000000000000000000000000000
5465139743000192551  00078951021020071459          000000010000000000035000000000000000000000000000000000000000000000000000000
5465139743000192551  00079054055000011081          000000020000000000096000000000000000000000000000000000000000000000000000000
5465139743000192551  0007905405500002799           000000010000000000229000000000000000000000000000000000000000000000000000000
5465139743000192551  0007905405500003800           000000010000000000229000000000000000000000000000000000000000000000000000000
5465139743000192551  00079054055000041814          000000010000000000205000000000000000000000000000000000000000000000000000000
5465139743000192551  00079054055000051425          000000020000000000150000000000000000000000000000000000000000000000000000000
5400080957145691551  00079854055000011601          000000010000000000089000000000000000000000000000000000000000000000000000000
5400085109908672551  00079654055000011795          000000020000000000358000000000000000000000000000000000000000000000000000000
5400085109908672551  00079654055000021443          000000010000000000145000000000000000000000000000000000000000000000000000000
5400085109908672551  00079654055000031135          000000040000000000088000000000000000000000000000000000000000000000000000000
5400088263452600551  00079954055000011547          000000010000000000039000000000000000000000000000000000000000000000000000000
5400088263452600551  00079954055000021529          000000010000000000046000000000000000000000000000000000000000000000000000000
5400088263452600551  00079954055000031546          000000010000000000052000000000000000000000000000000000000000000000000000000
5400091577187504551  00080554055000011146          000000010000000000089000000000000000000000000000000000000000000000000000000
5400091577187504551  0008055656500002887           000000040000000000176000000000000000000000000000000000000000000000000000000
5400091577187504551  0008055405500003829           000000010000000000028000000000000000000000000000000000000000000000000000000
5400091577187504551  00080554055000041471          000000010000000000019000000000000000000000000000000000000000000000000000000
5400091577187504551  00080551021020051459          000000010000000000035000000000000000000000000000000000000000000000000000000
5400091577187504551  0008055102102006972           000000010000000000005000000000000000000000000000000000000000000000000000000
5400091577187504551  00080551021020071747          000000010000000000038000000000000000000000000000000000000000000000000000000
5400091577187504551  00080551021020081751          000000010000000000036000000000000000000000000000000000000000000000000000000
5400091577187504551  0008055405500009846           000000010000000000098000000000000000000000000000000000000000000000000000000
5400091577187504551  00080554055000101454          000000010000000000096000000000000000000000000000000000000000000000000000000
5400098022245615551  00078756565000011260          000000035000000000154000000000000000000000000000000000000000000000000000000
5400098022245615551  00078754055000021572          000000010000000000028000000000000000000000000000000000000000000000000000000
5400098022245615551  00078754055000031471          000000010000000000019000000000000000000000000000000000000000000000000000000
5400098022245615551  0007875102102004972           000000010000000000005000000000000000000000000000000000000000000000000000000
7520250401202504301000          84219999LX3544-FILTRO AR                                     PC    000000000000000000000000000
7520250401202504301007          40103100117205652R-CORREIA                                   PC    000000000000000000000000000
7520250401202504301010          84213990CU200061-FILTRO ANTI POLEM                           PC    000000000000000000000000000
7520250401202504301024          68138190VW276-LONA FREIO                                     JG    000000000000000000000000000
7520250401202504301049          84212300GI047-FILTRO COMBUSTIVEL                             PC    000000000000000000000000000
7520250401202504301051          15180090CS PRETEADOR DE PNEUS AEROSSOL 400 ML                UN    000000000000000000000000000
7520250401202504301052          27101932QUARTZ 9000 FUT XT 5W30 24X1                         CX    000000000000000000000000000
7520250401202504301054          4016930076090-ANEL VEDACAO                                   PC    000000000000000000000000000
7520250401202504301061          9026209055202374-INTER PRESSAO OLEO                          PC    000000000000000000000000000
7520250401202504301068          8409919011056093-SELO MOTOR                                  PC    000000000000000000000000000
7520250401202504301075          87083019PD1348-PASTILHA FREIO                                JG    000000000000000000000000000
7520250401202504301077          27101932ATF CVT-OLEO HIDRAULICO                              PC    000000000000000000000000000
7520250401202504301081          4016999051713088-COXIM PONTA BARRA ESTABILIZADORA            PC    000000000000000000000000000
7520250401202504301099          87089100MF441-RESERV AGUA RADIADOR                           PC    000000000000000000000000000
7520250401202504301103          84219999LX3505-FILTRO AR                                     PC    000000000000000000000000000
7520250401202504301135          8511100046480362-VELA IGNICAO                                PC    000000000000000000000000000
7520250401202504301144          870880000441222-KIT AMORTECEDOR DIANTEIRO                    JG    000000000000000000000000000
7520250401202504301146          4009310090467442-MANGUEIRA BOCAL DO TANQUE                   PC    000000000000000000000000000
7520250401202504301187          87083090BD4009-DISCO FREIO                                   PC    000000000000000000000000000
7520250401202504301216          84835090VKM11107L-TENSOR CORREIA DENTADA                     PC    000000000000000000000000000
7520250401202504301231          84219999C2329-FILTRO AR                                      PC    000000000000000000000000000
7520250401202504301234          401031005PK1137-CORREIA                                      PC    000000000000000000000000000
7520250401202504301240          84219999WEOC004-FILTRO CAMBIO AUTOMATICO                     PC    000000000000000000000000000
7520250401202504301245          4009329051851014-MANGUEIRA SUPERIOR RADIADOR                 PC    000000000000000000000000000
7520250401202504301252          84212300WK6133-FILTRO COMBUSTIVEL                            PC    000000000000000000000000000
7520250401202504301260          27101932RALOY SYNTH PLUS SAE 5W30 API SP - 24/1              LT    000000000000000000000000000
7520250401202504301268          84219999C340071-FILTRO AR                                    PC    000000000000000000000000000
7520250401202504301281          40093100JM10387RB-MANGUEIRA SUSPIRO AR MOTOR                 PC    000000000000000000000000000
7520250401202504301292          84213990AKX2005-FILTRO ANTI POLEM                            PC    000000000000000000000000000
7520250401202504301293          84212300PSL78-FILTRO OLEO MOTOR                              PC    000000000000000000000000000
7520250401202504301295          85111000LKR7DDE-VELA IGNICAO                                 PC    000000000000000000000000000
7520250401202504301302          8511100046480362-VELA IGNICAO                                PC    000000000000000000000000000
7520250401202504301324          87083090ATE7630-CILINDRO RODA                                PC    000000000000000000000000000
7520250401202504301325          87088000SK325S-BATENTE AMORTECEDOR                           PC    000000000000000000000000000
7520250401202504301327          87088000SP039-AMORT SUSPENSAO DIANT                          PC    000000000000000000000000000
7520250401202504301328          87088000SP040-AMORT SUSPENSAO DIANT                          PC    000000000000000000000000000
7520250401202504301368          87089490335668-TERMINAL BARRA DIRECAO                        PC    000000000000000000000000000
7520250401202504301377          401031005PK1165-CORREIA                                      PC    000000000000000000000000000
7520250401202504301380          87083090FI91CPA-SAPATA FREIO C/ LONA COLADA                  PC    000000000000000000000000000
7520250401202504301382          8483900024592342-ENGRENAGEM VIRABREQUIM                      PC    000000000000000000000000000
7520250401202504301397          732090002091036-REP SAPATA FREIO                             JG    000000000000000000000000000
7520250401202504301404          87083019PD90-PASTILHA FREIO                                  JG    000000000000000000000000000
7520250401202504301406          870893003000000782-KIT EMBREAGEM                             JG    000000000000000000000000000
7520250401202504301425          84099190634963-FLANGE                                        PC    000000000000000000000000000
7520250401202504301437          84219999C37001-FILTRO AR                                     PC    000000000000000000000000000
7520250401202504301443          87083019PD85-PASTILHA FREIO                                  JG    000000000000000000000000000
7520250401202504301453          84219999ARL2203-FILTRO AR                                    PC    000000000000000000000000000
7520250401202504301454          8708910053330779-TAMPA RESERVATORIO                          PC    000000000000000000000000000
7520250401202504301459          38140090DESCARBONIZANTE PRO 300ML/230G                       UN    000000000000000000000000000
7520250401202504301466          84213990LA649-FILTRO ANTI POLEM                              PC    000000000000000000000000000
7520250401202504301471          84219999ARL4150-FILTRO AR                                    PC    000000000000000000000000000
7520250401202504301485          8708999052223895-RESERV AGUA RADIADOR                        PC    000000000000000000000000000
7520250401202504301487          4009329051834364-MANGUEIRA                                   PC    000000000000000000000000000
7520250401202504301489          84219999HLP8825-FILTRO AR                                    PC    000000000000000000000000000
7520250401202504301494          84219999LX3703-FILTRO AR                                     PC    000000000000000000000000000
7520250401202504301496          84219999ARL4157-FILTRO AR                                    PC    000000000000000000000000000
7520250401202504301510          84219999LX4894-FILTRO AR                                     PC    000000000000000000000000000
7520250401202504301519          87089490335073-TERMINAL BARRA DIRECAO                        PC    000000000000000000000000000
7520250401202504301523          87083090CB46CP-SAPATA FREIO C/ LONA COLADA                   JG    000000000000000000000000000
7520250401202504301529          85129000DYR14-PALHETA LIMPADOR                               PC    000000000000000000000000000
7520250401202504301542          84212300W752-FILTRO OLEO MOTOR                               PC    000000000000000000000000000
7520250401202504301546          85129000S24-PALHETA LIMPADOR                                 PC    000000000000000000000000000
7520250401202504301547          85129000S14-PALHETA LIMPADOR                                 PC    000000000000000000000000000
7520250401202504301555          84213990CU24363-FILTRO ANTI POLEM                            PC    000000000000000000000000000
7520250401202504301558          22019000AGUA 3LT KOUBE-AGUA DESMINERALIZADA                  GL    000000000000000000000000000
7520250401202504301572          84212300W7122-FILTRO OLEO MOTOR                              PC    000000000000000000000000000
7520250401202504301576          84219999ARL1659-FILTRO AR                                    PC    000000000000000000000000000
7520250401202504301581          401032007364PO-CORREIA                                       PC    000000000000000000000000000
7520250401202504301601          40093100762161-MANGUEIRA                                     PC    000000000000000000000000000
7520250401202504301608          870880000442629-KIT AMORTECEDOR TRASEIRO                     JG    000000000000000000000000000
7520250401202504301628          87089990SK3164-COXIM MOTOR                                   PC    000000000000000000000000000
7520250401202504301629          84213990LA472-FILTRO ANTI POLEM                              PC    000000000000000000000000000
7520250401202504301636          84212300PSL134-FILTRO OLEO MOTOR                             PC    000000000000000000000000000
7520250401202504301659          73269090ABRACADEIRA SEM FIM ZNB 16X27X12                     UN    000000000000000000000000000
7520250401202504301661          73269090ABRACADEIRA SEM FIM ZNB 25X40X12                     UN    000000000000000000000000000
7520250401202504301672          87083019PD1296-PASTILHA FREIO                                PC    000000000000000000000000000
7520250401202504301684          87089990030109145AL-PROTETOR DE CORREIAS                     PC    000000000000000000000000000
7520250401202504301687          84213990LA21-FILTRO ANTI POLEM                               PC    000000000000000000000000000
7520250401202504301698          4009310094749565-TUBO DAGUA                                  PC    000000000000000000000000000
7520250401202504301702          870880005312155-BIELETA BARRA ESTABILIZADORA                 PC    000000000000000000000000000
7520250401202504301719          85392910LAMPADA AUTOMOTIVA W5W 12V 5W                        UN    000000000000000000000000000
7520250401202504301722          85392910LAMPADA AUT 12V-21/5W 2 POLOS PINO DESENCONTRADO     UN    000000000000000000000000000
7520250401202504301739          87089490335301-TERMINAL BARRA DIRECAO                        PC    000000000000000000000000000
7520250401202504301743          40151900LUVA NITRILICA LARANJA DIAMOND TAM.10                UN    000000000000000000000000000
7520250401202504301744          40151900LUVA NITRILICA LARANJA DIAMOND TAM.8                 UN    000000000000000000000000000
7520250401202504301745          32141010SILICONE NEUTRO ALTA TEMP HT CZA 60G BLI             UN    000000000000000000000000000
7520250401202504301746          85392910LAMPADA AUTOMOTIVA H1 12V 55W                        UN    000000000000000000000000000
7520250401202504301747          85129000PALHETA DE PARA-BRISA STANDARD 22 550MM              UN    000000000000000000000000000
7520250401202504301748          85129000PALHETA DE PARA-BRISA STANDARD 16 400MM              UN    000000000000000000000000000
7520250401202504301749          85129000PALHETA DE PARA-BRISA STANDARD 19 475MM              UN    000000000000000000000000000
7520250401202504301750          85129000PALHETA DE PARA-BRISA STANDARD 20 500MM              UN    000000000000000000000000000
7520250401202504301751          85129000PALHETA DE PARA-BRISA STANDARD 18 450MM              UN    000000000000000000000000000
7520250401202504301752          76161000ARRUELA ALUMINIO 12X20X1,50MM BUJAO CAR              PC    000000000000000000000000000
7520250401202504301753          82054000CALIBRADOR PNEUS PNEUMATICO                          PC    000000000000000000000000000
7520250401202504301754          35069110COLA PARABRISA TUBO 380G                             PC    000000000000000000000000000
7520250401202504301755          85392110LAMPADA BASE VIDRO 2 POLOS 12V 21 -5W                PC    000000000000000000000000000
7520250401202504301756          85392110LAMPADA TORPEDO 11X36 12V 5W                         PC    000000000000000000000000000
7520250401202504301757          82074010MACHO P/R.POSTICA 7X1                                PC    000000000000000000000000000
7520250401202504301758          34013000PASTA DESENGRAXANTE AREOSA 5K                        PC    000000000000000000000000000
7520250401202504301759          73181900ROSCA POSTICA 7X1X2D                                 PC    000000000000000000000000000
7520250401202504301760          90189099TESTE BATERIA 100 AMPERES ANALOGICO                  PC    000000000000000000000000000
7520250401202504301761          87083090RCCR02860-CILINDRO RODA                              PC    000000000000000000000000000
7520250401202504301762          870880000442349-KIT AMORTECEDOR TRASEIRO                     JG    000000000000000000000000000
7520250401202504301763          87083090FI219CPA-SAPATA FREIO C/ LONA COLADA                 JG    000000000000000000000000000
7520250401202504301764          87088000SP115-AMORT SUSPENSAO TRAS                           PC    000000000000000000000000000
7520250401202504301765          84212300PSL818-FILTRO OLEO MOTOR                             PC    000000000000000000000000000
7520250401202504301766          84219999HU6006X-FILTRO OLEO MOTOR                            PC    000000000000000000000000000
7520250401202504301767          87089100522219-RADIADOR AGUA                                 PC    000000000000000000000000000
7520250401202504301768          87083019N1767-PASTILHA FREIO                                 PC    000000000000000000000000000
7520250401202504301769          84212990FCA1592-FILTRO CAMBIO AUTOMATICO                     PC    000000000000000000000000000
7520250401202504301770          39095029CS APLICADOR DE SILICONE CENTRALSUL UN               UN    000000000000000000000000000
7520250401202504301771          27121000CS VASELINA AEROSSOL 300 ML                          UN    000000000000000000000000000
7520250401202504301772          87088000NBJ9002EP-BANDEJA SUSP                               PC    000000000000000000000000000
7520250401202504301773          87088000NBJ9002DP-BANDEJA SUSP                               PC    000000000000000000000000000
7520250401202504301774          87083090HF200E-DISCO FREIO                                   PC    000000000000000000000000000
7520250401202504301775          87083019N1359-PASTILHA FREIO                                 JG    000000000000000000000000000
7520250401202504301776          401031005PK1051EE-CORREIA                                    PC    000000000000000000000000000
7520250401202504301777          87083090IKS1251-CABO FREIO DE MAO                            PC    000000000000000000000000000
7520250401202504301778          870830902677CPA-SAPATA FREIO C/ LONA COLADA                  JG    000000000000000000000000000
7520250401202504301779          84219999LX3785-FILTRO AR                                     PC    000000000000000000000000000
7520250401202504301780          84212300PSL56-FILTRO OLEO MOTOR                              PC    000000000000000000000000000
7520250401202504301781          84212300W6100-FILTRO OLEO MOTOR                              PC    000000000000000000000000000
7520250401202504301782          84212300W7128-FILTRO OLEO MOTOR                              PC    000000000000000000000000000
7520250401202504301783          87089100G1108-RESERV AGUA RADIADOR                           PC    000000000000000000000000000
7520250401202504301784          84213990CU2629-FILTRO ANTI POLEM                             PC    000000000000000000000000000
7520250401202504301785          90261029DS23157-SENSOR DE NIVEL DE COMBUSTIVEL               PC    000000000000000000000000000
7520250401202504301786          400931005U0121073-MANGUEIRA                                  PC    000000000000000000000000000
7520250401202504301787          8539211012258-LAMPADA                                        PC    000000000000000000000000000
7520250401202504301788          87089483NCD10136-CAIXA DIRECAO                               PC    000000000000000000000000000
7520250401202504301789          84212300PSL47-FILTRO OLEO MOTOR                              PC    000000000000000000000000000
7520250401202504301790          87088000NAK6009-PIVO SUSPENSAO                               PC    000000000000000000000000000
7520250401202504301791          87088000NBJ4001P-BRACO SUSPENSAO                             PC    000000000000000000000000000
7520250401202504301792          85129000DYS401-PALHETA LIMPADOR                              PC    000000000000000000000000000
7520250401202504301793          84212300W6MULTI20-FILTRO OLEO MOTOR                          PC    000000000000000000000000000
7520250401202504301794          8708999052056625-TUBO DAGUA                                  PC    000000000000000000000000000
7520250401202504301795          87083090BD4692-DISCO FREIO                                   PC    000000000000000000000000000
7520250401202504301796          84821090GB35200T02-ROL RODA                                  PC    000000000000000000000000000
7520250401202504301797          87089100MF414-RESERV AGUA RADIADOR                           PC    000000000000000000000000000
7520250401202504301798          87085099JDC03303-HOMOC CAIXA                                 PC    000000000000000000000000000
7520250401202504301799          87085099JHC03127-HOMOC RODA                                  JG    000000000000000000000000000
7520250401202504301800          90259090MTE4056-SENSOR TEMPERATURA I.E.                      PC    000000000000000000000000000
7520250401202504301801          87089990525087-COXIM CAMBIO                                  PC    000000000000000000000000000
7520250401202504301802          84219999ARL5144-FILTRO AR                                    PC    000000000000000000000000000
7520250401202504301803          87083019N456-PASTILHA FREIO                                  JG    000000000000000000000000000
7520250401202504301804          87089490335233-TERMINAL BARRA DIRECAO                        PC    000000000000000000000000000
7520250401202504301805          401699906Q0121367A-COXIM INFERIOR RADIADOR                   PC    000000000000000000000000000
7520250401202504301806          401699906QE121367-COXIM RADIADOR                             PC    000000000000000000000000000
7520250401202504301807          84821090GB43479S01R-ROL RODA                                 PC    000000000000000000000000000
7520250401202504301808          84219999C26201-FILTRO AR                                     PC    000000000000000000000000000
7520250401202504301809          87088000503009-PIVO SUSPENSAO                                PC    000000000000000000000000000
