10336213140001600034450680073 CRISTINA ISABEL DE CAMPOS          Belo Horizonte                MG31999760132024010120240131331
11Rua Caconde                       00875                      Renascença     31130510VINICIUS MURTA NERY         031934225098
5000001377828611ISENTO        20240103MG551  0000165405P000000000380000000000000000000000000000000000000000000000000038000000N
5000052823890610ISENTO        20240103MG551  0000175405P000000001860000000000000000000000000000000000000000000000000186000000N
5000014432854634ISENTO        20240111MG551  0000295405P000000005280000000000000000000000000000000000000000000000001111000000N
5000090122836634ISENTO        20240103MG551  0000185405P000000000640000000000000000000000000000000000000000000000000064000000N
5000054123038620ISENTO        20240112MG551  0000385405P000000003580000000000000000000000000000000000000000000000000358000000N
5000056043481634ISENTO        20240103MG551  0000195405P000000002940000000000000000000000000000000000000000000000000294000000N
5000020546750672ISENTO        20240103MG551  0000205405P000000002480000000000000000000000000000000000000000000000000248000000N
5000007753430645ISENTO        20240111MG551  0000305405P000000001480000000000000000000000000000000000000000000000000148000000N
5000007850812670ISENTO        20240118MG551  0000415405P000000002680000000000000000000000000000000000000000000000000638000000N
5000095527362691ISENTO        20240103MG551  0000215405P000000004740000000000000000000000000000000000000000000000000890000000N
5000031678521604ISENTO        20240111MG551  0000315405P000000002760000000000000000000000000000000000000000000000000404000000N
5000000650826647ISENTO        20240103MG551  0000225405P000000009940000000000000000000000000000000000000000000000001692000000N
5000052256979687ISENTO        20240103MG551  0000235405P000000017380000000000000000000000000000000000000000000000006179000000N
5000063528100630ISENTO        20240103MG551  0000245405P000000004540000000000000000000000000000000000000000000000000784000000N
5000000538754605ISENTO        20240103MG551  0000255405P000000002730000000000000000000000000000000000000000000000000377000000N
5000004225750620ISENTO        20240111MG551  0000325405P000000003240000000000000000000000000000000000000000000000000628000000N
5000011812770600ISENTO        20240112MG551  0000395405P000000010960000000000000000000000000000000000000000000000003212000000N
5000010337326649ISENTO        20240103MG551  0000265405P000000005130000000000000000000000000000000000000000000000001650000000N
5000029179122604ISENTO        20240111MG551  0000335405P000000008800000000000000000000000000000000000000000000000003455000000N
5000005000765613ISENTO        20240103MG551  0000275405P000000007530000000000000000000000000000000000000000000000003137000000N
5000009103378616ISENTO        20240103MG551  0000285405P000000010530000000000000000000000000000000000000000000000004976000000N
5000002964777616ISENTO        20240129MG551  0000515405P000000001590000000000000000000000000000000000000000000000000159000000N
5000004178914669ISENTO        20240130MG551  0000535405P000000000840000000000000000000000000000000000000000000000000084000000N
5000008739287688ISENTO        20240111MG551  0000345405P000000002570000000000000000000000000000000000000000000000001062500000N
5000052954366249ISENTO        20240112MG551  0000405405P000000000690000000000000000000000000000000000000000000000000069000000N
5000016041259691ISENTO        20240118MG551  0000425405P000000002250000000000000000000000000000000000000000000000000321000000N
5000023313641687ISENTO        20240111MG551  0000355405P000000000460000000000000000000000000000000000000000000000000046000000N
5000012950922635ISENTO        20240111MG551  0000365405P000000000820000000000000000000000000000000000000000000000000082000000N
5000019876688634ISENTO        20240118MG551  0000435405P000000002160000000000000000000000000000000000000000000000000290000000N
5000007790176684ISENTO        20240129MG551  0000525405P000000005030000000000000000000000000000000000000000000000001113000000N
5000043676375653ISENTO        20240111MG551  0000375405P000000000620000000000000000000000000000000000000000000000000062000000N
5000018711847620ISENTO        20240118MG551  0000445405P000000001580000000000000000000000000000000000000000000000000158000000N
5000000452115310ISENTO        20240118MG551  0000455405P000000007230000000000000000000000000000000000000000000000002114000000N
5000020088205649ISENTO        20240118MG551  0000465405P000000002360000000000000000000000000000000000000000000000000334000000N
5000005431583654ISENTO        20240130MG551  0000545405P000000021430000000000000000000000000000000000000000000000009637000000N
5000053382986604ISENTO        20240118MG551  0000475405P000000011650000000000000000000000000000000000000000000000003921000000N
5000087958171668ISENTO        20240130MG551  0000555405P000000000820000000000000000000000000000000000000000000000000082000000N
5000010241974682ISENTO        20240118MG551  0000485405P000000000960000000000000000000000000000000000000000000000000096000000N
5000040924343672ISENTO        20240118MG551  0000495405P000000001490000000000000000000000000000000000000000000000000149000000N
5000009011417631ISENTO        20240118MG551  0000505405P000000016130000000000000000000000000000000000000000000000013915640000N
50215322700001130624775200061 20240105MG551  0080241403T000000027140700000000000000000000000000000000000000000000000000000000N
50215322700001130624775200061 20240111MG551  0080681403T000000022593900000000000000000000000000000000000000000000000000000000N
50215322700001130624775200061 20240118MG551  0081191403T000000024623700000000000000000000000000000000000000000000000000000000N
50215322700001130624775200061 20240129MG551  0081771403T000000044737600000000000000000000000000000000000000000000000000000000N
5100001377828611ISENTO        20240103MG1  00001654050000000000000000000000000000000000000000000000000000                    N
5100052823890610ISENTO        20240103MG1  00001754050000000000000000000000000000000000000000000000000000                    N
5100090122836634ISENTO        20240103MG1  00001854050000000000000000000000000000000000000000000000000000                    N
5100056043481634ISENTO        20240103MG1  00001954050000000000000000000000000000000000000000000000000000                    N
5100020546750672ISENTO        20240103MG1  00002054050000000000000000000000000000000000000000000000000000                    N
5100095527362691ISENTO        20240103MG1  00002154050000000000000000000000000000000000000000000000000000                    N
5100000650826647ISENTO        20240103MG1  00002254050000000000000000000000000000000000000000000000000000                    N
5100052256979687ISENTO        20240103MG1  00002354050000000000000000000000000000000000000000000000000000                    N
5100063528100630ISENTO        20240103MG1  00002454050000000000000000000000000000000000000000000000000000                    N
5100000538754605ISENTO        20240103MG1  00002554050000000000000000000000000000000000000000000000000000                    N
5100010337326649ISENTO        20240103MG1  00002654050000000000000000000000000000000000000000000000000000                    N
5100005000765613ISENTO        20240103MG1  00002754050000000000000000000000000000000000000000000000000000                    N
5100009103378616ISENTO        20240103MG1  00002854050000000000000000000000000000000000000000000000000000                    N
51215322700001130624775200061 20240105MG1  00802414030000000000000000000000000000000000000000000000000000                    N
51215322700001130624775200061 20240111MG1  00806814030000000000000000000000000000000000000000000000000000                    N
5100014432854634ISENTO        20240111MG1  00002954050000000000000000000000000000000000000000000000000000                    N
5100007753430645ISENTO        20240111MG1  00003054050000000000000000000000000000000000000000000000000000                    N
5100031678521604ISENTO        20240111MG1  00003154050000000000000000000000000000000000000000000000000000                    N
5100004225750620ISENTO        20240111MG1  00003254050000000000000000000000000000000000000000000000000000                    N
5100029179122604ISENTO        20240111MG1  00003354050000000000000000000000000000000000000000000000000000                    N
5100008739287688ISENTO        20240111MG1  00003454050000000000000000000000000000000000000000000000000000                    N
5100023313641687ISENTO        20240111MG1  00003554050000000000000000000000000000000000000000000000000000                    N
5100012950922635ISENTO        20240111MG1  00003654050000000000000000000000000000000000000000000000000000                    N
5100043676375653ISENTO        20240111MG1  00003754050000000000000000000000000000000000000000000000000000                    N
5100054123038620ISENTO        20240112MG1  00003854050000000000000000000000000000000000000000000000000000                    N
5100011812770600ISENTO        20240112MG1  00003954050000000000000000000000000000000000000000000000000000                    N
5100052954366249ISENTO        20240112MG1  00004054050000000000000000000000000000000000000000000000000000                    N
51215322700001130624775200061 20240118MG1  00811914030000000000000000000000000000000000000000000000000000                    N
5100007850812670ISENTO        20240118MG1  00004154050000000000000000000000000000000000000000000000000000                    N
5100016041259691ISENTO        20240118MG1  00004254050000000000000000000000000000000000000000000000000000                    N
5100019876688634ISENTO        20240118MG1  00004354050000000000000000000000000000000000000000000000000000                    N
5100018711847620ISENTO        20240118MG1  00004454050000000000000000000000000000000000000000000000000000                    N
5100000452115310ISENTO        20240118MG1  00004554050000000000000000000000000000000000000000000000000000                    N
5100020088205649ISENTO        20240118MG1  00004654050000000000000000000000000000000000000000000000000000                    N
5100053382986604ISENTO        20240118MG1  00004754050000000000000000000000000000000000000000000000000000                    N
5100010241974682ISENTO        20240118MG1  00004854050000000000000000000000000000000000000000000000000000                    N
5100040924343672ISENTO        20240118MG1  00004954050000000000000000000000000000000000000000000000000000                    N
5100009011417631ISENTO        20240118MG1  00005054050000000000000000000000000000000000000000000000000000                    N
51215322700001130624775200061 20240129MG1  00817714030000000000000000000000000000000000000000000000000000                    N
5100002964777616ISENTO        20240129MG1  00005154050000000000000000000000000000000000000000000000000000                    N
5100007790176684ISENTO        20240129MG1  00005254050000000000000000000000000000000000000000000000000000                    N
5100004178914669ISENTO        20240130MG1  00005354050000000000000000000000000000000000000000000000000000                    N
5100005431583654ISENTO        20240130MG1  00005454050000000000000000000000000000000000000000000000000000                    N
5100087958171668ISENTO        20240130MG1  00005554050000000000000000000000000000000000000000000000000000                    N
5300001377828611ISENTO        20240103MG551  0000165405P000000000000000000000000000000000000000N                              
5300052823890610ISENTO        20240103MG551  0000175405P000000000000000000000000000000000000000N                              
5300014432854634ISENTO        20240111MG551  0000295405P000000000000000000000000000000000000000N                              
5300090122836634ISENTO        20240103MG551  0000185405P000000000000000000000000000000000000000N                              
5300054123038620ISENTO        20240112MG551  0000385405P000000000000000000000000000000000000000N                              
5300056043481634ISENTO        20240103MG551  0000195405P000000000000000000000000000000000000000N                              
5300020546750672ISENTO        20240103MG551  0000205405P000000000000000000000000000000000000000N                              
5300007753430645ISENTO        20240111MG551  0000305405P000000000000000000000000000000000000000N                              
5300007850812670ISENTO        20240118MG551  0000415405P000000000000000000000000000000000000000N                              
5300095527362691ISENTO        20240103MG551  0000215405P000000000000000000000000000000000000000N                              
5300031678521604ISENTO        20240111MG551  0000315405P000000000000000000000000000000000000000N                              
5300000650826647ISENTO        20240103MG551  0000225405P000000000000000000000000000000000000000N                              
5300052256979687ISENTO        20240103MG551  0000235405P000000000000000000000000000000000000000N                              
5300063528100630ISENTO        20240103MG551  0000245405P000000000000000000000000000000000000000N                              
5300000538754605ISENTO        20240103MG551  0000255405P000000000000000000000000000000000000000N                              
5300004225750620ISENTO        20240111MG551  0000325405P000000000000000000000000000000000000000N                              
5300011812770600ISENTO        20240112MG551  0000395405P000000000000000000000000000000000000000N                              
5300010337326649ISENTO        20240103MG551  0000265405P000000000000000000000000000000000000000N                              
5300029179122604ISENTO        20240111MG551  0000335405P000000000000000000000000000000000000000N                              
5300005000765613ISENTO        20240103MG551  0000275405P000000000000000000000000000000000000000N                              
5300009103378616ISENTO        20240103MG551  0000285405P000000000000000000000000000000000000000N                              
5300002964777616ISENTO        20240129MG551  0000515405P000000000000000000000000000000000000000N                              
5300004178914669ISENTO        20240130MG551  0000535405P000000000000000000000000000000000000000N                              
5300008739287688ISENTO        20240111MG551  0000345405P000000000000000000000000000000000000000N                              
5300052954366249ISENTO        20240112MG551  0000405405P000000000000000000000000000000000000000N                              
5300016041259691ISENTO        20240118MG551  0000425405P000000000000000000000000000000000000000N                              
5300023313641687ISENTO        20240111MG551  0000355405P000000000000000000000000000000000000000N                              
5300012950922635ISENTO        20240111MG551  0000365405P000000000000000000000000000000000000000N                              
5300019876688634ISENTO        20240118MG551  0000435405P000000000000000000000000000000000000000N                              
5300007790176684ISENTO        20240129MG551  0000525405P000000000000000000000000000000000000000N                              
5300043676375653ISENTO        20240111MG551  0000375405P000000000000000000000000000000000000000N                              
5300018711847620ISENTO        20240118MG551  0000445405P000000000000000000000000000000000000000N                              
5300000452115310ISENTO        20240118MG551  0000455405P000000000000000000000000000000000000000N                              
5300020088205649ISENTO        20240118MG551  0000465405P000000000000000000000000000000000000000N                              
5300005431583654ISENTO        20240130MG551  0000545405P000000000000000000000000000000000000000N                              
5300053382986604ISENTO        20240118MG551  0000475405P000000000000000000000000000000000000000N                              
5300087958171668ISENTO        20240130MG551  0000555405P000000000000000000000000000000000000000N                              
5300010241974682ISENTO        20240118MG551  0000485405P000000000000000000000000000000000000000N                              
5300040924343672ISENTO        20240118MG551  0000495405P000000000000000000000000000000000000000N                              
5300009011417631ISENTO        20240118MG551  0000505405P000000000000000000000000000000000000000N                              
53215322700001130624775200061 20240105MG551  0080241403T000000000000000000000000000000000000000N                              
53215322700001130624775200061 20240111MG551  0080681403T000000000000000000000000000000000000000N                              
53215322700001130624775200061 20240118MG551  0081191403T000000000000000000000000000000000000000N                              
53215322700001130624775200061 20240129MG551  0081771403T000000000000000000000000000000000000000N                              
5400001377828611551  0000165405500001581           000000010000000000038000000000000000000000000000000000000000000000000000000
5400052823890610551  0000175405500001584           000000010000000000186000000000000000000000000000000000000000000000000000000
5400014432854634551  0000295405500001622           000000010000000000127000000000000000000000000000000000000000000000000000000
5400014432854634551  0000295405500002512           000000010000000000329000000000000000000000000000000000000000000000000000000
5400014432854634551  0000295405500003513           000000020000000000072000000000000000000000000000000000000000000000000000000
5400090122836634551  0000185405500001583           000000010000000000064000000000000000000000000000000000000000000000000000000
5400054123038620551  0000385405500001512           000000010000000000358000000000000000000000000000000000000000000000000000000
5400056043481634551  0000195405500001580           000000010000000000294000000000000000000000000000000000000000000000000000000
5400020546750672551  0000205405500001591           000000020000000000248000000000000000000000000000000000000000000000000000000
5400007753430645551  0000305405500001628           000000010000000000148000000000000000000000000000000000000000000000000000000
5400007850812670551  0000415405500001520           000000010000000000149000000000000000000000000000000000000000000000000000000
5400007850812670551  0000415405500002637           000000010000000000072000000000000000000000000000000000000000000000000000000
5400007850812670551  0000415405500003645           000000010000000000047000000000000000000000000000000000000000000000000000000
5400095527362691551  0000215405500001598           000000040000000000416000000000000000000000000000000000000000000000000000000
5400095527362691551  0000215405500002582           000000010000000000058000000000000000000000000000000000000000000000000000000
5400031678521604551  0000315405500001634           000000020000000000128000000000000000000000000000000000000000000000000000000
5400031678521604551  0000315405500002571           000000010000000000148000000000000000000000000000000000000000000000000000000
5400000650826647551  0000225405500001596           000000020000000000134000000000000000000000000000000000000000000000000000000
5400000650826647551  0000225405500002592           000000010000000000430000000000000000000000000000000000000000000000000000000
5400000650826647551  0000225405500003593           000000010000000000430000000000000000000000000000000000000000000000000000000
5400052256979687551  0000235405500001600           000000010000000000515000000000000000000000000000000000000000000000000000000
5400052256979687551  0000235405500002601           000000010000000000515000000000000000000000000000000000000000000000000000000
5400052256979687551  0000235405500003603           000000020000000000166000000000000000000000000000000000000000000000000000000
5400052256979687551  0000235405500004602           000000020000000000504000000000000000000000000000000000000000000000000000000
5400052256979687551  0000235405500005594           000000010000000000038000000000000000000000000000000000000000000000000000000
5400063528100630551  0000245405500001605           000000020000000000330000000000000000000000000000000000000000000000000000000
5400063528100630551  0000245405500002606           000000020000000000124000000000000000000000000000000000000000000000000000000
5400000538754605551  0000255405500001617           000000020000000000104000000000000000000000000000000000000000000000000000000
5400000538754605551  0000255405500002599           000000010000000000169000000000000000000000000000000000000000000000000000000
5400004225750620551  0000325405500001638           000000020000000000134000000000000000000000000000000000000000000000000000000
5400004225750620551  0000325405500002639           000000010000000000036000000000000000000000000000000000000000000000000000000
5400004225750620551  0000325405500003641           000000020000000000154000000000000000000000000000000000000000000000000000000
5400011812770600551  0000395405500001586           000000010000000000210000000000000000000000000000000000000000000000000000000
5400011812770600551  0000395405500002578           000000010000000000068000000000000000000000000000000000000000000000000000000
5400011812770600551  0000395405500003651           000000010000000000316000000000000000000000000000000000000000000000000000000
5400011812770600551  0000395405500004656           000000010000000000440000000000000000000000000000000000000000000000000000000
5400011812770600551  0000395405500005650           000000010000000000062000000000000000000000000000000000000000000000000000000
5400010337326649551  0000265405500001616           000000040000000000078000000000000000000000000000000000000000000000000000000
5400010337326649551  0000265405500002613           000000010000000000145000000000000000000000000000000000000000000000000000000
5400010337326649551  0000265405500003614           000000010000000000176000000000000000000000000000000000000000000000000000000
5400010337326649551  0000265405500004615           000000010000000000038000000000000000000000000000000000000000000000000000000
5400010337326649551  0000265405500005610           000000010000000000076000000000000000000000000000000000000000000000000000000
5400029179122604551  0000335405500001631           000000010000000000159000000000000000000000000000000000000000000000000000000
5400029179122604551  0000335405500002632           000000010000000000259000000000000000000000000000000000000000000000000000000
5400029179122604551  0000335405500003630           000000010000000000186000000000000000000000000000000000000000000000000000000
5400029179122604551  0000335405500004644           000000010000000000046000000000000000000000000000000000000000000000000000000
5400029179122604551  0000335405500005646           000000010000000000094000000000000000000000000000000000000000000000000000000
5400029179122604551  0000335405500006643           000000010000000000136000000000000000000000000000000000000000000000000000000
5400005000765613551  0000275405500001609           000000010000000000325000000000000000000000000000000000000000000000000000000
5400005000765613551  0000275405500002608           000000010000000000058000000000000000000000000000000000000000000000000000000
5400005000765613551  0000275405500003618           000000010000000000098000000000000000000000000000000000000000000000000000000
5400005000765613551  0000275405500004619           000000010000000000089000000000000000000000000000000000000000000000000000000
5400005000765613551  0000275405500005578           000000010000000000055000000000000000000000000000000000000000000000000000000
5400005000765613551  0000275405500006604           000000010000000000128000000000000000000000000000000000000000000000000000000
5400009103378616551  0000285405500001587           000000010000000000212000000000000000000000000000000000000000000000000000000
5400009103378616551  0000285405500002574           000000010000000000132000000000000000000000000000000000000000000000000000000
5400009103378616551  0000285405500003575           000000010000000000369000000000000000000000000000000000000000000000000000000
5400009103378616551  0000285405500004585           000000010000000000145000000000000000000000000000000000000000000000000000000
5400009103378616551  0000285405500005590           000000010000000000023000000000000000000000000000000000000000000000000000000
5400009103378616551  0000285405500006595           000000010000000000034000000000000000000000000000000000000000000000000000000
5400009103378616551  0000285405500007597           000000020000000000138000000000000000000000000000000000000000000000000000000
5400002964777616551  0000515405500001538           000000010000000000159000000000000000000000000000000000000000000000000000000
5400004178914669551  0000535405500001707           000000010000000000084000000000000000000000000000000000000000000000000000000
5400008739287688551  0000345405500001635           000000010000000000168000000000000000000000000000000000000000000000000000000
5400008739287688551  0000345405500002636           000000010000000000022250000000000000000000000000000000000000000000000000000
5400008739287688551  0000345405500003636           000000010000000000022250000000000000000000000000000000000000000000000000000
5400008739287688551  0000345405500004636           000000010000000000022250000000000000000000000000000000000000000000000000000
5400008739287688551  0000345405500005636           000000010000000000022250000000000000000000000000000000000000000000000000000
5400052954366249551  0000405405500001645           000000010000000000069000000000000000000000000000000000000000000000000000000
5400016041259691551  0000425405500001654           000000040000000000096000000000000000000000000000000000000000000000000000000
5400016041259691551  0000425405500002613           000000010000000000129000000000000000000000000000000000000000000000000000000
5400023313641687551  0000355405500001625           000000010000000000046000000000000000000000000000000000000000000000000000000
5400012950922635551  0000365405500001579           000000010000000000082000000000000000000000000000000000000000000000000000000
5400019876688634551  0000435405500001549           000000010000000000074000000000000000000000000000000000000000000000000000000
5400019876688634551  0000435405500002547           000000010000000000142000000000000000000000000000000000000000000000000000000
5400007790176684551  0000525405500001691           000000020000000000196000000000000000000000000000000000000000000000000000000
5400007790176684551  0000525405500002702           000000010000000000218000000000000000000000000000000000000000000000000000000
5400007790176684551  0000525405500003703           000000040000000000089000000000000000000000000000000000000000000000000000000
5400043676375653551  0000375405500001558           000000010000000000062000000000000000000000000000000000000000000000000000000
5400018711847620551  0000445405500001635           000000010000000000158000000000000000000000000000000000000000000000000000000
5400000452115310551  0000455405500001512           000000010000000000356000000000000000000000000000000000000000000000000000000
5400000452115310551  0000455405500002673           000000010000000000142000000000000000000000000000000000000000000000000000000
5400000452115310551  0000455405500003674           000000010000000000039000000000000000000000000000000000000000000000000000000
5400000452115310551  0000455405500004665           000000010000000000186000000000000000000000000000000000000000000000000000000
5400020088205649551  0000465405500001664           000000040000000000098000000000000000000000000000000000000000000000000000000
5400020088205649551  0000465405500002662           000000010000000000138000000000000000000000000000000000000000000000000000000
5400005431583654551  0000545405500001684           000000010000000000498000000000000000000000000000000000000000000000000000000
5400005431583654551  0000545405500002682           000000020000000000864000000000000000000000000000000000000000000000000000000
5400005431583654551  0000545405500003686           000000020000000000378000000000000000000000000000000000000000000000000000000
5400005431583654551  0000545405500004687           000000010000000000129000000000000000000000000000000000000000000000000000000
5400005431583654551  0000545405500005685           000000020000000000156000000000000000000000000000000000000000000000000000000
5400005431583654551  0000545405500006683           000000020000000000118000000000000000000000000000000000000000000000000000000
5400053382986604551  0000475405500001668           000000020000000000784000000000000000000000000000000000000000000000000000000
5400053382986604551  0000475405500002672           000000010000000000129000000000000000000000000000000000000000000000000000000
5400053382986604551  0000475405500003671           000000010000000000146000000000000000000000000000000000000000000000000000000
5400053382986604551  0000475405500004667           000000010000000000106000000000000000000000000000000000000000000000000000000
5400087958171668551  0000555405500001666           000000010000000000082000000000000000000000000000000000000000000000000000000
5400010241974682551  0000485405500001626           000000010000000000096000000000000000000000000000000000000000000000000000000
5400040924343672551  0000495405500001663           000000010000000000149000000000000000000000000000000000000000000000000000000
5400009011417631551  0000505405500001669           000000010000000000020000000000000000000000000000000000000000000000000000000
5400009011417631551  0000505405500002624           000000010000000000040000000000000000000000000000000000000000000000000000000
5400009011417631551  0000505405500003621           000000010000000000050000000000000000000000000000000000000000000000000000000
5400009011417631551  0000505405500004627           000000010000000000025000000000000000000000000000000000000000000000000000000
5400009011417631551  0000505405500005621           000000010000000000055000000000000000000000000000000000000000000000000000000
5400009011417631551  0000505405500006629           000000030000000000075000000000000000000000000000000000000000000000000000000
5400009011417631551  0000505405500007543           000000010000000000067000000000000000000000000000000000000000000000000000000
5400009011417631551  0000505405500008633           000000040000000000160000000000000000000000000000000000000000000000000000000
5400009011417631551  0000505405500009535           000000010000000000180000000000000000000000000000000000000000000000000000000
5400009011417631551  0000505405500010640           000000010000000000044000000000000000000000000000000000000000000000000000000
5400009011417631551  0000505405500011642           000000010000000000098000000000000000000000000000000000000000000000000000000
5400009011417631551  0000505405500012548           000000010000000000150000000000000000000000000000000000000000000000000000000
5400009011417631551  0000505405500013552           000000020000000000132000000000000000000000000000000000000000000000000000000
5400009011417631551  0000505405500014555           000000010000000000060000000000000000000000000000000000000000000000000000000
5400009011417631551  0000505405500015557           000000010000000000070000000000000000000000000000000000000000000000000000000
5400009011417631551  0000505405500016559           000000010000000000030000000000000000000000000000000000000000000000000000000
5400009011417631551  0000505405500017563           000000010000000000045000000000000000000000000000000000000000000000000000000
5400009011417631551  0000505405500018568           000000040000000000196640000000000000000000000000000000000000000000000000000
5400009011417631551  0000505405500019577           000000010000000000115360000000000000000000000000000000000000000000000000000
5421532270000113551  0080241403060001622           000000010000000000107000000000015510000000000000000000000000000000000000000
5421532270000113551  0080241403060002512           000000010000000000305000000000044220000000000000000000033880000000000000000
5421532270000113551  0080241403060003513           000000020000000000071000000000010290000000000000000000000000000000000000000
5421532270000113551  0080241403060004623           000000010000000000017500000000002540000000000000000000000000000000000000000
5421532270000113551  0080241403060005624           000000010000000000045000000000006520000000000000000000000000000000000000000
5421532270000113551  0080241403060006625           000000010000000000041000000000005940000000000000000000000000000000000000000
5421532270000113551  0080241403060007621           000000010000000000051000000000007390000000000000000000006530000000000000000
5421532270000113551  0080241403060008626           000000010000000000080000000000011600000000000000000000000000000000000000000
5421532270000113551  0080241403060009627           000000010000000000020000000000002900000000000000000000000000000000000000000
5421532270000113551  0080241403060010621           000000010000000000051000000000007390000000000000000000006530000000000000000
5421532270000113551  0080241403060011628           000000010000000000108000000000015660000000000000000000000000000000000000000
5421532270000113551  0080241403060012629           000000030000000000078000000000011310000000000000000000000000000000000000000
5421532270000113551  0080241403060013630           000000010000000000140000000000020300000000000000000000000000000000000000000
5421532270000113551  0080241403060014631           000000010000000000140000000000020300000000000000000000000000000000000000000
5421532270000113551  0080241403060015632           000000010000000000239000000000034650000000000000000000000000000000000000000
5421532270000113551  0080241403060016543           000000010000000000059500000000008630000000000000000000000000000000000000000
5421532270000113551  0080241403060017633           000000040000000000180000000000026100000000000000000000000000000000000000000
5421532270000113551  0080241403060018634           000000020000000000052000000000007540000000000000000000000000000000000000000
5421532270000113551  0080241403060019571           000000010000000000118000000000017110000000000000000000012410000000000000000
5421532270000113551  0080241403060020635           000000010000000000146000000000021170000000000000000000000000000000000000000
5421532270000113551  0080241403060021636           000000040000000000078000000000011310000000000000000000000000000000000000000
5421532270000113551  0080241403060022520           000000010000000000159900000000023190000000000000000000000000000000000000000
5421532270000113551  0080241403060023637           000000010000000000065000000000009420000000000000000000000000000000000000000
5421532270000113551  0080241403060024535           000000010000000000181000000000026240000000000000000000018090000000000000000
5421532270000113551  0080241403060025638           000000020000000000096000000000013920000000000000000000000000000000000000000
5421532270000113551  0080241403060026639           000000010000000000029900000000004340000000000000000000000000000000000000000
5421532270000113551  0080241403060027640           000000010000000000042000000000006090000000000000000000000000000000000000000
5421532270000113551  0080241403060028641           000000020000000000114000000000016530000000000000000000000000000000000000000
5421532270000113551  0080241403060029642           000000010000000000089500000000012980000000000000000000009280000000000000000
5421532270000113551  0080241403060030643           000000010000000000115000000000016670000000000000000000000000000000000000000
5421532270000113551  0080241403060031644           000000010000000000033000000000004780000000000000000000000000000000000000000
5421532270000113551  0080241403060032645           000000010000000000044000000000006380000000000000000000000000000000000000000
5421532270000113551  0080241403060033646           000000010000000000078000000000011310000000000000000000000000000000000000000
5421532270000113551  0080681403060001647           000000010000000000296490000000000000000000000000000000000000000000000000000
5421532270000113551  0080681403060002648           000000010000000000296490000000000000000000000000000000000000000000000000000
5421532270000113551  0080681403060003649           000000010000000000086100000000000000000000000000000000000000000000000000000
5421532270000113551  0080681403060004650           000000010000000000051170000000000000000000000000000000000000000000000000000
5421532270000113551  0080681403060005651           000000010000000000264000000000000000000000000000000000000000000000000000000
5421532270000113551  0080681403060006652           000000010000000000043050000000000000000000000000000000000000000000000000000
5421532270000113551  0080681403060007653           000000010000000000013400000000000000000000000000000000000000000000000000000
5421532270000113551  0080681403060008579           000000010000000000044680000000000000000000000000000000000000000000000000000
5421532270000113551  0080681403060009613           000000010000000000105600000000000000000000000000000000000000000000000000000
5421532270000113551  0080681403060010654           000000040000000000053600000000000000000000000000000000000000000000000000000
5421532270000113551  0080681403060011655           000000010000000000029650000000000000000000000000000000003120000000000000000
5421532270000113551  0080681403060012656           000000010000000000365530000000000000000000000000000000000000000000000000000
5421532270000113551  0080681403060013657           000000010000000000020710000000000000000000000000000000000000000000000000000
5421532270000113551  0080681403060014658           000000010000000000077980000000000000000000000000000000009680000000000000000
5421532270000113551  0080681403060015659           000000010000000000025180000000000000000000000000000000000000000000000000000
5421532270000113551  0080681403060016512           000000020000000000485760000000000000000000000000000000067760000000000000000
5421532270000113551  0081191403060001520           000000010000000000129890000000000000000000000000000000000000000000000000000
5421532270000113551  0081191403060002660           000000010000000000064170000000000000000000000000000000000000000000000000000
5421532270000113551  0081191403060003661           000000010000000000036550000000000000000000000000000000000000000000000000000
5421532270000113551  0081191403060004515           000000040000000000076360000000000000000000000000000000000000000000000000000
5421532270000113551  0081191403060005662           000000010000000000109660000000000000000000000000000000000000000000000000000
5421532270000113551  0081191403060006663           000000010000000000049140000000000000000000000000000000000000000000000000000
5421532270000113551  0081191403060007664           000000040000000000082840000000000000000000000000000000000000000000000000000
5421532270000113551  0081191403060008665           000000010000000000145400000000000000000000000000000000000000000000000000000
5421532270000113551  0081191403060009666           000000010000000000077170000000000000000000000000000000000000000000000000000
5421532270000113551  0081191403060010667           000000010000000000090980000000000000000000000000000000000000000000000000000
5421532270000113551  0081191403060011668           000000020000000000731060000000000000000000000000000000000000000000000000000
5421532270000113551  0081191403060012669           000000010000000000017060000000000000000000000000000000000000000000000000000
5421532270000113551  0081191403060013670           000000010000000000060920000000000000000000000000000000009210000000000000000
5421532270000113551  0081191403060014671           000000010000000000063360000000000000000000000000000000000000000000000000000
5421532270000113551  0081191403060015672           000000010000000000103160000000000000000000000000000000013720000000000000000
5421532270000113551  0081191403060016673           000000010000000000100730000000000000000000000000000000000000000000000000000
5421532270000113551  0081191403060017674           000000010000000000022340000000000000000000000000000000000000000000000000000
5421532270000113551  0081191403060018675           000000010000000000014620000000000000000000000000000000000000000000000000000
5421532270000113551  0081191403060019555           000000010000000000055640000000000000000000000000000000000000000000000000000
5421532270000113551  0081191403060020676           000000010000000000043050000000000000000000000000000000000000000000000000000
5421532270000113551  0081191403060021635           000000010000000000124280000000000000000000000000000000000000000000000000000
5421532270000113551  0081191403060022636           000000040000000000064160000000000000000000000000000000000000000000000000000
5421532270000113551  0081191403060023515           000000040000000000076360000000000000000000000000000000000000000000000000000
5421532270000113551  0081191403060024677           000000010000000000080420000000000000000000000000000000000000000000000000000
5421532270000113551  0081191403060025678           000000010000000000043050000000000000000000000000000000000000000000000000000
5421532270000113551  0081771403060001679           000000010000000000186830000000000000000000000000000000000000000000000000000
5421532270000113551  0081771403060002680           000000010000000000034120000000000000000000000000000000000000000000000000000
5421532270000113551  0081771403060003681           000000040000000000089360000000000000000000000000000000000000000000000000000
5421532270000113551  0081771403060004613           000000010000000000105600000000000000000000000000000000000000000000000000000
5421532270000113551  0081771403060005682           000000020000000000783060000000000000000000000000000000000000000000000000000
5421532270000113551  0081771403060006683           000000020000000000090980000000000000000000000000000000000000000000000000000
5421532270000113551  0081771403060007684           000000010000000000393970000000000000000000000000000000050250000000000000000
5421532270000113551  0081771403060008685           000000020000000000126720000000000000000000000000000000000000000000000000000
5421532270000113551  0081771403060009686           000000020000000000333040000000000000000000000000000000000000000000000000000
5421532270000113551  0081771403060010687           000000010000000000103160000000000000000000000000000000013150000000000000000
5421532270000113551  0081771403060011688           000000010000000000272120000000000000000000000000000000000000000000000000000
5421532270000113551  0081771403060012689           000000010000000000017870000000000000000000000000000000000000000000000000000
5421532270000113551  0081771403060013690           000000010000000000017060000000000000000000000000000000000000000000000000000
5421532270000113551  0081771403060014691           000000020000000000170580000000000000000000000000000000000000000000000000000
5421532270000113551  0081771403060015692           000000010000000000123470000000000000000000000000000000000000000000000000000
5421532270000113551  0081771403060016693           000000010000000000038180000000000000000000000000000000000000000000000000000
5421532270000113551  0081771403060017694           000000010000000000054420000000000000000000000000000000000000000000000000000
5421532270000113551  0081771403060018695           000000020000000000298920000000000000000000000000000000000000000000000000000
5421532270000113551  0081771403060019696           000000010000000000096660000000000000000000000000000000000000000000000000000
5421532270000113551  0081771403060020697           000000010000000000147840000000000000000000000000000000000000000000000000000
5421532270000113551  0081771403060021698           000000010000000000069050000000000000000000000000000000000000000000000000000
5421532270000113551  0081771403060022699           000000010000000000055240000000000000000000000000000000000000000000000000000
5421532270000113551  0081771403060023700           000000010000000000099910000000000000000000000000000000000000000000000000000
5421532270000113551  0081771403060024701           000000020000000000110480000000000000000000000000000000000000000000000000000
5421532270000113551  0081771403060025702           000000010000000000198200000000000000000000000000000000000000000000000000000
5421532270000113551  0081771403060026703           000000040000000000076360000000000000000000000000000000000000000000000000000
5421532270000113551  0081771403060027538           000000010000000000126720000000000000000000000000000000000000000000000000000
5421532270000113551  0081771403060028704           000000010000000000027620000000000000000000000000000000000000000000000000000
5421532270000113551  0081771403060029705           000000010000000000025990000000000000000000000000000000000000000000000000000
5421532270000113551  0081771403060030706           000000010000000000138090000000000000000000000000000000000000000000000000000
5421532270000113551  0081771403060031707           000000010000000000062140000000000000000000000000000000000000000000000000000
752024010120240131512           870893003000000144-KIT EMBREAGEM                             JG    000000000000000000000000000
752024010120240131513           27101932SAE80 GL4-OLEO CAMBIO                                PC    000000000000000000000000000
752024010120240131515           85111000BKR7ESB-VELA IGNICAO                                 PC    000000000000000000000000000
752024010120240131520           84213990030103464A-ANTI CHAMA                                PC    000000000000000000000000000
752024010120240131535           87089990SK4953-SUPORTE MOTOR                                 PC    000000000000000000000000000
752024010120240131538           87083019P1492-PASTILHA FREIO                                 PC    000000000000000000000000000
752024010120240131543           84219999LX4372-FILTRO AR                                     PC    000000000000000000000000000
752024010120240131547           87083090BD3545-DISCO FREIO                                   PC    000000000000000000000000000
752024010120240131548           87083019PD94-PASTILHA FREIO                                  JG    000000000000000000000000000
752024010120240131549           87083019P85-PASTILHA FREIO                                   JG    000000000000000000000000000
752024010120240131552           87088000LT60000-BIELETA BARRA ESTABILIZADORA                 PC    000000000000000000000000000
752024010120240131555           85129000B316-PALHETA LIMPADOR                                JG    000000000000000000000000000
752024010120240131557           401031007PK1125-CORREIA                                      PC    000000000000000000000000000
752024010120240131558           84219999C23110-FILTRO AR                                     PC    000000000000000000000000000
752024010120240131559           84212300W8118-FILTRO OLEO MOTOR                              PC    000000000000000000000000000
752024010120240131563           84219999C23023-FILTRO AR                                     PC    000000000000000000000000000
752024010120240131568           271019325W30 DEXOS2-OLEO MOTOR                               PC    000000000000000000000000000
752024010120240131571           87083019P685-PASTILHA FREIO                                  JG    000000000000000000000000000
752024010120240131574           39174090XS6E9K478AF-CARCACA VALVULA TERMOSTATICA             PC    000000000000000000000000000
752024010120240131575           84818021410154100-VALVULA TERMOSTATICA                       PC    000000000000000000000000000
752024010120240131577           85119000594381-PORTA ESCOVA MOTOR PARTIDA                    PC    000000000000000000000000000
752024010120240131578           40103500111SP170H-CORREIA DISTRIBUICAO                       PC    000000000000000000000000000
752024010120240131579           9025909055214055-CARCACA                                     PC    000000000000000000000000000
752024010120240131580           87089990LT30166-HOMOC RODA                                   PC    000000000000000000000000000
752024010120240131581           4016930075613-JUNTA TAMPA VALVULA                            PC    000000000000000000000000000
752024010120240131582           84099140DS1255-KIT BICO INJETOR                              PC    000000000000000000000000000
752024010120240131583           68138190VW278-LONA FREIO                                     PC    000000000000000000000000000
752024010120240131584           90261029SNMM10212-SENSOR DE NIVEL DE COMBUSTIVEL             PC    000000000000000000000000000
752024010120240131585           84133090MB1A8501AA-BOMBA DAGUA                               PC    000000000000000000000000000
752024010120240131586           84841000589590-JUNTA CABECOTE                                PC    000000000000000000000000000
752024010120240131587           8484900079377-JUNTA CABECOTE SUPERIOR                        JG    000000000000000000000000000
752024010120240131590           90259090MTE4067-SENSOR TEMPERATURA I.E.                      PC    000000000000000000000000000
752024010120240131591           87087090VKBA4533-KIT ROL TRAS                                JG    000000000000000000000000000
752024010120240131592           87088000SP357-AMORT SUSPENSAO DIANT                          PC    000000000000000000000000000
752024010120240131593           87088000SP358-AMORT SUSPENSAO DIANT                          PC    000000000000000000000000000
752024010120240131594           84213990LA655-FILTRO ANTI POLEM                              PC    000000000000000000000000000
752024010120240131595           84219999C4151-FILTRO AR                                      PC    000000000000000000000000000
752024010120240131596           87088000MB4262-KIT AMORTECEDOR DIANTEIRO                     PC    000000000000000000000000000
752024010120240131597           84835010531089110-POLIA ALTERNADOR                           PC    000000000000000000000000000
752024010120240131598           85111000FR6LII330V-VELA IGNICAO                              PC    000000000000000000000000000
752024010120240131599           87083019P635-PASTILHA FREIO                                  JG    000000000000000000000000000
752024010120240131600           87088000749078SP-AMORT SUSPENSAO DIANT                       PC    000000000000000000000000000
752024010120240131601           87088000749079SP-AMORT SUSPENSAO DIANT                       PC    000000000000000000000000000
752024010120240131602           870880000212765-COXIM AMORTECEDOR                            PC    000000000000000000000000000
752024010120240131603           87088000MB6802-KIT AMORTECEDOR DIANTEIRO                     JG    000000000000000000000000000
752024010120240131604           84835090VKM15402-TENSOR CORREIA DENTADA                      PC    000000000000000000000000000
752024010120240131605           87088000MB4132S-KIT AMORTECEDOR DIANTEIRO                    PC    000000000000000000000000000
752024010120240131606           8708800055530 KIT CIA-KIT BARRA ESTABILIZADORA               PC    000000000000000000000000000
752024010120240131608           4016930075410-JUNTA TAMPA VALVULA                            PC    000000000000000000000000000
752024010120240131609           8481809296985666-VALVULA DO CANISTER                         PC    000000000000000000000000000
752024010120240131610           85129000B056-PALHETA LIMPADOR                                JG    000000000000000000000000000
752024010120240131613           85443000SCG73-CABO VELA                                      JG    000000000000000000000000000
752024010120240131614           8708910094736156-RESERV AGUA RADIADOR                        PC    000000000000000000000000000
752024010120240131615           870891005050140-TAMPA RESERVATORIO                           PC    000000000000000000000000000
752024010120240131616           85111000BR8ES-VELA IGNICAO                                   PC    000000000000000000000000000
752024010120240131617           40169990SK8184-BUCHA BANDEJA                                 PC    000000000000000000000000000
752024010120240131618           8483501090354858-ENGRENAGEM VIRABREQUIM                      PC    000000000000000000000000000
752024010120240131619           84818021314792-VALVULA TERMOSTATICA                          PC    000000000000000000000000000
752024010120240131621           84219999C24005-FILTRO AR                                     PC    000000000000000000000000000
752024010120240131622           87089990SK1089-COXIM CAMBIO                                  PC    000000000000000000000000000
752024010120240131623           84213990FAC886-FILTRO ANTI POLEM                             PC    000000000000000000000000000
752024010120240131624           84219999C26135-FILTRO AR                                     PC    000000000000000000000000000
752024010120240131625           84219999ARL5135-FILTRO AR                                    PC    000000000000000000000000000
752024010120240131626           401031006PK1822-CORREIA                                      PC    000000000000000000000000000
752024010120240131627           84213990CU1919-FILTRO ANTI POLEM                             PC    000000000000000000000000000
752024010120240131628           84212990FCA1561-FILTRO CAMBIO AUTOMATICO                     PC    000000000000000000000000000
752024010120240131629           85111000LZKAR7A-VELA IGNICAO                                 PC    000000000000000000000000000
752024010120240131630           8413309020134-BOMBA DAGUA                                    PC    000000000000000000000000000
752024010120240131631           40103500CT908-CORREIA DISTRIBUICAO                           PC    000000000000000000000000000
752024010120240131632           84835090VKM11113-TENSOR CORREIA DENTADA                      PC    000000000000000000000000000
752024010120240131633           271019320W20 PRO DS-OLEO MOTOR                               LT    000000000000000000000000000
752024010120240131634           40169990SK8281-BUCHA BARRA ESTABILIZADORA                    PC    000000000000000000000000000
752024010120240131635           85443000SCG101-CABO VELA                                     JG    000000000000000000000000000
752024010120240131636           85111000BPR7E-VELA IGNICAO                                   PC    000000000000000000000000000
752024010120240131637           40103500135STP8M190H-CORREIA DISTRIBUICAO                    PC    000000000000000000000000000
752024010120240131638           87088000SK8062-BUCHA BANDEJA                                 PC    000000000000000000000000000
752024010120240131639           84213990ACP809-FILTRO ANTI POLEM                             PC    000000000000000000000000000
752024010120240131640           84219999C34853-FILTRO AR                                     PC    000000000000000000000000000
752024010120240131641           87088000SK884S-KIT AMORTECEDOR DIANTEIRO                     PC    000000000000000000000000000
752024010120240131642           8413309020089-BOMBA DAGUA                                    PC    000000000000000000000000000
752024010120240131643           870829991J0121407D-RESERV AGUA RADIADOR                      PC    000000000000000000000000000
752024010120240131644           87089990MF71-TAMPA RESERVATORIO                              PC    000000000000000000000000000
752024010120240131645           8708999050946 KIT CIA-COIFA HOMOC                            PC    000000000000000000000000000
752024010120240131646           84835010VKM4909-POLIA ALTERNADOR                             PC    000000000000000000000000000
752024010120240131647           870899905442361-BANDEJA SUSP                                 PC    000000000000000000000000000
752024010120240131648           870899905442360-BANDEJA SUSP                                 PC    000000000000000000000000000
752024010120240131649           870899901323Y2-MANGUEIRA                                     PC    000000000000000000000000000
752024010120240131650           853650903387-INTER PRESSAO OLEO                              PC    000000000000000000000000000
752024010120240131651           90271000OZA659EE89-SONDA LAMBDA                              PC    000000000000000000000000000
752024010120240131652           84139190F000TE13S3-TAMPA BOMBA COMB                          PC    000000000000000000000000000
752024010120240131653           39173290DS1506-TUBO FLUXO                                    JG    000000000000000000000000000
752024010120240131654           85111000BR7ES-VELA IGNICAO                                   PC    000000000000000000000000000
752024010120240131655           84219999C17021-FILTRO AR                                     PC    000000000000000000000000000
752024010120240131656           87089100735124R-RADIADOR AGUA                                PC    000000000000000000000000000
752024010120240131657           84219999HU71151X-FILTRO OLEO MOTOR                           PC    000000000000000000000000000
752024010120240131658           87083019P435-PASTILHA FREIO                                  JG    000000000000000000000000000
752024010120240131659           84219999HLP6076-FILTRO AR                                    PC    000000000000000000000000000
752024010120240131660           8483501030027-POLIA ALTERNADOR                               PC    000000000000000000000000000
752024010120240131661           4016930005159BRAGF-RETENTOR VIRABREQUIM - POLIA              PC    000000000000000000000000000
752024010120240131662           85443000SCF30-CABO VELA                                      PC    000000000000000000000000000
752024010120240131663           84219999ARL2340-FILTRO AR                                    PC    000000000000000000000000000
752024010120240131664           85111000LTR7A10-VELA IGNICAO                                 PC    000000000000000000000000000
752024010120240131665           8481802155239819-VALVULA TERMOSTATICA                        PC    000000000000000000000000000
752024010120240131666           84219999C2330-FILTRO AR                                      PC    000000000000000000000000000
752024010120240131667           401033006PK2120-CORREIA                                      PC    000000000000000000000000000
752024010120240131668           87088000348019-AMORT SUSPENSAO TRAS                          PC    000000000000000000000000000
752024010120240131669           84213990FAC708-FILTRO ANTI POLEM                             PC    000000000000000000000000000
752024010120240131670           84219999C24021-FILTRO AR                                     PC    000000000000000000000000000
752024010120240131671           84212300WFC920-FILTRO CAMBIO AUTOMATICO                      PC    000000000000000000000000000
752024010120240131672           87083019PD554-PASTILHA FREIO TRASEIRO                        JG    000000000000000000000000000
752024010120240131673           8413309020254-BOMBA DAGUA                                    PC    000000000000000000000000000
752024010120240131674           4016930075629-JUNTA TAMPA VALVULA                            PC    000000000000000000000000000
752024010120240131675           84213990ACP972-FILTRO ANTI POLEM                             PC    000000000000000000000000000
752024010120240131676           85129000DY202-PALHETA LIMPADOR                               PC    000000000000000000000000000
752024010120240131677           401031007PK1180RNH-CORREIA                                   PC    000000000000000000000000000
752024010120240131678           85129000H312-PALHETA LIMPADOR                                PC    000000000000000000000000000
752024010120240131679           87089990NJH075061-HOMOC RODA                                 PC    000000000000000000000000000
752024010120240131680           84212300W71930-FILTRO OLEO MOTOR                             PC    000000000000000000000000000
752024010120240131681           85111000BKUR6ET10-VELA IGNICAO                               PC    000000000000000000000000000
752024010120240131682           87088000SP070-AMORT SUSPENSAO DIANT                          PC    000000000000000000000000000
752024010120240131683           87088000NAK6067-BIELETA BARRA ESTABILIZADORA                 PC    000000000000000000000000000
752024010120240131684           84133010F000TE11A5-BOMBA COMBUSTIVEL IE                      PC    000000000000000000000000000
752024010120240131685           870880000111526-BUCHA BANDEJA                                PC    000000000000000000000000000
752024010120240131686           87088000SK138S-KIT AMORTECEDOR DIANTEIRO                     PC    000000000000000000000000000
752024010120240131687           87083019P92-PASTILHA FREIO                                   JG    000000000000000000000000000
752024010120240131688           84212300WFC972-FILTRO CAMBIO AUTOMATICO                      PC    000000000000000000000000000
752024010120240131689           853929107443-LAMPADA                                         PC    000000000000000000000000000
752024010120240131690           853929107440-LAMPADA                                         PC    000000000000000000000000000
752024010120240131691           90261029TSA010200-SENSOR DE NIVEL DE COMBUSTIVEL             PC    000000000000000000000000000
752024010120240131692           85443000F00099C078-CABO VELA                                 PC    000000000000000000000000000
752024010120240131693           84219999LX684-FILTRO AR                                      PC    000000000000000000000000000
752024010120240131694           853650903385-INTER PRESSAO OLEO                              PC    000000000000000000000000000
752024010120240131695           87083090BD5636-DISCO FREIO                                   PC    000000000000000000000000000
752024010120240131696           87083019PD1097-PASTILHA FREIO                                PC    000000000000000000000000000
752024010120240131697           87085099JHC01115-HOMOC RODA                                  JG    000000000000000000000000000
752024010120240131698           85129000DYSD1-PALHETA LIMPADOR                               JG    000000000000000000000000000
752024010120240131699           85129000B314-PALHETA LIMPADOR                                JG    000000000000000000000000000
752024010120240131700           4016930015171942BN-JUNTA TAMPA VALVULA                       PC    000000000000000000000000000
752024010120240131701           27101932MULTI ATF 500-OLEO CAMBIO                            PC    000000000000000000000000000
752024010120240131702           85443000SCY01-CABO VELA                                      PC    000000000000000000000000000
752024010120240131703           85111000BKR7E11D-VELA IGNICAO                                PC    000000000000000000000000000
752024010120240131704           85129000S21-PALHETA LIMPADOR                                 PC    000000000000000000000000000
752024010120240131705           85129000S19-PALHETA LIMPADOR                                 PC    000000000000000000000000000
752024010120240131706           90261029F000TE177S-SENSOR DE NIVEL DE COMBUSTIVEL            PC    000000000000000000000000000
752024010120240131707           87089100G1322-RESERV AGUA RADIADOR                           PC    000000000000000000000000000
90336213140001600034450680073 50000000445100000044530000004454000002237500000145                                             2
90336213140001600034450680073 9900000504                                                                                     2
