10336213140001600034450680073 CRISTINA ISABEL DE CAMPOS          Belo Horizonte                MG31999760132025080120250831331
11Rua Caconde                       00875                      Renascença     31130510VINICIUS MURTA NERY         031934225098
5000029745802620ISENTO        20250801MG551  0009835405P000000013270000000000000000000000000000000000000000000000006418000000N
5000029745802620ISENTO        20250801MG551  0009835102P000000000470000000000000000000000000000000000000000000000000052000000N
5000071389288668ISENTO        20250804MG551  0009865405P000000011680000000000000000000000000000000000000000000000001984000000N
5000027533425634ISENTO        20250801MG551  0009845405P000000002620000000000000000000000000000000000000000000000000494000000N
5000027533425634ISENTO        20250801MG551  0009845102P000000000160000000000000000000000000000000000000000000000000016000000N
5000091269130625ISENTO        20250808MG551  0009875405P000000012930000000000000000000000000000000000000000000000002058000000N
5000091269130625ISENTO        20250808MG551  0009875102P000000000280000000000000000000000000000000000000000000000000040000000N
5000019635419600ISENTO        20250801MG551  0009855405P000000004130000000000000000000000000000000000000000000000000782000000N
5000019635419600ISENTO        20250801MG551  0009855102P000000000210000000000000000000000000000000000000000000000000021000000N
5000004204156886ISENTO        20250811MG551  0009895405P000000004010000000000000000000000000000000000000000000000001410000000N
5000004204156886ISENTO        20250811MG551  0009895102P000000000050000000000000000000000000000000000000000000000000005000000N
5000004178914669ISENTO        20250812MG551  0009935405P000000005650000000000000000000000000000000000000000000000001360000000N
5000006806489680ISENTO        20250808MG551  0009885405P000000002940000000000000000000000000000000000000000000000000942000000N
5000006806489680ISENTO        20250808MG551  0009885102P000000000050000000000000000000000000000000000000000000000000005000000N
5000037354183172ISENTO        20250814MG551  0009965405P000000010280000000000000000000000000000000000000000000000004197000000N
5000037354183172ISENTO        20250814MG551  0009965102P000000000700000000000000000000000000000000000000000000000000110000000N
5000098022245615ISENTO        20250811MG551  0009905405P000000014740000000000000000000000000000000000000000000000006511000000N
5000098022245615ISENTO        20250811MG551  0009905102P000000000180000000000000000000000000000000000000000000000000018000000N
5000040182606600ISENTO        20250812MG551  0009945405P000000004320000000000000000000000000000000000000000000000000716000000N
5000006008371658ISENTO        20250811MG551  0009915405P000000003120000000000000000000000000000000000000000000000000356000000N
5000008615732698ISENTO        20250818MG551  0009995405P000000002740000000000000000000000000000000000000000000000000274000000N
5000007753430645ISENTO        20250811MG551  0009925102P000000000770000000000000000000000000000000000000000000000000145000000N
5000007753430645ISENTO        20250811MG551  0009925405P000000023520000000000000000000000000000000000000000000000009402000000N
5000067330886653ISENTO        20250812MG551  0009955405P000000001970000000000000000000000000000000000000000000000000490000000N
5000067330886653ISENTO        20250812MG551  0009955102P000000000350000000000000000000000000000000000000000000000000035000000N
5000023096349649ISENTO        20250814MG551  0009975405P000000001210000000000000000000000000000000000000000000000000323000000N
5000023096349649ISENTO        20250814MG551  0009975102P000000000180000000000000000000000000000000000000000000000000018000000N
5000061814121668ISENTO        20250818MG551  0010005405P000000017750000000000000000000000000000000000000000000000005751000000N
5000010835151603ISENTO        20250819MG551  0010045405P000000000420000000000000000000000000000000000000000000000000042000000N
5065139743000192ISENTO        20250814MG551  0009985405P000000003120000000000000000000000000000000000000000000000000762000000N
5000050015761649ISENTO        20250818MG551  0010015405P000000000480000000000000000000000000000000000000000000000000048000000N
5000050015761649ISENTO        20250818MG551  0010015102P000000000350000000000000000000000000000000000000000000000000035000000N
5000005431583654ISENTO        20250818MG551  0010025405P000000008060000000000000000000000000000000000000000000000000806000000N
5000005431583654ISENTO        20250818MG551  0010025102P000000000140000000000000000000000000000000000000000000000000014000000N
5000097154881615ISENTO        20250819MG551  0010055405P000000004880000000000000000000000000000000000000000000000001828000000N
5000097154881615ISENTO        20250819MG551  0010055102P000000000080000000000000000000000000000000000000000000000000008000000N
5000092017991600ISENTO        20250818MG551  0010035405P000000003800000000000000000000000000000000000000000000000000912000000N
5000092017991600ISENTO        20250818MG551  0010035102P000000000350000000000000000000000000000000000000000000000000035000000N
5000025436953620ISENTO        20250819MG551  0010065405P000000001800000000000000000000000000000000000000000000000000473000000N
5000025436953620ISENTO        20250819MG551  0010065102P000000000430000000000000000000000000000000000000000000000000051000000N
5000090981138691ISENTO        20250819MG551  0010075102P000000000730000000000000000000000000000000000000000000000000111000000N
5000007557238648ISENTO        20250819MG551  0010095405P000000002720000000000000000000000000000000000000000000000000730000000N
5000007557238648ISENTO        20250819MG551  0010095102P000000000160000000000000000000000000000000000000000000000000016000000N
50215322700001130624775200061 20250806MG551  0133691403T000000030875500000000000000000000000000000000000000000000000000000000N
50215322700001130624775200061 20250813MG551  0134861403T000000061081600000000000000000000000000000000000000000000000000000000N
50215322700001130624775200061 20250820MG551  0136011403T000000015567600000000000000000000000000000000000000000000000000000000N
5100029745802620ISENTO        20250801MG1  00098351020000000000000000000000000000000000000000000000000000                    N
5100029745802620ISENTO        20250801MG1  00098354050000000000000000000000000000000000000000000000000000                    N
5100027533425634ISENTO        20250801MG1  00098451020000000000000000000000000000000000000000000000000000                    N
5100027533425634ISENTO        20250801MG1  00098454050000000000000000000000000000000000000000000000000000                    N
5100019635419600ISENTO        20250801MG1  00098551020000000000000000000000000000000000000000000000000000                    N
5100019635419600ISENTO        20250801MG1  00098554050000000000000000000000000000000000000000000000000000                    N
5100071389288668ISENTO        20250804MG1  00098654050000000000000000000000000000000000000000000000000000                    N
51215322700001130624775200061 20250806MG1  01336914030000000000000000000000000000000000000000000000000000                    N
5100091269130625ISENTO        20250808MG1  00098751020000000000000000000000000000000000000000000000000000                    N
5100091269130625ISENTO        20250808MG1  00098754050000000000000000000000000000000000000000000000000000                    N
5100006806489680ISENTO        20250808MG1  00098854050000000000000000000000000000000000000000000000000000                    N
5100006806489680ISENTO        20250808MG1  00098851020000000000000000000000000000000000000000000000000000                    N
5100004204156886ISENTO        20250811MG1  00098954050000000000000000000000000000000000000000000000000000                    N
5100004204156886ISENTO        20250811MG1  00098951020000000000000000000000000000000000000000000000000000                    N
5100098022245615ISENTO        20250811MG1  00099051020000000000000000000000000000000000000000000000000000                    N
5100098022245615ISENTO        20250811MG1  00099054050000000000000000000000000000000000000000000000000000                    N
5100006008371658ISENTO        20250811MG1  00099154050000000000000000000000000000000000000000000000000000                    N
5100007753430645ISENTO        20250811MG1  00099251020000000000000000000000000000000000000000000000000000                    N
5100007753430645ISENTO        20250811MG1  00099254050000000000000000000000000000000000000000000000000000                    N
5100004178914669ISENTO        20250812MG1  00099354050000000000000000000000000000000000000000000000000000                    N
5100040182606600ISENTO        20250812MG1  00099454050000000000000000000000000000000000000000000000000000                    N
5100067330886653ISENTO        20250812MG1  00099551020000000000000000000000000000000000000000000000000000                    N
5100067330886653ISENTO        20250812MG1  00099554050000000000000000000000000000000000000000000000000000                    N
51215322700001130624775200061 20250813MG1  01348614030000000000000000000000000000000000000000000000000000                    N
5100037354183172ISENTO        20250814MG1  00099654050000000000000000000000000000000000000000000000000000                    N
5100037354183172ISENTO        20250814MG1  00099651020000000000000000000000000000000000000000000000000000                    N
5100023096349649ISENTO        20250814MG1  00099751020000000000000000000000000000000000000000000000000000                    N
5100023096349649ISENTO        20250814MG1  00099754050000000000000000000000000000000000000000000000000000                    N
5165139743000192ISENTO        20250814MG1  00099854050000000000000000000000000000000000000000000000000000                    N
5100008615732698ISENTO        20250818MG1  00099954050000000000000000000000000000000000000000000000000000                    N
5100061814121668ISENTO        20250818MG1  00100054050000000000000000000000000000000000000000000000000000                    N
5100050015761649ISENTO        20250818MG1  00100151020000000000000000000000000000000000000000000000000000                    N
5100050015761649ISENTO        20250818MG1  00100154050000000000000000000000000000000000000000000000000000                    N
5100005431583654ISENTO        20250818MG1  00100251020000000000000000000000000000000000000000000000000000                    N
5100005431583654ISENTO        20250818MG1  00100254050000000000000000000000000000000000000000000000000000                    N
5100092017991600ISENTO        20250818MG1  00100351020000000000000000000000000000000000000000000000000000                    N
5100092017991600ISENTO        20250818MG1  00100354050000000000000000000000000000000000000000000000000000                    N
5100010835151603ISENTO        20250819MG1  00100454050000000000000000000000000000000000000000000000000000                    N
5100097154881615ISENTO        20250819MG1  00100551020000000000000000000000000000000000000000000000000000                    N
5100097154881615ISENTO        20250819MG1  00100554050000000000000000000000000000000000000000000000000000                    N
5100025436953620ISENTO        20250819MG1  00100651020000000000000000000000000000000000000000000000000000                    N
5100025436953620ISENTO        20250819MG1  00100654050000000000000000000000000000000000000000000000000000                    N
5100090981138691ISENTO        20250819MG1  00100751020000000000000000000000000000000000000000000000000000                    N
5100007557238648ISENTO        20250819MG1  00100954050000000000000000000000000000000000000000000000000000                    N
5100007557238648ISENTO        20250819MG1  00100951020000000000000000000000000000000000000000000000000000                    N
51215322700001130624775200061 20250820MG1  01360114030000000000000000000000000000000000000000000000000000                    N
5300029745802620ISENTO        20250801MG551  0009835405P000000000000000000000000000000000000000N                              
5300029745802620ISENTO        20250801MG551  0009835102P000000000000000000000000000000000000000N                              
5300071389288668ISENTO        20250804MG551  0009865405P000000000000000000000000000000000000000N                              
5300027533425634ISENTO        20250801MG551  0009845405P000000000000000000000000000000000000000N                              
5300027533425634ISENTO        20250801MG551  0009845102P000000000000000000000000000000000000000N                              
5300091269130625ISENTO        20250808MG551  0009875405P000000000000000000000000000000000000000N                              
5300091269130625ISENTO        20250808MG551  0009875102P000000000000000000000000000000000000000N                              
5300019635419600ISENTO        20250801MG551  0009855405P000000000000000000000000000000000000000N                              
5300019635419600ISENTO        20250801MG551  0009855102P000000000000000000000000000000000000000N                              
5300004204156886ISENTO        20250811MG551  0009895405P000000000000000000000000000000000000000N                              
5300004204156886ISENTO        20250811MG551  0009895102P000000000000000000000000000000000000000N                              
5300004178914669ISENTO        20250812MG551  0009935405P000000000000000000000000000000000000000N                              
5300006806489680ISENTO        20250808MG551  0009885405P000000000000000000000000000000000000000N                              
5300006806489680ISENTO        20250808MG551  0009885102P000000000000000000000000000000000000000N                              
5300037354183172ISENTO        20250814MG551  0009965405P000000000000000000000000000000000000000N                              
5300037354183172ISENTO        20250814MG551  0009965102P000000000000000000000000000000000000000N                              
5300098022245615ISENTO        20250811MG551  0009905405P000000000000000000000000000000000000000N                              
5300098022245615ISENTO        20250811MG551  0009905102P000000000000000000000000000000000000000N                              
5300040182606600ISENTO        20250812MG551  0009945405P000000000000000000000000000000000000000N                              
5300006008371658ISENTO        20250811MG551  0009915405P000000000000000000000000000000000000000N                              
5300008615732698ISENTO        20250818MG551  0009995405P000000000000000000000000000000000000000N                              
5300007753430645ISENTO        20250811MG551  0009925102P000000000000000000000000000000000000000N                              
5300007753430645ISENTO        20250811MG551  0009925405P000000000000000000000000000000000000000N                              
5300067330886653ISENTO        20250812MG551  0009955405P000000000000000000000000000000000000000N                              
5300067330886653ISENTO        20250812MG551  0009955102P000000000000000000000000000000000000000N                              
5300023096349649ISENTO        20250814MG551  0009975405P000000000000000000000000000000000000000N                              
5300023096349649ISENTO        20250814MG551  0009975102P000000000000000000000000000000000000000N                              
5300061814121668ISENTO        20250818MG551  0010005405P000000000000000000000000000000000000000N                              
5300010835151603ISENTO        20250819MG551  0010045405P000000000000000000000000000000000000000N                              
5365139743000192ISENTO        20250814MG551  0009985405P000000000000000000000000000000000000000N                              
5300050015761649ISENTO        20250818MG551  0010015405P000000000000000000000000000000000000000N                              
5300050015761649ISENTO        20250818MG551  0010015102P000000000000000000000000000000000000000N                              
5300005431583654ISENTO        20250818MG551  0010025405P000000000000000000000000000000000000000N                              
5300005431583654ISENTO        20250818MG551  0010025102P000000000000000000000000000000000000000N                              
5300097154881615ISENTO        20250819MG551  0010055405P000000000000000000000000000000000000000N                              
5300097154881615ISENTO        20250819MG551  0010055102P000000000000000000000000000000000000000N                              
5300092017991600ISENTO        20250818MG551  0010035405P000000000000000000000000000000000000000N                              
5300092017991600ISENTO        20250818MG551  0010035102P000000000000000000000000000000000000000N                              
5300025436953620ISENTO        20250819MG551  0010065405P000000000000000000000000000000000000000N                              
5300025436953620ISENTO        20250819MG551  0010065102P000000000000000000000000000000000000000N                              
5300090981138691ISENTO        20250819MG551  0010075102P000000000000000000000000000000000000000N                              
5300007557238648ISENTO        20250819MG551  0010095405P000000000000000000000000000000000000000N                              
5300007557238648ISENTO        20250819MG551  0010095102P000000000000000000000000000000000000000N                              
53215322700001130624775200061 20250806MG551  0133691403T000000000000000000000000000000000000000N                              
53215322700001130624775200061 20250813MG551  0134861403T000000000000000000000000000000000000000N                              
53215322700001130624775200061 20250820MG551  0136011403T000000000000000000000000000000000000000N                              
5400004178914669551  0009935405500001915           000000030000000000132000000000000000000000000000000000000000000000000000000
5400004178914669551  00099354055000021793          000000010000000000029000000000000000000000000000000000000000000000000000000
5400004178914669551  00099354055000031000          000000010000000000034000000000000000000000000000000000000000000000000000000
5400004178914669551  00099354055000041443          000000010000000000112000000000000000000000000000000000000000000000000000000
5400004178914669551  00099354055000051939          000000020000000000258000000000000000000000000000000000000000000000000000000
5400004204156886551  00098954055000011042          000000010000000000116000000000000000000000000000000000000000000000000000000
5400004204156886551  0009895405500002524           000000010000000000069000000000000000000000000000000000000000000000000000000
5400004204156886551  00098954055000031565          000000035000000000154000000000000000000000000000000000000000000000000000000
5400004204156886551  00098954055000041563          000000010000000000030000000000000000000000000000000000000000000000000000000
5400004204156886551  0009895405500005881           000000010000000000032000000000000000000000000000000000000000000000000000000
5400004204156886551  0009895102102006972           000000010000000000005000000000000000000000000000000000000000000000000000000
5400005431583654551  0010025405500001884           000000010000000000806000000000000000000000000000000000000000000000000000000
5400005431583654551  00100251021020021936          000000020000000000014000000000000000000000000000000000000000000000000000000
5400006008371658551  0009915405500001509           000000010000000000044000000000000000000000000000000000000000000000000000000
5400006008371658551  00099154055000021431          000000010000000000268000000000000000000000000000000000000000000000000000000
5400006806489680551  0009885405500001855           000000040000000000184000000000000000000000000000000000000000000000000000000
5400006806489680551  00098854055000021563          000000010000000000030000000000000000000000000000000000000000000000000000000
5400006806489680551  0009885405500003736           000000010000000000036000000000000000000000000000000000000000000000000000000
5400006806489680551  0009885102102004972           000000010000000000005000000000000000000000000000000000000000000000000000000
5400006806489680551  00098854055000051786          000000010000000000044000000000000000000000000000000000000000000000000000000
5400007557238648551  00100954055000011324          000000020000000000208000000000000000000000000000000000000000000000000000000
5400007557238648551  0010095405500002509           000000010000000000042000000000000000000000000000000000000000000000000000000
5400007557238648551  0010095102102003972           000000010000000000016000000000000000000000000000000000000000000000000000000
5400007557238648551  0010095405500004915           000000005000000000022000000000000000000000000000000000000000000000000000000
5400007753430645551  00099251021020011558          000000010000000000026000000000000000000000000000000000000000000000000000000
5400007753430645551  0009925405500002855           000000040000000000184000000000000000000000000000000000000000000000000000000
5400007753430645551  00099254055000031782          000000010000000000036000000000000000000000000000000000000000000000000000000
5400007753430645551  0009925405500004806           000000010000000000062000000000000000000000000000000000000000000000000000000
5400007753430645551  0009925102102005972           000000010000000000016000000000000000000000000000000000000000000000000000000
5400007753430645551  0009925405500006718           000000010000000000532000000000000000000000000000000000000000000000000000000
5400007753430645551  00099254055000071244          000000030000000000462000000000000000000000000000000000000000000000000000000
5400007753430645551  00099254055000081784          000000010000000000038000000000000000000000000000000000000000000000000000000
5400007753430645551  0009925405500009780           000000010000000000032000000000000000000000000000000000000000000000000000000
5400007753430645551  00099251021020101459          000000010000000000035000000000000000000000000000000000000000000000000000000
5400007753430645551  00099254055000111168          000000010000000000268000000000000000000000000000000000000000000000000000000
5400007753430645551  00099254055000121461          000000090000000000738000000000000000000000000000000000000000000000000000000
5400008615732698551  00099954055000011952          000000010000000000274000000000000000000000000000000000000000000000000000000
5400010835151603551  0010045405500001509           000000010000000000042000000000000000000000000000000000000000000000000000000
5400019635419600551  0009855405500001802           000000010000000000369000000000000000000000000000000000000000000000000000000
5400019635419600551  00098551021020021661          000000030000000000021000000000000000000000000000000000000000000000000000000
5400019635419600551  0009855405500003790           000000010000000000044000000000000000000000000000000000000000000000000000000
5421532270000113551  01336914030600011099          000000010000000000053610000000000000000000000000000000005540000000000000000
5421532270000113551  01336914030600021945          000000010000000000486570000000000000000000000000000000000000000000000000000
5421532270000113551  01336914030600031946          000000010000000000486570000000000000000000000000000000000000000000000000000
5421532270000113551  0133691403060004913           000000020000000000086100000000000000000000000000000000014570000000000000000
5421532270000113551  01336914030600051482          000000010000000000050360000000000000000000000000000000005780000000000000000
5421532270000113551  01336914030600061483          000000010000000000050360000000000000000000000000000000005780000000000000000
5421532270000113551  01336914030600071406          000000010000000000426460000000000000000000000000000000059260000000000000000
5421532270000113551  01336914030600081567          000000010000000000240440000000000000000000000000000000000000000000000000000
5421532270000113551  01336914030600091036          000000010000000000534490000000000000000000000000000000069930000000000000000
5421532270000113551  0133691403060010802           000000010000000000274560000000000000000000000000000000034580000000000000000
5421532270000113551  01336914030600111947          000000010000000000398030000000000000000000000000000000040040000000000000000
5421532270000113551  0134861403060001765           000000020000000000609220000000000000000000000000000000081930000000000000000
5421532270000113551  01348614030600021606          000000020000000000268060000000000000000000000000000000000000000000000000000
5421532270000113551  0134861403060003541           000000010000000000082850000000000000000000000000000000009820000000000000000
5421532270000113551  01348614030600041939          000000020000000000190080000000000000000000000000000000027010000000000000000
5421532270000113551  01348614030600051948          000000010000000000379340000000000000000000000000000000061500000000000000000
5421532270000113551  01348614030600061244          000000030000000000348480000000000000000000000000000000044950000000000000000
5421532270000113551  01348614030600071283          000000020000000000414280000000000000000000000000000000053390000000000000000
5421532270000113551  0134861403060008985           000000020000000000107220000000000000000000000000000000012970000000000000000
5421532270000113551  01348614030600091285          000000040000000000094240000000000000000000000000000000010750000000000000000
5421532270000113551  01348614030600101142          000000020000000000198200000000000000000000000000000000020980000000000000000
5421532270000113551  0134861403060011954           000000010000000000082850000000000000000000000000000000006030000000000000000
5421532270000113551  0134861403060012955           000000010000000000082850000000000000000000000000000000006030000000000000000
5421532270000113551  01348614030600131887          000000020000000000090980000000000000000000000000000000010380000000000000000
5421532270000113551  0134861403060014808           000000010000000000099910000000000000000000000000000000008600000000000000000
5421532270000113551  01348614030600151949          000000010000000000024370000000000000000000000000000000002410000000000000000
5421532270000113551  01348614030600161874          000000010000000000021120000000000000000000000000000000002400000000000000000
5421532270000113551  01348614030600171431          000000010000000000170580000000000000000000000000000000028070000000000000000
5421532270000113551  01348614030600181950          000000010000000000592980000000000000000000000000000000000000000000000000000
5421532270000113551  0134861403060019656           000000010000000000369600000000000000000000000000000000046590000000000000000
5421532270000113551  01348614030600201951          000000020000000000357420000000000000000000000000000000049200000000000000000
5421532270000113551  01348614030600211806          000000020000000000108840000000000000000000000000000000006680000000000000000
5421532270000113551  0134861403060022865           000000020000000000198200000000000000000000000000000000026720000000000000000
5421532270000113551  01348614030600231952          000000010000000000199010000000000000000000000000000000000000000000000000000
5421532270000113551  01348614030600241953          000000010000000000060920000000000000000000000000000000007120000000000000000
5421532270000113551  01348614030600251954          000000010000000000068230000000000000000000000000000000004940000000000000000
5421532270000113551  01348614030600261730          000000010000000000010560000000000000000000000000000000000690000000000000000
5421532270000113551  01348614030600271955          000000010000000000043050000000000000000000000000000000004630000000000000000
5421532270000113551  01348614030600281467          000000010000000000035740000000000000000000000000000000004110000000000000000
5421532270000113551  01348614030600291956          000000010000000000101540000000000000000000000000000000009300000000000000000
5421532270000113551  0134861403060030865           000000020000000000198200000000000000000000000000000000026720000000000000000
5421532270000113551  0134861403060031808           000000010000000000099910000000000000000000000000000000008600000000000000000
5421532270000113551  0134861403060032579           000000010000000000052800000000000000000000000000000000000240000000000000000
5421532270000113551  0134861403060033708           000000020000000000037040000000000000000000000000000000004360000000000000000
5421532270000113551  0134861403060034581           000000010000000000025180000000000000000000000000000000002900000000000000000
5421532270000113551  0134861403060035834           000000010000000000064170000000000000000000000000000000000000000000000000000
5421532270000113551  01348614030600361030          000000030000000000099900000000000000000000000000000000000000000000000000000
5421532270000113551  0134861403060037833           000000080000000000120240000000000000000000000000000000013200000000000000000
5421532270000113551  0136011403060001815           000000010000000000045490000000000000000000000000000000003060000000000000000
5421532270000113551  01360114030600021322          000000010000000000045890000000000000000000000000000000003060000000000000000
5421532270000113551  0136011403060003913           000000010000000000043050000000000000000000000000000000007290000000000000000
5421532270000113551  01360114030600041957          000000020000000000178700000000000000000000000000000000011490000000000000000
5421532270000113551  01360114030600051958          000000010000000000059300000000000000000000000000000000004390000000000000000
5421532270000113551  01360114030600061058          000000020000000000076360000000000000000000000000000000012160000000000000000
5421532270000113551  01360114030600071959          000000010000000000137280000000000000000000000000000000013110000000000000000
5421532270000113551  01360114030600081960          000000020000000000203080000000000000000000000000000000025690000000000000000
5421532270000113551  01360114030600091961          000000010000000000054420000000000000000000000000000000004260000000000000000
5421532270000113551  0136011403060010505           000000020000000000396400000000000000000000000000000000038530000000000000000
5421532270000113551  01360114030600111387          000000020000000000145400000000000000000000000000000000015050000000000000000
5421532270000113551  01360114030600121388          000000020000000000073100000000000000000000000000000000008440000000000000000
5421532270000113551  0136011403060013546           000000010000000000050360000000000000000000000000000000007560000000000000000
5421532270000113551  01360114030600141962          000000010000000000047930000000000000000000000000000000000000000000000000000
5400023096349649551  0009975405500001743           000000010000000000089000000000000000000000000000000000000000000000000000000
5400023096349649551  00099754055000021505          000000020000000000024000000000000000000000000000000000000000000000000000000
5400023096349649551  00099751021020031722          000000020000000000018000000000000000000000000000000000000000000000000000000
5400023096349649551  00099754055000041505          000000010000000000008000000000000000000000000000000000000000000000000000000
5400025436953620551  00100654055000011900          000000030000000000132000000000000000000000000000000000000000000000000000000
5400025436953620551  00100654055000021793          000000010000000000029000000000000000000000000000000000000000000000000000000
5400025436953620551  00100654055000031830          000000010000000000019000000000000000000000000000000000000000000000000000000
5400025436953620551  0010065102102004972           000000010000000000008000000000000000000000000000000000000000000000000000000
5400025436953620551  00100651021020051459          000000010000000000035000000000000000000000000000000000000000000000000000000
5400027533425634551  0009845405500001633           000000040000000000232000000000000000000000000000000000000000000000000000000
5400027533425634551  00098454055000021572          000000010000000000030000000000000000000000000000000000000000000000000000000
5400027533425634551  0009845102102003972           000000010000000000016000000000000000000000000000000000000000000000000000000
5400029745802620551  00098354055000011406          000000010000000000564000000000000000000000000000000000000000000000000000000
5400029745802620551  00098354055000021567          000000010000000000334000000000000000000000000000000000000000000000000000000
5400029745802620551  0009835405500003973           000000010000000000179000000000000000000000000000000000000000000000000000000
5400029745802620551  0009835405500004855           000000040000000000184000000000000000000000000000000000000000000000000000000
5400029745802620551  00098354055000051563          000000010000000000030000000000000000000000000000000000000000000000000000000
5400029745802620551  0009835405500006736           000000010000000000036000000000000000000000000000000000000000000000000000000
5400029745802620551  0009835102102007972           000000010000000000005000000000000000000000000000000000000000000000000000000
5400029745802620551  00098351021020081745          000000010000000000042000000000000000000000000000000000000000000000000000000
5400037354183172551  0009965405500001855           000000050000000000230000000000000000000000000000000000000000000000000000000
5400037354183172551  00099654055000021563          000000010000000000030000000000000000000000000000000000000000000000000000000
5400037354183172551  0009965405500003736           000000010000000000029000000000000000000000000000000000000000000000000000000
5400037354183172551  0009965102102004972           000000010000000000005000000000000000000000000000000000000000000000000000000
5400037354183172551  00099654055000051224          000000010000000000034000000000000000000000000000000000000000000000000000000
5400037354183172551  0009965405500006780           000000010000000000028000000000000000000000000000000000000000000000000000000
5400037354183172551  0009965405500007656           000000010000000000485000000000000000000000000000000000000000000000000000000
5400037354183172551  0009965405500008790           000000010000000000044000000000000000000000000000000000000000000000000000000
5400037354183172551  00099651021020091718          000000010000000000030000000000000000000000000000000000000000000000000000000
5400037354183172551  00099651021020101459          000000010000000000035000000000000000000000000000000000000000000000000000000
5400037354183172551  00099654055000111806          000000020000000000148000000000000000000000000000000000000000000000000000000
5400040182606600551  0009945405500001865           000000020000000000284000000000000000000000000000000000000000000000000000000
5400040182606600551  0009945405500002808           000000010000000000148000000000000000000000000000000000000000000000000000000
5400050015761649551  00100154055000011752          000000120000000000048000000000000000000000000000000000000000000000000000000
5400050015761649551  00100151021020021459          000000010000000000035000000000000000000000000000000000000000000000000000000
5400061814121668551  0010005405500001916           000000055000000000220000000000000000000000000000000000000000000000000000000
5400061814121668551  0010005405500002829           000000010000000000035000000000000000000000000000000000000000000000000000000
5400061814121668551  00100054055000031955          000000010000000000078000000000000000000000000000000000000000000000000000000
5400061814121668551  00100054055000041953          000000010000000000086000000000000000000000000000000000000000000000000000000
5400061814121668551  00100054055000051945          000000010000000000637000000000000000000000000000000000000000000000000000000
5400061814121668551  00100054055000061946          000000010000000000637000000000000000000000000000000000000000000000000000000
5400061814121668551  0010005405500007866           000000010000000000082000000000000000000000000000000000000000000000000000000
5465139743000192551  0009985405500001855           000000045000000000207000000000000000000000000000000000000000000000000000000
5465139743000192551  00099854055000021793          000000010000000000036000000000000000000000000000000000000000000000000000000
5465139743000192551  00099854055000031710          000000010000000000069000000000000000000000000000000000000000000000000000000
5400067330886653551  0009955405500001915           000000030000000000132000000000000000000000000000000000000000000000000000000
5400067330886653551  00099554055000021793          000000010000000000029000000000000000000000000000000000000000000000000000000
5400067330886653551  00099554055000031000          000000010000000000036000000000000000000000000000000000000000000000000000000
5400067330886653551  00099551021020041459          000000010000000000035000000000000000000000000000000000000000000000000000000
5400071389288668551  0009865405500001765           000000020000000000816000000000000000000000000000000000000000000000000000000
5400071389288668551  00098654055000021606          000000020000000000352000000000000000000000000000000000000000000000000000000
5400090981138691551  00100751021020011727          000000010000000000038000000000000000000000000000000000000000000000000000000
5400090981138691551  00100751021020021459          000000010000000000035000000000000000000000000000000000000000000000000000000
5400091269130625551  00098754055000011036          000000010000000000765000000000000000000000000000000000000000000000000000000
5400091269130625551  00098754055000021947          000000010000000000528000000000000000000000000000000000000000000000000000000
5400091269130625551  00098751021020031722          000000010000000000012000000000000000000000000000000000000000000000000000000
5400091269130625551  00098751021020041719          000000020000000000016000000000000000000000000000000000000000000000000000000
5400092017991600551  0010035405500001915           000000030000000000132000000000000000000000000000000000000000000000000000000
5400092017991600551  00100354055000021293          000000010000000000036000000000000000000000000000000000000000000000000000000
5400092017991600551  00100354055000031467          000000010000000000064000000000000000000000000000000000000000000000000000000
5400092017991600551  0010035405500004700           000000010000000000148000000000000000000000000000000000000000000000000000000
5400092017991600551  00100351021020051459          000000010000000000035000000000000000000000000000000000000000000000000000000
5400097154881615551  00100554055000011942          000000020000000000234000000000000000000000000000000000000000000000000000000
5400097154881615551  00100554055000021322          000000010000000000064000000000000000000000000000000000000000000000000000000
5400097154881615551  0010055405500003815           000000010000000000064000000000000000000000000000000000000000000000000000000
5400097154881615551  00100554055000041543          000000010000000000084000000000000000000000000000000000000000000000000000000
5400097154881615551  0010055405500005509           000000010000000000042000000000000000000000000000000000000000000000000000000
5400097154881615551  0010055102102006972           000000010000000000008000000000000000000000000000000000000000000000000000000
5400098022245615551  00099054055000011285          000000040000000000130000000000000000000000000000000000000000000000000000000
5400098022245615551  00099054055000021887          000000020000000000124000000000000000000000000000000000000000000000000000000
5400098022245615551  00099054055000031142          000000020000000000276000000000000000000000000000000000000000000000000000000
5400098022245615551  0009905405500004954           000000010000000000109000000000000000000000000000000000000000000000000000000
5400098022245615551  0009905405500005955           000000010000000000109000000000000000000000000000000000000000000000000000000
5400098022245615551  00099054055000061283          000000020000000000548000000000000000000000000000000000000000000000000000000
5400098022245615551  0009905405500007985           000000020000000000144000000000000000000000000000000000000000000000000000000
5400098022245615551  00099054055000081874          000000010000000000034000000000000000000000000000000000000000000000000000000
5400098022245615551  00099051021020091723          000000010000000000018000000000000000000000000000000000000000000000000000000
7520250801202508311000          84219999LX3544-FILTRO AR                                     PC    000000000000000000000000000
7520250801202508311030          27101932SAE80-OLEO CAMBIO                                    PC    000000000000000000000000000
7520250801202508311036          870893003000001340-KIT EMBREAGEM                             PC    000000000000000000000000000
7520250801202508311042          84835010VKM4794-POLIA ALTERNADOR                             PC    000000000000000000000000000
7520250801202508311058          87083090ATE6013-CILINDRO RODA                                PC    000000000000000000000000000
7520250801202508311099          87089100MF441-RESERV AGUA RADIADOR                           PC    000000000000000000000000000
7520250801202508311142          84821090BAHB636114B-ROL RODA                                 PC    000000000000000000000000000
7520250801202508311168          84212300WFC244-FILTRO CAMBIO AUTOMATICO                      PC    000000000000000000000000000
7520250801202508311224          84213990CU21003-FILTRO ANTI POLEM                            PC    000000000000000000000000000
7520250801202508311244          85111000IKER7A8DES-VELA IGNICAO                              PC    000000000000000000000000000
7520250801202508311283          87088000808053MM-AMORT SUSPENSAO DIANT                       PC    000000000000000000000000000
7520250801202508311285          87088000SK3018AT-KIT BARRA ESTABILIZADORA                    PC    000000000000000000000000000
7520250801202508311293          84212300PSL78-FILTRO OLEO MOTOR                              PC    000000000000000000000000000
7520250801202508311322          87088000NAK96001-BIELETA BARRA ESTABILIZADORA                PC    000000000000000000000000000
7520250801202508311324          87083090ATE7630-CILINDRO RODA                                PC    000000000000000000000000000
7520250801202508311387          401699900112439-BUCHA BANDEJA                                PC    000000000000000000000000000
7520250801202508311388          401699900111843-BUCHA BANDEJA                                PC    000000000000000000000000000
7520250801202508311406          870893003000000782-KIT EMBREAGEM                             JG    000000000000000000000000000
7520250801202508311431          87083090ATE5785-CIL MESTRE                                   PC    000000000000000000000000000
7520250801202508311443          87083019PD85-PASTILHA FREIO                                  JG    000000000000000000000000000
7520250801202508311459          38140090DESCARBONIZANTE PRO 300ML/230G                       UN    000000000000000000000000000
7520250801202508311461          27101992ATF DEXRON VI-OLEO CAMBIO                            PC    000000000000000000000000000
7520250801202508311467          84219999HLP2346-FILTRO AR                                    PC    000000000000000000000000000
7520250801202508311482          8708999015268 KIT CIA-REGULADOR FREIO                        PC    000000000000000000000000000
7520250801202508311483          8708999015269 KIT CIA-REGULADOR FREIO                        PC    000000000000000000000000000
7520250801202508311505          8539291012498-LAMPADA                                        PC    000000000000000000000000000
7520250801202508311543          87083090C3416-CILINDRO RODA                                  PC    000000000000000000000000000
7520250801202508311558          22019000AGUA 3LT KOUBE-AGUA DESMINERALIZADA                  GL    000000000000000000000000000
7520250801202508311563          84212300W7125-FILTRO OLEO MOTOR                              PC    000000000000000000000000000
7520250801202508311565          271019325W40 FS540 SN-OLEO MOTOR                             LT    000000000000000000000000000
7520250801202508311567          84099190032103171D-RETENTOR VIRABREQUIM - VOLANTE            PC    000000000000000000000000000
7520250801202508311572          84212300W7122-FILTRO OLEO MOTOR                              PC    000000000000000000000000000
7520250801202508311606          87088000LT90201-KIT AMORTECEDOR DIANTEIRO                    PC    000000000000000000000000000
7520250801202508311661          73269090ABRACADEIRA SEM FIM ZNB 25X40X12                     UN    000000000000000000000000000
7520250801202508311710          84219999LX4667-FILTRO AR                                     PC    000000000000000000000000000
7520250801202508311718          85392110LAMPADA AUTOMOTIVA H7 12V 55W                        UN    000000000000000000000000000
7520250801202508311719          85392910LAMPADA AUTOMOTIVA W5W 12V 5W                        UN    000000000000000000000000000
7520250801202508311722          85392910LAMPADA AUT 12V-21/5W 2 POLOS PINO DESENCONTRADO     UN    000000000000000000000000000
7520250801202508311723          73269090ABRACADEIRA UNIVERSAL INOX 304 45X120MM              UN    000000000000000000000000000
7520250801202508311727          32141010SILICONE NEUTRO ALTA TEMP HT CZA 60G BLI             UN    000000000000000000000000000
7520250801202508311730          8539291012496-LAMPADA                                        PC    000000000000000000000000000
7520250801202508311745          32141010SILICONE NEUTRO ALTA TEMP HT CZA 60G BLI             UN    000000000000000000000000000
7520250801202508311752          76161000ARRUELA ALUMINIO 12X20X1,50MM BUJAO CAR              PC    000000000000000000000000000
7520250801202508311782          84212300W7128-FILTRO OLEO MOTOR                              PC    000000000000000000000000000
7520250801202508311784          84213990CU2629-FILTRO ANTI POLEM                             PC    000000000000000000000000000
7520250801202508311786          400931005U0121073-MANGUEIRA                                  PC    000000000000000000000000000
7520250801202508311793          84212300W6MULTI20-FILTRO OLEO MOTOR                          PC    000000000000000000000000000
7520250801202508311806          401699906QE121367-COXIM RADIADOR                             PC    000000000000000000000000000
7520250801202508311830          84219999C2256-FILTRO AR                                      PC    000000000000000000000000000
7520250801202508311874          87089990213499G-COIFA HOMOC                                  JG    000000000000000000000000000
7520250801202508311887          87089490335074-TERMINAL BARRA DIRECAO                        PC    000000000000000000000000000
7520250801202508311900          271019325W30 WR-OLEO MOTOR                                   LT    000000000000000000000000000
7520250801202508311936          73269090ABRACADEIRA SEM FIM ZNB 30X45X12                     UN    000000000000000000000000000
7520250801202508311939          87083090BD3466-DISCO FREIO                                   PC    000000000000000000000000000
7520250801202508311942          83023000MG17274-AMORT TAMPA TRAS                             PC    000000000000000000000000000
7520250801202508311945          87088000808160MM-AMORT SUSPENSAO DIANT                       PC    000000000000000000000000000
7520250801202508311946          87088000808161MM-AMORT SUSPENSAO DIANT                       PC    000000000000000000000000000
7520250801202508311947          87089990SK8588-COXIM CAMBIO                                  PC    000000000000000000000000000
7520250801202508311948          848350905300592110-KIT CORREIA TENSOR                        PC    000000000000000000000000000
7520250801202508311949          84213990CU26021-FILTRO ANTI POLEM                            PC    000000000000000000000000000
7520250801202508311950          87089100RE20076534-RADIADOR AGUA                             PC    000000000000000000000000000
7520250801202508311951          87083090BD9619-DISCO FREIO                                   PC    000000000000000000000000000
7520250801202508311952          87083090PD1520-PASTILHA FREIO                                PC    000000000000000000000000000
7520250801202508311953          870899900434124-ARTICULACAO CAIXA DIRECAO                    PC    000000000000000000000000000
7520250801202508311954          8539291012276-LAMPADA                                        PC    000000000000000000000000000
7520250801202508311955          84219999ARL8827-FILTRO AR                                    PC    000000000000000000000000000
7520250801202508311956          4016930015175608BN-JUNTA TAMPA VALVULA                       PC    000000000000000000000000000
7520250801202508311957          83023000MG17177-AMORT TAMPA TRAS                             PC    000000000000000000000000000
7520250801202508311958          87083090C3478-CILINDRO RODA                                  PC    000000000000000000000000000
7520250801202508311959          4016930075262-JUNTA TAMPA VALVULA                            PC    000000000000000000000000000
7520250801202508311960          87083090BD1064-DISCO FREIO                                   PC    000000000000000000000000000
7520250801202508311961          87083019P65-PASTILHA FREIO                                   JG    000000000000000000000000000
7520250801202508311962          40091100196829-MANGUEIRA SUSPIRO AR MOTOR                    PC    000000000000000000000000000
752025080120250831505           87088000SP004-AMORT SUSPENSAO TRAS                           PC    000000000000000000000000000
752025080120250831509           38190000DOT4 ATE-OLEO FREIO                                  FR    000000000000000000000000000
752025080120250831524           401031006PK1200ELASTICA-CORREIA                              PC    000000000000000000000000000
752025080120250831541           84835010VKM4790-POLIA ALTERNADOR                             PC    000000000000000000000000000
752025080120250831546           84219999LX4669-FILTRO AR                                     PC    000000000000000000000000000
752025080120250831579           9025909055214055-CARCACA                                     PC    000000000000000000000000000
752025080120250831581           4016930075613-JUNTA TAMPA VALVULA                            PC    000000000000000000000000000
752025080120250831633           271019320W20 PRO DS-OLEO MOTOR                               LT    000000000000000000000000000
752025080120250831656           87089100735124R-RADIADOR AGUA                                PC    000000000000000000000000000
752025080120250831700           4016930015171942BN-JUNTA TAMPA VALVULA                       PC    000000000000000000000000000
752025080120250831708           87089990213659G-COIFA HOMOC                                  JG    000000000000000000000000000
752025080120250831718           84835090530019510-KIT CORREIA TENSOR                         PC    000000000000000000000000000
752025080120250831736           84219999C22952-FILTRO AR                                     PC    000000000000000000000000000
752025080120250831743           8539211012336-LAMPADA                                        PC    000000000000000000000000000
752025080120250831765           87088000SP003-AMORT SUSPENSAO DIANT                          PC    000000000000000000000000000
752025080120250831780           84212990WK583-FILTRO COMBUSTIVEL                             PC    000000000000000000000000000
752025080120250831790           38200000COOLANT UP-ADITIVO RADIADOR                          PC    000000000000000000000000000
752025080120250831802           87089100732353R-RADIADOR AGUA                                PC    000000000000000000000000000
752025080120250831806           84219999C27009-FILTRO AR                                     PC    000000000000000000000000000
752025080120250831808           87083019PD58-PASTILHA FREIO                                  JG    000000000000000000000000000
752025080120250831815           87088000NAK96002-BIELETA BARRA ESTABILIZADORA                PC    000000000000000000000000000
752025080120250831829           84212300W6880-FILTRO OLEO MOTOR                              PC    000000000000000000000000000
752025080120250831833           870880000120399-BUCHA BANDEJA                                PC    000000000000000000000000000
752025080120250831834           40091290C9001-MANGUEIRA FILTRO AR                            PC    000000000000000000000000000
752025080120250831855           271019325W40 MAXI PERFORMANC-OLEO MOTOR                      LT    000000000000000000000000000
752025080120250831865           87083090BD5602-DISCO FREIO                                   PC    000000000000000000000000000
752025080120250831866           870899902028010OR-COIFA HOMOC                                JG    000000000000000000000000000
752025080120250831881           84219999HLP5138-FILTRO AR                                    PC    000000000000000000000000000
752025080120250831884           87089100RE14785126-RADIADOR AGUA                             PC    000000000000000000000000000
752025080120250831913           87083090ATE5780-CILINDRO RODA                                PC    000000000000000000000000000
752025080120250831915           271019325W30 F1 MASTER-OLEO MOTOR                            LT    000000000000000000000000000
752025080120250831916           2710193210W40 GTX-OLEO MOTOR                                 LT    000000000000000000000000000
752025080120250831954           87089990NBJ3010D-SUPORTE BARRA ESTABILIZADORA                PC    000000000000000000000000000
752025080120250831955           87088000NBJ3010E-SUPORTE BARRA ESTABILIZADORA                PC    000000000000000000000000000
752025080120250831972           4016999050008048-ANEL VEDACAO                                PC    000000000000000000000000000
752025080120250831973           4016930002009BP-RETENTOR EIXO PILOTO                         PC    000000000000000000000000000
752025080120250831985           870880000440840-KIT AMORTECEDOR DIANTEIRO                    PC    000000000000000000000000000
90336213140001600034450680073 50000000465100000046530000004654000001807500000110                                             2
90336213140001600034450680073 9900000432                                                                                     2
