10336213140001600034450680073 CRISTINA ISABEL DE CAMPOS          Belo Horizonte                MG31999760132025100120251031331
11Rua Caconde                       00875                      Renascença     31130510VINICIUS MURTA NERY         031934225098
5000040085678600ISENTO        20251022MG551  0010735405P000000002060000000000000000000000000000000000000000000000000382000000N
5000010736792848ISENTO        20251023MG551  0010765405P000000000460000000000000000000000000000000000000000000000000046000000N
5000016046242649ISENTO        20251022MG551  0010745405P000000002580000000000000000000000000000000000000000000000000541000000N
5000004461026604ISENTO        20251023MG551  0010775405P000000006110000000000000000000000000000000000000000000000001140000000N
5000000007026684ISENTO        20251022MG551  0010755405P000000002780000000000000000000000000000000000000000000000000666000000N
5060563731000762ISENTO        20251024MG551  0010825656P000000001980000000000000000000000000000000000000000000000000198000000N
5060563731000762ISENTO        20251024MG551  0010825405P000000001070000000000000000000000000000000000000000000000000145000000N
5060563731000762ISENTO        20251024MG551  0010825102P000000000350000000000000000000000000000000000000000000000000035000000N
5000090122836634ISENTO        20251027MG551  0010835102P000000000350000000000000000000000000000000000000000000000000035000000N
5000090122836634ISENTO        20251027MG551  0010835405P000000000440000000000000000000000000000000000000000000000000044000000N
5000000395753651ISENTO        20251023MG551  0010785405P000000005920000000000000000000000000000000000000000000000001418000000N
5000000395753651ISENTO        20251023MG551  0010785102P000000000160000000000000000000000000000000000000000000000000016000000N
5060563731000762ISENTO        20251028MG551  0010955405P000000003210000000000000000000000000000000000000000000000001253000000N
5060563731000762ISENTO        20251028MG551  0010955102P000000000450000000000000000000000000000000000000000000000000045000000N
5000008442351647ISENTO        20251023MG551  0010795405P000000001420000000000000000000000000000000000000000000000000142000000N
5000079034209687ISENTO        20251023MG551  0010805405P000000010790000000000000000000000000000000000000000000000007650000000N
5000040085678600ISENTO        20251027MG551  0010845405P000000002960000000000000000000000000000000000000000000000000737000000N
5000060798998687ISENTO        20251029MG551  0010975405P000000003370000000000000000000000000000000000000000000000001040000000N
5000000498426688ISENTO        20251027MG551  0010855405P000000003020000000000000000000000000000000000000000000000000952000000N
5000088263452600ISENTO        20251023MG551  0010815405P000000002420000000000000000000000000000000000000000000000000822000000N
5000063150956668ISENTO        20251027MG551  0010865405P000000001680000000000000000000000000000000000000000000000000300000000N
5000063150956668ISENTO        20251027MG551  0010865102P000000000350000000000000000000000000000000000000000000000000035000000N
5000007843755691ISENTO        20251027MG551  0010875405P000000002620000000000000000000000000000000000000000000000000494000000N
5000007843755691ISENTO        20251027MG551  0010875102P000000000350000000000000000000000000000000000000000000000000035000000N
5000071701796600ISENTO        20251030MG551  0011155405P000000001870000000000000000000000000000000000000000000000000662000000N
5000099385660659ISENTO        20251029MG551  0010985405P000000002890000000000000000000000000000000000000000000000001140000000N
5000008726348683ISENTO        20251027MG551  0010885405P000000003430000000000000000000000000000000000000000000000001255000000N
5000042965764615ISENTO        20251027MG551  0010895405P000000000440000000000000000000000000000000000000000000000000044000000N
5000003057790607ISENTO        20251027MG551  0010905405P000000002220000000000000000000000000000000000000000000000000604000000N
5000059215607668ISENTO        20251029MG551  0010995405P000000005980000000000000000000000000000000000000000000000000598000000N
5000016338952620ISENTO        20251030MG551  0011165405P000000002580000000000000000000000000000000000000000000000000707000000N
5000019635419600ISENTO        20251027MG551  0010915405P000000002320000000000000000000000000000000000000000000000000928000000N
5000019635419600ISENTO        20251027MG551  0010915102P000000000140000000000000000000000000000000000000000000000000014000000N
5000007014083678ISENTO        20251029MG551  0011005405P000000002950000000000000000000000000000000000000000000000001017000000N
5000088998428687ISENTO        20251027MG551  0010925405P000000000890000000000000000000000000000000000000000000000000089000000N
5000007095953600ISENTO        20251027MG551  0010935405P000000002590000000000000000000000000000000000000000000000000709000000N
5000007095953600ISENTO        20251027MG551  0010935102P000000000350000000000000000000000000000000000000000000000000035000000N
5000065819586620ISENTO        20251031MG551  0011285405P000000002990000000000000000000000000000000000000000000000001001000000N
5000065819586620ISENTO        20251031MG551  0011285102P000000000350000000000000000000000000000000000000000000000000035000000N
5000037878050600ISENTO        20251027MG551  0010945405P000000016280000000000000000000000000000000000000000000000004740000000N
5000004568065631ISENTO        20251029MG551  0011015405P000000002930000000000000000000000000000000000000000000000001004000000N
5000004331403645ISENTO        20251030MG551  0011175405P000000002530000000000000000000000000000000000000000000000000697000000N
5000044773668687ISENTO        20251029MG551  0011025405P000000006850000000000000000000000000000000000000000000000001779000000N
5000097154881615ISENTO        20251029MG551  0011035405P000000001870000000000000000000000000000000000000000000000000662000000N
5000017733006600ISENTO        20251030MG551  0011185405P000000004120000000000000000000000000000000000000000000000001074000000N
5000008850058640ISENTO        20251031MG551  0011295405P000000003020000000000000000000000000000000000000000000000001010000000N
5000061125946687ISENTO        20251029MG551  0011045405P000000003400000000000000000000000000000000000000000000000000628000000N
5000013006665600ISENTO        20251030MG551  0011195405P000000014820000000000000000000000000000000000000000000000007000000000N
5000013006665600ISENTO        20251030MG551  0011195102P000000000370000000000000000000000000000000000000000000000000058000000N
5000007382625605ISENTO        20251029MG551  0011055405P000000011792300000000000000000000000000000000000000000000006675430000N
5000007382625605ISENTO        20251029MG551  0011055102P000000000322500000000000000000000000000000000000000000000000032250000N
5000004577681692ISENTO        20251029MG551  0011065405P000000002550000000000000000000000000000000000000000000000000903000000N
5000014432854634ISENTO        20251031MG551  0011305405P000000037280000000000000000000000000000000000000000000000041924000000N
5000014432854634ISENTO        20251031MG551  0011305102P000000000940000000000000000000000000000000000000000000000000185000000N
5000007095953600ISENTO        20251030MG551  0011205405P000000000650000000000000000000000000000000000000000000000000065000000N
5000007095953600ISENTO        20251030MG551  0011205102P000000000140000000000000000000000000000000000000000000000000014000000N
5000045175942620ISENTO        20251029MG551  0011085656P000000001760000000000000000000000000000000000000000000000000176000000N
5000045175942620ISENTO        20251029MG551  0011085405P000000000840000000000000000000000000000000000000000000000000193000000N
5000025072846687ISENTO        20251030MG551  0011215102P000000000350000000000000000000000000000000000000000000000000035000000N
5000025072846687ISENTO        20251030MG551  0011215405P000000002080000000000000000000000000000000000000000000000000749000000N
5000007621939648ISENTO        20251029MG551  0011095405P000000011227200000000000000000000000000000000000000000000007036310000N
5000007621939648ISENTO        20251029MG551  0011095102P000000000338800000000000000000000000000000000000000000000000033880000N
5000043857264691ISENTO        20251029MG551  0011105405P000000002110000000000000000000000000000000000000000000000000593000000N
5000049616897691ISENTO        20251030MG551  0011225405P000000003070000000000000000000000000000000000000000000000001073000000N
5000060286490668ISENTO        20251029MG551  0011115405P000000003320000000000000000000000000000000000000000000000001142000000N
5000013970855683ISENTO        20251030MG551  0011235405P000000002590000000000000000000000000000000000000000000000000859000000N
5000003276225638ISENTO        20251029MG551  0011125102P000000000260000000000000000000000000000000000000000000000000036000000N
5000003276225638ISENTO        20251029MG551  0011125405P000000008630000000000000000000000000000000000000000000000002837000000N
5000072464267600ISENTO        20251029MG551  0011135405P000000002600000000000000000000000000000000000000000000000001035000000N
5000016026276734ISENTO        20251030MG551  0011245656P000000001320000000000000000000000000000000000000000000000000132000000N
5000016026276734ISENTO        20251030MG551  0011245405P000000000420000000000000000000000000000000000000000000000000042000000N
5000000123362628ISENTO        20251031MG551  0011315405P000000007190000000000000000000000000000000000000000000000003177000000N
5000069106355668ISENTO        20251029MG551  0011145405P000000008500000000000000000000000000000000000000000000000003703000000N
5000069106355668ISENTO        20251029MG551  0011145102P000000001050000000000000000000000000000000000000000000000000235000000N
5000000007026684ISENTO        20251030MG551  0011255405P000000000720000000000000000000000000000000000000000000000000072000000N
5000040085678600ISENTO        20251030MG551  0011265405P000000004350000000000000000000000000000000000000000000000001172000000N
5000044692153687ISENTO        20251030MG551  0011275405P000000003800000000000000000000000000000000000000000000000001220000000N
5000044692153687ISENTO        20251030MG551  0011275102P000000000350000000000000000000000000000000000000000000000000035000000N
5000004537847638ISENTO        20251031MG551  0011325405P000000003200000000000000000000000000000000000000000000000000814000000N
5000004537847638ISENTO        20251031MG551  0011325102P000000001270000000000000000000000000000000000000000000000000307000000N
5000057414807649ISENTO        20251031MG551  0011335405P000000002380000000000000000000000000000000000000000000000000581000000N
50215322700001130624775200061 20251009MG551  0144001403T000000021842600000000000000000000000000000000000000000000000000000000N
50215322700001130624775200061 20251016MG551  0145131403T000000034910700000000000000000000000000000000000000000000000000000000N
50215322700001130624775200061 20251016MG551  0145131102T000000001535200000000153520000000002763000000000000000000000000001800N
50215322700001130624775200061 20251023MG551  0146321403T000000050553800000000000000000000000000000000000000000000000000000000N
50436489710053861312885600405 20251029MG551  3315031102T000000004551800000000455180000000008195000000000000000000000000001800N
50215322700001130624775200061 20251029MG551  0147351403T000000049339100000000000000000000000000000000000000000000000000000000N
51215322700001130624775200061 20251009MG1  01440014030000000000000000000000000000000000000000000000000000                    N
51215322700001130624775200061 20251016MG1  01451314030000000000000000000000000000000000000000000000000000                    N
51215322700001130624775200061 20251016MG1  01451311020000000000000000000000000000000000000000000000000000                    N
5100040085678600ISENTO        20251022MG1  00107354050000000000000000000000000000000000000000000000000000                    N
5100016046242649ISENTO        20251022MG1  00107454050000000000000000000000000000000000000000000000000000                    N
5100000007026684ISENTO        20251022MG1  00107554050000000000000000000000000000000000000000000000000000                    N
51215322700001130624775200061 20251023MG1  01463214030000000000000000000000000000000000000000000000000000                    N
5100010736792848ISENTO        20251023MG1  00107654050000000000000000000000000000000000000000000000000000                    N
5100004461026604ISENTO        20251023MG1  00107754050000000000000000000000000000000000000000000000000000                    N
5100000395753651ISENTO        20251023MG1  00107851020000000000000000000000000000000000000000000000000000                    N
5100000395753651ISENTO        20251023MG1  00107854050000000000000000000000000000000000000000000000000000                    N
5100008442351647ISENTO        20251023MG1  00107954050000000000000000000000000000000000000000000000000000                    N
5100079034209687ISENTO        20251023MG1  00108054050000000000000000000000000000000000000000000000000000                    N
5100088263452600ISENTO        20251023MG1  00108154050000000000000000000000000000000000000000000000000000                    N
5160563731000762ISENTO        20251024MG1  00108256560000000000000000000000000000000000000000000000000000                    N
5160563731000762ISENTO        20251024MG1  00108254050000000000000000000000000000000000000000000000000000                    N
5160563731000762ISENTO        20251024MG1  00108251020000000000000000000000000000000000000000000000000000                    N
5100090122836634ISENTO        20251027MG1  00108354050000000000000000000000000000000000000000000000000000                    N
5100090122836634ISENTO        20251027MG1  00108351020000000000000000000000000000000000000000000000000000                    N
5100040085678600ISENTO        20251027MG1  00108454050000000000000000000000000000000000000000000000000000                    N
5100000498426688ISENTO        20251027MG1  00108554050000000000000000000000000000000000000000000000000000                    N
5100063150956668ISENTO        20251027MG1  00108651020000000000000000000000000000000000000000000000000000                    N
5100063150956668ISENTO        20251027MG1  00108654050000000000000000000000000000000000000000000000000000                    N
5100007843755691ISENTO        20251027MG1  00108754050000000000000000000000000000000000000000000000000000                    N
5100007843755691ISENTO        20251027MG1  00108751020000000000000000000000000000000000000000000000000000                    N
5100008726348683ISENTO        20251027MG1  00108854050000000000000000000000000000000000000000000000000000                    N
5100042965764615ISENTO        20251027MG1  00108954050000000000000000000000000000000000000000000000000000                    N
5100003057790607ISENTO        20251027MG1  00109054050000000000000000000000000000000000000000000000000000                    N
5100019635419600ISENTO        20251027MG1  00109154050000000000000000000000000000000000000000000000000000                    N
5100019635419600ISENTO        20251027MG1  00109151020000000000000000000000000000000000000000000000000000                    N
5100088998428687ISENTO        20251027MG1  00109254050000000000000000000000000000000000000000000000000000                    N
5100007095953600ISENTO        20251027MG1  00109354050000000000000000000000000000000000000000000000000000                    N
5100007095953600ISENTO        20251027MG1  00109351020000000000000000000000000000000000000000000000000000                    N
5100037878050600ISENTO        20251027MG1  00109454050000000000000000000000000000000000000000000000000000                    N
5160563731000762ISENTO        20251028MG1  00109554050000000000000000000000000000000000000000000000000000                    N
5160563731000762ISENTO        20251028MG1  00109551020000000000000000000000000000000000000000000000000000                    N
51215322700001130624775200061 20251029MG1  01473514030000000000000000000000000000000000000000000000000000                    N
51436489710053861312885600405 20251029MG1  33150311020000000000000000000000000000000000000000000000000000                    N
5100060798998687ISENTO        20251029MG1  00109754050000000000000000000000000000000000000000000000000000                    N
5100099385660659ISENTO        20251029MG1  00109854050000000000000000000000000000000000000000000000000000                    N
5100059215607668ISENTO        20251029MG1  00109954050000000000000000000000000000000000000000000000000000                    N
5100007014083678ISENTO        20251029MG1  00110054050000000000000000000000000000000000000000000000000000                    N
5100004568065631ISENTO        20251029MG1  00110154050000000000000000000000000000000000000000000000000000                    N
5100044773668687ISENTO        20251029MG1  00110254050000000000000000000000000000000000000000000000000000                    N
5100097154881615ISENTO        20251029MG1  00110354050000000000000000000000000000000000000000000000000000                    N
5100061125946687ISENTO        20251029MG1  00110454050000000000000000000000000000000000000000000000000000                    N
5100007382625605ISENTO        20251029MG1  00110554050000000000000000000000000000000000000000000000000000                    N
5100007382625605ISENTO        20251029MG1  00110551020000000000000000000000000000000000000000000000000000                    N
5100004577681692ISENTO        20251029MG1  00110654050000000000000000000000000000000000000000000000000000                    N
5100045175942620ISENTO        20251029MG1  00110856560000000000000000000000000000000000000000000000000000                    N
5100045175942620ISENTO        20251029MG1  00110854050000000000000000000000000000000000000000000000000000                    N
5100007621939648ISENTO        20251029MG1  00110951020000000000000000000000000000000000000000000000000000                    N
5100007621939648ISENTO        20251029MG1  00110954050000000000000000000000000000000000000000000000000000                    N
5100043857264691ISENTO        20251029MG1  00111054050000000000000000000000000000000000000000000000000000                    N
5100060286490668ISENTO        20251029MG1  00111154050000000000000000000000000000000000000000000000000000                    N
5100003276225638ISENTO        20251029MG1  00111254050000000000000000000000000000000000000000000000000000                    N
5100003276225638ISENTO        20251029MG1  00111251020000000000000000000000000000000000000000000000000000                    N
5100072464267600ISENTO        20251029MG1  00111354050000000000000000000000000000000000000000000000000000                    N
5100069106355668ISENTO        20251029MG1  00111454050000000000000000000000000000000000000000000000000000                    N
5100069106355668ISENTO        20251029MG1  00111451020000000000000000000000000000000000000000000000000000                    N
5100071701796600ISENTO        20251030MG1  00111554050000000000000000000000000000000000000000000000000000                    N
5100016338952620ISENTO        20251030MG1  00111654050000000000000000000000000000000000000000000000000000                    N
5100004331403645ISENTO        20251030MG1  00111754050000000000000000000000000000000000000000000000000000                    N
5100017733006600ISENTO        20251030MG1  00111854050000000000000000000000000000000000000000000000000000                    N
5100013006665600ISENTO        20251030MG1  00111954050000000000000000000000000000000000000000000000000000                    N
5100013006665600ISENTO        20251030MG1  00111951020000000000000000000000000000000000000000000000000000                    N
5100007095953600ISENTO        20251030MG1  00112051020000000000000000000000000000000000000000000000000000                    N
5100007095953600ISENTO        20251030MG1  00112054050000000000000000000000000000000000000000000000000000                    N
5100025072846687ISENTO        20251030MG1  00112154050000000000000000000000000000000000000000000000000000                    N
5100025072846687ISENTO        20251030MG1  00112151020000000000000000000000000000000000000000000000000000                    N
5100049616897691ISENTO        20251030MG1  00112254050000000000000000000000000000000000000000000000000000                    N
5100013970855683ISENTO        20251030MG1  00112354050000000000000000000000000000000000000000000000000000                    N
5100016026276734ISENTO        20251030MG1  00112456560000000000000000000000000000000000000000000000000000                    N
5100016026276734ISENTO        20251030MG1  00112454050000000000000000000000000000000000000000000000000000                    N
5100000007026684ISENTO        20251030MG1  00112554050000000000000000000000000000000000000000000000000000                    N
5100040085678600ISENTO        20251030MG1  00112654050000000000000000000000000000000000000000000000000000                    N
5100044692153687ISENTO        20251030MG1  00112751020000000000000000000000000000000000000000000000000000                    N
5100044692153687ISENTO        20251030MG1  00112754050000000000000000000000000000000000000000000000000000                    N
5100065819586620ISENTO        20251031MG1  00112854050000000000000000000000000000000000000000000000000000                    N
5100065819586620ISENTO        20251031MG1  00112851020000000000000000000000000000000000000000000000000000                    N
5100008850058640ISENTO        20251031MG1  00112954050000000000000000000000000000000000000000000000000000                    N
5100014432854634ISENTO        20251031MG1  00113054050000000000000000000000000000000000000000000000000000                    N
5100014432854634ISENTO        20251031MG1  00113051020000000000000000000000000000000000000000000000000000                    N
5100000123362628ISENTO        20251031MG1  00113154050000000000000000000000000000000000000000000000000000                    N
5100004537847638ISENTO        20251031MG1  00113254050000000000000000000000000000000000000000000000000000                    N
5100004537847638ISENTO        20251031MG1  00113251020000000000000000000000000000000000000000000000000000                    N
5100057414807649ISENTO        20251031MG1  00113354050000000000000000000000000000000000000000000000000000                    N
5300040085678600ISENTO        20251022MG551  0010735405P000000000000000000000000000000000000000N                              
5300010736792848ISENTO        20251023MG551  0010765405P000000000000000000000000000000000000000N                              
5300016046242649ISENTO        20251022MG551  0010745405P000000000000000000000000000000000000000N                              
5300004461026604ISENTO        20251023MG551  0010775405P000000000000000000000000000000000000000N                              
5300000007026684ISENTO        20251022MG551  0010755405P000000000000000000000000000000000000000N                              
5360563731000762ISENTO        20251024MG551  0010825656P000000000000000000000000000000000000000N                              
5360563731000762ISENTO        20251024MG551  0010825405P000000000000000000000000000000000000000N                              
5360563731000762ISENTO        20251024MG551  0010825102P000000000000000000000000000000000000000N                              
5300090122836634ISENTO        20251027MG551  0010835102P000000000000000000000000000000000000000N                              
5300090122836634ISENTO        20251027MG551  0010835405P000000000000000000000000000000000000000N                              
5300000395753651ISENTO        20251023MG551  0010785405P000000000000000000000000000000000000000N                              
5300000395753651ISENTO        20251023MG551  0010785102P000000000000000000000000000000000000000N                              
5360563731000762ISENTO        20251028MG551  0010955405P000000000000000000000000000000000000000N                              
5360563731000762ISENTO        20251028MG551  0010955102P000000000000000000000000000000000000000N                              
5300008442351647ISENTO        20251023MG551  0010795405P000000000000000000000000000000000000000N                              
5300079034209687ISENTO        20251023MG551  0010805405P000000000000000000000000000000000000000N                              
5300040085678600ISENTO        20251027MG551  0010845405P000000000000000000000000000000000000000N                              
5300060798998687ISENTO        20251029MG551  0010975405P000000000000000000000000000000000000000N                              
5300000498426688ISENTO        20251027MG551  0010855405P000000000000000000000000000000000000000N                              
5300088263452600ISENTO        20251023MG551  0010815405P000000000000000000000000000000000000000N                              
5300063150956668ISENTO        20251027MG551  0010865405P000000000000000000000000000000000000000N                              
5300063150956668ISENTO        20251027MG551  0010865102P000000000000000000000000000000000000000N                              
5300007843755691ISENTO        20251027MG551  0010875405P000000000000000000000000000000000000000N                              
5300007843755691ISENTO        20251027MG551  0010875102P000000000000000000000000000000000000000N                              
5300071701796600ISENTO        20251030MG551  0011155405P000000000000000000000000000000000000000N                              
5300099385660659ISENTO        20251029MG551  0010985405P000000000000000000000000000000000000000N                              
5300008726348683ISENTO        20251027MG551  0010885405P000000000000000000000000000000000000000N                              
5300042965764615ISENTO        20251027MG551  0010895405P000000000000000000000000000000000000000N                              
5300003057790607ISENTO        20251027MG551  0010905405P000000000000000000000000000000000000000N                              
5300059215607668ISENTO        20251029MG551  0010995405P000000000000000000000000000000000000000N                              
5300016338952620ISENTO        20251030MG551  0011165405P000000000000000000000000000000000000000N                              
5300019635419600ISENTO        20251027MG551  0010915405P000000000000000000000000000000000000000N                              
5300019635419600ISENTO        20251027MG551  0010915102P000000000000000000000000000000000000000N                              
5300007014083678ISENTO        20251029MG551  0011005405P000000000000000000000000000000000000000N                              
5300088998428687ISENTO        20251027MG551  0010925405P000000000000000000000000000000000000000N                              
5300007095953600ISENTO        20251027MG551  0010935405P000000000000000000000000000000000000000N                              
5300007095953600ISENTO        20251027MG551  0010935102P000000000000000000000000000000000000000N                              
5300065819586620ISENTO        20251031MG551  0011285405P000000000000000000000000000000000000000N                              
5300065819586620ISENTO        20251031MG551  0011285102P000000000000000000000000000000000000000N                              
5300037878050600ISENTO        20251027MG551  0010945405P000000000000000000000000000000000000000N                              
5300004568065631ISENTO        20251029MG551  0011015405P000000000000000000000000000000000000000N                              
5300004331403645ISENTO        20251030MG551  0011175405P000000000000000000000000000000000000000N                              
5300044773668687ISENTO        20251029MG551  0011025405P000000000000000000000000000000000000000N                              
5300097154881615ISENTO        20251029MG551  0011035405P000000000000000000000000000000000000000N                              
5300017733006600ISENTO        20251030MG551  0011185405P000000000000000000000000000000000000000N                              
5300008850058640ISENTO        20251031MG551  0011295405P000000000000000000000000000000000000000N                              
5300061125946687ISENTO        20251029MG551  0011045405P000000000000000000000000000000000000000N                              
5300013006665600ISENTO        20251030MG551  0011195405P000000000000000000000000000000000000000N                              
5300013006665600ISENTO        20251030MG551  0011195102P000000000000000000000000000000000000000N                              
5300007382625605ISENTO        20251029MG551  0011055405P000000000000000000000000000000000000000N                              
5300007382625605ISENTO        20251029MG551  0011055102P000000000000000000000000000000000000000N                              
5300004577681692ISENTO        20251029MG551  0011065405P000000000000000000000000000000000000000N                              
5300014432854634ISENTO        20251031MG551  0011305405P000000000000000000000000000000000000000N                              
5300014432854634ISENTO        20251031MG551  0011305102P000000000000000000000000000000000000000N                              
5300007095953600ISENTO        20251030MG551  0011205405P000000000000000000000000000000000000000N                              
5300007095953600ISENTO        20251030MG551  0011205102P000000000000000000000000000000000000000N                              
5300045175942620ISENTO        20251029MG551  0011085656P000000000000000000000000000000000000000N                              
5300045175942620ISENTO        20251029MG551  0011085405P000000000000000000000000000000000000000N                              
5300025072846687ISENTO        20251030MG551  0011215102P000000000000000000000000000000000000000N                              
5300025072846687ISENTO        20251030MG551  0011215405P000000000000000000000000000000000000000N                              
5300007621939648ISENTO        20251029MG551  0011095405P000000000000000000000000000000000000000N                              
5300007621939648ISENTO        20251029MG551  0011095102P000000000000000000000000000000000000000N                              
5300043857264691ISENTO        20251029MG551  0011105405P000000000000000000000000000000000000000N                              
5300049616897691ISENTO        20251030MG551  0011225405P000000000000000000000000000000000000000N                              
5300060286490668ISENTO        20251029MG551  0011115405P000000000000000000000000000000000000000N                              
5300013970855683ISENTO        20251030MG551  0011235405P000000000000000000000000000000000000000N                              
5300003276225638ISENTO        20251029MG551  0011125102P000000000000000000000000000000000000000N                              
5300003276225638ISENTO        20251029MG551  0011125405P000000000000000000000000000000000000000N                              
5300072464267600ISENTO        20251029MG551  0011135405P000000000000000000000000000000000000000N                              
5300016026276734ISENTO        20251030MG551  0011245656P000000000000000000000000000000000000000N                              
5300016026276734ISENTO        20251030MG551  0011245405P000000000000000000000000000000000000000N                              
5300000123362628ISENTO        20251031MG551  0011315405P000000000000000000000000000000000000000N                              
5300069106355668ISENTO        20251029MG551  0011145405P000000000000000000000000000000000000000N                              
5300069106355668ISENTO        20251029MG551  0011145102P000000000000000000000000000000000000000N                              
5300000007026684ISENTO        20251030MG551  0011255405P000000000000000000000000000000000000000N                              
5300040085678600ISENTO        20251030MG551  0011265405P000000000000000000000000000000000000000N                              
5300044692153687ISENTO        20251030MG551  0011275405P000000000000000000000000000000000000000N                              
5300044692153687ISENTO        20251030MG551  0011275102P000000000000000000000000000000000000000N                              
5300004537847638ISENTO        20251031MG551  0011325405P000000000000000000000000000000000000000N                              
5300004537847638ISENTO        20251031MG551  0011325102P000000000000000000000000000000000000000N                              
5300057414807649ISENTO        20251031MG551  0011335405P000000000000000000000000000000000000000N                              
53215322700001130624775200061 20251009MG551  0144001403T000000000000000000000000000000000000000N                              
53215322700001130624775200061 20251016MG551  0145131403T000000000000000000000000000000000000000N                              
53215322700001130624775200061 20251016MG551  0145131102T000000000000000000000000000000000000000N                              
53215322700001130624775200061 20251023MG551  0146321403T000000000000000000000000000000000000000N                              
53436489710053861312885600405 20251029MG551  3315031102T000000000000000000000000000000000000000N                              
53215322700001130624775200061 20251029MG551  0147351403T000000000000000000000000000000000000000N                              
5400000007026684551  00107554055000011525          000000040000000000138000000000000000000000000000000000000000000000000000000
5400000007026684551  00107554055000021511          000000010000000000112000000000000000000000000000000000000000000000000000000
5400000007026684551  0010755405500003780           000000010000000000028000000000000000000000000000000000000000000000000000000
5400000007026684551  0011255405500001670           000000010000000000072000000000000000000000000000000000000000000000000000000
5400000123362628551  0011315405500001767           000000020000000000096000000000000000000000000000000000000000000000000000000
5400000123362628551  00113154055000021430          000000010000000000042000000000000000000000000000000000000000000000000000000
5400000123362628551  00113154055000031429          000000010000000000042000000000000000000000000000000000000000000000000000000
5400000123362628551  00113154055000041856          000000010000000000209000000000000000000000000000000000000000000000000000000
5400000123362628551  00113154055000051157          000000010000000000052000000000000000000000000000000000000000000000000000000
5400000123362628551  00113154055000061477          000000020000000000148000000000000000000000000000000000000000000000000000000
5400000123362628551  00113154055000071426          000000010000000000036000000000000000000000000000000000000000000000000000000
5400000123362628551  00113154055000081428          000000010000000000094000000000000000000000000000000000000000000000000000000
5400000395753651551  0010785405500001916           000000040000000000160000000000000000000000000000000000000000000000000000000
5400000395753651551  00107854055000021793          000000010000000000030000000000000000000000000000000000000000000000000000000
5400000395753651551  0010785405500003702           000000010000000000286000000000000000000000000000000000000000000000000000000
5400000395753651551  0010785405500004703           000000040000000000116000000000000000000000000000000000000000000000000000000
5400000395753651551  00107851021020051719          000000020000000000016000000000000000000000000000000000000000000000000000000
5400000498426688551  0010855405500001633           000000030000000000174000000000000000000000000000000000000000000000000000000
5400000498426688551  00108554055000021780          000000010000000000035000000000000000000000000000000000000000000000000000000
5400000498426688551  00108554055000031931          000000010000000000058000000000000000000000000000000000000000000000000000000
5400000498426688551  00108554055000041010          000000010000000000035000000000000000000000000000000000000000000000000000000
5400003057790607551  0010905405500001915           000000040000000000176000000000000000000000000000000000000000000000000000000
5400003057790607551  00109054055000021572          000000010000000000030000000000000000000000000000000000000000000000000000000
5400003057790607551  0010905405500003972           000000010000000000016000000000000000000000000000000000000000000000000000000
5400003276225638551  00111251021020011722          000000010000000000010000000000000000000000000000000000000000000000000000000
5400003276225638551  00111251021020021719          000000020000000000016000000000000000000000000000000000000000000000000000000
5400003276225638551  00111254055000031995          000000020000000000108000000000000000000000000000000000000000000000000000000
5400003276225638551  00111254055000041112          000000010000000000298000000000000000000000000000000000000000000000000000000
5400003276225638551  0011125405500005750           000000010000000000235000000000000000000000000000000000000000000000000000000
5400003276225638551  0011125405500006918           000000010000000000178000000000000000000000000000000000000000000000000000000
5400003276225638551  0011125405500007790           000000010000000000044000000000000000000000000000000000000000000000000000000
5400004331403645551  0011175405500001855           000000045000000000207000000000000000000000000000000000000000000000000000000
5400004331403645551  00111754055000021793          000000010000000000030000000000000000000000000000000000000000000000000000000
5400004331403645551  0011175405500003972           000000010000000000016000000000000000000000000000000000000000000000000000000
5400004461026604551  00107754055000011030          000000020000000000072000000000000000000000000000000000000000000000000000000
5400004461026604551  0010775405500002908           000000010000000000385000000000000000000000000000000000000000000000000000000
5400004461026604551  0010775405500003797           000000010000000000154000000000000000000000000000000000000000000000000000000
5400004537847638551  0011325405500001633           000000040000000000232000000000000000000000000000000000000000000000000000000
5400004537847638551  00113254055000021793          000000010000000000030000000000000000000000000000000000000000000000000000000
5400004537847638551  00113254055000031891          000000010000000000058000000000000000000000000000000000000000000000000000000
5400004537847638551  00113251021020042035          000000010000000000032000000000000000000000000000000000000000000000000000000
5400004537847638551  00113251021020051748          000000010000000000024000000000000000000000000000000000000000000000000000000
5400004537847638551  00113251021020062037          000000010000000000036000000000000000000000000000000000000000000000000000000
5400004537847638551  00113251021020071459          000000010000000000035000000000000000000000000000000000000000000000000000000
5400004568065631551  0011015405500001915           000000040000000000176000000000000000000000000000000000000000000000000000000
5400004568065631551  00110154055000021710          000000010000000000074000000000000000000000000000000000000000000000000000000
5400004568065631551  00110154055000031838          000000010000000000035000000000000000000000000000000000000000000000000000000
5400004568065631551  0011015405500004972           000000010000000000008000000000000000000000000000000000000000000000000000000
5400004577681692551  0011065405500001855           000000040000000000184000000000000000000000000000000000000000000000000000000
5400004577681692551  00110654055000021563          000000010000000000030000000000000000000000000000000000000000000000000000000
5400004577681692551  00110654055000031297          000000010000000000036000000000000000000000000000000000000000000000000000000
5400004577681692551  0011065405500004972           000000010000000000005000000000000000000000000000000000000000000000000000000
5400007014083678551  0011005405500001915           000000045000000000198000000000000000000000000000000000000000000000000000000
5400007014083678551  00110054055000021782          000000010000000000036000000000000000000000000000000000000000000000000000000
5400007014083678551  0011005405500003621           000000010000000000056000000000000000000000000000000000000000000000000000000
5400007014083678551  0011005405500004972           000000010000000000005000000000000000000000000000000000000000000000000000000
5400007095953600551  0010935405500001915           000000045000000000207000000000000000000000000000000000000000000000000000000
5400007095953600551  00109354055000021053          000000010000000000036000000000000000000000000000000000000000000000000000000
5400007095953600551  0010935405500003972           000000010000000000016000000000000000000000000000000000000000000000000000000
5400007095953600551  00109351021020041459          000000010000000000035000000000000000000000000000000000000000000000000000000
5400007095953600551  00112054055000011473          000000010000000000065000000000000000000000000000000000000000000000000000000
5400007095953600551  00112051021020021659          000000020000000000014000000000000000000000000000000000000000000000000000000
5400007382625605551  00110554055000011948          000000010000000000487000000000038370000000000000000000000000000000000000000
5400007382625605551  0011055405500002855           000000035000000000161000000000012670000000000000000000000000000000000000000
5400007382625605551  00110554055000031782          000000010000000000035000000000002750000000000000000000000000000000000000000
5400007382625605551  00110554055000041317          000000010000000000044000000000003460000000000000000000000000000000000000000
5400007382625605551  0011055405500005780           000000010000000000028000000000002200000000000000000000000000000000000000000
5400007382625605551  00110554055000061232          000000010000000000034000000000002670000000000000000000000000000000000000000
5400007382625605551  0011055405500007509           000000020000000000088000000000006930000000000000000000000000000000000000000
5400007382625605551  00110554055000081525          000000030000000000123000000000009680000000000000000000000000000000000000000
5400007382625605551  00110551021020091459          000000010000000000035000000000002750000000000000000000000000000000000000000
5400007382625605551  00110554055000101243          000000020000000000280000000000022040000000000000000000000000000000000000000
5400007621939648551  0011095405500001578           000000010000000000068000000000002190000000000000000000000000000000000000000
5400007621939648551  0011095405500002915           000000035000000000154000000000004950000000000000000000000000000000000000000
5400007621939648551  00110954055000031572          000000010000000000030000000000000960000000000000000000000000000000000000000
5400007621939648551  00110954055000041841          000000010000000000042000000000001350000000000000000000000000000000000000000
5400007621939648551  0011095405500005905           000000010000000000032000000000001030000000000000000000000000000000000000000
5400007621939648551  0011095405500006780           000000010000000000028000000000000900000000000000000000000000000000000000000
5400007621939648551  0011095405500007729           000000020000000000364000000000011700000000000000000000000000000000000000000
5400007621939648551  0011095405500008636           000000040000000000112000000000003600000000000000000000000000000000000000000
5400007621939648551  0011095405500009509           000000020000000000088000000000002830000000000000000000000000000000000000000
5400007621939648551  00110951021020101459          000000010000000000035000000000001120000000000000000000000000000000000000000
5400007621939648551  0011095405500011619           000000010000000000094000000000003020000000000000000000000000000000000000000
5400007621939648551  00110954055000121058          000000020000000000104000000000003340000000000000000000000000000000000000000
5400007621939648551  0011095405500013790           000000010000000000044000000000001410000000000000000000000000000000000000000
5400007843755691551  0010875405500001633           000000040000000000232000000000000000000000000000000000000000000000000000000
5400007843755691551  00108754055000021793          000000010000000000030000000000000000000000000000000000000000000000000000000
5400007843755691551  00108751021020031459          000000010000000000035000000000000000000000000000000000000000000000000000000
5400008442351647551  0010795405500001808           000000010000000000142000000000000000000000000000000000000000000000000000000
5400008726348683551  0010885405500001915           000000040000000000176000000000000000000000000000000000000000000000000000000
5400008726348683551  00108854055000021636          000000010000000000035000000000000000000000000000000000000000000000000000000
5400008726348683551  0010885405500003874           000000010000000000049000000000000000000000000000000000000000000000000000000
5400008726348683551  0010885405500004972           000000010000000000005000000000000000000000000000000000000000000000000000000
5400008726348683551  00108854055000051540          000000010000000000078000000000000000000000000000000000000000000000000000000
5400008850058640551  0011295405500001855           000000040000000000192000000000000000000000000000000000000000000000000000000
5400008850058640551  00112954055000021782          000000010000000000038000000000000000000000000000000000000000000000000000000
5400008850058640551  0011295405500003746           000000010000000000056000000000000000000000000000000000000000000000000000000
5400008850058640551  0011295405500004972           000000010000000000016000000000000000000000000000000000000000000000000000000
5400010736792848551  00107654055000012013          000000010000000000046000000000000000000000000000000000000000000000000000000
5400013006665600551  0011195405500001739           000000010000000000078000000000000000000000000000000000000000000000000000000
5400013006665600551  00111954055000021216          000000010000000000134000000000000000000000000000000000000000000000000000000
5400013006665600551  00111954055000031530          000000040000000000102000000000000000000000000000000000000000000000000000000
5400013006665600551  0011195405500004774           000000010000000000206000000000000000000000000000000000000000000000000000000
5400013006665600551  0011195405500005915           000000045000000000198000000000000000000000000000000000000000000000000000000
5400013006665600551  00111954055000061572          000000010000000000029000000000000000000000000000000000000000000000000000000
5400013006665600551  00111954055000071463          000000010000000000048000000000000000000000000000000000000000000000000000000
5400013006665600551  0011195405500008972           000000010000000000005000000000000000000000000000000000000000000000000000000
5400013006665600551  0011195405500009824           000000010000000000534000000000000000000000000000000000000000000000000000000
5400013006665600551  00111954055000101894          000000010000000000148000000000000000000000000000000000000000000000000000000
5400013006665600551  00111951021020111661          000000030000000000021000000000000000000000000000000000000000000000000000000
5400013006665600551  00111951021020121719          000000020000000000016000000000000000000000000000000000000000000000000000000
5400013970855683551  0011235405500001915           000000035000000000154000000000000000000000000000000000000000000000000000000
5400013970855683551  00112354055000021293          000000010000000000038000000000000000000000000000000000000000000000000000000
5400013970855683551  0011235405500003746           000000010000000000062000000000000000000000000000000000000000000000000000000
5400013970855683551  0011235405500004972           000000010000000000005000000000000000000000000000000000000000000000000000000
5400014432854634551  0011305405500001915           000000030000000000132000000000000000000000000000000000000000000000000000000
5400014432854634551  00113054055000021793          000000010000000000030000000000000000000000000000000000000000000000000000000
5400014432854634551  00113054055000031830          000000010000000000019000000000000000000000000000000000000000000000000000000
5400014432854634551  00113054055000041009          000000040000000000078000000000000000000000000000000000000000000000000000000
5400014432854634551  00113054055000051867          000000010000000000075000000000000000000000000000000000000000000000000000000
5400014432854634551  00113054055000061216          000000010000000000134000000000000000000000000000000000000000000000000000000
5400014432854634551  00113054055000071197          000000010000000000104000000000000000000000000000000000000000000000000000000
5400014432854634551  00113054055000081275          000000010000000000394000000000000000000000000000000000000000000000000000000
5400014432854634551  00113054055000092047          000000010000000000119000000000000000000000000000000000000000000000000000000
5400014432854634551  0011305405500010710           000000010000000000106000000000000000000000000000000000000000000000000000000
5400014432854634551  00113054055000111909          000000010000000000074000000000000000000000000000000000000000000000000000000
5400014432854634551  00113054055000121905          000000010000000000228000000000000000000000000000000000000000000000000000000
5400014432854634551  00113054055000131904          000000010000000000186000000000000000000000000000000000000000000000000000000
5400014432854634551  0011305405500014968           000000010000000000172000000000000000000000000000000000000000000000000000000
5400014432854634551  0011305405500015809           000000070000000000098000000000000000000000000000000000000000000000000000000
5400014432854634551  00113054055000161907          000000020000000000084000000000000000000000000000000000000000000000000000000
5400014432854634551  00113054055000171870          000000020000000000088000000000000000000000000000000000000000000000000000000
5400014432854634551  00113051021020181459          000000010000000000035000000000000000000000000000000000000000000000000000000
5400014432854634551  0011305405500019972           000000020000000000016000000000000000000000000000000000000000000000000000000
5400014432854634551  00113054055000201405          000000010000000000071000000000000000000000000000000000000000000000000000000
5400014432854634551  00113051021020211661          000000030000000000021000000000000000000000000000000000000000000000000000000
5400014432854634551  00113051021020221745          000000010000000000038000000000000000000000000000000000000000000000000000000
5400014432854634551  0011305405500023717           000000010000000000105000000000000000000000000000000000000000000000000000000
5400014432854634551  00113054055000241591          000000040000000000968000000000000000000000000000000000000000000000000000000
5400014432854634551  00113054055000251385          000000010000000000098000000000000000000000000000000000000000000000000000000
5400014432854634551  0011305405500026579           000000010000000000074000000000000000000000000000000000000000000000000000000
5400014432854634551  00113054055000271314          000000010000000000231000000000000000000000000000000000000000000000000000000
5400014432854634551  0011305405500028790           000000010000000000044000000000000000000000000000000000000000000000000000000
5400016026276734551  00112456565000011260          000000030000000000132000000000000000000000000000000000000000000000000000000
5400016026276734551  00112454055000021235          000000010000000000042000000000000000000000000000000000000000000000000000000
5400016046242649551  00107454055000011563          000000010000000000030000000000000000000000000000000000000000000000000000000
5400016046242649551  00107454055000022012          000000010000000000223000000000000000000000000000000000000000000000000000000
5400016046242649551  0010745405500003972           000000010000000000005000000000000000000000000000000000000000000000000000000
5400016338952620551  0011165405500001855           000000045000000000207000000000000000000000000000000000000000000000000000000
5400016338952620551  00111654055000021782          000000010000000000035000000000000000000000000000000000000000000000000000000
5400016338952620551  0011165405500003972           000000010000000000016000000000000000000000000000000000000000000000000000000
5400017733006600551  0011185405500001915           000000040000000000176000000000000000000000000000000000000000000000000000000
5400017733006600551  0011185405500002680           000000010000000000036000000000000000000000000000000000000000000000000000000
5400017733006600551  00111854055000031634          000000010000000000062000000000000000000000000000000000000000000000000000000
5400017733006600551  00111854055000041980          000000010000000000138000000000000000000000000000000000000000000000000000000
5400019635419600551  0010915405500001916           000000035000000000147000000000000000000000000000000000000000000000000000000
5400019635419600551  00109154055000021572          000000010000000000030000000000000000000000000000000000000000000000000000000
5400019635419600551  00109154055000031830          000000010000000000001000000000000000000000000000000000000000000000000000000
5400019635419600551  0010915405500004972           000000010000000000016000000000000000000000000000000000000000000000000000000
5400019635419600551  00109154055000051696          000000010000000000038000000000000000000000000000000000000000000000000000000
5400019635419600551  00109151021020061661          000000020000000000014000000000000000000000000000000000000000000000000000000
5421532270000113551  01440014030600012006          000000010000000000065800000000000000000000000000000000009870000000000000000
5421532270000113551  01440014030600022007          000000010000000000025180000000000000000000000000000000002300000000000000000
5421532270000113551  01440014030600032008          000000010000000000045490000000000000000000000000000000006320000000000000000
5421532270000113551  0144001403060004512           000000010000000000292430000000000000000000000000000000035370000000000000000
5421532270000113551  0144001403060005754           000000010000000000093410000000000000000000000000000000005430000000000000000
5421532270000113551  01440014030600061850          000000010000000000137280000000000000000000000000000000014610000000000000000
5421532270000113551  01440014030600072009          000000010000000000024370000000000000000000000000000000000000000000000000000
5421532270000113551  01440014030600081066          000000010000000000151900000000000000000000000000000000000000000000000000000
5421532270000113551  01440014030600091367          000000010000000000112910000000000000000000000000000000014300000000000000000
5421532270000113551  0144001403060010619           000000010000000000069860000000000000000000000000000000009710000000000000000
5421532270000113551  01440014030600111511          000000010000000000091790000000000000000000000000000000007220000000000000000
5421532270000113551  01440014030600121525          000000040000000000112080000000000000000000000000000000012880000000000000000
5421532270000113551  01440014030600132010          000000020000000000386660000000000000000000000000000000050220000000000000000
5421532270000113551  01440014030600142011          000000020000000000108840000000000000000000000000000000011020000000000000000
5421532270000113551  01440014030600152012          000000010000000000151090000000000000000000000000000000000000000000000000000
5421532270000113551  0144001403060016797           000000010000000000116970000000000000000000000000000000008950000000000000000
5421532270000113551  0144001403060017703           000000040000000000086120000000000000000000000000000000011520000000000000000
5421532270000113551  01440014030600182013          000000010000000000015430000000000000000000000000000000002420000000000000000
5421532270000113551  01440014030600192014          000000010000000000021930000000000000000000000000000000001990000000000000000
5421532270000113551  01440014030600201436          000000040000000000074720000000000000000000000000000000000000000000000000000
5421532270000113551  0145131403060001504           000000020000000000027620000000000000000000000000000000003190000000000000000
5421532270000113551  01451314030600021010          000000010000000000014620000000000000000000000000000000001680000000000000000
5421532270000113551  01451314030600031931          000000010000000000042240000000000000000000000000000000003520000000000000000
5421532270000113551  01451314030600041992          000000010000000000697770000000000000000000000000000000093150000000000000000
5421532270000113551  01451311020000052015          000000010000000000153520000000000000000000153520000000000000000000000001800
5421532270000113551  01451314030600062016          000000010000000000169770000000000000000000153520000000016590000000000000000
5421532270000113551  01451314030600072017          000000010000000000117780000000000000000000153520000000013210000000000000000
5421532270000113551  01451314030600082018          000000010000000000199010000000000000000000153520000000021510000000000000000
5421532270000113551  01451314030600092019          000000010000000000292430000000000000000000153520000000047820000000000000000
5421532270000113551  01451314030600101605          000000020000000000154340000000000000000000153520000000000000000000000000000
5421532270000113551  01451314030600112020          000000020000000000469500000000000000000000153520000000000000000000000000000
5421532270000113551  01451314030600121243          000000020000000000162300000000000000000000153520000000017310000000000000000
5421532270000113551  01451314030600131948          000000010000000000379340000000000000000000153520000000062040000000000000000
5421532270000113551  01451314030600141525          000000030000000000084060000000000000000000153520000000004890000000000000000
5421532270000113551  01451314030600151690          000000020000000000295680000000000000000000153520000000022540000000000000000
5421532270000113551  01451314030600161856          000000010000000000170580000000000000000000153520000000012260000000000000000
5421532270000113551  01451314030600171454          000000010000000000072290000000000000000000153520000000002620000000000000000
5421532270000113551  0145131403060018675           000000010000000000012590000000000000000000153520000000001360000000000000000
5421532270000113551  01451314030600191035          000000040000000000100720000000000000000000153520000000012580000000000000000
5421532270000113551  01451314030600202021          000000010000000000028430000000000000000000153520000000000000000000000000000
5421532270000113551  01463214030600012022          000000010000000000021120000000000000000000153520000000002180000000000000000
5421532270000113551  01463214030600022023          000000010000000000055240000000000000000000153520000000007220000000000000000
5421532270000113551  01463214030600031058          000000020000000000076360000000000000000000153520000000012160000000000000000
5421532270000113551  0146321403060004905           000000010000000000020310000000000000000000153520000000002150000000000000000
5421532270000113551  01463214030600051841          000000010000000000024370000000000000000000153520000000002520000000000000000
5421532270000113551  0146321403060006729           000000020000000000275360000000000000000000153520000000029840000000000000000
5421532270000113551  0146321403060007619           000000010000000000069860000000000000000000153520000000000000000000000000000
5421532270000113551  0146321403060008636           000000040000000000082840000000000000000000153520000000009770000000000000000
5421532270000113551  01463214030600092024          000000020000000000061400000000000000000000153520000000007470000000000000000
5421532270000113551  01463214030600102025          000000010000000000471130000000000000000000153520000000055790000000000000000
5421532270000113551  0146321403060011515           000000040000000000091800000000000000000000153520000000012700000000000000000
5421532270000113551  01463214030600121049          000000020000000000026000000000000000000000153520000000003050000000000000000
5421532270000113551  0146321403060013723           000000020000000000077980000000000000000000153520000000005570000000000000000
5421532270000113551  01463214030600141643          000000010000000000486570000000000000000000153520000000078660000000000000000
5421532270000113551  01463214030600151849          000000010000000000136470000000000000000000153520000000017950000000000000000
5421532270000113551  01463214030600162026          000000010000000000069860000000000000000000153520000000002320000000000000000
5421532270000113551  01463214030600172027          000000010000000000153520000000000000000000153520000000000000000000000000000
5421532270000113551  01463214030600182028          000000010000000000072700000000000000000000153520000000001370000000000000000
5421532270000113551  0146321403060019803           000000020000000000013000000000000000000000153520000000000000000000000000000
5421532270000113551  01463214030600201359          000000010000000000075540000000000000000000153520000000009740000000000000000
5421532270000113551  01463214030600211985          000000010000000000049550000000000000000000153520000000005160000000000000000
5421532270000113551  0146321403060022710           000000010000000000079610000000000000000000153520000000000000000000000000000
5421532270000113551  01463214030600231213          000000010000000000126720000000000000000000153520000000015720000000000000000
5421532270000113551  0146321403060024992           000000010000000000040210000000000000000000153520000000004560000000000000000
5421532270000113551  01463214030600252029          000000040000000000476000000000000000000000153520000000077880000000000000000
5421532270000113551  01463214030600262030          000000020000000000999120000000000000000000153520000000133640000000000000000
5421532270000113551  01463214030600271782          000000010000000000021690000000000000000000153520000000003570000000000000000
5421532270000113551  01463214030600281243          000000020000000000162300000000000000000000153520000000017470000000000000000
5421532270000113551  01463214030600292031          000000010000000000072290000000000000000000153520000000009910000000000000000
5421532270000113551  01463214030600301070          000000010000000000074730000000000000000000153520000000009690000000000000000
5421532270000113551  01463214030600311900          000000090000000000376470000000000000000000153520000000000000000000000000000
5421532270000113551  01463214030600322032          000000010000000000215260000000000000000000153520000000000000000000000000000
5421532270000113551  01473514030600011494          000000010000000000038180000000000000000000608700000000000000000000000000000
5421532270000113551  01473514030600021167          000000010000000000014620000000000000000000608700000000001580000000000000000
5421532270000113551  0147351403060003735           000000010000000000036550000000000000000000608700000000005630000000000000000
5421532270000113551  01473514030600041112          000000010000000000223380000000000000000000608700000000030340000000000000000
5421532270000113551  0147351403060005750           000000010000000000180330000000000000000000608700000000024330000000000000000
5421532270000113551  01473514030600061268          000000010000000000026810000000000000000000608700000000002940000000000000000
5421532270000113551  01473514030600071510          000000020000000000056860000000000000000000608700000000008280000000000000000
5421532270000113551  01473514030600081572          000000040000000000052000000000000000000000608700000000008690000000000000000
5421532270000113551  01473514030600091768          000000010000000000164900000000000000000000608700000000021790000000000000000
5421532270000113551  01473514030600102040          000000010000000000099910000000000000000000608700000000012130000000000000000
5421532270000113551  01473514030600112041          000000010000000000128340000000000000000000608700000000000000000000000000000
5421532270000113551  01473514030600122042          000000010000000000051170000000000000000000608700000000008450000000000000000
5421532270000113551  01473514030600131631          000000010000000000080820000000000000000000608700000000012920000000000000000
5421532270000113551  01473514030600141406          000000010000000000422400000000000000000000608700000000061490000000000000000
5421532270000113551  01473514030600152043          000000010000000000031680000000000000000000608700000000003450000000000000000
5421532270000113551  01473514030600161766          000000020000000000035740000000000000000000608700000000003690000000000000000
5421532270000113551  0147351403060017530           000000010000000000121840000000000000000000608700000000000000000000000000000
5421532270000113551  01473514030600182044          000000040000000000763560000000000000000000608700000000091650000000000000000
5421532270000113551  01473514030600192045          000000010000000000147840000000000000000000608700000000000000000000000000000
5421532270000113551  0147351403060020806           000000010000000000056860000000000000000000608700000000008640000000000000000
5421532270000113551  0147351403060021774           000000010000000000157590000000000000000000608700000000016470000000000000000
5421532270000113551  0147351403060022739           000000010000000000059300000000000000000000608700000000009570000000000000000
5421532270000113551  01473514030600231463          000000010000000000031680000000000000000000608700000000003230000000000000000
5421532270000113551  01473514030600241436          000000040000000000074720000000000000000000608700000000009960000000000000000
5421532270000113551  01473514030600252046          000000010000000000405340000000000000000000608700000000042170000000000000000
5421532270000113551  0147351403060026992           000000010000000000041430000000000000000000608700000000004560000000000000000
5421532270000113551  0147351403060027988           000000010000000000093410000000000000000000608700000000007280000000000000000
5421532270000113551  0147351403060028627           000000020000000000029240000000000000000000608700000000003050000000000000000
5421532270000113551  01473514030600291167          000000020000000000029240000000000000000000608700000000003160000000000000000
5421532270000113551  0147351403060030874           000000020000000000060920000000000000000000608700000000009130000000000000000
5421532270000113551  0147351403060031735           000000020000000000073100000000000000000000608700000000011260000000000000000
5421532270000113551  0147351403060032882           000000030000000000051180000000000000000000608700000000008330000000000000000
5421532270000113551  01473514030600331325          000000020000000000113720000000000000000000608700000000013310000000000000000
5421532270000113551  01473514030600341894          000000010000000000112100000000000000000000608700000000000000000000000000000
5421532270000113551  0147351403060035968           000000010000000000128340000000000000000000608700000000013460000000000000000
5421532270000113551  01473514030600361197          000000010000000000078390000000000000000000608700000000010420000000000000000
5421532270000113551  01473514030600371904          000000010000000000137280000000000000000000608700000000000390000000000000000
5421532270000113551  01473514030600381905          000000010000000000172210000000000000000000608700000000021200000000000000000
5421532270000113551  01473514030600392047          000000010000000000086100000000000000000000608700000000009180000000000000000
5421532270000113551  0147351403060040809           000000070000000000068250000000000000000000608700000000001430000000000000000
5421532270000113551  01473514030600411907          000000020000000000063360000000000000000000608700000000000000000000000000000
5421532270000113551  01473514030600421909          000000010000000000053610000000000000000000608700000000005590000000000000000
5421532270000113551  0147351403060043710           000000010000000000079610000000000000000000608700000000000000000000000000000
5400025072846687551  00112151021020011459          000000010000000000035000000000000000000000000000000000000000000000000000000
5400025072846687551  0011215405500002915           000000035000000000154000000000000000000000000000000000000000000000000000000
5400025072846687551  00112154055000031572          000000010000000000030000000000000000000000000000000000000000000000000000000
5400025072846687551  00112154055000041830          000000010000000000019000000000000000000000000000000000000000000000000000000
5400025072846687551  0011215405500005972           000000010000000000005000000000000000000000000000000000000000000000000000000
5400037878050600551  00109454055000011992          000000010000000000912000000000000000000000000000000000000000000000000000000
5400037878050600551  00109454055000021030          000000020000000000076000000000000000000000000000000000000000000000000000000
5400037878050600551  00109454055000031856          000000010000000000224000000000000000000000000000000000000000000000000000000
5400037878050600551  00109454055000041690          000000020000000000416000000000000000000000000000000000000000000000000000000
5400040085678600551  0010735405500001915           000000040000000000176000000000000000000000000000000000000000000000000000000
5400040085678600551  00107354055000021793          000000010000000000030000000000000000000000000000000000000000000000000000000
5400040085678600551  0010845405500001633           000000035000000000203000000000000000000000000000000000000000000000000000000
5400040085678600551  00108454055000021780          000000010000000000035000000000000000000000000000000000000000000000000000000
5400040085678600551  00108454055000031931          000000010000000000058000000000000000000000000000000000000000000000000000000
5400040085678600551  0011265405500001633           000000035000000000203000000000000000000000000000000000000000000000000000000
5400040085678600551  00112654055000021780          000000010000000000035000000000000000000000000000000000000000000000000000000
5400040085678600551  00112654055000031931          000000010000000000058000000000000000000000000000000000000000000000000000000
5400040085678600551  0011265405500004988           000000010000000000139000000000000000000000000000000000000000000000000000000
5400042965764615551  0010895405500001504           000000020000000000044000000000000000000000000000000000000000000000000000000
5443648971005386551  33150311020000012033          000000300000000000025570000000000000000000180730000000000000000000000001800
5443648971005386551  33150311020000021748          000000020000000000024360000000000000000000206660000000000000000000000001800
5443648971005386551  33150311020000031751          000000040000000000047920000000000000000000257660000000000000000000000001800
5443648971005386551  33150311020000041749          000000020000000000024360000000000000000000283590000000000000000000000001800
5443648971005386551  33150311020000051750          000000020000000000024360000000000000000000309520000000000000000000000001800
5443648971005386551  33150311020000061747          000000020000000000026500000000000000000000337720000000000000000000000001800
5443648971005386551  33150311020000072034          000000020000000000026600000000000000000000366030000000000000000000000001800
5443648971005386551  33150311020000082035          000000020000000000028740000000000000000000396620000000000000000000000001800
5443648971005386551  33150311020000092036          000000010000000000019500000000000000000000417370000000000000000000000001800
5443648971005386551  33150311020000102037          000000010000000000019900000000000000000000438550000000000000000000000001800
5443648971005386551  33150311020000111719          000000200000000000022000000000000000000000461960000000000000000000000001800
5443648971005386551  33150311020000122038          000000040000000000093080000000000000000000561020000000000000000000000001800
5443648971005386551  33150311020000132039          000000100000000000044800000000000000000000608700000000000000000000000001800
5400043857264691551  0011105405500001915           000000040000000000176000000000000000000000000000000000000000000000000000000
5400043857264691551  00111054055000022002          000000010000000000030000000000000000000000000000000000000000000000000000000
5400043857264691551  0011105405500003972           000000010000000000005000000000000000000000000000000000000000000000000000000
5400044692153687551  0011275405500001633           000000040000000000232000000000000000000000000000000000000000000000000000000
5400044692153687551  00112754055000021793          000000010000000000030000000000000000000000000000000000000000000000000000000
5400044692153687551  0011275405500003543           000000010000000000084000000000000000000000000000000000000000000000000000000
5400044692153687551  00112754055000041224          000000010000000000034000000000000000000000000000000000000000000000000000000
5400044692153687551  00112751021020051459          000000010000000000035000000000000000000000000000000000000000000000000000000
5400044773668687551  00110254055000011900          000000085000000000493000000000000000000000000000000000000000000000000000000
5400044773668687551  00110254055000021070          000000010000000000108000000000000000000000000000000000000000000000000000000
5400044773668687551  0011025405500003670           000000010000000000084000000000000000000000000000000000000000000000000000000
5400045175942620551  0011085656500001887           000000040000000000176000000000000000000000000000000000000000000000000000000
5400045175942620551  00110854055000021793          000000010000000000030000000000000000000000000000000000000000000000000000000
5400045175942620551  00110854055000031467          000000010000000000049000000000000000000000000000000000000000000000000000000
5400045175942620551  0011085405500004972           000000010000000000005000000000000000000000000000000000000000000000000000000
5400049616897691551  0011225405500001915           000000050000000000220000000000000000000000000000000000000000000000000000000
5400049616897691551  00112254055000021053          000000010000000000035000000000000000000000000000000000000000000000000000000
5400049616897691551  00112254055000031706          000000010000000000036000000000000000000000000000000000000000000000000000000
5400049616897691551  0011225405500004972           000000010000000000016000000000000000000000000000000000000000000000000000000
5400057414807649551  0011335405500001915           000000035000000000154000000000000000000000000000000000000000000000000000000
5400057414807649551  0011335405500002829           000000010000000000035000000000000000000000000000000000000000000000000000000
5400057414807649551  00113354055000031932          000000010000000000049000000000000000000000000000000000000000000000000000000
5400059215607668551  00109954055000012020          000000020000000000598000000000000000000000000000000000000000000000000000000
5400060286490668551  0011115405500001633           000000040000000000232000000000000000000000000000000000000000000000000000000
5400060286490668551  00111154055000021572          000000010000000000030000000000000000000000000000000000000000000000000000000
5400060286490668551  0011115405500003746           000000010000000000054000000000000000000000000000000000000000000000000000000
5400060286490668551  0011115405500004972           000000010000000000016000000000000000000000000000000000000000000000000000000
5460563731000762551  00108256565000011260          000000045000000000198000000000000000000000000000000000000000000000000000000
5460563731000762551  00108254055000021766          000000010000000000038000000000000000000000000000000000000000000000000000000
5460563731000762551  0010825405500003621           000000010000000000069000000000000000000000000000000000000000000000000000000
5460563731000762551  00108251021020041459          000000010000000000035000000000000000000000000000000000000000000000000000000
5460563731000762551  0010955405500001855           000000035000000000168000000000000000000000000000000000000000000000000000000
5460563731000762551  00109554055000021780          000000010000000000038000000000000000000000000000000000000000000000000000000
5460563731000762551  00109554055000031510          000000010000000000065000000000000000000000000000000000000000000000000000000
5460563731000762551  0010955405500004972           000000010000000000016000000000000000000000000000000000000000000000000000000
5460563731000762551  00109554055000052007          000000010000000000034000000000000000000000000000000000000000000000000000000
5460563731000762551  00109551021020061746          000000010000000000045000000000000000000000000000000000000000000000000000000
5400060798998687551  0010975405500001855           000000030000000000138000000000000000000000000000000000000000000000000000000
5400060798998687551  00109754055000021563          000000010000000000030000000000000000000000000000000000000000000000000000000
5400060798998687551  00109754055000031932          000000010000000000028000000000000000000000000000000000000000000000000000000
5400060798998687551  0010975405500004972           000000010000000000005000000000000000000000000000000000000000000000000000000
5400060798998687551  00109754055000051035          000000040000000000136000000000000000000000000000000000000000000000000000000
5400061125946687551  0011045405500001637           000000010000000000078000000000000000000000000000000000000000000000000000000
5400061125946687551  0011045405500002604           000000010000000000132000000000000000000000000000000000000000000000000000000
5400061125946687551  0011045405500003515           000000040000000000130000000000000000000000000000000000000000000000000000000
5400063150956668551  0010865405500001915           000000030000000000132000000000000000000000000000000000000000000000000000000
5400063150956668551  0010865405500002829           000000010000000000036000000000000000000000000000000000000000000000000000000
5400063150956668551  00108651021020031459          000000010000000000035000000000000000000000000000000000000000000000000000000
5400065819586620551  0011285405500001855           000000040000000000192000000000000000000000000000000000000000000000000000000
5400065819586620551  00112854055000021782          000000010000000000035000000000000000000000000000000000000000000000000000000
5400065819586620551  0011285405500003746           000000010000000000056000000000000000000000000000000000000000000000000000000
5400065819586620551  0011285405500004972           000000010000000000016000000000000000000000000000000000000000000000000000000
5400065819586620551  00112851021020051459          000000010000000000035000000000000000000000000000000000000000000000000000000
5400069106355668551  00111454055000011406          000000010000000000559000000000000000000000000000000000000000000000000000000
5400069106355668551  0011145405500002855           000000040000000000184000000000000000000000000000000000000000000000000000000
5400069106355668551  00111454055000031563          000000010000000000030000000000000000000000000000000000000000000000000000000
5400069106355668551  0011145405500004972           000000010000000000005000000000000000000000000000000000000000000000000000000
5400069106355668551  0011145405500005524           000000010000000000072000000000000000000000000000000000000000000000000000000
5400069106355668551  00111451021020061718          000000020000000000060000000000000000000000000000000000000000000000000000000
5400069106355668551  00111451021020071722          000000010000000000010000000000000000000000000000000000000000000000000000000
5400069106355668551  00111451021020081459          000000010000000000035000000000000000000000000000000000000000000000000000000
5400071701796600551  0011155405500001915           000000030000000000132000000000000000000000000000000000000000000000000000000
5400071701796600551  00111554055000021793          000000010000000000030000000000000000000000000000000000000000000000000000000
5400071701796600551  00111554055000031830          000000010000000000019000000000000000000000000000000000000000000000000000000
5400071701796600551  0011155405500004972           000000010000000000006000000000000000000000000000000000000000000000000000000
5400072464267600551  0011135405500001915           000000030000000000132000000000000000000000000000000000000000000000000000000
5400072464267600551  00111354055000021293          000000010000000000035000000000000000000000000000000000000000000000000000000
5400072464267600551  0011135405500003735           000000010000000000054000000000000000000000000000000000000000000000000000000
5400072464267600551  00111354055000041167          000000010000000000034000000000000000000000000000000000000000000000000000000
5400072464267600551  0011135405500005972           000000010000000000005000000000000000000000000000000000000000000000000000000
5400079034209687551  0010805405500001578           000000010000000000068000000000000000000000000000000000000000000000000000000
5400079034209687551  00108054055000021367          000000010000000000149000000000000000000000000000000000000000000000000000000
5400079034209687551  00108054055000031066          000000010000000000199000000000000000000000000000000000000000000000000000000
5400079034209687551  00108054055000041850          000000010000000000182000000000000000000000000000000000000000000000000000000
5400079034209687551  00108054055000051786          000000010000000000034000000000000000000000000000000000000000000000000000000
5400079034209687551  0010805405500006754           000000010000000000123000000000000000000000000000000000000000000000000000000
5400079034209687551  0010805405500007619           000000010000000000092000000000000000000000000000000000000000000000000000000
5400079034209687551  0010805405500008916           000000035000000000140000000000000000000000000000000000000000000000000000000
5400079034209687551  00108054055000091572          000000010000000000029000000000000000000000000000000000000000000000000000000
5400079034209687551  00108054055000101830          000000010000000000019000000000000000000000000000000000000000000000000000000
5400079034209687551  0010805405500011790           000000010000000000044000000000000000000000000000000000000000000000000000000
5400088263452600551  0010815405500001915           000000035000000000154000000000000000000000000000000000000000000000000000000
5400088263452600551  0010815405500002829           000000010000000000035000000000000000000000000000000000000000000000000000000
5400088263452600551  00108154055000031510          000000010000000000048000000000000000000000000000000000000000000000000000000
5400088263452600551  0010815405500004972           000000010000000000005000000000000000000000000000000000000000000000000000000
5400088998428687551  00109254055000011728          000000010000000000089000000000000000000000000000000000000000000000000000000
5400090122836634551  00108351021020011661          000000050000000000035000000000000000000000000000000000000000000000000000000
5400090122836634551  0010835405500002790           000000010000000000044000000000000000000000000000000000000000000000000000000
5400097154881615551  0011035405500001915           000000030000000000132000000000000000000000000000000000000000000000000000000
5400097154881615551  00110354055000021793          000000010000000000030000000000000000000000000000000000000000000000000000000
5400097154881615551  00110354055000031830          000000010000000000019000000000000000000000000000000000000000000000000000000
5400097154881615551  0011035405500004972           000000010000000000006000000000000000000000000000000000000000000000000000000
5400099385660659551  0010985405500001915           000000035000000000154000000000000000000000000000000000000000000000000000000
5400099385660659551  00109854055000021765          000000010000000000038000000000000000000000000000000000000000000000000000000
5400099385660659551  0010985405500003640           000000010000000000058000000000000000000000000000000000000000000000000000000
5400099385660659551  0010985405500004972           000000010000000000005000000000000000000000000000000000000000000000000000000
5400099385660659551  0010985405500005675           000000010000000000034000000000000000000000000000000000000000000000000000000
7520251001202510311009          85111000BKR6ESZ10-VELA IGNICAO                               PC    000000000000000000000000000
7520251001202510311010          84213990CU200061-FILTRO ANTI POLEM                           PC    000000000000000000000000000
7520251001202510311030          27101932SAE80-OLEO CAMBIO                                    PC    000000000000000000000000000
7520251001202510311035          85111000FR7DDEG-VELA IGNICAO                                 PC    000000000000000000000000000
7520251001202510311049          84212300GI047-FILTRO COMBUSTIVEL                             PC    000000000000000000000000000
7520251001202510311053          84219999WOE912                                               PC    000000000000000000000000000
7520251001202510311058          87083090ATE6013-CILINDRO RODA                                PC    000000000000000000000000000
7520251001202510311066          73181500B244000-PARAFUSO CABECOTE                            PC    000000000000000000000000000
7520251001202510311070          84212300W9069-FILTRO OLEO MOTOR                              PC    000000000000000000000000000
7520251001202510311112          85113020F000ZS0210-BOBINA IGNICAO PLASTICA                   PC    000000000000000000000000000
7520251001202510311157          87089990213129G-COIFA HOMOC                                  JG    000000000000000000000000000
7520251001202510311167          84213990CU23362-FILTRO ANTI POLEM                            PC    000000000000000000000000000
7520251001202510311197          8413309020143-BOMBA DAGUA                                    PC    000000000000000000000000000
7520251001202510311213          87083090HFCT37-CUBO RODA TRASEIRO                            PC    000000000000000000000000000
7520251001202510311216          84835090VKM11107L-TENSOR CORREIA DENTADA                     PC    000000000000000000000000000
7520251001202510311224          84213990CU21003-FILTRO ANTI POLEM                            PC    000000000000000000000000000
7520251001202510311232          84213990CU20040-FILTRO ANTI POLEM                            PC    000000000000000000000000000
7520251001202510311235          84219999HLP7710-FILTRO AR                                    PC    000000000000000000000000000
7520251001202510311243          87088000LT90122-KIT AMORTECEDOR DIANTEIRO                    PC    000000000000000000000000000
7520251001202510311260          27101932RALOY SYNTH PLUS SAE 5W30 API SP - 24/1              LT    000000000000000000000000000
7520251001202510311268          84219999C340071-FILTRO AR                                    PC    000000000000000000000000000
7520251001202510311275          8413303010189-BOMBA OLEO MOTOR                               PC    000000000000000000000000000
7520251001202510311293          84212300PSL78-FILTRO OLEO MOTOR                              PC    000000000000000000000000000
7520251001202510311297          84219999HLP5135-FILTRO AR                                    PC    000000000000000000000000000
7520251001202510311314          40093100629570-MANGUEIRA INFERIOR RADIADOR                   PC    000000000000000000000000000
7520251001202510311317          84219999HLP8840-FILTRO AR                                    PC    000000000000000000000000000
7520251001202510311325          87088000SK325S-BATENTE AMORTECEDOR                           PC    000000000000000000000000000
7520251001202510311359          84821090BAH0031-ROL RODA                                     PC    000000000000000000000000000
7520251001202510311367          87089990VC428-TUBO DAGUA                                     PC    000000000000000000000000000
7520251001202510311385          8708999055254086-TUBO DAGUA                                  PC    000000000000000000000000000
7520251001202510311405          40091100624193-MANGUEIRA FILTRO AR                           PC    000000000000000000000000000
7520251001202510311406          870893003000000782-KIT EMBREAGEM                             JG    000000000000000000000000000
7520251001202510311426          870880000111038-BUCHA BANDEJA                                PC    000000000000000000000000000
7520251001202510311428          401699900211697-COXIM BANDEJA SUSP DIANT                     PC    000000000000000000000000000
7520251001202510311429          87088000SK1318B-KIT BARRA ESTABILIZADORA                     PC    000000000000000000000000000
7520251001202510311430          87088000SK1318A-KIT BARRA ESTABILIZADORA                     PC    000000000000000000000000000
7520251001202510311436          85111000BPR6EY-VELA IGNICAO                                  PC    000000000000000000000000000
7520251001202510311454          8708910053330779-TAMPA RESERVATORIO                          PC    000000000000000000000000000
7520251001202510311459          38140090DESCARBONIZANTE PRO 300ML/230G                       UN    000000000000000000000000000
7520251001202510311463          84219999C301303-FILTRO AR                                    PC    000000000000000000000000000
7520251001202510311467          84219999HLP2346-FILTRO AR                                    PC    000000000000000000000000000
7520251001202510311473          870894820680265-ARTICULACAO CAIXA DIRECAO                    PC    000000000000000000000000000
7520251001202510311477          401699900111521-BUCHA FEIXE MOLA                             PC    000000000000000000000000000
7520251001202510311494          84219999LX3703-FILTRO AR                                     PC    000000000000000000000000000
7520251001202510311510          84219999LX4894-FILTRO AR                                     PC    000000000000000000000000000
7520251001202510311511          87083019PD362-PASTILHA FREIO TRASEIRO                        JG    000000000000000000000000000
7520251001202510311525          85111000KER7A8DEG-VELA IGNICAO                               PC    000000000000000000000000000
7520251001202510311530          85111000BKR6E11-VELA IGNICAO                                 PC    000000000000000000000000000
7520251001202510311540          870880005312700-BIELETA BARRA ESTABILIZADORA                 PC    000000000000000000000000000
7520251001202510311563          84212300W7125-FILTRO OLEO MOTOR                              PC    000000000000000000000000000
7520251001202510311572          84212300W7122-FILTRO OLEO MOTOR                              PC    000000000000000000000000000
7520251001202510311591          84099190SPA9131STD-PISTAO C/ANEIS                            PC    000000000000000000000000000
7520251001202510311605          83023000MG17173-AMORT TAMPA TRAS                             PC    000000000000000000000000000
7520251001202510311631          85129000BSD9-PALHETA LIMPADOR                                JG    000000000000000000000000000
7520251001202510311634          84219999C2337-FILTRO AR                                      PC    000000000000000000000000000
7520251001202510311636          84212300PSL134-FILTRO OLEO MOTOR                             PC    000000000000000000000000000
7520251001202510311643          8413309020256-BOMBA DAGUA                                    PC    000000000000000000000000000
7520251001202510311659          73269090ABRACADEIRA SEM FIM ZNB 16X27X12                     UN    000000000000000000000000000
7520251001202510311661          73269090ABRACADEIRA SEM FIM ZNB 25X40X12                     UN    000000000000000000000000000
7520251001202510311690          87083090BD0356-DISCO FREIO                                   PC    000000000000000000000000000
7520251001202510311696          40093100761713-MANGUEIRA                                     PC    000000000000000000000000000
7520251001202510311706          84219999C29015-FILTRO AR                                     PC    000000000000000000000000000
7520251001202510311710          84219999LX4667-FILTRO AR                                     PC    000000000000000000000000000
7520251001202510311718          85392110LAMPADA AUTOMOTIVA H7 12V 55W                        UN    000000000000000000000000000
7520251001202510311719          85392910LAMPADA AUTOMOTIVA W5W 12V 5W                        UN    000000000000000000000000000
7520251001202510311722          85392910LAMPADA AUT 12V-21/5W 2 POLOS PINO DESENCONTRADO     UN    000000000000000000000000000
7520251001202510311728          87088000LT60455-BIELETA BARRA ESTABILIZADORA                 PC    000000000000000000000000000
7520251001202510311745          32141010SILICONE NEUTRO ALTA TEMP HT CZA 60G BLI             UN    000000000000000000000000000
7520251001202510311746          85392910LAMPADA AUTOMOTIVA H1 12V 55W                        UN    000000000000000000000000000
7520251001202510311747          85129000PALHETA DE PARA-BRISA STANDARD 22 550MM              UN    000000000000000000000000000
7520251001202510311748          85129000PALHETA DE PARA-BRISA STANDARD 16 400MM              UN    000000000000000000000000000
7520251001202510311749          85129000PALHETA DE PARA-BRISA STANDARD 19 475MM              UN    000000000000000000000000000
7520251001202510311750          85129000PALHETA DE PARA-BRISA STANDARD 20 500MM              UN    000000000000000000000000000
7520251001202510311751          85129000PALHETA DE PARA-BRISA STANDARD 18 450MM              UN    000000000000000000000000000
7520251001202510311765          84212300PSL818-FILTRO OLEO MOTOR                             PC    000000000000000000000000000
7520251001202510311766          84219999HU6006X-FILTRO OLEO MOTOR                            PC    000000000000000000000000000
7520251001202510311768          87083019N1767-PASTILHA FREIO                                 PC    000000000000000000000000000
7520251001202510311780          84212300PSL56-FILTRO OLEO MOTOR                              PC    000000000000000000000000000
7520251001202510311782          84212300W7128-FILTRO OLEO MOTOR                              PC    000000000000000000000000000
7520251001202510311786          400931005U0121073-MANGUEIRA                                  PC    000000000000000000000000000
7520251001202510311793          84212300W6MULTI20-FILTRO OLEO MOTOR                          PC    000000000000000000000000000
7520251001202510311830          84219999C2256-FILTRO AR                                      PC    000000000000000000000000000
7520251001202510311838          84213990CU220111-FILTRO ANTI POLEM                           PC    000000000000000000000000000
7520251001202510311841          84219999C301251-FILTRO AR                                    PC    000000000000000000000000000
7520251001202510311849          87083090HFCT37A-CUBO RODA TRASEIRO                           PC    000000000000000000000000000
7520251001202510311850          8484900079112 FLEX-JUNTA CABECOTE SUPERIOR                   JG    000000000000000000000000000
7520251001202510311856          87083019PD92-PASTILHA FREIO                                  JG    000000000000000000000000000
7520251001202510311867          40103500129P8S220H-CORREIA DISTRIBUICAO                      PC    000000000000000000000000000
7520251001202510311870          8409919055216719-PROTETOR DE CORREIAS                        PC    000000000000000000000000000
7520251001202510311891          84219999C23021-FILTRO AR                                     PC    000000000000000000000000000
7520251001202510311894          84818021MTE36187-VALVULA TERMOSTATICA                        PC    000000000000000000000000000
7520251001202510311900          271019325W30 WR-OLEO MOTOR                                   LT    000000000000000000000000000
7520251001202510311904          8483302955210509-BRONZINA BIELA                              JG    000000000000000000000000000
7520251001202510311905          84833029SBC549JSTD-BRONZINA MANCAL                           JG    000000000000000000000000000
7520251001202510311907          7326190055207796-SELO MOTOR                                  PC    000000000000000000000000000
7520251001202510311909          8413919011409-TUBO BOMBA OLEO                                PC    000000000000000000000000000
7520251001202510311931          84219999ARL4161-FILTRO AR                                    PC    000000000000000000000000000
7520251001202510311932          84219999C21014-FILTRO AR                                     PC    000000000000000000000000000
7520251001202510311948          848350905300592110-KIT CORREIA TENSOR                        PC    000000000000000000000000000
7520251001202510311980          87083019N1377-PASTILHA FREIO                                 JG    000000000000000000000000000
7520251001202510311985          87089490335018-TERMINAL BARRA DIRECAO                        PC    000000000000000000000000000
7520251001202510311992          870893003000001238-KIT EMBREAGEM                             JG    000000000000000000000000000
7520251001202510311995          87088000N99150-BIELETA BARRA ESTABILIZADORA                  PC    000000000000000000000000000
7520251001202510312002          84212300W7MULTI34S-FILTRO OLEO MOTOR                         PC    000000000000000000000000000
7520251001202510312006          401031006PK1715-CORREIA                                      PC    000000000000000000000000000
7520251001202510312007          84213990CU34481-FILTRO ANTI POLEM                            PC    000000000000000000000000000
7520251001202510312008          84219999LX3354-FILTRO AR                                     PC    000000000000000000000000000
7520251001202510312009          40093100079221-MANGUEIRA                                     PC    000000000000000000000000000
7520251001202510312010          87088000379216SP-AMORT SUSPENSAO TRAS                        PC    000000000000000000000000000
7520251001202510312011          870880000442631-KIT AMORTECEDOR TRASEIRO                     PC    000000000000000000000000000
7520251001202510312012          870899902021041-REPARO ALAVANCA CAMBIO                       PC    000000000000000000000000000
7520251001202510312013          84841000240416-JUNTA COLETOR ESCAP/ADM                       PC    000000000000000000000000000
7520251001202510312014          4009310073270-MANGUEIRA                                      PC    000000000000000000000000000
7520251001202510312015          85432000GS8171-SENSOR ROTACAO                                PC    000000000000000000000000000
7520251001202510312016          870899905211916-COXIM CAMBIO                                 PC    000000000000000000000000000
7520251001202510312017          870899903137-COXIM MOTOR                                     PC    000000000000000000000000000
7520251001202510312018          870899903139-COXIM MOTOR                                     PC    000000000000000000000000000
7520251001202510312019          870899905212909-COXIM MOTOR                                  PC    000000000000000000000000000
7520251001202510312020          87088000379073SP-AMORT SUSPENSAO TRAS                        PC    000000000000000000000000000
