10336213140001600034450680073 CRISTINA ISABEL DE CAMPOS          Belo Horizonte                MG31999760132024080120240831331
11Rua Caconde                       00875                      Renascença     31130510VINICIUS MURTA NERY         031934225098
5000052954366249ISENTO        20240821MG551  0003345405P000000000420000000000000000000000000000000000000000000000000042000000N
5065139743000192ISENTO        20240824MG551  0003435656P000000001890000000000000000000000000000000000000000000000000189000000N
5065139743000192ISENTO        20240824MG551  0003435405P000000001190000000000000000000000000000000000000000000000000223000000N
5065139743000192ISENTO        20240824MG551  0003435102P000000000160000000000000000000000000000000000000000000000000016000000N
5000016338952620ISENTO        20240821MG551  0003355405P000000001760000000000000000000000000000000000000000000000000176000000N
5000007557238648ISENTO        20240820MG551  0003295405P000000003580000000000000000000000000000000000000000000000001608000000N
5000007557238648ISENTO        20240820MG551  0003295656P000000001890000000000000000000000000000000000000000000000000189000000N
5000009008835614ISENTO        20240820MG551  0003305656P000000001890000000000000000000000000000000000000000000000000189000000N
5000009008835614ISENTO        20240820MG551  0003305405P000000001100000000000000000000000000000000000000000000000000136000000N
5000009008835614ISENTO        20240820MG551  0003305102P000000000050000000000000000000000000000000000000000000000000005000000N
5000006707824678ISENTO        20240821MG551  0003365656P000000001320000000000000000000000000000000000000000000000000132000000N
5000006707824678ISENTO        20240821MG551  0003365405P000000001090000000000000000000000000000000000000000000000000221000000N
5000006707824678ISENTO        20240821MG551  0003365102P000000000160000000000000000000000000000000000000000000000000016000000N
5000063150956668ISENTO        20240827MG551  0003535405P000000005860000000000000000000000000000000000000000000000002573000000N
5000029745802620ISENTO        20240820MG551  0003315405P000000001340000000000000000000000000000000000000000000000000134000000N
5000029745802620ISENTO        20240820MG551  0003315102P000000000350000000000000000000000000000000000000000000000000035000000N
5000002105696627ISENTO        20240820MG551  0003325405P000000001550000000000000000000000000000000000000000000000000431000000N
5000002105696627ISENTO        20240820MG551  0003325656P000000001260000000000000000000000000000000000000000000000000126000000N
5065139743000192ISENTO        20240824MG551  0003445656P000000002200000000000000000000000000000000000000000000000000220000000N
5000008726348683ISENTO        20240820MG551  0003335656P000000001890000000000000000000000000000000000000000000000000189000000N
5000008726348683ISENTO        20240820MG551  0003335405P000000000800000000000000000000000000000000000000000000000000114000000N
5000008726348683ISENTO        20240820MG551  0003335102P000000000050000000000000000000000000000000000000000000000000005000000N
5000052369692634ISENTO        20240821MG551  0003375405P000000002080000000000000000000000000000000000000000000000000208000000N
5000000498426688ISENTO        20240830MG551  0003585405P000000003550000000000000000000000000000000000000000000000000980000000N
5000049196227672ISENTO        20240821MG551  0003385405P000000006640000000000000000000000000000000000000000000000002748000000N
5000049196227672ISENTO        20240821MG551  0003385102P000000000160000000000000000000000000000000000000000000000000016000000N
5000019635419600ISENTO        20240824MG551  0003455405P000000005240000000000000000000000000000000000000000000000002266000000N
5000004178914669ISENTO        20240821MG551  0003395656P000000001260000000000000000000000000000000000000000000000000126000000N
5000004178914669ISENTO        20240821MG551  0003395405P000000000610000000000000000000000000000000000000000000000000087000000N
5000008162058680ISENTO        20240821MG551  0003405405P000000015010000000000000000000000000000000000000000000000009575000000N
5000008162058680ISENTO        20240821MG551  0003405102P000000000160000000000000000000000000000000000000000000000000016000000N
5000006367043608ISENTO        20240831MG551  0003605656P000000001890000000000000000000000000000000000000000000000000189000000N
5000006367043608ISENTO        20240831MG551  0003605405P000000000780000000000000000000000000000000000000000000000000112000000N
5000006367043608ISENTO        20240831MG551  0003605102P000000000160000000000000000000000000000000000000000000000000016000000N
5000003185696638ISENTO        20240821MG551  0003415656P000000001760000000000000000000000000000000000000000000000000176000000N
5000003185696638ISENTO        20240821MG551  0003415405P000000000660000000000000000000000000000000000000000000000000092000000N
5000003185696638ISENTO        20240821MG551  0003415102P000000000160000000000000000000000000000000000000000000000000016000000N
5000011547034602ISENTO        20240821MG551  0003425405P000000001550000000000000000000000000000000000000000000000000336000000N
5000011547034602ISENTO        20240821MG551  0003425656P000000001680000000000000000000000000000000000000000000000000168000000N
5000000263832686ISENTO        20240824MG551  0003465405P000000002270000000000000000000000000000000000000000000000000555000000N
5000004963915693ISENTO        20240830MG551  0003595405P000000002720000000000000000000000000000000000000000000000000870000000N
5000003118743980ISENTO        20240824MG551  0003475405P000000003720000000000000000000000000000000000000000000000000861000000N
5000003113708613ISENTO        20240831MG551  0003615405P000000004400000000000000000000000000000000000000000000000001777000000N
5000003113708613ISENTO        20240831MG551  0003615102P000000000160000000000000000000000000000000000000000000000000016000000N
5000020088205649ISENTO        20240824MG551  0003485405P000000001930000000000000000000000000000000000000000000000000551000000N
5000020088205649ISENTO        20240824MG551  0003485656P000000001470000000000000000000000000000000000000000000000000147000000N
5000020088205649ISENTO        20240824MG551  0003485102P000000000050000000000000000000000000000000000000000000000000005000000N
5000003003617699ISENTO        20240824MG551  0003495656P000000001680000000000000000000000000000000000000000000000000168000000N
5000003003617699ISENTO        20240824MG551  0003495405P000000008200000000000000000000000000000000000000000000000001746000000N
5000071701796600ISENTO        20240831MG551  0003625656P000000001540000000000000000000000000000000000000000000000000154000000N
5000071701796600ISENTO        20240831MG551  0003625405P000000002600000000000000000000000000000000000000000000000000600000000N
5000071701796600ISENTO        20240831MG551  0003625102P000000000050000000000000000000000000000000000000000000000000005000000N
5000010967421608ISENTO        20240827MG551  0003545405P000000016690000000000000000000000000000000000000000000000012597000000N
5000010967421608ISENTO        20240827MG551  0003545656P000000001540000000000000000000000000000000000000000000000000154000000N
5000091577187504ISENTO        20240824MG551  0003505405P000000008110000000000000000000000000000000000000000000000002215000000N
5000004412199690ISENTO        20240824MG551  0003515102P000000000350000000000000000000000000000000000000000000000000035000000N
5000080097227668ISENTO        20240824MG551  0003525656P000000007560000000000000000000000000000000000000000000000000756000000N
5000080097227668ISENTO        20240824MG551  0003525405P000000001260000000000000000000000000000000000000000000000000126000000N
5000060286490668ISENTO        20240831MG551  0003635405P000000003460000000000000000000000000000000000000000000000001146000000N
5000060286490668ISENTO        20240831MG551  0003635102P000000000160000000000000000000000000000000000000000000000000016000000N
5000037845454249ISENTO        20240827MG551  0003555405P000000001790000000000000000000000000000000000000000000000000243000000N
5000003057790607ISENTO        20240831MG551  0003645405P000000000750000000000000000000000000000000000000000000000000075000000N
5000003057790607ISENTO        20240827MG551  0003565656P000000001680000000000000000000000000000000000000000000000000168000000N
5000003057790607ISENTO        20240827MG551  0003565405P000000000990000000000000000000000000000000000000000000000000191000000N
5000003057790607ISENTO        20240827MG551  0003565102P000000000160000000000000000000000000000000000000000000000000016000000N
5000062816810615ISENTO        20240831MG551  0003655405P000000002650000000000000000000000000000000000000000000000000601000000N
5000045534942649ISENTO        20240827MG551  0003575656P000000002100000000000000000000000000000000000000000000000000210000000N
5000045534942649ISENTO        20240827MG551  0003575405P000000001430000000000000000000000000000000000000000000000000285000000N
5000045534942649ISENTO        20240827MG551  0003575102P000000000160000000000000000000000000000000000000000000000000016000000N
5000004300672679ISENTO        20240831MG551  0003665405P000000003350000000000000000000000000000000000000000000000000824000000N
5000008442351647ISENTO        20240831MG551  0003675656P000000001260000000000000000000000000000000000000000000000000126000000N
5000008442351647ISENTO        20240831MG551  0003675405P000000005070000000000000000000000000000000000000000000000001607000000N
5000004461026604ISENTO        20240831MG551  0003685405P000000002030000000000000000000000000000000000000000000000000664000000N
5000014399115688ISENTO        20240831MG551  0003695405P000000000210000000000000000000000000000000000000000000000000021000000N
5000049196227672ISENTO        20240831MG551  0003705405P000000002100000000000000000000000000000000000000000000000000406000000N
5000060389320625ISENTO        20240831MG551  0003715405P000000001110000000000000000000000000000000000000000000000000160000000N
5000060389320625ISENTO        20240831MG551  0003715656P000000000210000000000000000000000000000000000000000000000000021000000N
5000066352827691ISENTO        20240831MG551  0003725405P000000001100000000000000000000000000000000000000000000000000218000000N
5000044692153687ISENTO        20240831MG551  0003735656P000000001540000000000000000000000000000000000000000000000000154000000N
5000044692153687ISENTO        20240831MG551  0003735405P000000001430000000000000000000000000000000000000000000000000368000000N
5000044692153687ISENTO        20240831MG551  0003735102P000000000160000000000000000000000000000000000000000000000000016000000N
5000030542855704ISENTO        20240831MG551  0003745405P000000001360000000000000000000000000000000000000000000000000136000000N
5000001340790602ISENTO        20240831MG551  0003755405P000000005110000000000000000000000000000000000000000000000000900000000N
5000002964777616ISENTO        20240831MG551  0003765405P000000003900000000000000000000000000000000000000000000000001924000000N
5000002964777616ISENTO        20240831MG551  0003765102P000000000350000000000000000000000000000000000000000000000000035000000N
5000091491495634ISENTO        20240831MG551  0003775656P000000001470000000000000000000000000000000000000000000000000147000000N
5000091491495634ISENTO        20240831MG551  0003775405P000000000800000000000000000000000000000000000000000000000000114000000N
5000085872458649ISENTO        20240831MG551  0003785405P000000008400000000000000000000000000000000000000000000000005803000000N
5000085872458649ISENTO        20240831MG551  0003785656P000000001320000000000000000000000000000000000000000000000000132000000N
5000002798585660ISENTO        20240831MG551  0003795656P000000001260000000000000000000000000000000000000000000000000126000000N
5000002798585660ISENTO        20240831MG551  0003795405P000000000870000000000000000000000000000000000000000000000000140000000N
5000007895563670ISENTO        20240831MG551  0003805405P000000002110000000000000000000000000000000000000000000000000540000000N
5000009947762688ISENTO        20240831MG551  0003815405P000000007110000000000000000000000000000000000000000000000002633000000N
5000009947762688ISENTO        20240831MG551  0003815102P000000000350000000000000000000000000000000000000000000000000035000000N
5000050015761649ISENTO        20240831MG551  0003825405P000000009720000000000000000000000000000000000000000000000004794000000N
5000050015761649ISENTO        20240831MG551  0003825102P000000000350000000000000000000000000000000000000000000000000035000000N
5000004146201608ISENTO        20240831MG551  0003835656P000000001470000000000000000000000000000000000000000000000000147000000N
5000004146201608ISENTO        20240831MG551  0003835405P000000000800000000000000000000000000000000000000000000000000114000000N
5000004146201608ISENTO        20240831MG551  0003835102P000000000350000000000000000000000000000000000000000000000000035000000N
5000054994411620ISENTO        20240831MG551  0003845656P000000001260000000000000000000000000000000000000000000000000126000000N
5000054994411620ISENTO        20240831MG551  0003845405P000000005545000000000000000000000000000000000000000000000001839000000N
5000054994411620ISENTO        20240831MG551  0003845102P000000000350000000000000000000000000000000000000000000000000035000000N
5000068516460649ISENTO        20240831MG551  0003855656P000000001540000000000000000000000000000000000000000000000000154000000N
5000068516460649ISENTO        20240831MG551  0003855405P000000000990000000000000000000000000000000000000000000000000216000000N
5000060798998687ISENTO        20240831MG551  0003865656P000000001540000000000000000000000000000000000000000000000000154000000N
5000060798998687ISENTO        20240831MG551  0003865405P000000000540000000000000000000000000000000000000000000000000080000000N
5000060798998687ISENTO        20240831MG551  0003865102P000000000050000000000000000000000000000000000000000000000000005000000N
50215322700001130624775200061 20240807MG551  0094751403T000000026873100000000000000000000000000000000000000000000000000000000N
50215322700001130624775200061 20240814MG551  0095241403T000000041055300000000000000000000000000000000000000000000000000000000N
504444858100010246329510067   20240820MG551  0005565655T000000030343800000000000000000000000000000000000000000000004575300000N
504444858100010246329510067   20240820MG551  0005561102T000000000896400000000000000000000000000000000000000000000000089640000N
50215322700001130624775200061 20240821MG551  0095991403T000000024830500000000000000000000000000000000000000000000000000000000N
50215322700001130624775200061 20240829MG551  0096381403T000000037868900000000000000000000000000000000000000000000000000000000N
51215322700001130624775200061 20240807MG1  00947514030000000000000000000000000000000000000000000000000000                    N
51215322700001130624775200061 20240814MG1  00952414030000000000000000000000000000000000000000000000000000                    N
514444858100010246329510067   20240820MG1  00055656550000000000000000000000000000000000000000000000000000                    N
514444858100010246329510067   20240820MG1  00055611020000000000000000000000000000000000000000000000000000                    N
5100007557238648ISENTO        20240820MG1  00032956560000000000000000000000000000000000000000000000000000                    N
5100007557238648ISENTO        20240820MG1  00032954050000000000000000000000000000000000000000000000000000                    N
5100009008835614ISENTO        20240820MG1  00033051020000000000000000000000000000000000000000000000000000                    N
5100009008835614ISENTO        20240820MG1  00033054050000000000000000000000000000000000000000000000000000                    N
5100009008835614ISENTO        20240820MG1  00033056560000000000000000000000000000000000000000000000000000                    N
5100029745802620ISENTO        20240820MG1  00033154050000000000000000000000000000000000000000000000000000                    N
5100029745802620ISENTO        20240820MG1  00033151020000000000000000000000000000000000000000000000000000                    N
5100002105696627ISENTO        20240820MG1  00033254050000000000000000000000000000000000000000000000000000                    N
5100002105696627ISENTO        20240820MG1  00033256560000000000000000000000000000000000000000000000000000                    N
5100008726348683ISENTO        20240820MG1  00033356560000000000000000000000000000000000000000000000000000                    N
5100008726348683ISENTO        20240820MG1  00033351020000000000000000000000000000000000000000000000000000                    N
5100008726348683ISENTO        20240820MG1  00033354050000000000000000000000000000000000000000000000000000                    N
51215322700001130624775200061 20240821MG1  00959914030000000000000000000000000000000000000000000000000000                    N
5100052954366249ISENTO        20240821MG1  00033454050000000000000000000000000000000000000000000000000000                    N
5100016338952620ISENTO        20240821MG1  00033554050000000000000000000000000000000000000000000000000000                    N
5100006707824678ISENTO        20240821MG1  00033656560000000000000000000000000000000000000000000000000000                    N
5100006707824678ISENTO        20240821MG1  00033654050000000000000000000000000000000000000000000000000000                    N
5100006707824678ISENTO        20240821MG1  00033651020000000000000000000000000000000000000000000000000000                    N
5100052369692634ISENTO        20240821MG1  00033754050000000000000000000000000000000000000000000000000000                    N
5100049196227672ISENTO        20240821MG1  00033851020000000000000000000000000000000000000000000000000000                    N
5100049196227672ISENTO        20240821MG1  00033854050000000000000000000000000000000000000000000000000000                    N
5100004178914669ISENTO        20240821MG1  00033954050000000000000000000000000000000000000000000000000000                    N
5100004178914669ISENTO        20240821MG1  00033956560000000000000000000000000000000000000000000000000000                    N
5100008162058680ISENTO        20240821MG1  00034054050000000000000000000000000000000000000000000000000000                    N
5100008162058680ISENTO        20240821MG1  00034051020000000000000000000000000000000000000000000000000000                    N
5100003185696638ISENTO        20240821MG1  00034156560000000000000000000000000000000000000000000000000000                    N
5100003185696638ISENTO        20240821MG1  00034154050000000000000000000000000000000000000000000000000000                    N
5100003185696638ISENTO        20240821MG1  00034151020000000000000000000000000000000000000000000000000000                    N
5100011547034602ISENTO        20240821MG1  00034256560000000000000000000000000000000000000000000000000000                    N
5100011547034602ISENTO        20240821MG1  00034254050000000000000000000000000000000000000000000000000000                    N
5165139743000192ISENTO        20240824MG1  00034351020000000000000000000000000000000000000000000000000000                    N
5165139743000192ISENTO        20240824MG1  00034354050000000000000000000000000000000000000000000000000000                    N
5165139743000192ISENTO        20240824MG1  00034356560000000000000000000000000000000000000000000000000000                    N
5165139743000192ISENTO        20240824MG1  00034456560000000000000000000000000000000000000000000000000000                    N
5100019635419600ISENTO        20240824MG1  00034554050000000000000000000000000000000000000000000000000000                    N
5100000263832686ISENTO        20240824MG1  00034654050000000000000000000000000000000000000000000000000000                    N
5100003118743980ISENTO        20240824MG1  00034754050000000000000000000000000000000000000000000000000000                    N
5100020088205649ISENTO        20240824MG1  00034854050000000000000000000000000000000000000000000000000000                    N
5100020088205649ISENTO        20240824MG1  00034856560000000000000000000000000000000000000000000000000000                    N
5100020088205649ISENTO        20240824MG1  00034851020000000000000000000000000000000000000000000000000000                    N
5100003003617699ISENTO        20240824MG1  00034956560000000000000000000000000000000000000000000000000000                    N
5100003003617699ISENTO        20240824MG1  00034954050000000000000000000000000000000000000000000000000000                    N
5100091577187504ISENTO        20240824MG1  00035054050000000000000000000000000000000000000000000000000000                    N
5100004412199690ISENTO        20240824MG1  00035151020000000000000000000000000000000000000000000000000000                    N
5100080097227668ISENTO        20240824MG1  00035254050000000000000000000000000000000000000000000000000000                    N
5100080097227668ISENTO        20240824MG1  00035256560000000000000000000000000000000000000000000000000000                    N
5100063150956668ISENTO        20240827MG1  00035354050000000000000000000000000000000000000000000000000000                    N
5100010967421608ISENTO        20240827MG1  00035456560000000000000000000000000000000000000000000000000000                    N
5100010967421608ISENTO        20240827MG1  00035454050000000000000000000000000000000000000000000000000000                    N
5100037845454249ISENTO        20240827MG1  00035554050000000000000000000000000000000000000000000000000000                    N
5100003057790607ISENTO        20240827MG1  00035651020000000000000000000000000000000000000000000000000000                    N
5100003057790607ISENTO        20240827MG1  00035654050000000000000000000000000000000000000000000000000000                    N
5100003057790607ISENTO        20240827MG1  00035656560000000000000000000000000000000000000000000000000000                    N
5100045534942649ISENTO        20240827MG1  00035751020000000000000000000000000000000000000000000000000000                    N
5100045534942649ISENTO        20240827MG1  00035754050000000000000000000000000000000000000000000000000000                    N
5100045534942649ISENTO        20240827MG1  00035756560000000000000000000000000000000000000000000000000000                    N
51215322700001130624775200061 20240829MG1  00963814030000000000000000000000000000000000000000000000000000                    N
5100000498426688ISENTO        20240830MG1  00035854050000000000000000000000000000000000000000000000000000                    N
5100004963915693ISENTO        20240830MG1  00035954050000000000000000000000000000000000000000000000000000                    N
5100006367043608ISENTO        20240831MG1  00036054050000000000000000000000000000000000000000000000000000                    N
5100006367043608ISENTO        20240831MG1  00036051020000000000000000000000000000000000000000000000000000                    N
5100006367043608ISENTO        20240831MG1  00036056560000000000000000000000000000000000000000000000000000                    N
5100003113708613ISENTO        20240831MG1  00036151020000000000000000000000000000000000000000000000000000                    N
5100003113708613ISENTO        20240831MG1  00036154050000000000000000000000000000000000000000000000000000                    N
5100071701796600ISENTO        20240831MG1  00036254050000000000000000000000000000000000000000000000000000                    N
5100071701796600ISENTO        20240831MG1  00036256560000000000000000000000000000000000000000000000000000                    N
5100071701796600ISENTO        20240831MG1  00036251020000000000000000000000000000000000000000000000000000                    N
5100060286490668ISENTO        20240831MG1  00036354050000000000000000000000000000000000000000000000000000                    N
5100060286490668ISENTO        20240831MG1  00036351020000000000000000000000000000000000000000000000000000                    N
5100003057790607ISENTO        20240831MG1  00036454050000000000000000000000000000000000000000000000000000                    N
5100062816810615ISENTO        20240831MG1  00036554050000000000000000000000000000000000000000000000000000                    N
5100004300672679ISENTO        20240831MG1  00036654050000000000000000000000000000000000000000000000000000                    N
5100008442351647ISENTO        20240831MG1  00036756560000000000000000000000000000000000000000000000000000                    N
5100008442351647ISENTO        20240831MG1  00036754050000000000000000000000000000000000000000000000000000                    N
5100004461026604ISENTO        20240831MG1  00036854050000000000000000000000000000000000000000000000000000                    N
5100014399115688ISENTO        20240831MG1  00036954050000000000000000000000000000000000000000000000000000                    N
5100049196227672ISENTO        20240831MG1  00037054050000000000000000000000000000000000000000000000000000                    N
5100060389320625ISENTO        20240831MG1  00037154050000000000000000000000000000000000000000000000000000                    N
5100060389320625ISENTO        20240831MG1  00037156560000000000000000000000000000000000000000000000000000                    N
5100066352827691ISENTO        20240831MG1  00037254050000000000000000000000000000000000000000000000000000                    N
5100044692153687ISENTO        20240831MG1  00037354050000000000000000000000000000000000000000000000000000                    N
5100044692153687ISENTO        20240831MG1  00037351020000000000000000000000000000000000000000000000000000                    N
5100044692153687ISENTO        20240831MG1  00037356560000000000000000000000000000000000000000000000000000                    N
5100030542855704ISENTO        20240831MG1  00037454050000000000000000000000000000000000000000000000000000                    N
5100001340790602ISENTO        20240831MG1  00037554050000000000000000000000000000000000000000000000000000                    N
5100002964777616ISENTO        20240831MG1  00037651020000000000000000000000000000000000000000000000000000                    N
5100002964777616ISENTO        20240831MG1  00037654050000000000000000000000000000000000000000000000000000                    N
5100091491495634ISENTO        20240831MG1  00037754050000000000000000000000000000000000000000000000000000                    N
5100091491495634ISENTO        20240831MG1  00037756560000000000000000000000000000000000000000000000000000                    N
5100085872458649ISENTO        20240831MG1  00037856560000000000000000000000000000000000000000000000000000                    N
5100085872458649ISENTO        20240831MG1  00037854050000000000000000000000000000000000000000000000000000                    N
5100002798585660ISENTO        20240831MG1  00037956560000000000000000000000000000000000000000000000000000                    N
5100002798585660ISENTO        20240831MG1  00037954050000000000000000000000000000000000000000000000000000                    N
5100007895563670ISENTO        20240831MG1  00038054050000000000000000000000000000000000000000000000000000                    N
5100009947762688ISENTO        20240831MG1  00038151020000000000000000000000000000000000000000000000000000                    N
5100009947762688ISENTO        20240831MG1  00038154050000000000000000000000000000000000000000000000000000                    N
5100050015761649ISENTO        20240831MG1  00038254050000000000000000000000000000000000000000000000000000                    N
5100050015761649ISENTO        20240831MG1  00038251020000000000000000000000000000000000000000000000000000                    N
5100004146201608ISENTO        20240831MG1  00038356560000000000000000000000000000000000000000000000000000                    N
5100004146201608ISENTO        20240831MG1  00038354050000000000000000000000000000000000000000000000000000                    N
5100004146201608ISENTO        20240831MG1  00038351020000000000000000000000000000000000000000000000000000                    N
5100054994411620ISENTO        20240831MG1  00038451020000000000000000000000000000000000000000000000000000                    N
5100054994411620ISENTO        20240831MG1  00038454050000000000000000000000000000000000000000000000000000                    N
5100054994411620ISENTO        20240831MG1  00038456560000000000000000000000000000000000000000000000000000                    N
5100068516460649ISENTO        20240831MG1  00038556560000000000000000000000000000000000000000000000000000                    N
5100068516460649ISENTO        20240831MG1  00038554050000000000000000000000000000000000000000000000000000                    N
5100060798998687ISENTO        20240831MG1  00038654050000000000000000000000000000000000000000000000000000                    N
5100060798998687ISENTO        20240831MG1  00038651020000000000000000000000000000000000000000000000000000                    N
5100060798998687ISENTO        20240831MG1  00038656560000000000000000000000000000000000000000000000000000                    N
5300052954366249ISENTO        20240821MG551  0003345405P000000000000000000000000000000000000000N                              
5365139743000192ISENTO        20240824MG551  0003435656P000000000000000000000000000000000000000N                              
5365139743000192ISENTO        20240824MG551  0003435405P000000000000000000000000000000000000000N                              
5365139743000192ISENTO        20240824MG551  0003435102P000000000000000000000000000000000000000N                              
5300016338952620ISENTO        20240821MG551  0003355405P000000000000000000000000000000000000000N                              
5300007557238648ISENTO        20240820MG551  0003295405P000000000000000000000000000000000000000N                              
5300007557238648ISENTO        20240820MG551  0003295656P000000000000000000000000000000000000000N                              
5300009008835614ISENTO        20240820MG551  0003305656P000000000000000000000000000000000000000N                              
5300009008835614ISENTO        20240820MG551  0003305405P000000000000000000000000000000000000000N                              
5300009008835614ISENTO        20240820MG551  0003305102P000000000000000000000000000000000000000N                              
5300006707824678ISENTO        20240821MG551  0003365656P000000000000000000000000000000000000000N                              
5300006707824678ISENTO        20240821MG551  0003365405P000000000000000000000000000000000000000N                              
5300006707824678ISENTO        20240821MG551  0003365102P000000000000000000000000000000000000000N                              
5300063150956668ISENTO        20240827MG551  0003535405P000000000000000000000000000000000000000N                              
5300029745802620ISENTO        20240820MG551  0003315405P000000000000000000000000000000000000000N                              
5300029745802620ISENTO        20240820MG551  0003315102P000000000000000000000000000000000000000N                              
5300002105696627ISENTO        20240820MG551  0003325405P000000000000000000000000000000000000000N                              
5300002105696627ISENTO        20240820MG551  0003325656P000000000000000000000000000000000000000N                              
5365139743000192ISENTO        20240824MG551  0003445656P000000000000000000000000000000000000000N                              
5300008726348683ISENTO        20240820MG551  0003335656P000000000000000000000000000000000000000N                              
5300008726348683ISENTO        20240820MG551  0003335405P000000000000000000000000000000000000000N                              
5300008726348683ISENTO        20240820MG551  0003335102P000000000000000000000000000000000000000N                              
5300052369692634ISENTO        20240821MG551  0003375405P000000000000000000000000000000000000000N                              
5300000498426688ISENTO        20240830MG551  0003585405P000000000000000000000000000000000000000N                              
5300049196227672ISENTO        20240821MG551  0003385405P000000000000000000000000000000000000000N                              
5300049196227672ISENTO        20240821MG551  0003385102P000000000000000000000000000000000000000N                              
5300019635419600ISENTO        20240824MG551  0003455405P000000000000000000000000000000000000000N                              
5300004178914669ISENTO        20240821MG551  0003395656P000000000000000000000000000000000000000N                              
5300004178914669ISENTO        20240821MG551  0003395405P000000000000000000000000000000000000000N                              
5300008162058680ISENTO        20240821MG551  0003405405P000000000000000000000000000000000000000N                              
5300008162058680ISENTO        20240821MG551  0003405102P000000000000000000000000000000000000000N                              
5300006367043608ISENTO        20240831MG551  0003605656P000000000000000000000000000000000000000N                              
5300006367043608ISENTO        20240831MG551  0003605405P000000000000000000000000000000000000000N                              
5300006367043608ISENTO        20240831MG551  0003605102P000000000000000000000000000000000000000N                              
5300003185696638ISENTO        20240821MG551  0003415656P000000000000000000000000000000000000000N                              
5300003185696638ISENTO        20240821MG551  0003415405P000000000000000000000000000000000000000N                              
5300003185696638ISENTO        20240821MG551  0003415102P000000000000000000000000000000000000000N                              
5300011547034602ISENTO        20240821MG551  0003425405P000000000000000000000000000000000000000N                              
5300011547034602ISENTO        20240821MG551  0003425656P000000000000000000000000000000000000000N                              
5300000263832686ISENTO        20240824MG551  0003465405P000000000000000000000000000000000000000N                              
5300004963915693ISENTO        20240830MG551  0003595405P000000000000000000000000000000000000000N                              
5300003118743980ISENTO        20240824MG551  0003475405P000000000000000000000000000000000000000N                              
5300003113708613ISENTO        20240831MG551  0003615405P000000000000000000000000000000000000000N                              
5300003113708613ISENTO        20240831MG551  0003615102P000000000000000000000000000000000000000N                              
5300020088205649ISENTO        20240824MG551  0003485405P000000000000000000000000000000000000000N                              
5300020088205649ISENTO        20240824MG551  0003485656P000000000000000000000000000000000000000N                              
5300020088205649ISENTO        20240824MG551  0003485102P000000000000000000000000000000000000000N                              
5300003003617699ISENTO        20240824MG551  0003495656P000000000000000000000000000000000000000N                              
5300003003617699ISENTO        20240824MG551  0003495405P000000000000000000000000000000000000000N                              
5300071701796600ISENTO        20240831MG551  0003625656P000000000000000000000000000000000000000N                              
5300071701796600ISENTO        20240831MG551  0003625405P000000000000000000000000000000000000000N                              
5300071701796600ISENTO        20240831MG551  0003625102P000000000000000000000000000000000000000N                              
5300010967421608ISENTO        20240827MG551  0003545405P000000000000000000000000000000000000000N                              
5300010967421608ISENTO        20240827MG551  0003545656P000000000000000000000000000000000000000N                              
5300091577187504ISENTO        20240824MG551  0003505405P000000000000000000000000000000000000000N                              
5300004412199690ISENTO        20240824MG551  0003515102P000000000000000000000000000000000000000N                              
5300080097227668ISENTO        20240824MG551  0003525656P000000000000000000000000000000000000000N                              
5300080097227668ISENTO        20240824MG551  0003525405P000000000000000000000000000000000000000N                              
5300060286490668ISENTO        20240831MG551  0003635405P000000000000000000000000000000000000000N                              
5300060286490668ISENTO        20240831MG551  0003635102P000000000000000000000000000000000000000N                              
5300037845454249ISENTO        20240827MG551  0003555405P000000000000000000000000000000000000000N                              
5300003057790607ISENTO        20240831MG551  0003645405P000000000000000000000000000000000000000N                              
5300003057790607ISENTO        20240827MG551  0003565656P000000000000000000000000000000000000000N                              
5300003057790607ISENTO        20240827MG551  0003565405P000000000000000000000000000000000000000N                              
5300003057790607ISENTO        20240827MG551  0003565102P000000000000000000000000000000000000000N                              
5300062816810615ISENTO        20240831MG551  0003655405P000000000000000000000000000000000000000N                              
5300045534942649ISENTO        20240827MG551  0003575656P000000000000000000000000000000000000000N                              
5300045534942649ISENTO        20240827MG551  0003575405P000000000000000000000000000000000000000N                              
5300045534942649ISENTO        20240827MG551  0003575102P000000000000000000000000000000000000000N                              
5300004300672679ISENTO        20240831MG551  0003665405P000000000000000000000000000000000000000N                              
5300008442351647ISENTO        20240831MG551  0003675656P000000000000000000000000000000000000000N                              
5300008442351647ISENTO        20240831MG551  0003675405P000000000000000000000000000000000000000N                              
5300004461026604ISENTO        20240831MG551  0003685405P000000000000000000000000000000000000000N                              
5300014399115688ISENTO        20240831MG551  0003695405P000000000000000000000000000000000000000N                              
5300049196227672ISENTO        20240831MG551  0003705405P000000000000000000000000000000000000000N                              
5300060389320625ISENTO        20240831MG551  0003715405P000000000000000000000000000000000000000N                              
5300060389320625ISENTO        20240831MG551  0003715656P000000000000000000000000000000000000000N                              
5300066352827691ISENTO        20240831MG551  0003725405P000000000000000000000000000000000000000N                              
5300044692153687ISENTO        20240831MG551  0003735656P000000000000000000000000000000000000000N                              
5300044692153687ISENTO        20240831MG551  0003735405P000000000000000000000000000000000000000N                              
5300044692153687ISENTO        20240831MG551  0003735102P000000000000000000000000000000000000000N                              
5300030542855704ISENTO        20240831MG551  0003745405P000000000000000000000000000000000000000N                              
5300001340790602ISENTO        20240831MG551  0003755405P000000000000000000000000000000000000000N                              
5300002964777616ISENTO        20240831MG551  0003765405P000000000000000000000000000000000000000N                              
5300002964777616ISENTO        20240831MG551  0003765102P000000000000000000000000000000000000000N                              
5300091491495634ISENTO        20240831MG551  0003775656P000000000000000000000000000000000000000N                              
5300091491495634ISENTO        20240831MG551  0003775405P000000000000000000000000000000000000000N                              
5300085872458649ISENTO        20240831MG551  0003785405P000000000000000000000000000000000000000N                              
5300085872458649ISENTO        20240831MG551  0003785656P000000000000000000000000000000000000000N                              
5300002798585660ISENTO        20240831MG551  0003795656P000000000000000000000000000000000000000N                              
5300002798585660ISENTO        20240831MG551  0003795405P000000000000000000000000000000000000000N                              
5300007895563670ISENTO        20240831MG551  0003805405P000000000000000000000000000000000000000N                              
5300009947762688ISENTO        20240831MG551  0003815405P000000000000000000000000000000000000000N                              
5300009947762688ISENTO        20240831MG551  0003815102P000000000000000000000000000000000000000N                              
5300050015761649ISENTO        20240831MG551  0003825405P000000000000000000000000000000000000000N                              
5300050015761649ISENTO        20240831MG551  0003825102P000000000000000000000000000000000000000N                              
5300004146201608ISENTO        20240831MG551  0003835656P000000000000000000000000000000000000000N                              
5300004146201608ISENTO        20240831MG551  0003835405P000000000000000000000000000000000000000N                              
5300004146201608ISENTO        20240831MG551  0003835102P000000000000000000000000000000000000000N                              
5300054994411620ISENTO        20240831MG551  0003845656P000000000000000000000000000000000000000N                              
5300054994411620ISENTO        20240831MG551  0003845405P000000000000000000000000000000000000000N                              
5300054994411620ISENTO        20240831MG551  0003845102P000000000000000000000000000000000000000N                              
5300068516460649ISENTO        20240831MG551  0003855656P000000000000000000000000000000000000000N                              
5300068516460649ISENTO        20240831MG551  0003855405P000000000000000000000000000000000000000N                              
5300060798998687ISENTO        20240831MG551  0003865656P000000000000000000000000000000000000000N                              
5300060798998687ISENTO        20240831MG551  0003865405P000000000000000000000000000000000000000N                              
5300060798998687ISENTO        20240831MG551  0003865102P000000000000000000000000000000000000000N                              
53215322700001130624775200061 20240807MG551  0094751403T000000000000000000000000000000000000000N                              
53215322700001130624775200061 20240814MG551  0095241403T000000000000000000000000000000000000000N                              
534444858100010246329510067   20240820MG551  0005565655T000000000000000000000000000000000000000N                              
534444858100010246329510067   20240820MG551  0005561102T000000000000000000000000000000000000000N                              
53215322700001130624775200061 20240821MG551  0095991403T000000000000000000000000000000000000000N                              
53215322700001130624775200061 20240829MG551  0096381403T000000000000000000000000000000000000000N                              
5400000263832686551  0003465405500001915           000000035000000000147000000000000000000000000000000000000000000000000000000
5400000263832686551  0003465405500002829           000000010000000000034000000000000000000000000000000000000000000000000000000
5400000263832686551  0003465405500003624           000000010000000000046000000000000000000000000000000000000000000000000000000
5400000498426688551  0003585405500001633           000000030000000000174000000000000000000000000000000000000000000000000000000
5400000498426688551  0003585405500002829           000000010000000000034000000000000000000000000000000000000000000000000000000
5400000498426688551  0003585405500003627           000000010000000000035000000000000000000000000000000000000000000000000000000
5400000498426688551  0003585405500004699           000000020000000000112000000000000000000000000000000000000000000000000000000
5400001340790602551  00037554055000011246          000000010000000000389000000000000000000000000000000000000000000000000000000
5400001340790602551  00037554055000021245          000000010000000000122000000000000000000000000000000000000000000000000000000
5400002105696627551  0003325405500001676           000000020000000000064000000000000000000000000000000000000000000000000000000
5400002105696627551  00033256565000021260          000000030000000000126000000000000000000000000000000000000000000000000000000
5400002105696627551  0003325405500003882           000000010000000000025000000000000000000000000000000000000000000000000000000
5400002105696627551  0003325405500004736           000000010000000000034000000000000000000000000000000000000000000000000000000
5400002105696627551  00033254055000051232          000000010000000000032000000000000000000000000000000000000000000000000000000
5400002798585660551  00037956565000011260          000000030000000000126000000000000000000000000000000000000000000000000000000
5400002798585660551  0003795405500002621           000000010000000000053000000000000000000000000000000000000000000000000000000
5400002798585660551  0003795405500003745           000000010000000000034000000000000000000000000000000000000000000000000000000
5400002964777616551  0003765405500001633           000000040000000000232000000000000000000000000000000000000000000000000000000
5400002964777616551  0003765405500002882           000000010000000000026000000000000000000000000000000000000000000000000000000
5400002964777616551  0003765405500003893           000000010000000000054000000000000000000000000000000000000000000000000000000
5400002964777616551  00037654055000041224          000000010000000000038000000000000000000000000000000000000000000000000000000
5400002964777616551  0003765405500005690           000000020000000000032000000000000000000000000000000000000000000000000000000
5400002964777616551  00037651021020061259          000000010000000000035000000000000000000000000000000000000000000000000000000
5400002964777616551  0003765405500007689           000000010000000000008000000000000000000000000000000000000000000000000000000
5400003003617699551  00034956565000011260          000000040000000000168000000000000000000000000000000000000000000000000000000
5400003003617699551  0003495405500002993           000000010000000000025000000000000000000000000000000000000000000000000000000
5400003003617699551  00034954055000031113          000000010000000000046000000000000000000000000000000000000000000000000000000
5400003003617699551  0003495405500004905           000000010000000000032000000000000000000000000000000000000000000000000000000
5400003003617699551  0003495405500005701           000000080000000000624000000000000000000000000000000000000000000000000000000
5400003003617699551  0003495405500006671           000000010000000000093000000000000000000000000000000000000000000000000000000
5400003057790607551  00035656565000011260          000000040000000000168000000000000000000000000000000000000000000000000000000
5400003057790607551  0003565405500002882           000000010000000000025000000000000000000000000000000000000000000000000000000
5400003057790607551  0003565405500003655           000000010000000000042000000000000000000000000000000000000000000000000000000
5400003057790607551  0003565405500004880           000000010000000000032000000000000000000000000000000000000000000000000000000
5400003057790607551  0003565102102005972           000000010000000000016000000000000000000000000000000000000000000000000000000
5400003057790607551  00036454055000011234          000000010000000000075000000000000000000000000000000000000000000000000000000
5400003113708613551  0003615405500001855           000000045000000000261000000000000000000000000000000000000000000000000000000
5400003113708613551  0003615405500002745           000000010000000000034000000000000000000000000000000000000000000000000000000
5400003113708613551  0003615405500003897           000000010000000000078000000000000000000000000000000000000000000000000000000
5400003113708613551  0003615102102004972           000000010000000000016000000000000000000000000000000000000000000000000000000
5400003113708613551  00036154055000051167          000000010000000000035000000000000000000000000000000000000000000000000000000
5400003113708613551  00036154055000061252          000000010000000000032000000000000000000000000000000000000000000000000000000
5400003118743980551  0003475405500001633           000000040000000000232000000000000000000000000000000000000000000000000000000
5400003118743980551  0003475405500002882           000000010000000000025000000000000000000000000000000000000000000000000000000
5400003118743980551  0003475405500003822           000000010000000000115000000000000000000000000000000000000000000000000000000
5400003185696638551  0003415656500001886           000000040000000000176000000000000000000000000000000000000000000000000000000
5400003185696638551  0003415405500002829           000000010000000000026000000000000000000000000000000000000000000000000000000
5400003185696638551  0003415405500003929           000000010000000000040000000000000000000000000000000000000000000000000000000
5400003185696638551  0003415102102004972           000000010000000000016000000000000000000000000000000000000000000000000000000
5400004146201608551  00038356565000011260          000000035000000000147000000000000000000000000000000000000000000000000000000
5400004146201608551  0003835405500002745           000000010000000000034000000000000000000000000000000000000000000000000000000
5400004146201608551  00038354055000031268          000000010000000000046000000000000000000000000000000000000000000000000000000
5400004146201608551  00038351021020041259          000000010000000000035000000000000000000000000000000000000000000000000000000
5400004178914669551  00033956565000011260          000000030000000000126000000000000000000000000000000000000000000000000000000
5400004178914669551  0003395405500002829           000000010000000000026000000000000000000000000000000000000000000000000000000
5400004178914669551  0003395405500003655           000000010000000000035000000000000000000000000000000000000000000000000000000
5400004300672679551  0003665405500001633           000000040000000000232000000000000000000000000000000000000000000000000000000
5400004300672679551  0003665405500002882           000000010000000000025000000000000000000000000000000000000000000000000000000
5400004300672679551  00036654055000031133          000000010000000000078000000000000000000000000000000000000000000000000000000
5400004412199690551  00035151021020011259          000000010000000000035000000000000000000000000000000000000000000000000000000
5400004461026604551  00036854055000011264          000000010000000000105000000000000000000000000000000000000000000000000000000
5400004461026604551  0003685405500002652           000000010000000000062000000000000000000000000000000000000000000000000000000
5400004461026604551  0003685405500003653           000000010000000000022000000000000000000000000000000000000000000000000000000
5400004461026604551  00036854055000041131          000000020000000000014000000000000000000000000000000000000000000000000000000
5400004963915693551  0003595405500001915           000000040000000000168000000000000000000000000000000000000000000000000000000
5400004963915693551  0003595405500002882           000000010000000000025000000000000000000000000000000000000000000000000000000
5400004963915693551  0003595405500003624           000000010000000000044000000000000000000000000000000000000000000000000000000
5400004963915693551  0003595405500004627           000000010000000000035000000000000000000000000000000000000000000000000000000
5400006367043608551  00036056565000011260          000000045000000000189000000000000000000000000000000000000000000000000000000
5400006367043608551  00036054055000021053          000000010000000000034000000000000000000000000000000000000000000000000000000
5400006367043608551  00036054055000031103          000000010000000000044000000000000000000000000000000000000000000000000000000
5400006367043608551  0003605102102004972           000000010000000000016000000000000000000000000000000000000000000000000000000
5400006707824678551  0003365656500001886           000000030000000000132000000000000000000000000000000000000000000000000000000
5400006707824678551  0003365405500002745           000000010000000000034000000000000000000000000000000000000000000000000000000
5400006707824678551  0003365405500003746           000000010000000000044000000000000000000000000000000000000000000000000000000
5400006707824678551  0003365405500004880           000000010000000000031000000000000000000000000000000000000000000000000000000
5400006707824678551  0003365102102005972           000000010000000000016000000000000000000000000000000000000000000000000000000
5400007557238648551  0003295405500001739           000000010000000000078000000000000000000000000000000000000000000000000000000
5400007557238648551  00032954055000021016          000000010000000000026000000000000000000000000000000000000000000000000000000
5400007557238648551  00032954055000031228          000000010000000000104000000000000000000000000000000000000000000000000000000
5400007557238648551  0003295405500004728           000000010000000000049000000000000000000000000000000000000000000000000000000
5400007557238648551  00032954055000051223          000000010000000000032000000000000000000000000000000000000000000000000000000
5400007557238648551  00032956565000061260          000000045000000000189000000000000000000000000000000000000000000000000000000
5400007557238648551  0003295405500007993           000000010000000000025000000000000000000000000000000000000000000000000000000
5400007557238648551  0003295405500008640           000000010000000000044000000000000000000000000000000000000000000000000000000
5400007895563670551  0003805405500001916           000000040000000000152000000000000000000000000000000000000000000000000000000
5400007895563670551  0003805405500002882           000000010000000000025000000000000000000000000000000000000000000000000000000
5400007895563670551  0003805405500003736           000000010000000000034000000000000000000000000000000000000000000000000000000
5400008162058680551  0003405405500001863           000000010000000000478000000000000000000000000000000000000000000000000000000
5400008162058680551  00034054055000021244          000000030000000000432000000000000000000000000000000000000000000000000000000
5400008162058680551  00034054055000031243          000000020000000000216000000000000000000000000000000000000000000000000000000
5400008162058680551  0003405405500004855           000000040000000000192000000000000000000000000000000000000000000000000000000
5400008162058680551  0003405405500005745           000000010000000000034000000000000000000000000000000000000000000000000000000
5400008162058680551  0003405405500006746           000000010000000000072000000000000000000000000000000000000000000000000000000
5400008162058680551  00034054055000071247          000000010000000000042000000000000000000000000000000000000000000000000000000
5400008162058680551  00034054055000081053          000000010000000000035000000000000000000000000000000000000000000000000000000
5400008162058680551  0003405102102009972           000000010000000000016000000000000000000000000000000000000000000000000000000
5400008442351647551  00036756565000011260          000000030000000000126000000000000000000000000000000000000000000000000000000
5400008442351647551  0003675405500002657           000000010000000000034000000000000000000000000000000000000000000000000000000
5400008442351647551  00036754055000031268          000000010000000000040000000000000000000000000000000000000000000000000000000
5400008442351647551  00036754055000041262          000000010000000000168000000000000000000000000000000000000000000000000000000
5400008442351647551  0003675405500005905           000000010000000000035000000000000000000000000000000000000000000000000000000
5400008442351647551  0003675405500006862           000000020000000000196000000000000000000000000000000000000000000000000000000
5400008442351647551  0003675405500007509           000000010000000000034000000000000000000000000000000000000000000000000000000
5400008726348683551  00033356565000011260          000000045000000000189000000000000000000000000000000000000000000000000000000
5400008726348683551  0003335405500002745           000000010000000000034000000000000000000000000000000000000000000000000000000
5400008726348683551  0003335405500003640           000000010000000000046000000000000000000000000000000000000000000000000000000
5400008726348683551  0003335102102004972           000000010000000000005000000000000000000000000000000000000000000000000000000
5400009008835614551  00033056565000011260          000000045000000000189000000000000000000000000000000000000000000000000000000
5400009008835614551  0003305405500002993           000000010000000000026000000000000000000000000000000000000000000000000000000
5400009008835614551  00033054055000031231          000000010000000000084000000000000000000000000000000000000000000000000000000
5400009008835614551  0003305102102004972           000000010000000000005000000000000000000000000000000000000000000000000000000
5400009947762688551  0003815405500001633           000000040000000000232000000000000000000000000000000000000000000000000000000
5400009947762688551  0003815405500002745           000000010000000000032000000000000000000000000000000000000000000000000000000
5400009947762688551  0003815405500003666           000000010000000000086000000000000000000000000000000000000000000000000000000
5400009947762688551  0003815405500004905           000000010000000000039000000000000000000000000000000000000000000000000000000
5400009947762688551  00038151021020051259          000000010000000000035000000000000000000000000000000000000000000000000000000
5400009947762688551  00038154055000061286          000000010000000000298000000000000000000000000000000000000000000000000000000
5400009947762688551  00038154055000071131          000000010000000000024000000000000000000000000000000000000000000000000000000
5400010967421608551  00035454055000011248          000000020000000000478000000000000000000000000000000000000000000000000000000
5400010967421608551  0003545656500002886           000000035000000000154000000000000000000000000000000000000000000000000000000
5400010967421608551  0003545405500003882           000000010000000000025000000000000000000000000000000000000000000000000000000
5400010967421608551  0003545405500004736           000000010000000000034000000000000000000000000000000000000000000000000000000
5400010967421608551  00035454055000051252          000000010000000000038000000000000000000000000000000000000000000000000000000
5400010967421608551  0003545405500006880           000000010000000000032000000000000000000000000000000000000000000000000000000
5400010967421608551  00035454055000071249          000000010000000000048000000000000000000000000000000000000000000000000000000
5400010967421608551  0003545405500008660           000000010000000000089000000000000000000000000000000000000000000000000000000
5400010967421608551  0003545405500009637           000000010000000000064000000000000000000000000000000000000000000000000000000
5400010967421608551  00035454055000101250          000000020000000000128000000000000000000000000000000000000000000000000000000
5400010967421608551  00035454055000111035          000000040000000000122000000000000000000000000000000000000000000000000000000
5400010967421608551  00035454055000121216          000000010000000000129000000000000000000000000000000000000000000000000000000
5400010967421608551  0003545405500013726           000000010000000000199000000000000000000000000000000000000000000000000000000
5400010967421608551  0003545405500014509           000000020000000000068000000000000000000000000000000000000000000000000000000
5400010967421608551  00035454055000151261          000000010000000000215000000000000000000000000000000000000000000000000000000
5400011547034602551  00034254055000011210          000000010000000000078000000000000000000000000000000000000000000000000000000
5400011547034602551  00034256565000021260          000000040000000000168000000000000000000000000000000000000000000000000000000
5400011547034602551  0003425405500003882           000000010000000000025000000000000000000000000000000000000000000000000000000
5400011547034602551  0003425405500004693           000000010000000000052000000000000000000000000000000000000000000000000000000
5400014399115688551  00036954055000011131          000000030000000000021000000000000000000000000000000000000000000000000000000
5400016338952620551  0003355405500001662           000000010000000000176000000000000000000000000000000000000000000000000000000
5400019635419600551  00034554055000011164          000000010000000000068000000000000000000000000000000000000000000000000000000
5400019635419600551  00034554055000021028          000000010000000000042000000000000000000000000000000000000000000000000000000
5400019635419600551  0003455405500003818           000000010000000000039000000000000000000000000000000000000000000000000000000
5400019635419600551  0003455405500004814           000000010000000000068000000000000000000000000000000000000000000000000000000
5400019635419600551  00034554055000051063          000000010000000000099000000000000000000000000000000000000000000000000000000
5400019635419600551  0003455405500006649           000000010000000000086000000000000000000000000000000000000000000000000000000
5400019635419600551  0003455405500007789           000000010000000000078000000000000000000000000000000000000000000000000000000
5400019635419600551  0003455405500008790           000000010000000000044000000000000000000000000000000000000000000000000000000
5400020088205649551  0003485405500001812           000000010000000000046000000000000000000000000000000000000000000000000000000
5400020088205649551  00034854055000021003          000000010000000000098000000000000000000000000000000000000000000000000000000
5400020088205649551  00034854055000031257          000000010000000000024000000000000000000000000000000000000000000000000000000
5400020088205649551  00034856565000041260          000000035000000000147000000000000000000000000000000000000000000000000000000
5400020088205649551  0003485405500005993           000000010000000000025000000000000000000000000000000000000000000000000000000
5400020088205649551  0003485102102006972           000000010000000000005000000000000000000000000000000000000000000000000000000
5421532270000113551  00947514030600011219          000000010000000000101540000000000000000000000000000000012330000000000000000
5421532270000113551  00947514030600021220          000000010000000000008530000000000000000000000000000000000130000000000000000
5421532270000113551  00947514030600031221          000000040000000000082840000000000000000000000000000000011270000000000000000
5421532270000113551  00947514030600041167          000000020000000000028440000000000000000000000000000000002980000000000000000
5421532270000113551  00947514030600051222          000000010000000000560490000000000000000000000000000000000000000000000000000
5421532270000113551  00947514030600061223          000000010000000000014620000000000000000000000000000000000000000000000000000
5421532270000113551  00947514030600071224          000000010000000000019900000000000000000000000000000000001700000000000000000
5421532270000113551  0094751403060008543           000000010000000000052800000000000000000000000000000000007090000000000000000
5421532270000113551  0094751403060009998           000000010000000000064980000000000000000000000000000000006730000000000000000
5421532270000113551  0094751403060010739           000000010000000000057670000000000000000000000000000000010210000000000000000
5421532270000113551  00947514030600111225          000000010000000000117780000000000000000000000000000000012610000000000000000
5421532270000113551  00947514030600121092          000000010000000000063360000000000000000000000000000000006570000000000000000
5421532270000113551  00947514030600131093          000000010000000000016250000000000000000000000000000000001140000000000000000
5421532270000113551  00947514030600141226          000000010000000000048740000000000000000000000000000000006210000000000000000
5421532270000113551  0094751403060015739           000000010000000000057670000000000000000000000000000000010210000000000000000
5421532270000113551  0094751403060016728           000000010000000000035740000000000000000000000000000000002530000000000000000
5421532270000113551  00947514030600171016          000000010000000000010560000000000000000000000000000000000000000000000000000
5421532270000113551  00947514030600181227          000000020000000000219320000000000000000000000000000000008540000000000000000
5421532270000113551  00947514030600191228          000000010000000000072290000000000000000000000000000000000000000000000000000
5421532270000113551  00947514030600201229          000000010000000000028430000000000000000000000000000000002900000000000000000
5421532270000113551  00947514030600211230          000000010000000000084480000000000000000000000000000000005430000000000000000
5421532270000113551  00947514030600221217          000000010000000000069050000000000000000000000000000000000000000000000000000
5421532270000113551  00947514030600231231          000000010000000000068230000000000000000000000000000000008870000000000000000
5421532270000113551  0094751403060024757           000000010000000000119410000000000000000000000000000000016150000000000000000
5421532270000113551  00947514030600251232          000000010000000000017060000000000000000000000000000000000000000000000000000
5421532270000113551  0094751403060026625           000000010000000000030460000000000000000000000000000000003160000000000000000
5421532270000113551  00947514030600271218          000000010000000000069050000000000000000000000000000000000000000000000000000
5421532270000113551  0094751403060028832           000000020000000000097480000000000000000000000000000000010740000000000000000
5421532270000113551  00947514030600291233          000000020000000000030860000000000000000000000000000000000000000000000000000
5421532270000113551  0094751403060030510           000000010000000000100730000000000000000000000000000000009180000000000000000
5421532270000113551  00947514030600311234          000000010000000000046950000000000000000000000000000000007430000000000000000
5421532270000113551  00947514030600321235          000000010000000000021930000000000000000000000000000000002490000000000000000
5421532270000113551  00947514030600331236          000000010000000000103970000000000000000000000000000000000000000000000000000
5421532270000113551  00947514030600341237          000000010000000000132400000000000000000000000000000000018720000000000000000
5421532270000113551  00947514030600351238          000000010000000000033300000000000000000000000000000000003280000000000000000
5421532270000113551  00952414030600011239          000000010000000000161650000000000000000000000000000000018980000000000000000
5421532270000113551  0095241403060002688           000000010000000000284300000000000000000000000000000000039290000000000000000
5421532270000113551  00952414030600031240          000000010000000000077170000000000000000000000000000000012120000000000000000
5421532270000113551  0095241403060004813           000000010000000000025990000000000000000000000000000000002710000000000000000
5421532270000113551  00952414030600051241          000000010000000000069050000000000000000000000000000000008500000000000000000
5421532270000113551  0095241403060006578           000000010000000000041020000000000000000000000000000000006860000000000000000
5421532270000113551  0095241403060007812           000000010000000000028430000000000000000000000000000000003300000000000000000
5421532270000113551  00952414030600081242          000000010000000000072290000000000000000000000000000000000000000000000000000
5421532270000113551  0095241403060009813           000000010000000000025990000000000000000000000000000000002710000000000000000
5421532270000113551  0095241403060010814           000000010000000000048330000000000000000000000000000000004770000000000000000
5421532270000113551  0095241403060011746           000000010000000000039800000000000000000000000000000000004170000000000000000
5421532270000113551  00952414030600121243          000000020000000000160840000000000000000000000000000000019580000000000000000
5421532270000113551  0095241403060013718           000000010000000000361470000000000000000000000000000000046580000000000000000
5421532270000113551  00952414030600141244          000000030000000000328980000000000000000000000000000000040230000000000000000
5421532270000113551  00952414030600151245          000000010000000000092600000000000000000000000000000000003340000000000000000
5421532270000113551  00952414030600161246          000000010000000000315990000000000000000000000000000000036010000000000000000
5421532270000113551  0095241403060017543           000000010000000000052800000000000000000000000000000000007090000000000000000
5421532270000113551  00952414030600181247          000000010000000000023150000000000000000000000000000000000000000000000000000
5421532270000113551  00952414030600191248          000000020000000000381780000000000000000000000000000000050800000000000000000
5421532270000113551  00952414030600201249          000000010000000000033300000000000000000000000000000000004250000000000000000
5421532270000113551  0095241403060021637           000000010000000000052800000000000000000000000000000000009740000000000000000
5421532270000113551  00952414030600221250          000000020000000000092600000000000000000000000000000000010200000000000000000
5421532270000113551  0095241403060023660           000000010000000000064170000000000000000000000000000000009090000000000000000
5421532270000113551  0095241403060024535           000000010000000000152710000000000000000000000000000000017950000000000000000
5421532270000113551  00952414030600251216          000000010000000000100320000000000000000000000000000000013410000000000000000
5421532270000113551  00952414030600261035          000000040000000000089360000000000000000000000000000000000000000000000000000
5421532270000113551  00952414030600271251          000000010000000000063360000000000000000000000000000000009340000000000000000
5421532270000113551  00952414030600281252          000000020000000000046300000000000000000000000000000000004680000000000000000
5421532270000113551  0095241403060029542           000000020000000000032500000000000000000000000000000000003790000000000000000
5421532270000113551  0095241403060030970           000000010000000000052390000000000000000000000000000000005420000000000000000
5421532270000113551  00952414030600311253          000000010000000000080420000000000000000000000000000000009710000000000000000
5421532270000113551  0095241403060032839           000000010000000000062550000000000000000000000000000000000000000000000000000
5421532270000113551  00952414030600331254          000000020000000000103980000000000000000000000000000000011100000000000000000
5421532270000113551  00952414030600341255          000000010000000000337100000000000000000000000000000000000000000000000000000
5421532270000113551  00952414030600351256          000000010000000000070670000000000000000000000000000000010060000000000000000
5421532270000113551  0095241403060036763           000000010000000000037370000000000000000000000000000000006350000000000000000
5421532270000113551  0095241403060037812           000000010000000000028430000000000000000000000000000000003300000000000000000
5421532270000113551  00952414030600381257          000000010000000000013570000000000000000000000000000000000000000000000000000
5421532270000113551  00959914030600011261          000000010000000000162050000000000000000000000000000000013410000000000000000
5421532270000113551  0095991403060002578           000000010000000000041020000000000000000000000000000000006860000000000000000
5421532270000113551  0095991403060003618           000000010000000000073920000000000000000000000000000000006800000000000000000
5421532270000113551  00959914030600041079          000000010000000000074730000000000000000000000000000000011550000000000000000
5421532270000113551  00959914030600051262          000000010000000000124280000000000000000000000000000000010340000000000000000
5421532270000113551  0095991403060006710           000000010000000000075950000000000000000000000000000000000000000000000000000
5421532270000113551  00959914030600071263          000000010000000000109660000000000000000000000000000000000000000000000000000
5421532270000113551  0095991403060008529           000000020000000000100720000000000000000000000000000000013970000000000000000
5421532270000113551  00959914030600091264          000000010000000000075540000000000000000000000000000000008880000000000000000
5421532270000113551  0095991403060010652           000000010000000000042650000000000000000000000000000000005020000000000000000
5421532270000113551  0095991403060011653           000000010000000000013650000000000000000000000000000000001450000000000000000
5421532270000113551  0095991403060012806           000000010000000000053610000000000000000000000000000000008330000000000000000
5421532270000113551  00959914030600131265          000000010000000000073920000000000000000000000000000000003710000000000000000
5421532270000113551  0095991403060014526           000000010000000000045490000000000000000000000000000000005980000000000000000
5421532270000113551  0095991403060015650           000000010000000000051170000000000000000000000000000000000000000000000000000
5421532270000113551  0095991403060016531           000000080000000000052000000000000000000000000000000000000000000000000000000
5421532270000113551  0095991403060017534           000000010000000000073110000000000000000000000000000000009710000000000000000
5421532270000113551  0095991403060018997           000000010000000000050360000000000000000000000000000000008480000000000000000
5421532270000113551  00959914030600191266          000000010000000000193330000000000000000000000000000000022330000000000000000
5421532270000113551  00959914030600201267          000000010000000000077170000000000000000000000000000000000000000000000000000
5421532270000113551  00959914030600211224          000000010000000000019900000000000000000000000000000000001700000000000000000
5421532270000113551  0095991403060022543           000000010000000000052800000000000000000000000000000000007090000000000000000
5421532270000113551  0095991403060023507           000000010000000000021530000000000000000000000000000000002240000000000000000
5421532270000113551  00959914030600241268          000000010000000000026810000000000000000000000000000000003090000000000000000
5421532270000113551  00959914030600251269          000000020000000000482500000000000000000000000000000000067380000000000000000
5421532270000113551  0095991403060026506           000000020000000000203080000000000000000000000000000000014610000000000000000
5421532270000113551  00959914030600271270          000000010000000000112100000000000000000000000000000000017870000000000000000
5421532270000113551  00963814030600011271          000000010000000000012590000000000000000000000000000000000810000000000000000
5421532270000113551  00963814030600021272          000000010000000000021120000000000000000000000000000000003050000000000000000
5421532270000113551  00963814030600031273          000000010000000000056050000000000000000000000000000000007770000000000000000
5421532270000113551  00963814030600041274          000000010000000000034520000000000000000000000000000000000000000000000000000
5421532270000113551  00963814030600051061          000000010000000000043050000000000000000000000000000000000000000000000000000
5421532270000113551  00963814030600061275          000000010000000000315170000000000000000000000000000000000000000000000000000
5421532270000113551  0096381403060007674           000000010000000000023150000000000000000000000000000000002450000000000000000
5421532270000113551  00963814030600081276          000000010000000000042240000000000000000000000000000000000000000000000000000
5421532270000113551  00963814030600091277          000000020000000000024360000000000000000000000000000000002940000000000000000
5421532270000113551  00963814030600101278          000000010000000000006500000000000000000000000000000000000000000000000000000
5421532270000113551  00963814030600111279          000000020000000000089360000000000000000000000000000000000000000000000000000
5421532270000113551  00963814030600121224          000000010000000000019900000000000000000000000000000000001700000000000000000
5421532270000113551  0096381403060013543           000000010000000000052800000000000000000000000000000000007090000000000000000
5421532270000113551  00963814030600141280          000000010000000000091380000000000000000000000000000000000000000000000000000
5421532270000113551  00963814030600151281          000000010000000000041430000000000000000000000000000000004070000000000000000
5421532270000113551  00963814030600161282          000000010000000000036550000000000000000000000000000000002840000000000000000
5421532270000113551  00963814030600171283          000000020000000000406140000000000000000000000000000000051080000000000000000
5421532270000113551  00963814030600181058          000000020000000000071480000000000000000000000000000000010730000000000000000
5421532270000113551  00963814030600191284          000000010000000000013000000000000000000000000000000000001460000000000000000
5421532270000113551  0096381403060020985           000000020000000000097480000000000000000000000000000000012920000000000000000
5421532270000113551  00963814030600211285          000000040000000000087720000000000000000000000000000000009530000000000000000
5421532270000113551  00963814030600221286          000000010000000000211200000000000000000000000000000000017780000000000000000
5421532270000113551  00963814030600231287          000000010000000000567800000000000000000000000000000000094400000000000000000
5421532270000113551  00963814030600241288          000000010000000000074730000000000000000000000000000000000000000000000000000
5421532270000113551  0096381403060025684           000000010000000000397210000000000000000000000000000000000000000000000000000
5421532270000113551  00963814030600261289          000000020000000000235560000000000000000000000000000000021960000000000000000
5421532270000113551  00963814030600271290          000000010000000000056450000000000000000000000000000000006050000000000000000
5421532270000113551  00963814030600281291          000000010000000000056450000000000000000000000000000000003540000000000000000
5421532270000113551  00963814030600291292          000000010000000000020310000000000000000000000000000000002860000000000000000
5421532270000113551  0096381403060030735           000000010000000000034930000000000000000000000000000000005170000000000000000
5421532270000113551  00963814030600311293          000000020000000000031680000000000000000000000000000000003710000000000000000
5421532270000113551  00963814030600321294          000000020000000000056860000000000000000000000000000000000000000000000000000
5421532270000113551  00963814030600331295          000000030000000000081630000000000000000000000000000000000000000000000000000
5421532270000113551  00963814030600341296          000000020000000000206320000000000000000000000000000000026280000000000000000
5421532270000113551  0096381403060035817           000000010000000000013400000000000000000000000000000000001560000000000000000
5421532270000113551  00963814030600361297          000000010000000000025590000000000000000000000000000000002620000000000000000
5421532270000113551  00963814030600371298          000000010000000000130780000000000000000000000000000000010610000000000000000
5400029745802620551  00033154055000011230          000000010000000000134000000000000000000000000000000000000000000000000000000
5400029745802620551  00033151021020021259          000000010000000000035000000000000000000000000000000000000000000000000000000
5400030542855704551  0003745405500001942           000000010000000000136000000000000000000000000000000000000000000000000000000
5400037845454249551  0003555405500001637           000000010000000000064000000000000000000000000000000000000000000000000000000
5400037845454249551  0003555405500002618           000000010000000000115000000000000000000000000000000000000000000000000000000
5444448581000102551  00055656555000011258          000000090000000000449100000000000000000000000000000000000000000000000000000
5444448581000102551  0005565655500002886           000000240000000000642720000000000000000000000000000000072770000000000000000
5444448581000102551  00055611021020031259          000000120000000000089640000000000000000000000000000000000000000000000000000
5444448581000102551  00055656555000041260          000000720000000001942560000000000000000000000000000000224570000000000000000
5400044692153687551  0003735656500001886           000000035000000000154000000000000000000000000000000000000000000000000000000
5400044692153687551  0003735405500002938           000000010000000000034000000000000000000000000000000000000000000000000000000
5400044692153687551  0003735405500003640           000000010000000000044000000000000000000000000000000000000000000000000000000
5400044692153687551  0003735102102004972           000000010000000000016000000000000000000000000000000000000000000000000000000
5400044692153687551  00037354055000051224          000000010000000000035000000000000000000000000000000000000000000000000000000
5400044692153687551  0003735405500006690           000000010000000000030000000000000000000000000000000000000000000000000000000
5400045534942649551  00035756565000011260          000000050000000000210000000000000000000000000000000000000000000000000000000
5400045534942649551  0003575405500002829           000000010000000000034000000000000000000000000000000000000000000000000000000
5400045534942649551  0003575405500003822           000000010000000000074000000000000000000000000000000000000000000000000000000
5400045534942649551  0003575405500004880           000000010000000000035000000000000000000000000000000000000000000000000000000
5400045534942649551  0003575102102005972           000000010000000000016000000000000000000000000000000000000000000000000000000
5400049196227672551  00033854055000011237          000000010000000000189000000000000000000000000000000000000000000000000000000
5400049196227672551  00033854055000021236          000000010000000000178000000000000000000000000000000000000000000000000000000
5400049196227672551  00033854055000031238          000000010000000000048000000000000000000000000000000000000000000000000000000
5400049196227672551  0003385405500004812           000000010000000000068000000000000000000000000000000000000000000000000000000
5400049196227672551  0003385405500005915           000000035000000000147000000000000000000000000000000000000000000000000000000
5400049196227672551  0003385405500006829           000000010000000000034000000000000000000000000000000000000000000000000000000
5400049196227672551  0003385102102007972           000000010000000000016000000000000000000000000000000000000000000000000000000
5400049196227672551  0003705405500001935           000000010000000000196000000000000000000000000000000000000000000000000000000
5400049196227672551  00037054055000021131          000000020000000000014000000000000000000000000000000000000000000000000000000
5400050015761649551  00038254055000011283          000000020000000000536000000000000000000000000000000000000000000000000000000
5400050015761649551  0003825405500002985           000000020000000000136000000000000000000000000000000000000000000000000000000
5400050015761649551  00038254055000031058          000000020000000000098000000000000000000000000000000000000000000000000000000
5400050015761649551  00038254055000041285          000000040000000000136000000000000000000000000000000000000000000000000000000
5400050015761649551  0003825405500005880           000000010000000000032000000000000000000000000000000000000000000000000000000
5400050015761649551  0003825405500006509           000000010000000000034000000000000000000000000000000000000000000000000000000
5400050015761649551  00038251021020071259          000000010000000000035000000000000000000000000000000000000000000000000000000
5400052369692634551  00033754055000011217          000000020000000000208000000000000000000000000000000000000000000000000000000
5400052954366249551  0003345405500001812           000000010000000000042000000000000000000000000000000000000000000000000000000
5400054994411620551  00038456565000011260          000000030000000000126000000000000000000000000000000000000000000000000000000
5400054994411620551  0003845405500002745           000000010000000000034000000000000000000000000000000000000000000000000000000
5400054994411620551  0003845405500003735           000000010000000000049000000000000000000000000000000000000000000000000000000
5400054994411620551  0003845405500004880           000000010000000000036000000000000000000000000000000000000000000000000000000
5400054994411620551  00038454055000051294          000000020000000000084000000000000000000000000000000000000000000000000000000
5400054994411620551  00038454055000061291          000000020000000000156000000000000000000000000000000000000000000000000000000
5400054994411620551  00038454055000071295          000000030000000000127500000000000000000000000000000000000000000000000000000
5400054994411620551  0003845405500008509           000000020000000000068000000000000000000000000000000000000000000000000000000
5400054994411620551  00038451021020091259          000000010000000000035000000000000000000000000000000000000000000000000000000
5400060286490668551  0003635405500001633           000000040000000000232000000000000000000000000000000000000000000000000000000
5400060286490668551  0003635405500002882           000000010000000000025000000000000000000000000000000000000000000000000000000
5400060286490668551  0003635405500003876           000000010000000000054000000000000000000000000000000000000000000000000000000
5400060286490668551  0003635102102004972           000000010000000000016000000000000000000000000000000000000000000000000000000
5400060286490668551  00036354055000051224          000000010000000000035000000000000000000000000000000000000000000000000000000
5400060389320625551  00037154055000011074          000000010000000000049000000000000000000000000000000000000000000000000000000
5400060389320625551  00037154055000021061          000000010000000000062000000000000000000000000000000000000000000000000000000
5400060389320625551  00037156565000031260          000000005000000000021000000000000000000000000000000000000000000000000000000
5400060798998687551  0003865656500001886           000000035000000000154000000000000000000000000000000000000000000000000000000
5400060798998687551  0003865405500002882           000000010000000000026000000000000000000000000000000000000000000000000000000
5400060798998687551  0003865405500003929           000000010000000000028000000000000000000000000000000000000000000000000000000
5400060798998687551  0003865102102004972           000000010000000000005000000000000000000000000000000000000000000000000000000
5400062816810615551  00036554055000011267          000000010000000000105000000000000000000000000000000000000000000000000000000
5400062816810615551  0003655405500002915           000000030000000000126000000000000000000000000000000000000000000000000000000
5400062816810615551  0003655405500003938           000000010000000000034000000000000000000000000000000000000000000000000000000
5400063150956668551  0003535405500001915           000000030000000000126000000000000000000000000000000000000000000000000000000
5400063150956668551  0003535405500002829           000000010000000000034000000000000000000000000000000000000000000000000000000
5400063150956668551  0003535405500003624           000000010000000000044000000000000000000000000000000000000000000000000000000
5400063150956668551  0003535405500004905           000000010000000000036000000000000000000000000000000000000000000000000000000
5400063150956668551  00035354055000051252          000000010000000000028000000000000000000000000000000000000000000000000000000
5400063150956668551  0003535405500006877           000000010000000000169000000000000000000000000000000000000000000000000000000
5400063150956668551  0003535405500007842           000000010000000000115000000000000000000000000000000000000000000000000000000
5400063150956668551  0003535405500008509           000000010000000000034000000000000000000000000000000000000000000000000000000
5465139743000192551  00034356565000011260          000000045000000000189000000000000000000000000000000000000000000000000000000
5465139743000192551  00034354055000021053          000000010000000000034000000000000000000000000000000000000000000000000000000
5465139743000192551  0003435405500003655           000000010000000000036000000000000000000000000000000000000000000000000000000
5465139743000192551  0003435102102004972           000000010000000000016000000000000000000000000000000000000000000000000000000
5465139743000192551  0003435405500005923           000000070000000000049000000000000000000000000000000000000000000000000000000
5465139743000192551  0003445656500001886           000000050000000000220000000000000000000000000000000000000000000000000000000
5400066352827691551  00037254055000011229          000000010000000000042000000000000000000000000000000000000000000000000000000
5400066352827691551  00037254055000021054          000000010000000000024000000000000000000000000000000000000000000000000000000
5400066352827691551  0003725405500003790           000000010000000000044000000000000000000000000000000000000000000000000000000
5400068516460649551  0003855656500001886           000000035000000000154000000000000000000000000000000000000000000000000000000
5400068516460649551  0003855405500002745           000000010000000000034000000000000000000000000000000000000000000000000000000
5400068516460649551  0003855405500003746           000000010000000000049000000000000000000000000000000000000000000000000000000
5400068516460649551  00038554055000041278          000000010000000000016000000000000000000000000000000000000000000000000000000
5400071701796600551  0003625656500001886           000000035000000000154000000000000000000000000000000000000000000000000000000
5400071701796600551  0003625405500002882           000000010000000000025000000000000000000000000000000000000000000000000000000
5400071701796600551  0003625102102003972           000000010000000000005000000000000000000000000000000000000000000000000000000
5400071701796600551  00036254055000041142          000000010000000000099000000000000000000000000000000000000000000000000000000
5400071701796600551  0003625405500005719           000000010000000000067000000000000000000000000000000000000000000000000000000
5400071701796600551  0003625405500006650           000000010000000000069000000000000000000000000000000000000000000000000000000
5400080097227668551  00035256565000011258          000000090000000000756000000000000000000000000000000000000000000000000000000
5400080097227668551  00035254055000021240          000000010000000000126000000000000000000000000000000000000000000000000000000
5400085872458649551  00037854055000011275          000000010000000000438000000000000000000000000000000000000000000000000000000
5400085872458649551  00037854055000021276          000000010000000000058000000000000000000000000000000000000000000000000000000
5400085872458649551  00037854055000031278          000000010000000000012000000000000000000000000000000000000000000000000000000
5400085872458649551  00037854055000041216          000000010000000000129000000000000000000000000000000000000000000000000000000
5400085872458649551  0003785405500005674           000000010000000000036000000000000000000000000000000000000000000000000000000
5400085872458649551  0003785656500006886           000000030000000000132000000000000000000000000000000000000000000000000000000
5400085872458649551  0003785405500007882           000000010000000000025000000000000000000000000000000000000000000000000000000
5400085872458649551  0003785405500008736           000000010000000000034000000000000000000000000000000000000000000000000000000
5400085872458649551  00037854055000091282          000000010000000000049000000000000000000000000000000000000000000000000000000
5400085872458649551  00037854055000101281          000000010000000000059000000000000000000000000000000000000000000000000000000
5400091491495634551  00037756565000011260          000000035000000000147000000000000000000000000000000000000000000000000000000
5400091491495634551  0003775405500002657           000000010000000000034000000000000000000000000000000000000000000000000000000
5400091491495634551  0003775405500003640           000000010000000000046000000000000000000000000000000000000000000000000000000
5400091577187504551  00035054055000011253          000000010000000000116000000000000000000000000000000000000000000000000000000
5400091577187504551  00035054055000021255          000000010000000000459000000000000000000000000000000000000000000000000000000
5400091577187504551  00035054055000031254          000000020000000000138000000000000000000000000000000000000000000000000000000
5400091577187504551  00035054055000041256          000000010000000000098000000000000000000000000000000000000000000000000000000
7520240801202408311003          87089100MF408-RESERV AGUA RADIADOR                           PC    000000000000000000000000000
7520240801202408311016          401693008642086-KIT ANEIS VEDACAO                            JG    000000000000000000000000000
7520240801202408311028          8708999024578675-JUNTA TAMPA VALVULA                         PC    000000000000000000000000000
7520240801202408311035          85111000FR7DDEG-VELA IGNICAO                                 PC    000000000000000000000000000
7520240801202408311053          84219999WOE912                                               PC    000000000000000000000000000
7520240801202408311054          4016930076090-ANEL VEDACAO                                   PC    000000000000000000000000000
7520240801202408311058          87083090ATE6013-CILINDRO RODA                                PC    000000000000000000000000000
7520240801202408311061          9026209055202374-INTER PRESSAO OLEO                          PC    000000000000000000000000000
7520240801202408311063          8708999055216827-PROTETOR DE CORREIAS                        PC    000000000000000000000000000
7520240801202408311074          401693004328364-ANEL VEDACAO                                 PC    000000000000000000000000000
7520240801202408311079          870830900986AB8577-CILINDRO RODA                             PC    000000000000000000000000000
7520240801202408311092          87089100MF462-RESERV AGUA RADIADOR                           PC    000000000000000000000000000
7520240801202408311093          870899907S558100AA-TAMPA RESERVATORIO                        PC    000000000000000000000000000
7520240801202408311103          84219999LX3505-FILTRO AR                                     PC    000000000000000000000000000
7520240801202408311113          84219999C29014-FILTRO AR                                     PC    000000000000000000000000000
7520240801202408311131          732690908132024-ABRACADEIRA                                  PC    000000000000000000000000000
7520240801202408311133          84219999LX3819-FILTRO AR                                     PC    000000000000000000000000000
7520240801202408311142          84821090BAHB636114B-ROL RODA                                 PC    000000000000000000000000000
7520240801202408311164          40103500104SP170H-CORREIA DISTRIBUICAO                       PC    000000000000000000000000000
7520240801202408311167          84213990CU23362-FILTRO ANTI POLEM                            PC    000000000000000000000000000
7520240801202408311210          401031006PK762ELASTICA-CORREIA                               PC    000000000000000000000000000
7520240801202408311216          84835090VKM11107L-TENSOR CORREIA DENTADA                     PC    000000000000000000000000000
7520240801202408311217          400931009653-MANGUEIRA                                       PC    000000000000000000000000000
7520240801202408311218          400931009653-MANGUEIRA                                       PC    000000000000000000000000000
7520240801202408311219          90261029F000TE182B-SENSOR DE NIVEL DE COMBUSTIVEL            PC    000000000000000000000000000
7520240801202408311220          7326909014328601-SELO COLETOR ADMISSAO                       PC    000000000000000000000000000
7520240801202408311221          85111000TR6B10-VELA IGNICAO                                  PC    000000000000000000000000000
7520240801202408311222          87089100CR2571000S-RADIADOR AGUA                             PC    000000000000000000000000000
7520240801202408311223          400931008503211-MANGUEIRA                                    PC    000000000000000000000000000
7520240801202408311224          84213990CU21003-FILTRO ANTI POLEM                            PC    000000000000000000000000000
7520240801202408311225          8484900079532-JUNTA CABECOTE SUPERIOR                        JG    000000000000000000000000000
7520240801202408311226          84879000R926612V-RETENTOR VIRABREQUIM - POLIA                PC    000000000000000000000000000
7520240801202408311227          401699900221840-COXIM AMORTECEDOR                            PC    000000000000000000000000000
7520240801202408311228          40093100197055-MANGUEIRA INFERIOR RADIADOR                   PC    000000000000000000000000000
7520240801202408311229          4016930075960-JUNTA TAMPA VALVULA                            PC    000000000000000000000000000
7520240801202408311230          841330901K6955651-ELETROBOMBA                                PC    000000000000000000000000000
7520240801202408311231          84219999C2329-FILTRO AR                                      PC    000000000000000000000000000
7520240801202408311232          84213990CU20040-FILTRO ANTI POLEM                            PC    000000000000000000000000000
7520240801202408311233          870899902045039P01-BUCHA BARRA ESTABILIZADORA                PC    000000000000000000000000000
7520240801202408311234          401031005PK1137-CORREIA                                      PC    000000000000000000000000000
7520240801202408311235          84219999HLP7710-FILTRO AR                                    PC    000000000000000000000000000
7520240801202408311236          848180219675916080-CARCACA VALVULA TERMOSTATICA              PC    000000000000000000000000000
7520240801202408311237          40103500CT1067-CORREIA DISTRIBUICAO                          PC    000000000000000000000000000
7520240801202408311238          4016930004247BRGF-RETENTOR COMANDO VALVULAS                  PC    000000000000000000000000000
7520240801202408311239          841330907000752004-BOMBA DAGUA                               PC    000000000000000000000000000
7520240801202408311240          84219999WEOC004-FILTRO CAMBIO AUTOMATICO                     PC    000000000000000000000000000
7520240801202408311241          84835090NY7784-TENSIONADOR DIRECAO HIDRAULICA                PC    000000000000000000000000000
