10336213140001600034450680073 CRISTINA ISABEL DE CAMPOS          Belo Horizonte                MG31999760132024070120240731331
11Rua Caconde                       00875                      Renascença     31130510VINICIUS MURTA NERY         031934225098
5000005023719600ISENTO        20240701MG551  0002605405P000000002120000000000000000000000000000000000000000000000000212000000N
5000029179122604ISENTO        20240705MG551  0002635405P000000002240000000000000000000000000000000000000000000000000404000000N
5000004481778628ISENTO        20240711MG551  0002685405P000000006180000000000000000000000000000000000000000000000001632000000N
5000025436953620ISENTO        20240701MG551  0002615405P000000002460000000000000000000000000000000000000000000000000693000000N
5000015613569649ISENTO        20240701MG551  0002625405P000000001850000000000000000000000000000000000000000000000000462000000N
5000014014050610ISENTO        20240705MG551  0002645405P000000005510000000000000000000000000000000000000000000000001251000000N
5000007441423694ISENTO        20240719MG551  0002745656P000000001680000000000000000000000000000000000000000000000000168000000N
5000007441423694ISENTO        20240719MG551  0002745405P000000001020000000000000000000000000000000000000000000000000246000000N
5000054123038620ISENTO        20240720MG551  0002755656P000000001470000000000000000000000000000000000000000000000000147000000N
5000054123038620ISENTO        20240720MG551  0002755405P000000001020000000000000000000000000000000000000000000000000204000000N
5000011174915609ISENTO        20240705MG551  0002655405P000000004660000000000000000000000000000000000000000000000000606000000N
5000007753430645ISENTO        20240711MG551  0002695405P000000003180000000000000000000000000000000000000000000000000318000000N
5000083866086687ISENTO        20240705MG551  0002665656P000000001470000000000000000000000000000000000000000000000000147000000N
5000083866086687ISENTO        20240705MG551  0002665405P000000000780000000000000000000000000000000000000000000000000112000000N
5000005500533606ISENTO        20240705MG551  0002675405P000000002410000000000000000000000000000000000000000000000000856000000N
5000003628527660ISENTO        20240711MG551  0002705405P000000006080000000000000000000000000000000000000000000000001842000000N
5000087958171668ISENTO        20240731MG551  0003085405P000000004400000000000000000000000000000000000000000000000001108000000N
5000004461026604ISENTO        20240725MG551  0002865405P000000000470000000000000000000000000000000000000000000000000072000000N
5000004461026604ISENTO        20240725MG551  0002865102P000000000060000000000000000000000000000000000000000000000000006000000N
5000052369692634ISENTO        20240724MG551  0002845405P000000002320000000000000000000000000000000000000000000000000640000000N
5000060286490668ISENTO        20240711MG551  0002715405P000000002980000000000000000000000000000000000000000000000000298000000N
5000060286490668ISENTO        20240711MG551  0002715656P000000000220000000000000000000000000000000000000000000000000022000000N
5000024324299668ISENTO        20240723MG551  0002805656P000000001470000000000000000000000000000000000000000000000000147000000N
5000024324299668ISENTO        20240723MG551  0002805405P000000005790000000000000000000000000000000000000000000000002002000000N
5000056043481634ISENTO        20240711MG551  0002725656P000000002100000000000000000000000000000000000000000000000000210000000N
5000056043481634ISENTO        20240711MG551  0002725405P000000001100000000000000000000000000000000000000000000000000156000000N
5000009845685650ISENTO        20240711MG551  0002735405P000000005280000000000000000000000000000000000000000000000002143000000N
5000009845685650ISENTO        20240711MG551  0002735656P000000001470000000000000000000000000000000000000000000000000147000000N
5000006806489680ISENTO        20240726MG551  0002925405P000000003850000000000000000000000000000000000000000000000001330000000N
5000006806489680ISENTO        20240726MG551  0002925656P000000001760000000000000000000000000000000000000000000000000176000000N
5000006806489680ISENTO        20240726MG551  0002925102P000000000050000000000000000000000000000000000000000000000000005000000N
5000006513144612ISENTO        20240724MG551  0002855656P000000001470000000000000000000000000000000000000000000000000147000000N
5000006513144612ISENTO        20240724MG551  0002855405P000000000780000000000000000000000000000000000000000000000000110000000N
5065139743000192ISENTO        20240722MG551  0002765405P000000024790000000000000000000000000000000000000000000000008089000000N
5065139743000192ISENTO        20240722MG551  0002765656P000000001980000000000000000000000000000000000000000000000000198000000N
5065139743000192ISENTO        20240722MG551  0002765102P000000000160000000000000000000000000000000000000000000000000016000000N
5000005307439652ISENTO        20240723MG551  0002815405P000000001840000000000000000000000000000000000000000000000000489000000N
5000005307439652ISENTO        20240723MG551  0002815102P000000000040000000000000000000000000000000000000000000000000004000000N
5000054919428634ISENTO        20240723MG551  0002825405P000000004790000000000000000000000000000000000000000000000002040000000N
5000004335088680ISENTO        20240722MG551  0002775656P000000001260000000000000000000000000000000000000000000000000126000000N
5000000123362628ISENTO        20240722MG551  0002785405P000000000320000000000000000000000000000000000000000000000000032000000N
5000001340790602ISENTO        20240730MG551  0002965656P000000001320000000000000000000000000000000000000000000000000132000000N
5000001340790602ISENTO        20240730MG551  0002965405P000000000250000000000000000000000000000000000000000000000000025000000N
5000031699677620ISENTO        20240723MG551  0002835405P000000001450000000000000000000000000000000000000000000000000265000000N
5000031699677620ISENTO        20240723MG551  0002835102P000000000060000000000000000000000000000000000000000000000000006000000N
5000008739286606ISENTO        20240722MG551  0002795405P000000009090000000000000000000000000000000000000000000000004510000000N
5000009103378616ISENTO        20240725MG551  0002875405P000000007620000000000000000000000000000000000000000000000003556000000N
5000009103378616ISENTO        20240725MG551  0002875102P000000000160000000000000000000000000000000000000000000000000016000000N
5000003057790607ISENTO        20240726MG551  0002935405P000000003950000000000000000000000000000000000000000000000001134000000N
5000000123362628ISENTO        20240725MG551  0002885405P000000001550000000000000000000000000000000000000000000000000354000000N
5000011818958635ISENTO        20240730MG551  0002975405P000000000780000000000000000000000000000000000000000000000000112000000N
5000005500533606ISENTO        20240726MG551  0002945405P000000003560000000000000000000000000000000000000000000000001005000000N
5000051826127887ISENTO        20240731MG551  0003095405P000000011680000000000000000000000000000000000000000000000007577000000N
5000051826127887ISENTO        20240731MG551  0003095102P000000000040000000000000000000000000000000000000000000000000004000000N
5000064536637672ISENTO        20240725MG551  0002895656P000000001260000000000000000000000000000000000000000000000000126000000N
5000064536637672ISENTO        20240725MG551  0002895405P000000001080000000000000000000000000000000000000000000000000171000000N
5000064536637672ISENTO        20240725MG551  0002895102P000000000060000000000000000000000000000000000000000000000000006000000N
5000002445879655ISENTO        20240725MG551  0002905405P000000001850000000000000000000000000000000000000000000000000345000000N
5000002445879655ISENTO        20240725MG551  0002905102P000000000160000000000000000000000000000000000000000000000000016000000N
5000011174915609ISENTO        20240726MG551  0002955405P000000002690000000000000000000000000000000000000000000000000649000000N
5000010159694612ISENTO        20240725MG551  0002915102P000000000160000000000000000000000000000000000000000000000000016000000N
5000001185162640ISENTO        20240730MG551  0002985656P000000001260000000000000000000000000000000000000000000000000126000000N
5000001185162640ISENTO        20240730MG551  0002985405P000000000860000000000000000000000000000000000000000000000000118000000N
5000001185162640ISENTO        20240730MG551  0002985102P000000000040000000000000000000000000000000000000000000000000004000000N
5000005253169652ISENTO        20240730MG551  0002995656P000000001260000000000000000000000000000000000000000000000000126000000N
5000005253169652ISENTO        20240730MG551  0002995405P000000000590000000000000000000000000000000000000000000000000084000000N
5000006329909610ISENTO        20240730MG551  0003005405P000000008550000000000000000000000000000000000000000000000001644000000N
5000005035697630ISENTO        20240731MG551  0003105405P000000005290000000000000000000000000000000000000000000000002379000000N
5000012555905642ISENTO        20240730MG551  0003015405P000000004060000000000000000000000000000000000000000000000001500000000N
5000044069480668ISENTO        20240730MG551  0003025405P000000002200000000000000000000000000000000000000000000000000220000000N
5000020582200644ISENTO        20240731MG551  0003115405P000000008930000000000000000000000000000000000000000000000003827000000N
5000008264063608ISENTO        20240730MG551  0003035405P000000001120000000000000000000000000000000000000000000000000226000000N
5000008264063608ISENTO        20240730MG551  0003035656P000000001470000000000000000000000000000000000000000000000000147000000N
5000003773823614ISENTO        20240730MG551  0003045656P000000001680000000000000000000000000000000000000000000000000168000000N
5000003773823614ISENTO        20240730MG551  0003045405P000000000710000000000000000000000000000000000000000000000000096000000N
5000005023719600ISENTO        20240731MG551  0003125405P000000002350000000000000000000000000000000000000000000000000621000000N
5000005023719600ISENTO        20240731MG551  0003125102P000000000050000000000000000000000000000000000000000000000000005000000N
5000019558074691ISENTO        20240730MG551  0003055405P000000003240000000000000000000000000000000000000000000000001216000000N
5000019558074691ISENTO        20240730MG551  0003055656P000000001320000000000000000000000000000000000000000000000000132000000N
5000001454990651ISENTO        20240731MG551  0003135405P000000001300000000000000000000000000000000000000000000000000155000000N
5000001454990651ISENTO        20240731MG551  0003135102P000000002150000000000000000000000000000000000000000000000000215000000N
5000019558074691ISENTO        20240730MG551  0003065405P000000002620000000000000000000000000000000000000000000000000644000000N
5000055024491653ISENTO        20240730MG551  0003075656P000000001760000000000000000000000000000000000000000000000000176000000N
5000055024491653ISENTO        20240730MG551  0003075405P000000009870000000000000000000000000000000000000000000000001814000000N
5000037929500659ISENTO        20240731MG551  0003145405P000000008780000000000000000000000000000000000000000000000003377000000N
5000008304283646ISENTO        20240731MG551  0003155656P000000001470000000000000000000000000000000000000000000000000147000000N
5000008304283646ISENTO        20240731MG551  0003155405P000000001290000000000000000000000000000000000000000000000000261000000N
5000039902099653ISENTO        20240731MG551  0003165405P000000002390000000000000000000000000000000000000000000000000600000000N
5000050736175687ISENTO        20240731MG551  0003175405P000000001640000000000000000000000000000000000000000000000000403000000N
5000004485067696ISENTO        20240731MG551  0003185405P000000002070000000000000000000000000000000000000000000000000508000000N
5000004485067696ISENTO        20240731MG551  0003185102P000000000160000000000000000000000000000000000000000000000000016000000N
5000002797964632ISENTO        20240731MG551  0003195405P000000018430000000000000000000000000000000000000000000000013398000000N
5000008595372187ISENTO        20240731MG551  0003205405P000000001590000000000000000000000000000000000000000000000000159000000N
5000008760208643ISENTO        20240731MG551  0003215405P000000008980000000000000000000000000000000000000000000000000898000000N
5000005371679600ISENTO        20240731MG551  0003225405P000000001940000000000000000000000000000000000000000000000000513000000N
5000005371679600ISENTO        20240731MG551  0003225102P000000000050000000000000000000000000000000000000000000000000005000000N
5000093381131672ISENTO        20240731MG551  0003235405P000000000250000000000000000000000000000000000000000000000000025000000N
5000093381131672ISENTO        20240731MG551  0003235102P000000000050000000000000000000000000000000000000000000000000005000000N
5000090122836634ISENTO        20240731MG551  0003245405P000000002350000000000000000000000000000000000000000000000000612000000N
5000090122836634ISENTO        20240731MG551  0003245102P000000000050000000000000000000000000000000000000000000000000005000000N
5000008052534674ISENTO        20240731MG551  0003255405P000000016750000000000000000000000000000000000000000000000006988000000N
5000007074165662ISENTO        20240731MG551  0003265405P000000010670000000000000000000000000000000000000000000000003178000000N
5000090981138691ISENTO        20240731MG551  0003275405P000000001520000000000000000000000000000000000000000000000000152000000N
5000066352827691ISENTO        20240731MG551  0003285405P000000001980000000000000000000000000000000000000000000000000198000000N
50215322700001130624775200061 20240710MG551  0092571403T000000041325800000000000000000000000000000000000000000000000000000000N
50215322700001130624775200061 20240717MG551  0093001403T000000061914000000000000000000000000000000000000000000000000000000000N
50215322700001130624775200061 20240705MG551  0092241403T000000047889600000000000000000000000000000000000000000000000000000000N
50215322700001130624775200061 20240724MG551  0093561403T000000035410400000000000000000000000000000000000000000000000000000000N
50522037640001880047160040031 20240722MG551  0004041403T000000001619700000000000000000000000000000000000000000000000161970000N
50522037640001880047160040031 20240722MG551  0004041102T000000002689400000000000000000000000000000000000000000000000435910000N
50522037640001880047160040031 20240722MG551  0004045655T000000007109600000000000000000000000000000000000000000000000710960000N
50215322700001130624775200061 20240731MG551  0094151403T000000036175600000000000000000000000000000000000000000000000000000000N
5100005023719600ISENTO        20240701MG1  00026054050000000000000000000000000000000000000000000000000000                    N
5100025436953620ISENTO        20240701MG1  00026154050000000000000000000000000000000000000000000000000000                    N
5100015613569649ISENTO        20240701MG1  00026254050000000000000000000000000000000000000000000000000000                    N
51215322700001130624775200061 20240705MG1  00922414030000000000000000000000000000000000000000000000000000                    N
5100029179122604ISENTO        20240705MG1  00026354050000000000000000000000000000000000000000000000000000                    N
5100014014050610ISENTO        20240705MG1  00026454050000000000000000000000000000000000000000000000000000                    N
5100011174915609ISENTO        20240705MG1  00026554050000000000000000000000000000000000000000000000000000                    N
5100083866086687ISENTO        20240705MG1  00026654050000000000000000000000000000000000000000000000000000                    N
5100083866086687ISENTO        20240705MG1  00026656560000000000000000000000000000000000000000000000000000                    N
5100005500533606ISENTO        20240705MG1  00026754050000000000000000000000000000000000000000000000000000                    N
51215322700001130624775200061 20240710MG1  00925714030000000000000000000000000000000000000000000000000000                    N
5100004481778628ISENTO        20240711MG1  00026854050000000000000000000000000000000000000000000000000000                    N
5100007753430645ISENTO        20240711MG1  00026954050000000000000000000000000000000000000000000000000000                    N
5100003628527660ISENTO        20240711MG1  00027054050000000000000000000000000000000000000000000000000000                    N
5100060286490668ISENTO        20240711MG1  00027154050000000000000000000000000000000000000000000000000000                    N
5100060286490668ISENTO        20240711MG1  00027156560000000000000000000000000000000000000000000000000000                    N
5100056043481634ISENTO        20240711MG1  00027256560000000000000000000000000000000000000000000000000000                    N
5100056043481634ISENTO        20240711MG1  00027254050000000000000000000000000000000000000000000000000000                    N
5100009845685650ISENTO        20240711MG1  00027354050000000000000000000000000000000000000000000000000000                    N
5100009845685650ISENTO        20240711MG1  00027356560000000000000000000000000000000000000000000000000000                    N
51215322700001130624775200061 20240717MG1  00930014030000000000000000000000000000000000000000000000000000                    N
5100007441423694ISENTO        20240719MG1  00027454050000000000000000000000000000000000000000000000000000                    N
5100007441423694ISENTO        20240719MG1  00027456560000000000000000000000000000000000000000000000000000                    N
5100054123038620ISENTO        20240720MG1  00027556560000000000000000000000000000000000000000000000000000                    N
5100054123038620ISENTO        20240720MG1  00027554050000000000000000000000000000000000000000000000000000                    N
51522037640001880047160040031 20240722MG1  00040411020000000000000000000000000000000000000000000000000000                    N
51522037640001880047160040031 20240722MG1  00040414030000000000000000000000000000000000000000000000000000                    N
51522037640001880047160040031 20240722MG1  00040456550000000000000000000000000000000000000000000000000000                    N
5165139743000192ISENTO        20240722MG1  00027654050000000000000000000000000000000000000000000000000000                    N
5165139743000192ISENTO        20240722MG1  00027656560000000000000000000000000000000000000000000000000000                    N
5165139743000192ISENTO        20240722MG1  00027651020000000000000000000000000000000000000000000000000000                    N
5100004335088680ISENTO        20240722MG1  00027756560000000000000000000000000000000000000000000000000000                    N
5100000123362628ISENTO        20240722MG1  00027854050000000000000000000000000000000000000000000000000000                    N
5100008739286606ISENTO        20240722MG1  00027954050000000000000000000000000000000000000000000000000000                    N
5100024324299668ISENTO        20240723MG1  00028054050000000000000000000000000000000000000000000000000000                    N
5100024324299668ISENTO        20240723MG1  00028056560000000000000000000000000000000000000000000000000000                    N
5100005307439652ISENTO        20240723MG1  00028151020000000000000000000000000000000000000000000000000000                    N
5100005307439652ISENTO        20240723MG1  00028154050000000000000000000000000000000000000000000000000000                    N
5100054919428634ISENTO        20240723MG1  00028254050000000000000000000000000000000000000000000000000000                    N
5100031699677620ISENTO        20240723MG1  00028351020000000000000000000000000000000000000000000000000000                    N
5100031699677620ISENTO        20240723MG1  00028354050000000000000000000000000000000000000000000000000000                    N
51215322700001130624775200061 20240724MG1  00935614030000000000000000000000000000000000000000000000000000                    N
5100052369692634ISENTO        20240724MG1  00028454050000000000000000000000000000000000000000000000000000                    N
5100006513144612ISENTO        20240724MG1  00028554050000000000000000000000000000000000000000000000000000                    N
5100006513144612ISENTO        20240724MG1  00028556560000000000000000000000000000000000000000000000000000                    N
5100004461026604ISENTO        20240725MG1  00028654050000000000000000000000000000000000000000000000000000                    N
5100004461026604ISENTO        20240725MG1  00028651020000000000000000000000000000000000000000000000000000                    N
5100009103378616ISENTO        20240725MG1  00028751020000000000000000000000000000000000000000000000000000                    N
5100009103378616ISENTO        20240725MG1  00028754050000000000000000000000000000000000000000000000000000                    N
5100000123362628ISENTO        20240725MG1  00028854050000000000000000000000000000000000000000000000000000                    N
5100064536637672ISENTO        20240725MG1  00028956560000000000000000000000000000000000000000000000000000                    N
5100064536637672ISENTO        20240725MG1  00028954050000000000000000000000000000000000000000000000000000                    N
5100064536637672ISENTO        20240725MG1  00028951020000000000000000000000000000000000000000000000000000                    N
5100002445879655ISENTO        20240725MG1  00029054050000000000000000000000000000000000000000000000000000                    N
5100002445879655ISENTO        20240725MG1  00029051020000000000000000000000000000000000000000000000000000                    N
5100010159694612ISENTO        20240725MG1  00029151020000000000000000000000000000000000000000000000000000                    N
5100006806489680ISENTO        20240726MG1  00029251020000000000000000000000000000000000000000000000000000                    N
5100006806489680ISENTO        20240726MG1  00029254050000000000000000000000000000000000000000000000000000                    N
5100006806489680ISENTO        20240726MG1  00029256560000000000000000000000000000000000000000000000000000                    N
5100003057790607ISENTO        20240726MG1  00029354050000000000000000000000000000000000000000000000000000                    N
5100005500533606ISENTO        20240726MG1  00029454050000000000000000000000000000000000000000000000000000                    N
5100011174915609ISENTO        20240726MG1  00029554050000000000000000000000000000000000000000000000000000                    N
5100001340790602ISENTO        20240730MG1  00029656560000000000000000000000000000000000000000000000000000                    N
5100001340790602ISENTO        20240730MG1  00029654050000000000000000000000000000000000000000000000000000                    N
5100011818958635ISENTO        20240730MG1  00029754050000000000000000000000000000000000000000000000000000                    N
5100001185162640ISENTO        20240730MG1  00029856560000000000000000000000000000000000000000000000000000                    N
5100001185162640ISENTO        20240730MG1  00029854050000000000000000000000000000000000000000000000000000                    N
5100001185162640ISENTO        20240730MG1  00029851020000000000000000000000000000000000000000000000000000                    N
5100005253169652ISENTO        20240730MG1  00029956560000000000000000000000000000000000000000000000000000                    N
5100005253169652ISENTO        20240730MG1  00029954050000000000000000000000000000000000000000000000000000                    N
5100006329909610ISENTO        20240730MG1  00030054050000000000000000000000000000000000000000000000000000                    N
5100012555905642ISENTO        20240730MG1  00030154050000000000000000000000000000000000000000000000000000                    N
5100044069480668ISENTO        20240730MG1  00030254050000000000000000000000000000000000000000000000000000                    N
5100008264063608ISENTO        20240730MG1  00030356560000000000000000000000000000000000000000000000000000                    N
5100008264063608ISENTO        20240730MG1  00030354050000000000000000000000000000000000000000000000000000                    N
5100003773823614ISENTO        20240730MG1  00030456560000000000000000000000000000000000000000000000000000                    N
5100003773823614ISENTO        20240730MG1  00030454050000000000000000000000000000000000000000000000000000                    N
5100019558074691ISENTO        20240730MG1  00030556560000000000000000000000000000000000000000000000000000                    N
5100019558074691ISENTO        20240730MG1  00030554050000000000000000000000000000000000000000000000000000                    N
5100019558074691ISENTO        20240730MG1  00030654050000000000000000000000000000000000000000000000000000                    N
5100055024491653ISENTO        20240730MG1  00030756560000000000000000000000000000000000000000000000000000                    N
5100055024491653ISENTO        20240730MG1  00030754050000000000000000000000000000000000000000000000000000                    N
51215322700001130624775200061 20240731MG1  00941514030000000000000000000000000000000000000000000000000000                    N
5100087958171668ISENTO        20240731MG1  00030854050000000000000000000000000000000000000000000000000000                    N
5100051826127887ISENTO        20240731MG1  00030951020000000000000000000000000000000000000000000000000000                    N
5100051826127887ISENTO        20240731MG1  00030954050000000000000000000000000000000000000000000000000000                    N
5100005035697630ISENTO        20240731MG1  00031054050000000000000000000000000000000000000000000000000000                    N
5100020582200644ISENTO        20240731MG1  00031154050000000000000000000000000000000000000000000000000000                    N
5100005023719600ISENTO        20240731MG1  00031251020000000000000000000000000000000000000000000000000000                    N
5100005023719600ISENTO        20240731MG1  00031254050000000000000000000000000000000000000000000000000000                    N
5100001454990651ISENTO        20240731MG1  00031351020000000000000000000000000000000000000000000000000000                    N
5100001454990651ISENTO        20240731MG1  00031354050000000000000000000000000000000000000000000000000000                    N
5100037929500659ISENTO        20240731MG1  00031454050000000000000000000000000000000000000000000000000000                    N
5100008304283646ISENTO        20240731MG1  00031554050000000000000000000000000000000000000000000000000000                    N
5100008304283646ISENTO        20240731MG1  00031556560000000000000000000000000000000000000000000000000000                    N
5100039902099653ISENTO        20240731MG1  00031654050000000000000000000000000000000000000000000000000000                    N
5100050736175687ISENTO        20240731MG1  00031754050000000000000000000000000000000000000000000000000000                    N
5100004485067696ISENTO        20240731MG1  00031854050000000000000000000000000000000000000000000000000000                    N
5100004485067696ISENTO        20240731MG1  00031851020000000000000000000000000000000000000000000000000000                    N
5100002797964632ISENTO        20240731MG1  00031954050000000000000000000000000000000000000000000000000000                    N
5100008595372187ISENTO        20240731MG1  00032054050000000000000000000000000000000000000000000000000000                    N
5100008760208643ISENTO        20240731MG1  00032154050000000000000000000000000000000000000000000000000000                    N
5100005371679600ISENTO        20240731MG1  00032254050000000000000000000000000000000000000000000000000000                    N
5100005371679600ISENTO        20240731MG1  00032251020000000000000000000000000000000000000000000000000000                    N
5100093381131672ISENTO        20240731MG1  00032351020000000000000000000000000000000000000000000000000000                    N
5100093381131672ISENTO        20240731MG1  00032354050000000000000000000000000000000000000000000000000000                    N
5100090122836634ISENTO        20240731MG1  00032451020000000000000000000000000000000000000000000000000000                    N
5100090122836634ISENTO        20240731MG1  00032454050000000000000000000000000000000000000000000000000000                    N
5100008052534674ISENTO        20240731MG1  00032554050000000000000000000000000000000000000000000000000000                    N
5100007074165662ISENTO        20240731MG1  00032654050000000000000000000000000000000000000000000000000000                    N
5100090981138691ISENTO        20240731MG1  00032754050000000000000000000000000000000000000000000000000000                    N
5100066352827691ISENTO        20240731MG1  00032854050000000000000000000000000000000000000000000000000000                    N
5300005023719600ISENTO        20240701MG551  0002605405P000000000000000000000000000000000000000N                              
5300029179122604ISENTO        20240705MG551  0002635405P000000000000000000000000000000000000000N                              
5300004481778628ISENTO        20240711MG551  0002685405P000000000000000000000000000000000000000N                              
5300025436953620ISENTO        20240701MG551  0002615405P000000000000000000000000000000000000000N                              
5300015613569649ISENTO        20240701MG551  0002625405P000000000000000000000000000000000000000N                              
5300014014050610ISENTO        20240705MG551  0002645405P000000000000000000000000000000000000000N                              
5300007441423694ISENTO        20240719MG551  0002745656P000000000000000000000000000000000000000N                              
5300007441423694ISENTO        20240719MG551  0002745405P000000000000000000000000000000000000000N                              
5300054123038620ISENTO        20240720MG551  0002755656P000000000000000000000000000000000000000N                              
5300054123038620ISENTO        20240720MG551  0002755405P000000000000000000000000000000000000000N                              
5300011174915609ISENTO        20240705MG551  0002655405P000000000000000000000000000000000000000N                              
5300007753430645ISENTO        20240711MG551  0002695405P000000000000000000000000000000000000000N                              
5300083866086687ISENTO        20240705MG551  0002665656P000000000000000000000000000000000000000N                              
5300083866086687ISENTO        20240705MG551  0002665405P000000000000000000000000000000000000000N                              
5300005500533606ISENTO        20240705MG551  0002675405P000000000000000000000000000000000000000N                              
5300003628527660ISENTO        20240711MG551  0002705405P000000000000000000000000000000000000000N                              
5300087958171668ISENTO        20240731MG551  0003085405P000000000000000000000000000000000000000N                              
5300004461026604ISENTO        20240725MG551  0002865405P000000000000000000000000000000000000000N                              
5300004461026604ISENTO        20240725MG551  0002865102P000000000000000000000000000000000000000N                              
5300052369692634ISENTO        20240724MG551  0002845405P000000000000000000000000000000000000000N                              
5300060286490668ISENTO        20240711MG551  0002715405P000000000000000000000000000000000000000N                              
5300060286490668ISENTO        20240711MG551  0002715656P000000000000000000000000000000000000000N                              
5300024324299668ISENTO        20240723MG551  0002805656P000000000000000000000000000000000000000N                              
5300024324299668ISENTO        20240723MG551  0002805405P000000000000000000000000000000000000000N                              
5300056043481634ISENTO        20240711MG551  0002725656P000000000000000000000000000000000000000N                              
5300056043481634ISENTO        20240711MG551  0002725405P000000000000000000000000000000000000000N                              
5300009845685650ISENTO        20240711MG551  0002735405P000000000000000000000000000000000000000N                              
5300009845685650ISENTO        20240711MG551  0002735656P000000000000000000000000000000000000000N                              
5300006806489680ISENTO        20240726MG551  0002925405P000000000000000000000000000000000000000N                              
5300006806489680ISENTO        20240726MG551  0002925656P000000000000000000000000000000000000000N                              
5300006806489680ISENTO        20240726MG551  0002925102P000000000000000000000000000000000000000N                              
5300006513144612ISENTO        20240724MG551  0002855656P000000000000000000000000000000000000000N                              
5300006513144612ISENTO        20240724MG551  0002855405P000000000000000000000000000000000000000N                              
5365139743000192ISENTO        20240722MG551  0002765405P000000000000000000000000000000000000000N                              
5365139743000192ISENTO        20240722MG551  0002765656P000000000000000000000000000000000000000N                              
5365139743000192ISENTO        20240722MG551  0002765102P000000000000000000000000000000000000000N                              
5300005307439652ISENTO        20240723MG551  0002815405P000000000000000000000000000000000000000N                              
5300005307439652ISENTO        20240723MG551  0002815102P000000000000000000000000000000000000000N                              
5300054919428634ISENTO        20240723MG551  0002825405P000000000000000000000000000000000000000N                              
5300004335088680ISENTO        20240722MG551  0002775656P000000000000000000000000000000000000000N                              
5300000123362628ISENTO        20240722MG551  0002785405P000000000000000000000000000000000000000N                              
5300001340790602ISENTO        20240730MG551  0002965656P000000000000000000000000000000000000000N                              
5300001340790602ISENTO        20240730MG551  0002965405P000000000000000000000000000000000000000N                              
5300031699677620ISENTO        20240723MG551  0002835405P000000000000000000000000000000000000000N                              
5300031699677620ISENTO        20240723MG551  0002835102P000000000000000000000000000000000000000N                              
5300008739286606ISENTO        20240722MG551  0002795405P000000000000000000000000000000000000000N                              
5300009103378616ISENTO        20240725MG551  0002875405P000000000000000000000000000000000000000N                              
5300009103378616ISENTO        20240725MG551  0002875102P000000000000000000000000000000000000000N                              
5300003057790607ISENTO        20240726MG551  0002935405P000000000000000000000000000000000000000N                              
5300000123362628ISENTO        20240725MG551  0002885405P000000000000000000000000000000000000000N                              
5300011818958635ISENTO        20240730MG551  0002975405P000000000000000000000000000000000000000N                              
5300005500533606ISENTO        20240726MG551  0002945405P000000000000000000000000000000000000000N                              
5300051826127887ISENTO        20240731MG551  0003095405P000000000000000000000000000000000000000N                              
5300051826127887ISENTO        20240731MG551  0003095102P000000000000000000000000000000000000000N                              
5300064536637672ISENTO        20240725MG551  0002895656P000000000000000000000000000000000000000N                              
5300064536637672ISENTO        20240725MG551  0002895405P000000000000000000000000000000000000000N                              
5300064536637672ISENTO        20240725MG551  0002895102P000000000000000000000000000000000000000N                              
5300002445879655ISENTO        20240725MG551  0002905405P000000000000000000000000000000000000000N                              
5300002445879655ISENTO        20240725MG551  0002905102P000000000000000000000000000000000000000N                              
5300011174915609ISENTO        20240726MG551  0002955405P000000000000000000000000000000000000000N                              
5300010159694612ISENTO        20240725MG551  0002915102P000000000000000000000000000000000000000N                              
5300001185162640ISENTO        20240730MG551  0002985656P000000000000000000000000000000000000000N                              
5300001185162640ISENTO        20240730MG551  0002985405P000000000000000000000000000000000000000N                              
5300001185162640ISENTO        20240730MG551  0002985102P000000000000000000000000000000000000000N                              
5300005253169652ISENTO        20240730MG551  0002995656P000000000000000000000000000000000000000N                              
5300005253169652ISENTO        20240730MG551  0002995405P000000000000000000000000000000000000000N                              
5300006329909610ISENTO        20240730MG551  0003005405P000000000000000000000000000000000000000N                              
5300005035697630ISENTO        20240731MG551  0003105405P000000000000000000000000000000000000000N                              
5300012555905642ISENTO        20240730MG551  0003015405P000000000000000000000000000000000000000N                              
5300044069480668ISENTO        20240730MG551  0003025405P000000000000000000000000000000000000000N                              
5300020582200644ISENTO        20240731MG551  0003115405P000000000000000000000000000000000000000N                              
5300008264063608ISENTO        20240730MG551  0003035405P000000000000000000000000000000000000000N                              
5300008264063608ISENTO        20240730MG551  0003035656P000000000000000000000000000000000000000N                              
5300003773823614ISENTO        20240730MG551  0003045656P000000000000000000000000000000000000000N                              
5300003773823614ISENTO        20240730MG551  0003045405P000000000000000000000000000000000000000N                              
5300005023719600ISENTO        20240731MG551  0003125405P000000000000000000000000000000000000000N                              
5300005023719600ISENTO        20240731MG551  0003125102P000000000000000000000000000000000000000N                              
5300019558074691ISENTO        20240730MG551  0003055405P000000000000000000000000000000000000000N                              
5300019558074691ISENTO        20240730MG551  0003055656P000000000000000000000000000000000000000N                              
5300001454990651ISENTO        20240731MG551  0003135405P000000000000000000000000000000000000000N                              
5300001454990651ISENTO        20240731MG551  0003135102P000000000000000000000000000000000000000N                              
5300019558074691ISENTO        20240730MG551  0003065405P000000000000000000000000000000000000000N                              
5300055024491653ISENTO        20240730MG551  0003075656P000000000000000000000000000000000000000N                              
5300055024491653ISENTO        20240730MG551  0003075405P000000000000000000000000000000000000000N                              
5300037929500659ISENTO        20240731MG551  0003145405P000000000000000000000000000000000000000N                              
5300008304283646ISENTO        20240731MG551  0003155656P000000000000000000000000000000000000000N                              
5300008304283646ISENTO        20240731MG551  0003155405P000000000000000000000000000000000000000N                              
5300039902099653ISENTO        20240731MG551  0003165405P000000000000000000000000000000000000000N                              
5300050736175687ISENTO        20240731MG551  0003175405P000000000000000000000000000000000000000N                              
5300004485067696ISENTO        20240731MG551  0003185405P000000000000000000000000000000000000000N                              
5300004485067696ISENTO        20240731MG551  0003185102P000000000000000000000000000000000000000N                              
5300002797964632ISENTO        20240731MG551  0003195405P000000000000000000000000000000000000000N                              
5300008595372187ISENTO        20240731MG551  0003205405P000000000000000000000000000000000000000N                              
5300008760208643ISENTO        20240731MG551  0003215405P000000000000000000000000000000000000000N                              
5300005371679600ISENTO        20240731MG551  0003225405P000000000000000000000000000000000000000N                              
5300005371679600ISENTO        20240731MG551  0003225102P000000000000000000000000000000000000000N                              
5300093381131672ISENTO        20240731MG551  0003235405P000000000000000000000000000000000000000N                              
5300093381131672ISENTO        20240731MG551  0003235102P000000000000000000000000000000000000000N                              
5300090122836634ISENTO        20240731MG551  0003245405P000000000000000000000000000000000000000N                              
5300090122836634ISENTO        20240731MG551  0003245102P000000000000000000000000000000000000000N                              
5300008052534674ISENTO        20240731MG551  0003255405P000000000000000000000000000000000000000N                              
5300007074165662ISENTO        20240731MG551  0003265405P000000000000000000000000000000000000000N                              
5300090981138691ISENTO        20240731MG551  0003275405P000000000000000000000000000000000000000N                              
5300066352827691ISENTO        20240731MG551  0003285405P000000000000000000000000000000000000000N                              
53215322700001130624775200061 20240710MG551  0092571403T000000000000000000000000000000000000000N                              
53215322700001130624775200061 20240717MG551  0093001403T000000000000000000000000000000000000000N                              
53215322700001130624775200061 20240705MG551  0092241403T000000000000000000000000000000000000000N                              
53215322700001130624775200061 20240724MG551  0093561403T000000000000000000000000000000000000000N                              
53522037640001880047160040031 20240722MG551  0004041403T000000000000000000000000000000000000000N                              
53522037640001880047160040031 20240722MG551  0004041102T000000000000000000000000000000000000000N                              
53522037640001880047160040031 20240722MG551  0004045655T000000000000000000000000000000000000000N                              
53215322700001130624775200061 20240731MG551  0094151403T000000000000000000000000000000000000000N                              
5400000123362628551  0002785405500001961           000000010000000000032000000000000000000000000000000000000000000000000000000
5400000123362628551  0002885405500001971           000000010000000000086000000000000000000000000000000000000000000000000000000
5400000123362628551  0002885405500002644           000000010000000000027000000000000000000000000000000000000000000000000000000
5400000123362628551  0002885405500003790           000000010000000000042000000000000000000000000000000000000000000000000000000
5400001185162640551  0002985656500001887           000000030000000000126000000000000000000000000000000000000000000000000000000
5400001185162640551  0002985405500002745           000000010000000000032000000000000000000000000000000000000000000000000000000
5400001185162640551  0002985405500003746           000000010000000000054000000000000000000000000000000000000000000000000000000
5400001185162640551  0002985102102004972           000000010000000000004000000000000000000000000000000000000000000000000000000
5400001340790602551  0002965656500001886           000000030000000000132000000000000000000000000000000000000000000000000000000
5400001340790602551  0002965405500002882           000000010000000000025000000000000000000000000000000000000000000000000000000
5400001454990651551  00031354055000011026          000000010000000000025000000000000000000000000000000000000000000000000000000
5400001454990651551  0003135405500002744           000000010000000000105000000000000000000000000000000000000000000000000000000
5400001454990651551  00031351021020031194          000000010000000000215000000000000000000000000000000000000000000000000000000
5400002445879655551  0002905405500001916           000000040000000000160000000000000000000000000000000000000000000000000000000
5400002445879655551  0002905405500002882           000000010000000000025000000000000000000000000000000000000000000000000000000
5400002445879655551  0002905102102003972           000000010000000000016000000000000000000000000000000000000000000000000000000
5400002797964632551  00031954055000011164          000000010000000000082000000000000000000000000000000000000000000000000000000
5400002797964632551  00031954055000021121          000000010000000000169000000000000000000000000000000000000000000000000000000
5400002797964632551  00031954055000031116          000000020000000000268000000000000000000000000000000000000000000000000000000
5400002797964632551  0003195405500004509           000000020000000000068000000000000000000000000000000000000000000000000000000
5400002797964632551  00031954055000051126          000000010000000000136000000000000000000000000000000000000000000000000000000
5400002797964632551  00031954055000061118          000000010000000000059000000000000000000000000000000000000000000000000000000
5400002797964632551  00031954055000071123          000000010000000000056000000000000000000000000000000000000000000000000000000
5400002797964632551  00031954055000081124          000000020000000000088000000000000000000000000000000000000000000000000000000
5400002797964632551  00031954055000091119          000000020000000000684000000000000000000000000000000000000000000000000000000
5400002797964632551  00031954055000101122          000000010000000000031000000000000000000000000000000000000000000000000000000
5400002797964632551  0003195405500011916           000000035000000000140000000000000000000000000000000000000000000000000000000
5400002797964632551  00031954055000121026          000000010000000000034000000000000000000000000000000000000000000000000000000
5400002797964632551  0003195405500013781           000000010000000000028000000000000000000000000000000000000000000000000000000
5400003057790607551  0002935405500001789           000000010000000000172000000000000000000000000000000000000000000000000000000
5400003057790607551  0002935405500002812           000000010000000000042000000000000000000000000000000000000000000000000000000
5400003057790607551  0002935405500003649           000000010000000000139000000000000000000000000000000000000000000000000000000
5400003057790607551  0002935405500004790           000000010000000000042000000000000000000000000000000000000000000000000000000
5400003628527660551  0002705405500001855           000000040000000000176000000000000000000000000000000000000000000000000000000
5400003628527660551  0002705405500002929           000000010000000000034000000000000000000000000000000000000000000000000000000
5400003628527660551  0002705405500003882           000000010000000000025000000000000000000000000000000000000000000000000000000
5400003628527660551  0002705405500004972           000000010000000000004000000000000000000000000000000000000000000000000000000
5400003628527660551  0002705405500005696           000000010000000000135000000000000000000000000000000000000000000000000000000
5400003628527660551  0002705405500006865           000000020000000000234000000000000000000000000000000000000000000000000000000
5400003773823614551  0003045656500001887           000000040000000000168000000000000000000000000000000000000000000000000000000
5400003773823614551  0003045405500002882           000000010000000000025000000000000000000000000000000000000000000000000000000
5400003773823614551  0003045405500003655           000000010000000000046000000000000000000000000000000000000000000000000000000
5400004335088680551  0002775656500001887           000000030000000000126000000000000000000000000000000000000000000000000000000
5400004461026604551  0002865405500001882           000000010000000000025000000000000000000000000000000000000000000000000000000
5400004461026604551  0002865405500002736           000000010000000000022000000000000000000000000000000000000000000000000000000
5400004461026604551  0002865102102003972           000000010000000000006000000000000000000000000000000000000000000000000000000
5400004481778628551  0002685405500001915           000000035000000000147000000000000000000000000000000000000000000000000000000
5400004481778628551  0002685405500002745           000000010000000000034000000000000000000000000000000000000000000000000000000
5400004481778628551  0002685405500003693           000000010000000000059000000000000000000000000000000000000000000000000000000
5400004481778628551  0002685405500004658           000000010000000000206000000000000000000000000000000000000000000000000000000
5400004481778628551  0002685405500005858           000000020000000000172000000000000000000000000000000000000000000000000000000
5400004485067696551  0003185405500001915           000000030000000000126000000000000000000000000000000000000000000000000000000
5400004485067696551  0003185405500002655           000000010000000000049000000000000000000000000000000000000000000000000000000
5400004485067696551  0003185405500003745           000000010000000000032000000000000000000000000000000000000000000000000000000
5400004485067696551  0003185102102004972           000000010000000000016000000000000000000000000000000000000000000000000000000
5400005023719600551  0002605405500001750           000000010000000000212000000000000000000000000000000000000000000000000000000
5400005023719600551  0003125405500001855           000000040000000000176000000000000000000000000000000000000000000000000000000
5400005023719600551  00031254055000021000          000000010000000000034000000000000000000000000000000000000000000000000000000
5400005023719600551  00031254055000031026          000000010000000000025000000000000000000000000000000000000000000000000000000
5400005023719600551  0003125102102004972           000000010000000000005000000000000000000000000000000000000000000000000000000
5400005035697630551  00031054055000011026          000000010000000000025000000000000000000000000000000000000000000000000000000
5400005035697630551  00031054055000021156          000000020000000000198000000000000000000000000000000000000000000000000000000
5400005035697630551  00031054055000031162          000000010000000000066000000000000000000000000000000000000000000000000000000
5400005035697630551  00031054055000041158          000000020000000000098000000000000000000000000000000000000000000000000000000
5400005035697630551  00031054055000051159          000000020000000000058000000000000000000000000000000000000000000000000000000
5400005035697630551  00031054055000061157          000000010000000000036000000000000000000000000000000000000000000000000000000
5400005035697630551  00031054055000071160          000000040000000000048000000000000000000000000000000000000000000000000000000
5400005253169652551  0002995656500001887           000000030000000000126000000000000000000000000000000000000000000000000000000
5400005253169652551  0002995405500002882           000000010000000000025000000000000000000000000000000000000000000000000000000
5400005253169652551  0002995405500003655           000000010000000000034000000000000000000000000000000000000000000000000000000
5400005307439652551  0002815405500001916           000000035000000000140000000000000000000000000000000000000000000000000000000
5400005307439652551  0002815405500002882           000000010000000000025000000000000000000000000000000000000000000000000000000
5400005307439652551  0002815405500003736           000000010000000000019000000000000000000000000000000000000000000000000000000
5400005307439652551  0002815102102004972           000000010000000000004000000000000000000000000000000000000000000000000000000
5400005371679600551  0003225405500001915           000000035000000000147000000000000000000000000000000000000000000000000000000
5400005371679600551  00032254055000021026          000000010000000000025000000000000000000000000000000000000000000000000000000
5400005371679600551  0003225405500003736           000000010000000000022000000000000000000000000000000000000000000000000000000
5400005371679600551  0003225102102004972           000000010000000000005000000000000000000000000000000000000000000000000000000
5400005500533606551  0002675405500001855           000000040000000000176000000000000000000000000000000000000000000000000000000
5400005500533606551  0002675405500002829           000000010000000000026000000000000000000000000000000000000000000000000000000
5400005500533606551  0002675405500003736           000000010000000000035000000000000000000000000000000000000000000000000000000
5400005500533606551  0002675405500004972           000000010000000000004000000000000000000000000000000000000000000000000000000
5400005500533606551  0002945405500001690           000000010000000000030000000000000000000000000000000000000000000000000000000
5400005500533606551  0002945405500002637           000000010000000000068000000000000000000000000000000000000000000000000000000
5400005500533606551  0002945405500003642           000000010000000000118000000000000000000000000000000000000000000000000000000
5400005500533606551  0002945405500004732           000000010000000000089000000000000000000000000000000000000000000000000000000
5400005500533606551  0002945405500005894           000000010000000000051000000000000000000000000000000000000000000000000000000
5400006329909610551  0003005405500001802           000000010000000000789000000000000000000000000000000000000000000000000000000
5400006329909610551  0003005405500002814           000000010000000000066000000000000000000000000000000000000000000000000000000
5400006513144612551  0002855656500001887           000000035000000000147000000000000000000000000000000000000000000000000000000
5400006513144612551  0002855405500002882           000000010000000000032000000000000000000000000000000000000000000000000000000
5400006513144612551  0002855405500003624           000000010000000000046000000000000000000000000000000000000000000000000000000
5400006806489680551  0002925405500001637           000000010000000000068000000000000000000000000000000000000000000000000000000
5400006806489680551  0002925405500002632           000000010000000000132000000000000000000000000000000000000000000000000000000
5400006806489680551  0002925405500003738           000000010000000000126000000000000000000000000000000000000000000000000000000
5400006806489680551  0002925656500004886           000000040000000000176000000000000000000000000000000000000000000000000000000
5400006806489680551  0002925405500005882           000000010000000000025000000000000000000000000000000000000000000000000000000
5400006806489680551  0002925405500006929           000000010000000000034000000000000000000000000000000000000000000000000000000
5400006806489680551  0002925102102007972           000000010000000000005000000000000000000000000000000000000000000000000000000
5400007074165662551  0003265405500001915           000000040000000000168000000000000000000000000000000000000000000000000000000
5400007074165662551  0003265405500002882           000000010000000000025000000000000000000000000000000000000000000000000000000
5400007074165662551  0003265405500003867           000000010000000000044000000000000000000000000000000000000000000000000000000
5400007074165662551  0003265405500004781           000000010000000000028000000000000000000000000000000000000000000000000000000
5400007074165662551  0003265405500005905           000000010000000000031000000000000000000000000000000000000000000000000000000
5400007074165662551  0003265405500006701           000000080000000000656000000000000000000000000000000000000000000000000000000
5400007074165662551  0003265405500007671           000000010000000000115000000000000000000000000000000000000000000000000000000
5400007441423694551  0002745656500001887           000000040000000000168000000000000000000000000000000000000000000000000000000
5400007441423694551  0002745405500002806           000000010000000000058000000000000000000000000000000000000000000000000000000
5400007441423694551  0002745405500003829           000000010000000000028000000000000000000000000000000000000000000000000000000
5400007441423694551  0002745405500004972           000000010000000000016000000000000000000000000000000000000000000000000000000
5400007753430645551  0002695405500001784           000000010000000000318000000000000000000000000000000000000000000000000000000
5400008052534674551  0003255405500001863           000000010000000000289000000000000000000000000000000000000000000000000000000
5400008052534674551  0003255405500002880           000000010000000000031000000000000000000000000000000000000000000000000000000
5400008052534674551  00032554055000031113          000000010000000000044000000000000000000000000000000000000000000000000000000
5400008052534674551  0003255405500004864           000000010000000000109000000000000000000000000000000000000000000000000000000
5400008052534674551  0003255405500005878           000000020000000000208000000000000000000000000000000000000000000000000000000
5400008052534674551  00032554055000061038          000000020000000000898000000000000000000000000000000000000000000000000000000
5400008052534674551  0003255405500007781           000000010000000000028000000000000000000000000000000000000000000000000000000
5400008052534674551  0003255405500008509           000000020000000000068000000000000000000000000000000000000000000000000000000
5400008264063608551  00030354055000011026          000000010000000000034000000000000000000000000000000000000000000000000000000
5400008264063608551  0003035405500002655           000000010000000000046000000000000000000000000000000000000000000000000000000
5400008264063608551  00030354055000031122          000000010000000000032000000000000000000000000000000000000000000000000000000
5400008264063608551  0003035656500004887           000000035000000000147000000000000000000000000000000000000000000000000000000
5400008304283646551  0003155656500001887           000000035000000000147000000000000000000000000000000000000000000000000000000
5400008304283646551  0003155405500002745           000000010000000000034000000000000000000000000000000000000000000000000000000
5400008304283646551  0003155405500003624           000000010000000000064000000000000000000000000000000000000000000000000000000
5400008304283646551  0003155405500004905           000000010000000000031000000000000000000000000000000000000000000000000000000
5400008595372187551  00032054055000011019          000000010000000000159000000000000000000000000000000000000000000000000000000
5400008739286606551  0002795405500001916           000000035000000000133000000000000000000000000000000000000000000000000000000
5400008739286606551  0002795405500002739           000000010000000000076000000000000000000000000000000000000000000000000000000
5400008739286606551  0002795405500003710           000000010000000000086000000000000000000000000000000000000000000000000000000
5400008739286606551  0002795405500004844           000000010000000000329000000000000000000000000000000000000000000000000000000
5400008739286606551  0002795405500005882           000000010000000000034000000000000000000000000000000000000000000000000000000
5400008739286606551  0002795405500006643           000000010000000000149000000000000000000000000000000000000000000000000000000
5400008739286606551  0002795405500007849           000000010000000000068000000000000000000000000000000000000000000000000000000
5400008739286606551  0002795405500008790           000000010000000000034000000000000000000000000000000000000000000000000000000
5400008760208643551  00032154055000011111          000000010000000000898000000000000000000000000000000000000000000000000000000
5400009103378616551  0002875405500001915           000000040000000000168000000000000000000000000000000000000000000000000000000
5400009103378616551  0002875405500002882           000000010000000000025000000000000000000000000000000000000000000000000000000
5400009103378616551  0002875405500003766           000000020000000000296000000000000000000000000000000000000000000000000000000
5400009103378616551  0002875405500004767           000000020000000000084000000000000000000000000000000000000000000000000000000
5400009103378616551  00028754055000051145          000000020000000000078000000000000000000000000000000000000000000000000000000
5400009103378616551  0002875405500006971           000000010000000000069000000000000000000000000000000000000000000000000000000
5400009103378616551  0002875405500007790           000000010000000000042000000000000000000000000000000000000000000000000000000
5400009103378616551  0002875102102008972           000000010000000000016000000000000000000000000000000000000000000000000000000
5400009845685650551  0002735405500001950           000000020000000000132000000000000000000000000000000000000000000000000000000
5400009845685650551  0002735405500002954           000000020000000000210000000000000000000000000000000000000000000000000000000
5400009845685650551  0002735656500003887           000000035000000000147000000000000000000000000000000000000000000000000000000
5400009845685650551  0002735405500004882           000000010000000000025000000000000000000000000000000000000000000000000000000
5400009845685650551  0002735405500005857           000000010000000000018000000000000000000000000000000000000000000000000000000
5400009845685650551  0002735405500006972           000000010000000000004000000000000000000000000000000000000000000000000000000
5400009845685650551  0002735405500007913           000000010000000000139000000000000000000000000000000000000000000000000000000
5400010159694612551  0002915102102001972           000000010000000000016000000000000000000000000000000000000000000000000000000
5400011174915609551  0002655405500001947           000000010000000000140000000000000000000000000000000000000000000000000000000
5400011174915609551  0002655405500002695           000000020000000000326000000000000000000000000000000000000000000000000000000
5400011174915609551  00029554055000011137          000000010000000000149000000000000000000000000000000000000000000000000000000
5400011174915609551  0002955405500002924           000000010000000000082000000000000000000000000000000000000000000000000000000
5400011174915609551  0002955405500003644           000000010000000000038000000000000000000000000000000000000000000000000000000
5400011818958635551  0002975405500001745           000000010000000000034000000000000000000000000000000000000000000000000000000
5400011818958635551  0002975405500002624           000000010000000000044000000000000000000000000000000000000000000000000000000
5400012555905642551  0003015405500001970           000000010000000000086000000000000000000000000000000000000000000000000000000
5400012555905642551  0003015405500002809           000000010000000000016000000000000000000000000000000000000000000000000000000
5400012555905642551  00030154055000031016          000000010000000000038000000000000000000000000000000000000000000000000000000
5400012555905642551  00030154055000041003          000000010000000000084000000000000000000000000000000000000000000000000000000
5400012555905642551  0003015405500005644           000000010000000000026000000000000000000000000000000000000000000000000000000
5400012555905642551  0003015405500006790           000000010000000000042000000000000000000000000000000000000000000000000000000
5400012555905642551  00030154055000071135          000000010000000000114000000000000000000000000000000000000000000000000000000
5400014014050610551  0002645405500001915           000000030000000000126000000000000000000000000000000000000000000000000000000
5400014014050610551  0002645405500002857           000000010000000000019000000000000000000000000000000000000000000000000000000
5400014014050610551  0002645405500003882           000000010000000000025000000000000000000000000000000000000000000000000000000
5400014014050610551  0002645405500004756           000000010000000000089000000000000000000000000000000000000000000000000000000
5400014014050610551  0002645405500005865           000000020000000000292000000000000000000000000000000000000000000000000000000
5400015613569649551  0002625405500001915           000000030000000000126000000000000000000000000000000000000000000000000000000
5400015613569649551  0002625405500002882           000000010000000000025000000000000000000000000000000000000000000000000000000
5400015613569649551  0002625405500003655           000000010000000000034000000000000000000000000000000000000000000000000000000
5400019558074691551  00030554055000011135          000000010000000000104000000000000000000000000000000000000000000000000000000
5400019558074691551  00030554055000021179          000000010000000000129000000000000000000000000000000000000000000000000000000
5400019558074691551  00030554055000031068          000000010000000000032000000000000000000000000000000000000000000000000000000
5400019558074691551  0003055656500004886           000000030000000000132000000000000000000000000000000000000000000000000000000
5400019558074691551  0003055405500005882           000000010000000000025000000000000000000000000000000000000000000000000000000
5400019558074691551  0003055405500006655           000000010000000000034000000000000000000000000000000000000000000000000000000
5400019558074691551  0003065405500001633           000000030000000000174000000000000000000000000000000000000000000000000000000
5400019558074691551  0003065405500002829           000000010000000000034000000000000000000000000000000000000000000000000000000
5400019558074691551  0003065405500003621           000000010000000000054000000000000000000000000000000000000000000000000000000
5400020582200644551  0003115405500001633           000000040000000000232000000000000000000000000000000000000000000000000000000
5400020582200644551  00031154055000021026          000000010000000000025000000000000000000000000000000000000000000000000000000
5400020582200644551  0003115405500003670           000000010000000000074000000000000000000000000000000000000000000000000000000
5400020582200644551  0003115405500004781           000000010000000000028000000000000000000000000000000000000000000000000000000
5400020582200644551  00031154055000051122          000000010000000000032000000000000000000000000000000000000000000000000000000
5400020582200644551  00031154055000061173          000000010000000000218000000000000000000000000000000000000000000000000000000
5400020582200644551  00031154055000071174          000000010000000000146000000000000000000000000000000000000000000000000000000
5400020582200644551  00031154055000081172          000000020000000000138000000000000000000000000000000000000000000000000000000
5421532270000113551  00922414030600011036          000000010000000000518250000000000000000000000000000000073020000000000000000
5421532270000113551  00922414030600021134          000000010000000000089350000000000000000000000000000000011950000000000000000
5421532270000113551  00922414030600031135          000000040000000000056040000000000000000000000000000000000000000000000000000
5421532270000113551  00922414030600041136          000000010000000000231510000000000000000000000000000000000000000000000000000
5421532270000113551  0092241403060005759           000000010000000000071480000000000000000000000000000000009070000000000000000
5421532270000113551  0092241403060006619           000000010000000000063360000000000000000000000000000000000000000000000000000
5421532270000113551  00922414030600071137          000000010000000000135650000000000000000000000000000000012520000000000000000
5421532270000113551  00922414030600081049          000000030000000000037050000000000000000000000000000000004310000000000000000
5421532270000113551  00922414030600091138          000000010000000000117780000000000000000000000000000000013400000000000000000
5421532270000113551  00922414030600101139          000000010000000000030870000000000000000000000000000000000000000000000000000
5421532270000113551  00922414030600111030          000000040000000000116960000000000000000000000000000000000000000000000000000
5421532270000113551  00922414030600121140          000000010000000000034930000000000000000000000000000000003420000000000000000
5421532270000113551  0092241403060013971           000000010000000000051990000000000000000000000000000000005740000000000000000
5421532270000113551  00922414030600141099          000000010000000000051990000000000000000000000000000000005700000000000000000
5421532270000113551  00922414030600151141          000000020000000000596220000000000000000000000000000000076270000000000000000
5421532270000113551  00922414030600161058          000000020000000000077980000000000000000000000000000000010730000000000000000
5421532270000113551  00922414030600171088          000000010000000000014620000000000000000000000000000000001520000000000000000
5421532270000113551  0092241403060018812           000000010000000000028430000000000000000000000000000000002940000000000000000
5421532270000113551  0092241403060019729           000000020000000000271300000000000000000000000000000000030900000000000000000
5421532270000113551  0092241403060020953           000000040000000000079600000000000000000000000000000000000000000000000000000
5421532270000113551  00922414030600211142          000000010000000000085290000000000000000000000000000000010900000000000000000
5421532270000113551  0092241403060022578           000000010000000000041020000000000000000000000000000000007540000000000000000
5421532270000113551  0092241403060023619           000000010000000000063360000000000000000000000000000000000000000000000000000
5421532270000113551  00922414030600241143          000000010000000000070670000000000000000000000000000000006330000000000000000
5421532270000113551  00922414030600251144          000000020000000000253440000000000000000000000000000000028880000000000000000
5421532270000113551  00922414030600261145          000000020000000000056860000000000000000000000000000000006520000000000000000
5421532270000113551  0092241403060027578           000000010000000000041020000000000000000000000000000000007540000000000000000
5421532270000113551  00922414030600281146          000000010000000000069860000000000000000000000000000000004580000000000000000
5421532270000113551  0092241403060029604           000000010000000000097480000000000000000000000000000000013690000000000000000
5421532270000113551  0092241403060030619           000000010000000000063360000000000000000000000000000000000000000000000000000
5421532270000113551  00922414030600311147          000000010000000000060920000000000000000000000000000000007630000000000000000
5421532270000113551  00922414030600321148          000000010000000000125910000000000000000000000000000000017950000000000000000
5421532270000113551  00922414030600331149          000000010000000000308670000000000000000000000000000000000000000000000000000
5421532270000113551  00922414030600341150          000000020000000000030060000000000000000000000000000000003560000000000000000
5421532270000113551  00922414030600351072          000000020000000000031680000000000000000000000000000000002400000000000000000
5421532270000113551  0092241403060036814           000000010000000000045890000000000000000000000000000000004240000000000000000
5421532270000113551  00922414030600371151          000000010000000000166520000000000000000000000000000000012980000000000000000
5421532270000113551  0092241403060038583           000000010000000000040610000000000000000000000000000000000000000000000000000
5421532270000113551  00922414030600391129          000000010000000000098290000000000000000000000000000000010680000000000000000
5421532270000113551  0092241403060040618           000000010000000000072700000000000000000000000000000000006800000000000000000
5421532270000113551  00922414030600411018          000000010000000000047110000000000000000000000000000000004220000000000000000
5421532270000113551  00922414030600421152          000000010000000000242880000000000000000000000000000000021950000000000000000
5421532270000113551  0092571403060001750           000000010000000000161650000000000000000000000000000000022260000000000000000
5421532270000113551  00925714030600021003          000000010000000000056050000000000000000000000000000000006850000000000000000
5421532270000113551  00925714030600031079          000000010000000000074730000000000000000000000000000000011560000000000000000
5421532270000113551  0092571403060004766           000000020000000000178700000000000000000000000000000000000000000000000000000
5421532270000113551  0092571403060005767           000000020000000000077160000000000000000000000000000000003610000000000000000
5421532270000113551  0092571403060006723           000000010000000000038180000000000000000000000000000000002870000000000000000
5421532270000113551  00925714030600071080          000000020000000000142960000000000000000000000000000000017200000000000000000
5421532270000113551  0092571403060008794           000000010000000000032490000000000000000000000000000000004120000000000000000
5421532270000113551  00925714030600091081          000000020000000000058480000000000000000000000000000000000000000000000000000
5421532270000113551  00925714030600101082          000000020000000000039000000000000000000000000000000000004270000000000000000
5421532270000113551  0092571403060011723           000000010000000000038180000000000000000000000000000000002870000000000000000
5421532270000113551  00925714030600121083          000000010000000000101540000000000000000000000000000000009460000000000000000
5421532270000113551  00925714030600131084          000000040000000000017880000000000000000000000000000000000000000000000000000
5421532270000113551  00925714030600141085          000000010000000000047930000000000000000000000000000000006960000000000000000
5421532270000113551  00925714030600151086          000000010000000000035740000000000000000000000000000000005130000000000000000
5421532270000113551  00925714030600161087          000000010000000000132400000000000000000000000000000000000000000000000000000
5421532270000113551  00925714030600171088          000000010000000000014620000000000000000000000000000000001520000000000000000
5421532270000113551  0092571403060018812           000000010000000000028430000000000000000000000000000000002940000000000000000
5421532270000113551  0092571403060019953           000000040000000000079600000000000000000000000000000000000000000000000000000
5421532270000113551  00925714030600201089          000000010000000000047930000000000000000000000000000000005630000000000000000
5421532270000113551  0092571403060021954           000000010000000000077170000000000000000000000000000000014080000000000000000
5421532270000113551  0092571403060022955           000000010000000000077170000000000000000000000000000000006240000000000000000
5421532270000113551  0092571403060023579           000000010000000000052800000000000000000000000000000000000000000000000000000
5421532270000113551  00925714030600241090          000000020000000000250180000000000000000000000000000000033330000000000000000
5421532270000113551  00925714030600251091          000000010000000000107220000000000000000000000000000000011180000000000000000
5421532270000113551  00925714030600261092          000000010000000000063360000000000000000000000000000000006570000000000000000
5421532270000113551  00925714030600271093          000000010000000000016250000000000000000000000000000000001140000000000000000
5421532270000113551  00925714030600281094          000000010000000000031270000000000000000000000000000000004890000000000000000
5421532270000113551  00925714030600291095          000000020000000000222580000000000000000000000000000000029390000000000000000
5421532270000113551  00925714030600301096          000000010000000000066610000000000000000000000000000000007250000000000000000
5421532270000113551  0092571403060031799           000000010000000000158400000000000000000000000000000000021080000000000000000
5421532270000113551  0092571403060032800           000000010000000000158400000000000000000000000000000000021580000000000000000
5421532270000113551  00925714030600331097          000000010000000000077980000000000000000000000000000000002810000000000000000
5421532270000113551  00925714030600341098          000000010000000000045490000000000000000000000000000000000000000000000000000
5421532270000113551  00925714030600351099          000000010000000000056050000000000000000000000000000000005700000000000000000
5421532270000113551  00925714030600361100          000000010000000000144590000000000000000000000000000000000000000000000000000
5421532270000113551  00925714030600371101          000000010000000000356600000000000000000000000000000000000000000000000000000
5421532270000113551  0092571403060038581           000000010000000000022740000000000000000000000000000000002590000000000000000
5421532270000113551  0092571403060039772           000000040000000000692080000000000000000000000000000000094600000000000000000
5421532270000113551  0092571403060040971           000000010000000000051990000000000000000000000000000000005740000000000000000
5421532270000113551  00930014030600011102          000000010000000000137280000000000000000000000000000000003240000000000000000
5421532270000113551  00930014030600021103          000000010000000000038990000000000000000000000000000000002760000000000000000
5421532270000113551  00930014030600031104          000000010000000000150280000000000000000000000000000000018250000000000000000
5421532270000113551  0093001403060004571           000000010000000000099910000000000000000000000000000000010290000000000000000
5421532270000113551  00930014030600051105          000000010000000000030870000000000000000000000000000000000000000000000000000
5421532270000113551  00930014030600061106          000000010000000000056050000000000000000000000000000000006070000000000000000
5421532270000113551  00930014030600071107          000000020000000000107220000000000000000000000000000000007200000000000000000
5421532270000113551  00930014030600081108          000000020000000000030860000000000000000000000000000000000000000000000000000
5421532270000113551  00930014030600091109          000000010000000000158400000000000000000000000000000000000000000000000000000
5421532270000113551  00930014030600101110          000000010000000000345230000000000000000000000000000000000000000000000000000
5421532270000113551  0093001403060011562           000000010000000000043860000000000000000000000000000000004650000000000000000
5421532270000113551  0093001403060012745           000000010000000000030060000000000000000000000000000000003410000000000000000
5421532270000113551  00930014030600131111          000000010000000000713200000000000000000000000000000000000000000000000000000
5421532270000113551  00930014030600141112          000000010000000000207950000000000000000000000000000000030450000000000000000
5421532270000113551  0093001403060015784           000000010000000000218510000000000000000000000000000000031550000000000000000
5421532270000113551  0093001403060016862           000000010000000000082850000000000000000000000000000000012800000000000000000
5421532270000113551  0093001403060017878           000000020000000000152720000000000000000000000000000000009310000000000000000
5421532270000113551  0093001403060018880           000000010000000000017060000000000000000000000000000000001790000000000000000
5421532270000113551  00930014030600191113          000000010000000000032490000000000000000000000000000000003210000000000000000
5421532270000113551  0093001403060020863           000000010000000000208760000000000000000000000000000000025420000000000000000
5421532270000113551  00930014030600211114          000000010000000000073920000000000000000000000000000000008120000000000000000
5421532270000113551  00930014030600221115          000000010000000000101540000000000000000000000000000000016870000000000000000
5421532270000113551  00930014030600231116          000000010000000000101540000000000000000000000000000000019410000000000000000
5421532270000113551  00930014030600241117          000000010000000000042240000000000000000000000000000000004140000000000000000
5421532270000113551  00930014030600251118          000000010000000000036550000000000000000000000000000000004550000000000000000
5421532270000113551  00930014030600261119          000000010000000000259940000000000000000000000000000000000000000000000000000
5421532270000113551  00930014030600271120          000000010000000000259940000000000000000000000000000000000000000000000000000
5421532270000113551  00930014030600281121          000000010000000000125910000000000000000000000000000000008780000000000000000
5421532270000113551  00930014030600291122          000000010000000000019900000000000000000000000000000000002230000000000000000
5421532270000113551  00930014030600301123          000000010000000000041430000000000000000000000000000000004740000000000000000
5421532270000113551  00930014030600311124          000000020000000000061740000000000000000000000000000000005620000000000000000
5421532270000113551  00930014030600321125          000000010000000000161650000000000000000000000000000000020680000000000000000
5421532270000113551  00930014030600331126          000000010000000000097480000000000000000000000000000000000000000000000000000
5421532270000113551  00930014030600341127          000000020000000000690460000000000000000000000000000000000000000000000000000
5421532270000113551  00930014030600351128          000000020000000000177080000000000000000000000000000000025360000000000000000
5421532270000113551  00930014030600361129          000000010000000000098290000000000000000000000000000000010680000000000000000
5421532270000113551  00930014030600371130          000000020000000000258320000000000000000000000000000000000000000000000000000
5421532270000113551  0093001403060038530           000000010000000000112910000000000000000000000000000000000000000000000000000
5421532270000113551  00930014030600391131          000000010000000000010970000000000000000000000000000000000000000000000000000
5421532270000113551  0093001403060040658           000000010000000000082040000000000000000000000000000000000000000000000000000
5421532270000113551  00930014030600411132          000000010000000000066610000000000000000000000000000000000000000000000000000
5421532270000113551  00930014030600421133          000000010000000000054420000000000000000000000000000000007720000000000000000
5421532270000113551  00930014030600431070          000000010000000000072290000000000000000000000000000000009590000000000000000
5421532270000113551  0093001403060044569           000000080000000000321680000000000000000000000000000000000000000000000000000
5421532270000113551  00935614030600011156          000000020000000000141340000000000000000000000000000000011720000000000000000
5421532270000113551  00935614030600021157          000000010000000000022740000000000000000000000000000000002080000000000000000
5421532270000113551  00935614030600031158          000000020000000000095860000000000000000000000000000000011680000000000000000
5421532270000113551  00935614030600041159          000000020000000000034920000000000000000000000000000000000000000000000000000
5421532270000113551  00935614030600051160          000000020000000000009420000000000000000000000000000000000920000000000000000
5421532270000113551  00935614030600061161          000000020000000000008940000000000000000000000000000000000880000000000000000
5421532270000113551  00935614030600071162          000000010000000000045490000000000000000000000000000000003120000000000000000
5421532270000113551  0093561403060008756           000000010000000000049550000000000000000000000000000000004610000000000000000
5421532270000113551  00935614030600091163          000000010000000000112100000000000000000000000000000000000000000000000000000
5421532270000113551  00935614030600101164          000000010000000000054420000000000000000000000000000000008640000000000000000
5421532270000113551  00935614030600111165          000000010000000000242070000000000000000000000000000000026230000000000000000
5421532270000113551  00935614030600121166          000000010000000000060920000000000000000000000000000000000000000000000000000
5421532270000113551  00935614030600131167          000000010000000000014220000000000000000000000000000000001490000000000000000
5421532270000113551  0093561403060014893           000000010000000000043050000000000000000000000000000000005160000000000000000
5421532270000113551  0093561403060015559           000000010000000000025990000000000000000000000000000000003680000000000000000
5421532270000113551  00935614030600161168          000000010000000000190890000000000000000000000000000000017000000000000000000
5421532270000113551  00935614030600171169          000000010000000000251810000000000000000000000000000000000000000000000000000
5421532270000113551  0093561403060018543           000000010000000000052800000000000000000000000000000000007090000000000000000
5421532270000113551  00935614030600191170          000000010000000000103160000000000000000000000000000000010640000000000000000
5421532270000113551  00935614030600201171          000000010000000000045490000000000000000000000000000000004490000000000000000
5421532270000113551  00935614030600211172          000000020000000000101540000000000000000000000000000000011230000000000000000
5421532270000113551  00935614030600221173          000000010000000000153520000000000000000000000000000000015580000000000000000
5421532270000113551  00935614030600231174          000000010000000000109660000000000000000000000000000000008880000000000000000
5421532270000113551  0093561403060024822           000000010000000000069860000000000000000000000000000000000000000000000000000
5421532270000113551  00935614030600251175          000000020000000000014620000000000000000000000000000000000000000000000000000
5421532270000113551  00935614030600261176          000000020000000000012180000000000000000000000000000000000000000000000000000
5421532270000113551  00935614030600271177          000000020000000000021940000000000000000000000000000000000000000000000000000
5421532270000113551  0093561403060028862           000000010000000000082850000000000000000000000000000000012800000000000000000
5421532270000113551  00935614030600291178          000000010000000000034520000000000000000000000000000000000000000000000000000
5421532270000113551  00935614030600301179          000000010000000000091790000000000000000000000000000000011310000000000000000
5421532270000113551  00935614030600311180          000000040000000000071480000000000000000000000000000000009510000000000000000
5421532270000113551  00935614030600321181          000000010000000000013000000000000000000000000000000000000000000000000000000
5421532270000113551  00935614030600331182          000000020000000000020300000000000000000000000000000000000000000000000000000
5421532270000113551  00935614030600341183          000000010000000000017870000000000000000000000000000000000000000000000000000
5421532270000113551  00935614030600351184          000000010000000000013570000000000000000000000000000000000000000000000000000
5421532270000113551  00935614030600361185          000000020000000000269680000000000000000000000000000000021720000000000000000
5421532270000113551  00935614030600371186          000000010000000000049550000000000000000000000000000000000000000000000000000
5421532270000113551  00935614030600381187          000000020000000000307040000000000000000000000000000000000000000000000000000
5421532270000113551  00935614030600391188          000000010000000000177080000000000000000000000000000000000000000000000000000
5421532270000113551  00935614030600401189          000000010000000000151090000000000000000000000000000000020550000000000000000
5421532270000113551  0093561403060041546           000000010000000000048330000000000000000000000000000000007030000000000000000
5421532270000113551  0093561403060042508           000000040000000000052000000000000000000000000000000000006480000000000000000
5421532270000113551  00935614030600431190          000000010000000000019900000000000000000000000000000000002080000000000000000
5421532270000113551  0093561403060044655           000000010000000000032490000000000000000000000000000000003560000000000000000
5421532270000113551  00941514030600011197          000000010000000000085290000000000000000000000000000000010160000000000000000
5421532270000113551  00941514030600021198          000000030000000000013410000000000000000000000000000000001300000000000000000
5421532270000113551  0094151403060003674           000000010000000000023150000000000000000000000000000000002270000000000000000
5421532270000113551  00941514030600041195          000000020000000000186820000000000000000000000000000000021940000000000000000
5421532270000113551  0094151403060005776           000000010000000000017460000000000000000000000000000000000490000000000000000
5421532270000113551  00941514030600061196          000000020000000000186820000000000000000000000000000000021940000000000000000
5421532270000113551  00941514030600071199          000000010000000000111290000000000000000000000000000000011150000000000000000
5421532270000113551  00941514030600081200          000000010000000000026810000000000000000000000000000000002520000000000000000
5421532270000113551  00941514030600091201          000000010000000000056050000000000000000000000000000000000000000000000000000
5421532270000113551  0094151403060010809           000000040000000000039000000000000000000000000000000000000000000000000000000
5421532270000113551  0094151403060011759           000000010000000000071480000000000000000000000000000000009080000000000000000
5421532270000113551  00941514030600121202          000000010000000000075540000000000000000000000000000000005520000000000000000
5421532270000113551  00941514030600131203          000000010000000000037370000000000000000000000000000000000000000000000000000
5421532270000113551  00941514030600141204          000000010000000000178710000000000000000000000000000000017450000000000000000
5421532270000113551  00941514030600151205          000000010000000000315170000000000000000000000000000000038670000000000000000
5421532270000113551  00941514030600161206          000000010000000000315170000000000000000000000000000000038670000000000000000
5421532270000113551  00941514030600171207          000000020000000000108840000000000000000000000000000000012400000000000000000
5421532270000113551  00941514030600181039          000000020000000000111280000000000000000000000000000000012340000000000000000
5421532270000113551  0094151403060019729           000000020000000000271300000000000000000000000000000000030900000000000000000
5421532270000113551  00941514030600201208          000000010000000000078790000000000000000000000000000000009170000000000000000
5421532270000113551  00941514030600211209          000000010000000000038990000000000000000000000000000000004360000000000000000
5421532270000113551  00941514030600221210          000000010000000000067420000000000000000000000000000000007430000000000000000
5421532270000113551  00941514030600231041          000000010000000000090980000000000000000000000000000000006260000000000000000
5421532270000113551  0094151403060024642           000000010000000000073920000000000000000000000000000000008750000000000000000
5421532270000113551  00941514030600251211          000000010000000000076360000000000000000000000000000000000000000000000000000
5421532270000113551  0094151403060026812           000000010000000000028430000000000000000000000000000000003300000000000000000
5421532270000113551  00941514030600271212          000000010000000000105600000000000000000000000000000000007090000000000000000
5421532270000113551  0094151403060028789           000000010000000000129160000000000000000000000000000000011270000000000000000
5421532270000113551  00941514030600291213          000000010000000000123470000000000000000000000000000000015840000000000000000
5421532270000113551  00941514030600301214          000000010000000000041430000000000000000000000000000000003810000000000000000
5421532270000113551  0094151403060031519           000000010000000000037770000000000000000000000000000000005130000000000000000
5421532270000113551  00941514030600321091          000000010000000000107220000000000000000000000000000000011180000000000000000
5421532270000113551  00941514030600331215          000000010000000000066610000000000000000000000000000000004900000000000000000
5421532270000113551  0094151403060034520           000000010000000000146210000000000000000000000000000000000000000000000000000
5421532270000113551  0094151403060035642           000000010000000000073920000000000000000000000000000000008750000000000000000
5421532270000113551  00941514030600361216          000000010000000000100320000000000000000000000000000000013610000000000000000
5400024324299668551  0002805656500001887           000000035000000000147000000000000000000000000000000000000000000000000000000
5400024324299668551  0002805405500002745           000000010000000000034000000000000000000000000000000000000000000000000000000
5400024324299668551  0002805405500003693           000000010000000000046000000000000000000000000000000000000000000000000000000
5400024324299668551  0002805405500004878           000000020000000000244000000000000000000000000000000000000000000000000000000
5400024324299668551  0002805405500005977           000000020000000000116000000000000000000000000000000000000000000000000000000
5400024324299668551  0002805405500006864           000000010000000000105000000000000000000000000000000000000000000000000000000
5400024324299668551  0002805405500007509           000000010000000000034000000000000000000000000000000000000000000000000000000
5400025436953620551  0002615405500001915           000000030000000000126000000000000000000000000000000000000000000000000000000
5400025436953620551  0002615405500002882           000000010000000000025000000000000000000000000000000000000000000000000000000
5400025436953620551  0002615405500003857           000000010000000000019000000000000000000000000000000000000000000000000000000
5400025436953620551  0002615405500004823           000000010000000000076000000000000000000000000000000000000000000000000000000
5400029179122604551  0002635405500001916           000000045000000000180000000000000000000000000000000000000000000000000000000
5400029179122604551  0002635405500002680           000000010000000000044000000000000000000000000000000000000000000000000000000
5400031699677620551  0002835405500001916           000000030000000000120000000000000000000000000000000000000000000000000000000
5400031699677620551  0002835405500002882           000000010000000000025000000000000000000000000000000000000000000000000000000
5400031699677620551  0002835102102003972           000000010000000000006000000000000000000000000000000000000000000000000000000
5400037929500659551  0003145405500001916           000000035000000000140000000000000000000000000000000000000000000000000000000
5400037929500659551  00031454055000021026          000000010000000000025000000000000000000000000000000000000000000000000000000
5400037929500659551  0003145405500003781           000000010000000000028000000000000000000000000000000000000000000000000000000
5400037929500659551  0003145405500004905           000000010000000000034000000000000000000000000000000000000000000000000000000
5400037929500659551  00031454055000051028          000000010000000000039000000000000000000000000000000000000000000000000000000
5400037929500659551  00031454055000061089          000000010000000000074000000000000000000000000000000000000000000000000000000
5400037929500659551  0003145405500007953           000000040000000000136000000000000000000000000000000000000000000000000000000
5400037929500659551  0003145405500008955           000000020000000000216000000000000000000000000000000000000000000000000000000
5400037929500659551  00031454055000091087          000000010000000000186000000000000000000000000000000000000000000000000000000
5400039902099653551  0003165405500001915           000000040000000000168000000000000000000000000000000000000000000000000000000
5400039902099653551  00031654055000021026          000000010000000000025000000000000000000000000000000000000000000000000000000
5400039902099653551  0003165405500003746           000000010000000000046000000000000000000000000000000000000000000000000000000
5400044069480668551  00030254055000011047          000000010000000000220000000000000000000000000000000000000000000000000000000
5400050736175687551  00031754055000011129          000000010000000000105000000000000000000000000000000000000000000000000000000
5400050736175687551  0003175405500002633           000000005000000000029000000000000000000000000000000000000000000000000000000
5400050736175687551  0003175405500003689           000000010000000000030000000000000000000000000000000000000000000000000000000
5400051826127887551  00030954055000011144          000000020000000000378000000000000000000000000000000000000000000000000000000
5400051826127887551  00030954055000021039          000000020000000000148000000000000000000000000000000000000000000000000000000
5400051826127887551  0003095405500003673           000000010000000000119000000000000000000000000000000000000000000000000000000
5400051826127887551  0003095405500004873           000000020000000000144000000000000000000000000000000000000000000000000000000
5400051826127887551  0003095405500005810           000000010000000000098000000000000000000000000000000000000000000000000000000
5400051826127887551  0003095405500006637           000000010000000000068000000000000000000000000000000000000000000000000000000
5400051826127887551  0003095405500007915           000000035000000000147000000000000000000000000000000000000000000000000000000
5400051826127887551  0003095405500008882           000000010000000000025000000000000000000000000000000000000000000000000000000
5400051826127887551  0003095102102009972           000000010000000000004000000000000000000000000000000000000000000000000000000
5400051826127887551  0003095405500010790           000000010000000000041000000000000000000000000000000000000000000000000000000
5452203764000188551  00040414035000011191          000000010000000000161970000000000000000000000000000000000000000000000000000
5452203764000188551  00040411021020021192          000000010000000000166970000000000000000000000000000000000000000000000000000
5452203764000188551  00040456555000031193          000000080000000000710960000000000000000000000000000000065500000000000000000
5452203764000188551  00040411021020041194          000000010000000000101970000000000000000000000000000000000000000000000000000
5400052369692634551  00028454055000011139          000000010000000000052000000000000000000000000000000000000000000000000000000
5400052369692634551  0002845405500002966           000000010000000000106000000000000000000000000000000000000000000000000000000
5400052369692634551  0002845405500003924           000000010000000000040000000000000000000000000000000000000000000000000000000
5400052369692634551  0002845405500004790           000000010000000000034000000000000000000000000000000000000000000000000000000
5400054123038620551  0002755656500001887           000000035000000000147000000000000000000000000000000000000000000000000000000
