10336213140001600034450680073 CRISTINA ISABEL DE CAMPOS          Belo Horizonte                MG31999760132024100120241031331
11Rua Caconde                       00875                      Renascença     31130510VINICIUS MURTA NERY         031934225098
5000003185696638ISENTO        20241028MG551  0004435656P000000002200000000000000000000000000000000000000000000000000220000000N
5000003185696638ISENTO        20241028MG551  0004435405P000000001090000000000000000000000000000000000000000000000000184000000N
5000003185696638ISENTO        20241028MG551  0004435102P000000000160000000000000000000000000000000000000000000000000016000000N
5000039974233852ISENTO        20241029MG551  0004495405P000000003270000000000000000000000000000000000000000000000001173000000N
5000039974233852ISENTO        20241029MG551  0004495102P000000000050000000000000000000000000000000000000000000000000005000000N
5065139743000192ISENTO        20241007MG551  0004425656P000000001980000000000000000000000000000000000000000000000000198000000N
5065139743000192ISENTO        20241007MG551  0004425405P000000000780000000000000000000000000000000000000000000000000112000000N
5065139743000192ISENTO        20241007MG551  0004425102P000000000160000000000000000000000000000000000000000000000000016000000N
5000039099261691ISENTO        20241028MG551  0004445405P000000000850000000000000000000000000000000000000000000000000085000000N
5000004913779672ISENTO        20241031MG551  0004625405P000000009530000000000000000000000000000000000000000000000003437000000N
5000001492908614ISENTO        20241028MG551  0004455405P000000006900000000000000000000000000000000000000000000000001948000000N
5000001492908614ISENTO        20241028MG551  0004455102P000000000160000000000000000000000000000000000000000000000000016000000N
5000012950922635ISENTO        20241028MG551  0004465656P000000001380000000000000000000000000000000000000000000000000138000000N
5000012950922635ISENTO        20241028MG551  0004465405P000000000260000000000000000000000000000000000000000000000000026000000N
5000012950922635ISENTO        20241028MG551  0004465102P000000000060000000000000000000000000000000000000000000000000006000000N
5000071001352653ISENTO        20241030MG551  0004505656P000000001980000000000000000000000000000000000000000000000000198000000N
5000071001352653ISENTO        20241030MG551  0004505405P000000000850000000000000000000000000000000000000000000000000189000000N
5000071001352653ISENTO        20241030MG551  0004505102P000000000160000000000000000000000000000000000000000000000000016000000N
5000007773826609ISENTO        20241028MG551  0004475405P000000001920000000000000000000000000000000000000000000000000482000000N
5000001340790602ISENTO        20241028MG551  0004485405P000000001980000000000000000000000000000000000000000000000000500000000N
5000039099261691ISENTO        20241031MG551  0004635405P000000003240000000000000000000000000000000000000000000000000788000000N
5000007773826609ISENTO        20241030MG551  0004515405P000000001400000000000000000000000000000000000000000000000000308000000N
5000004300672679ISENTO        20241030MG551  0004525405P000000002680000000000000000000000000000000000000000000000000698000000N
5000004300672679ISENTO        20241030MG551  0004525102P000000000160000000000000000000000000000000000000000000000000016000000N
5000029179122604ISENTO        20241030MG551  0004535405P000000004060000000000000000000000000000000000000000000000001194000000N
5000029179122604ISENTO        20241030MG551  0004535102P000000000050000000000000000000000000000000000000000000000000005000000N
5000000498426688ISENTO        20241031MG551  0004645405P000000002950000000000000000000000000000000000000000000000000937000000N
5000005227936650ISENTO        20241030MG551  0004545656P000000002240000000000000000000000000000000000000000000000000224000000N
5000005227936650ISENTO        20241030MG551  0004545405P000000000880000000000000000000000000000000000000000000000000124000000N
5000005227936650ISENTO        20241030MG551  0004545102P000000000160000000000000000000000000000000000000000000000000016000000N
5000037264567672ISENTO        20241030MG551  0004555656P000000001760000000000000000000000000000000000000000000000000176000000N
5000037264567672ISENTO        20241030MG551  0004555405P000000006400000000000000000000000000000000000000000000000002993000000N
5000037354183172ISENTO        20241031MG551  0004655405P000000013650000000000000000000000000000000000000000000000005836000000N
5000000650928644ISENTO        20241030MG551  0004565405P000000006410000000000000000000000000000000000000000000000002619000000N
5000011287241620ISENTO        20241031MG551  0004665405P000000006780000000000000000000000000000000000000000000000002114000000N
5000000123362628ISENTO        20241030MG551  0004575405P000000007720000000000000000000000000000000000000000000000003551000000N
5000000123362628ISENTO        20241030MG551  0004575102P000000000050000000000000000000000000000000000000000000000000005000000N
5000020546750672ISENTO        20241031MG551  0004675656P000000001760000000000000000000000000000000000000000000000000176000000N
5000020546750672ISENTO        20241031MG551  0004675405P000000000870000000000000000000000000000000000000000000000000184000000N
5000083918191672ISENTO        20241030MG551  0004585656P000000001540000000000000000000000000000000000000000000000000154000000N
5000083918191672ISENTO        20241030MG551  0004585405P000000000880000000000000000000000000000000000000000000000000122000000N
5000053382986604ISENTO        20241030MG551  0004595405P000000001280000000000000000000000000000000000000000000000000128000000N
5000000961720611ISENTO        20241031MG551  0004685656P000000001680000000000000000000000000000000000000000000000000168000000N
5000000961720611ISENTO        20241031MG551  0004685405P000000000960000000000000000000000000000000000000000000000000140000000N
5000000961720611ISENTO        20241031MG551  0004685102P000000000050000000000000000000000000000000000000000000000000005000000N
5000016385284620ISENTO        20241030MG551  0004605405P000000004980000000000000000000000000000000000000000000000000498000000N
5000054919428634ISENTO        20241030MG551  0004615405P000000004420000000000000000000000000000000000000000000000001358000000N
5000054919428634ISENTO        20241030MG551  0004615102P000000000160000000000000000000000000000000000000000000000000016000000N
5000051826127887ISENTO        20241031MG551  0004695405P000000001250000000000000000000000000000000000000000000000000278000000N
5000075401428634ISENTO        20241031MG551  0004705405P000000002190000000000000000000000000000000000000000000000000565000000N
5000075401428634ISENTO        20241031MG551  0004705102P000000000050000000000000000000000000000000000000000000000000005000000N
5000004621598686ISENTO        20241031MG551  0004715405P000000003480000000000000000000000000000000000000000000000000348000000N
5000049616897691ISENTO        20241031MG551  0004725656P000000001980000000000000000000000000000000000000000000000000198000000N
5000049616897691ISENTO        20241031MG551  0004725405P000000001140000000000000000000000000000000000000000000000000218000000N
5000049616897691ISENTO        20241031MG551  0004725102P000000000050000000000000000000000000000000000000000000000000005000000N
5000007014083678ISENTO        20241031MG551  0004735656P000000001980000000000000000000000000000000000000000000000000198000000N
5000007014083678ISENTO        20241031MG551  0004735405P000000000900000000000000000000000000000000000000000000000000126000000N
5000007014083678ISENTO        20241031MG551  0004735102P000000000050000000000000000000000000000000000000000000000000005000000N
5000000148910696ISENTO        20241031MG551  0004745405P000000003760000000000000000000000000000000000000000000000000924000000N
5000000148910696ISENTO        20241031MG551  0004745102P000000000050000000000000000000000000000000000000000000000000005000000N
5000010835151603ISENTO        20241031MG551  0004755102P000000000350000000000000000000000000000000000000000000000000035000000N
5000029179122604ISENTO        20241031MG551  0004765405P000000005160000000000000000000000000000000000000000000000001496000000N
5000029267838172ISENTO        20241031MG551  0004775405P000000001900000000000000000000000000000000000000000000000000456000000N
5000029267838172ISENTO        20241031MG551  0004775102P000000000060000000000000000000000000000000000000000000000000006000000N
5000001441980610ISENTO        20241031MG551  0004785656P000000001760000000000000000000000000000000000000000000000000176000000N
5000001441980610ISENTO        20241031MG551  0004785405P000000000720000000000000000000000000000000000000000000000000118000000N
5000001441980610ISENTO        20241031MG551  0004785102P000000000050000000000000000000000000000000000000000000000000005000000N
5000009864984675ISENTO        20241031MG551  0004795405P000000003930000000000000000000000000000000000000000000000000752000000N
5000011287241620ISENTO        20241031MG551  0004805405P000000003020000000000000000000000000000000000000000000000000530000000N
5000011287241620ISENTO        20241031MG551  0004815405P000000000340000000000000000000000000000000000000000000000000034000000N
5000005231670677ISENTO        20241031MG551  0004825405P000000012613600000000000000000000000000000000000000000000002605360000N
5000024479659668ISENTO        20241031MG551  0004835656P000000001760000000000000000000000000000000000000000000000000176000000N
5000024479659668ISENTO        20241031MG551  0004835405P000000000260000000000000000000000000000000000000000000000000026000000N
5000024479659668ISENTO        20241031MG551  0004835102P000000000050000000000000000000000000000000000000000000000000005000000N
5000007850812670ISENTO        20241031MG551  0004845405P000000021970000000000000000000000000000000000000000000000010754000000N
5000007850812670ISENTO        20241031MG551  0004845656P000000000230000000000000000000000000000000000000000000000000023000000N
5000024479659668ISENTO        20241031MG551  0004865405P000000005170000000000000000000000000000000000000000000000002004000000N
5000024479659668ISENTO        20241031MG551  0004875405P000000000480000000000000000000000000000000000000000000000000048000000N
5000016338952620ISENTO        20241031MG551  0004885656P000000002070000000000000000000000000000000000000000000000000207000000N
5000016338952620ISENTO        20241031MG551  0004885405P000000000800000000000000000000000000000000000000000000000000114000000N
5000016338952620ISENTO        20241031MG551  0004885102P000000000160000000000000000000000000000000000000000000000000016000000N
5000061125946687ISENTO        20241031MG551  0004895405P000000003960000000000000000000000000000000000000000000000000661000000N
5000008885779662ISENTO        20241031MG551  0004905405P000000004070000000000000000000000000000000000000000000000001558000000N
5000003402706679ISENTO        20241031MG551  0004915405P000000005420000000000000000000000000000000000000000000000001520000000N
5000003402706679ISENTO        20241031MG551  0004915656P000000001980000000000000000000000000000000000000000000000000198000000N
5000003402706679ISENTO        20241031MG551  0004915102P000000000160000000000000000000000000000000000000000000000000016000000N
5000090122836634ISENTO        20241031MG551  0004925405P000000002180000000000000000000000000000000000000000000000000218000000N
5000001185162640ISENTO        20241031MG551  0004935405P000000000520000000000000000000000000000000000000000000000000052000000N
5000003769792670ISENTO        20241031MG551  0004945405P000000003100000000000000000000000000000000000000000000000000770000000N
5000003769792670ISENTO        20241031MG551  0004945656P000000000440000000000000000000000000000000000000000000000000044000000N
50215322700001130624775200061 20241007MG551  0099121403T000000041378100000000000000000000000000000000000000000000000000000000N
50215322700001130624775200061 20241010MG551  0099591403T000000034233000000000000000000000000000000000000000000000000000000000N
50215322700001130624775200061 20241018MG551  0100231403T000000030463400000000000000000000000000000000000000000000000000000000N
50215322700001130624775200061 20241028MG551  0101061403T000000041475500000000000000000000000000000000000000000000000000000000N
50215322700001130624775200061 20241028MG551  0101061102T000000000035700000000003570000000000064000000000000000000000000001800N
51215322700001130624775200061 20241007MG1  00991214030000000000000000000000000000000000000000000000000000                    N
5165139743000192ISENTO        20241007MG1  00044256560000000000000000000000000000000000000000000000000000                    N
5165139743000192ISENTO        20241007MG1  00044254050000000000000000000000000000000000000000000000000000                    N
5165139743000192ISENTO        20241007MG1  00044251020000000000000000000000000000000000000000000000000000                    N
51215322700001130624775200061 20241010MG1  00995914030000000000000000000000000000000000000000000000000000                    N
51215322700001130624775200061 20241018MG1  01002314030000000000000000000000000000000000000000000000000000                    N
51215322700001130624775200061 20241028MG1  01010611020000000000000000000000000000000000000000000000000000                    N
51215322700001130624775200061 20241028MG1  01010614030000000000000000000000000000000000000000000000000000                    N
5100003185696638ISENTO        20241028MG1  00044356560000000000000000000000000000000000000000000000000000                    N
5100003185696638ISENTO        20241028MG1  00044351020000000000000000000000000000000000000000000000000000                    N
5100003185696638ISENTO        20241028MG1  00044354050000000000000000000000000000000000000000000000000000                    N
5100039099261691ISENTO        20241028MG1  00044454050000000000000000000000000000000000000000000000000000                    N
5100001492908614ISENTO        20241028MG1  00044554050000000000000000000000000000000000000000000000000000                    N
5100001492908614ISENTO        20241028MG1  00044551020000000000000000000000000000000000000000000000000000                    N
5100012950922635ISENTO        20241028MG1  00044656560000000000000000000000000000000000000000000000000000                    N
5100012950922635ISENTO        20241028MG1  00044654050000000000000000000000000000000000000000000000000000                    N
5100012950922635ISENTO        20241028MG1  00044651020000000000000000000000000000000000000000000000000000                    N
5100007773826609ISENTO        20241028MG1  00044754050000000000000000000000000000000000000000000000000000                    N
5100001340790602ISENTO        20241028MG1  00044854050000000000000000000000000000000000000000000000000000                    N
5100039974233852ISENTO        20241029MG1  00044951020000000000000000000000000000000000000000000000000000                    N
5100039974233852ISENTO        20241029MG1  00044954050000000000000000000000000000000000000000000000000000                    N
5100071001352653ISENTO        20241030MG1  00045056560000000000000000000000000000000000000000000000000000                    N
5100071001352653ISENTO        20241030MG1  00045054050000000000000000000000000000000000000000000000000000                    N
5100071001352653ISENTO        20241030MG1  00045051020000000000000000000000000000000000000000000000000000                    N
5100007773826609ISENTO        20241030MG1  00045154050000000000000000000000000000000000000000000000000000                    N
5100004300672679ISENTO        20241030MG1  00045254050000000000000000000000000000000000000000000000000000                    N
5100004300672679ISENTO        20241030MG1  00045251020000000000000000000000000000000000000000000000000000                    N
5100029179122604ISENTO        20241030MG1  00045351020000000000000000000000000000000000000000000000000000                    N
5100029179122604ISENTO        20241030MG1  00045354050000000000000000000000000000000000000000000000000000                    N
5100005227936650ISENTO        20241030MG1  00045451020000000000000000000000000000000000000000000000000000                    N
5100005227936650ISENTO        20241030MG1  00045456560000000000000000000000000000000000000000000000000000                    N
5100005227936650ISENTO        20241030MG1  00045454050000000000000000000000000000000000000000000000000000                    N
5100037264567672ISENTO        20241030MG1  00045554050000000000000000000000000000000000000000000000000000                    N
5100037264567672ISENTO        20241030MG1  00045556560000000000000000000000000000000000000000000000000000                    N
5100000650928644ISENTO        20241030MG1  00045654050000000000000000000000000000000000000000000000000000                    N
5100000123362628ISENTO        20241030MG1  00045751020000000000000000000000000000000000000000000000000000                    N
5100000123362628ISENTO        20241030MG1  00045754050000000000000000000000000000000000000000000000000000                    N
5100083918191672ISENTO        20241030MG1  00045856560000000000000000000000000000000000000000000000000000                    N
5100083918191672ISENTO        20241030MG1  00045854050000000000000000000000000000000000000000000000000000                    N
5100053382986604ISENTO        20241030MG1  00045954050000000000000000000000000000000000000000000000000000                    N
5100016385284620ISENTO        20241030MG1  00046054050000000000000000000000000000000000000000000000000000                    N
5100054919428634ISENTO        20241030MG1  00046154050000000000000000000000000000000000000000000000000000                    N
5100054919428634ISENTO        20241030MG1  00046151020000000000000000000000000000000000000000000000000000                    N
5100004913779672ISENTO        20241031MG1  00046254050000000000000000000000000000000000000000000000000000                    N
5100039099261691ISENTO        20241031MG1  00046354050000000000000000000000000000000000000000000000000000                    N
5100000498426688ISENTO        20241031MG1  00046454050000000000000000000000000000000000000000000000000000                    N
5100037354183172ISENTO        20241031MG1  00046554050000000000000000000000000000000000000000000000000000                    N
5100011287241620ISENTO        20241031MG1  00046654050000000000000000000000000000000000000000000000000000                    N
5100020546750672ISENTO        20241031MG1  00046754050000000000000000000000000000000000000000000000000000                    N
5100020546750672ISENTO        20241031MG1  00046756560000000000000000000000000000000000000000000000000000                    N
5100000961720611ISENTO        20241031MG1  00046854050000000000000000000000000000000000000000000000000000                    N
5100000961720611ISENTO        20241031MG1  00046851020000000000000000000000000000000000000000000000000000                    N
5100000961720611ISENTO        20241031MG1  00046856560000000000000000000000000000000000000000000000000000                    N
5100051826127887ISENTO        20241031MG1  00046954050000000000000000000000000000000000000000000000000000                    N
5100075401428634ISENTO        20241031MG1  00047051020000000000000000000000000000000000000000000000000000                    N
5100075401428634ISENTO        20241031MG1  00047054050000000000000000000000000000000000000000000000000000                    N
5100004621598686ISENTO        20241031MG1  00047154050000000000000000000000000000000000000000000000000000                    N
5100049616897691ISENTO        20241031MG1  00047256560000000000000000000000000000000000000000000000000000                    N
5100049616897691ISENTO        20241031MG1  00047254050000000000000000000000000000000000000000000000000000                    N
5100049616897691ISENTO        20241031MG1  00047251020000000000000000000000000000000000000000000000000000                    N
5100007014083678ISENTO        20241031MG1  00047356560000000000000000000000000000000000000000000000000000                    N
5100007014083678ISENTO        20241031MG1  00047354050000000000000000000000000000000000000000000000000000                    N
5100007014083678ISENTO        20241031MG1  00047351020000000000000000000000000000000000000000000000000000                    N
5100000148910696ISENTO        20241031MG1  00047454050000000000000000000000000000000000000000000000000000                    N
5100000148910696ISENTO        20241031MG1  00047451020000000000000000000000000000000000000000000000000000                    N
5100010835151603ISENTO        20241031MG1  00047551020000000000000000000000000000000000000000000000000000                    N
5100029179122604ISENTO        20241031MG1  00047654050000000000000000000000000000000000000000000000000000                    N
5100029267838172ISENTO        20241031MG1  00047751020000000000000000000000000000000000000000000000000000                    N
5100029267838172ISENTO        20241031MG1  00047754050000000000000000000000000000000000000000000000000000                    N
5100001441980610ISENTO        20241031MG1  00047856560000000000000000000000000000000000000000000000000000                    N
5100001441980610ISENTO        20241031MG1  00047854050000000000000000000000000000000000000000000000000000                    N
5100001441980610ISENTO        20241031MG1  00047851020000000000000000000000000000000000000000000000000000                    N
5100009864984675ISENTO        20241031MG1  00047954050000000000000000000000000000000000000000000000000000                    N
5100011287241620ISENTO        20241031MG1  00048054050000000000000000000000000000000000000000000000000000                    N
5100011287241620ISENTO        20241031MG1  00048154050000000000000000000000000000000000000000000000000000                    N
5100005231670677ISENTO        20241031MG1  00048254050000000000000000000000000000000000000000000000000000                    N
5100024479659668ISENTO        20241031MG1  00048356560000000000000000000000000000000000000000000000000000                    N
5100024479659668ISENTO        20241031MG1  00048354050000000000000000000000000000000000000000000000000000                    N
5100024479659668ISENTO        20241031MG1  00048351020000000000000000000000000000000000000000000000000000                    N
5100007850812670ISENTO        20241031MG1  00048456560000000000000000000000000000000000000000000000000000                    N
5100007850812670ISENTO        20241031MG1  00048454050000000000000000000000000000000000000000000000000000                    N
5100024479659668ISENTO        20241031MG1  00048654050000000000000000000000000000000000000000000000000000                    N
5100024479659668ISENTO        20241031MG1  00048754050000000000000000000000000000000000000000000000000000                    N
5100016338952620ISENTO        20241031MG1  00048856560000000000000000000000000000000000000000000000000000                    N
5100016338952620ISENTO        20241031MG1  00048854050000000000000000000000000000000000000000000000000000                    N
5100016338952620ISENTO        20241031MG1  00048851020000000000000000000000000000000000000000000000000000                    N
5100061125946687ISENTO        20241031MG1  00048954050000000000000000000000000000000000000000000000000000                    N
5100008885779662ISENTO        20241031MG1  00049054050000000000000000000000000000000000000000000000000000                    N
5100003402706679ISENTO        20241031MG1  00049151020000000000000000000000000000000000000000000000000000                    N
5100003402706679ISENTO        20241031MG1  00049156560000000000000000000000000000000000000000000000000000                    N
5100003402706679ISENTO        20241031MG1  00049154050000000000000000000000000000000000000000000000000000                    N
5100090122836634ISENTO        20241031MG1  00049254050000000000000000000000000000000000000000000000000000                    N
5100001185162640ISENTO        20241031MG1  00049354050000000000000000000000000000000000000000000000000000                    N
5100003769792670ISENTO        20241031MG1  00049454050000000000000000000000000000000000000000000000000000                    N
5100003769792670ISENTO        20241031MG1  00049456560000000000000000000000000000000000000000000000000000                    N
5300003185696638ISENTO        20241028MG551  0004435656P000000000000000000000000000000000000000N                              
5300003185696638ISENTO        20241028MG551  0004435405P000000000000000000000000000000000000000N                              
5300003185696638ISENTO        20241028MG551  0004435102P000000000000000000000000000000000000000N                              
5300039974233852ISENTO        20241029MG551  0004495405P000000000000000000000000000000000000000N                              
5300039974233852ISENTO        20241029MG551  0004495102P000000000000000000000000000000000000000N                              
5365139743000192ISENTO        20241007MG551  0004425656P000000000000000000000000000000000000000N                              
5365139743000192ISENTO        20241007MG551  0004425405P000000000000000000000000000000000000000N                              
5365139743000192ISENTO        20241007MG551  0004425102P000000000000000000000000000000000000000N                              
5300039099261691ISENTO        20241028MG551  0004445405P000000000000000000000000000000000000000N                              
5300004913779672ISENTO        20241031MG551  0004625405P000000000000000000000000000000000000000N                              
5300001492908614ISENTO        20241028MG551  0004455405P000000000000000000000000000000000000000N                              
5300001492908614ISENTO        20241028MG551  0004455102P000000000000000000000000000000000000000N                              
5300012950922635ISENTO        20241028MG551  0004465656P000000000000000000000000000000000000000N                              
5300012950922635ISENTO        20241028MG551  0004465405P000000000000000000000000000000000000000N                              
5300012950922635ISENTO        20241028MG551  0004465102P000000000000000000000000000000000000000N                              
5300071001352653ISENTO        20241030MG551  0004505656P000000000000000000000000000000000000000N                              
5300071001352653ISENTO        20241030MG551  0004505405P000000000000000000000000000000000000000N                              
5300071001352653ISENTO        20241030MG551  0004505102P000000000000000000000000000000000000000N                              
5300007773826609ISENTO        20241028MG551  0004475405P000000000000000000000000000000000000000N                              
5300001340790602ISENTO        20241028MG551  0004485405P000000000000000000000000000000000000000N                              
5300039099261691ISENTO        20241031MG551  0004635405P000000000000000000000000000000000000000N                              
5300007773826609ISENTO        20241030MG551  0004515405P000000000000000000000000000000000000000N                              
5300004300672679ISENTO        20241030MG551  0004525405P000000000000000000000000000000000000000N                              
5300004300672679ISENTO        20241030MG551  0004525102P000000000000000000000000000000000000000N                              
5300029179122604ISENTO        20241030MG551  0004535405P000000000000000000000000000000000000000N                              
5300029179122604ISENTO        20241030MG551  0004535102P000000000000000000000000000000000000000N                              
5300000498426688ISENTO        20241031MG551  0004645405P000000000000000000000000000000000000000N                              
5300005227936650ISENTO        20241030MG551  0004545656P000000000000000000000000000000000000000N                              
5300005227936650ISENTO        20241030MG551  0004545405P000000000000000000000000000000000000000N                              
5300005227936650ISENTO        20241030MG551  0004545102P000000000000000000000000000000000000000N                              
5300037264567672ISENTO        20241030MG551  0004555656P000000000000000000000000000000000000000N                              
5300037264567672ISENTO        20241030MG551  0004555405P000000000000000000000000000000000000000N                              
5300037354183172ISENTO        20241031MG551  0004655405P000000000000000000000000000000000000000N                              
5300000650928644ISENTO        20241030MG551  0004565405P000000000000000000000000000000000000000N                              
5300011287241620ISENTO        20241031MG551  0004665405P000000000000000000000000000000000000000N                              
5300000123362628ISENTO        20241030MG551  0004575405P000000000000000000000000000000000000000N                              
5300000123362628ISENTO        20241030MG551  0004575102P000000000000000000000000000000000000000N                              
5300020546750672ISENTO        20241031MG551  0004675656P000000000000000000000000000000000000000N                              
5300020546750672ISENTO        20241031MG551  0004675405P000000000000000000000000000000000000000N                              
5300083918191672ISENTO        20241030MG551  0004585656P000000000000000000000000000000000000000N                              
5300083918191672ISENTO        20241030MG551  0004585405P000000000000000000000000000000000000000N                              
5300053382986604ISENTO        20241030MG551  0004595405P000000000000000000000000000000000000000N                              
5300000961720611ISENTO        20241031MG551  0004685656P000000000000000000000000000000000000000N                              
5300000961720611ISENTO        20241031MG551  0004685405P000000000000000000000000000000000000000N                              
5300000961720611ISENTO        20241031MG551  0004685102P000000000000000000000000000000000000000N                              
5300016385284620ISENTO        20241030MG551  0004605405P000000000000000000000000000000000000000N                              
5300054919428634ISENTO        20241030MG551  0004615405P000000000000000000000000000000000000000N                              
5300054919428634ISENTO        20241030MG551  0004615102P000000000000000000000000000000000000000N                              
5300051826127887ISENTO        20241031MG551  0004695405P000000000000000000000000000000000000000N                              
5300075401428634ISENTO        20241031MG551  0004705405P000000000000000000000000000000000000000N                              
5300075401428634ISENTO        20241031MG551  0004705102P000000000000000000000000000000000000000N                              
5300004621598686ISENTO        20241031MG551  0004715405P000000000000000000000000000000000000000N                              
5300049616897691ISENTO        20241031MG551  0004725656P000000000000000000000000000000000000000N                              
5300049616897691ISENTO        20241031MG551  0004725405P000000000000000000000000000000000000000N                              
5300049616897691ISENTO        20241031MG551  0004725102P000000000000000000000000000000000000000N                              
5300007014083678ISENTO        20241031MG551  0004735656P000000000000000000000000000000000000000N                              
5300007014083678ISENTO        20241031MG551  0004735405P000000000000000000000000000000000000000N                              
5300007014083678ISENTO        20241031MG551  0004735102P000000000000000000000000000000000000000N                              
5300000148910696ISENTO        20241031MG551  0004745405P000000000000000000000000000000000000000N                              
5300000148910696ISENTO        20241031MG551  0004745102P000000000000000000000000000000000000000N                              
5300010835151603ISENTO        20241031MG551  0004755102P000000000000000000000000000000000000000N                              
5300029179122604ISENTO        20241031MG551  0004765405P000000000000000000000000000000000000000N                              
5300029267838172ISENTO        20241031MG551  0004775405P000000000000000000000000000000000000000N                              
5300029267838172ISENTO        20241031MG551  0004775102P000000000000000000000000000000000000000N                              
5300001441980610ISENTO        20241031MG551  0004785656P000000000000000000000000000000000000000N                              
5300001441980610ISENTO        20241031MG551  0004785405P000000000000000000000000000000000000000N                              
5300001441980610ISENTO        20241031MG551  0004785102P000000000000000000000000000000000000000N                              
5300009864984675ISENTO        20241031MG551  0004795405P000000000000000000000000000000000000000N                              
5300011287241620ISENTO        20241031MG551  0004805405P000000000000000000000000000000000000000N                              
5300011287241620ISENTO        20241031MG551  0004815405P000000000000000000000000000000000000000N                              
5300005231670677ISENTO        20241031MG551  0004825405P000000000000000000000000000000000000000N                              
5300024479659668ISENTO        20241031MG551  0004835656P000000000000000000000000000000000000000N                              
5300024479659668ISENTO        20241031MG551  0004835405P000000000000000000000000000000000000000N                              
5300024479659668ISENTO        20241031MG551  0004835102P000000000000000000000000000000000000000N                              
5300007850812670ISENTO        20241031MG551  0004845405P000000000000000000000000000000000000000N                              
5300007850812670ISENTO        20241031MG551  0004845656P000000000000000000000000000000000000000N                              
5300024479659668ISENTO        20241031MG551  0004865405P000000000000000000000000000000000000000N                              
5300024479659668ISENTO        20241031MG551  0004875405P000000000000000000000000000000000000000N                              
5300016338952620ISENTO        20241031MG551  0004885656P000000000000000000000000000000000000000N                              
5300016338952620ISENTO        20241031MG551  0004885405P000000000000000000000000000000000000000N                              
5300016338952620ISENTO        20241031MG551  0004885102P000000000000000000000000000000000000000N                              
5300061125946687ISENTO        20241031MG551  0004895405P000000000000000000000000000000000000000N                              
5300008885779662ISENTO        20241031MG551  0004905405P000000000000000000000000000000000000000N                              
5300003402706679ISENTO        20241031MG551  0004915405P000000000000000000000000000000000000000N                              
5300003402706679ISENTO        20241031MG551  0004915656P000000000000000000000000000000000000000N                              
5300003402706679ISENTO        20241031MG551  0004915102P000000000000000000000000000000000000000N                              
5300090122836634ISENTO        20241031MG551  0004925405P000000000000000000000000000000000000000N                              
5300001185162640ISENTO        20241031MG551  0004935405P000000000000000000000000000000000000000N                              
5300003769792670ISENTO        20241031MG551  0004945405P000000000000000000000000000000000000000N                              
5300003769792670ISENTO        20241031MG551  0004945656P000000000000000000000000000000000000000N                              
53215322700001130624775200061 20241007MG551  0099121403T000000000000000000000000000000000000000N                              
53215322700001130624775200061 20241010MG551  0099591403T000000000000000000000000000000000000000N                              
53215322700001130624775200061 20241018MG551  0100231403T000000000000000000000000000000000000000N                              
53215322700001130624775200061 20241028MG551  0101061403T000000000000000000000000000000000000000N                              
53215322700001130624775200061 20241028MG551  0101061102T000000000000000000000000000000000000000N                              
5400000123362628551  00045754055000011112          000000010000000000319000000000000000000000000000000000000000000000000000000
5400000123362628551  0004575405500002775           000000040000000000094000000000000000000000000000000000000000000000000000000
5400000123362628551  0004575405500003774           000000010000000000154000000000000000000000000000000000000000000000000000000
5400000123362628551  0004575405500004916           000000040000000000160000000000000000000000000000000000000000000000000000000
5400000123362628551  0004575405500005829           000000010000000000026000000000000000000000000000000000000000000000000000000
5400000123362628551  0004575405500006736           000000010000000000019000000000000000000000000000000000000000000000000000000
5400000123362628551  0004575102102007972           000000010000000000005000000000000000000000000000000000000000000000000000000
5400000148910696551  0004745405500001633           000000045000000000261000000000000000000000000000000000000000000000000000000
5400000148910696551  0004745405500002829           000000010000000000026000000000000000000000000000000000000000000000000000000
5400000148910696551  0004745405500003666           000000010000000000089000000000000000000000000000000000000000000000000000000
5400000148910696551  0004745102102004972           000000010000000000005000000000000000000000000000000000000000000000000000000
5400000498426688551  0004645405500001633           000000030000000000174000000000000000000000000000000000000000000000000000000
5400000498426688551  0004645405500002745           000000010000000000034000000000000000000000000000000000000000000000000000000
5400000498426688551  0004645405500003624           000000010000000000052000000000000000000000000000000000000000000000000000000
5400000498426688551  00046454055000041232          000000010000000000035000000000000000000000000000000000000000000000000000000
5400000650928644551  0004565405500001578           000000010000000000068000000000000000000000000000000000000000000000000000000
5400000650928644551  00045654055000021216          000000010000000000129000000000000000000000000000000000000000000000000000000
5400000650928644551  0004565405500003929           000000010000000000034000000000000000000000000000000000000000000000000000000
5400000650928644551  0004565405500004779           000000010000000000029000000000000000000000000000000000000000000000000000000
5400000650928644551  0004565405500005627           000000010000000000032000000000000000000000000000000000000000000000000000000
5400000650928644551  0004565405500006732           000000010000000000065000000000000000000000000000000000000000000000000000000
5400000650928644551  0004565405500007750           000000010000000000216000000000000000000000000000000000000000000000000000000
5400000650928644551  0004565405500008509           000000020000000000068000000000000000000000000000000000000000000000000000000
5400000961720611551  00046856565000011260          000000040000000000168000000000000000000000000000000000000000000000000000000
5400000961720611551  0004685405500002745           000000010000000000044000000000000000000000000000000000000000000000000000000
5400000961720611551  0004685405500003621           000000010000000000052000000000000000000000000000000000000000000000000000000
5400000961720611551  0004685102102004972           000000010000000000005000000000000000000000000000000000000000000000000000000
5400001185162640551  00049354055000011249          000000010000000000052000000000000000000000000000000000000000000000000000000
5400001340790602551  0004485405500001855           000000030000000000138000000000000000000000000000000000000000000000000000000
5400001340790602551  0004485405500002882           000000010000000000026000000000000000000000000000000000000000000000000000000
5400001340790602551  0004485405500003929           000000010000000000034000000000000000000000000000000000000000000000000000000
5400001441980610551  00047856565000011260          000000040000000000176000000000000000000000000000000000000000000000000000000
5400001441980610551  00047854055000021055          000000010000000000046000000000000000000000000000000000000000000000000000000
5400001441980610551  0004785405500003882           000000010000000000026000000000000000000000000000000000000000000000000000000
5400001441980610551  0004785102102004972           000000010000000000005000000000000000000000000000000000000000000000000000000
5400001492908614551  0004455405500001633           000000040000000000232000000000000000000000000000000000000000000000000000000
5400001492908614551  0004455405500002882           000000010000000000026000000000000000000000000000000000000000000000000000000
5400001492908614551  0004455405500003874           000000010000000000058000000000000000000000000000000000000000000000000000000
5400001492908614551  0004455102102004972           000000010000000000016000000000000000000000000000000000000000000000000000000
5400001492908614551  0004455405500005548           000000010000000000136000000000000000000000000000000000000000000000000000000
5400001492908614551  00044554055000061296          000000020000000000238000000000000000000000000000000000000000000000000000000
5400003185696638551  00044356565000011260          000000050000000000220000000000000000000000000000000000000000000000000000000
5400003185696638551  00044354055000021231          000000010000000000075000000000000000000000000000000000000000000000000000000
5400003185696638551  00044354055000031053          000000010000000000034000000000000000000000000000000000000000000000000000000
5400003185696638551  0004435102102004972           000000010000000000016000000000000000000000000000000000000000000000000000000
5400003402706679551  00049154055000011239          000000010000000000472000000000000000000000000000000000000000000000000000000
5400003402706679551  00049156565000021260          000000045000000000198000000000000000000000000000000000000000000000000000000
5400003402706679551  00049154055000031053          000000010000000000034000000000000000000000000000000000000000000000000000000
5400003402706679551  0004915405500004659           000000010000000000036000000000000000000000000000000000000000000000000000000
5400003402706679551  0004915102102005972           000000010000000000016000000000000000000000000000000000000000000000000000000
5400003769792670551  0004945405500001774           000000010000000000184000000000000000000000000000000000000000000000000000000
5400003769792670551  0004945405500002636           000000040000000000092000000000000000000000000000000000000000000000000000000
5400003769792670551  00049454055000031315          000000010000000000034000000000000000000000000000000000000000000000000000000
5400003769792670551  0004945656500004887           000000010000000000044000000000000000000000000000000000000000000000000000000
5400004300672679551  0004525405500001915           000000045000000000198000000000000000000000000000000000000000000000000000000
5400004300672679551  00045254055000021053          000000010000000000034000000000000000000000000000000000000000000000000000000
5400004300672679551  0004525405500003929           000000010000000000036000000000000000000000000000000000000000000000000000000
5400004300672679551  0004525102102004972           000000010000000000016000000000000000000000000000000000000000000000000000000
5400004621598686551  00047154055000011396          000000010000000000348000000000000000000000000000000000000000000000000000000
5400004913779672551  00046254055000011002          000000010000000000145000000000000000000000000000000000000000000000000000000
5400004913779672551  00046254055000021223          000000010000000000015000000000000000000000000000000000000000000000000000000
5400004913779672551  0004625405500003619           000000010000000000086000000000000000000000000000000000000000000000000000000
5400004913779672551  0004625405500004578           000000010000000000068000000000000000000000000000000000000000000000000000000
5400004913779672551  00046254055000051216          000000010000000000129000000000000000000000000000000000000000000000000000000
5400004913779672551  00046254055000061382          000000010000000000096000000000000000000000000000000000000000000000000000000
5400004913779672551  00046254055000071381          000000010000000000098000000000000000000000000000000000000000000000000000000
5400004913779672551  00046254055000081383          000000080000000000316000000000000000000000000000000000000000000000000000000
5400005227936650551  00045456565000011260          000000040000000000224000000000000000000000000000000000000000000000000000000
5400005227936650551  0004545405500002680           000000010000000000036000000000000000000000000000000000000000000000000000000
5400005227936650551  0004545405500003621           000000010000000000052000000000000000000000000000000000000000000000000000000
5400005227936650551  0004545102102004972           000000010000000000016000000000000000000000000000000000000000000000000000000
5400005231670677551  00048254055000011401          000000010000000000198000000000000000000000000000000000000000000000000000000
5400005231670677551  00048254055000021400          000000040000000000948000000000000000000000000000000000000000000000000000000
5400005231670677551  00048254055000031402          000000040000000000115360000000000000000000000000000000000000000000000000000
5400007014083678551  00047356565000011260          000000045000000000198000000000000000000000000000000000000000000000000000000
5400007014083678551  0004735405500002938           000000010000000000036000000000000000000000000000000000000000000000000000000
5400007014083678551  0004735405500003621           000000010000000000054000000000000000000000000000000000000000000000000000000
5400007014083678551  0004735102102004972           000000010000000000005000000000000000000000000000000000000000000000000000000
5400007773826609551  0004475405500001915           000000030000000000132000000000000000000000000000000000000000000000000000000
5400007773826609551  0004475405500002882           000000010000000000026000000000000000000000000000000000000000000000000000000
5400007773826609551  0004475405500003655           000000010000000000034000000000000000000000000000000000000000000000000000000
5400007773826609551  0004515405500001801           000000010000000000052000000000000000000000000000000000000000000000000000000
5400007773826609551  0004515405500002652           000000010000000000064000000000000000000000000000000000000000000000000000000
5400007773826609551  0004515405500003653           000000010000000000024000000000000000000000000000000000000000000000000000000
5400007850812670551  00048454055000011307          000000010000000000527000000000000000000000000000000000000000000000000000000
5400007850812670551  00048454055000021143          000000010000000000074000000000000000000000000000000000000000000000000000000
5400007850812670551  0004845405500003726           000000010000000000199000000000000000000000000000000000000000000000000000000
5400007850812670551  00048454055000041024          000000010000000000048000000000000000000000000000000000000000000000000000000
5400007850812670551  0004845405500005772           000000040000000000892000000000000000000000000000000000000000000000000000000
5400007850812670551  0004845405500006773           000000020000000000138000000000000000000000000000000000000000000000000000000
5400007850812670551  00048454055000071236          000000010000000000285000000000000000000000000000000000000000000000000000000
5400007850812670551  00048454055000081349          000000010000000000034000000000000000000000000000000000000000000000000000000
5400007850812670551  0004845656500009886           000000005000000000023000000000000000000000000000000000000000000000000000000
5400008885779662551  0004905405500001619           000000010000000000087000000000000000000000000000000000000000000000000000000
5400008885779662551  0004905405500002578           000000010000000000068000000000000000000000000000000000000000000000000000000
5400008885779662551  00049054055000031382          000000010000000000096000000000000000000000000000000000000000000000000000000
5400008885779662551  00049054055000041230          000000010000000000056000000000000000000000000000000000000000000000000000000
5400008885779662551  0004905405500005790           000000010000000000044000000000000000000000000000000000000000000000000000000
5400008885779662551  0004905405500006676           000000010000000000056000000000000000000000000000000000000000000000000000000
5400009864984675551  00047954055000011386          000000010000000000359000000000000000000000000000000000000000000000000000000
5400009864984675551  0004795405500002509           000000010000000000034000000000000000000000000000000000000000000000000000000
5400010835151603551  00047551021020011259          000000010000000000035000000000000000000000000000000000000000000000000000000
5400011287241620551  0004665405500001908           000000010000000000342000000000000000000000000000000000000000000000000000000
5400011287241620551  00046654055000021078          000000010000000000108000000000000000000000000000000000000000000000000000000
5400011287241620551  00046654055000031390          000000010000000000194000000000000000000000000000000000000000000000000000000
5400011287241620551  0004665405500004509           000000010000000000034000000000000000000000000000000000000000000000000000000
5400011287241620551  00048054055000011360          000000020000000000228000000000000000000000000000000000000000000000000000000
5400011287241620551  00048054055000021404          000000010000000000074000000000000000000000000000000000000000000000000000000
5400011287241620551  0004815405500001509           000000010000000000034000000000000000000000000000000000000000000000000000000
5400012950922635551  0004465656500001886           000000030000000000138000000000000000000000000000000000000000000000000000000
5400012950922635551  0004465405500002882           000000010000000000026000000000000000000000000000000000000000000000000000000
5400012950922635551  0004465102102003972           000000010000000000006000000000000000000000000000000000000000000000000000000
5400016338952620551  0004885656500001886           000000045000000000207000000000000000000000000000000000000000000000000000000
5400016338952620551  0004885405500002745           000000010000000000034000000000000000000000000000000000000000000000000000000
5400016338952620551  0004885405500003655           000000010000000000046000000000000000000000000000000000000000000000000000000
5400016338952620551  0004885102102004972           000000010000000000016000000000000000000000000000000000000000000000000000000
5400016385284620551  0004605405500001908           000000010000000000498000000000000000000000000000000000000000000000000000000
5400020546750672551  00046756565000011260          000000040000000000176000000000000000000000000000000000000000000000000000000
5400020546750672551  0004675405500002882           000000010000000000026000000000000000000000000000000000000000000000000000000
5400020546750672551  0004675405500003746           000000010000000000045000000000000000000000000000000000000000000000000000000
5400020546750672551  00046754055000041054          000000010000000000016000000000000000000000000000000000000000000000000000000
5421532270000113551  00991214030600011358          000000020000000000112100000000000000000000000000000000000000000000000000000
5421532270000113551  00991214030600021359          000000020000000000144580000000000000000000000000000000019840000000000000000
5421532270000113551  0099121403060003793           000000020000000000599480000000000000000000000000000000080400000000000000000
5421532270000113551  00991214030600041360          000000020000000000172200000000000000000000000000000000014290000000000000000
5421532270000113551  0099121403060005798           000000010000000000153520000000000000000000000000000000020680000000000000000
5421532270000113551  00991214030600061061          000000010000000000043050000000000000000000000000000000000000000000000000000
5421532270000113551  00991214030600071082          000000020000000000039000000000000000000000000000000000004270000000000000000
5421532270000113551  00991214030600081361          000000020000000000058480000000000000000000000000000000006950000000000000000
5421532270000113551  00991214030600091362          000000010000000000043460000000000000000000000000000000000000000000000000000
5421532270000113551  0099121403060010803           000000020000000000013000000000000000000000000000000000000000000000000000000
5421532270000113551  0099121403060011750           000000010000000000163270000000000000000000000000000000023470000000000000000
5421532270000113551  0099121403060012515           000000040000000000079600000000000000000000000000000000011140000000000000000
5421532270000113551  0099121403060013750           000000010000000000163270000000000000000000000000000000023470000000000000000
5421532270000113551  0099121403060014808           000000010000000000103570000000000000000000000000000000011540000000000000000
5421532270000113551  00991214030600151363          000000010000000000032090000000000000000000000000000000004250000000000000000
5421532270000113551  00991214030600161364          000000010000000000093410000000000000000000000000000000000000000000000000000
5421532270000113551  0099121403060017926           000000010000000000145810000000000000000000000000000000014630000000000000000
5421532270000113551  00991214030600181054          000000010000000000012180000000000000000000000000000000000760000000000000000
5421532270000113551  00991214030600191365          000000010000000000272120000000000000000000000000000000000000000000000000000
5421532270000113551  0099121403060020865           000000020000000000210380000000000000000000000000000000026650000000000000000
5421532270000113551  0099121403060021944           000000010000000000072290000000000000000000000000000000000000000000000000000
5421532270000113551  00991214030600221366          000000040000000000809040000000000000000000000000000000073570000000000000000
5421532270000113551  0099121403060023571           000000010000000000103160000000000000000000000000000000008680000000000000000
5421532270000113551  0099121403060024543           000000010000000000052800000000000000000000000000000000007090000000000000000
5421532270000113551  00991214030600251367          000000010000000000109660000000000000000000000000000000013270000000000000000
5421532270000113551  0099121403060026642           000000010000000000073920000000000000000000000000000000009380000000000000000
5421532270000113551  0099121403060027637           000000010000000000052800000000000000000000000000000000009770000000000000000
5421532270000113551  00991214030600281368          000000010000000000072290000000000000000000000000000000008320000000000000000
5421532270000113551  0099121403060029789           000000010000000000137280000000000000000000000000000000011270000000000000000
5421532270000113551  00995914030600011343          000000040000000000159200000000000000000000000000000000029110000000000000000
5421532270000113551  00995914030600021369          000000010000000000028430000000000000000000000000000000002690000000000000000
5421532270000113551  0099591403060003615           000000010000000000024370000000000000000000000000000000000000000000000000000
5421532270000113551  00995914030600041197          000000010000000000085290000000000000000000000000000000010820000000000000000
5421532270000113551  00995914030600051370          000000020000000000146060000000000000000000000000000000019980000000000000000
5421532270000113551  0099591403060006846           000000010000000000054420000000000000000000000000000000005870000000000000000
5421532270000113551  00995914030600071371          000000040000000000129960000000000000000000000000000000023730000000000000000
5421532270000113551  00995914030600081372          000000010000000000125910000000000000000000000000000000014180000000000000000
5421532270000113551  00995914030600091373          000000010000000000071480000000000000000000000000000000000000000000000000000
5421532270000113551  0099591403060010664           000000040000000000086920000000000000000000000000000000010720000000000000000
5421532270000113551  00995914030600111002          000000010000000000103970000000000000000000000000000000011810000000000000000
5421532270000113551  00995914030600121374          000000010000000000008940000000000000000000000000000000000000000000000000000
5421532270000113551  0099591403060013619           000000010000000000064170000000000000000000000000000000007650000000000000000
5421532270000113551  00995914030600141375          000000010000000000055240000000000000000000000000000000000000000000000000000
5421532270000113551  0099591403060015653           000000010000000000013650000000000000000000000000000000001290000000000000000
5421532270000113551  00995914030600161376          000000010000000000442700000000000000000000000000000000084870000000000000000
5421532270000113551  0099591403060017913           000000010000000000040530000000000000000000000000000000006680000000000000000
5421532270000113551  00995914030600181377          000000010000000000051170000000000000000000000000000000007860000000000000000
5421532270000113551  0099591403060019835           000000010000000000012590000000000000000000000000000000001720000000000000000
5421532270000113551  00995914030600201378          000000020000000000203080000000000000000000000000000000023220000000000000000
5421532270000113551  00995914030600211379          000000020000000000097480000000000000000000000000000000011520000000000000000
5421532270000113551  00995914030600221380          000000010000000000124280000000000000000000000000000000010040000000000000000
5421532270000113551  0099591403060023547           000000020000000000181960000000000000000000000000000000024540000000000000000
5421532270000113551  0099591403060024548           000000010000000000103970000000000000000000000000000000011580000000000000000
5421532270000113551  00995914030600251381          000000010000000000071480000000000000000000000000000000009210000000000000000
5421532270000113551  00995914030600261382          000000010000000000072290000000000000000000000000000000005730000000000000000
5421532270000113551  00995914030600271383          000000080000000000240480000000000000000000000000000000000000000000000000000
5421532270000113551  00995914030600281384          000000010000000000134030000000000000000000000000000000015150000000000000000
5421532270000113551  0099591403060029895           000000010000000000039800000000000000000000000000000000005930000000000000000
5421532270000113551  0099591403060030652           000000010000000000042650000000000000000000000000000000005000000000000000000
5421532270000113551  0099591403060031653           000000010000000000013650000000000000000000000000000000001290000000000000000
5421532270000113551  0099591403060032579           000000010000000000052800000000000000000000000000000000000040000000000000000
5421532270000113551  00995914030600331385          000000010000000000072290000000000000000000000000000000000000000000000000000
5421532270000113551  00995914030600341386          000000010000000000268060000000000000000000000000000000019590000000000000000
5421532270000113551  01002314030600011387          000000020000000000141340000000000000000000000000000000015580000000000000000
5421532270000113551  01002314030600021388          000000020000000000071480000000000000000000000000000000008230000000000000000
5421532270000113551  0100231403060003504           000000020000000000027620000000000000000000000000000000003040000000000000000
5421532270000113551  0100231403060004504           000000020000000000027620000000000000000000000000000000003040000000000000000
5421532270000113551  01002314030600051389          000000020000000000162300000000000000000000000000000000019260000000000000000
5421532270000113551  01002314030600061129          000000010000000000098290000000000000000000000000000000010770000000000000000
5421532270000113551  0100231403060007750           000000010000000000163270000000000000000000000000000000022500000000000000000
5421532270000113551  01002314030600081078          000000010000000000080420000000000000000000000000000000009160000000000000000
5421532270000113551  01002314030600091390          000000010000000000146210000000000000000000000000000000014500000000000000000
5421532270000113551  0100231403060010512           000000010000000000251810000000000000000000000000000000035120000000000000000
5421532270000113551  01002314030600111391          000000010000000000112910000000000000000000000000000000000000000000000000000
5421532270000113551  01002314030600121392          000000020000000000123460000000000000000000000000000000015340000000000000000
5421532270000113551  0100231403060013773           000000020000000000101540000000000000000000000000000000011810000000000000000
5421532270000113551  01002314030600141393          000000020000000000023560000000000000000000000000000000000000000000000000000
5421532270000113551  01002314030600151394          000000010000000000060110000000000000000000000000000000004320000000000000000
5421532270000113551  01002314030600161395          000000010000000000060110000000000000000000000000000000004300000000000000000
5421532270000113551  0100231403060017893           000000010000000000043050000000000000000000000000000000005050000000000000000
5421532270000113551  01002314030600181396          000000010000000000259120000000000000000000000000000000028730000000000000000
5421532270000113551  0100231403060019615           000000010000000000024370000000000000000000000000000000000000000000000000000
5421532270000113551  0100231403060020650           000000010000000000053610000000000000000000000000000000000000000000000000000
5421532270000113551  0100231403060021529           000000010000000000050360000000000000000000000000000000006910000000000000000
5421532270000113551  01002314030600221397          000000010000000000015030000000000000000000000000000000000000000000000000000
5421532270000113551  0100231403060023644           000000010000000000028020000000000000000000000000000000002730000000000000000
5421532270000113551  01002314030600241398          000000010000000000054420000000000000000000000000000000006610000000000000000
5421532270000113551  0100231403060025772           000000040000000000679080000000000000000000000000000000097190000000000000000
5421532270000113551  01002314030600261024          000000010000000000034520000000000000000000000000000000002920000000000000000
5421532270000113551  0100231403060027535           000000010000000000152710000000000000000000000000000000016670000000000000000
5421532270000113551  01010614030600011399          000000010000000000365530000000000000000000000000000000048240000000000000000
5421532270000113551  01010614030600021400          000000040000000000688840000000000000000000000000000000053750000000000000000
5421532270000113551  01010614030600031401          000000010000000000145810000000000000000000000000000000015690000000000000000
5421532270000113551  01010614030600041402          000000040000000000115360000000000000000000000000000000013990000000000000000
5421532270000113551  01010614030600051403          000000020000000000344420000000000000000000000000000000034320000000000000000
5421532270000113551  0101061403060006833           000000080000000000120240000000000000000000000000000000013410000000000000000
5421532270000113551  01010614030600071342          000000010000000000038580000000000000000000000000000000005810000000000000000
5421532270000113551  01010614030600081360          000000020000000000172200000000000000000000000000000000022030000000000000000
5421532270000113551  01010614030600091404          000000010000000000055240000000000000000000000000000000006170000000000000000
5421532270000113551  01010614030600101405          000000010000000000041430000000000000000000000000000000000000000000000000000
5421532270000113551  0101061403060011615           000000010000000000024370000000000000000000000000000000000000000000000000000
5421532270000113551  0101061403060012750           000000010000000000163270000000000000000000000000000000023170000000000000000
5421532270000113551  01010614030600131112          000000010000000000199010000000000000000000000000000000027020000000000000000
5421532270000113551  0101061403060014750           000000010000000000163270000000000000000000000000000000023170000000000000000
5421532270000113551  01010614030600151406          000000010000000000381700000000000000000000000000000000053980000000000000000
5421532270000113551  01010614030600161407          000000010000000000251810000000000000000000000000000000040640000000000000000
5421532270000113551  01010614030600171408          000000010000000000043860000000000000000000000000000000007300000000000000000
5421532270000113551  01010614030600181409          000000010000000000027620000000000000000000000000000000002830000000000000000
5421532270000113551  01010611020000191410          000000010000000000003570000000000000000000003570000000000000000000000001800
5421532270000113551  01010614030600201411          000000010000000000013000000000000000000000003570000000000000000000000000000
5421532270000113551  01010614030600211412          000000010000000000034930000000000000000000003570000000000000000000000000000
5421532270000113551  01010614030600221382          000000010000000000072290000000000000000000003570000000005730000000000000000
5421532270000113551  0101061403060023619           000000010000000000064170000000000000000000003570000000000000000000000000000
5421532270000113551  0101061403060024535           000000010000000000153520000000000000000000003570000000016670000000000000000
5421532270000113551  01010614030600251413          000000010000000000341170000000000000000000003570000000039400000000000000000
5421532270000113551  01010614030600261062          000000010000000000125910000000000000000000003570000000000000000000000000000
5400024479659668551  00048356565000011260          000000040000000000176000000000000000000000000000000000000000000000000000000
5400024479659668551  0004835405500002882           000000010000000000026000000000000000000000000000000000000000000000000000000
5400024479659668551  0004835102102003972           000000010000000000005000000000000000000000000000000000000000000000000000000
5400024479659668551  0004865405500001759           000000010000000000114000000000000000000000000000000000000000000000000000000
5400024479659668551  0004865405500002578           000000010000000000058000000000000000000000000000000000000000000000000000000
5400024479659668551  00048654055000031216          000000010000000000129000000000000000000000000000000000000000000000000000000
5400024479659668551  0004865405500004754           000000010000000000126000000000000000000000000000000000000000000000000000000
5400024479659668551  00048654055000051229          000000010000000000046000000000000000000000000000000000000000000000000000000
5400024479659668551  00048654055000061139          000000010000000000044000000000000000000000000000000000000000000000000000000
5400024479659668551  00048754055000011223          000000010000000000048000000000000000000000000000000000000000000000000000000
5400029179122604551  00045354055000011250          000000020000000000128000000000000000000000000000000000000000000000000000000
5400029179122604551  0004535405500002916           000000045000000000180000000000000000000000000000000000000000000000000000000
5400029179122604551  0004535405500003680           000000010000000000044000000000000000000000000000000000000000000000000000000
5400029179122604551  0004535405500004659           000000010000000000054000000000000000000000000000000000000000000000000000000
5400029179122604551  0004535102102005972           000000010000000000005000000000000000000000000000000000000000000000000000000
5400029179122604551  00047654055000011207          000000020000000000172000000000000000000000000000000000000000000000000000000
5400029179122604551  0004765405500002753           000000020000000000164000000000000000000000000000000000000000000000000000000
5400029179122604551  0004765405500003773           000000020000000000136000000000000000000000000000000000000000000000000000000
5400029179122604551  0004765405500004891           000000020000000000044000000000000000000000000000000000000000000000000000000
5400029267838172551  0004775405500001916           000000030000000000120000000000000000000000000000000000000000000000000000000
5400029267838172551  0004775405500002882           000000010000000000026000000000000000000000000000000000000000000000000000000
5400029267838172551  0004775405500003790           000000010000000000044000000000000000000000000000000000000000000000000000000
5400029267838172551  0004775102102004972           000000010000000000006000000000000000000000000000000000000000000000000000000
5400037264567672551  00045556565000011260          000000040000000000176000000000000000000000000000000000000000000000000000000
5400037264567672551  0004555405500002978           000000020000000000084000000000000000000000000000000000000000000000000000000
5400037264567672551  00045554055000031061          000000010000000000059000000000000000000000000000000000000000000000000000000
5400037264567672551  00045554055000041388          000000020000000000078000000000000000000000000000000000000000000000000000000
5400037264567672551  0004555405500005795           000000020000000000204000000000000000000000000000000000000000000000000000000
5400037264567672551  0004555405500006829           000000010000000000026000000000000000000000000000000000000000000000000000000
5400037264567672551  0004555405500007794           000000010000000000054000000000000000000000000000000000000000000000000000000
5400037264567672551  0004555405500008929           000000010000000000019000000000000000000000000000000000000000000000000000000
5400037264567672551  0004555405500009788           000000010000000000116000000000000000000000000000000000000000000000000000000
5400037354183172551  00046554055000011376          000000010000000000582000000000000000000000000000000000000000000000000000000
5400037354183172551  00046554055000021371          000000040000000000168000000000000000000000000000000000000000000000000000000
5400037354183172551  0004655405500003771           000000020000000000224000000000000000000000000000000000000000000000000000000
5400037354183172551  0004655405500004504           000000020000000000044000000000000000000000000000000000000000000000000000000
5400037354183172551  00046554055000051129          000000010000000000129000000000000000000000000000000000000000000000000000000
5400037354183172551  0004655405500006750           000000010000000000218000000000000000000000000000000000000000000000000000000
5400039099261691551  0004445405500001866           000000010000000000085000000000000000000000000000000000000000000000000000000
5400039099261691551  00046354055000011387          000000020000000000184000000000000000000000000000000000000000000000000000000
5400039099261691551  00046354055000021388          000000020000000000096000000000000000000000000000000000000000000000000000000
5400039099261691551  0004635405500003504           000000020000000000044000000000000000000000000000000000000000000000000000000
5400039974233852551  0004495405500001855           000000035000000000161000000000000000000000000000000000000000000000000000000
5400039974233852551  0004495405500002829           000000010000000000026000000000000000000000000000000000000000000000000000000
5400039974233852551  0004495405500003857           000000010000000000028000000000000000000000000000000000000000000000000000000
5400039974233852551  0004495102102004972           000000010000000000005000000000000000000000000000000000000000000000000000000
5400039974233852551  0004495405500005509           000000020000000000068000000000000000000000000000000000000000000000000000000
5400039974233852551  0004495405500006504           000000020000000000044000000000000000000000000000000000000000000000000000000
5400049616897691551  00047256565000011260          000000045000000000198000000000000000000000000000000000000000000000000000000
5400049616897691551  00047254055000021053          000000010000000000034000000000000000000000000000000000000000000000000000000
5400049616897691551  0004725405500003655           000000010000000000036000000000000000000000000000000000000000000000000000000
5400049616897691551  0004725102102004972           000000010000000000005000000000000000000000000000000000000000000000000000000
5400049616897691551  0004725405500005790           000000010000000000044000000000000000000000000000000000000000000000000000000
5400051826127887551  0004695405500001819           000000010000000000024000000000000000000000000000000000000000000000000000000
5400051826127887551  0004695405500002689           000000020000000000024000000000000000000000000000000000000000000000000000000
5400051826127887551  00046954055000031093          000000010000000000033000000000000000000000000000000000000000000000000000000
5400051826127887551  0004695405500004790           000000010000000000044000000000000000000000000000000000000000000000000000000
5400053382986604551  0004595405500001832           000000020000000000128000000000000000000000000000000000000000000000000000000
5400054919428634551  0004615405500001548           000000010000000000142000000000000000000000000000000000000000000000000000000
5400054919428634551  0004615405500002633           000000040000000000232000000000000000000000000000000000000000000000000000000
5400054919428634551  0004615405500003680           000000010000000000026000000000000000000000000000000000000000000000000000000
5400054919428634551  0004615405500004929           000000010000000000042000000000000000000000000000000000000000000000000000000
5400054919428634551  0004615102102005972           000000010000000000016000000000000000000000000000000000000000000000000000000
5400061125946687551  0004895405500001637           000000010000000000068000000000000000000000000000000000000000000000000000000
5400061125946687551  00048954055000021216          000000010000000000129000000000000000000000000000000000000000000000000000000
5400061125946687551  0004895405500003726           000000010000000000199000000000000000000000000000000000000000000000000000000
5465139743000192551  0004425656500001887           000000045000000000198000000000000000000000000000000000000000000000000000000
5465139743000192551  0004425405500002680           000000010000000000034000000000000000000000000000000000000000000000000000000
5465139743000192551  00044254055000031235          000000010000000000044000000000000000000000000000000000000000000000000000000
5465139743000192551  0004425102102004972           000000010000000000016000000000000000000000000000000000000000000000000000000
5400071001352653551  00045056565000011260          000000045000000000198000000000000000000000000000000000000000000000000000000
5400071001352653551  00045054055000021053          000000010000000000034000000000000000000000000000000000000000000000000000000
5400071001352653551  0004505405500003867           000000010000000000036000000000000000000000000000000000000000000000000000000
5400071001352653551  0004505102102004972           000000010000000000016000000000000000000000000000000000000000000000000000000
5400071001352653551  0004505405500005690           000000010000000000015000000000000000000000000000000000000000000000000000000
5400075401428634551  0004705405500001916           000000040000000000160000000000000000000000000000000000000000000000000000000
5400075401428634551  0004705405500002829           000000010000000000026000000000000000000000000000000000000000000000000000000
5400075401428634551  0004705102102003972           000000010000000000005000000000000000000000000000000000000000000000000000000
5400075401428634551  00047054055000041093          000000010000000000033000000000000000000000000000000000000000000000000000000
5400083918191672551  00045856565000011260          000000035000000000154000000000000000000000000000000000000000000000000000000
5400083918191672551  0004585405500002745           000000010000000000034000000000000000000000000000000000000000000000000000000
5400083918191672551  00045854055000031123          000000010000000000054000000000000000000000000000000000000000000000000000000
5400090122836634551  0004925405500001750           000000010000000000218000000000000000000000000000000000000000000000000000000
7520241001202410311002          8484900079519-JUNTA CABECOTE SUPERIOR                        JG    000000000000000000000000000
7520241001202410311024          68138190VW276-LONA FREIO                                     JG    000000000000000000000000000
7520241001202410311053          84219999WOE912                                               PC    000000000000000000000000000
7520241001202410311054          4016930076090-ANEL VEDACAO                                   PC    000000000000000000000000000
7520241001202410311055          84219999LX2830-FILTRO AR                                     PC    000000000000000000000000000
7520241001202410311061          9026209055202374-INTER PRESSAO OLEO                          PC    000000000000000000000000000
7520241001202410311062          8481802155242321-VALVULA TERMOSTATICA                        PC    000000000000000000000000000
7520241001202410311078          87089300511015510-CIL EMBREAGEM                              PC    000000000000000000000000000
7520241001202410311082          87088000SK111S-KIT AMORTECEDOR DIANTEIRO                     JG    000000000000000000000000000
7520241001202410311093          870899907S558100AA-TAMPA RESERVATORIO                        PC    000000000000000000000000000
7520241001202410311112          85113020F000ZS0210-BOBINA IGNICAO PLASTICA                   PC    000000000000000000000000000
7520241001202410311123          84219999HLP5055-FILTRO AR                                    PC    000000000000000000000000000
7520241001202410311129          87083019PD1346-PASTILHA FREIO                                JG    000000000000000000000000000
7520241001202410311139          40093100212017-MANGUEIRA SUPERIOR RADIADOR                   PC    000000000000000000000000000
7520241001202410311143          870894820680374-ARTICULACAO CAIXA DIRECAO                    PC    000000000000000000000000000
7520241001202410311197          8413309020143-BOMBA DAGUA                                    PC    000000000000000000000000000
7520241001202410311207          870894820680177-ARTICULACAO CAIXA DIRECAO                    PC    000000000000000000000000000
7520241001202410311216          84835090VKM11107L-TENSOR CORREIA DENTADA                     PC    000000000000000000000000000
7520241001202410311223          400931008503211-MANGUEIRA                                    PC    000000000000000000000000000
7520241001202410311229          4016930075960-JUNTA TAMPA VALVULA                            PC    000000000000000000000000000
7520241001202410311230          841330901K6955651-ELETROBOMBA                                PC    000000000000000000000000000
7520241001202410311231          84219999C2329-FILTRO AR                                      PC    000000000000000000000000000
7520241001202410311232          84213990CU20040-FILTRO ANTI POLEM                            PC    000000000000000000000000000
7520241001202410311235          84219999HLP7710-FILTRO AR                                    PC    000000000000000000000000000
7520241001202410311236          848180219675916080-CARCACA VALVULA TERMOSTATICA              PC    000000000000000000000000000
7520241001202410311239          841330907000752004-BOMBA DAGUA                               PC    000000000000000000000000000
7520241001202410311249          870894820680192-ARTICULACAO CAIXA DIRECAO                    PC    000000000000000000000000000
7520241001202410311250          870880000441674-KIT AMORTECEDOR TRASEIRO                     JG    000000000000000000000000000
7520241001202410311259          38249941CHESY DESENGRIPANTE E ANTICORROSIVO 125G/300ML 2405-6UN    000000000000000000000000000
7520241001202410311260          27101932RALOY SYNTH PLUS SAE 5W30 API SP - 24/1              LT    000000000000000000000000000
7520241001202410311296          87083090BD3103-DISCO FREIO                                   PC    000000000000000000000000000
7520241001202410311307          4009329052099740-MANGUEIRA                                   PC    000000000000000000000000000
7520241001202410311315          84213990FAC001-FILTRO ANTI POLEM                             PC    000000000000000000000000000
7520241001202410311342          87083090ATE5760-CILINDRO RODA                                PC    000000000000000000000000000
7520241001202410311343          271019325W20-OLEO MOTOR                                      PC    000000000000000000000000000
7520241001202410311349          84213990LA1171-FILTRO ANTI POLEM                             PC    000000000000000000000000000
7520241001202410311358          87083090HFCD38-CUBO RODA DIANTEIRA                           PC    000000000000000000000000000
7520241001202410311359          84821090BAH0031-ROL RODA                                     PC    000000000000000000000000000
7520241001202410311360          87083090BD0178-DISCO FREIO                                   PC    000000000000000000000000000
7520241001202410311361          87088000SK112S-KIT AMORTECEDOR TRASEIRO                      JG    000000000000000000000000000
7520241001202410311362          87083019PD60-PASTILHA FREIO                                  JG    000000000000000000000000000
7520241001202410311363          85123000GB1055-BUZINA                                        PC    000000000000000000000000000
7520241001202410311364          8708999052223896-RESERV AGUA RADIADOR                        PC    000000000000000000000000000
7520241001202410311365          8708800051838911-COXIM CAMBIO                                PC    000000000000000000000000000
7520241001202410311366          85113020BI0075MM-BOBINA IGNICAO PLASTICA                     PC    000000000000000000000000000
7520241001202410311367          87089990VC428-TUBO DAGUA                                     PC    000000000000000000000000000
7520241001202410311368          87089490335668-TERMINAL BARRA DIRECAO                        PC    000000000000000000000000000
7520241001202410311369          39172290087229-TUBO DAGUA                                    PC    000000000000000000000000000
7520241001202410311370          87083090BD1240-DISCO FREIO                                   PC    000000000000000000000000000
7520241001202410311371          85111000SP33-VELA IGNICAO                                    PC    000000000000000000000000000
7520241001202410311372          85443000SCF35-CABO VELA                                      PC    000000000000000000000000000
7520241001202410311373          90318099DS1852-SENSOR ROTACAO                                PC    000000000000000000000000000
7520241001202410311374          40093100153860-MANGUEIRA RESPIRO OLEO                        PC    000000000000000000000000000
7520241001202410311375          84139190VP7020-TAMPA BOMBA ACEL                              PC    000000000000000000000000000
7520241001202410311376          85113020U6043-BOBINA IGNICAO PLASTICA                        PC    000000000000000000000000000
7520241001202410311377          401031005PK1165-CORREIA                                      PC    000000000000000000000000000
7520241001202410311378          87088000SK156S-KIT AMORTECEDOR TRASEIRO                      PC    000000000000000000000000000
7520241001202410311379          84821010F110731-ROL COIFA CAMBIO                             PC    000000000000000000000000000
7520241001202410311380          87083090FI91CPA-SAPATA FREIO C/ LONA COLADA                  PC    000000000000000000000000000
7520241001202410311381          8413309020055-BOMBA DAGUA                                    PC    000000000000000000000000000
7520241001202410311382          8483900024592342-ENGRENAGEM VIRABREQUIM                      PC    000000000000000000000000000
7520241001202410311383          8409996944008040-TUCHO MOTOR                                 PC    000000000000000000000000000
7520241001202410311384          87089990SK1094-COXIM CAMBIO                                  PC    000000000000000000000000000
7520241001202410311385          8708999055254086-TUBO DAGUA                                  PC    000000000000000000000000000
7520241001202410311386          87083090C2155-CIL MESTRE                                     PC    000000000000000000000000000
7520241001202410311387          401699900112439-BUCHA BANDEJA                                PC    000000000000000000000000000
7520241001202410311388          401699900111843-BUCHA BANDEJA                                PC    000000000000000000000000000
7520241001202410311389          870880000441487-KIT AMORTECEDOR DIANTEIRO                    PC    000000000000000000000000000
7520241001202410311390          87089300512017410-CIL ESCRAVO                                PC    000000000000000000000000000
7520241001202410311391          87089100086076-MANGUEIRA                                     PC    000000000000000000000000000
7520241001202410311392          401693000680097-ARTICULACAO CAIXA DIRECAO                    PC    000000000000000000000000000
7520241001202410311393          870899902041097OP-KIT BARRA ESTABILIZADORA                   JG    000000000000000000000000000
7520241001202410311394          87089990NAK97000-TERMINAL BARRA DIRECAO                      PC    000000000000000000000000000
7520241001202410311395          87089990NAK97001-TERMINAL BARRA DIRECAO                      PC    000000000000000000000000000
7520241001202410311396          87083019N1434-PASTILHA FREIO                                 PC    000000000000000000000000000
7520241001202410311397          732090002091036-REP SAPATA FREIO                             JG    000000000000000000000000000
7520241001202410311398          870894820680363-ARTICULACAO CAIXA DIRECAO                    PC    000000000000000000000000000
7520241001202410311399          87089483CX350136-CAIXA DIRECAO                               PC    000000000000000000000000000
7520241001202410311400          85113020BI0121MM-BOBINA IGNICAO PLASTICA                     PC    000000000000000000000000000
7520241001202410311401          90261029SNMM10230-SENSOR DE NIVEL DE COMBUSTIVEL             PC    000000000000000000000000000
7520241001202410311402          85111000LZKR7BDE-VELA IGNICAO                                PC    000000000000000000000000000
7520241001202410311403          87088000SE30761-AMORT SUSPENSAO TRAS                         PC    000000000000000000000000000
7520241001202410311404          87083019PD90-PASTILHA FREIO                                  JG    000000000000000000000000000
7520241001202410311405          40091100624193-MANGUEIRA FILTRO AR                           PC    000000000000000000000000000
7520241001202410311406          870893003000000782-KIT EMBREAGEM                             JG    000000000000000000000000000
7520241001202410311407          90271000OZA723EE9-SONDA LAMBDA                               PC    000000000000000000000000000
7520241001202410311408          8512900012E-PALHETA LIMPADOR                                 PC    000000000000000000000000000
7520241001202410311409          39172290087210-TUBO DAGUA                                    PC    000000000000000000000000000
7520241001202410311410          28539090RQ1010-AGUA DESMINERALIZADA                          PC    000000000000000000000000000
7520241001202410311411          40169300443955465-BUCHA ELETROBOMBA                          PC    000000000000000000000000000
7520241001202410311412          84137090IM20606-ELETROBOMBA                                  PC    000000000000000000000000000
7520241001202410311413          841330907000354501-BOMBA DAGUA                               PC    000000000000000000000000000
752024100120241031504           401699900412440-BUCHA BARRA ESTABILIZADORA                   PC    000000000000000000000000000
752024100120241031509           38190000DOT4 ATE-OLEO FREIO                                  FR    000000000000000000000000000
752024100120241031512           870893003000000144-KIT EMBREAGEM                             JG    000000000000000000000000000
752024100120241031515           85111000BKR7ESB-VELA IGNICAO                                 PC    000000000000000000000000000
752024100120241031529           87087090VKBA4529-KIT ROL TRAS                                JG    000000000000000000000000000
752024100120241031535           87089990SK4953-SUPORTE MOTOR                                 PC    000000000000000000000000000
752024100120241031543           84219999LX4372-FILTRO AR                                     PC    000000000000000000000000000
752024100120241031547           87083090BD3545-DISCO FREIO                                   PC    000000000000000000000000000
752024100120241031548           87083019PD94-PASTILHA FREIO                                  JG    000000000000000000000000000
752024100120241031571           87083019P685-PASTILHA FREIO                                  JG    000000000000000000000000000
752024100120241031578           40103500111SP170H-CORREIA DISTRIBUICAO                       PC    000000000000000000000000000
752024100120241031579           9025909055214055-CARCACA                                     PC    000000000000000000000000000
752024100120241031615           870891005050140-TAMPA RESERVATORIO                           PC    000000000000000000000000000
752024100120241031619           84818021314792-VALVULA TERMOSTATICA                          PC    000000000000000000000000000
752024100120241031621           84219999C24005-FILTRO AR                                     PC    000000000000000000000000000
752024100120241031624           84219999C26135-FILTRO AR                                     PC    000000000000000000000000000
752024100120241031627           84213990CU1919-FILTRO ANTI POLEM                             PC    000000000000000000000000000
752024100120241031633           271019320W20 PRO DS-OLEO MOTOR                               LT    000000000000000000000000000
752024100120241031636           85111000BPR7E-VELA IGNICAO                                   PC    000000000000000000000000000
752024100120241031637           40103500135STP8M190H-CORREIA DISTRIBUICAO                    PC    000000000000000000000000000
752024100120241031642           8413309020089-BOMBA DAGUA                                    PC    000000000000000000000000000
752024100120241031644           87089990MF71-TAMPA RESERVATORIO                              PC    000000000000000000000000000
752024100120241031650           853650903387-INTER PRESSAO OLEO                              PC    000000000000000000000000000
752024100120241031652           84139190F000TE13S3-TAMPA BOMBA COMB                          PC    000000000000000000000000000
752024100120241031653           39173290DS1506-TUBO FLUXO                                    JG    000000000000000000000000000
752024100120241031655           84219999C17021-FILTRO AR                                     PC    000000000000000000000000000
752024100120241031659           84219999HLP6076-FILTRO AR                                    PC    000000000000000000000000000
752024100120241031664           85111000LTR7A10-VELA IGNICAO                                 PC    000000000000000000000000000
752024100120241031666           84219999C2330-FILTRO AR                                      PC    000000000000000000000000000
752024100120241031676           85129000DY202-PALHETA LIMPADOR                               PC    000000000000000000000000000
752024100120241031680           84212300W71930-FILTRO OLEO MOTOR                             PC    000000000000000000000000000
752024100120241031689           853929107443-LAMPADA                                         PC    000000000000000000000000000
752024100120241031690           853929107440-LAMPADA                                         PC    000000000000000000000000000
752024100120241031726           87089990SK3112S-COXIM MOTOR                                  PC    000000000000000000000000000
752024100120241031732           401031006PK1030EE-CORREIA                                    PC    000000000000000000000000000
752024100120241031736           84219999C22952-FILTRO AR                                     PC    000000000000000000000000000
752024100120241031745           84212300W7013-FILTRO OLEO MOTOR                              PC    000000000000000000000000000
752024100120241031746           84219999C22035-FILTRO AR                                     PC    000000000000000000000000000
752024100120241031750           85443000STV25-CABO VELA                                      JG    000000000000000000000000000
752024100120241031753           87089990NAK93017-TERMINAL BARRA DIRECAO                      PC    000000000000000000000000000
752024100120241031754           3917409093383625-CONEXAO                                     PC    000000000000000000000000000
752024100120241031759           8413309020189-BOMBA DAGUA                                    PC    000000000000000000000000000
752024100120241031771           870880000441577-KIT AMORTECEDOR DIANTEIRO                    JG    000000000000000000000000000
752024100120241031772           840991900280156403-BICO INJETOR                              PC    000000000000000000000000000
752024100120241031773           870880000111247-BUCHA BANDEJA                                PC    000000000000000000000000000
752024100120241031774           85443000SCG76-CABO VELA                                      JG    000000000000000000000000000
752024100120241031775           85111000BPR5EY-VELA IGNICAO                                  PC    000000000000000000000000000
752024100120241031779           84212300WK6127-FILTRO COMBUSTIVEL                            PC    000000000000000000000000000
752024100120241031788           87088000503193-PIVO SUSPENSAO                                PC    000000000000000000000000000
752024100120241031789           8708910095048411-RESERV AGUA RADIADOR                        PC    000000000000000000000000000
752024100120241031790           38200000COOLANT UP-ADITIVO RADIADOR                          PC    000000000000000000000000000
752024100120241031793           87088000749104SP-AMORT SUSPENSAO DIANT                       PC    000000000000000000000000000
752024100120241031794           870894820680022-ARTICULACAO CAIXA DIRECAO                    PC    000000000000000000000000000
752024100120241031795           401699900211699-COXIM BANDEJA SUSP DIANT                     PC    000000000000000000000000000
752024100120241031798           87085099JHC03123-HOMOC RODA                                  PC    000000000000000000000000000
752024100120241031801           87088000NAK6058-PIVO SUSPENSAO                               PC    000000000000000000000000000
752024100120241031803           732090002092215-REPARO CENTRALIZADOR PATIM                   PC    000000000000000000000000000
752024100120241031808           87083019PD58-PASTILHA FREIO                                  JG    000000000000000000000000000
752024100120241031819           854430008343253-CHICOTE                                      PC    000000000000000000000000000
752024100120241031829           84212300W6880-FILTRO OLEO MOTOR                              PC    000000000000000000000000000
752024100120241031832           87088000LT60443-BIELETA BARRA ESTABILIZADORA                 PC    000000000000000000000000000
752024100120241031833           870880000120399-BUCHA BANDEJA                                PC    000000000000000000000000000
752024100120241031835           84841000TAR270515-JUNTA COLETOR ESCAP/ADM                    PC    000000000000000000000000000
752024100120241031846           87083019P82-PASTILHA FREIO                                   JG    000000000000000000000000000
752024100120241031855           271019325W40 MAXI PERFORMANC-OLEO MOTOR                      LT    000000000000000000000000000
752024100120241031857           84219999C290031-FILTRO AR                                    PC    000000000000000000000000000
752024100120241031865           87083090BD5602-DISCO FREIO                                   PC    000000000000000000000000000
752024100120241031866           870899902028010OR-COIFA HOMOC                                JG    000000000000000000000000000
752024100120241031867           84219999C33661-FILTRO AR                                     PC    000000000000000000000000000
752024100120241031874           84219999HLP2203-FILTRO AR                                    PC    000000000000000000000000000
752024100120241031882           84212300W6730-FILTRO OLEO MOTOR                              PC    000000000000000000000000000
752024100120241031886           27101932RALOY ULTRA SYNTH SAE 5W40 API SN - 24/1             LT    000000000000000000000000000
752024100120241031887           27101932RALOY ULTRA SYNTH SAE 5W30 API SP - 24/1             LT    000000000000000000000000000
752024100120241031891           870899902043529OP-KIT BARRA ESTABILIZADORA                   JG    000000000000000000000000000
752024100120241031893           84219999LX3452-FILTRO AR                                     PC    000000000000000000000000000
752024100120241031895           84835010VKM32031H-POLIA ALTERNADOR                           PC    000000000000000000000000000
752024100120241031908           870893003000001211-KIT EMBREAGEM                             JG    000000000000000000000000000
752024100120241031913           87083090ATE5780-CILINDRO RODA                                PC    000000000000000000000000000
752024100120241031915           271019325W30 F1 MASTER-OLEO MOTOR                            LT    000000000000000000000000000
752024100120241031916           2710193210W40 GTX-OLEO MOTOR                                 LT    000000000000000000000000000
752024100120241031926           4016930075505-JUNTA TAMPA VALVULA                            PC    000000000000000000000000000
752024100120241031929           84219999C24034-FILTRO AR                                     PC    000000000000000000000000000
752024100120241031938           84219999HU8162X-FILTRO OLEO MOTOR                            PC    000000000000000000000000000
752024100120241031944           40091100C9018-MANGUEIRA FILTRO AR                            PC    000000000000000000000000000
752024100120241031972           4016999050008048-ANEL VEDACAO                                PC    000000000000000000000000000
752024100120241031978           87088000SK1101A-KIT BARRA ESTABILIZADORA                     JG    000000000000000000000000000
90336213140001600034450680073 50000000955100000095530000009554000003207500000178                                             2
90336213140001600034450680073 9900000787                                                                                     2
