10336213140001600034450680073 CRISTINA ISABEL DE CAMPOS          Belo Horizonte                MG31999760132025010120250131331
11Rua Caconde                       00875                      Renascença     31130510VINICIUS MURTA NERY         031934225098
5000010337326649ISENTO        20250108MG551  0006195656P000000001540000000000000000000000000000000000000000000000000154000000N
5000010337326649ISENTO        20250108MG551  0006195405P000000000720000000000000000000000000000000000000000000000000098000000N
5000010337326649ISENTO        20250108MG551  0006195102P000000000400000000000000000000000000000000000000000000000000045000000N
5000091269130625ISENTO        20250109MG551  0006205656P000000001320000000000000000000000000000000000000000000000000132000000N
5000091269130625ISENTO        20250109MG551  0006205405P000000000760000000000000000000000000000000000000000000000000118000000N
5000071223436691ISENTO        20250110MG551  0006235405P000000005850000000000000000000000000000000000000000000000001747000000N
5000053382986604ISENTO        20250109MG551  0006215656P000000001540000000000000000000000000000000000000000000000000154000000N
5000053382986604ISENTO        20250109MG551  0006215405P000000002060000000000000000000000000000000000000000000000000430000000N
5000001447193636ISENTO        20250114MG551  0006395405P000000001380000000000000000000000000000000000000000000000000138000000N
5000004335088680ISENTO        20250109MG551  0006225656P000000001320000000000000000000000000000000000000000000000000132000000N
5000004335088680ISENTO        20250109MG551  0006225405P000000002460000000000000000000000000000000000000000000000000390000000N
5000004335088680ISENTO        20250109MG551  0006225102P000000000060000000000000000000000000000000000000000000000000006000000N
5000029179122604ISENTO        20250127MG551  0006405405P000000004260000000000000000000000000000000000000000000000001379000000N
5000013006665600ISENTO        20250110MG551  0006245405P000000001460000000000000000000000000000000000000000000000000146000000N
50243544960001600027209100075 20250129MG551  0006445405P000000005820000000000000000000000000000000000000000000000001646000000N
50243544960001600027209100075 20250129MG551  0006445656P000000001840000000000000000000000000000000000000000000000000184000000N
50243544960001600027209100075 20250129MG551  0006445102P000000000050000000000000000000000000000000000000000000000000005000000N
5000007753430645ISENTO        20250130MG551  0006495656P000000001980000000000000000000000000000000000000000000000000198000000N
5000007753430645ISENTO        20250130MG551  0006495405P000000002130000000000000000000000000000000000000000000000000683000000N
5000007753430645ISENTO        20250130MG551  0006495102P000000000050000000000000000000000000000000000000000000000000005000000N
5000064536637672ISENTO        20250110MG551  0006255656P000000001320000000000000000000000000000000000000000000000000132000000N
5000064536637672ISENTO        20250110MG551  0006255405P000000000260000000000000000000000000000000000000000000000000026000000N
5000064536637672ISENTO        20250110MG551  0006255102P000000000410000000000000000000000000000000000000000000000000047000000N
5000001220941662ISENTO        20250110MG551  0006265405P000000009350000000000000000000000000000000000000000000000002598000000N
5000095345094691ISENTO        20250127MG551  0006415405P000000008050000000000000000000000000000000000000000000000002883000000N
5000095345094691ISENTO        20250127MG551  0006415102P000000000350000000000000000000000000000000000000000000000000035000000N
5000001534314660ISENTO        20250110MG551  0006275405P000000004050000000000000000000000000000000000000000000000001225000000N
5000001534314660ISENTO        20250110MG551  0006275102P000000000160000000000000000000000000000000000000000000000000016000000N
5000039974233852ISENTO        20250129MG551  0006455405P000000003170000000000000000000000000000000000000000000000000840000000N
5000003057790607ISENTO        20250110MG551  0006285405P000000013180000000000000000000000000000000000000000000000003306000000N
5000003057790607ISENTO        20250110MG551  0006285102P000000000350000000000000000000000000000000000000000000000000035000000N
5000004537847638ISENTO        20250127MG551  0006425102P000000000350000000000000000000000000000000000000000000000000035000000N
5000004537847638ISENTO        20250127MG551  0006425656P000000001760000000000000000000000000000000000000000000000000176000000N
5000004537847638ISENTO        20250127MG551  0006425405P000000001420000000000000000000000000000000000000000000000000296000000N
5000001563860627ISENTO        20250110MG551  0006295405P000000003060000000000000000000000000000000000000000000000000796000000N
5000001563860627ISENTO        20250110MG551  0006295102P000000000160000000000000000000000000000000000000000000000000016000000N
5065139743000192ISENTO        20250131MG551  0006565656P000000001980000000000000000000000000000000000000000000000000198000000N
5065139743000192ISENTO        20250131MG551  0006565405P000000025060000000000000000000000000000000000000000000000012997000000N
5000093381131672ISENTO        20250110MG551  0006305656P000000001760000000000000000000000000000000000000000000000000176000000N
5000093381131672ISENTO        20250110MG551  0006305405P000000000780000000000000000000000000000000000000000000000000130000000N
5000004035651621ISENTO        20250127MG551  0006435405P000000004720000000000000000000000000000000000000000000000002094000000N
5000004035651621ISENTO        20250127MG551  0006435102P000000000400000000000000000000000000000000000000000000000000045000000N
5000005691927655ISENTO        20250110MG551  0006315405P000000003100000000000000000000000000000000000000000000000000584000000N
5000008885779662ISENTO        20250110MG551  0006325405P000000000960000000000000000000000000000000000000000000000000096000000N
5000008885779662ISENTO        20250110MG551  0006325102P000000000350000000000000000000000000000000000000000000000000035000000N
5000060389320625ISENTO        20250129MG551  0006465405P000000002100000000000000000000000000000000000000000000000000386000000N
5000008181057635ISENTO        20250130MG551  0006505656P000000001610000000000000000000000000000000000000000000000000161000000N
5000008181057635ISENTO        20250130MG551  0006505405P000000002920000000000000000000000000000000000000000000000000416000000N
5000008181057635ISENTO        20250130MG551  0006505102P000000000510000000000000000000000000000000000000000000000000067000000N
5000010835151603ISENTO        20250110MG551  0006335656P000000001540000000000000000000000000000000000000000000000000154000000N
5000010835151603ISENTO        20250110MG551  0006335405P000000001000000000000000000000000000000000000000000000000000164000000N
5000010835151603ISENTO        20250110MG551  0006335102P000000000050000000000000000000000000000000000000000000000000005000000N
5000000498426688ISENTO        20250110MG551  0006345405P000000002600000000000000000000000000000000000000000000000000642000000N
5000023313641687ISENTO        20250110MG551  0006355656P000000001760000000000000000000000000000000000000000000000000176000000N
5000023313641687ISENTO        20250110MG551  0006355405P000000002100000000000000000000000000000000000000000000000000602000000N
5000023313641687ISENTO        20250110MG551  0006355102P000000000510000000000000000000000000000000000000000000000000067000000N
5000087958171668ISENTO        20250129MG551  0006475656P000000002200000000000000000000000000000000000000000000000000220000000N
5000087958171668ISENTO        20250129MG551  0006475405P000000002170000000000000000000000000000000000000000000000000570000000N
5000087958171668ISENTO        20250129MG551  0006475102P000000000350000000000000000000000000000000000000000000000000035000000N
5000043857264691ISENTO        20250110MG551  0006365405P000000002800000000000000000000000000000000000000000000000000400000000N
5000043857264691ISENTO        20250110MG551  0006365102P000000000350000000000000000000000000000000000000000000000000035000000N
5000009149559699ISENTO        20250129MG551  0006485405P000000001760000000000000000000000000000000000000000000000000284000000N
5000066352827691ISENTO        20250110MG551  0006375656P000000001540000000000000000000000000000000000000000000000000154000000N
5000066352827691ISENTO        20250110MG551  0006375405P000000000260000000000000000000000000000000000000000000000000026000000N
5000066352827691ISENTO        20250110MG551  0006375102P000000000050000000000000000000000000000000000000000000000000005000000N
5000050774719672ISENTO        20250110MG551  0006385656P000000001320000000000000000000000000000000000000000000000000132000000N
5000050774719672ISENTO        20250110MG551  0006385405P000000000450000000000000000000000000000000000000000000000000064000000N
5000050774719672ISENTO        20250110MG551  0006385102P000000000060000000000000000000000000000000000000000000000000006000000N
5000011923192655ISENTO        20250130MG551  0006515656P000000001980000000000000000000000000000000000000000000000000198000000N
5000011923192655ISENTO        20250130MG551  0006515405P000000000720000000000000000000000000000000000000000000000000110000000N
5000011923192655ISENTO        20250130MG551  0006515102P000000000350000000000000000000000000000000000000000000000000035000000N
5065139743000192ISENTO        20250131MG551  0006575656P000000002200000000000000000000000000000000000000000000000000220000000N
5065139743000192ISENTO        20250131MG551  0006575405P000000004120000000000000000000000000000000000000000000000000688000000N
5000016026276734ISENTO        20250130MG551  0006525656P000000001320000000000000000000000000000000000000000000000000132000000N
5000016026276734ISENTO        20250130MG551  0006525405P000000010520000000000000000000000000000000000000000000000003570000000N
5000023313641687ISENTO        20250130MG551  0006535656P000000001840000000000000000000000000000000000000000000000000184000000N
5000023313641687ISENTO        20250130MG551  0006535405P000000010870000000000000000000000000000000000000000000000007168000000N
5000023313641687ISENTO        20250130MG551  0006535102P000000000050000000000000000000000000000000000000000000000000005000000N
5000001340790602ISENTO        20250130MG551  0006545405P000000001940000000000000000000000000000000000000000000000000494000000N
5000002400675929ISENTO        20250130MG551  0006555656P000000001540000000000000000000000000000000000000000000000000154000000N
5000002400675929ISENTO        20250130MG551  0006555405P000000001140000000000000000000000000000000000000000000000000238000000N
5000001899946659ISENTO        20250131MG551  0006585656P000000000230000000000000000000000000000000000000000000000000023000000N
5000001899946659ISENTO        20250131MG551  0006585405P000000002260000000000000000000000000000000000000000000000000537000000N
5000001899946659ISENTO        20250131MG551  0006585102P000000000350000000000000000000000000000000000000000000000000035000000N
5000053382986604ISENTO        20250131MG551  0006595405P000000000930000000000000000000000000000000000000000000000000132000000N
5000007631997616ISENTO        20250131MG551  0006605405P000000000920000000000000000000000000000000000000000000000000092000000N
5000040085678600ISENTO        20250131MG551  0006615405P000000002370000000000000000000000000000000000000000000000000440000000N
5000004485067696ISENTO        20250131MG551  0006625405P000000011420000000000000000000000000000000000000000000000005130000000N
5000004485067696ISENTO        20250131MG551  0006625656P000000001320000000000000000000000000000000000000000000000000132000000N
5000047980303687ISENTO        20250131MG551  0006635405P000000010400000000000000000000000000000000000000000000000002506000000N
50215322700001130624775200061 20250106MG551  0107661403T000000014483300000000000000000000000000000000000000000000000000000000N
50215322700001130624775200061 20250110MG551  0108251403T000000010382600000000000000000000000000000000000000000000000000000000N
50215322700001130624775200061 20250117MG551  0109091403T000000045642900000000000000000000000000000000000000000000000000000000N
50215322700001130624775200061 20250117MG551  0109091102T000000000308600000000030860000000000555000000000000000000000000001800N
50215322700001130624775200061 20250131MG551  0109991403T000000099558300000000000000000000000000000000000000000000000000000000N
51215322700001130624775200061 20250106MG1  01076614030000000000000000000000000000000000000000000000000000                    N
5100010337326649ISENTO        20250108MG1  00061956560000000000000000000000000000000000000000000000000000                    N
5100010337326649ISENTO        20250108MG1  00061951020000000000000000000000000000000000000000000000000000                    N
5100010337326649ISENTO        20250108MG1  00061954050000000000000000000000000000000000000000000000000000                    N
5100091269130625ISENTO        20250109MG1  00062054050000000000000000000000000000000000000000000000000000                    N
5100091269130625ISENTO        20250109MG1  00062056560000000000000000000000000000000000000000000000000000                    N
5100053382986604ISENTO        20250109MG1  00062154050000000000000000000000000000000000000000000000000000                    N
5100053382986604ISENTO        20250109MG1  00062156560000000000000000000000000000000000000000000000000000                    N
5100004335088680ISENTO        20250109MG1  00062254050000000000000000000000000000000000000000000000000000                    N
5100004335088680ISENTO        20250109MG1  00062251020000000000000000000000000000000000000000000000000000                    N
5100004335088680ISENTO        20250109MG1  00062256560000000000000000000000000000000000000000000000000000                    N
51215322700001130624775200061 20250110MG1  01082514030000000000000000000000000000000000000000000000000000                    N
5100071223436691ISENTO        20250110MG1  00062354050000000000000000000000000000000000000000000000000000                    N
5100013006665600ISENTO        20250110MG1  00062454050000000000000000000000000000000000000000000000000000                    N
5100064536637672ISENTO        20250110MG1  00062556560000000000000000000000000000000000000000000000000000                    N
5100064536637672ISENTO        20250110MG1  00062554050000000000000000000000000000000000000000000000000000                    N
5100064536637672ISENTO        20250110MG1  00062551020000000000000000000000000000000000000000000000000000                    N
5100001220941662ISENTO        20250110MG1  00062654050000000000000000000000000000000000000000000000000000                    N
5100001534314660ISENTO        20250110MG1  00062751020000000000000000000000000000000000000000000000000000                    N
5100001534314660ISENTO        20250110MG1  00062754050000000000000000000000000000000000000000000000000000                    N
5100003057790607ISENTO        20250110MG1  00062854050000000000000000000000000000000000000000000000000000                    N
5100003057790607ISENTO        20250110MG1  00062851020000000000000000000000000000000000000000000000000000                    N
5100001563860627ISENTO        20250110MG1  00062951020000000000000000000000000000000000000000000000000000                    N
5100001563860627ISENTO        20250110MG1  00062954050000000000000000000000000000000000000000000000000000                    N
5100093381131672ISENTO        20250110MG1  00063056560000000000000000000000000000000000000000000000000000                    N
5100093381131672ISENTO        20250110MG1  00063054050000000000000000000000000000000000000000000000000000                    N
5100005691927655ISENTO        20250110MG1  00063154050000000000000000000000000000000000000000000000000000                    N
5100008885779662ISENTO        20250110MG1  00063254050000000000000000000000000000000000000000000000000000                    N
5100008885779662ISENTO        20250110MG1  00063251020000000000000000000000000000000000000000000000000000                    N
5100010835151603ISENTO        20250110MG1  00063354050000000000000000000000000000000000000000000000000000                    N
5100010835151603ISENTO        20250110MG1  00063351020000000000000000000000000000000000000000000000000000                    N
5100010835151603ISENTO        20250110MG1  00063356560000000000000000000000000000000000000000000000000000                    N
5100000498426688ISENTO        20250110MG1  00063454050000000000000000000000000000000000000000000000000000                    N
5100023313641687ISENTO        20250110MG1  00063556560000000000000000000000000000000000000000000000000000                    N
5100023313641687ISENTO        20250110MG1  00063551020000000000000000000000000000000000000000000000000000                    N
5100023313641687ISENTO        20250110MG1  00063554050000000000000000000000000000000000000000000000000000                    N
5100043857264691ISENTO        20250110MG1  00063654050000000000000000000000000000000000000000000000000000                    N
5100043857264691ISENTO        20250110MG1  00063651020000000000000000000000000000000000000000000000000000                    N
5100066352827691ISENTO        20250110MG1  00063751020000000000000000000000000000000000000000000000000000                    N
5100066352827691ISENTO        20250110MG1  00063754050000000000000000000000000000000000000000000000000000                    N
5100066352827691ISENTO        20250110MG1  00063756560000000000000000000000000000000000000000000000000000                    N
5100050774719672ISENTO        20250110MG1  00063856560000000000000000000000000000000000000000000000000000                    N
5100050774719672ISENTO        20250110MG1  00063851020000000000000000000000000000000000000000000000000000                    N
5100050774719672ISENTO        20250110MG1  00063854050000000000000000000000000000000000000000000000000000                    N
5100001447193636ISENTO        20250114MG1  00063954050000000000000000000000000000000000000000000000000000                    N
51215322700001130624775200061 20250117MG1  01090911020000000000000000000000000000000000000000000000000000                    N
51215322700001130624775200061 20250117MG1  01090914030000000000000000000000000000000000000000000000000000                    N
5100029179122604ISENTO        20250127MG1  00064054050000000000000000000000000000000000000000000000000000                    N
5100095345094691ISENTO        20250127MG1  00064151020000000000000000000000000000000000000000000000000000                    N
5100095345094691ISENTO        20250127MG1  00064154050000000000000000000000000000000000000000000000000000                    N
5100004537847638ISENTO        20250127MG1  00064254050000000000000000000000000000000000000000000000000000                    N
5100004537847638ISENTO        20250127MG1  00064256560000000000000000000000000000000000000000000000000000                    N
5100004537847638ISENTO        20250127MG1  00064251020000000000000000000000000000000000000000000000000000                    N
5100004035651621ISENTO        20250127MG1  00064351020000000000000000000000000000000000000000000000000000                    N
5100004035651621ISENTO        20250127MG1  00064354050000000000000000000000000000000000000000000000000000                    N
51243544960001600027209100075 20250129MG1  00064456560000000000000000000000000000000000000000000000000000                    N
51243544960001600027209100075 20250129MG1  00064451020000000000000000000000000000000000000000000000000000                    N
51243544960001600027209100075 20250129MG1  00064454050000000000000000000000000000000000000000000000000000                    N
5100039974233852ISENTO        20250129MG1  00064554050000000000000000000000000000000000000000000000000000                    N
5100060389320625ISENTO        20250129MG1  00064654050000000000000000000000000000000000000000000000000000                    N
5100087958171668ISENTO        20250129MG1  00064754050000000000000000000000000000000000000000000000000000                    N
5100087958171668ISENTO        20250129MG1  00064751020000000000000000000000000000000000000000000000000000                    N
5100087958171668ISENTO        20250129MG1  00064756560000000000000000000000000000000000000000000000000000                    N
5100009149559699ISENTO        20250129MG1  00064854050000000000000000000000000000000000000000000000000000                    N
5100007753430645ISENTO        20250130MG1  00064951020000000000000000000000000000000000000000000000000000                    N
5100007753430645ISENTO        20250130MG1  00064954050000000000000000000000000000000000000000000000000000                    N
5100007753430645ISENTO        20250130MG1  00064956560000000000000000000000000000000000000000000000000000                    N
5100008181057635ISENTO        20250130MG1  00065056560000000000000000000000000000000000000000000000000000                    N
5100008181057635ISENTO        20250130MG1  00065054050000000000000000000000000000000000000000000000000000                    N
5100008181057635ISENTO        20250130MG1  00065051020000000000000000000000000000000000000000000000000000                    N
5100011923192655ISENTO        20250130MG1  00065151020000000000000000000000000000000000000000000000000000                    N
5100011923192655ISENTO        20250130MG1  00065156560000000000000000000000000000000000000000000000000000                    N
5100011923192655ISENTO        20250130MG1  00065154050000000000000000000000000000000000000000000000000000                    N
5100016026276734ISENTO        20250130MG1  00065254050000000000000000000000000000000000000000000000000000                    N
5100016026276734ISENTO        20250130MG1  00065256560000000000000000000000000000000000000000000000000000                    N
5100023313641687ISENTO        20250130MG1  00065351020000000000000000000000000000000000000000000000000000                    N
5100023313641687ISENTO        20250130MG1  00065354050000000000000000000000000000000000000000000000000000                    N
5100023313641687ISENTO        20250130MG1  00065356560000000000000000000000000000000000000000000000000000                    N
5100001340790602ISENTO        20250130MG1  00065454050000000000000000000000000000000000000000000000000000                    N
5100002400675929ISENTO        20250130MG1  00065554050000000000000000000000000000000000000000000000000000                    N
5100002400675929ISENTO        20250130MG1  00065556560000000000000000000000000000000000000000000000000000                    N
51215322700001130624775200061 20250131MG1  01099914030000000000000000000000000000000000000000000000000000                    N
5165139743000192ISENTO        20250131MG1  00065654050000000000000000000000000000000000000000000000000000                    N
5165139743000192ISENTO        20250131MG1  00065656560000000000000000000000000000000000000000000000000000                    N
5165139743000192ISENTO        20250131MG1  00065754050000000000000000000000000000000000000000000000000000                    N
5165139743000192ISENTO        20250131MG1  00065756560000000000000000000000000000000000000000000000000000                    N
5100001899946659ISENTO        20250131MG1  00065856560000000000000000000000000000000000000000000000000000                    N
5100001899946659ISENTO        20250131MG1  00065854050000000000000000000000000000000000000000000000000000                    N
5100001899946659ISENTO        20250131MG1  00065851020000000000000000000000000000000000000000000000000000                    N
5100053382986604ISENTO        20250131MG1  00065954050000000000000000000000000000000000000000000000000000                    N
5100007631997616ISENTO        20250131MG1  00066054050000000000000000000000000000000000000000000000000000                    N
5100040085678600ISENTO        20250131MG1  00066154050000000000000000000000000000000000000000000000000000                    N
5100004485067696ISENTO        20250131MG1  00066254050000000000000000000000000000000000000000000000000000                    N
5100004485067696ISENTO        20250131MG1  00066256560000000000000000000000000000000000000000000000000000                    N
5100047980303687ISENTO        20250131MG1  00066354050000000000000000000000000000000000000000000000000000                    N
5300010337326649ISENTO        20250108MG551  0006195656P000000000000000000000000000000000000000N                              
5300010337326649ISENTO        20250108MG551  0006195405P000000000000000000000000000000000000000N                              
5300010337326649ISENTO        20250108MG551  0006195102P000000000000000000000000000000000000000N                              
5300091269130625ISENTO        20250109MG551  0006205656P000000000000000000000000000000000000000N                              
5300091269130625ISENTO        20250109MG551  0006205405P000000000000000000000000000000000000000N                              
5300071223436691ISENTO        20250110MG551  0006235405P000000000000000000000000000000000000000N                              
5300053382986604ISENTO        20250109MG551  0006215656P000000000000000000000000000000000000000N                              
5300053382986604ISENTO        20250109MG551  0006215405P000000000000000000000000000000000000000N                              
5300001447193636ISENTO        20250114MG551  0006395405P000000000000000000000000000000000000000N                              
5300004335088680ISENTO        20250109MG551  0006225656P000000000000000000000000000000000000000N                              
5300004335088680ISENTO        20250109MG551  0006225405P000000000000000000000000000000000000000N                              
5300004335088680ISENTO        20250109MG551  0006225102P000000000000000000000000000000000000000N                              
5300029179122604ISENTO        20250127MG551  0006405405P000000000000000000000000000000000000000N                              
5300013006665600ISENTO        20250110MG551  0006245405P000000000000000000000000000000000000000N                              
53243544960001600027209100075 20250129MG551  0006445405P000000000000000000000000000000000000000N                              
53243544960001600027209100075 20250129MG551  0006445656P000000000000000000000000000000000000000N                              
53243544960001600027209100075 20250129MG551  0006445102P000000000000000000000000000000000000000N                              
5300007753430645ISENTO        20250130MG551  0006495656P000000000000000000000000000000000000000N                              
5300007753430645ISENTO        20250130MG551  0006495405P000000000000000000000000000000000000000N                              
5300007753430645ISENTO        20250130MG551  0006495102P000000000000000000000000000000000000000N                              
5300064536637672ISENTO        20250110MG551  0006255656P000000000000000000000000000000000000000N                              
5300064536637672ISENTO        20250110MG551  0006255405P000000000000000000000000000000000000000N                              
5300064536637672ISENTO        20250110MG551  0006255102P000000000000000000000000000000000000000N                              
5300001220941662ISENTO        20250110MG551  0006265405P000000000000000000000000000000000000000N                              
5300095345094691ISENTO        20250127MG551  0006415405P000000000000000000000000000000000000000N                              
5300095345094691ISENTO        20250127MG551  0006415102P000000000000000000000000000000000000000N                              
5300001534314660ISENTO        20250110MG551  0006275405P000000000000000000000000000000000000000N                              
5300001534314660ISENTO        20250110MG551  0006275102P000000000000000000000000000000000000000N                              
5300039974233852ISENTO        20250129MG551  0006455405P000000000000000000000000000000000000000N                              
5300003057790607ISENTO        20250110MG551  0006285405P000000000000000000000000000000000000000N                              
5300003057790607ISENTO        20250110MG551  0006285102P000000000000000000000000000000000000000N                              
5300004537847638ISENTO        20250127MG551  0006425102P000000000000000000000000000000000000000N                              
5300004537847638ISENTO        20250127MG551  0006425656P000000000000000000000000000000000000000N                              
5300004537847638ISENTO        20250127MG551  0006425405P000000000000000000000000000000000000000N                              
5300001563860627ISENTO        20250110MG551  0006295405P000000000000000000000000000000000000000N                              
5300001563860627ISENTO        20250110MG551  0006295102P000000000000000000000000000000000000000N                              
5365139743000192ISENTO        20250131MG551  0006565656P000000000000000000000000000000000000000N                              
5365139743000192ISENTO        20250131MG551  0006565405P000000000000000000000000000000000000000N                              
5300093381131672ISENTO        20250110MG551  0006305656P000000000000000000000000000000000000000N                              
5300093381131672ISENTO        20250110MG551  0006305405P000000000000000000000000000000000000000N                              
5300004035651621ISENTO        20250127MG551  0006435405P000000000000000000000000000000000000000N                              
5300004035651621ISENTO        20250127MG551  0006435102P000000000000000000000000000000000000000N                              
5300005691927655ISENTO        20250110MG551  0006315405P000000000000000000000000000000000000000N                              
5300008885779662ISENTO        20250110MG551  0006325405P000000000000000000000000000000000000000N                              
5300008885779662ISENTO        20250110MG551  0006325102P000000000000000000000000000000000000000N                              
5300060389320625ISENTO        20250129MG551  0006465405P000000000000000000000000000000000000000N                              
5300008181057635ISENTO        20250130MG551  0006505656P000000000000000000000000000000000000000N                              
5300008181057635ISENTO        20250130MG551  0006505405P000000000000000000000000000000000000000N                              
5300008181057635ISENTO        20250130MG551  0006505102P000000000000000000000000000000000000000N                              
5300010835151603ISENTO        20250110MG551  0006335656P000000000000000000000000000000000000000N                              
5300010835151603ISENTO        20250110MG551  0006335405P000000000000000000000000000000000000000N                              
5300010835151603ISENTO        20250110MG551  0006335102P000000000000000000000000000000000000000N                              
5300000498426688ISENTO        20250110MG551  0006345405P000000000000000000000000000000000000000N                              
5300023313641687ISENTO        20250110MG551  0006355656P000000000000000000000000000000000000000N                              
5300023313641687ISENTO        20250110MG551  0006355405P000000000000000000000000000000000000000N                              
5300023313641687ISENTO        20250110MG551  0006355102P000000000000000000000000000000000000000N                              
5300087958171668ISENTO        20250129MG551  0006475656P000000000000000000000000000000000000000N                              
5300087958171668ISENTO        20250129MG551  0006475405P000000000000000000000000000000000000000N                              
5300087958171668ISENTO        20250129MG551  0006475102P000000000000000000000000000000000000000N                              
5300043857264691ISENTO        20250110MG551  0006365405P000000000000000000000000000000000000000N                              
5300043857264691ISENTO        20250110MG551  0006365102P000000000000000000000000000000000000000N                              
5300009149559699ISENTO        20250129MG551  0006485405P000000000000000000000000000000000000000N                              
5300066352827691ISENTO        20250110MG551  0006375656P000000000000000000000000000000000000000N                              
5300066352827691ISENTO        20250110MG551  0006375405P000000000000000000000000000000000000000N                              
5300066352827691ISENTO        20250110MG551  0006375102P000000000000000000000000000000000000000N                              
5300050774719672ISENTO        20250110MG551  0006385656P000000000000000000000000000000000000000N                              
5300050774719672ISENTO        20250110MG551  0006385405P000000000000000000000000000000000000000N                              
5300050774719672ISENTO        20250110MG551  0006385102P000000000000000000000000000000000000000N                              
5300011923192655ISENTO        20250130MG551  0006515656P000000000000000000000000000000000000000N                              
5300011923192655ISENTO        20250130MG551  0006515405P000000000000000000000000000000000000000N                              
5300011923192655ISENTO        20250130MG551  0006515102P000000000000000000000000000000000000000N                              
5365139743000192ISENTO        20250131MG551  0006575656P000000000000000000000000000000000000000N                              
5365139743000192ISENTO        20250131MG551  0006575405P000000000000000000000000000000000000000N                              
5300016026276734ISENTO        20250130MG551  0006525656P000000000000000000000000000000000000000N                              
5300016026276734ISENTO        20250130MG551  0006525405P000000000000000000000000000000000000000N                              
5300023313641687ISENTO        20250130MG551  0006535656P000000000000000000000000000000000000000N                              
5300023313641687ISENTO        20250130MG551  0006535405P000000000000000000000000000000000000000N                              
5300023313641687ISENTO        20250130MG551  0006535102P000000000000000000000000000000000000000N                              
5300001340790602ISENTO        20250130MG551  0006545405P000000000000000000000000000000000000000N                              
5300002400675929ISENTO        20250130MG551  0006555656P000000000000000000000000000000000000000N                              
5300002400675929ISENTO        20250130MG551  0006555405P000000000000000000000000000000000000000N                              
5300001899946659ISENTO        20250131MG551  0006585656P000000000000000000000000000000000000000N                              
5300001899946659ISENTO        20250131MG551  0006585405P000000000000000000000000000000000000000N                              
5300001899946659ISENTO        20250131MG551  0006585102P000000000000000000000000000000000000000N                              
5300053382986604ISENTO        20250131MG551  0006595405P000000000000000000000000000000000000000N                              
5300007631997616ISENTO        20250131MG551  0006605405P000000000000000000000000000000000000000N                              
5300040085678600ISENTO        20250131MG551  0006615405P000000000000000000000000000000000000000N                              
5300004485067696ISENTO        20250131MG551  0006625405P000000000000000000000000000000000000000N                              
5300004485067696ISENTO        20250131MG551  0006625656P000000000000000000000000000000000000000N                              
5300047980303687ISENTO        20250131MG551  0006635405P000000000000000000000000000000000000000N                              
53215322700001130624775200061 20250106MG551  0107661403T000000000000000000000000000000000000000N                              
53215322700001130624775200061 20250110MG551  0108251403T000000000000000000000000000000000000000N                              
53215322700001130624775200061 20250117MG551  0109091403T000000000000000000000000000000000000000N                              
53215322700001130624775200061 20250117MG551  0109091102T000000000000000000000000000000000000000N                              
53215322700001130624775200061 20250131MG551  0109991403T000000000000000000000000000000000000000N                              
5400000498426688551  0006345405500001633           000000030000000000174000000000000000000000000000000000000000000000000000000
5400000498426688551  0006345405500002745           000000010000000000034000000000000000000000000000000000000000000000000000000
5400000498426688551  00063454055000031354          000000010000000000052000000000000000000000000000000000000000000000000000000
5400001220941662551  00062654055000011432          000000020000000000812000000000000000000000000000000000000000000000000000000
5400001220941662551  00062654055000021529          000000010000000000039000000000000000000000000000000000000000000000000000000
5400001220941662551  0006265405500003699           000000010000000000084000000000000000000000000000000000000000000000000000000
5400001340790602551  0006545405500001855           000000030000000000132000000000000000000000000000000000000000000000000000000
5400001340790602551  0006545405500002736           000000010000000000036000000000000000000000000000000000000000000000000000000
5400001340790602551  0006545405500003882           000000010000000000026000000000000000000000000000000000000000000000000000000
5400001447193636551  00063954055000011107          000000020000000000138000000000000000000000000000000000000000000000000000000
5400001534314660551  0006275405500001633           000000040000000000232000000000000000000000000000000000000000000000000000000
5400001534314660551  00062754055000021463          000000010000000000049000000000000000000000000000000000000000000000000000000
5400001534314660551  0006275405500003829           000000010000000000026000000000000000000000000000000000000000000000000000000
5400001534314660551  00062754055000041368          000000010000000000098000000000000000000000000000000000000000000000000000000
5400001534314660551  0006275102102005972           000000010000000000016000000000000000000000000000000000000000000000000000000
5400001563860627551  0006295405500001633           000000040000000000232000000000000000000000000000000000000000000000000000000
5400001563860627551  0006295405500002882           000000010000000000026000000000000000000000000000000000000000000000000000000
5400001563860627551  00062954055000031437          000000010000000000048000000000000000000000000000000000000000000000000000000
5400001563860627551  0006295102102004972           000000010000000000016000000000000000000000000000000000000000000000000000000
5400001899946659551  0006585656500001886           000000005000000000023000000000000000000000000000000000000000000000000000000
5400001899946659551  0006585405500002829           000000010000000000026000000000000000000000000000000000000000000000000000000
5400001899946659551  0006585405500003736           000000010000000000036000000000000000000000000000000000000000000000000000000
5400001899946659551  00065854055000041555          000000010000000000034000000000000000000000000000000000000000000000000000000
5400001899946659551  0006585405500005779           000000010000000000031000000000000000000000000000000000000000000000000000000
5400001899946659551  00065854055000061530          000000040000000000099000000000000000000000000000000000000000000000000000000
5400001899946659551  00065851021020071459          000000010000000000035000000000000000000000000000000000000000000000000000000
5400002400675929551  00065556565000011260          000000035000000000154000000000000000000000000000000000000000000000000000000
5400002400675929551  00065554055000021467          000000010000000000044000000000000000000000000000000000000000000000000000000
5400002400675929551  00065554055000031466          000000010000000000036000000000000000000000000000000000000000000000000000000
5400002400675929551  0006555405500004745           000000010000000000034000000000000000000000000000000000000000000000000000000
5400003057790607551  0006285405500001802           000000010000000000819000000000000000000000000000000000000000000000000000000
5400003057790607551  00062851021020021459          000000010000000000035000000000000000000000000000000000000000000000000000000
5400003057790607551  00062854055000031130          000000020000000000350000000000000000000000000000000000000000000000000000000
5400003057790607551  0006285405500004877           000000010000000000149000000000000000000000000000000000000000000000000000000
5400004035651621551  0006435405500001633           000000040000000000232000000000000000000000000000000000000000000000000000000
5400004035651621551  0006435405500002594           000000010000000000036000000000000000000000000000000000000000000000000000000
5400004035651621551  0006435405500003543           000000010000000000078000000000000000000000000000000000000000000000000000000
5400004035651621551  0006435405500004882           000000010000000000026000000000000000000000000000000000000000000000000000000
5400004035651621551  00064354055000051252          000000010000000000032000000000000000000000000000000000000000000000000000000
5400004035651621551  0006435102102006972           000000010000000000005000000000000000000000000000000000000000000000000000000
5400004035651621551  0006435405500007509           000000020000000000068000000000000000000000000000000000000000000000000000000
5400004035651621551  00064351021020081459          000000010000000000035000000000000000000000000000000000000000000000000000000
5400004335088680551  0006225656500001887           000000030000000000132000000000000000000000000000000000000000000000000000000
5400004335088680551  0006225405500002882           000000010000000000026000000000000000000000000000000000000000000000000000000
5400004335088680551  00062254055000031530          000000040000000000092000000000000000000000000000000000000000000000000000000
5400004335088680551  00062254055000041134          000000010000000000128000000000000000000000000000000000000000000000000000000
5400004335088680551  0006225102102005972           000000010000000000006000000000000000000000000000000000000000000000000000000
5400004485067696551  0006625405500001786           000000010000000000669000000000000000000000000000000000000000000000000000000
5400004485067696551  00066256565000021260          000000030000000000132000000000000000000000000000000000000000000000000000000
5400004485067696551  0006625405500003829           000000010000000000034000000000000000000000000000000000000000000000000000000
5400004485067696551  00066254055000041441          000000010000000000049000000000000000000000000000000000000000000000000000000
5400004485067696551  0006625405500005513           000000020000000000076000000000000000000000000000000000000000000000000000000
5400004485067696551  00066254055000061500          000000020000000000208000000000000000000000000000000000000000000000000000000
5400004485067696551  00066254055000071443          000000010000000000106000000000000000000000000000000000000000000000000000000
5400004537847638551  00064251021020011459          000000010000000000035000000000000000000000000000000000000000000000000000000
5400004537847638551  0006425656500002887           000000040000000000176000000000000000000000000000000000000000000000000000000
5400004537847638551  00064254055000031490          000000010000000000038000000000000000000000000000000000000000000000000000000
5400004537847638551  00064254055000041147          000000010000000000078000000000000000000000000000000000000000000000000000000
5400004537847638551  0006425405500005882           000000010000000000026000000000000000000000000000000000000000000000000000000
5400005691927655551  00063154055000011358          000000010000000000274000000000000000000000000000000000000000000000000000000
5400005691927655551  00063154055000021084          000000040000000000036000000000000000000000000000000000000000000000000000000
5400007631997616551  00066054055000011311          000000010000000000092000000000000000000000000000000000000000000000000000000
5400007753430645551  0006495656500001887           000000045000000000198000000000000000000000000000000000000000000000000000000
5400007753430645551  0006495405500002997           000000010000000000058000000000000000000000000000000000000000000000000000000
5400007753430645551  0006495405500003745           000000010000000000034000000000000000000000000000000000000000000000000000000
5400007753430645551  0006495102102004972           000000010000000000005000000000000000000000000000000000000000000000000000000
5400007753430645551  0006495405500005763           000000010000000000051000000000000000000000000000000000000000000000000000000
5400007753430645551  0006495405500006705           000000010000000000034000000000000000000000000000000000000000000000000000000
5400007753430645551  0006495405500007627           000000010000000000036000000000000000000000000000000000000000000000000000000
5400008181057635551  0006505656500001886           000000035000000000161000000000000000000000000000000000000000000000000000000
5400008181057635551  0006505405500002745           000000010000000000036000000000000000000000000000000000000000000000000000000
5400008181057635551  00065054055000031420          000000010000000000052000000000000000000000000000000000000000000000000000000
5400008181057635551  0006505102102004972           000000010000000000016000000000000000000000000000000000000000000000000000000
5400008181057635551  0006505405500005768           000000020000000000204000000000000000000000000000000000000000000000000000000
5400008181057635551  00065051021020061459          000000010000000000035000000000000000000000000000000000000000000000000000000
5400008885779662551  00063254055000011436          000000040000000000096000000000000000000000000000000000000000000000000000000
5400008885779662551  00063251021020021459          000000010000000000035000000000000000000000000000000000000000000000000000000
5400009149559699551  00064854055000011436          000000040000000000108000000000000000000000000000000000000000000000000000000
5400009149559699551  0006485405500002509           000000020000000000068000000000000000000000000000000000000000000000000000000
5400010337326649551  00061956565000011260          000000035000000000154000000000000000000000000000000000000000000000000000000
5400010337326649551  0006195405500002882           000000010000000000026000000000000000000000000000000000000000000000000000000
5400010337326649551  0006195102102003972           000000010000000000005000000000000000000000000000000000000000000000000000000
5400010337326649551  0006195405500004957           000000010000000000046000000000000000000000000000000000000000000000000000000
5400010337326649551  00061951021020051459          000000010000000000035000000000000000000000000000000000000000000000000000000
5400010835151603551  0006335656500001887           000000035000000000154000000000000000000000000000000000000000000000000000000
5400010835151603551  0006335405500002806           000000010000000000064000000000000000000000000000000000000000000000000000000
5400010835151603551  0006335405500003680           000000010000000000036000000000000000000000000000000000000000000000000000000
5400010835151603551  0006335102102004972           000000010000000000005000000000000000000000000000000000000000000000000000000
5400011923192655551  00065156565000011260          000000045000000000198000000000000000000000000000000000000000000000000000000
5400011923192655551  0006515405500002659           000000010000000000038000000000000000000000000000000000000000000000000000000
5400011923192655551  00065154055000031053          000000010000000000034000000000000000000000000000000000000000000000000000000
5400011923192655551  00065151021020041459          000000010000000000035000000000000000000000000000000000000000000000000000000
5400013006665600551  0006245405500001808           000000010000000000146000000000000000000000000000000000000000000000000000000
5400016026276734551  00065256565000011260          000000030000000000132000000000000000000000000000000000000000000000000000000
5400016026276734551  0006525405500002765           000000020000000000638000000000000000000000000000000000000000000000000000000
5400016026276734551  0006525405500003766           000000020000000000234000000000000000000000000000000000000000000000000000000
5400016026276734551  00065254055000041474          000000020000000000136000000000000000000000000000000000000000000000000000000
5400016026276734551  0006525405500005790           000000010000000000044000000000000000000000000000000000000000000000000000000
5421532270000113551  01076614030600011534          000000040000000000549120000000000000000000000000000000093640000000000000000
5421532270000113551  01076614030600021535          000000010000000000113720000000000000000000000000000000000000000000000000000
5421532270000113551  0107661403060003655           000000010000000000029240000000000000000000000000000000003320000000000000000
5421532270000113551  01076614030600041069          000000010000000000056450000000000000000000000000000000008490000000000000000
5421532270000113551  01076614030600051536          000000010000000000060920000000000000000000000000000000006920000000000000000
5421532270000113551  0107661403060006569           000000090000000000361890000000000000000000000000000000000000000000000000000
5421532270000113551  01076614030600071537          000000010000000000225820000000000000000000000000000000000000000000000000000
5421532270000113551  01076614030600081538          000000010000000000051170000000000000000000000000000000005990000000000000000
5421532270000113551  01082514030600011539          000000010000000000057670000000000000000000000000000000006000000000000000000
5421532270000113551  01082514030600021540          000000010000000000057670000000000000000000000000000000005900000000000000000
5421532270000113551  01082514030600031541          000000010000000000142150000000000000000000000000000000000000000000000000000
5421532270000113551  01082514030600041542          000000010000000000019500000000000000000000000000000000003130000000000000000
5421532270000113551  01082514030600051543          000000010000000000081150000000000000000000000000000000006110000000000000000
5421532270000113551  01082514030600061453          000000010000000000036960000000000000000000000000000000004100000000000000000
5421532270000113551  01082514030600071494          000000010000000000035740000000000000000000000000000000005170000000000000000
5421532270000113551  01082514030600081544          000000010000000000013810000000000000000000000000000000000000000000000000000
5421532270000113551  01082514030600091545          000000010000000000093410000000000000000000000000000000012120000000000000000
5421532270000113551  0108251403060010627           000000010000000000015430000000000000000000000000000000001440000000000000000
5421532270000113551  01082514030600111546          000000010000000000030460000000000000000000000000000000005000000000000000000
5421532270000113551  01082514030600121547          000000010000000000026400000000000000000000000000000000004220000000000000000
5421532270000113551  01082514030600131548          000000010000000000117780000000000000000000000000000000010060000000000000000
5421532270000113551  01082514030600141549          000000010000000000182770000000000000000000000000000000023820000000000000000
5421532270000113551  01082514030600151550          000000040000000000024360000000000000000000000000000000000000000000000000000
5421532270000113551  01082514030600161551          000000010000000000038990000000000000000000000000000000004560000000000000000
5421532270000113551  0108251403060017653           000000010000000000013650000000000000000000000000000000001290000000000000000
5421532270000113551  01082514030600181552          000000010000000000050360000000000000000000000000000000005010000000000000000
5421532270000113551  01090914030600011529          000000010000000000029240000000000000000000000000000000003270000000000000000
5421532270000113551  0109091403060002555           000000010000000000055240000000000000000000000000000000009400000000000000000
5421532270000113551  01090914030600031553          000000010000000000207140000000000000000000000000000000016030000000000000000
5421532270000113551  01090914030600041554          000000020000000000617340000000000000000000000000000000097040000000000000000
5421532270000113551  0109091403060005544           000000010000000000249380000000000000000000000000000000019410000000000000000
5421532270000113551  0109091403060006893           000000010000000000044680000000000000000000000000000000005320000000000000000
5421532270000113551  01090914030600071555          000000010000000000015840000000000000000000000000000000001970000000000000000
5421532270000113551  0109091403060008655           000000010000000000029240000000000000000000000000000000003140000000000000000
5421532270000113551  01090914030600091556          000000020000000000103980000000000000000000000000000000007140000000000000000
5421532270000113551  01090914030600101544          000000010000000000013810000000000000000000000000000000000000000000000000000
5421532270000113551  01090914030600111557          000000010000000000072290000000000000000000000000000000008260000000000000000
5421532270000113551  01090911020000121558          000000020000000000030860000000000000000000030860000000000000000000000001800
5421532270000113551  01090914030600131559          000000010000000000026810000000000000000000030860000000002540000000000000000
5421532270000113551  0109091403060014642           000000010000000000074730000000000000000000030860000000008590000000000000000
5421532270000113551  01090914030600151560          000000010000000000158400000000000000000000030860000000020840000000000000000
5421532270000113551  01090914030600161561          000000010000000000147030000000000000000000030860000000019500000000000000000
5421532270000113551  01090914030600171562          000000010000000000110470000000000000000000030860000000013330000000000000000
5421532270000113551  0109091403060018524           000000010000000000047110000000000000000000030860000000005070000000000000000
5421532270000113551  01090914030600191211          000000010000000000101540000000000000000000030860000000000000000000000000000
5421532270000113551  01090914030600201563          000000010000000000015840000000000000000000030860000000002450000000000000000
5421532270000113551  01090914030600211564          000000010000000000094230000000000000000000030860000000011750000000000000000
5421532270000113551  01090914030600221565          000000040000000000133200000000000000000000030860000000000000000000000000000
5421532270000113551  01090914030600231566          000000010000000000093410000000000000000000030860000000010010000000000000000
5421532270000113551  01090914030600241567          000000010000000000255870000000000000000000030860000000000000000000000000000
5421532270000113551  01090914030600251568          000000010000000000039800000000000000000000030860000000004850000000000000000
5421532270000113551  0109091403060026642           000000010000000000074730000000000000000000030860000000008590000000000000000
5421532270000113551  0109091403060027808           000000010000000000104380000000000000000000030860000000012370000000000000000
5421532270000113551  0109091403060028535           000000010000000000145400000000000000000000030860000000017410000000000000000
5421532270000113551  01090914030600291544          000000010000000000013810000000000000000000030860000000000000000000000000000
5421532270000113551  0109091403060030662           000000010000000000120220000000000000000000030860000000016490000000000000000
5421532270000113551  0109091403060031664           000000040000000000089360000000000000000000030860000000011970000000000000000
5421532270000113551  01090914030600321569          000000010000000000240440000000000000000000030860000000000000000000000000000
5421532270000113551  01090914030600331570          000000010000000000166520000000000000000000030860000000021880000000000000000
5421532270000113551  01090914030600341571          000000010000000000075540000000000000000000030860000000009650000000000000000
5421532270000113551  01090914030600351572          000000010000000000012590000000000000000000030860000000001880000000000000000
5421532270000113551  01090914030600361002          000000010000000000103970000000000000000000030860000000013090000000000000000
5421532270000113551  01090914030600371018          000000010000000000047110000000000000000000030860000000004470000000000000000
5421532270000113551  01090914030600381573          000000020000000000269680000000000000000000030860000000034410000000000000000
5421532270000113551  01090914030600391574          000000010000000000113320000000000000000000030860000000009360000000000000000
5421532270000113551  01090914030600401575          000000010000000000022340000000000000000000030860000000002440000000000000000
5421532270000113551  01090914030600411576          000000010000000000056050000000000000000000030860000000000000000000000000000
5421532270000113551  0109091403060042542           000000010000000000017060000000000000000000030860000000001790000000000000000
5421532270000113551  0109091403060043543           000000010000000000052800000000000000000000030860000000007030000000000000000
5421532270000113551  01090914030600441577          000000010000000000025180000000000000000000030860000000003250000000000000000
5421532270000113551  0109091403060045666           000000010000000000077170000000000000000000030860000000010860000000000000000
5421532270000113551  01099914030600011579          000000030000000001593720000000000000000000030860000000256050000000000000000
5421532270000113551  0109991403060002765           000000020000000000479260000000000000000000030860000000059600000000000000000
5421532270000113551  0109991403060003766           000000020000000000178700000000000000000000030860000000018670000000000000000
5421532270000113551  01099914030600041580          000000020000000000102340000000000000000000030860000000010930000000000000000
5421532270000113551  01099914030600051581          000000010000000000020310000000000000000000030860000000002120000000000000000
5421532270000113551  01099914030600061575          000000010000000000022340000000000000000000030860000000002440000000000000000
5421532270000113551  01099914030600071582          000000020000000000209580000000000000000000030860000000022570000000000000000
5421532270000113551  0109991403060008627           000000010000000000015430000000000000000000030860000000001540000000000000000
5421532270000113551  0109991403060009874           000000010000000000029240000000000000000000030860000000004570000000000000000
5421532270000113551  01099914030600101583          000000010000000000025180000000000000000000030860000000004070000000000000000
5421532270000113551  0109991403060011763           000000010000000000037370000000000000000000030860000000007060000000000000000
5421532270000113551  01099914030600121584          000000010000000000013000000000000000000000030860000000000000000000000000000
5421532270000113551  01099914030600131585          000000030000000000063360000000000000000000030860000000007280000000000000000
5421532270000113551  01099914030600141586          000000010000000000107220000000000000000000030860000000000000000000000000000
5421532270000113551  01099914030600151587          000000010000000000050360000000000000000000030860000000005940000000000000000
5421532270000113551  01099914030600161588          000000010000000000025990000000000000000000030860000000003600000000000000000
5421532270000113551  01099914030600171589          000000010000000000041430000000000000000000030860000000000000000000000000000
5421532270000113551  0109991403060018750           000000010000000000173020000000000000000000030860000000024290000000000000000
5421532270000113551  01099914030600191590          000000010000000000080420000000000000000000030860000000008340000000000000000
5421532270000113551  01099914030600201591          000000040000000000578360000000000000000000030860000000000000000000000000000
5421532270000113551  0109991403060021523           000000010000000000041430000000000000000000030860000000006670000000000000000
5421532270000113551  01099914030600221592          000000010000000000283490000000000000000000030860000000038510000000000000000
5421532270000113551  01099914030600231593          000000020000000000367160000000000000000000030860000000000000000000000000000
5421532270000113551  01099914030600241112          000000010000000000199010000000000000000000030860000000026480000000000000000
5421532270000113551  0109991403060025640           000000010000000000034120000000000000000000030860000000002870000000000000000
5421532270000113551  01099914030600261026          000000020000000000035740000000000000000000030860000000004990000000000000000
5421532270000113551  01099914030600271594          000000020000000000064980000000000000000000030860000000004940000000000000000
5421532270000113551  01099914030600281595          000000010000000000052800000000000000000000030860000000005460000000000000000
5421532270000113551  0109991403060029650           000000010000000000053610000000000000000000030860000000006400000000000000000
5421532270000113551  0109991403060030942           000000010000000000129970000000000000000000030860000000000000000000000000000
5421532270000113551  01099914030600311596          000000010000000000173020000000000000000000030860000000000000000000000000000
5421532270000113551  0109991403060032750           000000010000000000173020000000000000000000030860000000024290000000000000000
5421532270000113551  01099914030600331597          000000020000000000268060000000000000000000030860000000031500000000000000000
5421532270000113551  0109991403060034520           000000010000000000146210000000000000000000030860000000000000000000000000000
5421532270000113551  01099914030600351598          000000020000000000066600000000000000000000030860000000007320000000000000000
5421532270000113551  0109991403060036522           000000010000000000264000000000000000000000030860000000000000000000000000000
5421532270000113551  0109991403060037523           000000010000000000041430000000000000000000030860000000006670000000000000000
5421532270000113551  01099914030600381599          000000010000000000016650000000000000000000030860000000001420000000000000000
5421532270000113551  0109991403060039780           000000040000000000054600000000000000000000030860000000006080000000000000000
5421532270000113551  0109991403060040528           000000020000000000102340000000000000000000030860000000010360000000000000000
5421532270000113551  0109991403060041529           000000010000000000050360000000000000000000030860000000006640000000000000000
5421532270000113551  01099914030600421600          000000010000000000055240000000000000000000030860000000000000000000000000000
5421532270000113551  0109991403060043530           000000010000000000113720000000000000000000030860000000006390000000000000000
5421532270000113551  01099914030600441601          000000010000000000052800000000000000000000030860000000000000000000000000000
5421532270000113551  01099914030600451578          000000010000000000093410000000000000000000030860000000000000000000000000000
5421532270000113551  01099914030600461602          000000010000000000146210000000000000000000030860000000000000000000000000000
5421532270000113551  01099914030600471603          000000010000000000054420000000000000000000030860000000000430000000000000000
5421532270000113551  01099914030600481484          000000010000000000066610000000000000000000030860000000000000000000000000000
5421532270000113551  0109991403060049871           000000010000000000034120000000000000000000030860000000000000000000000000000
5421532270000113551  01099914030600501604          000000010000000000016250000000000000000000030860000000001430000000000000000
5421532270000113551  01099914030600511605          000000020000000000159220000000000000000000030860000000000000000000000000000
5421532270000113551  0109991403060052840           000000010000000000040210000000000000000000030860000000006010000000000000000
5421532270000113551  0109991403060053942           000000010000000000129970000000000000000000030860000000000000000000000000000
5421532270000113551  0109991403060054765           000000020000000000503620000000000000000000030860000000059600000000000000000
5421532270000113551  01099914030600551606          000000020000000000268060000000000000000000030860000000028950000000000000000
5421532270000113551  01099914030600561607          000000010000000000045490000000000000000000030860000000006090000000000000000
5421532270000113551  01099914030600571608          000000020000000000092600000000000000000000030860000000009890000000000000000
5421532270000113551  0109991403060058913           000000010000000000040530000000000000000000030860000000007010000000000000000
5421532270000113551  01099914030600591609          000000010000000000054420000000000000000000030860000000005590000000000000000
5421532270000113551  01099914030600601610          000000010000000000146210000000000000000000030860000000014910000000000000000
5421532270000113551  01099914030600611611          000000010000000000016250000000000000000000030860000000002910000000000000000
5421532270000113551  01099914030600621612          000000010000000000020150000000000000000000030860000000000000000000000000000
5421532270000113551  01099914030600631613          000000010000000000162050000000000000000000030860000000019250000000000000000
5421532270000113551  01099914030600641614          000000010000000000182770000000000000000000030860000000000000000000000000000
5421532270000113551  01099914030600651262          000000010000000000121840000000000000000000030860000000009670000000000000000
5421532270000113551  01099914030600661615          000000010000000000225820000000000000000000030860000000024990000000000000000
5421532270000113551  01099914030600671616          000000010000000000112100000000000000000000030860000000018060000000000000000
5421532270000113551  01099914030600681617          000000010000000000135650000000000000000000030860000000001850000000000000000
5421532270000113551  01099914030600691498          000000010000000000021120000000000000000000030860000000002430000000000000000
5421532270000113551  01099914030600701147          000000010000000000060920000000000000000000030860000000008920000000000000000
5421532270000113551  0109991403060071779           000000010000000000016650000000000000000000030860000000001770000000000000000
5421532270000113551  01099914030600721618          000000010000000000059300000000000000000000030860000000008040000000000000000
5421532270000113551  01099914030600731619          000000010000000000169770000000000000000000030860000000020870000000000000000
5421532270000113551  0109991403060074735           000000020000000000073100000000000000000000030860000000011360000000000000000
5400023313641687551  00063556565000011260          000000040000000000176000000000000000000000000000000000000000000000000000000
5400023313641687551  0006355405500002829           000000010000000000028000000000000000000000000000000000000000000000000000000
5400023313641687551  00063554055000031463          000000010000000000048000000000000000000000000000000000000000000000000000000
5400023313641687551  00063554055000041498          000000010000000000034000000000000000000000000000000000000000000000000000000
5400023313641687551  0006355102102005972           000000010000000000016000000000000000000000000000000000000000000000000000000
5400023313641687551  00063551021020061459          000000010000000000035000000000000000000000000000000000000000000000000000000
5400023313641687551  0006355405500007509           000000020000000000068000000000000000000000000000000000000000000000000000000
5400023313641687551  0006355405500008779           000000010000000000032000000000000000000000000000000000000000000000000000000
5400023313641687551  0006535656500001886           000000040000000000184000000000000000000000000000000000000000000000000000000
5400023313641687551  00065354055000021112          000000010000000000274000000000000000000000000000000000000000000000000000000
5400023313641687551  0006535405500003736           000000010000000000034000000000000000000000000000000000000000000000000000000
5400023313641687551  0006535405500004829           000000010000000000026000000000000000000000000000000000000000000000000000000
5400023313641687551  0006535405500005524           000000010000000000067000000000000000000000000000000000000000000000000000000
5400023313641687551  0006535102102006972           000000010000000000005000000000000000000000000000000000000000000000000000000
5400023313641687551  0006535405500007750           000000010000000000239000000000000000000000000000000000000000000000000000000
5400023313641687551  0006535405500008523           000000010000000000059000000000000000000000000000000000000000000000000000000
5400023313641687551  0006535405500009509           000000010000000000034000000000000000000000000000000000000000000000000000000
5400023313641687551  0006535405500010637           000000010000000000069000000000000000000000000000000000000000000000000000000
5400023313641687551  00065354055000111216          000000010000000000129000000000000000000000000000000000000000000000000000000
5400023313641687551  0006535405500012780           000000010000000000028000000000000000000000000000000000000000000000000000000
5400023313641687551  00065354055000131550          000000160000000000128000000000000000000000000000000000000000000000000000000
5424354496000160551  00064454055000011406          000000010000000000518000000000000000000000000000000000000000000000000000000
5424354496000160551  0006445656500002886           000000040000000000184000000000000000000000000000000000000000000000000000000
5424354496000160551  0006445405500003829           000000010000000000028000000000000000000000000000000000000000000000000000000
5424354496000160551  0006445405500004640           000000010000000000036000000000000000000000000000000000000000000000000000000
5424354496000160551  0006445102102005972           000000010000000000005000000000000000000000000000000000000000000000000000000
5400029179122604551  0006405405500001697           000000010000000000259000000000000000000000000000000000000000000000000000000
5400029179122604551  00064054055000021551          000000010000000000064000000000000000000000000000000000000000000000000000000
5400029179122604551  0006405405500003653           000000020000000000048000000000000000000000000000000000000000000000000000000
5400029179122604551  0006405405500004970           000000010000000000055000000000000000000000000000000000000000000000000000000
5400039974233852551  0006455405500001633           000000040000000000232000000000000000000000000000000000000000000000000000000
5400039974233852551  00064554055000021467          000000010000000000059000000000000000000000000000000000000000000000000000000
5400039974233852551  0006455405500003829           000000010000000000026000000000000000000000000000000000000000000000000000000
5400040085678600551  0006615405500001633           000000035000000000203000000000000000000000000000000000000000000000000000000
5400040085678600551  0006615405500002745           000000010000000000034000000000000000000000000000000000000000000000000000000
5400043857264691551  0006365405500001664           000000040000000000120000000000000000000000000000000000000000000000000000000
5400043857264691551  0006365405500002662           000000010000000000160000000000000000000000000000000000000000000000000000000
5400043857264691551  00063651021020031459          000000010000000000035000000000000000000000000000000000000000000000000000000
5400047980303687551  0006635405500001765           000000020000000000664000000000000000000000000000000000000000000000000000000
5400047980303687551  00066354055000021474          000000020000000000138000000000000000000000000000000000000000000000000000000
5400047980303687551  0006635405500003766           000000020000000000238000000000000000000000000000000000000000000000000000000
5400050774719672551  0006385656500001887           000000030000000000132000000000000000000000000000000000000000000000000000000
5400050774719672551  00063854055000021489          000000010000000000019000000000000000000000000000000000000000000000000000000
5400050774719672551  0006385405500003829           000000010000000000026000000000000000000000000000000000000000000000000000000
5400050774719672551  0006385102102004972           000000010000000000006000000000000000000000000000000000000000000000000000000
5400053382986604551  00062156565000011260          000000035000000000154000000000000000000000000000000000000000000000000000000
5400053382986604551  00062154055000021498          000000010000000000036000000000000000000000000000000000000000000000000000000
5400053382986604551  0006215405500003745           000000010000000000034000000000000000000000000000000000000000000000000000000
5400053382986604551  00062154055000041463          000000010000000000048000000000000000000000000000000000000000000000000000000
5400053382986604551  00062154055000051348          000000020000000000088000000000000000000000000000000000000000000000000000000
5400053382986604551  00065954055000011348          000000010000000000039000000000000000000000000000000000000000000000000000000
5400053382986604551  0006595405500002763           000000010000000000054000000000000000000000000000000000000000000000000000000
5400060389320625551  00064654055000011078          000000010000000000176000000000000000000000000000000000000000000000000000000
5400060389320625551  0006465405500002509           000000010000000000034000000000000000000000000000000000000000000000000000000
5400064536637672551  0006255656500001887           000000030000000000132000000000000000000000000000000000000000000000000000000
5400064536637672551  0006255405500002882           000000010000000000026000000000000000000000000000000000000000000000000000000
5400064536637672551  0006255102102003972           000000010000000000006000000000000000000000000000000000000000000000000000000
5400064536637672551  00062551021020041459          000000010000000000035000000000000000000000000000000000000000000000000000000
5465139743000192551  0006565656500001887           000000045000000000198000000000000000000000000000000000000000000000000000000
5465139743000192551  00065654055000021467          000000010000000000046000000000000000000000000000000000000000000000000000000
5465139743000192551  00065654055000031053          000000010000000000034000000000000000000000000000000000000000000000000000000
5465139743000192551  00065654055000041224          000000010000000000033000000000000000000000000000000000000000000000000000000
5465139743000192551  00065654055000051252          000000010000000000030000000000000000000000000000000000000000000000000000000
5465139743000192551  0006565405500006926           000000010000000000214000000000000000000000000000000000000000000000000000000
5465139743000192551  00065654055000071054          000000010000000000032000000000000000000000000000000000000000000000000000000
5465139743000192551  00065654055000081283          000000020000000001020000000000000000000000000000000000000000000000000000000
5465139743000192551  00065654055000091518          000000020000000000364000000000000000000000000000000000000000000000000000000
5465139743000192551  0006565405500010509           000000020000000000039000000000000000000000000000000000000000000000000000000
5465139743000192551  00065654055000111245          000000010000000000148000000000000000000000000000000000000000000000000000000
5465139743000192551  00065654055000121413          000000010000000000449000000000000000000000000000000000000000000000000000000
5465139743000192551  00065654055000131425          000000010000000000097000000000000000000000000000000000000000000000000000000
5465139743000192551  00065756565000011260          000000050000000000220000000000000000000000000000000000000000000000000000000
5465139743000192551  0006575405500002938           000000010000000000036000000000000000000000000000000000000000000000000000000
5465139743000192551  0006575405500003897           000000010000000000068000000000000000000000000000000000000000000000000000000
5465139743000192551  00065754055000041575          000000010000000000032000000000000000000000000000000000000000000000000000000
5465139743000192551  00065754055000051533          000000020000000000276000000000000000000000000000000000000000000000000000000
5400066352827691551  0006375656500001887           000000035000000000154000000000000000000000000000000000000000000000000000000
5400066352827691551  0006375405500002829           000000010000000000026000000000000000000000000000000000000000000000000000000
5400066352827691551  0006375102102003972           000000010000000000005000000000000000000000000000000000000000000000000000000
5400071223436691551  0006235405500001642           000000010000000000118000000000000000000000000000000000000000000000000000000
5400071223436691551  0006235405500002637           000000010000000000069000000000000000000000000000000000000000000000000000000
5400071223436691551  00062354055000031216          000000010000000000129000000000000000000000000000000000000000000000000000000
5400071223436691551  0006235405500004535           000000010000000000225000000000000000000000000000000000000000000000000000000
5400071223436691551  0006235405500005790           000000010000000000044000000000000000000000000000000000000000000000000000000
5400087958171668551  00064756565000011260          000000050000000000220000000000000000000000000000000000000000000000000000000
5400087958171668551  00064754055000021147          000000010000000000084000000000000000000000000000000000000000000000000000000
5400087958171668551  0006475405500003745           000000010000000000036000000000000000000000000000000000000000000000000000000
5400087958171668551  0006475405500004780           000000010000000000029000000000000000000000000000000000000000000000000000000
5400087958171668551  00064751021020051459          000000010000000000035000000000000000000000000000000000000000000000000000000
5400087958171668551  0006475405500006509           000000020000000000068000000000000000000000000000000000000000000000000000000
5400091269130625551  00062056565000011260          000000030000000000132000000000000000000000000000000000000000000000000000000
5400091269130625551  00062054055000021441          000000010000000000042000000000000000000000000000000000000000000000000000000
5400091269130625551  0006205405500003745           000000010000000000034000000000000000000000000000000000000000000000000000000
5400093381131672551  00063056565000011260          000000040000000000176000000000000000000000000000000000000000000000000000000
5400093381131672551  0006305405500002624           000000010000000000052000000000000000000000000000000000000000000000000000000
5400093381131672551  0006305405500003882           000000010000000000026000000000000000000000000000000000000000000000000000000
5400095345094691551  0006415405500001633           000000040000000000232000000000000000000000000000000000000000000000000000000
5400095345094691551  0006415405500002882           000000010000000000026000000000000000000000000000000000000000000000000000000
5400095345094691551  0006415405500003543           000000010000000000078000000000000000000000000000000000000000000000000000000
5400095345094691551  00064154055000041252          000000010000000000032000000000000000000000000000000000000000000000000000000
5400095345094691551  0006415405500005594           000000010000000000040000000000000000000000000000000000000000000000000000000
5400095345094691551  00064151021020061459          000000010000000000035000000000000000000000000000000000000000000000000000000
5400095345094691551  0006415405500007509           000000020000000000068000000000000000000000000000000000000000000000000000000
5400095345094691551  0006415405500008544           000000010000000000329000000000000000000000000000000000000000000000000000000
7520250101202501311002          8484900079519-JUNTA CABECOTE SUPERIOR                        JG    000000000000000000000000000
7520250101202501311018          840991900106056-PROTETOR DE CORREIAS                         JG    000000000000000000000000000
7520250101202501311026          84212300W7195-FILTRO OLEO MOTOR                              PC    000000000000000000000000000
7520250101202501311053          84219999WOE912                                               PC    000000000000000000000000000
7520250101202501311054          4016930076090-ANEL VEDACAO                                   PC    000000000000000000000000000
7520250101202501311069          84219999LX3713-FILTRO AR                                     PC    000000000000000000000000000
7520250101202501311078          87089300511015510-CIL EMBREAGEM                              PC    000000000000000000000000000
7520250101202501311084          731815001191001-PARAFUSO RODA                                PC    000000000000000000000000000
7520250101202501311107          87088000NAK99133-BIELETA BARRA ESTABILIZADORA                PC    000000000000000000000000000
7520250101202501311112          85113020F000ZS0210-BOBINA IGNICAO PLASTICA                   PC    000000000000000000000000000
7520250101202501311130          87083090HF81B-DISCO FREIO                                    PC    000000000000000000000000000
7520250101202501311134          85443000SCT65-CABO VELA                                      PC    000000000000000000000000000
7520250101202501311147          84219999LX17803-FILTRO AR                                    PC    000000000000000000000000000
7520250101202501311211          84835010030105263G-ENGRENAGEM VIRABREQUIM                    PC    000000000000000000000000000
7520250101202501311216          84835090VKM11107L-TENSOR CORREIA DENTADA                     PC    000000000000000000000000000
7520250101202501311224          84213990CU21003-FILTRO ANTI POLEM                            PC    000000000000000000000000000
7520250101202501311245          4009329051851014-MANGUEIRA SUPERIOR RADIADOR                 PC    000000000000000000000000000
7520250101202501311252          84212300WK6133-FILTRO COMBUSTIVEL                            PC    000000000000000000000000000
7520250101202501311260          27101932RALOY SYNTH PLUS SAE 5W30 API SP - 24/1              LT    000000000000000000000000000
7520250101202501311262          87083019PD1438-PASTILHA FREIO                                JG    000000000000000000000000000
7520250101202501311283          87088000808053MM-AMORT SUSPENSAO DIANT                       PC    000000000000000000000000000
7520250101202501311311          40091100229213-MANGUEIRA BOCAL DO TANQUE                     PC    000000000000000000000000000
7520250101202501311348          85129000S22-PALHETA LIMPADOR                                 PC    000000000000000000000000000
7520250101202501311354          84219999HLP1032-FILTRO AR                                    PC    000000000000000000000000000
7520250101202501311358          87083090HFCD38-CUBO RODA DIANTEIRA                           PC    000000000000000000000000000
7520250101202501311368          87089490335668-TERMINAL BARRA DIRECAO                        PC    000000000000000000000000000
7520250101202501311406          870893003000000782-KIT EMBREAGEM                             JG    000000000000000000000000000
7520250101202501311413          841330907000354501-BOMBA DAGUA                               PC    000000000000000000000000000
7520250101202501311420          84219999HLP6093-FILTRO AR                                    PC    000000000000000000000000000
7520250101202501311425          84099190634963-FLANGE                                        PC    000000000000000000000000000
7520250101202501311432          87088000379381SP-AMORT SUSPENSAO TRAS                        PC    000000000000000000000000000
7520250101202501311436          85111000BPR6EY-VELA IGNICAO                                  PC    000000000000000000000000000
7520250101202501311437          84219999C37001-FILTRO AR                                     PC    000000000000000000000000000
7520250101202501311441          84219999C18584-FILTRO AR                                     PC    000000000000000000000000000
7520250101202501311443          87083019PD85-PASTILHA FREIO                                  JG    000000000000000000000000000
7520250101202501311453          84219999ARL2203-FILTRO AR                                    PC    000000000000000000000000000
7520250101202501311459          38140090DESCARBONIZANTE PRO 300ML/230G                       UN    000000000000000000000000000
7520250101202501311463          84219999C301303-FILTRO AR                                    PC    000000000000000000000000000
7520250101202501311466          84213990LA649-FILTRO ANTI POLEM                              PC    000000000000000000000000000
7520250101202501311467          84219999HLP2346-FILTRO AR                                    PC    000000000000000000000000000
7520250101202501311474          87088000LT90116-KIT AMORTECEDOR DIANTEIRO                    PC    000000000000000000000000000
7520250101202501311484          870899905U0121407-RESERV AGUA RADIADOR                       PC    000000000000000000000000000
7520250101202501311489          84219999HLP8825-FILTRO AR                                    PC    000000000000000000000000000
7520250101202501311490          84213990CU16005-FILTRO ANTI POLEM                            PC    000000000000000000000000000
7520250101202501311494          84219999LX3703-FILTRO AR                                     PC    000000000000000000000000000
7520250101202501311498          84213990LA642-FILTRO ANTI POLEM                              PC    000000000000000000000000000
7520250101202501311500          83023000MG17056-AMORT TAMPA TRAS                             PC    000000000000000000000000000
7520250101202501311518          87088000SK143S-KIT AMORTECEDOR DIANTEIRO                     PC    000000000000000000000000000
7520250101202501311529          85129000DYR14-PALHETA LIMPADOR                               PC    000000000000000000000000000
7520250101202501311530          85111000BKR6E11-VELA IGNICAO                                 PC    000000000000000000000000000
7520250101202501311533          87088000SK818S-KIT AMORTECEDOR DIANTEIRO                     PC    000000000000000000000000000
7520250101202501311534          840991900280156296-BICO INJETOR                              PC    000000000000000000000000000
7520250101202501311535          8708999051857959-MANGUEIRA FILTRO AR                         PC    000000000000000000000000000
7520250101202501311536          84212300PSL158-FILTRO OLEO MOTOR                             PC    000000000000000000000000000
7520250101202501311537          87083019PD1494-PASTILHA FREIO                                PC    000000000000000000000000000
7520250101202501311538          870894820680409-ARTICULACAO CAIXA DIRECAO                    PC    000000000000000000000000000
7520250101202501311539          870880005312701-BIELETA BARRA ESTABILIZADORA                 PC    000000000000000000000000000
7520250101202501311540          870880005312700-BIELETA BARRA ESTABILIZADORA                 PC    000000000000000000000000000
7520250101202501311541          84818021418487-VALVULA TERMOSTATICA                          PC    000000000000000000000000000
7520250101202501311542          84212300W752-FILTRO OLEO MOTOR                               PC    000000000000000000000000000
7520250101202501311543          87083090C3416-CILINDRO RODA                                  PC    000000000000000000000000000
7520250101202501311544          84099190N01191410-SELO MOTOR                                 PC    000000000000000000000000000
7520250101202501311545          85443000SCT09-CABO VELA                                      JG    000000000000000000000000000
7520250101202501311546          85129000S24-PALHETA LIMPADOR                                 PC    000000000000000000000000000
7520250101202501311547          85129000S14-PALHETA LIMPADOR                                 PC    000000000000000000000000000
7520250101202501311548          87085099JHC04119-HOMOC RODA                                  PC    000000000000000000000000000
7520250101202501311549          87083090HFCD26B-CUBO RODA DIANTEIRA                          PC    000000000000000000000000000
7520250101202501311550          731815001191006-PARAFUSO RODA                                PC    000000000000000000000000000
7520250101202501311551          84139190TSA030004-TAMPA BOMBA COMB                           PC    000000000000000000000000000
7520250101202501311552          84219999ARL1032-FILTRO AR                                    PC    000000000000000000000000000
7520250101202501311553          870899903B0121321-TAMPA RESERVATORIO                         PC    000000000000000000000000000
7520250101202501311554          87088000334572MM-AMORT SUSPENSAO TRAS                        PC    000000000000000000000000000
7520250101202501311555          84213990CU24363-FILTRO ANTI POLEM                            PC    000000000000000000000000000
7520250101202501311556          87088000NAK99086-BIELETA BARRA ESTABILIZADORA                PC    000000000000000000000000000
7520250101202501311557          87089490335667-TERMINAL BARRA DIRECAO                        PC    000000000000000000000000000
7520250101202501311558          22019000AGUA 3LT KOUBE-AGUA DESMINERALIZADA                  GL    000000000000000000000000000
7520250101202501311559          40093100JM8123-MANGUEIRA                                     PC    000000000000000000000000000
7520250101202501311560          8413303010168-BOMBA OLEO MOTOR                               PC    000000000000000000000000000
7520250101202501311561          84833029SBB1283JSTD-BRONZINA BIELA                           JG    000000000000000000000000000
7520250101202501311562          84833029SBC645JSTD-BRONZINA MANCAL                           JG    000000000000000000000000000
7520250101202501311563          84212300W7125-FILTRO OLEO MOTOR                              PC    000000000000000000000000000
7520250101202501311564          8484900079179FLEX-JUNTA CABECOTE SUPERIOR                    JG    000000000000000000000000000
7520250101202501311565          271019325W40 FS540 SN-OLEO MOTOR                             LT    000000000000000000000000000
7520250101202501311566          840991900106081-PROTETOR DE CORREIAS                         PC    000000000000000000000000000
7520250101202501311567          84099190032103171D-RETENTOR VIRABREQUIM - VOLANTE            PC    000000000000000000000000000
7520250101202501311568          8413919011648-TUBO BOMBA OLEO                                PC    000000000000000000000000000
7520250101202501311569          84099116DA7092STD-ANEL SEGMENTO                              JG    000000000000000000000000000
7520250101202501311570          8413303010129-BOMBA OLEO MOTOR                               PC    000000000000000000000000000
7520250101202501311571          84833029SBB271JSTD-BRONZINA BIELA                            JG    000000000000000000000000000
7520250101202501311572          84212300W7122-FILTRO OLEO MOTOR                              PC    000000000000000000000000000
7520250101202501311573          87083090HF51F-DISCO FREIO                                    PC    000000000000000000000000000
7520250101202501311574          87083019P1347-PASTILHA FREIO                                 JG    000000000000000000000000000
7520250101202501311575          84213990LA1477-FILTRO ANTI POLEM                             PC    000000000000000000000000000
7520250101202501311576          84219999ARL1659-FILTRO AR                                    PC    000000000000000000000000000
7520250101202501311577          84213990AKX1971-FILTRO ANTI POLEM                            PC    000000000000000000000000000
7520250101202501311578          400932905U0121156-MANGUEIRA                                  PC    000000000000000000000000000
7520250101202501311579          840991900261500716-BICO INJETOR                              PC    000000000000000000000000000
7520250101202501311580          87088000LT90202-KIT AMORTECEDOR DIANTEIRO                    PC    000000000000000000000000000
7520250101202501311581          401032007364PO-CORREIA                                       PC    000000000000000000000000000
7520250101202501311582          87088000SK836S-KIT AMORTECEDOR DIANTEIRO                     JG    000000000000000000000000000
7520250101202501311583          85129000S16-PALHETA LIMPADOR                                 PC    000000000000000000000000000
7520250101202501311584          40091100153877-MANGUEIRA RESPIRO OLEO                        PC    000000000000000000000000000
7520250101202501311585          84219999PEL119-FILTRO OLEO MOTOR                             PC    000000000000000000000000000
7520250101202501311586          4016930055226126-JUNTA CARTER                                PC    000000000000000000000000000
7520250101202501311587          853650903374-INTER PRESSAO OLEO                              PC    000000000000000000000000000
7520250101202501311588          45049000TAR240411-JUNTA CARTER                               JG    000000000000000000000000000
7520250101202501311589          84818021MTE28887-VALVULA TERMOSTATICA                        PC    000000000000000000000000000
7520250101202501311590          84841000591017-JUNTA CABECOTE SUPERIOR                       JG    000000000000000000000000000
7520250101202501311591          84099190SPA9131STD-PISTAO C/ANEIS                            PC    000000000000000000000000000
7520250101202501311592          87083090CI430CPA-SAPATA FREIO C/ LONA COLADA                 JG    000000000000000000000000000
7520250101202501311593          87083090HF733A-TAMBOR FREIO                                  PC    000000000000000000000000000
7520250101202501311594          590900003005 NORFLEX-FLEXIVEL FREIO                          PC    000000000000000000000000000
7520250101202501311595          870880005312818-BIELETA BARRA ESTABILIZADORA                 PC    000000000000000000000000000
7520250101202501311596          87089990VC500-TUBO DAGUA                                     PC    000000000000000000000000000
7520250101202501311597          87088000SK1081A-COXIM AMORTECEDOR                            PC    000000000000000000000000000
7520250101202501311598          870880000441516-BATENTE BORRACHA SUPERIOR AMORT TRAS         PC    000000000000000000000000000
7520250101202501311599          84213990CU2545-FILTRO ANTI POLEM                             PC    000000000000000000000000000
7520250101202501311600          400931005U0121109B-MANGUEIRA                                 PC    000000000000000000000000000
7520250101202501311601          40093100762161-MANGUEIRA                                     PC    000000000000000000000000000
7520250101202501311602          400932905U0121051L-MANGUEIRA INFERIOR RADIADOR               PC    000000000000000000000000000
7520250101202501311603          400932905U0122101-MANGUEIRA SUPERIOR RADIADOR                PC    000000000000000000000000000
7520250101202501311604          84219999EDA125-FILTRO AR                                     PC    000000000000000000000000000
7520250101202501311605          83023000MG17173-AMORT TAMPA TRAS                             PC    000000000000000000000000000
7520250101202501311606          87088000LT90201-KIT AMORTECEDOR DIANTEIRO                    PC    000000000000000000000000000
7520250101202501311607          84219999LX3696-FILTRO AR                                     PC    000000000000000000000000000
7520250101202501311608          870880000442629-KIT AMORTECEDOR TRASEIRO                     JG    000000000000000000000000000
7520250101202501311609          87089990VKJP01001A-COIFA HOMOC                               PC    000000000000000000000000000
7520250101202501311610          87089990SK1119-COXIM CAMBIO                                  PC    000000000000000000000000000
7520250101202501311611          84213990LA142-FILTRO ANTI POLEM                              PC    000000000000000000000000000
7520250101202501311612          392690902021748-BUCHA                                        PC    000000000000000000000000000
7520250101202501311613          8708930082001-CIL EMBREAGEM                                  PC    000000000000000000000000000
7520250101202501311614          870893006QE721261E-CIL ESCRAVO                               PC    000000000000000000000000000
7520250101202501311615          8413309020234-BOMBA DAGUA                                    PC    000000000000000000000000000
7520250101202501311616          40103500117SP+220HT-CORREIA DISTRIBUICAO                     PC    000000000000000000000000000
7520250101202501311617          8483409096MM6306AD-ENGRENAGEM VIRABREQUIM                    PC    000000000000000000000000000
7520250101202501311618          4016930075663-JUNTA TAMPA VALVULA                            PC    000000000000000000000000000
7520250101202501311619          84835090VKM14224A-TENSOR CORREIA DENTADA                     PC    000000000000000000000000000
752025010120250131509           38190000DOT4 ATE-OLEO FREIO                                  FR    000000000000000000000000000
752025010120250131513           27101932SAE80 GL4-OLEO CAMBIO                                PC    000000000000000000000000000
752025010120250131520           84213990030103464A-ANTI CHAMA                                PC    000000000000000000000000000
752025010120250131522           87089990032121026CP-CARCACA VALVULA TERMOSTATICA             PC    000000000000000000000000000
752025010120250131523           87083090ATE7600-CILINDRO RODA                                PC    000000000000000000000000000
752025010120250131524           401031006PK1200ELASTICA-CORREIA                              PC    000000000000000000000000000
752025010120250131528           870880000441482-KIT AMORTECEDOR TRASEIRO                     JG    000000000000000000000000000
752025010120250131529           87087090VKBA4529-KIT ROL TRAS                                JG    000000000000000000000000000
752025010120250131530           400931005U0201153A-MANGUEIRA                                 PC    000000000000000000000000000
752025010120250131535           87089990SK4953-SUPORTE MOTOR                                 PC    000000000000000000000000000
752025010120250131542           84213990LA607-FILTRO ANTI POLEM                              PC    000000000000000000000000000
752025010120250131543           84219999LX4372-FILTRO AR                                     PC    000000000000000000000000000
752025010120250131544           87083019PD2207-PASTILHA FREIO                                PC    000000000000000000000000000
752025010120250131555           85129000B316-PALHETA LIMPADOR                                JG    000000000000000000000000000
752025010120250131569           271019325W30 BRUTUS-OLEO MOTOR                               LT    000000000000000000000000000
752025010120250131594           84213990LA655-FILTRO ANTI POLEM                              PC    000000000000000000000000000
