10336213140001600034450680073 CRISTINA ISABEL DE CAMPOS          Belo Horizonte                MG31999760132024010120240108331
11Rua Caconde                       00875                      Renascença     31130510VINICIUS MURTA NERY         031934225098
5000001377828611ISENTO        20240103MG551  0000165405P000000000380000000000000000000000000000000000000000000000000038000000N
5000052823890610ISENTO        20240103MG551  0000175405P000000001860000000000000000000000000000000000000000000000000186000000N
5000090122836634ISENTO        20240103MG551  0000185405P000000000640000000000000000000000000000000000000000000000000064000000N
5000056043481634ISENTO        20240103MG551  0000195405P000000002940000000000000000000000000000000000000000000000000294000000N
5000020546750672ISENTO        20240103MG551  0000205405P000000002480000000000000000000000000000000000000000000000000248000000N
5000095527362691ISENTO        20240103MG551  0000215405P000000004740000000000000000000000000000000000000000000000000890000000N
5000000650826647ISENTO        20240103MG551  0000225405P000000009940000000000000000000000000000000000000000000000001692000000N
5000052256979687ISENTO        20240103MG551  0000235405P000000017380000000000000000000000000000000000000000000000006179000000N
5000063528100630ISENTO        20240103MG551  0000245405P000000004540000000000000000000000000000000000000000000000000784000000N
5000000538754605ISENTO        20240103MG551  0000255405P000000002730000000000000000000000000000000000000000000000000377000000N
5000010337326649ISENTO        20240103MG551  0000265405P000000005130000000000000000000000000000000000000000000000001650000000N
5000005000765613ISENTO        20240103MG551  0000275405P000000007530000000000000000000000000000000000000000000000003137000000N
5000009103378616ISENTO        20240103MG551  0000285405P000000010530000000000000000000000000000000000000000000000004976000000N
5100001377828611ISENTO        20240103MG1  00001654050000000000000000000000000000000000000000000000000000                    N
5100052823890610ISENTO        20240103MG1  00001754050000000000000000000000000000000000000000000000000000                    N
5100090122836634ISENTO        20240103MG1  00001854050000000000000000000000000000000000000000000000000000                    N
5100056043481634ISENTO        20240103MG1  00001954050000000000000000000000000000000000000000000000000000                    N
5100020546750672ISENTO        20240103MG1  00002054050000000000000000000000000000000000000000000000000000                    N
5100095527362691ISENTO        20240103MG1  00002154050000000000000000000000000000000000000000000000000000                    N
5100000650826647ISENTO        20240103MG1  00002254050000000000000000000000000000000000000000000000000000                    N
5100052256979687ISENTO        20240103MG1  00002354050000000000000000000000000000000000000000000000000000                    N
5100063528100630ISENTO        20240103MG1  00002454050000000000000000000000000000000000000000000000000000                    N
5100000538754605ISENTO        20240103MG1  00002554050000000000000000000000000000000000000000000000000000                    N
5100010337326649ISENTO        20240103MG1  00002654050000000000000000000000000000000000000000000000000000                    N
5100005000765613ISENTO        20240103MG1  00002754050000000000000000000000000000000000000000000000000000                    N
5100009103378616ISENTO        20240103MG1  00002854050000000000000000000000000000000000000000000000000000                    N
5300001377828611ISENTO        20240103MG551  0000165405P000000000000000000000000000000000000000N                              
5300052823890610ISENTO        20240103MG551  0000175405P000000000000000000000000000000000000000N                              
5300090122836634ISENTO        20240103MG551  0000185405P000000000000000000000000000000000000000N                              
5300056043481634ISENTO        20240103MG551  0000195405P000000000000000000000000000000000000000N                              
5300020546750672ISENTO        20240103MG551  0000205405P000000000000000000000000000000000000000N                              
5300095527362691ISENTO        20240103MG551  0000215405P000000000000000000000000000000000000000N                              
5300000650826647ISENTO        20240103MG551  0000225405P000000000000000000000000000000000000000N                              
5300052256979687ISENTO        20240103MG551  0000235405P000000000000000000000000000000000000000N                              
5300063528100630ISENTO        20240103MG551  0000245405P000000000000000000000000000000000000000N                              
5300000538754605ISENTO        20240103MG551  0000255405P000000000000000000000000000000000000000N                              
5300010337326649ISENTO        20240103MG551  0000265405P000000000000000000000000000000000000000N                              
5300005000765613ISENTO        20240103MG551  0000275405P000000000000000000000000000000000000000N                              
5300009103378616ISENTO        20240103MG551  0000285405P000000000000000000000000000000000000000N                              
5400001377828611551  0000165405500001581           000000010000000000038000000000000000000000000000000000000000000000000000000
5400052823890610551  0000175405500001584           000000010000000000186000000000000000000000000000000000000000000000000000000
5400090122836634551  0000185405500001583           000000010000000000064000000000000000000000000000000000000000000000000000000
5400056043481634551  0000195405500001580           000000010000000000294000000000000000000000000000000000000000000000000000000
5400020546750672551  0000205405500001591           000000020000000000248000000000000000000000000000000000000000000000000000000
5400095527362691551  0000215405500001598           000000040000000000416000000000000000000000000000000000000000000000000000000
5400095527362691551  0000215405500002582           000000010000000000058000000000000000000000000000000000000000000000000000000
5400000650826647551  0000225405500001596           000000020000000000134000000000000000000000000000000000000000000000000000000
5400000650826647551  0000225405500002592           000000010000000000430000000000000000000000000000000000000000000000000000000
5400000650826647551  0000225405500003593           000000010000000000430000000000000000000000000000000000000000000000000000000
5400052256979687551  0000235405500001600           000000010000000000515000000000000000000000000000000000000000000000000000000
5400052256979687551  0000235405500002601           000000010000000000515000000000000000000000000000000000000000000000000000000
5400052256979687551  0000235405500003603           000000020000000000166000000000000000000000000000000000000000000000000000000
5400052256979687551  0000235405500004602           000000020000000000504000000000000000000000000000000000000000000000000000000
5400052256979687551  0000235405500005594           000000010000000000038000000000000000000000000000000000000000000000000000000
5400063528100630551  0000245405500001605           000000020000000000330000000000000000000000000000000000000000000000000000000
5400063528100630551  0000245405500002606           000000020000000000124000000000000000000000000000000000000000000000000000000
5400000538754605551  0000255405500001617           000000020000000000104000000000000000000000000000000000000000000000000000000
5400000538754605551  0000255405500002599           000000010000000000169000000000000000000000000000000000000000000000000000000
5400010337326649551  0000265405500001616           000000040000000000078000000000000000000000000000000000000000000000000000000
5400010337326649551  0000265405500002613           000000010000000000145000000000000000000000000000000000000000000000000000000
5400010337326649551  0000265405500003614           000000010000000000176000000000000000000000000000000000000000000000000000000
5400010337326649551  0000265405500004615           000000010000000000038000000000000000000000000000000000000000000000000000000
5400010337326649551  0000265405500005610           000000010000000000076000000000000000000000000000000000000000000000000000000
5400005000765613551  0000275405500001609           000000010000000000325000000000000000000000000000000000000000000000000000000
5400005000765613551  0000275405500002608           000000010000000000058000000000000000000000000000000000000000000000000000000
5400005000765613551  0000275405500003618           000000010000000000098000000000000000000000000000000000000000000000000000000
5400005000765613551  0000275405500004619           000000010000000000089000000000000000000000000000000000000000000000000000000
5400005000765613551  0000275405500005578           000000010000000000055000000000000000000000000000000000000000000000000000000
5400005000765613551  0000275405500006604           000000010000000000128000000000000000000000000000000000000000000000000000000
5400009103378616551  0000285405500001587           000000010000000000212000000000000000000000000000000000000000000000000000000
5400009103378616551  0000285405500002574           000000010000000000132000000000000000000000000000000000000000000000000000000
5400009103378616551  0000285405500003575           000000010000000000369000000000000000000000000000000000000000000000000000000
5400009103378616551  0000285405500004585           000000010000000000145000000000000000000000000000000000000000000000000000000
5400009103378616551  0000285405500005590           000000010000000000023000000000000000000000000000000000000000000000000000000
5400009103378616551  0000285405500006595           000000010000000000034000000000000000000000000000000000000000000000000000000
5400009103378616551  0000285405500007597           000000020000000000138000000000000000000000000000000000000000000000000000000
752024010120240108574           39174090XS6E9K478AF-CARCACA VALVULA TERMOSTATICA             PC    000000000000000000000000000
752024010120240108575           84818021410154100-VALVULA TERMOSTATICA                       PC    000000000000000000000000000
752024010120240108578           40103500111SP170H-CORREIA DISTRIBUICAO                       PC    000000000000000000000000000
752024010120240108580           87089990LT30166-HOMOC RODA                                   PC    000000000000000000000000000
752024010120240108581           4016930075613-JUNTA TAMPA VALVULA                            PC    000000000000000000000000000
752024010120240108582           84099140DS1255-KIT BICO INJETOR                              PC    000000000000000000000000000
752024010120240108583           68138190VW278-LONA FREIO                                     PC    000000000000000000000000000
752024010120240108584           90261029SNMM10212-SENSOR DE NIVEL DE COMBUSTIVEL             PC    000000000000000000000000000
752024010120240108585           84133090MB1A8501AA-BOMBA DAGUA                               PC    000000000000000000000000000
752024010120240108587           8484900079377-JUNTA CABECOTE SUPERIOR                        JG    000000000000000000000000000
752024010120240108590           90259090MTE4067-SENSOR TEMPERATURA I.E.                      PC    000000000000000000000000000
752024010120240108591           87087090VKBA4533-KIT ROL TRAS                                JG    000000000000000000000000000
752024010120240108592           87088000SP357-AMORT SUSPENSAO DIANT                          PC    000000000000000000000000000
752024010120240108593           87088000SP358-AMORT SUSPENSAO DIANT                          PC    000000000000000000000000000
752024010120240108594           84213990LA655-FILTRO ANTI POLEM                              PC    000000000000000000000000000
752024010120240108595           84219999C4151-FILTRO AR                                      PC    000000000000000000000000000
752024010120240108596           87088000MB4262-KIT AMORTECEDOR DIANTEIRO                     PC    000000000000000000000000000
752024010120240108597           84835010531089110-POLIA ALTERNADOR                           PC    000000000000000000000000000
752024010120240108598           85111000FR6LII330V-VELA IGNICAO                              PC    000000000000000000000000000
752024010120240108599           87083019P635-PASTILHA FREIO                                  JG    000000000000000000000000000
752024010120240108600           87088000749078SP-AMORT SUSPENSAO DIANT                       PC    000000000000000000000000000
752024010120240108601           87088000749079SP-AMORT SUSPENSAO DIANT                       PC    000000000000000000000000000
752024010120240108602           870880000212765-COXIM AMORTECEDOR                            PC    000000000000000000000000000
752024010120240108603           87088000MB6802-KIT AMORTECEDOR DIANTEIRO                     JG    000000000000000000000000000
752024010120240108604           84835090VKM15402-TENSOR CORREIA DENTADA                      PC    000000000000000000000000000
752024010120240108605           87088000MB4132S-KIT AMORTECEDOR DIANTEIRO                    PC    000000000000000000000000000
752024010120240108606           8708800055530 KIT CIA-KIT BARRA ESTABILIZADORA               PC    000000000000000000000000000
752024010120240108608           4016930075410-JUNTA TAMPA VALVULA                            PC    000000000000000000000000000
752024010120240108609           8481809296985666-VALVULA DO CANISTER                         PC    000000000000000000000000000
752024010120240108610           85129000B056-PALHETA LIMPADOR                                JG    000000000000000000000000000
752024010120240108613           85443000SCG73-CABO VELA                                      JG    000000000000000000000000000
752024010120240108614           8708910094736156-RESERV AGUA RADIADOR                        PC    000000000000000000000000000
752024010120240108615           870891005050140-TAMPA RESERVATORIO                           PC    000000000000000000000000000
752024010120240108616           85111000BR8ES-VELA IGNICAO                                   PC    000000000000000000000000000
752024010120240108617           40169990SK8184-BUCHA BANDEJA                                 PC    000000000000000000000000000
752024010120240108618           8483501090354858-ENGRENAGEM VIRABREQUIM                      PC    000000000000000000000000000
752024010120240108619           84818021314792-VALVULA TERMOSTATICA                          PC    000000000000000000000000000
90336213140001600034450680073 50000000135100000013530000001354000000377500000037                                             2
90336213140001600034450680073 9900000117                                                                                     2
