10336213140001600034450680073 CRISTINA ISABEL DE CAMPOS          Belo Horizonte                MG31999760132023120120231231331
11Rua Caconde                       00875                      Renascença     31130510teste                       000000000000
5000040519457668ISENTO        20231226MG551  0000095405P000000004380000000000000000000000000000000000000000000000000527000000N
5000007455538693ISENTO        20231226MG551  0000105405P000000001010000000000000000000000000000000000000000000000000138000000N
5000027017915615ISENTO        20231214MG551  0000015405P000000003990000000000000000000000000000000000000000000000000726000000N
5000068516460649ISENTO        20231214MG551  0000025405P000000003590000000000000000000000000000000000000000000000000359000000N
5000008628108688ISENTO        20231214MG551  0000035405P000000002059100000000000000000000000000000000000000000000000699590000N
5000011544304641ISENTO        20231226MG551  0000115405P000000003570000000000000000000000000000000000000000000000000713000000N
5000055978606668ISENTO        20231214MG551  0000045405P000000003490000000000000000000000000000000000000000000000000732000000N
5000004818869660ISENTO        20231226MG551  0000125405P000000012890000000000000000000000000000000000000000000000003686000000N
5000011174915609ISENTO        20231214MG551  0000055405P000000002380000000000000000000000000000000000000000000000000316000000N
5000004296947680ISENTO        20231214MG551  0000065405P000000001290000000000000000000000000000000000000000000000000129000000N
5000000076205606ISENTO        20231214MG551  0000075405P000000001690000000000000000000000000000000000000000000000000169000000N
5000002769939696ISENTO        20231214MG551  0000085405P000000024169100000000000000000000000000000000000000000000030464380000N
5000002769939696ISENTO        20231214MG551  0000085102P000000000726800000000000000000000000000000000000000000000000072680000N
5000020546750672ISENTO        20231226MG551  0000135405P000000005920000000000000000000000000000000000000000000000000866000000N
5000005231670677ISENTO        20231226MG551  0000145405P000000000720000000000000000000000000000000000000000000000000072000000N
5000004116831603ISENTO        20231226MG551  0000155405P000000004860000000000000000000000000000000000000000000000001378000000N
50215322700001130624775200061 20231212MG551  0078645405T000000044103600000000000000000000000000000000000000000000000000000000N
50215322700001130624775200061 20231212MG551  0078645102T000000000726800000000000000000000000000000000000000000000000000000000N
50215322700001130624775200061 20231221MG551  0079585405T000000036182300000000000000000000000000000000000000000000000000000000N
50215322700001130624775200061 20231229MG551  0080021403T000000000470300000000000000000000000000000000000000000000000000000000N
50215322700001130624775200061 20231229MG551  0080025405T000000066243400000000000000000000000000000000000000000000000000000000N
51215322700001130624775200061 20231212MG1  00786454050000000000000000000000000000000000000000000000000000                    N
51215322700001130624775200061 20231212MG1  00786451020000000000000000000000000000000000000000000000000000                    N
5100027017915615ISENTO        20231214MG1  00000154050000000000000000000000000000000000000000000000000000                    N
5100068516460649ISENTO        20231214MG1  00000254050000000000000000000000000000000000000000000000000000                    N
5100008628108688ISENTO        20231214MG1  00000354050000000000000000000000000000000000000000000000000000                    N
5100055978606668ISENTO        20231214MG1  00000454050000000000000000000000000000000000000000000000000000                    N
5100011174915609ISENTO        20231214MG1  00000554050000000000000000000000000000000000000000000000000000                    N
5100004296947680ISENTO        20231214MG1  00000654050000000000000000000000000000000000000000000000000000                    N
5100000076205606ISENTO        20231214MG1  00000754050000000000000000000000000000000000000000000000000000                    N
5100002769939696ISENTO        20231214MG1  00000851020000000000000000000000000000000000000000000000000000                    N
5100002769939696ISENTO        20231214MG1  00000854050000000000000000000000000000000000000000000000000000                    N
51215322700001130624775200061 20231221MG1  00795854050000000000000000000000000000000000000000000000000000                    N
5100040519457668ISENTO        20231226MG1  00000954050000000000000000000000000000000000000000000000000000                    N
5100007455538693ISENTO        20231226MG1  00001054050000000000000000000000000000000000000000000000000000                    N
5100011544304641ISENTO        20231226MG1  00001154050000000000000000000000000000000000000000000000000000                    N
5100004818869660ISENTO        20231226MG1  00001254050000000000000000000000000000000000000000000000000000                    N
5100020546750672ISENTO        20231226MG1  00001354050000000000000000000000000000000000000000000000000000                    N
5100005231670677ISENTO        20231226MG1  00001454050000000000000000000000000000000000000000000000000000                    N
5100004116831603ISENTO        20231226MG1  00001554050000000000000000000000000000000000000000000000000000                    N
51215322700001130624775200061 20231229MG1  00800254050000000000000000000000000000000000000000000000000000                    N
51215322700001130624775200061 20231229MG1  00800214030000000000000000000000000000000000000000000000000000                    N
5300040519457668ISENTO        20231226MG551  0000095405P000000000000000000000000000000000000000N                              
5300007455538693ISENTO        20231226MG551  0000105405P000000000000000000000000000000000000000N                              
5300027017915615ISENTO        20231214MG551  0000015405P000000000000000000000000000000000000000N                              
5300068516460649ISENTO        20231214MG551  0000025405P000000000000000000000000000000000000000N                              
5300008628108688ISENTO        20231214MG551  0000035405P000000000000000000000000000000000000000N                              
5300011544304641ISENTO        20231226MG551  0000115405P000000000000000000000000000000000000000N                              
5300055978606668ISENTO        20231214MG551  0000045405P000000000000000000000000000000000000000N                              
5300004818869660ISENTO        20231226MG551  0000125405P000000000000000000000000000000000000000N                              
5300011174915609ISENTO        20231214MG551  0000055405P000000000000000000000000000000000000000N                              
5300004296947680ISENTO        20231214MG551  0000065405P000000000000000000000000000000000000000N                              
5300000076205606ISENTO        20231214MG551  0000075405P000000000000000000000000000000000000000N                              
5300002769939696ISENTO        20231214MG551  0000085405P000000000000000000000000000000000000000N                              
5300002769939696ISENTO        20231214MG551  0000085102P000000000000000000000000000000000000000N                              
5300020546750672ISENTO        20231226MG551  0000135405P000000000000000000000000000000000000000N                              
5300005231670677ISENTO        20231226MG551  0000145405P000000000000000000000000000000000000000N                              
5300004116831603ISENTO        20231226MG551  0000155405P000000000000000000000000000000000000000N                              
53215322700001130624775200061 20231212MG551  0078645405T000000000000000000000000000000000000000N                              
53215322700001130624775200061 20231212MG551  0078645102T000000000000000000000000000000000000000N                              
53215322700001130624775200061 20231221MG551  0079585405T000000000000000000000000000000000000000N                              
53215322700001130624775200061 20231229MG551  0080021403T000000000000000000000000000000000000000N                              
53215322700001130624775200061 20231229MG551  0080025405T000000000000000000000000000000000000000N                              
5400040519457668551  0000095405500001543           000000010000000000089000000000000000000000000000000000000000000000000000000
5400040519457668551  0000095405500002544           000000010000000000349000000000000000000000000000000000000000000000000000000
5400007455538693551  0000105405500001545           000000010000000000037000000000000000000000000000000000000000000000000000000
5400007455538693551  0000105405500002546           000000010000000000064000000000000000000000000000000000000000000000000000000
5400027017915615551  0000015405500001512           000000010000000000327000000000000000000000000000000000000000000000000000000
5400027017915615551  0000015405500002513           000000020000000000072000000000000000000000000000000000000000000000000000000
5400068516460649551  0000025405500001516           000000010000000000359000000000000000000000000000000000000000000000000000000
5400008628108688551  0000035405500001505           000000020000000000140000000000000000000000000000000000000000000000000000000
5400008628108688551  0000035405500002506           000000010000000000030000000000000000000000000000000000000000000000000000000
5400008628108688551  0000035405500003508           000000010000000000013680000000000000000000000000000000000000000000000000000
5400008628108688551  0000035405500004509           000000010000000000022230000000000000000000000000000000000000000000000000000
5400011544304641551  0000115405500001550           000000010000000000062000000000000000000000000000000000000000000000000000000
5400011544304641551  0000115405500002551           000000010000000000073000000000000000000000000000000000000000000000000000000
5400011544304641551  0000115405500003553           000000010000000000024000000000000000000000000000000000000000000000000000000
5400011544304641551  0000115405500004556           000000020000000000198000000000000000000000000000000000000000000000000000000
5400055978606668551  0000045405500001511           000000010000000000098000000000000000000000000000000000000000000000000000000
5400055978606668551  0000045405500002503           000000010000000000187000000000000000000000000000000000000000000000000000000
5400055978606668551  0000045405500003504           000000020000000000064000000000000000000000000000000000000000000000000000000
5400004818869660551  0000125405500001542           000000010000000000039000000000000000000000000000000000000000000000000000000
5400004818869660551  0000125405500002560           000000030000000000165000000000000000000000000000000000000000000000000000000
5400004818869660551  0000125405500003561           000000020000000000378000000000000000000000000000000000000000000000000000000
5400004818869660551  0000125405500004571           000000010000000000145000000000000000000000000000000000000000000000000000000
5400004818869660551  0000125405500005572           000000010000000000118000000000000000000000000000000000000000000000000000000
5400004818869660551  0000125405500006576           000000040000000000444000000000000000000000000000000000000000000000000000000
5400011174915609551  0000055405500001518           000000010000000000016000000000000000000000000000000000000000000000000000000
5400011174915609551  0000055405500002519           000000010000000000046000000000000000000000000000000000000000000000000000000
5400011174915609551  0000055405500003533           000000010000000000176000000000000000000000000000000000000000000000000000000
5400004296947680551  0000065405500001514           000000010000000000129000000000000000000000000000000000000000000000000000000
5400000076205606551  0000075405500001538           000000010000000000169000000000000000000000000000000000000000000000000000000
5400002769939696551  0000085405500001510           000000010000000000098330000000000000000000000000000000000000000000000000000
5400002769939696551  0000085405500002515           000000040000000000080360000000000000000000000000000000000000000000000000000
5400002769939696551  0000085405500003517           000000010000000000012830000000000000000000000000000000000000000000000000000
5400002769939696551  0000085405500004520           000000010000000000136710000000000000000000000000000000000000000000000000000
5400002769939696551  0000085405500005504           000000020000000000028220000000000000000000000000000000000000000000000000000
5400002769939696551  0000085405500006503           000000010000000000151340000000000000000000000000000000000000000000000000000
5400002769939696551  0000085405500007521           000000020000000000011120000000000000000000000000000000000000000000000000000
5400002769939696551  0000085405500008522           000000010000000000332600000000000000000000000000000000000000000000000000000
5400002769939696551  0000085405500009523           000000010000000000047880000000000000000000000000000000000000000000000000000
5400002769939696551  0000085405500010524           000000010000000000049590000000000000000000000000000000000000000000000000000
5400002769939696551  0000085405500011525           000000010000000000057290000000000000000000000000000000000000000000000000000
5400002769939696551  0000085405500012526           000000010000000000049590000000000000000000000000000000000000000000000000000
5400002769939696551  0000085405500013527           000000020000000000136800000000000000000000000000000000000000000000000000000
5400002769939696551  0000085405500014528           000000020000000000107740000000000000000000000000000000000000000000000000000
5400002769939696551  0000085405500015529           000000020000000000101760000000000000000000000000000000000000000000000000000
5400002769939696551  0000085405500016530           000000010000000000118850000000000000000000000000000000000000000000000000000
5400002769939696551  0000085405500017531           000000020000000000013680000000000000000000000000000000000000000000000000000
5400002769939696551  0000085405500018532           000000010000000000075670000000000000000000000000000000000000000000000000000
5400002769939696551  0000085405500019534           000000010000000000076860000000000000000000000000000000000000000000000000000
5400002769939696551  0000085405500020535           000000010000000000154760000000000000000000000000000000000000000000000000000
5400002769939696551  0000085405500021536           000000010000000000332600000000000000000000000000000000000000000000000000000
5400002769939696551  0000085405500022537           000000020000000000012840000000000000000000000000000000000000000000000000000
5400002769939696551  0000085405500023538           000000010000000000133380000000000000000000000000000000000000000000000000000
5400002769939696551  0000085405500024539           000000020000000000011460000000000000000000000000000000000000000000000000000
5400002769939696551  0000085102102025540           000000010000000000072680000000000000000000000000000000000000000000000000000
5400002769939696551  0000085405500026541           000000010000000000084650000000000000000000000000000000000000000000000000000
5400020546750672551  0000135405500001566           000000010000000000032000000000000000000000000000000000000000000000000000000
5400020546750672551  0000135405500002573           000000010000000000016000000000000000000000000000000000000000000000000000000
5400020546750672551  0000135405500003574           000000010000000000146000000000000000000000000000000000000000000000000000000
5400020546750672551  0000135405500004575           000000010000000000398000000000000000000000000000000000000000000000000000000
5400005231670677551  0000145405500001567           000000010000000000072000000000000000000000000000000000000000000000000000000
5400004116831603551  0000155405500001569           000000040000000000224000000000000000000000000000000000000000000000000000000
5400004116831603551  0000155405500002565           000000010000000000076000000000000000000000000000000000000000000000000000000
5400004116831603551  0000155405500003562           000000010000000000068000000000000000000000000000000000000000000000000000000
5400004116831603551  0000155405500004570           000000010000000000118000000000000000000000000000000000000000000000000000000
5421532270000113551  0078645405060001505           000000020000000000490000000000071050000000000000000000000000000000000000000
5421532270000113551  0078645405060002506           000000010000000000109000000000015800000000000000000000000000000000000000000
5421532270000113551  0078645405060003507           000000010000000000026500000000003840000000000000000000000000000000000000000
5421532270000113551  0078645405060004508           000000010000000000016000000000002320000000000000000000000000000000000000000
5421532270000113551  0078645405060005509           000000010000000000026000000000003770000000000000000000000000000000000000000
5421532270000113551  0078645405060006510           000000010000000000115000000000016670000000000000000000011400000000000000000
5421532270000113551  0078645405060007511           000000040000000000460000000000066700000000000000000000000000000000000000000
5421532270000113551  0078645405060008504           000000020000000000033000000000004780000000000000000000000000000000000000000
5421532270000113551  0078645405060009503           000000010000000000177000000000025660000000000000000000000000000000000000000
5421532270000113551  0078645405060010512           000000010000000000299500000000043430000000000000000000034760000000000000000
5421532270000113551  0078645405060011513           000000020000000000071000000000010290000000000000000000000000000000000000000
5421532270000113551  0078645405060012514           000000010000000000099000000000014350000000000000000000000000000000000000000
5421532270000113551  0078645405060013515           000000040000000000094000000000013630000000000000000000000000000000000000000
5421532270000113551  0078645405060014516           000000010000000000359000000000052050000000000000000000000000000000000000000
5421532270000113551  0078645405060015517           000000010000000000015000000000002170000000000000000000000000000000000000000
5421532270000113551  0078645405060016518           000000010000000000016000000000002320000000000000000000000000000000000000000
5421532270000113551  0078645405060017519           000000010000000000046500000000006740000000000000000000000000000000000000000
5421532270000113551  0078645405060018520           000000010000000000159900000000023190000000000000000000000000000000000000000
5421532270000113551  0078645405060019504           000000020000000000033000000000004780000000000000000000000000000000000000000
5421532270000113551  0078645405060020503           000000010000000000177000000000025660000000000000000000000000000000000000000
5421532270000113551  0078645405060021521           000000020000000000013000000000001880000000000000000000000000000000000000000
5421532270000113551  0078645405060022522           000000010000000000389000000000056400000000000000000000000000000000000000000
5421532270000113551  0078645405060023523           000000010000000000056000000000008120000000000000000000000000000000000000000
5421532270000113551  0078645405060024524           000000010000000000058000000000008410000000000000000000000000000000000000000
5421532270000113551  0078645405060025525           000000010000000000067000000000009710000000000000000000000000000000000000000
5421532270000113551  0078645405060026526           000000010000000000058000000000008410000000000000000000000000000000000000000
5421532270000113551  0078645405060027527           000000020000000000160000000000023200000000000000000000000000000000000000000
5421532270000113551  0078645405060028528           000000020000000000126000000000018270000000000000000000010460000000000000000
5421532270000113551  0078645405060029529           000000020000000000119000000000017250000000000000000000000000000000000000000
5421532270000113551  0078645405060030530           000000010000000000139000000000020150000000000000000000000000000000000000000
5421532270000113551  0078645405060031531           000000020000000000016000000000002320000000000000000000000000000000000000000
5421532270000113551  0078645405060032532           000000010000000000088500000000012830000000000000000000008850000000000000000
5421532270000113551  0078645405060033533           000000010000000000103000000000014930000000000000000000000000000000000000000
5421532270000113551  0078645405060034534           000000010000000000089900000000013040000000000000000000000000000000000000000
5421532270000113551  0078645405060035535           000000010000000000181000000000026240000000000000000000018090000000000000000
5421532270000113551  0078645405060036536           000000010000000000389000000000056400000000000000000000000000000000000000000
5421532270000113551  0078645405060037537           000000020000000000015000000000002170000000000000000000000000000000000000000
5421532270000113551  0078645405060038538           000000010000000000156000000000022620000000000000000000000000000000000000000
5421532270000113551  0078645405060039539           000000020000000000013400000000001940000000000000000000000000000000000000000
5421532270000113551  0078645102000040540           000000010000000000085000000000012320000000000000000000000000000000000000000
5421532270000113551  0078645405060041541           000000010000000000099000000000014350000000000000000000009500000000000000000
5421532270000113551  0079585405060001542           000000010000000000020000000000002900000000000000000000000000000000000000000
5421532270000113551  0079585405060002543           000000010000000000059500000000008630000000000000000000000000000000000000000
5421532270000113551  0079585405060003544           000000010000000000305000000000044220000000000000000000000000000000000000000
5421532270000113551  0079585405060004545           000000010000000000020000000000002900000000000000000000000000000000000000000
5421532270000113551  0079585405060005546           000000010000000000058000000000008410000000000000000000000000000000000000000
5421532270000113551  0079585405060006547           000000020000000000242000000000035090000000000000000000000000000000000000000
5421532270000113551  0079585405060007548           000000010000000000135000000000019570000000000000000000012910000000000000000
5421532270000113551  0079585405060008549           000000010000000000067000000000009710000000000000000000000000000000000000000
5421532270000113551  0079585405060009550           000000010000000000049900000000007240000000000000000000000000000000000000000
5421532270000113551  0079585405060010551           000000010000000000062000000000008990000000000000000000000000000000000000000
5421532270000113551  0079585405060011552           000000020000000000139800000000020270000000000000000000012180000000000000000
5421532270000113551  0079585405060012553           000000010000000000015500000000002250000000000000000000000000000000000000000
5421532270000113551  0079585405060013554           000000020000000000112000000000016240000000000000000000000000000000000000000
5421532270000113551  0079585405060014555           000000010000000000068500000000009930000000000000000000000000000000000000000
5421532270000113551  0079585405060015556           000000020000000000177000000000025660000000000000000000000000000000000000000
5421532270000113551  0079585405060016557           000000010000000000072000000000010440000000000000000000008620000000000000000
5421532270000113551  0079585405060017558           000000010000000000053000000000007680000000000000000000000000000000000000000
5421532270000113551  0079585405060018559           000000010000000000032000000000004640000000000000000000000000000000000000000
5421532270000113551  0079585405060019560           000000020000000000106000000000015370000000000000000000000000000000000000000
5421532270000113551  0079585405060020561           000000020000000000359800000000052170000000000000000000000000000000000000000
5421532270000113551  0079585405060021562           000000010000000000054000000000007830000000000000000000004640000000000000000
5421532270000113551  0079585405060022563           000000010000000000048000000000006960000000000000000000000000000000000000000
5421532270000113551  0079585405060023564           000000010000000000065000000000009420000000000000000000000000000000000000000
5421532270000113551  0079585405060024565           000000010000000000032000000000004640000000000000000000000000000000000000000
5421532270000113551  0079585405060025566           000000010000000000024500000000003550000000000000000000000000000000000000000
5421532270000113551  0079585405060026567           000000010000000000054500000000007900000000000000000000000000000000000000000
5421532270000113551  0079585405060027568           000000040000000000230000000000033350000000000000000000038120000000000000000
5421532270000113551  0079585405060028569           000000040000000000212000000000030740000000000000000000000000000000000000000
5421532270000113551  0079585405060029570           000000010000000000095000000000013770000000000000000000000000000000000000000
5421532270000113551  0079585405060030571           000000010000000000118000000000017110000000000000000000012410000000000000000
5421532270000113551  0079585405060031572           000000010000000000116000000000016820000000000000000000000000000000000000000
5421532270000113551  0079585405060032573           000000010000000000007800000000001130000000000000000000000000000000000000000
5421532270000113551  0079585405060033574           000000010000000000118000000000017110000000000000000000011210000000000000000
5421532270000113551  0079585405060034575           000000010000000000365000000000052920000000000000000000000000000000000000000
5421532270000113551  0079585405060035576           000000040000000000446000000000064670000000000000000000000000000000000000000
5421532270000113551  0079585405060036577           000000010000000000092000000000013340000000000000000000000000000000000000000
5421532270000113551  0080021403060001579           000000010000000000055000000000007970000000000000000000000000000000000000000
5421532270000113551  0080025405060002580           000000010000000000274000000000039730000000000000000000000000000000000000000
5421532270000113551  0080025405060003581           000000010000000000028000000000004060000000000000000000000000000000000000000
5421532270000113551  0080025405060004582           000000010000000000034000000000004930000000000000000000000000000000000000000
5421532270000113551  0080025405060005583           000000010000000000049500000000007180000000000000000000000000000000000000000
5421532270000113551  0080025405060006584           000000010000000000152000000000022040000000000000000000000000000000000000000
5421532270000113551  0080025405060007573           000000010000000000007800000000001130000000000000000000000000000000000000000
5421532270000113551  0080025405060008585           000000010000000000125000000000018120000000000000000000000000000000000000000
5421532270000113551  0080025405060009574           000000010000000000118000000000017110000000000000000000011210000000000000000
5421532270000113551  0080025405060010586           000000010000000000059500000000008630000000000000000000000000000000000000000
5421532270000113551  0080025405060011587           000000010000000000210000000000030450000000000000000000000000000000000000000
5421532270000113551  0080025405060012588           000000010000000000022000000000003190000000000000000000000000000000000000000
5421532270000113551  0080025405060013589           000000010000000000045000000000006520000000000000000000000000000000000000000
5421532270000113551  0080025405060014590           000000010000000000099000000000014350000000000000000000000000000000000000000
5421532270000113551  0080025405060015575           000000010000000000365000000000052920000000000000000000000000000000000000000
5421532270000113551  0080025405060016591           000000020000000000225000000000032620000000000000000000000000000000000000000
5421532270000113551  0080025405060017592           000000010000000000430000000000062350000000000000000000043880000000000000000
5421532270000113551  0080025405060018593           000000010000000000430000000000062350000000000000000000000000000000000000000
5421532270000113551  0080025405060019594           000000010000000000018000000000002610000000000000000000000000000000000000000
5421532270000113551  0080025405060020595           000000010000000000026500000000003840000000000000000000002400000000000000000
5421532270000113551  0080025405060021596           000000020000000000114000000000016530000000000000000000000000000000000000000
5421532270000113551  0080025405060022597           000000020000000000132000000000019140000000000000000000000000000000000000000
5421532270000113551  0080025405060023598           000000040000000000416000000000060320000000000000000000000000000000000000000
5421532270000113551  0080025405060024599           000000010000000000159500000000023130000000000000000000015730000000000000000
5421532270000113551  0080025405060025600           000000010000000000499000000000072350000000000000000000000000000000000000000
5421532270000113551  0080025405060026601           000000010000000000499000000000072350000000000000000000000000000000000000000
5421532270000113551  0080025405060027578           000000010000000000049500000000007180000000000000000000000000000000000000000
5421532270000113551  0080025405060028602           000000020000000000470000000000068150000000000000000000000000000000000000000
5421532270000113551  0080025405060029603           000000020000000000146000000000021170000000000000000000000000000000000000000
5421532270000113551  0080025405060030604           000000010000000000115000000000016670000000000000000000000000000000000000000
5421532270000113551  0080025405060031605           000000020000000000033400000000004840000000000000000000000000000000000000000
5421532270000113551  0080025405060032606           000000020000000000080000000000011600000000000000000000007340000000000000000
5421532270000113551  0080025405060033607           000000010000000000755000000000109470000000000000000000000000000000000000000
5421532270000113551  0080025405060034608           000000010000000000052000000000007540000000000000000000000000000000000000000
5421532270000113551  0080025405060035609           000000010000000000310000000000044950000000000000000000000000000000000000000
5421532270000113551  0080025405060036610           000000010000000000056500000000008190000000000000000000000000000000000000000
5421532270000113551  0080025405060037611           000000010000000000048500000000007030000000000000000000000000000000000000000
5421532270000113551  0080025405060038612           000000010000000000059000000000008550000000000000000000000000000000000000000
5421532270000113551  0080025405060039613           000000010000000000130000000000018850000000000000000000000000000000000000000
5421532270000113551  0080025405060040509           000000030000000000078000000000011310000000000000000000000000000000000000000
5421532270000113551  0080025405060041614           000000010000000000156000000000022620000000000000000000000000000000000000000
5421532270000113551  0080025405060042615           000000010000000000028000000000004060000000000000000000000000000000000000000
5421532270000113551  0080025405060043616           000000040000000000068000000000009860000000000000000000000000000000000000000
5421532270000113551  0080025405060044617           000000020000000000070000000000010150000000000000000000004720000000000000000
5421532270000113551  0080025405060045578           000000010000000000048000000000006960000000000000000000000000000000000000000
5421532270000113551  0080025405060046618           000000010000000000089000000000012900000000000000000000000000000000000000000
5421532270000113551  0080025405060047619           000000010000000000078000000000011310000000000000000000000000000000000000000
5421532270000113551  0080025405060048620           000000020000000000290000000000042050000000000000000000028030000000000000000
752023120120231231503           85443000STV42-CABO VELA                                      PC    000000000000000000000000000
752023120120231231504           401699900412440-BUCHA BARRA ESTABILIZADORA                   PC    000000000000000000000000000
752023120120231231505           87088000SP004-AMORT SUSPENSAO TRAS                           PC    000000000000000000000000000
752023120120231231506           87083090C3544-CILINDRO RODA                                  PC    000000000000000000000000000
752023120120231231507           84213990LA1103-FILTRO ANTI POLEM                             PC    000000000000000000000000000
752023120120231231508           84212300KL583-FILTRO COMBUSTIVEL                             PC    000000000000000000000000000
752023120120231231509           38190000DOT4 ATE-OLEO FREIO                                  FR    000000000000000000000000000
752023120120231231510           87083019P1438-PASTILHA FREIO                                 PC    000000000000000000000000000
752023120120231231511           85111000DILFR6D11D-VELA IGNICAO                              PC    000000000000000000000000000
752023120120231231512           870893003000000144-KIT EMBREAGEM                             JG    000000000000000000000000000
752023120120231231513           27101932SAE80 GL4-OLEO CAMBIO                                PC    000000000000000000000000000
752023120120231231514           8708999052170903-RESERV AGUA RADIADOR                        PC    000000000000000000000000000
752023120120231231515           85111000BKR7ESB-VELA IGNICAO                                 PC    000000000000000000000000000
752023120120231231516           87089990JHC01110-HOMOC RODA                                  PC    000000000000000000000000000
752023120120231231517           392690908644057-CONECTOR ENGATE RAPIDO                       PC    000000000000000000000000000
752023120120231231518           84213990LA301-FILTRO ANTI POLEM                              PC    000000000000000000000000000
752023120120231231519           84219999LX3800-FILTRO AR                                     PC    000000000000000000000000000
752023120120231231520           84213990030103464A-ANTI CHAMA                                PC    000000000000000000000000000
752023120120231231521           870870902041617-CALOTA CUBO RODA                             PC    000000000000000000000000000
752023120120231231522           87089990032121026CP-CARCACA VALVULA TERMOSTATICA             PC    000000000000000000000000000
752023120120231231523           87083090ATE7600-CILINDRO RODA                                PC    000000000000000000000000000
752023120120231231524           401031006PK1200ELASTICA-CORREIA                              PC    000000000000000000000000000
752023120120231231525           40103500CT453HNBR-CORREIA DISTRIBUICAO                       PC    000000000000000000000000000
752023120120231231526           87083090HFCD01-CUBO RODA DIANTEIRA                           PC    000000000000000000000000000
752023120120231231527           87088000SK409RS-KIT AMORTECEDOR DIANTEIRO                    PC    000000000000000000000000000
752023120120231231528           870880000441482-KIT AMORTECEDOR TRASEIRO                     JG    000000000000000000000000000
752023120120231231529           87087090VKBA4529-KIT ROL TRAS                                JG    000000000000000000000000000
752023120120231231530           400931005U0201153A-MANGUEIRA                                 PC    000000000000000000000000000
752023120120231231531           731814002161453-PARAFUSO RODA                                PC    000000000000000000000000000
752023120120231231532           87083019P1100-PASTILHA FREIO                                 JG    000000000000000000000000000
752023120120231231533           68138110P1441-PASTILHA FREIO                                 JG    000000000000000000000000000
752023120120231231534           84821090BAH0036B-ROL RODA                                    PC    000000000000000000000000000
752023120120231231535           87089990SK4953-SUPORTE MOTOR                                 PC    000000000000000000000000000
752023120120231231536           87083019PD1600-PASTILHA FREIO                                PC    000000000000000000000000000
752023120120231231537           870870902051370-CALOTA CUBO RODA                             PC    000000000000000000000000000
752023120120231231538           87083019P1492-PASTILHA FREIO                                 PC    000000000000000000000000000
752023120120231231539           85392910LMM7507-LAMPADA                                      PC    000000000000000000000000000
752023120120231231540           85432000DS1820-SENSOR ROTACAO                                PC    000000000000000000000000000
752023120120231231541           84835010VKM4790-POLIA ALTERNADOR                             PC    000000000000000000000000000
752023120120231231542           84213990LA607-FILTRO ANTI POLEM                              PC    000000000000000000000000000
752023120120231231543           84219999LX4372-FILTRO AR                                     PC    000000000000000000000000000
752023120120231231544           87083019PD2207-PASTILHA FREIO                                PC    000000000000000000000000000
752023120120231231545           84213990CU22019-FILTRO ANTI POLEM                            PC    000000000000000000000000000
752023120120231231546           84219999LX4669-FILTRO AR                                     PC    000000000000000000000000000
752023120120231231547           87083090BD3545-DISCO FREIO                                   PC    000000000000000000000000000
752023120120231231548           87083019PD94-PASTILHA FREIO                                  JG    000000000000000000000000000
752023120120231231549           87083019P85-PASTILHA FREIO                                   JG    000000000000000000000000000
752023120120231231550           870894820680184-ARTICULACAO CAIXA DIRECAO                    PC    000000000000000000000000000
752023120120231231551           87088000NAK92004-BIELETA BARRA ESTABILIZADORA                PC    000000000000000000000000000
752023120120231231552           87088000LT60000-BIELETA BARRA ESTABILIZADORA                 PC    000000000000000000000000000
752023120120231231553           401693002024202-BUCHA                                        PC    000000000000000000000000000
752023120120231231554           401699905115447-BUCHA BARRA ESTABILIZADORA                   PC    000000000000000000000000000
752023120120231231555           85129000B316-PALHETA LIMPADOR                                JG    000000000000000000000000000
752023120120231231556           87088000NAK2136-PIVO SUSPENSAO                               PC    000000000000000000000000000
752023120120231231557           401031007PK1125-CORREIA                                      PC    000000000000000000000000000
752023120120231231558           84219999C23110-FILTRO AR                                     PC    000000000000000000000000000
752023120120231231559           84212300W8118-FILTRO OLEO MOTOR                              PC    000000000000000000000000000
752023120120231231560           87088000BMG05003-AMORT TAMPA TRAS                            PC    000000000000000000000000000
752023120120231231561           87083090HF700-DISCO FREIO                                    PC    000000000000000000000000000
752023120120231231562           84219999C21002-FILTRO AR                                     PC    000000000000000000000000000
752023120120231231563           84219999C23023-FILTRO AR                                     PC    000000000000000000000000000
752023120120231231564           84219999OX1172D-FILTRO OLEO MOTOR                            PC    000000000000000000000000000
752023120120231231565           84212300W7561-FILTRO OLEO MOTOR                              PC    000000000000000000000000000
752023120120231231566           40093100JM7597MM-MANGUEIRA                                   PC    000000000000000000000000000
752023120120231231567           40093100M50705-MANGUEIRA SUPERIOR RADIADOR                   PC    000000000000000000000000000
752023120120231231568           271019325W30 DEXOS2-OLEO MOTOR                               PC    000000000000000000000000000
752023120120231231569           271019325W30 BRUTUS-OLEO MOTOR                               LT    000000000000000000000000000
752023120120231231570           85129000B604-PALHETA LIMPADOR                                JG    000000000000000000000000000
752023120120231231571           87083019P685-PASTILHA FREIO                                  JG    000000000000000000000000000
752023120120231231572           87083019P398-PASTILHA FREIO TRASEIRO                         JG    000000000000000000000000000
752023120120231231573           4016930076085-ANEL VEDACAO                                   PC    000000000000000000000000000
752023120120231231574           39174090XS6E9K478AF-CARCACA VALVULA TERMOSTATICA             PC    000000000000000000000000000
752023120120231231575           84818021410154100-VALVULA TERMOSTATICA                       PC    000000000000000000000000000
752023120120231231576           85111000IZFR6K13DN-VELA IGNICAO                              PC    000000000000000000000000000
752023120120231231577           85119000594381-PORTA ESCOVA MOTOR PARTIDA                    PC    000000000000000000000000000
752023120120231231578           40103500111SP170H-CORREIA DISTRIBUICAO                       PC    000000000000000000000000000
752023120120231231579           9025909055214055-CARCACA                                     PC    000000000000000000000000000
752023120120231231580           87089990LT30166-HOMOC RODA                                   PC    000000000000000000000000000
752023120120231231581           4016930075613-JUNTA TAMPA VALVULA                            PC    000000000000000000000000000
752023120120231231582           84099140DS1255-KIT BICO INJETOR                              PC    000000000000000000000000000
752023120120231231583           68138190VW278-LONA FREIO                                     PC    000000000000000000000000000
752023120120231231584           90261029SNMM10212-SENSOR DE NIVEL DE COMBUSTIVEL             PC    000000000000000000000000000
752023120120231231585           84133090MB1A8501AA-BOMBA DAGUA                               PC    000000000000000000000000000
752023120120231231586           84841000589590-JUNTA CABECOTE                                PC    000000000000000000000000000
752023120120231231587           8484900079377-JUNTA CABECOTE SUPERIOR                        JG    000000000000000000000000000
752023120120231231588           721012002081910-JUNTA COLETOR ESCAP/ADM                      PC    000000000000000000000000000
752023120120231231589           40169300114006-KIT ANEIS VEDACAO                             JG    000000000000000000000000000
752023120120231231590           90259090MTE4067-SENSOR TEMPERATURA I.E.                      PC    000000000000000000000000000
752023120120231231591           87087090VKBA4533-KIT ROL TRAS                                JG    000000000000000000000000000
752023120120231231592           87088000SP357-AMORT SUSPENSAO DIANT                          PC    000000000000000000000000000
752023120120231231593           87088000SP358-AMORT SUSPENSAO DIANT                          PC    000000000000000000000000000
752023120120231231594           84213990LA655-FILTRO ANTI POLEM                              PC    000000000000000000000000000
752023120120231231595           84219999C4151-FILTRO AR                                      PC    000000000000000000000000000
752023120120231231596           87088000MB4262-KIT AMORTECEDOR DIANTEIRO                     PC    000000000000000000000000000
752023120120231231597           84835010531089110-POLIA ALTERNADOR                           PC    000000000000000000000000000
752023120120231231598           85111000FR6LII330V-VELA IGNICAO                              PC    000000000000000000000000000
752023120120231231599           87083019P635-PASTILHA FREIO                                  JG    000000000000000000000000000
752023120120231231600           87088000749078SP-AMORT SUSPENSAO DIANT                       PC    000000000000000000000000000
752023120120231231601           87088000749079SP-AMORT SUSPENSAO DIANT                       PC    000000000000000000000000000
752023120120231231602           870880000212765-COXIM AMORTECEDOR                            PC    000000000000000000000000000
752023120120231231603           87088000MB6802-KIT AMORTECEDOR DIANTEIRO                     JG    000000000000000000000000000
752023120120231231604           84835090VKM15402-TENSOR CORREIA DENTADA                      PC    000000000000000000000000000
752023120120231231605           87088000MB4132S-KIT AMORTECEDOR DIANTEIRO                    PC    000000000000000000000000000
752023120120231231606           8708800055530 KIT CIA-KIT BARRA ESTABILIZADORA               PC    000000000000000000000000000
752023120120231231607           84831020APL261-COMANDO VALVULA                               PC    000000000000000000000000000
752023120120231231608           4016930075410-JUNTA TAMPA VALVULA                            PC    000000000000000000000000000
752023120120231231609           8481809296985666-VALVULA DO CANISTER                         PC    000000000000000000000000000
752023120120231231610           85129000B056-PALHETA LIMPADOR                                JG    000000000000000000000000000
752023120120231231611           85129000DYS440-PALHETA LIMPADOR                              PC    000000000000000000000000000
752023120120231231612           85129000DYS465-PALHETA LIMPADOR                              PC    000000000000000000000000000
752023120120231231613           85443000SCG73-CABO VELA                                      JG    000000000000000000000000000
752023120120231231614           8708910094736156-RESERV AGUA RADIADOR                        PC    000000000000000000000000000
752023120120231231615           870891005050140-TAMPA RESERVATORIO                           PC    000000000000000000000000000
752023120120231231616           85111000BR8ES-VELA IGNICAO                                   PC    000000000000000000000000000
752023120120231231617           40169990SK8184-BUCHA BANDEJA                                 PC    000000000000000000000000000
752023120120231231618           8483501090354858-ENGRENAGEM VIRABREQUIM                      PC    000000000000000000000000000
752023120120231231619           84818021314792-VALVULA TERMOSTATICA                          PC    000000000000000000000000000
752023120120231231620           870880000442626-KIT AMORTECEDOR DIANTEIRO                    PC    000000000000000000000000000
90336213140001600034450680073 50000000215100000021530000002154000001897500000118                                             2
90336213140001600034450680073 9900000374                                                                                     2
