10336213140001600034450680073 CRISTINA ISABEL DE CAMPOS          Belo Horizonte                MG31999760132024090120240930331
11Rua Caconde                       00875                      Renascença     31130510VINICIUS MURTA NERY         031934225098
5000089577760600ISENTO        20240905MG551  0003875405P000000000960000000000000000000000000000000000000000000000000096000000N
5000067330886653ISENTO        20240917MG551  0003885405P000000004030000000000000000000000000000000000000000000000000832000000N
5000016338952620ISENTO        20240918MG551  0003905405P000000017350000000000000000000000000000000000000000000000011787000000N
5000016338952620ISENTO        20240918MG551  0003905102P000000000160000000000000000000000000000000000000000000000000016000000N
5000057414807649ISENTO        20240917MG551  0003895405P000000002660000000000000000000000000000000000000000000000000824000000N
5000057414807649ISENTO        20240917MG551  0003895102P000000000350000000000000000000000000000000000000000000000000035000000N
5000066352827691ISENTO        20240920MG551  0003995656P000000001470000000000000000000000000000000000000000000000000147000000N
5000066352827691ISENTO        20240920MG551  0003995405P000000000440000000000000000000000000000000000000000000000000070000000N
5000066352827691ISENTO        20240920MG551  0003995102P000000000050000000000000000000000000000000000000000000000000005000000N
5000045175942620ISENTO        20240923MG551  0004005656P000000001760000000000000000000000000000000000000000000000000176000000N
5000045175942620ISENTO        20240923MG551  0004005405P000000000750000000000000000000000000000000000000000000000000101000000N
5000007895563670ISENTO        20240926MG551  0004015405P000000001390000000000000000000000000000000000000000000000000253000000N
5000005885341613ISENTO        20240930MG551  0004045405P000000007470000000000000000000000000000000000000000000000004532000000N
5000005885341613ISENTO        20240930MG551  0004045102P000000000060000000000000000000000000000000000000000000000000006000000N
5000004577681692ISENTO        20240926MG551  0004025656P000000001760000000000000000000000000000000000000000000000000176000000N
5000004577681692ISENTO        20240926MG551  0004025405P000000001690000000000000000000000000000000000000000000000000493000000N
5000004577681692ISENTO        20240926MG551  0004025102P000000000400000000000000000000000000000000000000000000000000045000000N
5000001528954696ISENTO        20240918MG551  0003915405P000000016800000000000000000000000000000000000000000000000016532000000N
5000001528954696ISENTO        20240918MG551  0003915656P000000001470000000000000000000000000000000000000000000000000147000000N
5000007753430645ISENTO        20240926MG551  0004035656P000000001890000000000000000000000000000000000000000000000000189000000N
5000007753430645ISENTO        20240926MG551  0004035405P000000003400000000000000000000000000000000000000000000000001158000000N
5000007753430645ISENTO        20240926MG551  0004035102P000000000400000000000000000000000000000000000000000000000000045000000N
5000013006665600ISENTO        20240918MG551  0003925405P000000003180000000000000000000000000000000000000000000000000318000000N
5000073964484687ISENTO        20240918MG551  0003935656P000000001260000000000000000000000000000000000000000000000000126000000N
5000073964484687ISENTO        20240918MG551  0003935405P000000000600000000000000000000000000000000000000000000000000086000000N
5000019635419600ISENTO        20240930MG551  0004055405P000000002120000000000000000000000000000000000000000000000000738000000N
5000052571580604ISENTO        20240918MG551  0003945656P000000001760000000000000000000000000000000000000000000000000176000000N
5000052571580604ISENTO        20240918MG551  0003945405P000000000600000000000000000000000000000000000000000000000000086000000N
5000052571580604ISENTO        20240918MG551  0003945102P000000000050000000000000000000000000000000000000000000000000005000000N
5000001340790602ISENTO        20240918MG551  0003955656P000000001320000000000000000000000000000000000000000000000000132000000N
5000001340790602ISENTO        20240918MG551  0003955405P000000000590000000000000000000000000000000000000000000000000084000000N
5000052369692634ISENTO        20240930MG551  0004065405P000000006410000000000000000000000000000000000000000000000000686000000N
5000052369692634ISENTO        20240930MG551  0004065102P000000000350000000000000000000000000000000000000000000000000035000000N
5000055024491653ISENTO        20240918MG551  0003965405P000000002430000000000000000000000000000000000000000000000000595000000N
5000055024491653ISENTO        20240918MG551  0003965102P000000000050000000000000000000000000000000000000000000000000005000000N
5000003447158689ISENTO        20240930MG551  0004075656P000000001260000000000000000000000000000000000000000000000000126000000N
5000003447158689ISENTO        20240930MG551  0004075405P000000000601100000000000000000000000000000000000000000000000081230000N
5000004370199697ISENTO        20240918MG551  0003985656P000000001470000000000000000000000000000000000000000000000000147000000N
5000004370199697ISENTO        20240918MG551  0003985405P000000001210000000000000000000000000000000000000000000000000241000000N
5000006055005689ISENTO        20240930MG551  0004085656P000000001320000000000000000000000000000000000000000000000000132000000N
5000006055005689ISENTO        20240930MG551  0004085405P000000000600000000000000000000000000000000000000000000000000094000000N
5000076866629691ISENTO        20240930MG551  0004095405P000000016320000000000000000000000000000000000000000000000005213000000N
5000000232691622ISENTO        20240930MG551  0004105405P000000018590000000000000000000000000000000000000000000000013791000000N
5000000232691622ISENTO        20240930MG551  0004105102P000000000160000000000000000000000000000000000000000000000000016000000N
5000080182763668ISENTO        20240930MG551  0004115405P000000003190000000000000000000000000000000000000000000000001198000000N
5000001185162640ISENTO        20240930MG551  0004125656P000000001760000000000000000000000000000000000000000000000000176000000N
5000001185162640ISENTO        20240930MG551  0004125405P000000009080000000000000000000000000000000000000000000000002640000000N
5000001185162640ISENTO        20240930MG551  0004125102P000000000050000000000000000000000000000000000000000000000000005000000N
5000040085678600ISENTO        20240930MG551  0004135405P000000003120000000000000000000000000000000000000000000000001047000000N
5000008527855690ISENTO        20240930MG551  0004145656P000000001260000000000000000000000000000000000000000000000000126000000N
5000008527855690ISENTO        20240930MG551  0004145405P000000002470000000000000000000000000000000000000000000000000359000000N
5000065961064620ISENTO        20240930MG551  0004155405P000000003220000000000000000000000000000000000000000000000000322000000N
5000008265011687ISENTO        20240930MG551  0004165405P000000001840000000000000000000000000000000000000000000000000300000000N
5000061343170630ISENTO        20240930MG551  0004175656P000000001680000000000000000000000000000000000000000000000000168000000N
5000061343170630ISENTO        20240930MG551  0004175405P000000000640000000000000000000000000000000000000000000000000102000000N
5000061343170630ISENTO        20240930MG551  0004175102P000000000160000000000000000000000000000000000000000000000000016000000N
5000023078600610ISENTO        20240930MG551  0004185656P000000001840000000000000000000000000000000000000000000000000184000000N
5000023078600610ISENTO        20240930MG551  0004185405P000000001760000000000000000000000000000000000000000000000000488000000N
5000023078600610ISENTO        20240930MG551  0004185102P000000000050000000000000000000000000000000000000000000000000005000000N
5000004180385627ISENTO        20240930MG551  0004195656P000000001760000000000000000000000000000000000000000000000000176000000N
5000004180385627ISENTO        20240930MG551  0004195405P000000000780000000000000000000000000000000000000000000000000104000000N
5000001454990651ISENTO        20240930MG551  0004205405P000000004280000000000000000000000000000000000000000000000001628000000N
5000043539475672ISENTO        20240930MG551  0004215405P000000006970000000000000000000000000000000000000000000000002475000000N
5000029866979687ISENTO        20240930MG551  0004225405P000000003770000000000000000000000000000000000000000000000000466000000N
5000069331502672ISENTO        20240930MG551  0004235405P000000002890000000000000000000000000000000000000000000000000289000000N
5000007748348626ISENTO        20240930MG551  0004245405P000000000720000000000000000000000000000000000000000000000000072000000N
5000004611966623ISENTO        20240930MG551  0004255405P000000002440000000000000000000000000000000000000000000000000590000000N
5000004611966623ISENTO        20240930MG551  0004255102P000000000050000000000000000000000000000000000000000000000000005000000N
5000000650826647ISENTO        20240930MG551  0004265405P000000002870000000000000000000000000000000000000000000000000745000000N
5000000650826647ISENTO        20240930MG551  0004265102P000000000160000000000000000000000000000000000000000000000000016000000N
5000070055017649ISENTO        20240930MG551  0004275405P000000003330000000000000000000000000000000000000000000000000823000000N
5000002105696627ISENTO        20240930MG551  0004285656P000000001260000000000000000000000000000000000000000000000000126000000N
5000002105696627ISENTO        20240930MG551  0004285405P000000000600000000000000000000000000000000000000000000000000086000000N
5000085072230600ISENTO        20240930MG551  0004295656P000000005600000000000000000000000000000000000000000000000000560000000N
5000085072230600ISENTO        20240930MG551  0004295405P000000005880000000000000000000000000000000000000000000000001835000000N
5000085072230600ISENTO        20240930MG551  0004295102P000000000510000000000000000000000000000000000000000000000000067000000N
5000071701796600ISENTO        20240930MG551  0004305405P000000000860000000000000000000000000000000000000000000000000086000000N
5000018711847620ISENTO        20240930MG551  0004315405P000000003980000000000000000000000000000000000000000000000001519000000N
5000018711847620ISENTO        20240930MG551  0004315656P000000001760000000000000000000000000000000000000000000000000176000000N
5000018711847620ISENTO        20240930MG551  0004315102P000000000160000000000000000000000000000000000000000000000000016000000N
5000006724336643ISENTO        20240930MG551  0004325405P000000008120000000000000000000000000000000000000000000000003849000000N
5000020582200644ISENTO        20240930MG551  0004335405P000000005270000000000000000000000000000000000000000000000002251000000N
5000020582200644ISENTO        20240930MG551  0004335656P000000001840000000000000000000000000000000000000000000000000184000000N
5000020582200644ISENTO        20240930MG551  0004335102P000000000400000000000000000000000000000000000000000000000000045000000N
5000005620430634ISENTO        20240930MG551  0004345656P000000001980000000000000000000000000000000000000000000000000198000000N
5000005620430634ISENTO        20240930MG551  0004345405P000000003690000000000000000000000000000000000000000000000000637000000N
5000011923192655ISENTO        20240930MG551  0004355405P000000002640000000000000000000000000000000000000000000000000680000000N
5000076383350668ISENTO        20240930MG551  0004365656P000000002200000000000000000000000000000000000000000000000000220000000N
5000076383350668ISENTO        20240930MG551  0004365405P000000004450000000000000000000000000000000000000000000000000638000000N
5000007850812670ISENTO        20240930MG551  0004375405P000000002340000000000000000000000000000000000000000000000000452000000N
5000007850812670ISENTO        20240930MG551  0004375656P000000001380000000000000000000000000000000000000000000000000138000000N
5000004577681692ISENTO        20240930MG551  0004385405P000000003520000000000000000000000000000000000000000000000000490000000N
5000066352827691ISENTO        20240930MG551  0004395405P000000001150000000000000000000000000000000000000000000000000115000000N
5000039902099653ISENTO        20240930MG551  0004405405P000000012040000000000000000000000000000000000000000000000001352000000N
5000039902099653ISENTO        20240930MG551  0004405656P000000000210000000000000000000000000000000000000000000000000021000000N
5000014399115688ISENTO        20240930MG551  0004415405P000000005340000000000000000000000000000000000000000000000001775000000N
5000014399115688ISENTO        20240930MG551  0004415656P000000001840000000000000000000000000000000000000000000000000184000000N
5000014399115688ISENTO        20240930MG551  0004415102P000000000050000000000000000000000000000000000000000000000000005000000N
5043648971000155278024442113  20240916SP558  2040172556T000000009064300000000906430000000010878000000000000000000000000001200N
50215322700001130624775200061 20240912MG551  0097481403T000000031815800000000000000000000000000000000000000000000000000000000N
50215322700001130624775200061 20240919MG551  0098141403T000000043285100000000000000000000000000000000000000000000000000000000N
50307880730001500032196800031 20240918MG551  0831901102T000000000821400000000082140000000001478000000000000000000000000001800N
50307880730001500032196800031 20240918MG551  0831905655T000000014630400000000000000000000000000000000000000000000000000000000N
50215322700001130624775200061 20240927MG551  0098421403T000000034837800000000000000000000000000000000000000000000000000000000N
5100089577760600ISENTO        20240905MG1  00038754050000000000000000000000000000000000000000000000000000                    N
51215322700001130624775200061 20240912MG1  00974814030000000000000000000000000000000000000000000000000000                    N
5143648971000155278024442113  20240916SP8  20401725560000000000000000000000000000000000000000000000000000                    N
5100067330886653ISENTO        20240917MG1  00038854050000000000000000000000000000000000000000000000000000                    N
5100057414807649ISENTO        20240917MG1  00038951020000000000000000000000000000000000000000000000000000                    N
5100057414807649ISENTO        20240917MG1  00038954050000000000000000000000000000000000000000000000000000                    N
51307880730001500032196800031 20240918MG1  08319011020000000000000000000000000000000000000000000000000000                    N
51307880730001500032196800031 20240918MG1  08319056550000000000000000000000000000000000000000000000000000                    N
5100016338952620ISENTO        20240918MG1  00039054050000000000000000000000000000000000000000000000000000                    N
5100016338952620ISENTO        20240918MG1  00039051020000000000000000000000000000000000000000000000000000                    N
5100001528954696ISENTO        20240918MG1  00039156560000000000000000000000000000000000000000000000000000                    N
5100001528954696ISENTO        20240918MG1  00039154050000000000000000000000000000000000000000000000000000                    N
5100013006665600ISENTO        20240918MG1  00039254050000000000000000000000000000000000000000000000000000                    N
5100073964484687ISENTO        20240918MG1  00039354050000000000000000000000000000000000000000000000000000                    N
5100073964484687ISENTO        20240918MG1  00039356560000000000000000000000000000000000000000000000000000                    N
5100052571580604ISENTO        20240918MG1  00039451020000000000000000000000000000000000000000000000000000                    N
5100052571580604ISENTO        20240918MG1  00039454050000000000000000000000000000000000000000000000000000                    N
5100052571580604ISENTO        20240918MG1  00039456560000000000000000000000000000000000000000000000000000                    N
5100001340790602ISENTO        20240918MG1  00039554050000000000000000000000000000000000000000000000000000                    N
5100001340790602ISENTO        20240918MG1  00039556560000000000000000000000000000000000000000000000000000                    N
5100055024491653ISENTO        20240918MG1  00039654050000000000000000000000000000000000000000000000000000                    N
5100055024491653ISENTO        20240918MG1  00039651020000000000000000000000000000000000000000000000000000                    N
5100004370199697ISENTO        20240918MG1  00039854050000000000000000000000000000000000000000000000000000                    N
5100004370199697ISENTO        20240918MG1  00039856560000000000000000000000000000000000000000000000000000                    N
51215322700001130624775200061 20240919MG1  00981414030000000000000000000000000000000000000000000000000000                    N
5100066352827691ISENTO        20240920MG1  00039956560000000000000000000000000000000000000000000000000000                    N
5100066352827691ISENTO        20240920MG1  00039954050000000000000000000000000000000000000000000000000000                    N
5100066352827691ISENTO        20240920MG1  00039951020000000000000000000000000000000000000000000000000000                    N
5100045175942620ISENTO        20240923MG1  00040054050000000000000000000000000000000000000000000000000000                    N
5100045175942620ISENTO        20240923MG1  00040056560000000000000000000000000000000000000000000000000000                    N
5100007895563670ISENTO        20240926MG1  00040154050000000000000000000000000000000000000000000000000000                    N
5100004577681692ISENTO        20240926MG1  00040251020000000000000000000000000000000000000000000000000000                    N
5100004577681692ISENTO        20240926MG1  00040256560000000000000000000000000000000000000000000000000000                    N
5100004577681692ISENTO        20240926MG1  00040254050000000000000000000000000000000000000000000000000000                    N
5100007753430645ISENTO        20240926MG1  00040356560000000000000000000000000000000000000000000000000000                    N
5100007753430645ISENTO        20240926MG1  00040351020000000000000000000000000000000000000000000000000000                    N
5100007753430645ISENTO        20240926MG1  00040354050000000000000000000000000000000000000000000000000000                    N
51215322700001130624775200061 20240927MG1  00984214030000000000000000000000000000000000000000000000000000                    N
5100005885341613ISENTO        20240930MG1  00040451020000000000000000000000000000000000000000000000000000                    N
5100005885341613ISENTO        20240930MG1  00040454050000000000000000000000000000000000000000000000000000                    N
5100019635419600ISENTO        20240930MG1  00040554050000000000000000000000000000000000000000000000000000                    N
5100052369692634ISENTO        20240930MG1  00040651020000000000000000000000000000000000000000000000000000                    N
5100052369692634ISENTO        20240930MG1  00040654050000000000000000000000000000000000000000000000000000                    N
5100003447158689ISENTO        20240930MG1  00040756560000000000000000000000000000000000000000000000000000                    N
5100003447158689ISENTO        20240930MG1  00040754050000000000000000000000000000000000000000000000000000                    N
5100006055005689ISENTO        20240930MG1  00040854050000000000000000000000000000000000000000000000000000                    N
5100006055005689ISENTO        20240930MG1  00040856560000000000000000000000000000000000000000000000000000                    N
5100076866629691ISENTO        20240930MG1  00040954050000000000000000000000000000000000000000000000000000                    N
5100000232691622ISENTO        20240930MG1  00041051020000000000000000000000000000000000000000000000000000                    N
5100000232691622ISENTO        20240930MG1  00041054050000000000000000000000000000000000000000000000000000                    N
5100080182763668ISENTO        20240930MG1  00041154050000000000000000000000000000000000000000000000000000                    N
5100001185162640ISENTO        20240930MG1  00041251020000000000000000000000000000000000000000000000000000                    N
5100001185162640ISENTO        20240930MG1  00041254050000000000000000000000000000000000000000000000000000                    N
5100001185162640ISENTO        20240930MG1  00041256560000000000000000000000000000000000000000000000000000                    N
5100040085678600ISENTO        20240930MG1  00041354050000000000000000000000000000000000000000000000000000                    N
5100008527855690ISENTO        20240930MG1  00041454050000000000000000000000000000000000000000000000000000                    N
5100008527855690ISENTO        20240930MG1  00041456560000000000000000000000000000000000000000000000000000                    N
5100065961064620ISENTO        20240930MG1  00041554050000000000000000000000000000000000000000000000000000                    N
5100008265011687ISENTO        20240930MG1  00041654050000000000000000000000000000000000000000000000000000                    N
5100061343170630ISENTO        20240930MG1  00041756560000000000000000000000000000000000000000000000000000                    N
5100061343170630ISENTO        20240930MG1  00041754050000000000000000000000000000000000000000000000000000                    N
5100061343170630ISENTO        20240930MG1  00041751020000000000000000000000000000000000000000000000000000                    N
5100023078600610ISENTO        20240930MG1  00041854050000000000000000000000000000000000000000000000000000                    N
5100023078600610ISENTO        20240930MG1  00041851020000000000000000000000000000000000000000000000000000                    N
5100023078600610ISENTO        20240930MG1  00041856560000000000000000000000000000000000000000000000000000                    N
5100004180385627ISENTO        20240930MG1  00041954050000000000000000000000000000000000000000000000000000                    N
5100004180385627ISENTO        20240930MG1  00041956560000000000000000000000000000000000000000000000000000                    N
5100001454990651ISENTO        20240930MG1  00042054050000000000000000000000000000000000000000000000000000                    N
5100043539475672ISENTO        20240930MG1  00042154050000000000000000000000000000000000000000000000000000                    N
5100029866979687ISENTO        20240930MG1  00042254050000000000000000000000000000000000000000000000000000                    N
5100069331502672ISENTO        20240930MG1  00042354050000000000000000000000000000000000000000000000000000                    N
5100007748348626ISENTO        20240930MG1  00042454050000000000000000000000000000000000000000000000000000                    N
5100004611966623ISENTO        20240930MG1  00042554050000000000000000000000000000000000000000000000000000                    N
5100004611966623ISENTO        20240930MG1  00042551020000000000000000000000000000000000000000000000000000                    N
5100000650826647ISENTO        20240930MG1  00042654050000000000000000000000000000000000000000000000000000                    N
5100000650826647ISENTO        20240930MG1  00042651020000000000000000000000000000000000000000000000000000                    N
5100070055017649ISENTO        20240930MG1  00042754050000000000000000000000000000000000000000000000000000                    N
5100002105696627ISENTO        20240930MG1  00042854050000000000000000000000000000000000000000000000000000                    N
5100002105696627ISENTO        20240930MG1  00042856560000000000000000000000000000000000000000000000000000                    N
5100085072230600ISENTO        20240930MG1  00042954050000000000000000000000000000000000000000000000000000                    N
5100085072230600ISENTO        20240930MG1  00042956560000000000000000000000000000000000000000000000000000                    N
5100085072230600ISENTO        20240930MG1  00042951020000000000000000000000000000000000000000000000000000                    N
5100071701796600ISENTO        20240930MG1  00043054050000000000000000000000000000000000000000000000000000                    N
5100018711847620ISENTO        20240930MG1  00043154050000000000000000000000000000000000000000000000000000                    N
5100018711847620ISENTO        20240930MG1  00043156560000000000000000000000000000000000000000000000000000                    N
5100018711847620ISENTO        20240930MG1  00043151020000000000000000000000000000000000000000000000000000                    N
5100006724336643ISENTO        20240930MG1  00043254050000000000000000000000000000000000000000000000000000                    N
5100020582200644ISENTO        20240930MG1  00043354050000000000000000000000000000000000000000000000000000                    N
5100020582200644ISENTO        20240930MG1  00043351020000000000000000000000000000000000000000000000000000                    N
5100020582200644ISENTO        20240930MG1  00043356560000000000000000000000000000000000000000000000000000                    N
5100005620430634ISENTO        20240930MG1  00043454050000000000000000000000000000000000000000000000000000                    N
5100005620430634ISENTO        20240930MG1  00043456560000000000000000000000000000000000000000000000000000                    N
5100011923192655ISENTO        20240930MG1  00043554050000000000000000000000000000000000000000000000000000                    N
5100076383350668ISENTO        20240930MG1  00043656560000000000000000000000000000000000000000000000000000                    N
5100076383350668ISENTO        20240930MG1  00043654050000000000000000000000000000000000000000000000000000                    N
5100007850812670ISENTO        20240930MG1  00043754050000000000000000000000000000000000000000000000000000                    N
5100007850812670ISENTO        20240930MG1  00043756560000000000000000000000000000000000000000000000000000                    N
5100004577681692ISENTO        20240930MG1  00043854050000000000000000000000000000000000000000000000000000                    N
5100066352827691ISENTO        20240930MG1  00043954050000000000000000000000000000000000000000000000000000                    N
5100039902099653ISENTO        20240930MG1  00044054050000000000000000000000000000000000000000000000000000                    N
5100039902099653ISENTO        20240930MG1  00044056560000000000000000000000000000000000000000000000000000                    N
5100014399115688ISENTO        20240930MG1  00044154050000000000000000000000000000000000000000000000000000                    N
5100014399115688ISENTO        20240930MG1  00044156560000000000000000000000000000000000000000000000000000                    N
5100014399115688ISENTO        20240930MG1  00044151020000000000000000000000000000000000000000000000000000                    N
5300089577760600ISENTO        20240905MG551  0003875405P000000000000000000000000000000000000000N                              
5300067330886653ISENTO        20240917MG551  0003885405P000000000000000000000000000000000000000N                              
5300016338952620ISENTO        20240918MG551  0003905405P000000000000000000000000000000000000000N                              
5300016338952620ISENTO        20240918MG551  0003905102P000000000000000000000000000000000000000N                              
5300057414807649ISENTO        20240917MG551  0003895405P000000000000000000000000000000000000000N                              
5300057414807649ISENTO        20240917MG551  0003895102P000000000000000000000000000000000000000N                              
5300066352827691ISENTO        20240920MG551  0003995656P000000000000000000000000000000000000000N                              
5300066352827691ISENTO        20240920MG551  0003995405P000000000000000000000000000000000000000N                              
5300066352827691ISENTO        20240920MG551  0003995102P000000000000000000000000000000000000000N                              
5300045175942620ISENTO        20240923MG551  0004005656P000000000000000000000000000000000000000N                              
5300045175942620ISENTO        20240923MG551  0004005405P000000000000000000000000000000000000000N                              
5300007895563670ISENTO        20240926MG551  0004015405P000000000000000000000000000000000000000N                              
5300005885341613ISENTO        20240930MG551  0004045405P000000000000000000000000000000000000000N                              
5300005885341613ISENTO        20240930MG551  0004045102P000000000000000000000000000000000000000N                              
5300004577681692ISENTO        20240926MG551  0004025656P000000000000000000000000000000000000000N                              
5300004577681692ISENTO        20240926MG551  0004025405P000000000000000000000000000000000000000N                              
5300004577681692ISENTO        20240926MG551  0004025102P000000000000000000000000000000000000000N                              
5300001528954696ISENTO        20240918MG551  0003915405P000000000000000000000000000000000000000N                              
5300001528954696ISENTO        20240918MG551  0003915656P000000000000000000000000000000000000000N                              
5300007753430645ISENTO        20240926MG551  0004035656P000000000000000000000000000000000000000N                              
5300007753430645ISENTO        20240926MG551  0004035405P000000000000000000000000000000000000000N                              
5300007753430645ISENTO        20240926MG551  0004035102P000000000000000000000000000000000000000N                              
5300013006665600ISENTO        20240918MG551  0003925405P000000000000000000000000000000000000000N                              
5300073964484687ISENTO        20240918MG551  0003935656P000000000000000000000000000000000000000N                              
5300073964484687ISENTO        20240918MG551  0003935405P000000000000000000000000000000000000000N                              
5300019635419600ISENTO        20240930MG551  0004055405P000000000000000000000000000000000000000N                              
5300052571580604ISENTO        20240918MG551  0003945656P000000000000000000000000000000000000000N                              
5300052571580604ISENTO        20240918MG551  0003945405P000000000000000000000000000000000000000N                              
5300052571580604ISENTO        20240918MG551  0003945102P000000000000000000000000000000000000000N                              
5300001340790602ISENTO        20240918MG551  0003955656P000000000000000000000000000000000000000N                              
5300001340790602ISENTO        20240918MG551  0003955405P000000000000000000000000000000000000000N                              
5300052369692634ISENTO        20240930MG551  0004065405P000000000000000000000000000000000000000N                              
5300052369692634ISENTO        20240930MG551  0004065102P000000000000000000000000000000000000000N                              
5300055024491653ISENTO        20240918MG551  0003965405P000000000000000000000000000000000000000N                              
5300055024491653ISENTO        20240918MG551  0003965102P000000000000000000000000000000000000000N                              
5300003447158689ISENTO        20240930MG551  0004075656P000000000000000000000000000000000000000N                              
5300003447158689ISENTO        20240930MG551  0004075405P000000000000000000000000000000000000000N                              
5300004370199697ISENTO        20240918MG551  0003985656P000000000000000000000000000000000000000N                              
5300004370199697ISENTO        20240918MG551  0003985405P000000000000000000000000000000000000000N                              
5300006055005689ISENTO        20240930MG551  0004085656P000000000000000000000000000000000000000N                              
5300006055005689ISENTO        20240930MG551  0004085405P000000000000000000000000000000000000000N                              
5300076866629691ISENTO        20240930MG551  0004095405P000000000000000000000000000000000000000N                              
5300000232691622ISENTO        20240930MG551  0004105405P000000000000000000000000000000000000000N                              
5300000232691622ISENTO        20240930MG551  0004105102P000000000000000000000000000000000000000N                              
5300080182763668ISENTO        20240930MG551  0004115405P000000000000000000000000000000000000000N                              
5300001185162640ISENTO        20240930MG551  0004125656P000000000000000000000000000000000000000N                              
5300001185162640ISENTO        20240930MG551  0004125405P000000000000000000000000000000000000000N                              
5300001185162640ISENTO        20240930MG551  0004125102P000000000000000000000000000000000000000N                              
5300040085678600ISENTO        20240930MG551  0004135405P000000000000000000000000000000000000000N                              
5300008527855690ISENTO        20240930MG551  0004145656P000000000000000000000000000000000000000N                              
5300008527855690ISENTO        20240930MG551  0004145405P000000000000000000000000000000000000000N                              
5300065961064620ISENTO        20240930MG551  0004155405P000000000000000000000000000000000000000N                              
5300008265011687ISENTO        20240930MG551  0004165405P000000000000000000000000000000000000000N                              
5300061343170630ISENTO        20240930MG551  0004175656P000000000000000000000000000000000000000N                              
5300061343170630ISENTO        20240930MG551  0004175405P000000000000000000000000000000000000000N                              
5300061343170630ISENTO        20240930MG551  0004175102P000000000000000000000000000000000000000N                              
5300023078600610ISENTO        20240930MG551  0004185656P000000000000000000000000000000000000000N                              
5300023078600610ISENTO        20240930MG551  0004185405P000000000000000000000000000000000000000N                              
5300023078600610ISENTO        20240930MG551  0004185102P000000000000000000000000000000000000000N                              
5300004180385627ISENTO        20240930MG551  0004195656P000000000000000000000000000000000000000N                              
5300004180385627ISENTO        20240930MG551  0004195405P000000000000000000000000000000000000000N                              
5300001454990651ISENTO        20240930MG551  0004205405P000000000000000000000000000000000000000N                              
5300043539475672ISENTO        20240930MG551  0004215405P000000000000000000000000000000000000000N                              
5300029866979687ISENTO        20240930MG551  0004225405P000000000000000000000000000000000000000N                              
5300069331502672ISENTO        20240930MG551  0004235405P000000000000000000000000000000000000000N                              
5300007748348626ISENTO        20240930MG551  0004245405P000000000000000000000000000000000000000N                              
5300004611966623ISENTO        20240930MG551  0004255405P000000000000000000000000000000000000000N                              
5300004611966623ISENTO        20240930MG551  0004255102P000000000000000000000000000000000000000N                              
5300000650826647ISENTO        20240930MG551  0004265405P000000000000000000000000000000000000000N                              
5300000650826647ISENTO        20240930MG551  0004265102P000000000000000000000000000000000000000N                              
5300070055017649ISENTO        20240930MG551  0004275405P000000000000000000000000000000000000000N                              
5300002105696627ISENTO        20240930MG551  0004285656P000000000000000000000000000000000000000N                              
5300002105696627ISENTO        20240930MG551  0004285405P000000000000000000000000000000000000000N                              
5300085072230600ISENTO        20240930MG551  0004295656P000000000000000000000000000000000000000N                              
5300085072230600ISENTO        20240930MG551  0004295405P000000000000000000000000000000000000000N                              
5300085072230600ISENTO        20240930MG551  0004295102P000000000000000000000000000000000000000N                              
5300071701796600ISENTO        20240930MG551  0004305405P000000000000000000000000000000000000000N                              
5300018711847620ISENTO        20240930MG551  0004315405P000000000000000000000000000000000000000N                              
5300018711847620ISENTO        20240930MG551  0004315656P000000000000000000000000000000000000000N                              
5300018711847620ISENTO        20240930MG551  0004315102P000000000000000000000000000000000000000N                              
5300006724336643ISENTO        20240930MG551  0004325405P000000000000000000000000000000000000000N                              
5300020582200644ISENTO        20240930MG551  0004335405P000000000000000000000000000000000000000N                              
5300020582200644ISENTO        20240930MG551  0004335656P000000000000000000000000000000000000000N                              
5300020582200644ISENTO        20240930MG551  0004335102P000000000000000000000000000000000000000N                              
5300005620430634ISENTO        20240930MG551  0004345656P000000000000000000000000000000000000000N                              
5300005620430634ISENTO        20240930MG551  0004345405P000000000000000000000000000000000000000N                              
5300011923192655ISENTO        20240930MG551  0004355405P000000000000000000000000000000000000000N                              
5300076383350668ISENTO        20240930MG551  0004365656P000000000000000000000000000000000000000N                              
5300076383350668ISENTO        20240930MG551  0004365405P000000000000000000000000000000000000000N                              
5300007850812670ISENTO        20240930MG551  0004375405P000000000000000000000000000000000000000N                              
5300007850812670ISENTO        20240930MG551  0004375656P000000000000000000000000000000000000000N                              
5300004577681692ISENTO        20240930MG551  0004385405P000000000000000000000000000000000000000N                              
5300066352827691ISENTO        20240930MG551  0004395405P000000000000000000000000000000000000000N                              
5300039902099653ISENTO        20240930MG551  0004405405P000000000000000000000000000000000000000N                              
5300039902099653ISENTO        20240930MG551  0004405656P000000000000000000000000000000000000000N                              
5300014399115688ISENTO        20240930MG551  0004415405P000000000000000000000000000000000000000N                              
5300014399115688ISENTO        20240930MG551  0004415656P000000000000000000000000000000000000000N                              
5300014399115688ISENTO        20240930MG551  0004415102P000000000000000000000000000000000000000N                              
5343648971000155278024442113  20240916SP558  2040172556T000000000000000000000000000000000000000N                              
53215322700001130624775200061 20240912MG551  0097481403T000000000000000000000000000000000000000N                              
53215322700001130624775200061 20240919MG551  0098141403T000000000000000000000000000000000000000N                              
53307880730001500032196800031 20240918MG551  0831901102T000000000000000000000000000000000000000N                              
53307880730001500032196800031 20240918MG551  0831905655T000000000000000000000000000000000000000N                              
53215322700001130624775200061 20240927MG551  0098421403T000000000000000000000000000000000000000N                              
5400000232691622551  00041054055000011328          000000020000000000952000000000000000000000000000000000000000000000000000000
5400000232691622551  0004105405500002686           000000020000000000372000000000000000000000000000000000000000000000000000000
5400000232691622551  00041054055000031319          000000010000000000087000000000000000000000000000000000000000000000000000000
5400000232691622551  00041054055000041323          000000020000000000104000000000000000000000000000000000000000000000000000000
5400000232691622551  00041054055000051318          000000010000000000014000000000000000000000000000000000000000000000000000000
5400000232691622551  00041054055000061320          000000010000000000076000000000000000000000000000000000000000000000000000000
5400000232691622551  0004105405500007916           000000045000000000180000000000000000000000000000000000000000000000000000000
5400000232691622551  0004105405500008829           000000010000000000026000000000000000000000000000000000000000000000000000000
5400000232691622551  0004105405500009867           000000010000000000048000000000000000000000000000000000000000000000000000000
5400000232691622551  0004105102102010972           000000010000000000016000000000000000000000000000000000000000000000000000000
5400000650826647551  0004265405500001633           000000040000000000216000000000000000000000000000000000000000000000000000000
5400000650826647551  0004265405500002829           000000010000000000026000000000000000000000000000000000000000000000000000000
5400000650826647551  0004265405500003874           000000010000000000045000000000000000000000000000000000000000000000000000000
5400000650826647551  0004265102102004972           000000010000000000016000000000000000000000000000000000000000000000000000000
5400001185162640551  0004125656500001886           000000040000000000176000000000000000000000000000000000000000000000000000000
5400001185162640551  0004125405500002929           000000010000000000034000000000000000000000000000000000000000000000000000000
5400001185162640551  0004125405500003829           000000010000000000026000000000000000000000000000000000000000000000000000000
5400001185162640551  0004125102102004972           000000010000000000005000000000000000000000000000000000000000000000000000000
5400001185162640551  00041254055000051340          000000010000000000187000000000000000000000000000000000000000000000000000000
5400001185162640551  00041254055000061341          000000010000000000078000000000000000000000000000000000000000000000000000000
5400001185162640551  0004125405500007515           000000040000000000102000000000000000000000000000000000000000000000000000000
5400001185162640551  0004125405500008750           000000010000000000212000000000000000000000000000000000000000000000000000000
5400001185162640551  00041254055000091112          000000010000000000269000000000000000000000000000000000000000000000000000000
5400001340790602551  0003955656500001886           000000030000000000132000000000000000000000000000000000000000000000000000000
5400001340790602551  0003955405500002882           000000010000000000025000000000000000000000000000000000000000000000000000000
5400001340790602551  0003955405500003929           000000010000000000034000000000000000000000000000000000000000000000000000000
5400001454990651551  0004205405500001633           000000040000000000232000000000000000000000000000000000000000000000000000000
5400001454990651551  0004205405500002657           000000010000000000026000000000000000000000000000000000000000000000000000000
5400001454990651551  0004205405500003997           000000010000000000056000000000000000000000000000000000000000000000000000000
5400001454990651551  0004205405500004763           000000020000000000082000000000000000000000000000000000000000000000000000000
5400001454990651551  00042054055000051349          000000010000000000032000000000000000000000000000000000000000000000000000000
5400001528954696551  0003915405500001578           000000010000000000064000000000000000000000000000000000000000000000000000000
5400001528954696551  00039154055000021216          000000010000000000129000000000000000000000000000000000000000000000000000000
5400001528954696551  0003915405500003710           000000010000000000076000000000000000000000000000000000000000000000000000000
5400001528954696551  0003915405500004674           000000010000000000048000000000000000000000000000000000000000000000000000000
5400001528954696551  00039154055000051307          000000010000000000149000000000000000000000000000000000000000000000000000000
5400001528954696551  0003915405500006636           000000040000000000092000000000000000000000000000000000000000000000000000000
5400001528954696551  0003915405500007509           000000020000000000068000000000000000000000000000000000000000000000000000000
5400001528954696551  0003915405500008903           000000010000000000134000000000000000000000000000000000000000000000000000000
5400001528954696551  0003915405500009902           000000010000000000134000000000000000000000000000000000000000000000000000000
5400001528954696551  00039154055000101306          000000040000000000328000000000000000000000000000000000000000000000000000000
5400001528954696551  00039156565000111260          000000035000000000147000000000000000000000000000000000000000000000000000000
5400001528954696551  0003915405500012829           000000010000000000026000000000000000000000000000000000000000000000000000000
5400001528954696551  0003915405500013736           000000010000000000018000000000000000000000000000000000000000000000000000000
5400001528954696551  00039154055000141167          000000010000000000031000000000000000000000000000000000000000000000000000000
5400001528954696551  0003915405500015780           000000010000000000028000000000000000000000000000000000000000000000000000000
5400001528954696551  00039154055000161058          000000010000000000048000000000000000000000000000000000000000000000000000000
5400001528954696551  0003915405500017618           000000010000000000097000000000000000000000000000000000000000000000000000000
5400001528954696551  0003915405500018813           000000010000000000034000000000000000000000000000000000000000000000000000000
5400001528954696551  0003915405500019614           000000010000000000176000000000000000000000000000000000000000000000000000000
5400002105696627551  00042856565000011260          000000030000000000126000000000000000000000000000000000000000000000000000000
5400002105696627551  0004285405500002829           000000010000000000026000000000000000000000000000000000000000000000000000000
5400002105696627551  0004285405500003881           000000010000000000034000000000000000000000000000000000000000000000000000000
5400003447158689551  00040756565000011260          000000030000000000126000000000000000000000000000000000000000000000000000000
5400003447158689551  0004075405500002993           000000010000000000021120000000000000000000000000000000000000000000000000000
5400003447158689551  00040754055000031103          000000010000000000038990000000000000000000000000000000000000000000000000000
5400004180385627551  00041956565000011260          000000040000000000176000000000000000000000000000000000000000000000000000000
5400004180385627551  0004195405500002657           000000010000000000026000000000000000000000000000000000000000000000000000000
5400004180385627551  00041954055000031354          000000010000000000052000000000000000000000000000000000000000000000000000000
5400004370199697551  00039856565000011260          000000035000000000147000000000000000000000000000000000000000000000000000000
5400004370199697551  0003985405500002829           000000010000000000034000000000000000000000000000000000000000000000000000000
5400004370199697551  0003985405500003987           000000010000000000052000000000000000000000000000000000000000000000000000000
5400004370199697551  0003985405500004905           000000010000000000035000000000000000000000000000000000000000000000000000000
5400004577681692551  0004025656500001886           000000040000000000176000000000000000000000000000000000000000000000000000000
5400004577681692551  0004025405500002829           000000010000000000026000000000000000000000000000000000000000000000000000000
5400004577681692551  00040254055000031297          000000010000000000036000000000000000000000000000000000000000000000000000000
5400004577681692551  00040254055000041167          000000010000000000034000000000000000000000000000000000000000000000000000000
5400004577681692551  0004025102102005972           000000010000000000005000000000000000000000000000000000000000000000000000000
5400004577681692551  00040254055000061233          000000020000000000044000000000000000000000000000000000000000000000000000000
5400004577681692551  00040254055000071252          000000010000000000029000000000000000000000000000000000000000000000000000000
5400004577681692551  00040251021020081259          000000010000000000035000000000000000000000000000000000000000000000000000000
5400004577681692551  0004385405500001515           000000040000000000138000000000000000000000000000000000000000000000000000000
5400004577681692551  0004385405500002750           000000010000000000214000000000000000000000000000000000000000000000000000000
5400004611966623551  0004255405500001916           000000040000000000160000000000000000000000000000000000000000000000000000000
5400004611966623551  0004255405500002829           000000010000000000026000000000000000000000000000000000000000000000000000000
5400004611966623551  00042554055000031354          000000010000000000058000000000000000000000000000000000000000000000000000000
5400004611966623551  0004255102102004972           000000010000000000005000000000000000000000000000000000000000000000000000000
5400005620430634551  00043456565000011260          000000045000000000198000000000000000000000000000000000000000000000000000000
5400005620430634551  0004345405500002829           000000010000000000026000000000000000000000000000000000000000000000000000000
5400005620430634551  00043454055000031315          000000010000000000035000000000000000000000000000000000000000000000000000000
5400005620430634551  00043454055000041325          000000020000000000120000000000000000000000000000000000000000000000000000000
5400005620430634551  00043454055000051324          000000020000000000188000000000000000000000000000000000000000000000000000000
5400005885341613551  00040454055000011314          000000010000000000234000000000000000000000000000000000000000000000000000000
5400005885341613551  0004045405500002957           000000010000000000042000000000000000000000000000000000000000000000000000000
5400005885341613551  0004045405500003964           000000010000000000099000000000000000000000000000000000000000000000000000000
5400005885341613551  0004045102102004972           000000010000000000006000000000000000000000000000000000000000000000000000000
5400005885341613551  00040454055000051278          000000010000000000008000000000000000000000000000000000000000000000000000000
5400005885341613551  00040454055000061197          000000010000000000118000000000000000000000000000000000000000000000000000000
5400005885341613551  00040454055000071216          000000010000000000089000000000000000000000000000000000000000000000000000000
5400005885341613551  0004045405500008916           000000030000000000114000000000000000000000000000000000000000000000000000000
5400005885341613551  0004045405500009736           000000010000000000018000000000000000000000000000000000000000000000000000000
5400005885341613551  0004045405500010829           000000010000000000025000000000000000000000000000000000000000000000000000000
5400006055005689551  0004085656500001886           000000030000000000132000000000000000000000000000000000000000000000000000000
5400006055005689551  0004085405500002736           000000010000000000034000000000000000000000000000000000000000000000000000000
5400006055005689551  0004085405500003829           000000010000000000026000000000000000000000000000000000000000000000000000000
5400006724336643551  00043254055000011355          000000010000000000069000000000000000000000000000000000000000000000000000000
5400006724336643551  00043254055000021357          000000010000000000146000000000000000000000000000000000000000000000000000000
5400006724336643551  0004325405500003986           000000020000000000328000000000000000000000000000000000000000000000000000000
5400006724336643551  0004325405500004916           000000040000000000160000000000000000000000000000000000000000000000000000000
5400006724336643551  0004325405500005829           000000010000000000026000000000000000000000000000000000000000000000000000000
5400006724336643551  0004325405500006746           000000010000000000049000000000000000000000000000000000000000000000000000000
5400006724336643551  00043254055000071224          000000010000000000034000000000000000000000000000000000000000000000000000000
5400007748348626551  00042454055000011353          000000010000000000072000000000000000000000000000000000000000000000000000000
5400007753430645551  00040356565000011260          000000045000000000189000000000000000000000000000000000000000000000000000000
5400007753430645551  0004035405500002745           000000010000000000034000000000000000000000000000000000000000000000000000000
5400007753430645551  0004035405500003997           000000010000000000058000000000000000000000000000000000000000000000000000000
5400007753430645551  00040354055000041122          000000010000000000036000000000000000000000000000000000000000000000000000000
5400007753430645551  0004035102102005972           000000010000000000005000000000000000000000000000000000000000000000000000000
5400007753430645551  0004035405500006681           000000010000000000128000000000000000000000000000000000000000000000000000000
5400007753430645551  00040354055000071233          000000020000000000052000000000000000000000000000000000000000000000000000000
5400007753430645551  00040354055000081252          000000010000000000032000000000000000000000000000000000000000000000000000000
5400007753430645551  00040351021020091259          000000010000000000035000000000000000000000000000000000000000000000000000000
5400007850812670551  0004375405500001790           000000010000000000044000000000000000000000000000000000000000000000000000000
5400007850812670551  0004375656500002886           000000030000000000138000000000000000000000000000000000000000000000000000000
5400007850812670551  0004375405500003829           000000010000000000026000000000000000000000000000000000000000000000000000000
5400007850812670551  00043754055000041297          000000010000000000034000000000000000000000000000000000000000000000000000000
5400007850812670551  0004375405500005789           000000010000000000130000000000000000000000000000000000000000000000000000000
5400007895563670551  0004015405500001916           000000030000000000114000000000000000000000000000000000000000000000000000000
5400007895563670551  0004015405500002882           000000010000000000025000000000000000000000000000000000000000000000000000000
5400008265011687551  00041654055000011342          000000020000000000116000000000000000000000000000000000000000000000000000000
5400008265011687551  0004165405500002509           000000020000000000068000000000000000000000000000000000000000000000000000000
5400008527855690551  00041456565000011260          000000030000000000126000000000000000000000000000000000000000000000000000000
5400008527855690551  0004145405500002938           000000010000000000034000000000000000000000000000000000000000000000000000000
5400008527855690551  0004145405500003659           000000010000000000044000000000000000000000000000000000000000000000000000000
5400008527855690551  00041454055000041262          000000010000000000169000000000000000000000000000000000000000000000000000000
5400011923192655551  0004355405500001926           000000010000000000194000000000000000000000000000000000000000000000000000000
5400011923192655551  00043554055000021278          000000010000000000028000000000000000000000000000000000000000000000000000000
5400011923192655551  0004355405500003915           000000010000000000042000000000000000000000000000000000000000000000000000000
5400013006665600551  00039254055000011112          000000010000000000318000000000000000000000000000000000000000000000000000000
5400014399115688551  0004415405500001637           000000010000000000069000000000000000000000000000000000000000000000000000000
5400014399115688551  00044154055000021216          000000010000000000129000000000000000000000000000000000000000000000000000000
5400014399115688551  0004415405500003865           000000020000000000276000000000000000000000000000000000000000000000000000000
5400014399115688551  0004415656500004886           000000040000000000184000000000000000000000000000000000000000000000000000000
5400014399115688551  0004415405500005829           000000010000000000026000000000000000000000000000000000000000000000000000000
5400014399115688551  0004415405500006876           000000010000000000034000000000000000000000000000000000000000000000000000000
5400014399115688551  0004415102102007972           000000010000000000005000000000000000000000000000000000000000000000000000000
5400016338952620551  00039054055000011312          000000010000000000410000000000000000000000000000000000000000000000000000000
5400016338952620551  0003905405500002863           000000010000000000272000000000000000000000000000000000000000000000000000000
5400016338952620551  0003905405500003715           000000010000000000222000000000000000000000000000000000000000000000000000000
5400016338952620551  0003905405500004720           000000010000000000159000000000000000000000000000000000000000000000000000000
5400016338952620551  00039054055000051310          000000010000000000112000000000000000000000000000000000000000000000000000000
5400016338952620551  0003905405500006867           000000010000000000042000000000000000000000000000000000000000000000000000000
5400016338952620551  0003905405500007889           000000010000000000146000000000000000000000000000000000000000000000000000000
5400016338952620551  00039054055000081313          000000010000000000176000000000000000000000000000000000000000000000000000000
5400016338952620551  0003905405500009916           000000040000000000160000000000000000000000000000000000000000000000000000000
5400016338952620551  0003905405500010680           000000010000000000036000000000000000000000000000000000000000000000000000000
5400016338952620551  0003905102102011972           000000010000000000016000000000000000000000000000000000000000000000000000000
5400018711847620551  00043154055000011316          000000010000000000182000000000000000000000000000000000000000000000000000000
5400018711847620551  00043154055000021171          000000010000000000085000000000000000000000000000000000000000000000000000000
5400018711847620551  00043154055000031139          000000020000000000056000000000000000000000000000000000000000000000000000000
5400018711847620551  00043156565000041260          000000040000000000176000000000000000000000000000000000000000000000000000000
5400018711847620551  0004315405500005829           000000010000000000026000000000000000000000000000000000000000000000000000000
5400018711847620551  00043154055000061268          000000010000000000049000000000000000000000000000000000000000000000000000000
5400018711847620551  0004315102102007972           000000010000000000016000000000000000000000000000000000000000000000000000000
5400019635419600551  0004055405500001916           000000040000000000152000000000000000000000000000000000000000000000000000000
5400019635419600551  0004055405500002829           000000010000000000026000000000000000000000000000000000000000000000000000000
5400019635419600551  0004055405500003736           000000010000000000018000000000000000000000000000000000000000000000000000000
5400019635419600551  00040554055000041278          000000010000000000016000000000000000000000000000000000000000000000000000000
5400020582200644551  0004335405500001637           000000010000000000064000000000000000000000000000000000000000000000000000000
5400020582200644551  00043354055000021216          000000010000000000129000000000000000000000000000000000000000000000000000000
5400020582200644551  0004335656500003886           000000040000000000184000000000000000000000000000000000000000000000000000000
5400020582200644551  0004335405500004829           000000010000000000026000000000000000000000000000000000000000000000000000000
5400020582200644551  00043354055000051000          000000010000000000035000000000000000000000000000000000000000000000000000000
5400020582200644551  00043354055000061252          000000010000000000032000000000000000000000000000000000000000000000000000000
5400020582200644551  0004335405500007880           000000010000000000034000000000000000000000000000000000000000000000000000000
5400020582200644551  0004335405500008509           000000020000000000068000000000000000000000000000000000000000000000000000000
5400020582200644551  0004335102102009972           000000010000000000005000000000000000000000000000000000000000000000000000000
5400020582200644551  0004335405500010808           000000010000000000139000000000000000000000000000000000000000000000000000000
5400020582200644551  00043351021020111259          000000010000000000035000000000000000000000000000000000000000000000000000000
5421532270000113551  00974814030600011303          000000010000000000178710000000000000000000906430000000000000000000000000000
5421532270000113551  00974814030600021304          000000010000000000135650000000000000000000906430000000010020000000000000000
5421532270000113551  00974814030600031302          000000040000000000056040000000000000000000906430000000000000000000000000000
5421532270000113551  00974814030600041305          000000040000000000134840000000000000000000906430000000013750000000000000000
5421532270000113551  00974814030600051058          000000010000000000035740000000000000000000906430000000005370000000000000000
5421532270000113551  00974814030600061284          000000010000000000013000000000000000000000906430000000001450000000000000000
5421532270000113551  00974814030600071306          000000040000000000160840000000000000000000906430000000016600000000000000000
5421532270000113551  00974814030600081307          000000010000000000113320000000000000000000906430000000002700000000000000000
5421532270000113551  0097481403060009614           000000010000000000134030000000000000000000906430000000001220000000000000000
5421532270000113551  0097481403060010902           000000010000000000105190000000000000000000906430000000008090000000000000000
5421532270000113551  0097481403060011903           000000010000000000105190000000000000000000906430000000008090000000000000000
5421532270000113551  0097481403060012604           000000010000000000097480000000000000000000906430000000013260000000000000000
5421532270000113551  0097481403060013636           000000040000000000068240000000000000000000906430000000007490000000000000000
5421532270000113551  00974814030600141308          000000010000000000012020000000000000000000906430000000001450000000000000000
5421532270000113551  00974814030600151285          000000040000000000087720000000000000000000906430000000009530000000000000000
5421532270000113551  0097481403060016618           000000010000000000073920000000000000000000906430000000006800000000000000000
5421532270000113551  0097481403060017813           000000010000000000025990000000000000000000906430000000002870000000000000000
5421532270000113551  00974814030600181309          000000020000000000039800000000000000000000906430000000000000000000000000000
5421532270000113551  00974814030600191112          000000010000000000199010000000000000000000906430000000027020000000000000000
5421532270000113551  0097481403060020715           000000010000000000169770000000000000000000906430000000019460000000000000000
5421532270000113551  0097481403060021863           000000010000000000208760000000000000000000906430000000025420000000000000000
5421532270000113551  00974814030600221310          000000010000000000085290000000000000000000906430000000007800000000000000000
5421532270000113551  0097481403060023720           000000010000000000121840000000000000000000906430000000000000000000000000000
5421532270000113551  00974814030600241311          000000010000000000051170000000000000000000906430000000000000000000000000000
5421532270000113551  00974814030600251312          000000010000000000315980000000000000000000906430000000037980000000000000000
5421532270000113551  00974814030600261313          000000010000000000134030000000000000000000906430000000018240000000000000000
5421532270000113551  0097481403060027867           000000010000000000028020000000000000000000906430000000002740000000000000000
5421532270000113551  0097481403060028889           000000010000000000112100000000000000000000906430000000012100000000000000000
5421532270000113551  00974814030600291314          000000010000000000177890000000000000000000906430000000000000000000000000000
5421532270000113551  00981414030600011315          000000010000000000019500000000000000000000906430000000002050000000000000000
5421532270000113551  0098141403060002957           000000010000000000030870000000000000000000906430000000002440000000000000000
5421532270000113551  0098141403060003799           000000010000000000158400000000000000000000906430000000021900000000000000000
5421532270000113551  0098141403060004800           000000010000000000158400000000000000000000906430000000021580000000000000000
5421532270000113551  00981414030600051316          000000010000000000027620000000000000000000906430000000000700000000000000000
5421532270000113551  00981414030600061317          000000010000000000025180000000000000000000906430000000002890000000000000000
5421532270000113551  00981414030600071318          000000010000000000005690000000000000000000906430000000000220000000000000000
5421532270000113551  00981414030600081319          000000010000000000064980000000000000000000906430000000005250000000000000000
5421532270000113551  00981414030600091320          000000010000000000056050000000000000000000906430000000005620000000000000000
5421532270000113551  00981414030600101321          000000020000000000810680000000000000000000906430000000000000000000000000000
5421532270000113551  0098141403060011594           000000020000000000029240000000000000000000906430000000002960000000000000000
5421532270000113551  0098141403060012893           000000010000000000043050000000000000000000906430000000005160000000000000000
5421532270000113551  0098141403060013815           000000010000000000043460000000000000000000906430000000006920000000000000000
5421532270000113551  00981414030600141322          000000010000000000043460000000000000000000906430000000006920000000000000000
5421532270000113551  00981414030600151323          000000020000000000073100000000000000000000906430000000007340000000000000000
5421532270000113551  00981414030600161324          000000020000000000167340000000000000000000906430000000022120000000000000000
5421532270000113551  0098141403060017504           000000020000000000027620000000000000000000906430000000003300000000000000000
5421532270000113551  00981414030600181252          000000010000000000020310000000000000000000906430000000002210000000000000000
5421532270000113551  00981414030600191325          000000020000000000112100000000000000000000906430000000012330000000000000000
5421532270000113551  0098141403060020728           000000020000000000071480000000000000000000906430000000005050000000000000000
5421532270000113551  00981414030600211277          000000020000000000024360000000000000000000906430000000003090000000000000000
5421532270000113551  00981414030600221326          000000010000000000010560000000000000000000906430000000000370000000000000000
5421532270000113551  0098141403060023762           000000010000000000434580000000000000000000906430000000059070000000000000000
5421532270000113551  00981414030600241197          000000010000000000085290000000000000000000906430000000010820000000000000000
5421532270000113551  00981414030600251327          000000010000000000360660000000000000000000906430000000046830000000000000000
5421532270000113551  00981414030600261328          000000010000000000360660000000000000000000906430000000046830000000000000000
5421532270000113551  0098141403060027729           000000020000000000271300000000000000000000906430000000032770000000000000000
5421532270000113551  0098141403060028750           000000010000000000163270000000000000000000906430000000022260000000000000000
5421532270000113551  00981414030600291329          000000010000000000021690000000000000000000906430000000001980000000000000000
5421532270000113551  00981414030600301330          000000010000000000038990000000000000000000906430000000005190000000000000000
5421532270000113551  0098141403060031569           000000100000000000402100000000000000000000906430000000000000000000000000000
5421532270000113551  00981414030600321331          000000010000000000166520000000000000000000906430000000013480000000000000000
5421532270000113551  00984214030600011112          000000010000000000199010000000000000000000988570000000027020000000000000000
5421532270000113551  00984214030600021336          000000010000000000016080000000000000000000988570000000002600000000000000000
5421532270000113551  00984214030600031337          000000020000000000028440000000000000000000988570000000001970000000000000000
5421532270000113551  00984214030600041338          000000040000000000393160000000000000000000988570000000041670000000000000000
5421532270000113551  00984214030600051339          000000010000000000064170000000000000000000988570000000009300000000000000000
5421532270000113551  00984214030600061262          000000010000000000129560000000000000000000988570000000000000000000000000000
5421532270000113551  00984214030600071340          000000010000000000134030000000000000000000988570000000014960000000000000000
5421532270000113551  00984214030600081341          000000010000000000056050000000000000000000988570000000006480000000000000000
5421532270000113551  00984214030600091342          000000020000000000077160000000000000000000988570000000011610000000000000000
5421532270000113551  0098421403060010655           000000010000000000029240000000000000000000988570000000003120000000000000000
5421532270000113551  00984214030600111343          000000040000000000159200000000000000000000988570000000029110000000000000000
5421532270000113551  0098421403060012995           000000010000000000242880000000000000000000988570000000000000000000000000000
5421532270000113551  00984214030600131344          000000020000000000096660000000000000000000988570000000000000000000000000000
5421532270000113551  00984214030600141345          000000010000000000080420000000000000000000988570000000005950000000000000000
5421532270000113551  00984214030600151346          000000010000000000231510000000000000000000988570000000030450000000000000000
5421532270000113551  00984214030600161347          000000010000000000067820000000000000000000988570000000008460000000000000000
5421532270000113551  00984214030600171348          000000010000000000028430000000000000000000988570000000004580000000000000000
5421532270000113551  0098421403060018763           000000010000000000037370000000000000000000988570000000005740000000000000000
5421532270000113551  00984214030600191349          000000010000000000017060000000000000000000988570000000001950000000000000000
5421532270000113551  00984214030600201350          000000010000000000043860000000000000000000988570000000006880000000000000000
5421532270000113551  0098421403060021588           000000020000000000035740000000000000000000988570000000000000000000000000000
5421532270000113551  00984214030600221351          000000020000000000219320000000000000000000988570000000027450000000000000000
5421532270000113551  00984214030600231096          000000010000000000066610000000000000000000988570000000007580000000000000000
5421532270000113551  00984214030600241352          000000010000000000202260000000000000000000988570000000020320000000000000000
5421532270000113551  00984214030600251129          000000010000000000098290000000000000000000988570000000010770000000000000000
5421532270000113551  0098421403060026541           000000010000000000080420000000000000000000988570000000008810000000000000000
5421532270000113551  0098421403060027535           000000010000000000152710000000000000000000988570000000017860000000000000000
5421532270000113551  00984214030600281353          000000010000000000029240000000000000000000988570000000002420000000000000000
5421532270000113551  00984214030600291354          000000010000000000042240000000000000000000988570000000006230000000000000000
5421532270000113551  00984214030600301355          000000010000000000052800000000000000000000988570000000003640000000000000000
5421532270000113551  0098421403060031986           000000020000000000251820000000000000000000988570000000021640000000000000000
5421532270000113551  00984214030600321356          000000010000000000015430000000000000000000988570000000001460000000000000000
5421532270000113551  00984214030600331357          000000010000000000104790000000000000000000988570000000011110000000000000000
5400023078600610551  0004185656500001886           000000040000000000184000000000000000000000000000000000000000000000000000000
5400023078600610551  0004185405500002829           000000010000000000026000000000000000000000000000000000000000000000000000000
5400023078600610551  00041854055000031317          000000010000000000034000000000000000000000000000000000000000000000000000000
5400023078600610551  0004185102102004972           000000010000000000005000000000000000000000000000000000000000000000000000000
5400023078600610551  00041854055000051122          000000010000000000036000000000000000000000000000000000000000000000000000000
5400023078600610551  0004185405500006509           000000010000000000034000000000000000000000000000000000000000000000000000000
5400023078600610551  0004185405500007790           000000010000000000046000000000000000000000000000000000000000000000000000000
5400029866979687551  00042254055000011096          000000010000000000089000000000000000000000000000000000000000000000000000000
5400029866979687551  00042254055000021351          000000020000000000288000000000000000000000000000000000000000000000000000000
5430788073000150551  08319011020000011332          000000020000000000043800000000000000000000950230000000000000000000000001800
5430788073000150551  08319011020000021333          000000030000000000038340000000000000000000988570000000000000000000000001800
5430788073000150551  08319056550600031334          000000010000000000647520000000000000000000988570000000054240000000000000000
5430788073000150551  08319056550600041335          000000010000000000815520000000000000000000988570000000073560000000000000000
5400039902099653551  00044054055000011280          000000010000000000148000000000000000000000000000000000000000000000000000000
5400039902099653551  0004405405500002991           000000040000000001056000000000000000000000000000000000000000000000000000000
5400039902099653551  00044056565000031260          000000005000000000021000000000000000000000000000000000000000000000000000000
5400040085678600551  0004135405500001633           000000035000000000203000000000000000000000000000000000000000000000000000000
5400040085678600551  0004135405500002745           000000010000000000034000000000000000000000000000000000000000000000000000000
5400040085678600551  0004135405500003624           000000010000000000058000000000000000000000000000000000000000000000000000000
5400040085678600551  0004135405500004509           000000005000000000017000000000000000000000000000000000000000000000000000000
5400043539475672551  0004215405500001637           000000010000000000064000000000000000000000000000000000000000000000000000000
5400043539475672551  00042154055000021216          000000010000000000129000000000000000000000000000000000000000000000000000000
5400043539475672551  0004215405500003726           000000010000000000204000000000000000000000000000000000000000000000000000000
5400043539475672551  00042154055000041132          000000010000000000099000000000000000000000000000000000000000000000000000000
5400043539475672551  00042154055000051129          000000010000000000132000000000000000000000000000000000000000000000000000000
5400043539475672551  0004215405500006732           000000010000000000069000000000000000000000000000000000000000000000000000000
5443648971000155558  20401725560000011299          000000010000000000210000000000000000000000219240000000000000000000000001200
5443648971000155558  20401725560000021300          000000010000000000299990000000000000000000562960000000000000000000030541200
5443648971000155558  20401725560000031301          000000010000000000329000000000000000000000906430000000000000000000000001200
5400045175942620551  00040056565000011260          000000040000000000176000000000000000000000000000000000000000000000000000000
5400045175942620551  0004005405500002829           000000010000000000026000000000000000000000000000000000000000000000000000000
5400045175942620551  00040054055000031317          000000010000000000049000000000000000000000000000000000000000000000000000000
5400052369692634551  0004065405500001924           000000010000000000045000000000000000000000000000000000000000000000000000000
5400052369692634551  0004065405500002762           000000010000000000596000000000000000000000000000000000000000000000000000000
5400052369692634551  00040651021020031259          000000010000000000035000000000000000000000000000000000000000000000000000000
5400052571580604551  0003945656500001886           000000040000000000176000000000000000000000000000000000000000000000000000000
5400052571580604551  0003945405500002829           000000010000000000026000000000000000000000000000000000000000000000000000000
5400052571580604551  0003945405500003929           000000010000000000034000000000000000000000000000000000000000000000000000000
5400052571580604551  0003945102102004972           000000010000000000005000000000000000000000000000000000000000000000000000000
5400055024491653551  0003965405500001915           000000035000000000147000000000000000000000000000000000000000000000000000000
5400055024491653551  0003965405500002621           000000010000000000058000000000000000000000000000000000000000000000000000000
5400055024491653551  0003965405500003680           000000010000000000038000000000000000000000000000000000000000000000000000000
5400055024491653551  0003965102102004972           000000010000000000005000000000000000000000000000000000000000000000000000000
5400057414807649551  0003895405500001915           000000035000000000147000000000000000000000000000000000000000000000000000000
5400057414807649551  0003895405500002745           000000010000000000034000000000000000000000000000000000000000000000000000000
5400057414807649551  0003895405500003867           000000010000000000049000000000000000000000000000000000000000000000000000000
5400057414807649551  0003895405500004880           000000010000000000036000000000000000000000000000000000000000000000000000000
5400057414807649551  00038951021020051259          000000010000000000035000000000000000000000000000000000000000000000000000000
5400061343170630551  00041756565000011260          000000040000000000168000000000000000000000000000000000000000000000000000000
5400061343170630551  0004175405500002874           000000010000000000038000000000000000000000000000000000000000000000000000000
5400061343170630551  0004175405500003829           000000010000000000026000000000000000000000000000000000000000000000000000000
5400061343170630551  0004175102102004972           000000010000000000016000000000000000000000000000000000000000000000000000000
5400065961064620551  0004155405500001995           000000010000000000322000000000000000000000000000000000000000000000000000000
5400066352827691551  00039956565000011260          000000035000000000147000000000000000000000000000000000000000000000000000000
5400066352827691551  0003995405500002829           000000010000000000026000000000000000000000000000000000000000000000000000000
5400066352827691551  0003995405500003736           000000010000000000018000000000000000000000000000000000000000000000000000000
5400066352827691551  0003995102102004972           000000010000000000005000000000000000000000000000000000000000000000000000000
5400066352827691551  0004395405500001944           000000010000000000115000000000000000000000000000000000000000000000000000000
5400067330886653551  0003885405500001916           000000030000000000120000000000000000000000000000000000000000000000000000000
5400067330886653551  0003885405500002829           000000010000000000025000000000000000000000000000000000000000000000000000000
5400067330886653551  0003885405500003736           000000010000000000019000000000000000000000000000000000000000000000000000000
5400067330886653551  00038854055000041303          000000010000000000239000000000000000000000000000000000000000000000000000000
5400069331502672551  00042354055000011352          000000010000000000289000000000000000000000000000000000000000000000000000000
5400070055017649551  0004275405500001633           000000040000000000232000000000000000000000000000000000000000000000000000000
5400070055017649551  0004275405500002829           000000010000000000026000000000000000000000000000000000000000000000000000000
5400070055017649551  00042754055000031231          000000010000000000075000000000000000000000000000000000000000000000000000000
5400071701796600551  00043054055000011106          000000010000000000086000000000000000000000000000000000000000000000000000000
5400073964484687551  00039356565000011260          000000030000000000126000000000000000000000000000000000000000000000000000000
5400073964484687551  0003935405500002829           000000010000000000026000000000000000000000000000000000000000000000000000000
5400073964484687551  0003935405500003929           000000010000000000034000000000000000000000000000000000000000000000000000000
5400076383350668551  00043656565000011260          000000050000000000220000000000000000000000000000000000000000000000000000000
5400076383350668551  0004365405500002680           000000010000000000035000000000000000000000000000000000000000000000000000000
5400076383350668551  0004365405500003929           000000010000000000036000000000000000000000000000000000000000000000000000000
5400076383350668551  0004365405500004923           000000010000000000016000000000000000000000000000000000000000000000000000000
5400076383350668551  0004365405500005797           000000010000000000358000000000000000000000000000000000000000000000000000000
5400076866629691551  00040954055000011054          000000010000000000038000000000000000000000000000000000000000000000000000000
5400076866629691551  0004095405500002800           000000020000000000418000000000000000000000000000000000000000000000000000000
5400076866629691551  00040954055000031321          000000020000000001058000000000000000000000000000000000000000000000000000000
5400076866629691551  00040954055000041322          000000010000000000059000000000000000000000000000000000000000000000000000000
5400076866629691551  0004095405500005815           000000010000000000059000000000000000000000000000000000000000000000000000000
5400080182763668551  0004115405500001916           000000040000000000160000000000000000000000000000000000000000000000000000000
5400080182763668551  0004115405500002829           000000010000000000026000000000000000000000000000000000000000000000000000000
5400080182763668551  0004115405500003806           000000010000000000058000000000000000000000000000000000000000000000000000000
5400080182763668551  00041154055000041224          000000010000000000045000000000000000000000000000000000000000000000000000000
5400080182763668551  0004115405500005689           000000010000000000030000000000000000000000000000000000000000000000000000000
5400085072230600551  00042956565000011260          000000100000000000560000000000000000000000000000000000000000000000000000000
5400085072230600551  00042954055000021330          000000010000000000054000000000000000000000000000000000000000000000000000000
5400085072230600551  00042954055000031231          000000010000000000116000000000000000000000000000000000000000000000000000000
5400085072230600551  0004295405500004880           000000010000000000038000000000000000000000000000000000000000000000000000000
5400085072230600551  00042954055000051339          000000010000000000087000000000000000000000000000000000000000000000000000000
5400085072230600551  00042954055000061331          000000010000000000225000000000000000000000000000000000000000000000000000000
5400085072230600551  0004295405500007509           000000020000000000068000000000000000000000000000000000000000000000000000000
5400085072230600551  0004295102102008972           000000010000000000016000000000000000000000000000000000000000000000000000000
5400085072230600551  00042951021020091259          000000010000000000035000000000000000000000000000000000000000000000000000000
5400089577760600551  00038754055000011065          000000010000000000096000000000000000000000000000000000000000000000000000000
7520240901202409301000          84219999LX3544-FILTRO AR                                     PC    000000000000000000000000000
7520240901202409301054          4016930076090-ANEL VEDACAO                                   PC    000000000000000000000000000
7520240901202409301058          87083090ATE6013-CILINDRO RODA                                PC    000000000000000000000000000
7520240901202409301065          4009110024591704-MANGUEIRA                                   PC    000000000000000000000000000
7520240901202409301096          87083019PD88-PASTILHA FREIO                                  JG    000000000000000000000000000
7520240901202409301103          84219999LX3505-FILTRO AR                                     PC    000000000000000000000000000
7520240901202409301106          853650903315-INTER PRESSAO OLEO                              PC    000000000000000000000000000
7520240901202409301112          85113020F000ZS0210-BOBINA IGNICAO PLASTICA                   PC    000000000000000000000000000
7520240901202409301122          84213990LA57-FILTRO ANTI POLEM                               PC    000000000000000000000000000
7520240901202409301129          87083019PD1346-PASTILHA FREIO                                JG    000000000000000000000000000
7520240901202409301132          84835090VKM4912-POLIA ALTERNADOR                             PC    000000000000000000000000000
7520240901202409301139          40093100212017-MANGUEIRA SUPERIOR RADIADOR                   PC    000000000000000000000000000
7520240901202409301167          84213990CU23362-FILTRO ANTI POLEM                            PC    000000000000000000000000000
7520240901202409301171          870899901692660080-TAMPA RESERVATORIO                        PC    000000000000000000000000000
7520240901202409301197          8413309020143-BOMBA DAGUA                                    PC    000000000000000000000000000
7520240901202409301216          84835090VKM11107L-TENSOR CORREIA DENTADA                     PC    000000000000000000000000000
7520240901202409301224          84213990CU21003-FILTRO ANTI POLEM                            PC    000000000000000000000000000
7520240901202409301231          84219999C2329-FILTRO AR                                      PC    000000000000000000000000000
7520240901202409301233          870899902045039P01-BUCHA BARRA ESTABILIZADORA                PC    000000000000000000000000000
7520240901202409301252          84212300WK6133-FILTRO COMBUSTIVEL                            PC    000000000000000000000000000
7520240901202409301259          38249941CHESY DESENGRIPANTE E ANTICORROSIVO 125G/300ML 2405-6UN    000000000000000000000000000
7520240901202409301260          27101932RALOY SYNTH PLUS SAE 5W30 API SP - 24/1              LT    000000000000000000000000000
7520240901202409301262          87083019PD1438-PASTILHA FREIO                                JG    000000000000000000000000000
7520240901202409301268          84219999C340071-FILTRO AR                                    PC    000000000000000000000000000
7520240901202409301277          84213990FAC303-FILTRO ANTI POLEM                             PC    000000000000000000000000000
7520240901202409301278          401693008642057-ANEL VEDACAO                                 PC    000000000000000000000000000
7520240901202409301280          87083019P689-PASTILHA FREIO TRASEIRO                         JG    000000000000000000000000000
7520240901202409301284          84213990FAC003-FILTRO ANTI POLEM                             PC    000000000000000000000000000
7520240901202409301285          87088000SK3018AT-KIT BARRA ESTABILIZADORA                    PC    000000000000000000000000000
7520240901202409301297          84219999HLP5135-FILTRO AR                                    PC    000000000000000000000000000
7520240901202409301299          61178090MANGOTE ANTICORTE (PAR)                              UN    000000000000000000000000000
7520240901202409301300          85131090LANTERNA LED DE CABECA ERGOPOWER 280LM               UN    000000000000000000000000000
7520240901202409301301          64041900CALCADO SEG CLASSIC I BID S/BIQ 41                   UN    000000000000000000000000000
7520240901202409301302          8511100046480362-VELA IGNICAO                                PC    000000000000000000000000000
7520240901202409301303          87083090100182225-ALAVANCA FREIO MAO                         PC    000000000000000000000000000
7520240901202409301304          87088000BJC08077M-BANDEJA SUSP                               PC    000000000000000000000000000
7520240901202409301305          85111000ZFR6J11-VELA IGNICAO                                 PC    000000000000000000000000000
7520240901202409301306          87088000SK3008AT-KIT BARRA ESTABILIZADORA                    JG    000000000000000000000000000
7520240901202409301307          4009329052099740-MANGUEIRA                                   PC    000000000000000000000000000
7520240901202409301308          84213990FAC887-FILTRO ANTI POLEM                             PC    000000000000000000000000000
7520240901202409301309          870899908614003S-KIT AMORTECEDOR TRASEIRO                    PC    000000000000000000000000000
7520240901202409301310          4016930005580BRGF-RETENTOR VIRABREQUIM - POLIA               PC    000000000000000000000000000
7520240901202409301311          40091100229213-MANGUEIRA BOCAL DO TANQUE                     PC    000000000000000000000000000
7520240901202409301312          8484900079376-JUNTA CABECOTE SUPERIOR                        JG    000000000000000000000000000
7520240901202409301313          84834090APL824-ENGRENAGEM VIRABREQUIM                        PC    000000000000000000000000000
7520240901202409301314          40093100629570-MANGUEIRA INFERIOR RADIADOR                   PC    000000000000000000000000000
7520240901202409301315          84213990FAC001-FILTRO ANTI POLEM                             PC    000000000000000000000000000
7520240901202409301316          8409919055243599-TAMPA                                       PC    000000000000000000000000000
7520240901202409301317          84219999HLP8840-FILTRO AR                                    PC    000000000000000000000000000
7520240901202409301318          84841000221418-JUNTA TAMPA                                   PC    000000000000000000000000000
7520240901202409301319          87088000NAK398-PIVO SUSPENSAO                                PC    000000000000000000000000000
7520240901202409301320          4016930002373BRG-RETENTOR HASTE SELETORA                     PC    000000000000000000000000000
7520240901202409301321          87088000SP184-AMORT SUSPENSAO DIANT                          PC    000000000000000000000000000
7520240901202409301322          87088000NAK96001-BIELETA BARRA ESTABILIZADORA                PC    000000000000000000000000000
7520240901202409301323          401699900110754-BUCHA BANDEJA                                PC    000000000000000000000000000
7520240901202409301324          87083090ATE7630-CILINDRO RODA                                PC    000000000000000000000000000
7520240901202409301325          87088000SK325S-BATENTE AMORTECEDOR                           PC    000000000000000000000000000
7520240901202409301326          40169300114002-KIT TAMPA VALVULA                             JG    000000000000000000000000000
7520240901202409301327          87088000SP039-AMORT SUSPENSAO DIANT                          PC    000000000000000000000000000
7520240901202409301328          87088000SP040-AMORT SUSPENSAO DIANT                          PC    000000000000000000000000000
7520240901202409301329          84213990ACP212-FILTRO ANTI POLEM                             PC    000000000000000000000000000
7520240901202409301330          84219999HU7002Z-FILTRO OLEO MOTOR                            PC    000000000000000000000000000
7520240901202409301331          87083019PD76-PASTILHA FREIO TRASEIRO                         JG    000000000000000000000000000
7520240901202409301332          34023990CS LAVA CARROS COM CERA MEN 1 LT UN                  UN    000000000000000000000000000
7520240901202409301333          63071000CS PANO MICROFIBRA CENTRALSUL 40X40                  UN    000000000000000000000000000
7520240901202409301334          27101932QUARTZ 7000 10W40 API SN 24X1                        CX    000000000000000000000000000
7520240901202409301335          27101932QUARTZ 9000 ENER.RQ 5W40 24B1L TOT BR                UN    000000000000000000000000000
7520240901202409301336          401031003PK0905-CORREIA                                      PC    000000000000000000000000000
7520240901202409301337          40169990SK8285-BUCHA BARRA ESTABILIZADORA                    PC    000000000000000000000000000
7520240901202409301338          85111000DILKAR8L8D-VELA IGNICAO                              PC    000000000000000000000000000
7520240901202409301339          84219999PU9008Z-FILTRO COMBUSTIVEL                           PC    000000000000000000000000000
7520240901202409301340          84834090494831-BENDIX MOTOR PARTIDA                          PC    000000000000000000000000000
7520240901202409301341          85119000594351-PORTA ESCOVA MOTOR PARTIDA                    PC    000000000000000000000000000
7520240901202409301342          87083090ATE5760-CILINDRO RODA                                PC    000000000000000000000000000
7520240901202409301343          271019325W20-OLEO MOTOR                                      PC    000000000000000000000000000
7520240901202409301344          27101932ZC75W80SYNTH-OLEO CAMBIO                             PC    000000000000000000000000000
7520240901202409301345          87088000NAK99297-PIVO SUSPENSAO                              PC    000000000000000000000000000
7520240901202409301346          87089990AL1226-TULIPA CAMBIO                                 PC    000000000000000000000000000
7520240901202409301347          84219999ARL1043-FILTRO AR                                    PC    000000000000000000000000000
7520240901202409301348          85129000S22-PALHETA LIMPADOR                                 PC    000000000000000000000000000
7520240901202409301349          84213990LA1171-FILTRO ANTI POLEM                             PC    000000000000000000000000000
7520240901202409301350          84219999LX3712-FILTRO AR                                     PC    000000000000000000000000000
7520240901202409301351          87083090BD1650-DISCO FREIO                                   PC    000000000000000000000000000
7520240901202409301352          87083090BPSA0091260-SAPATA FREIO C/ LONA COLADA              PC    000000000000000000000000000
7520240901202409301353          87089990MF86-TAMPA RADIADOR AGUA                             PC    000000000000000000000000000
7520240901202409301354          84219999HLP1032-FILTRO AR                                    PC    000000000000000000000000000
7520240901202409301355          87088000NAK99038-BIELETA BARRA ESTABILIZADORA                PC    000000000000000000000000000
7520240901202409301356          84213990FAC707-FILTRO ANTI POLEM                             PC    000000000000000000000000000
7520240901202409301357          87083019PD503-PASTILHA FREIO                                 JG    000000000000000000000000000
752024090120240930504           401699900412440-BUCHA BARRA ESTABILIZADORA                   PC    000000000000000000000000000
752024090120240930509           38190000DOT4 ATE-OLEO FREIO                                  FR    000000000000000000000000000
752024090120240930515           85111000BKR7ESB-VELA IGNICAO                                 PC    000000000000000000000000000
752024090120240930535           87089990SK4953-SUPORTE MOTOR                                 PC    000000000000000000000000000
752024090120240930541           84835010VKM4790-POLIA ALTERNADOR                             PC    000000000000000000000000000
752024090120240930569           271019325W30 BRUTUS-OLEO MOTOR                               LT    000000000000000000000000000
752024090120240930578           40103500111SP170H-CORREIA DISTRIBUICAO                       PC    000000000000000000000000000
752024090120240930588           721012002081910-JUNTA COLETOR ESCAP/ADM                      PC    000000000000000000000000000
752024090120240930594           84213990LA655-FILTRO ANTI POLEM                              PC    000000000000000000000000000
752024090120240930604           84835090VKM15402-TENSOR CORREIA DENTADA                      PC    000000000000000000000000000
752024090120240930614           8708910094736156-RESERV AGUA RADIADOR                        PC    000000000000000000000000000
752024090120240930618           8483501090354858-ENGRENAGEM VIRABREQUIM                      PC    000000000000000000000000000
752024090120240930621           84219999C24005-FILTRO AR                                     PC    000000000000000000000000000
752024090120240930624           84219999C26135-FILTRO AR                                     PC    000000000000000000000000000
752024090120240930633           271019320W20 PRO DS-OLEO MOTOR                               LT    000000000000000000000000000
752024090120240930636           85111000BPR7E-VELA IGNICAO                                   PC    000000000000000000000000000
752024090120240930637           40103500135STP8M190H-CORREIA DISTRIBUICAO                    PC    000000000000000000000000000
752024090120240930655           84219999C17021-FILTRO AR                                     PC    000000000000000000000000000
752024090120240930657           84219999HU71151X-FILTRO OLEO MOTOR                           PC    000000000000000000000000000
752024090120240930659           84219999HLP6076-FILTRO AR                                    PC    000000000000000000000000000
752024090120240930674           4016930075629-JUNTA TAMPA VALVULA                            PC    000000000000000000000000000
752024090120240930680           84212300W71930-FILTRO OLEO MOTOR                             PC    000000000000000000000000000
752024090120240930681           85111000BKUR6ET10-VELA IGNICAO                               PC    000000000000000000000000000
752024090120240930686           87088000SK138S-KIT AMORTECEDOR DIANTEIRO                     PC    000000000000000000000000000
752024090120240930689           853929107443-LAMPADA                                         PC    000000000000000000000000000
752024090120240930710           84818021315187-VALVULA TERMOSTATICA                          PC    000000000000000000000000000
