10336213140001600034450680073 CRISTINA ISABEL DE CAMPOS          Belo Horizonte                MG31999760132025050120250531331
11Rua Caconde                       00875                      Renascença     31130510VINICIUS MURTA NERY         031934225098
5065139743000192ISENTO        20250521MG551  0008135405P000000002430000000000000000000000000000000000000000000000000450000000N
5065139743000192ISENTO        20250521MG551  0008135102P000000000050000000000000000000000000000000000000000000000000005000000N
5000001528954696ISENTO        20250527MG551  0008145405P000000003250000000000000000000000000000000000000000000000000801000000N
5000001528954696ISENTO        20250527MG551  0008145102P000000000510000000000000000000000000000000000000000000000000067000000N
5000007224685631ISENTO        20250528MG551  0008205656P000000001760000000000000000000000000000000000000000000000000176000000N
5000007224685631ISENTO        20250528MG551  0008205405P000000000710000000000000000000000000000000000000000000000000106000000N
5000007224685631ISENTO        20250528MG551  0008205102P000000000160000000000000000000000000000000000000000000000000016000000N
5000009763555663ISENTO        20250529MG551  0008275102P000000000160000000000000000000000000000000000000000000000000016000000N
5000012355743690ISENTO        20250527MG551  0008155405P000000001130000000000000000000000000000000000000000000000000162000000N
5000005691927655ISENTO        20250527MG551  0008165405P000000001480000000000000000000000000000000000000000000000000148000000N
5000001340790602ISENTO        20250528MG551  0008215405P000000002120000000000000000000000000000000000000000000000000396000000N
5000000524234680ISENTO        20250527MG551  0008175405P000000000690000000000000000000000000000000000000000000000000069000000N
5000016338952620ISENTO        20250527MG551  0008185656P000000002070000000000000000000000000000000000000000000000000207000000N
5000016338952620ISENTO        20250527MG551  0008185405P000000000780000000000000000000000000000000000000000000000000108000000N
5000016338952620ISENTO        20250527MG551  0008185102P000000000160000000000000000000000000000000000000000000000000016000000N
5000005885341613ISENTO        20250530MG551  0008355405P000000001940000000000000000000000000000000000000000000000000488000000N
5000005885341613ISENTO        20250530MG551  0008355102P000000000050000000000000000000000000000000000000000000000000005000000N
5000090122836634ISENTO        20250529MG551  0008285405P000000005960000000000000000000000000000000000000000000000001648000000N
5000004641134669ISENTO        20250528MG551  0008225405P000000010560000000000000000000000000000000000000000000000002000000000N
5000010380984679ISENTO        20250527MG551  0008195405P000000004790000000000000000000000000000000000000000000000000479000000N
5000003003617699ISENTO        20250528MG551  0008235656P000000001760000000000000000000000000000000000000000000000000176000000N
5000003003617699ISENTO        20250528MG551  0008235405P000000000740000000000000000000000000000000000000000000000000102000000N
5000000498426688ISENTO        20250528MG551  0008245405P000000003250000000000000000000000000000000000000000000000000708000000N
5000000498426688ISENTO        20250528MG551  0008245102P000000000350000000000000000000000000000000000000000000000000035000000N
5000039099261691ISENTO        20250529MG551  0008295405P000000008260000000000000000000000000000000000000000000000003506000000N
5000005307439652ISENTO        20250528MG551  0008255405P000000006900000000000000000000000000000000000000000000000003637000000N
5000005307439652ISENTO        20250528MG551  0008255102P000000000560000000000000000000000000000000000000000000000000077000000N
5000054123038620ISENTO        20250530MG551  0008365405P000000001780000000000000000000000000000000000000000000000000178000000N
5000015613569649ISENTO        20250529MG551  0008305405P000000002050000000000000000000000000000000000000000000000000498000000N
5000015613569649ISENTO        20250529MG551  0008305102P000000000350000000000000000000000000000000000000000000000000035000000N
5000006008371658ISENTO        20250528MG551  0008265405P000000009350000000000000000000000000000000000000000000000005540000000N
5000006008371658ISENTO        20250528MG551  0008265102P000000000350000000000000000000000000000000000000000000000000035000000N
5000008352968653ISENTO        20250529MG551  0008315405P000000002860000000000000000000000000000000000000000000000000957000000N
5000008352968653ISENTO        20250529MG551  0008315102P000000000400000000000000000000000000000000000000000000000000045000000N
5000001223160610ISENTO        20250530MG551  0008375405P000000004190000000000000000000000000000000000000000000000001379000000N
5000066352827691ISENTO        20250529MG551  0008325405P000000003390000000000000000000000000000000000000000000000000760000000N
5000066352827691ISENTO        20250529MG551  0008325102P000000000350000000000000000000000000000000000000000000000000035000000N
5000088263452600ISENTO        20250530MG551  0008385656P000000001540000000000000000000000000000000000000000000000000154000000N
5000088263452600ISENTO        20250530MG551  0008385405P000000000830000000000000000000000000000000000000000000000000118000000N
5000088263452600ISENTO        20250530MG551  0008385102P000000000050000000000000000000000000000000000000000000000000005000000N
5000055978606668ISENTO        20250529MG551  0008335405P000000001840000000000000000000000000000000000000000000000000338000000N
5000055978606668ISENTO        20250529MG551  0008335102P000000000050000000000000000000000000000000000000000000000000005000000N
5000000650928644ISENTO        20250529MG551  0008345405P000000003250000000000000000000000000000000000000000000000000996000000N
5000000650928644ISENTO        20250529MG551  0008345102P000000000050000000000000000000000000000000000000000000000000005000000N
5000011923192655ISENTO        20250530MG551  0008395405P000000004600000000000000000000000000000000000000000000000000702000000N
5000070234852607ISENTO        20250530MG551  0008405656P000000001320000000000000000000000000000000000000000000000000132000000N
5000070234852607ISENTO        20250530MG551  0008405405P000000000810000000000000000000000000000000000000000000000000116000000N
5000070234852607ISENTO        20250530MG551  0008405102P000000000640000000000000000000000000000000000000000000000000098000000N
5000018711847620ISENTO        20250530MG551  0008415405P000000009900000000000000000000000000000000000000000000000003155000000N
5000001447193636ISENTO        20250530MG551  0008425656P000000001760000000000000000000000000000000000000000000000000176000000N
5000001447193636ISENTO        20250530MG551  0008425405P000000000760000000000000000000000000000000000000000000000000104000000N
5000027533425634ISENTO        20250530MG551  0008435405P000000004450000000000000000000000000000000000000000000000001354000000N
5000027533425634ISENTO        20250530MG551  0008435102P000000000160000000000000000000000000000000000000000000000000016000000N
5000044692153687ISENTO        20250530MG551  0008445405P000000003430000000000000000000000000000000000000000000000000836000000N
5000007004330664ISENTO        20250530MG551  0008455405P000000001520000000000000000000000000000000000000000000000000196000000N
5000071302611615ISENTO        20250530MG551  0008465405P000000003500000000000000000000000000000000000000000000000000938000000N
5000071302611615ISENTO        20250530MG551  0008465102P000000000350000000000000000000000000000000000000000000000000035000000N
5000001445585642ISENTO        20250530MG551  0008475656P000000002200000000000000000000000000000000000000000000000000220000000N
5000001445585642ISENTO        20250530MG551  0008475405P000000001040000000000000000000000000000000000000000000000000139000000N
5000001445585642ISENTO        20250530MG551  0008475102P000000000160000000000000000000000000000000000000000000000000016000000N
5000022228209600ISENTO        20250530MG551  0008485405P000000006530000000000000000000000000000000000000000000000001157000000N
5000091788927672ISENTO        20250530MG551  0008495405P000000002610000000000000000000000000000000000000000000000000493000000N
5000091788927672ISENTO        20250530MG551  0008495102P000000000500000000000000000000000000000000000000000000000000080000000N
5000006329909610ISENTO        20250530MG551  0008505656P000000001320000000000000000000000000000000000000000000000000132000000N
5000006329909610ISENTO        20250530MG551  0008505405P000000000800000000000000000000000000000000000000000000000000115000000N
5000004370199697ISENTO        20250530MG551  0008515405P000000002410000000000000000000000000000000000000000000000000584000000N
5000004370199697ISENTO        20250530MG551  0008515102P000000000350000000000000000000000000000000000000000000000000035000000N
5000025594702687ISENTO        20250530MG551  0008525405P000000002490000000000000000000000000000000000000000000000000647000000N
5000025594702687ISENTO        20250530MG551  0008525102P000000000400000000000000000000000000000000000000000000000000045000000N
5000005135147675ISENTO        20250530MG551  0008535405P000000002980000000000000000000000000000000000000000000000000740000000N
5000005135147675ISENTO        20250530MG551  0008535102P000000000350000000000000000000000000000000000000000000000000035000000N
5000004116831603ISENTO        20250530MG551  0008545405P000000001840000000000000000000000000000000000000000000000000184000000N
5000008527855690ISENTO        20250530MG551  0008555405P000000001590000000000000000000000000000000000000000000000000159000000N
5000068516460649ISENTO        20250530MG551  0008565405P000000002450000000000000000000000000000000000000000000000000602000000N
5000068516460649ISENTO        20250530MG551  0008565102P000000000510000000000000000000000000000000000000000000000000067000000N
5000059332085668ISENTO        20250530MG551  0008575405P000000009820000000000000000000000000000000000000000000000004897000000N
5000059332085668ISENTO        20250530MG551  0008575102P000000000130000000000000000000000000000000000000000000000000018000000N
5000022951350600ISENTO        20250530MG551  0008585405P000000000600000000000000000000000000000000000000000000000000137000000N
5000022951350600ISENTO        20250530MG551  0008585102P000000000060000000000000000000000000000000000000000000000000006000000N
5000075401428634ISENTO        20250530MG551  0008595405P000000002490000000000000000000000000000000000000000000000000469000000N
5000075401428634ISENTO        20250530MG551  0008595102P000000000750000000000000000000000000000000000000000000000000080000000N
5000008850058640ISENTO        20250530MG551  0008605405P000000003720000000000000000000000000000000000000000000000000794000000N
5000008850058640ISENTO        20250530MG551  0008605102P000000000510000000000000000000000000000000000000000000000000067000000N
5000005535736678ISENTO        20250530MG551  0008615405P000000030460000000000000000000000000000000000000000000000012964000000N
5000005535736678ISENTO        20250530MG551  0008615102P000000000160000000000000000000000000000000000000000000000000016000000N
5000018711847620ISENTO        20250530MG551  0008625656P000000001760000000000000000000000000000000000000000000000000176000000N
5000018711847620ISENTO        20250530MG551  0008625405P000000000730000000000000000000000000000000000000000000000000102000000N
5000018711847620ISENTO        20250530MG551  0008625102P000000000050000000000000000000000000000000000000000000000000005000000N
5000087526360620ISENTO        20250530MG551  0008635405P000000034170000000000000000000000000000000000000000000000032379000000N
5000087526360620ISENTO        20250530MG551  0008635656P000000001980000000000000000000000000000000000000000000000000198000000N
5000087526360620ISENTO        20250530MG551  0008635102P000000000650000000000000000000000000000000000000000000000000111000000N
5000090981138691ISENTO        20250530MG551  0008645405P000000007020000000000000000000000000000000000000000000000003028000000N
5000090981138691ISENTO        20250530MG551  0008645102P000000000350000000000000000000000000000000000000000000000000035000000N
5000023018518691ISENTO        20250530MG551  0008655405P000000002470000000000000000000000000000000000000000000000000590000000N
5000040085678600ISENTO        20250530MG551  0008665405P000000002960000000000000000000000000000000000000000000000000737000000N
5000045416249668ISENTO        20250530MG551  0008675405P000000009060000000000000000000000000000000000000000000000003325000000N
5000045416249668ISENTO        20250530MG551  0008675102P000000000240000000000000000000000000000000000000000000000000040000000N
5000007014083678ISENTO        20250530MG551  0008685656P000000001980000000000000000000000000000000000000000000000000198000000N
5000007014083678ISENTO        20250530MG551  0008685405P000000000910000000000000000000000000000000000000000000000000127000000N
5000007014083678ISENTO        20250530MG551  0008685102P000000000050000000000000000000000000000000000000000000000000005000000N
5000003309050661ISENTO        20250530MG551  0008695405P000000011670000000000000000000000000000000000000000000000002651000000N
5000003309050661ISENTO        20250530MG551  0008695656P000000001320000000000000000000000000000000000000000000000000132000000N
5000071001352653ISENTO        20250530MG551  0008705405P000000000520000000000000000000000000000000000000000000000000052000000N
5000000524234680ISENTO        20250530MG551  0008715405P000000004510000000000000000000000000000000000000000000000001097000000N
50215322700001130624775200061 20250507MG551  0121761403T000000022037400000000000000000000000000000000000000000000000000000000N
50215322700001130624775200061 20250528MG551  0124401403T000000051242000000000000000000000000000000000000000000000000000000000N
50215322700001130624775200061 20250521MG551  0123521403T000000051309700000000000000000000000000000000000000000000000000000000N
50215322700001130624775200061 20250516MG551  0122831403T000000035858000000000000000000000000000000000000000000000000000000000N
51215322700001130624775200061 20250507MG1  01217614030000000000000000000000000000000000000000000000000000                    N
51215322700001130624775200061 20250516MG1  01228314030000000000000000000000000000000000000000000000000000                    N
51215322700001130624775200061 20250521MG1  01235214030000000000000000000000000000000000000000000000000000                    N
5165139743000192ISENTO        20250521MG1  00081354050000000000000000000000000000000000000000000000000000                    N
5165139743000192ISENTO        20250521MG1  00081351020000000000000000000000000000000000000000000000000000                    N
5100001528954696ISENTO        20250527MG1  00081451020000000000000000000000000000000000000000000000000000                    N
5100001528954696ISENTO        20250527MG1  00081454050000000000000000000000000000000000000000000000000000                    N
5100012355743690ISENTO        20250527MG1  00081554050000000000000000000000000000000000000000000000000000                    N
5100005691927655ISENTO        20250527MG1  00081654050000000000000000000000000000000000000000000000000000                    N
5100000524234680ISENTO        20250527MG1  00081754050000000000000000000000000000000000000000000000000000                    N
5100016338952620ISENTO        20250527MG1  00081851020000000000000000000000000000000000000000000000000000                    N
5100016338952620ISENTO        20250527MG1  00081854050000000000000000000000000000000000000000000000000000                    N
5100016338952620ISENTO        20250527MG1  00081856560000000000000000000000000000000000000000000000000000                    N
5100010380984679ISENTO        20250527MG1  00081954050000000000000000000000000000000000000000000000000000                    N
51215322700001130624775200061 20250528MG1  01244014030000000000000000000000000000000000000000000000000000                    N
5100007224685631ISENTO        20250528MG1  00082051020000000000000000000000000000000000000000000000000000                    N
5100007224685631ISENTO        20250528MG1  00082054050000000000000000000000000000000000000000000000000000                    N
5100007224685631ISENTO        20250528MG1  00082056560000000000000000000000000000000000000000000000000000                    N
5100001340790602ISENTO        20250528MG1  00082154050000000000000000000000000000000000000000000000000000                    N
5100004641134669ISENTO        20250528MG1  00082254050000000000000000000000000000000000000000000000000000                    N
5100003003617699ISENTO        20250528MG1  00082354050000000000000000000000000000000000000000000000000000                    N
5100003003617699ISENTO        20250528MG1  00082356560000000000000000000000000000000000000000000000000000                    N
5100000498426688ISENTO        20250528MG1  00082451020000000000000000000000000000000000000000000000000000                    N
5100000498426688ISENTO        20250528MG1  00082454050000000000000000000000000000000000000000000000000000                    N
5100005307439652ISENTO        20250528MG1  00082554050000000000000000000000000000000000000000000000000000                    N
5100005307439652ISENTO        20250528MG1  00082551020000000000000000000000000000000000000000000000000000                    N
5100006008371658ISENTO        20250528MG1  00082654050000000000000000000000000000000000000000000000000000                    N
5100006008371658ISENTO        20250528MG1  00082651020000000000000000000000000000000000000000000000000000                    N
5100009763555663ISENTO        20250529MG1  00082751020000000000000000000000000000000000000000000000000000                    N
5100090122836634ISENTO        20250529MG1  00082854050000000000000000000000000000000000000000000000000000                    N
5100039099261691ISENTO        20250529MG1  00082954050000000000000000000000000000000000000000000000000000                    N
5100015613569649ISENTO        20250529MG1  00083051020000000000000000000000000000000000000000000000000000                    N
5100015613569649ISENTO        20250529MG1  00083054050000000000000000000000000000000000000000000000000000                    N
5100008352968653ISENTO        20250529MG1  00083151020000000000000000000000000000000000000000000000000000                    N
5100008352968653ISENTO        20250529MG1  00083154050000000000000000000000000000000000000000000000000000                    N
5100066352827691ISENTO        20250529MG1  00083251020000000000000000000000000000000000000000000000000000                    N
5100066352827691ISENTO        20250529MG1  00083254050000000000000000000000000000000000000000000000000000                    N
5100055978606668ISENTO        20250529MG1  00083351020000000000000000000000000000000000000000000000000000                    N
5100055978606668ISENTO        20250529MG1  00083354050000000000000000000000000000000000000000000000000000                    N
5100000650928644ISENTO        20250529MG1  00083454050000000000000000000000000000000000000000000000000000                    N
5100000650928644ISENTO        20250529MG1  00083451020000000000000000000000000000000000000000000000000000                    N
5100005885341613ISENTO        20250530MG1  00083551020000000000000000000000000000000000000000000000000000                    N
5100005885341613ISENTO        20250530MG1  00083554050000000000000000000000000000000000000000000000000000                    N
5100054123038620ISENTO        20250530MG1  00083654050000000000000000000000000000000000000000000000000000                    N
5100001223160610ISENTO        20250530MG1  00083754050000000000000000000000000000000000000000000000000000                    N
5100088263452600ISENTO        20250530MG1  00083851020000000000000000000000000000000000000000000000000000                    N
5100088263452600ISENTO        20250530MG1  00083856560000000000000000000000000000000000000000000000000000                    N
5100088263452600ISENTO        20250530MG1  00083854050000000000000000000000000000000000000000000000000000                    N
5100011923192655ISENTO        20250530MG1  00083954050000000000000000000000000000000000000000000000000000                    N
5100070234852607ISENTO        20250530MG1  00084056560000000000000000000000000000000000000000000000000000                    N
5100070234852607ISENTO        20250530MG1  00084054050000000000000000000000000000000000000000000000000000                    N
5100070234852607ISENTO        20250530MG1  00084051020000000000000000000000000000000000000000000000000000                    N
5100018711847620ISENTO        20250530MG1  00084154050000000000000000000000000000000000000000000000000000                    N
5100001447193636ISENTO        20250530MG1  00084256560000000000000000000000000000000000000000000000000000                    N
5100001447193636ISENTO        20250530MG1  00084254050000000000000000000000000000000000000000000000000000                    N
5100027533425634ISENTO        20250530MG1  00084354050000000000000000000000000000000000000000000000000000                    N
5100027533425634ISENTO        20250530MG1  00084351020000000000000000000000000000000000000000000000000000                    N
5100044692153687ISENTO        20250530MG1  00084454050000000000000000000000000000000000000000000000000000                    N
5100007004330664ISENTO        20250530MG1  00084554050000000000000000000000000000000000000000000000000000                    N
5100071302611615ISENTO        20250530MG1  00084654050000000000000000000000000000000000000000000000000000                    N
5100071302611615ISENTO        20250530MG1  00084651020000000000000000000000000000000000000000000000000000                    N
5100001445585642ISENTO        20250530MG1  00084756560000000000000000000000000000000000000000000000000000                    N
5100001445585642ISENTO        20250530MG1  00084751020000000000000000000000000000000000000000000000000000                    N
5100001445585642ISENTO        20250530MG1  00084754050000000000000000000000000000000000000000000000000000                    N
5100022228209600ISENTO        20250530MG1  00084854050000000000000000000000000000000000000000000000000000                    N
5100091788927672ISENTO        20250530MG1  00084951020000000000000000000000000000000000000000000000000000                    N
5100091788927672ISENTO        20250530MG1  00084954050000000000000000000000000000000000000000000000000000                    N
5100006329909610ISENTO        20250530MG1  00085054050000000000000000000000000000000000000000000000000000                    N
5100006329909610ISENTO        20250530MG1  00085056560000000000000000000000000000000000000000000000000000                    N
5100004370199697ISENTO        20250530MG1  00085154050000000000000000000000000000000000000000000000000000                    N
5100004370199697ISENTO        20250530MG1  00085151020000000000000000000000000000000000000000000000000000                    N
5100025594702687ISENTO        20250530MG1  00085254050000000000000000000000000000000000000000000000000000                    N
5100025594702687ISENTO        20250530MG1  00085251020000000000000000000000000000000000000000000000000000                    N
5100005135147675ISENTO        20250530MG1  00085354050000000000000000000000000000000000000000000000000000                    N
5100005135147675ISENTO        20250530MG1  00085351020000000000000000000000000000000000000000000000000000                    N
5100004116831603ISENTO        20250530MG1  00085454050000000000000000000000000000000000000000000000000000                    N
5100008527855690ISENTO        20250530MG1  00085554050000000000000000000000000000000000000000000000000000                    N
5100068516460649ISENTO        20250530MG1  00085654050000000000000000000000000000000000000000000000000000                    N
5100068516460649ISENTO        20250530MG1  00085651020000000000000000000000000000000000000000000000000000                    N
5100059332085668ISENTO        20250530MG1  00085751020000000000000000000000000000000000000000000000000000                    N
5100059332085668ISENTO        20250530MG1  00085754050000000000000000000000000000000000000000000000000000                    N
5100022951350600ISENTO        20250530MG1  00085854050000000000000000000000000000000000000000000000000000                    N
5100022951350600ISENTO        20250530MG1  00085851020000000000000000000000000000000000000000000000000000                    N
5100075401428634ISENTO        20250530MG1  00085954050000000000000000000000000000000000000000000000000000                    N
5100075401428634ISENTO        20250530MG1  00085951020000000000000000000000000000000000000000000000000000                    N
5100008850058640ISENTO        20250530MG1  00086051020000000000000000000000000000000000000000000000000000                    N
5100008850058640ISENTO        20250530MG1  00086054050000000000000000000000000000000000000000000000000000                    N
5100005535736678ISENTO        20250530MG1  00086151020000000000000000000000000000000000000000000000000000                    N
5100005535736678ISENTO        20250530MG1  00086154050000000000000000000000000000000000000000000000000000                    N
5100018711847620ISENTO        20250530MG1  00086256560000000000000000000000000000000000000000000000000000                    N
5100018711847620ISENTO        20250530MG1  00086254050000000000000000000000000000000000000000000000000000                    N
5100018711847620ISENTO        20250530MG1  00086251020000000000000000000000000000000000000000000000000000                    N
5100087526360620ISENTO        20250530MG1  00086354050000000000000000000000000000000000000000000000000000                    N
5100087526360620ISENTO        20250530MG1  00086356560000000000000000000000000000000000000000000000000000                    N
5100087526360620ISENTO        20250530MG1  00086351020000000000000000000000000000000000000000000000000000                    N
5100090981138691ISENTO        20250530MG1  00086454050000000000000000000000000000000000000000000000000000                    N
5100090981138691ISENTO        20250530MG1  00086451020000000000000000000000000000000000000000000000000000                    N
5100023018518691ISENTO        20250530MG1  00086554050000000000000000000000000000000000000000000000000000                    N
5100040085678600ISENTO        20250530MG1  00086654050000000000000000000000000000000000000000000000000000                    N
5100045416249668ISENTO        20250530MG1  00086754050000000000000000000000000000000000000000000000000000                    N
5100045416249668ISENTO        20250530MG1  00086751020000000000000000000000000000000000000000000000000000                    N
5100007014083678ISENTO        20250530MG1  00086856560000000000000000000000000000000000000000000000000000                    N
5100007014083678ISENTO        20250530MG1  00086854050000000000000000000000000000000000000000000000000000                    N
5100007014083678ISENTO        20250530MG1  00086851020000000000000000000000000000000000000000000000000000                    N
5100003309050661ISENTO        20250530MG1  00086954050000000000000000000000000000000000000000000000000000                    N
5100003309050661ISENTO        20250530MG1  00086956560000000000000000000000000000000000000000000000000000                    N
5100071001352653ISENTO        20250530MG1  00087054050000000000000000000000000000000000000000000000000000                    N
5100000524234680ISENTO        20250530MG1  00087154050000000000000000000000000000000000000000000000000000                    N
5365139743000192ISENTO        20250521MG551  0008135405P000000000000000000000000000000000000000N                              
5365139743000192ISENTO        20250521MG551  0008135102P000000000000000000000000000000000000000N                              
5300001528954696ISENTO        20250527MG551  0008145405P000000000000000000000000000000000000000N                              
5300001528954696ISENTO        20250527MG551  0008145102P000000000000000000000000000000000000000N                              
5300007224685631ISENTO        20250528MG551  0008205656P000000000000000000000000000000000000000N                              
5300007224685631ISENTO        20250528MG551  0008205405P000000000000000000000000000000000000000N                              
5300007224685631ISENTO        20250528MG551  0008205102P000000000000000000000000000000000000000N                              
5300009763555663ISENTO        20250529MG551  0008275102P000000000000000000000000000000000000000N                              
5300012355743690ISENTO        20250527MG551  0008155405P000000000000000000000000000000000000000N                              
5300005691927655ISENTO        20250527MG551  0008165405P000000000000000000000000000000000000000N                              
5300001340790602ISENTO        20250528MG551  0008215405P000000000000000000000000000000000000000N                              
5300000524234680ISENTO        20250527MG551  0008175405P000000000000000000000000000000000000000N                              
5300016338952620ISENTO        20250527MG551  0008185656P000000000000000000000000000000000000000N                              
5300016338952620ISENTO        20250527MG551  0008185405P000000000000000000000000000000000000000N                              
5300016338952620ISENTO        20250527MG551  0008185102P000000000000000000000000000000000000000N                              
5300005885341613ISENTO        20250530MG551  0008355405P000000000000000000000000000000000000000N                              
5300005885341613ISENTO        20250530MG551  0008355102P000000000000000000000000000000000000000N                              
5300090122836634ISENTO        20250529MG551  0008285405P000000000000000000000000000000000000000N                              
5300004641134669ISENTO        20250528MG551  0008225405P000000000000000000000000000000000000000N                              
5300010380984679ISENTO        20250527MG551  0008195405P000000000000000000000000000000000000000N                              
5300003003617699ISENTO        20250528MG551  0008235656P000000000000000000000000000000000000000N                              
5300003003617699ISENTO        20250528MG551  0008235405P000000000000000000000000000000000000000N                              
5300000498426688ISENTO        20250528MG551  0008245405P000000000000000000000000000000000000000N                              
5300000498426688ISENTO        20250528MG551  0008245102P000000000000000000000000000000000000000N                              
5300039099261691ISENTO        20250529MG551  0008295405P000000000000000000000000000000000000000N                              
5300005307439652ISENTO        20250528MG551  0008255405P000000000000000000000000000000000000000N                              
5300005307439652ISENTO        20250528MG551  0008255102P000000000000000000000000000000000000000N                              
5300054123038620ISENTO        20250530MG551  0008365405P000000000000000000000000000000000000000N                              
5300015613569649ISENTO        20250529MG551  0008305405P000000000000000000000000000000000000000N                              
5300015613569649ISENTO        20250529MG551  0008305102P000000000000000000000000000000000000000N                              
5300006008371658ISENTO        20250528MG551  0008265405P000000000000000000000000000000000000000N                              
5300006008371658ISENTO        20250528MG551  0008265102P000000000000000000000000000000000000000N                              
5300008352968653ISENTO        20250529MG551  0008315405P000000000000000000000000000000000000000N                              
5300008352968653ISENTO        20250529MG551  0008315102P000000000000000000000000000000000000000N                              
5300001223160610ISENTO        20250530MG551  0008375405P000000000000000000000000000000000000000N                              
5300066352827691ISENTO        20250529MG551  0008325405P000000000000000000000000000000000000000N                              
5300066352827691ISENTO        20250529MG551  0008325102P000000000000000000000000000000000000000N                              
5300088263452600ISENTO        20250530MG551  0008385656P000000000000000000000000000000000000000N                              
5300088263452600ISENTO        20250530MG551  0008385405P000000000000000000000000000000000000000N                              
5300088263452600ISENTO        20250530MG551  0008385102P000000000000000000000000000000000000000N                              
5300055978606668ISENTO        20250529MG551  0008335405P000000000000000000000000000000000000000N                              
5300055978606668ISENTO        20250529MG551  0008335102P000000000000000000000000000000000000000N                              
5300000650928644ISENTO        20250529MG551  0008345405P000000000000000000000000000000000000000N                              
5300000650928644ISENTO        20250529MG551  0008345102P000000000000000000000000000000000000000N                              
5300011923192655ISENTO        20250530MG551  0008395405P000000000000000000000000000000000000000N                              
5300070234852607ISENTO        20250530MG551  0008405656P000000000000000000000000000000000000000N                              
5300070234852607ISENTO        20250530MG551  0008405405P000000000000000000000000000000000000000N                              
5300070234852607ISENTO        20250530MG551  0008405102P000000000000000000000000000000000000000N                              
5300018711847620ISENTO        20250530MG551  0008415405P000000000000000000000000000000000000000N                              
5300001447193636ISENTO        20250530MG551  0008425656P000000000000000000000000000000000000000N                              
5300001447193636ISENTO        20250530MG551  0008425405P000000000000000000000000000000000000000N                              
5300027533425634ISENTO        20250530MG551  0008435405P000000000000000000000000000000000000000N                              
5300027533425634ISENTO        20250530MG551  0008435102P000000000000000000000000000000000000000N                              
5300044692153687ISENTO        20250530MG551  0008445405P000000000000000000000000000000000000000N                              
5300007004330664ISENTO        20250530MG551  0008455405P000000000000000000000000000000000000000N                              
5300071302611615ISENTO        20250530MG551  0008465405P000000000000000000000000000000000000000N                              
5300071302611615ISENTO        20250530MG551  0008465102P000000000000000000000000000000000000000N                              
5300001445585642ISENTO        20250530MG551  0008475656P000000000000000000000000000000000000000N                              
5300001445585642ISENTO        20250530MG551  0008475405P000000000000000000000000000000000000000N                              
5300001445585642ISENTO        20250530MG551  0008475102P000000000000000000000000000000000000000N                              
5300022228209600ISENTO        20250530MG551  0008485405P000000000000000000000000000000000000000N                              
5300091788927672ISENTO        20250530MG551  0008495405P000000000000000000000000000000000000000N                              
5300091788927672ISENTO        20250530MG551  0008495102P000000000000000000000000000000000000000N                              
5300006329909610ISENTO        20250530MG551  0008505656P000000000000000000000000000000000000000N                              
5300006329909610ISENTO        20250530MG551  0008505405P000000000000000000000000000000000000000N                              
5300004370199697ISENTO        20250530MG551  0008515405P000000000000000000000000000000000000000N                              
5300004370199697ISENTO        20250530MG551  0008515102P000000000000000000000000000000000000000N                              
5300025594702687ISENTO        20250530MG551  0008525405P000000000000000000000000000000000000000N                              
5300025594702687ISENTO        20250530MG551  0008525102P000000000000000000000000000000000000000N                              
5300005135147675ISENTO        20250530MG551  0008535405P000000000000000000000000000000000000000N                              
5300005135147675ISENTO        20250530MG551  0008535102P000000000000000000000000000000000000000N                              
5300004116831603ISENTO        20250530MG551  0008545405P000000000000000000000000000000000000000N                              
5300008527855690ISENTO        20250530MG551  0008555405P000000000000000000000000000000000000000N                              
5300068516460649ISENTO        20250530MG551  0008565405P000000000000000000000000000000000000000N                              
5300068516460649ISENTO        20250530MG551  0008565102P000000000000000000000000000000000000000N                              
5300059332085668ISENTO        20250530MG551  0008575405P000000000000000000000000000000000000000N                              
5300059332085668ISENTO        20250530MG551  0008575102P000000000000000000000000000000000000000N                              
5300022951350600ISENTO        20250530MG551  0008585405P000000000000000000000000000000000000000N                              
5300022951350600ISENTO        20250530MG551  0008585102P000000000000000000000000000000000000000N                              
5300075401428634ISENTO        20250530MG551  0008595405P000000000000000000000000000000000000000N                              
5300075401428634ISENTO        20250530MG551  0008595102P000000000000000000000000000000000000000N                              
5300008850058640ISENTO        20250530MG551  0008605405P000000000000000000000000000000000000000N                              
5300008850058640ISENTO        20250530MG551  0008605102P000000000000000000000000000000000000000N                              
5300005535736678ISENTO        20250530MG551  0008615405P000000000000000000000000000000000000000N                              
5300005535736678ISENTO        20250530MG551  0008615102P000000000000000000000000000000000000000N                              
5300018711847620ISENTO        20250530MG551  0008625656P000000000000000000000000000000000000000N                              
5300018711847620ISENTO        20250530MG551  0008625405P000000000000000000000000000000000000000N                              
5300018711847620ISENTO        20250530MG551  0008625102P000000000000000000000000000000000000000N                              
5300087526360620ISENTO        20250530MG551  0008635405P000000000000000000000000000000000000000N                              
5300087526360620ISENTO        20250530MG551  0008635656P000000000000000000000000000000000000000N                              
5300087526360620ISENTO        20250530MG551  0008635102P000000000000000000000000000000000000000N                              
5300090981138691ISENTO        20250530MG551  0008645405P000000000000000000000000000000000000000N                              
5300090981138691ISENTO        20250530MG551  0008645102P000000000000000000000000000000000000000N                              
5300023018518691ISENTO        20250530MG551  0008655405P000000000000000000000000000000000000000N                              
5300040085678600ISENTO        20250530MG551  0008665405P000000000000000000000000000000000000000N                              
5300045416249668ISENTO        20250530MG551  0008675405P000000000000000000000000000000000000000N                              
5300045416249668ISENTO        20250530MG551  0008675102P000000000000000000000000000000000000000N                              
5300007014083678ISENTO        20250530MG551  0008685656P000000000000000000000000000000000000000N                              
5300007014083678ISENTO        20250530MG551  0008685405P000000000000000000000000000000000000000N                              
5300007014083678ISENTO        20250530MG551  0008685102P000000000000000000000000000000000000000N                              
5300003309050661ISENTO        20250530MG551  0008695405P000000000000000000000000000000000000000N                              
5300003309050661ISENTO        20250530MG551  0008695656P000000000000000000000000000000000000000N                              
5300071001352653ISENTO        20250530MG551  0008705405P000000000000000000000000000000000000000N                              
5300000524234680ISENTO        20250530MG551  0008715405P000000000000000000000000000000000000000N                              
53215322700001130624775200061 20250507MG551  0121761403T000000000000000000000000000000000000000N                              
53215322700001130624775200061 20250528MG551  0124401403T000000000000000000000000000000000000000N                              
53215322700001130624775200061 20250521MG551  0123521403T000000000000000000000000000000000000000N                              
53215322700001130624775200061 20250516MG551  0122831403T000000000000000000000000000000000000000N                              
5400000498426688551  0008245405500001633           000000030000000000174000000000000000000000000000000000000000000000000000000
5400000498426688551  00082454055000021780          000000010000000000035000000000000000000000000000000000000000000000000000000
5400000498426688551  00082454055000031443          000000010000000000116000000000000000000000000000000000000000000000000000000
5400000498426688551  00082451021020041459          000000010000000000035000000000000000000000000000000000000000000000000000000
5400000524234680551  0008175405500001683           000000010000000000069000000000000000000000000000000000000000000000000000000
5400000524234680551  00087154055000011197          000000010000000000124000000000000000000000000000000000000000000000000000000
5400000524234680551  00087154055000021867          000000010000000000075000000000000000000000000000000000000000000000000000000
5400000524234680551  00087154055000031685          000000010000000000124000000000000000000000000000000000000000000000000000000
5400000524234680551  0008715405500004760           000000010000000000128000000000000000000000000000000000000000000000000000000
5400000650928644551  0008345405500001855           000000040000000000192000000000000000000000000000000000000000000000000000000
5400000650928644551  00083454055000021563          000000010000000000030000000000000000000000000000000000000000000000000000000
5400000650928644551  00083454055000031808          000000010000000000035000000000000000000000000000000000000000000000000000000
5400000650928644551  0008345102102004972           000000010000000000005000000000000000000000000000000000000000000000000000000
5400000650928644551  0008345405500005524           000000010000000000068000000000000000000000000000000000000000000000000000000
5400001223160610551  00083754055000011872          000000010000000000169000000000000000000000000000000000000000000000000000000
5400001223160610551  00083754055000021271          000000010000000000019000000000000000000000000000000000000000000000000000000
5400001223160610551  00083754055000031859          000000010000000000094000000000000000000000000000000000000000000000000000000
5400001223160610551  00083754055000041857          000000010000000000039000000000000000000000000000000000000000000000000000000
5400001223160610551  00083754055000051858          000000010000000000098000000000000000000000000000000000000000000000000000000
5400001340790602551  0008215405500001855           000000040000000000184000000000000000000000000000000000000000000000000000000
5400001340790602551  00082154055000021781          000000010000000000028000000000000000000000000000000000000000000000000000000
5400001445585642551  0008475656500001887           000000050000000000220000000000000000000000000000000000000000000000000000000
5400001445585642551  00084754055000021053          000000010000000000035000000000000000000000000000000000000000000000000000000
5400001445585642551  0008475405500003666           000000010000000000069000000000000000000000000000000000000000000000000000000
5400001445585642551  0008475102102004972           000000010000000000016000000000000000000000000000000000000000000000000000000
5400001447193636551  0008425656500001887           000000040000000000176000000000000000000000000000000000000000000000000000000
5400001447193636551  00084254055000021781          000000010000000000028000000000000000000000000000000000000000000000000000000
5400001447193636551  00084254055000031833          000000010000000000048000000000000000000000000000000000000000000000000000000
5400001528954696551  0008145405500001855           000000050000000000220000000000000000000000000000000000000000000000000000000
5400001528954696551  00081454055000021053          000000010000000000036000000000000000000000000000000000000000000000000000000
5400001528954696551  0008145405500003992           000000010000000000069000000000000000000000000000000000000000000000000000000
5400001528954696551  0008145102102004972           000000010000000000016000000000000000000000000000000000000000000000000000000
5400001528954696551  00081451021020051459          000000010000000000035000000000000000000000000000000000000000000000000000000
5400003003617699551  0008235656500001887           000000040000000000176000000000000000000000000000000000000000000000000000000
5400003003617699551  00082354055000021781          000000010000000000028000000000000000000000000000000000000000000000000000000
5400003003617699551  00082354055000031808          000000010000000000046000000000000000000000000000000000000000000000000000000
5400003309050661551  00086954055000011606          000000020000000000356000000000000000000000000000000000000000000000000000000
5400003309050661551  0008695405500002765           000000020000000000772000000000000000000000000000000000000000000000000000000
5400003309050661551  00086956565000031260          000000030000000000132000000000000000000000000000000000000000000000000000000
5400003309050661551  00086954055000041636          000000010000000000039000000000000000000000000000000000000000000000000000000
5400004116831603551  0008545405500001855           000000040000000000184000000000000000000000000000000000000000000000000000000
5400004370199697551  0008515405500001915           000000035000000000154000000000000000000000000000000000000000000000000000000
5400004370199697551  00085154055000021563          000000010000000000035000000000000000000000000000000000000000000000000000000
5400004370199697551  00085154055000031808          000000010000000000052000000000000000000000000000000000000000000000000000000
5400004370199697551  00085151021020041459          000000010000000000035000000000000000000000000000000000000000000000000000000
5400004641134669551  0008225405500001772           000000040000000000944000000000000000000000000000000000000000000000000000000
5400004641134669551  0008225405500002664           000000040000000000112000000000000000000000000000000000000000000000000000000
5400005135147675551  0008535405500001633           000000035000000000203000000000000000000000000000000000000000000000000000000
5400005135147675551  00085354055000021780          000000010000000000036000000000000000000000000000000000000000000000000000000
5400005135147675551  0008535405500003992           000000010000000000059000000000000000000000000000000000000000000000000000000
5400005135147675551  00085351021020041459          000000010000000000035000000000000000000000000000000000000000000000000000000
5400005307439652551  00082554055000011002          000000010000000000174000000000000000000000000000000000000000000000000000000
5400005307439652551  0008255405500002814           000000010000000000066000000000000000000000000000000000000000000000000000000
5400005307439652551  0008255405500003619           000000010000000000089000000000000000000000000000000000000000000000000000000
5400005307439652551  0008255405500004578           000000010000000000058000000000000000000000000000000000000000000000000000000
5400005307439652551  0008255405500005759           000000010000000000116000000000000000000000000000000000000000000000000000000
5400005307439652551  0008255405500006916           000000035000000000140000000000000000000000000000000000000000000000000000000
5400005307439652551  00082554055000071572          000000010000000000028000000000000000000000000000000000000000000000000000000
5400005307439652551  00082554055000081830          000000010000000000019000000000000000000000000000000000000000000000000000000
5400005307439652551  00082551021020091660          000000030000000000021000000000000000000000000000000000000000000000000000000
5400005307439652551  00082551021020101459          000000010000000000035000000000000000000000000000000000000000000000000000000
5400005535736678551  00086154055000011579          000000030000000002265000000000000000000000000000000000000000000000000000000
5400005535736678551  0008615405500002855           000000045000000000243000000000000000000000000000000000000000000000000000000
5400005535736678551  00086154055000031782          000000010000000000035000000000000000000000000000000000000000000000000000000
5400005535736678551  0008615405500004746           000000010000000000059000000000000000000000000000000000000000000000000000000
5400005535736678551  00086154055000051244          000000030000000000444000000000000000000000000000000000000000000000000000000
5400005535736678551  0008615102102006972           000000010000000000016000000000000000000000000000000000000000000000000000000
5400005691927655551  0008165405500001828           000000010000000000148000000000000000000000000000000000000000000000000000000
5400005885341613551  0008355405500001915           000000030000000000132000000000000000000000000000000000000000000000000000000
5400005885341613551  0008355405500002882           000000010000000000030000000000000000000000000000000000000000000000000000000
5400005885341613551  00083554055000031167          000000010000000000032000000000000000000000000000000000000000000000000000000
5400005885341613551  0008355102102004972           000000010000000000005000000000000000000000000000000000000000000000000000000
5400006008371658551  00082654055000011564          000000010000000000225000000000000000000000000000000000000000000000000000000
5400006008371658551  00082654055000021870          000000010000000000046000000000000000000000000000000000000000000000000000000
5400006008371658551  00082654055000031869          000000010000000000104000000000000000000000000000000000000000000000000000000
5400006008371658551  0008265405500004710           000000010000000000106000000000000000000000000000000000000000000000000000000
5400006008371658551  00082654055000051867          000000010000000000075000000000000000000000000000000000000000000000000000000
5400006008371658551  00082654055000061781          000000010000000000028000000000000000000000000000000000000000000000000000000
5400006008371658551  00082654055000071471          000000010000000000019000000000000000000000000000000000000000000000000000000
5400006008371658551  00082654055000081530          000000040000000000096000000000000000000000000000000000000000000000000000000
5400006008371658551  00082651021020091459          000000010000000000035000000000000000000000000000000000000000000000000000000
5400006008371658551  0008265405500010895           000000020000000000112000000000000000000000000000000000000000000000000000000
5400006008371658551  00082654055000111197          000000010000000000124000000000000000000000000000000000000000000000000000000
5400006329909610551  00085056565000011260          000000030000000000132000000000000000000000000000000000000000000000000000000
5400006329909610551  00085054055000021542          000000010000000000035000000000000000000000000000000000000000000000000000000
5400006329909610551  00085054055000031268          000000010000000000045000000000000000000000000000000000000000000000000000000
5400007004330664551  0008455405500001504           000000020000000000044000000000000000000000000000000000000000000000000000000
5400007004330664551  0008455405500002723           000000020000000000108000000000000000000000000000000000000000000000000000000
5400007014083678551  00086856565000011260          000000045000000000198000000000000000000000000000000000000000000000000000000
5400007014083678551  00086854055000021782          000000010000000000036000000000000000000000000000000000000000000000000000000
5400007014083678551  00086854055000031706          000000010000000000055000000000000000000000000000000000000000000000000000000
5400007014083678551  0008685102102004972           000000010000000000005000000000000000000000000000000000000000000000000000000
5400007224685631551  0008205656500001887           000000040000000000176000000000000000000000000000000000000000000000000000000
5400007224685631551  00082054055000021572          000000010000000000035000000000000000000000000000000000000000000000000000000
5400007224685631551  0008205405500003655           000000010000000000036000000000000000000000000000000000000000000000000000000
5400007224685631551  0008205102102004972           000000010000000000016000000000000000000000000000000000000000000000000000000
5400008352968653551  0008315405500001855           000000040000000000192000000000000000000000000000000000000000000000000000000
5400008352968653551  00083154055000021563          000000010000000000030000000000000000000000000000000000000000000000000000000
5400008352968653551  0008315405500003857           000000010000000000035000000000000000000000000000000000000000000000000000000
5400008352968653551  00083154055000041252          000000010000000000029000000000000000000000000000000000000000000000000000000
5400008352968653551  0008315102102005972           000000010000000000005000000000000000000000000000000000000000000000000000000
5400008352968653551  00083151021020061459          000000010000000000035000000000000000000000000000000000000000000000000000000
5400008527855690551  00085554055000011262          000000010000000000159000000000000000000000000000000000000000000000000000000
5400008850058640551  0008605405500001855           000000040000000000192000000000000000000000000000000000000000000000000000000
5400008850058640551  00086054055000021782          000000010000000000038000000000000000000000000000000000000000000000000000000
5400008850058640551  0008605102102003972           000000010000000000016000000000000000000000000000000000000000000000000000000
5400008850058640551  00086051021020041459          000000010000000000035000000000000000000000000000000000000000000000000000000
5400008850058640551  00086054055000051511          000000010000000000142000000000000000000000000000000000000000000000000000000
5400009763555663551  0008275102102001972           000000010000000000016000000000000000000000000000000000000000000000000000000
5400010380984679551  00081954055000011407          000000010000000000479000000000000000000000000000000000000000000000000000000
5400011923192655551  00083954055000011423          000000020000000000242000000000000000000000000000000000000000000000000000000
5400011923192655551  00083954055000021856          000000010000000000218000000000000000000000000000000000000000000000000000000
5400012355743690551  0008155405500001801           000000010000000000049000000000000000000000000000000000000000000000000000000
5400012355743690551  00081554055000021404          000000010000000000064000000000000000000000000000000000000000000000000000000
5400015613569649551  0008305405500001915           000000030000000000132000000000000000000000000000000000000000000000000000000
5400015613569649551  00083054055000021793          000000010000000000029000000000000000000000000000000000000000000000000000000
5400015613569649551  0008305405500003790           000000010000000000044000000000000000000000000000000000000000000000000000000
5400015613569649551  00083051021020041459          000000010000000000035000000000000000000000000000000000000000000000000000000
5400016338952620551  0008185656500001886           000000045000000000207000000000000000000000000000000000000000000000000000000
5400016338952620551  00081854055000021563          000000010000000000030000000000000000000000000000000000000000000000000000000
5400016338952620551  00081854055000031494          000000010000000000048000000000000000000000000000000000000000000000000000000
5400016338952620551  0008185102102004972           000000010000000000016000000000000000000000000000000000000000000000000000000
5400018711847620551  0008415405500001578           000000010000000000059000000000000000000000000000000000000000000000000000000
5400018711847620551  00084154055000021216          000000010000000000135000000000000000000000000000000000000000000000000000000
5400018711847620551  00084154055000031853          000000010000000000106000000000000000000000000000000000000000000000000000000
5400018711847620551  00084154055000041068          000000040000000000088000000000000000000000000000000000000000000000000000000
5400018711847620551  00084154055000051021          000000010000000000035000000000000000000000000000000000000000000000000000000
5400018711847620551  00084154055000061628          000000010000000000378000000000000000000000000000000000000000000000000000000
5400018711847620551  0008415405500007789           000000010000000000189000000000000000000000000000000000000000000000000000000
5400018711847620551  0008625656500001887           000000040000000000176000000000000000000000000000000000000000000000000000000
5400018711847620551  00086254055000021572          000000010000000000029000000000000000000000000000000000000000000000000000000
5400018711847620551  0008625102102003972           000000010000000000005000000000000000000000000000000000000000000000000000000
5400018711847620551  0008625405500004790           000000010000000000044000000000000000000000000000000000000000000000000000000
5421532270000113551  0121761403060001801           000000020000000000065800000000000000000000000000000000005370000000000000000
5421532270000113551  01217614030600021830          000000020000000000023560000000000000000000000000000000002490000000000000000
5421532270000113551  01217614030600031831          000000020000000000028440000000000000000000000000000000003130000000000000000
5421532270000113551  0121761403060004736           000000030000000000065790000000000000000000000000000000007770000000000000000
5421532270000113551  01217614030600051812          000000010000000000049140000000000000000000000000000000006610000000000000000
5421532270000113551  0121761403060006794           000000020000000000062540000000000000000000000000000000008100000000000000000
5421532270000113551  01217614030600071832          000000010000000000047110000000000000000000000000000000003720000000000000000
5421532270000113551  01217614030600081833          000000010000000000036550000000000000000000000000000000000000000000000000000
5421532270000113551  01217614030600091058          000000010000000000037370000000000000000000000000000000005850000000000000000
5421532270000113551  01217614030600101834          000000010000000000039400000000000000000000000000000000000000000000000000000
5421532270000113551  01217614030600111835          000000010000000000116970000000000000000000000000000000013830000000000000000
5421532270000113551  0121761403060012738           000000010000000000080420000000000000000000000000000000008870000000000000000
5421532270000113551  01217614030600131836          000000010000000000216880000000000000000000000000000000025470000000000000000
5421532270000113551  01217614030600141837          000000020000000000161640000000000000000000000000000000021570000000000000000
5421532270000113551  0121761403060015994           000000010000000000039800000000000000000000000000000000005400000000000000000
5421532270000113551  01217614030600161262          000000010000000000124280000000000000000000000000000000015940000000000000000
5421532270000113551  01217614030600171838          000000010000000000030460000000000000000000000000000000003440000000000000000
5421532270000113551  01217614030600181812          000000010000000000049140000000000000000000000000000000006610000000000000000
5421532270000113551  0121761403060019744           000000010000000000063360000000000000000000000000000000000000000000000000000
5421532270000113551  0121761403060020745           000000010000000000032090000000000000000000000000000000003090000000000000000
5421532270000113551  01217614030600211839          000000010000000000216880000000000000000000000000000000017970000000000000000
5421532270000113551  0121761403060022721           000000010000000000018680000000000000000000000000000000001840000000000000000
5421532270000113551  01217614030600231840          000000010000000000085290000000000000000000000000000000010170000000000000000
5421532270000113551  0121761403060024642           000000010000000000074730000000000000000000000000000000008790000000000000000
5421532270000113551  0121761403060025525           000000010000000000051990000000000000000000000000000000006440000000000000000
5421532270000113551  01217614030600261841          000000010000000000023960000000000000000000000000000000002710000000000000000
5421532270000113551  01217614030600271684          000000010000000000046300000000000000000000000000000000000000000000000000000
5421532270000113551  0121761403060028750           000000010000000000174640000000000000000000000000000000024330000000000000000
5421532270000113551  0121761403060029515           000000040000000000084480000000000000000000000000000000009690000000000000000
5421532270000113551  01217614030600301842          000000010000000000056050000000000000000000000000000000004680000000000000000
5421532270000113551  01228314030600011865          000000010000000000349290000000000000000000000000000000061040000000000000000
5421532270000113551  0122831403060002683           000000010000000000045490000000000000000000000000000000002950000000000000000
5421532270000113551  0122831403060003759           000000010000000000076360000000000000000000000000000000008490000000000000000
5421532270000113551  0122831403060004578           000000010000000000040610000000000000000000000000000000006790000000000000000
5421532270000113551  01228314030600051002          000000010000000000105190000000000000000000000000000000012870000000000000000
5421532270000113551  0122831403060006814           000000010000000000048330000000000000000000000000000000000000000000000000000
5421532270000113551  0122831403060007604           000000010000000000109660000000000000000000000000000000014780000000000000000
5421532270000113551  0122831403060008619           000000010000000000064900000000000000000000000000000000000000000000000000000
5421532270000113551  0122831403060009828           000000010000000000109660000000000000000000000000000000000000000000000000000
5421532270000113551  01228314030600101866          000000040000000000739200000000000000000000000000000000083550000000000000000
5421532270000113551  0122831403060011664           000000040000000000090960000000000000000000000000000000011510000000000000000
5421532270000113551  0122831403060012846           000000010000000000053610000000000000000000000000000000007050000000000000000
5421532270000113551  0122831403060013579           000000010000000000052800000000000000000000000000000000000050000000000000000
5421532270000113551  01228314030600141867          000000010000000000056050000000000000000000000000000000009270000000000000000
5421532270000113551  01228314030600151868          000000010000000000131590000000000000000000000000000000014270000000000000000
5421532270000113551  01228314030600161869          000000010000000000077980000000000000000000000000000000008650000000000000000
5421532270000113551  01228314030600171870          000000010000000000030870000000000000000000000000000000001170000000000000000
5421532270000113551  0122831403060018710           000000010000000000077980000000000000000000000000000000000000000000000000000
5421532270000113551  0122831403060019784           000000010000000000215260000000000000000000000000000000031080000000000000000
5421532270000113551  01228314030600201871          000000010000000000056050000000000000000000000000000000005740000000000000000
5421532270000113551  01228314030600211443          000000010000000000080420000000000000000000000000000000000000000000000000000
5421532270000113551  01228314030600221021          000000010000000000025180000000000000000000000000000000002250000000000000000
5421532270000113551  01228314030600231068          000000040000000000060120000000000000000000000000000000002520000000000000000
5421532270000113551  0122831403060024895           000000020000000000082860000000000000000000000000000000009680000000000000000
5421532270000113551  01228314030600251197          000000010000000000093410000000000000000000000000000000009950000000000000000
5421532270000113551  01228314030600261271          000000010000000000012590000000000000000000000000000000000690000000000000000
5421532270000113551  01228314030600271872          000000010000000000126720000000000000000000000000000000000000000000000000000
5421532270000113551  01228314030600281873          000000010000000000333040000000000000000000000000000000000000000000000000000
5421532270000113551  0122831403060029543           000000010000000000052800000000000000000000000000000000006980000000000000000
5421532270000113551  01228314030600301874          000000010000000000021120000000000000000000000000000000002260000000000000000
5421532270000113551  0122831403060031954           000000010000000000082850000000000000000000000000000000006030000000000000000
5421532270000113551  0122831403060032955           000000010000000000082850000000000000000000000000000000006030000000000000000
5421532270000113551  01235214030600011856          000000010000000000161650000000000000000000000000000000019360000000000000000
5421532270000113551  01235214030600021579          000000030000000001827660000000000000000000000000000000089060000000000000000
5421532270000113551  0123521403060003524           000000010000000000047110000000000000000000000000000000005720000000000000000
5421532270000113551  0123521403060004759           000000010000000000076360000000000000000000000000000000008540000000000000000
5421532270000113551  0123521403060005578           000000010000000000040610000000000000000000000000000000006790000000000000000
5421532270000113551  01235214030600061857          000000010000000000025990000000000000000000000000000000001460000000000000000
5421532270000113551  01235214030600071858          000000010000000000069050000000000000000000000000000000008660000000000000000
5421532270000113551  01235214030600081859          000000010000000000069050000000000000000000000000000000006010000000000000000
5421532270000113551  01235214030600091167          000000010000000000014620000000000000000000000000000000001540000000000000000
5421532270000113551  0123521403060010882           000000010000000000017870000000000000000000000000000000002850000000000000000
5421532270000113551  01235214030600111262          000000010000000000124280000000000000000000000000000000015940000000000000000
5421532270000113551  01235214030600121423          000000010000000000085290000000000000000000000000000000010190000000000000000
5421532270000113551  01235214030600131860          000000010000000000085290000000000000000000000000000000010840000000000000000
5421532270000113551  01235214030600141628          000000010000000000282680000000000000000000000000000000031790000000000000000
5421532270000113551  0123521403060015789           000000010000000000144590000000000000000000000000000000010970000000000000000
5421532270000113551  0123521403060016763           000000020000000000075540000000000000000000000000000000012510000000000000000
5421532270000113551  01235214030600171021          000000010000000000025180000000000000000000000000000000002250000000000000000
5421532270000113551  01235214030600181068          000000040000000000060120000000000000000000000000000000002520000000000000000
5421532270000113551  01235214030600191432          000000020000000000308680000000000000000000000000000000037850000000000000000
5421532270000113551  01235214030600201861          000000020000000000086100000000000000000000000000000000000000000000000000000
5421532270000113551  0123521403060021547           000000020000000000177080000000000000000000000000000000023040000000000000000
5421532270000113551  0123521403060022548           000000010000000000104790000000000000000000000000000000014590000000000000000
5421532270000113551  01235214030600231224          000000030000000000051180000000000000000000000000000000004980000000000000000
5421532270000113551  01235214030600241862          000000030000000000107220000000000000000000000000000000000000000000000000000
5421532270000113551  01235214030600251598          000000020000000000068240000000000000000000000000000000007500000000000000000
5421532270000113551  0123521403060026528           000000020000000000102340000000000000000000000000000000010400000000000000000
5421532270000113551  01235214030600271863          000000020000000000372040000000000000000000000000000000000000000000000000000
5421532270000113551  01235214030600281864          000000010000000000103970000000000000000000000000000000000000000000000000000
5421532270000113551  01235214030600291244          000000030000000000338730000000000000000000000000000000046130000000000000000
5421532270000113551  0123521403060030723           000000020000000000077660000000000000000000000000000000005570000000000000000
5421532270000113551  0124401403060001583           000000010000000000040610000000000000000000000000000000000000000000000000000
5421532270000113551  01244014030600021262          000000010000000000124280000000000000000000000000000000015940000000000000000
5421532270000113551  0124401403060003794           000000010000000000031270000000000000000000000000000000003900000000000000000
5421532270000113551  01244014030600041146          000000010000000000064580000000000000000000000000000000004690000000000000000
5421532270000113551  0124401403060005954           000000010000000000082850000000000000000000000000000000006030000000000000000
5421532270000113551  0124401403060006955           000000010000000000082850000000000000000000000000000000006030000000000000000
5421532270000113551  01244014030600071511          000000010000000000092600000000000000000000000000000000012720000000000000000
5421532270000113551  01244014030600081843          000000010000000000079610000000000000000000000000000000005240000000000000000
5421532270000113551  01244014030600091346          000000010000000000242880000000000000000000000000000000000000000000000000000
5421532270000113551  0124401403060010736           000000030000000000067020000000000000000000000000000000007770000000000000000
5421532270000113551  01244014030600111782          000000020000000000041420000000000000000000000000000000006940000000000000000
5421532270000113551  01244014030600121484          000000010000000000069050000000000000000000000000000000005420000000000000000
5421532270000113551  01244014030600131844          000000010000000000052800000000000000000000000000000000005720000000000000000
5421532270000113551  01244014030600141318          000000010000000000006500000000000000000000000000000000000200000000000000000
5421532270000113551  01244014030600151845          000000010000000000090980000000000000000000000000000000010860000000000000000
5421532270000113551  01244014030600161846          000000010000000000080420000000000000000000000000000000004500000000000000000
5421532270000113551  01244014030600171847          000000010000000000182770000000000000000000000000000000000000000000000000000
5421532270000113551  01244014030600181254          000000010000000000054420000000000000000000000000000000006150000000000000000
5421532270000113551  01244014030600191572          000000060000000000075540000000000000000000000000000000011220000000000000000
5421532270000113551  0124401403060020746           000000010000000000036150000000000000000000000000000000003860000000000000000
5421532270000113551  01244014030600211848          000000100000000000028400000000000000000000000000000000000000000000000000000
5421532270000113551  01244014030600221849          000000020000000000253440000000000000000000000000000000032370000000000000000
5421532270000113551  01244014030600231850          000000010000000000137280000000000000000000000000000000015850000000000000000
5421532270000113551  01244014030600241851          000000010000000000113720000000000000000000000000000000017130000000000000000
5421532270000113551  0124401403060025780           000000010000000000013400000000000000000000000000000000001530000000000000000
5421532270000113551  0124401403060026718           000000010000000000353350000000000000000000000000000000043200000000000000000
5421532270000113551  01244014030600271525          000000040000000000100720000000000000000000000000000000012290000000000000000
5421532270000113551  0124401403060028765           000000020000000000566980000000000000000000000000000000059600000000000000000
5421532270000113551  01244014030600291606          000000020000000000268060000000000000000000000000000000028940000000000000000
5421532270000113551  01244014030600301852          000000020000000000159220000000000000000000000000000000012020000000000000000
5421532270000113551  01244014030600311853          000000010000000000081150000000000000000000000000000000009940000000000000000
5421532270000113551  0124401403060032578           000000010000000000040610000000000000000000000000000000007060000000000000000
5421532270000113551  0124401403060033619           000000010000000000064900000000000000000000000000000000000000000000000000000
5421532270000113551  01244014030600341854          000000010000000000062550000000000000000000000000000000006360000000000000000
5421532270000113551  01244014030600351252          000000010000000000020310000000000000000000000000000000002260000000000000000
5421532270000113551  0124401403060036724           000000010000000000341170000000000000000000000000000000041560000000000000000
5421532270000113551  0124401403060037725           000000010000000000341170000000000000000000000000000000041180000000000000000
5421532270000113551  01244014030600381855          000000020000000000061740000000000000000000000000000000004730000000000000000
5421532270000113551  01244014030600391463          000000010000000000031680000000000000000000000000000000003420000000000000000
5421532270000113551  0124401403060040729           000000020000000000273740000000000000000000000000000000028760000000000000000
5421532270000113551  0124401403060041741           000000020000000000139720000000000000000000000000000000016040000000000000000
5421532270000113551  01244014030600421824          000000010000000000072290000000000000000000000000000000008230000000000000000
5400022228209600551  00084854055000011646          000000020000000000504000000000000000000000000000000000000000000000000000000
5400022228209600551  0008485405500002901           000000010000000000149000000000000000000000000000000000000000000000000000000
5400022951350600551  00085854055000011793          000000010000000000029000000000000000000000000000000000000000000000000000000
5400022951350600551  00085854055000021831          000000010000000000019000000000000000000000000000000000000000000000000000000
5400022951350600551  0008585102102003972           000000010000000000006000000000000000000000000000000000000000000000000000000
5400022951350600551  00085854055000041755          000000010000000000012000000000000000000000000000000000000000000000000000000
5400023018518691551  0008655405500001915           000000035000000000154000000000000000000000000000000000000000000000000000000
5400023018518691551  00086554055000021765          000000010000000000035000000000000000000000000000000000000000000000000000000
5400023018518691551  0008655405500003746           000000010000000000058000000000000000000000000000000000000000000000000000000
5400025594702687551  0008525405500001855           000000040000000000184000000000000000000000000000000000000000000000000000000
5400025594702687551  00085254055000021782          000000010000000000030000000000000000000000000000000000000000000000000000000
5400025594702687551  0008525405500003736           000000010000000000035000000000000000000000000000000000000000000000000000000
5400025594702687551  0008525102102004972           000000010000000000005000000000000000000000000000000000000000000000000000000
5400025594702687551  00085251021020051459          000000010000000000035000000000000000000000000000000000000000000000000000000
5400027533425634551  0008435405500001548           000000010000000000139000000000000000000000000000000000000000000000000000000
5400027533425634551  0008435405500002633           000000040000000000232000000000000000000000000000000000000000000000000000000
5400027533425634551  00084354055000031572          000000010000000000028000000000000000000000000000000000000000000000000000000
5400027533425634551  0008435405500004746           000000010000000000046000000000000000000000000000000000000000000000000000000
5400027533425634551  0008435102102005972           000000010000000000016000000000000000000000000000000000000000000000000000000
5400039099261691551  00082954055000011685          000000010000000000132000000000000000000000000000000000000000000000000000000
5400039099261691551  00082954055000021578          000000010000000000124000000000000000000000000000000000000000000000000000000
5400039099261691551  00082954055000031600          000000010000000000086000000000000000000000000000000000000000000000000000000
5400039099261691551  00082954055000041601          000000010000000000116000000000000000000000000000000000000000000000000000000
5400039099261691551  0008295405500005865           000000020000000000252000000000000000000000000000000000000000000000000000000
5400039099261691551  00082954055000061696          000000010000000000072000000000000000000000000000000000000000000000000000000
5400039099261691551  0008295405500007790           000000010000000000044000000000000000000000000000000000000000000000000000000
5400040085678600551  0008665405500001633           000000035000000000203000000000000000000000000000000000000000000000000000000
5400040085678600551  00086654055000021780          000000010000000000035000000000000000000000000000000000000000000000000000000
5400040085678600551  00086654055000031808          000000010000000000058000000000000000000000000000000000000000000000000000000
5400044692153687551  0008445405500001633           000000040000000000232000000000000000000000000000000000000000000000000000000
5400044692153687551  00084454055000021781          000000010000000000029000000000000000000000000000000000000000000000000000000
5400044692153687551  00084454055000031674          000000010000000000082000000000000000000000000000000000000000000000000000000
5400045416249668551  0008675405500001855           000000045000000000207000000000000000000000000000000000000000000000000000000
5400045416249668551  00086754055000021782          000000010000000000035000000000000000000000000000000000000000000000000000000
5400045416249668551  00086754055000031833          000000010000000000042000000000000000000000000000000000000000000000000000000
5400045416249668551  0008675405500004863           000000010000000000525000000000000000000000000000000000000000000000000000000
5400045416249668551  0008675102102005972           000000010000000000016000000000000000000000000000000000000000000000000000000
5400045416249668551  0008675405500006509           000000020000000000068000000000000000000000000000000000000000000000000000000
5400045416249668551  00086754055000071252          000000010000000000029000000000000000000000000000000000000000000000000000000
5400045416249668551  00086751021020081719          000000010000000000008000000000000000000000000000000000000000000000000000000
5400054123038620551  00083654055000011262          000000010000000000178000000000000000000000000000000000000000000000000000000
5400055978606668551  00083354055000011565          000000035000000000154000000000000000000000000000000000000000000000000000000
5400055978606668551  00083354055000021563          000000010000000000030000000000000000000000000000000000000000000000000000000
5400055978606668551  0008335102102003972           000000010000000000005000000000000000000000000000000000000000000000000000000
5400059332085668551  0008575405500001855           000000040000000000184000000000000000000000000000000000000000000000000000000
5400059332085668551  00085754055000021563          000000010000000000029000000000000000000000000000000000000000000000000000000
5400059332085668551  00085754055000031000          000000010000000000035000000000000000000000000000000000000000000000000000000
5400059332085668551  0008575102102004972           000000010000000000005000000000000000000000000000000000000000000000000000000
5400059332085668551  00085754055000051432          000000020000000000430000000000000000000000000000000000000000000000000000000
5400059332085668551  00085754055000061762          000000020000000000116000000000000000000000000000000000000000000000000000000
5400059332085668551  00085754055000071024          000000010000000000056000000000000000000000000000000000000000000000000000000
5400059332085668551  00085754055000081484          000000010000000000098000000000000000000000000000000000000000000000000000000
5400059332085668551  0008575405500009509           000000010000000000034000000000000000000000000000000000000000000000000000000
5400059332085668551  00085751021020101719          000000010000000000008000000000000000000000000000000000000000000000000000000
5465139743000192551  0008135405500001855           000000045000000000207000000000000000000000000000000000000000000000000000000
5465139743000192551  0008135405500002938           000000010000000000036000000000000000000000000000000000000000000000000000000
5465139743000192551  0008135102102003972           000000010000000000005000000000000000000000000000000000000000000000000000000
5400066352827691551  0008325405500001846           000000010000000000079000000000000000000000000000000000000000000000000000000
5400066352827691551  00083254055000021157          000000010000000000036000000000000000000000000000000000000000000000000000000
5400066352827691551  0008325405500003954           000000010000000000112000000000000000000000000000000000000000000000000000000
5400066352827691551  0008325405500004955           000000010000000000112000000000000000000000000000000000000000000000000000000
5400066352827691551  00083251021020051459          000000010000000000035000000000000000000000000000000000000000000000000000000
5400068516460649551  0008565405500001855           000000035000000000161000000000000000000000000000000000000000000000000000000
5400068516460649551  00085654055000021542          000000010000000000035000000000000000000000000000000000000000000000000000000
5400068516460649551  00085654055000031706          000000010000000000049000000000000000000000000000000000000000000000000000000
5400068516460649551  0008565102102004972           000000010000000000016000000000000000000000000000000000000000000000000000000
5400068516460649551  00085651021020051459          000000010000000000035000000000000000000000000000000000000000000000000000000
5400070234852607551  0008405656500001887           000000030000000000132000000000000000000000000000000000000000000000000000000
5400070234852607551  00084054055000021636          000000010000000000035000000000000000000000000000000000000000000000000000000
5400070234852607551  00084054055000031808          000000010000000000046000000000000000000000000000000000000000000000000000000
5400070234852607551  0008405102102004972           000000010000000000005000000000000000000000000000000000000000000000000000000
5400070234852607551  00084051021020051719          000000030000000000024000000000000000000000000000000000000000000000000000000
5400070234852607551  00084051021020061459          000000010000000000035000000000000000000000000000000000000000000000000000000
5400071001352653551  0008705405500001794           000000010000000000052000000000000000000000000000000000000000000000000000000
5400071302611615551  00084654055000011599          000000010000000000032000000000000000000000000000000000000000000000000000000
5400071302611615551  0008465405500002633           000000040000000000232000000000000000000000000000000000000000000000000000000
5400071302611615551  00084654055000031793          000000010000000000028000000000000000000000000000000000000000000000000000000
5400071302611615551  0008465405500004746           000000010000000000058000000000000000000000000000000000000000000000000000000
5400071302611615551  00084651021020051459          000000010000000000035000000000000000000000000000000000000000000000000000000
5400075401428634551  0008595405500001916           000000055000000000220000000000000000000000000000000000000000000000000000000
5400075401428634551  00085954055000021572          000000010000000000029000000000000000000000000000000000000000000000000000000
5400075401428634551  0008595102102003972           000000010000000000005000000000000000000000000000000000000000000000000000000
5400075401428634551  00085951021020041749          000000020000000000070000000000000000000000000000000000000000000000000000000
5400087526360620551  00086354055000011817          000000010000000000092000000000000000000000000000000000000000000000000000000
5400087526360620551  00086354055000021324          000000010000000000106000000000000000000000000000000000000000000000000000000
5400087526360620551  00086354055000031325          000000020000000000150000000000000000000000000000000000000000000000000000000
5400087526360620551  00086354055000041523          000000010000000000167000000000000000000000000000000000000000000000000000000
5400087526360620551  00086354055000051818          000000010000000000276000000000000000000000000000000000000000000000000000000
5400087526360620551  00086354055000061819          000000020000000000134000000000000000000000000000000000000000000000000000000
5400087526360620551  0008635405500007509           000000020000000000068000000000000000000000000000000000000000000000000000000
5400087526360620551  00086354055000081816          000000020000000000468000000000000000000000000000000000000000000000000000000
5400087526360620551  00086354055000091328          000000020000000000898000000000000000000000000000000000000000000000000000000
5400087526360620551  0008635405500010739           000000010000000000078000000000000000000000000000000000000000000000000000000
5400087526360620551  0008635405500011729           000000020000000000358000000000000000000000000000000000000000000000000000000
5400087526360620551  00086354055000121824          000000010000000000096000000000000000000000000000000000000000000000000000000
5400087526360620551  00086354055000131836          000000010000000000283000000000000000000000000000000000000000000000000000000
5400087526360620551  0008635405500014738           000000010000000000119000000000000000000000000000000000000000000000000000000
5400087526360620551  00086356565000151260          000000045000000000198000000000000000000000000000000000000000000000000000000
5400087526360620551  00086354055000161572          000000010000000000028000000000000000000000000000000000000000000000000000000
5400087526360620551  0008635405500017746           000000010000000000048000000000000000000000000000000000000000000000000000000
5400087526360620551  0008635405500018923           000000020000000000048000000000000000000000000000000000000000000000000000000
5400087526360620551  00086351021020191719          000000020000000000016000000000000000000000000000000000000000000000000000000
5400087526360620551  00086351021020201660          000000020000000000014000000000000000000000000000000000000000000000000000000
5400087526360620551  00086351021020211459          000000010000000000035000000000000000000000000000000000000000000000000000000
5400088263452600551  0008385656500001887           000000035000000000154000000000000000000000000000000000000000000000000000000
5400088263452600551  00083854055000021782          000000010000000000035000000000000000000000000000000000000000000000000000000
5400088263452600551  00083854055000031441          000000010000000000048000000000000000000000000000000000000000000000000000000
5400088263452600551  0008385102102004972           000000010000000000005000000000000000000000000000000000000000000000000000000
5400090122836634551  00082854055000011873          000000010000000000485000000000000000000000000000000000000000000000000000000
5400090122836634551  00082854055000021871          000000010000000000082000000000000000000000000000000000000000000000000000000
5400090122836634551  0008285405500003780           000000010000000000029000000000000000000000000000000000000000000000000000000
5400090981138691551  0008645405500001927           000000010000000000249000000000000000000000000000000000000000000000000000000
5400090981138691551  00086454055000021274          000000010000000000112000000000000000000000000000000000000000000000000000000
5400090981138691551  00086454055000031254          000000010000000000084000000000000000000000000000000000000000000000000000000
5400090981138691551  0008645405500004915           000000040000000000176000000000000000000000000000000000000000000000000000000
5400090981138691551  00086454055000051793          000000010000000000029000000000000000000000000000000000000000000000000000000
5400090981138691551  0008645405500006624           000000010000000000052000000000000000000000000000000000000000000000000000000
5400090981138691551  00086451021020071459          000000010000000000035000000000000000000000000000000000000000000000000000000
5400091788927672551  0008495405500001633           000000040000000000232000000000000000000000000000000000000000000000000000000
5400091788927672551  00084954055000021793          000000010000000000029000000000000000000000000000000000000000000000000000000
5400091788927672551  00084951021020031721          000000010000000000030000000000000000000000000000000000000000000000000000000
5400091788927672551  00084951021020041719          000000020000000000020000000000000000000000000000000000000000000000000000000
7520250501202505311000          84219999LX3544-FILTRO AR                                     PC    000000000000000000000000000
7520250501202505311002          8484900079519-JUNTA CABECOTE SUPERIOR                        JG    000000000000000000000000000
7520250501202505311021          8484100084616-JUNTA COLETOR ESCAP/ADM                        PC    000000000000000000000000000
7520250501202505311024          68138190VW276-LONA FREIO                                     JG    000000000000000000000000000
7520250501202505311053          84219999WOE912                                               PC    000000000000000000000000000
7520250501202505311058          87083090ATE6013-CILINDRO RODA                                PC    000000000000000000000000000
7520250501202505311068          8409919011056093-SELO MOTOR                                  PC    000000000000000000000000000
7520250501202505311146          4009310090467442-MANGUEIRA BOCAL DO TANQUE                   PC    000000000000000000000000000
7520250501202505311157          87089990213129G-COIFA HOMOC                                  JG    000000000000000000000000000
7520250501202505311167          84213990CU23362-FILTRO ANTI POLEM                            PC    000000000000000000000000000
7520250501202505311197          8413309020143-BOMBA DAGUA                                    PC    000000000000000000000000000
7520250501202505311216          84835090VKM11107L-TENSOR CORREIA DENTADA                     PC    000000000000000000000000000
7520250501202505311224          84213990CU21003-FILTRO ANTI POLEM                            PC    000000000000000000000000000
7520250501202505311244          85111000IKER7A8DES-VELA IGNICAO                              PC    000000000000000000000000000
7520250501202505311252          84212300WK6133-FILTRO COMBUSTIVEL                            PC    000000000000000000000000000
7520250501202505311254          84835010NY1115-POLIA ALTERNADOR                              PC    000000000000000000000000000
7520250501202505311260          27101932RALOY SYNTH PLUS SAE 5W30 API SP - 24/1              LT    000000000000000000000000000
7520250501202505311262          87083019PD1438-PASTILHA FREIO                                JG    000000000000000000000000000
7520250501202505311268          84219999C340071-FILTRO AR                                    PC    000000000000000000000000000
7520250501202505311271          4016930093278411-ANEL DISTRIBUIDOR                           PC    000000000000000000000000000
7520250501202505311274          4016930055231652-ANEL VEDACAO                                PC    000000000000000000000000000
7520250501202505311318          84841000221418-JUNTA TAMPA                                   PC    000000000000000000000000000
7520250501202505311324          87083090ATE7630-CILINDRO RODA                                PC    000000000000000000000000000
7520250501202505311325          87088000SK325S-BATENTE AMORTECEDOR                           PC    000000000000000000000000000
7520250501202505311328          87088000SP040-AMORT SUSPENSAO DIANT                          PC    000000000000000000000000000
7520250501202505311346          87089990AL1226-TULIPA CAMBIO                                 PC    000000000000000000000000000
7520250501202505311404          87083019PD90-PASTILHA FREIO                                  JG    000000000000000000000000000
7520250501202505311407          90271000OZA723EE9-SONDA LAMBDA                               PC    000000000000000000000000000
7520250501202505311423          87088000503189-PIVO SUSPENSAO                                PC    000000000000000000000000000
7520250501202505311432          87088000379381SP-AMORT SUSPENSAO TRAS                        PC    000000000000000000000000000
7520250501202505311441          84219999C18584-FILTRO AR                                     PC    000000000000000000000000000
7520250501202505311443          87083019PD85-PASTILHA FREIO                                  JG    000000000000000000000000000
7520250501202505311459          38140090DESCARBONIZANTE PRO 300ML/230G                       UN    000000000000000000000000000
7520250501202505311463          84219999C301303-FILTRO AR                                    PC    000000000000000000000000000
7520250501202505311471          84219999ARL4150-FILTRO AR                                    PC    000000000000000000000000000
7520250501202505311484          870899905U0121407-RESERV AGUA RADIADOR                       PC    000000000000000000000000000
7520250501202505311494          84219999LX3703-FILTRO AR                                     PC    000000000000000000000000000
7520250501202505311511          87083019PD362-PASTILHA FREIO TRASEIRO                        JG    000000000000000000000000000
7520250501202505311523          87083090CB46CP-SAPATA FREIO C/ LONA COLADA                   JG    000000000000000000000000000
7520250501202505311525          85111000KER7A8DEG-VELA IGNICAO                               PC    000000000000000000000000000
7520250501202505311530          85111000BKR6E11-VELA IGNICAO                                 PC    000000000000000000000000000
7520250501202505311542          84212300W752-FILTRO OLEO MOTOR                               PC    000000000000000000000000000
7520250501202505311563          84212300W7125-FILTRO OLEO MOTOR                              PC    000000000000000000000000000
7520250501202505311564          8484900079179FLEX-JUNTA CABECOTE SUPERIOR                    JG    000000000000000000000000000
7520250501202505311565          271019325W40 FS540 SN-OLEO MOTOR                             LT    000000000000000000000000000
7520250501202505311572          84212300W7122-FILTRO OLEO MOTOR                              PC    000000000000000000000000000
7520250501202505311578          400932905U0121156-MANGUEIRA                                  PC    000000000000000000000000000
7520250501202505311579          840991900261500716-BICO INJETOR                              PC    000000000000000000000000000
7520250501202505311598          870880000441516-BATENTE BORRACHA SUPERIOR AMORT TRAS         PC    000000000000000000000000000
7520250501202505311599          84213990CU2545-FILTRO ANTI POLEM                             PC    000000000000000000000000000
7520250501202505311600          400931005U0121109B-MANGUEIRA                                 PC    000000000000000000000000000
7520250501202505311601          40093100762161-MANGUEIRA                                     PC    000000000000000000000000000
7520250501202505311606          87088000LT90201-KIT AMORTECEDOR DIANTEIRO                    PC    000000000000000000000000000
7520250501202505311628          87089990SK3164-COXIM MOTOR                                   PC    000000000000000000000000000
7520250501202505311636          84212300PSL134-FILTRO OLEO MOTOR                             PC    000000000000000000000000000
7520250501202505311646          87088000SK226BS-KIT AMORTECEDOR DIANTEIRO                    PC    000000000000000000000000000
7520250501202505311660          73269090ABRACADEIRA SEM FIM ZNB 32X50X12                     UN    000000000000000000000000000
7520250501202505311674          84219999C25654-FILTRO AR                                     PC    000000000000000000000000000
7520250501202505311684          87089990030109145AL-PROTETOR DE CORREIAS                     PC    000000000000000000000000000
7520250501202505311685          87089100MF420-RESERV AGUA RADIADOR                           PC    000000000000000000000000000
7520250501202505311696          40093100761713-MANGUEIRA                                     PC    000000000000000000000000000
7520250501202505311706          84219999C29015-FILTRO AR                                     PC    000000000000000000000000000
7520250501202505311719          85392910LAMPADA AUTOMOTIVA W5W 12V 5W                        UN    000000000000000000000000000
7520250501202505311721          85392910LAMPADA AUTOMOTIVA H4 12V 60/55W                     UN    000000000000000000000000000
7520250501202505311749          85129000PALHETA DE PARA-BRISA STANDARD 19 475MM              UN    000000000000000000000000000
7520250501202505311755          85392110LAMPADA BASE VIDRO 2 POLOS 12V 21 -5W                PC    000000000000000000000000000
7520250501202505311762          870880000442349-KIT AMORTECEDOR TRASEIRO                     JG    000000000000000000000000000
7520250501202505311765          84212300PSL818-FILTRO OLEO MOTOR                             PC    000000000000000000000000000
7520250501202505311780          84212300PSL56-FILTRO OLEO MOTOR                              PC    000000000000000000000000000
7520250501202505311781          84212300W6100-FILTRO OLEO MOTOR                              PC    000000000000000000000000000
7520250501202505311782          84212300W7128-FILTRO OLEO MOTOR                              PC    000000000000000000000000000
7520250501202505311793          84212300W6MULTI20-FILTRO OLEO MOTOR                          PC    000000000000000000000000000
