10336213140001600034450680073 CRISTINA ISABEL DE CAMPOS          Belo Horizonte                MG31999760132024040120240430331
11Rua Caconde                       00875                      Renascença     31130510VINICIUS MURTA NERY         031934225098
5000080097227668ISENTO        20240402MG551  0001165405P000000003170000000000000000000000000000000000000000000000000489000000N
5000071223436691ISENTO        20240401MG551  0001135405P000000000640000000000000000000000000000000000000000000000000064000000N
5000003206244633ISENTO        20240401MG551  0001145405P000000014660000000000000000000000000000000000000000000000008395000000N
5000000232691622ISENTO        20240402MG551  0001175405P000000000640000000000000000000000000000000000000000000000000064000000N
5000007014083678ISENTO        20240405MG551  0001185405P000000000970000000000000000000000000000000000000000000000000201000000N
5000024479659668ISENTO        20240406MG551  0001225405P000000004610000000000000000000000000000000000000000000000000999000000N
5000067975054615ISENTO        20240401MG551  0001155405P000000000960000000000000000000000000000000000000000000000000096000000N
5000066352827691ISENTO        20240410MG551  0001245405P000000004640000000000000000000000000000000000000000000000000464000000N
5000043539475672ISENTO        20240405MG551  0001195405P000000003140000000000000000000000000000000000000000000000000530000000N
5000005371679600ISENTO        20240405MG551  0001205405P000000002760000000000000000000000000000000000000000000000000276000000N
5000008595372187ISENTO        20240406MG551  0001235405P000000010350000000000000000000000000000000000000000000000002022000000N
5000010919509622ISENTO        20240411MG551  0001255656P000000001890000000000000000000000000000000000000000000000000189000000N
5000010919509622ISENTO        20240411MG551  0001255405P000000000250000000000000000000000000000000000000000000000000025000000N
5000039974233852ISENTO        20240412MG551  0001285656P000000001540000000000000000000000000000000000000000000000000154000000N
50045520380001280621387700080 20240415MG551  0001295405P000000004390000000000000000000000000000000000000000000000001279000000N
50045520380001280621387700080 20240415MG551  0001295656P000000001260000000000000000000000000000000000000000000000000126000000N
5000083866086687ISENTO        20240411MG551  0001265405P000000004420000000000000000000000000000000000000000000000001368000000N
5000002870034695ISENTO        20240405MG551  0001215405P000000003120000000000000000000000000000000000000000000000000832000000N
5000001340790602ISENTO        20240411MG551  0001275656P000000001320000000000000000000000000000000000000000000000000132000000N
5000001340790602ISENTO        20240411MG551  0001275405P000000000580000000000000000000000000000000000000000000000000092000000N
5000003185696638ISENTO        20240416MG551  0001325405P000000019110000000000000000000000000000000000000000000000008104000000N
5000002379501629ISENTO        20240418MG551  0001375405P000000000810000000000000000000000000000000000000000000000000140000000N
5000076866629691ISENTO        20240419MG551  0001415656P000000001680000000000000000000000000000000000000000000000000168000000N
5000076866629691ISENTO        20240419MG551  0001415405P000000002470000000000000000000000000000000000000000000000000435000000N
5000003469776652ISENTO        20240415MG551  0001305656P000000001890000000000000000000000000000000000000000000000000189000000N
5000003469776652ISENTO        20240415MG551  0001305405P000000000350000000000000000000000000000000000000000000000000035000000N
5000052571580604ISENTO        20240415MG551  0001315656P000000000460000000000000000000000000000000000000000000000000046000000N
5000029179122604ISENTO        20240416MG551  0001335656P000000001470000000000000000000000000000000000000000000000000147000000N
5000029179122604ISENTO        20240416MG551  0001335405P000000001040000000000000000000000000000000000000000000000000104000000N
5000030542855704ISENTO        20240418MG551  0001385656P000000001890000000000000000000000000000000000000000000000000189000000N
5000003057790607ISENTO        20240422MG551  0001445405P000000001870000000000000000000000000000000000000000000000000187000000N
5000020582200644ISENTO        20240425MG551  0001505405P000000002320000000000000000000000000000000000000000000000000232000000N
5000007276852601ISENTO        20240416MG551  0001345405P000000005180000000000000000000000000000000000000000000000000518000000N
5000003916478656ISENTO        20240416MG551  0001355656P000000001260000000000000000000000000000000000000000000000000126000000N
5000003916478656ISENTO        20240416MG551  0001355405P000000000560000000000000000000000000000000000000000000000000080000000N
5000017446910615ISENTO        20240420MG551  0001435656P000000001260000000000000000000000000000000000000000000000000126000000N
5000017446910615ISENTO        20240420MG551  0001435405P000000000240000000000000000000000000000000000000000000000000024000000N
5000000123362628ISENTO        20240416MG551  0001365656P000000001890000000000000000000000000000000000000000000000000189000000N
5000000123362628ISENTO        20240416MG551  0001365405P000000001180000000000000000000000000000000000000000000000000164000000N
5000032094825604ISENTO        20240418MG551  0001395405P000000000340000000000000000000000000000000000000000000000000034000000N
5000007095953600ISENTO        20240422MG551  0001455405P000000001750000000000000000000000000000000000000000000000000301000000N
5000004963915693ISENTO        20240423MG551  0001465656P000000001680000000000000000000000000000000000000000000000000168000000N
5000023018518691ISENTO        20240424MG551  0001495656P000000001470000000000000000000000000000000000000000000000000147000000N
5000023018518691ISENTO        20240424MG551  0001495405P000000000660000000000000000000000000000000000000000000000000100000000N
5000040927954591ISENTO        20240430MG551  0001545656P000000001890000000000000000000000000000000000000000000000000189000000N
5000039099261691ISENTO        20240418MG551  0001405656P000000001840000000000000000000000000000000000000000000000000184000000N
5000003628527660ISENTO        20240423MG551  0001475656P000000001760000000000000000000000000000000000000000000000000176000000N
5000001837339678ISENTO        20240423MG551  0001485656P000000001540000000000000000000000000000000000000000000000000154000000N
5000001837339678ISENTO        20240419MG551  0001425656P000000001680000000000000000000000000000000000000000000000000168000000N
5000001837339678ISENTO        20240419MG551  0001425405P000000004770000000000000000000000000000000000000000000000001381000000N
5000093381131672ISENTO        20240430MG551  0001555405P000000001630000000000000000000000000000000000000000000000000278000000N
5000002100420607ISENTO        20240425MG551  0001515656P000000001680000000000000000000000000000000000000000000000000168000000N
5000002100420607ISENTO        20240425MG551  0001515405P000000001040000000000000000000000000000000000000000000000000198000000N
5000005253169652ISENTO        20240425MG551  0001525405P000000002240000000000000000000000000000000000000000000000000320000000N
5000015454916668ISENTO        20240430MG551  0001565405P000000002100000000000000000000000000000000000000000000000000315000000N
5000005371679600ISENTO        20240425MG551  0001535405P000000001890000000000000000000000000000000000000000000000000304000000N
5000003309050661ISENTO        20240430MG551  0001575405P000000000730000000000000000000000000000000000000000000000000112000000N
5000003309050661ISENTO        20240430MG551  0001575656P000000001470000000000000000000000000000000000000000000000000147000000N
5000004116831603ISENTO        20240430MG551  0001585656P000000001760000000000000000000000000000000000000000000000000176000000N
5000007748348626ISENTO        20240430MG551  0001595405P000000005760000000000000000000000000000000000000000000000001384000000N
50215322700001130624775200061 20240412MG551  0086311403T000000038296800000000000000000000000000000000000000000000000000000000N
50215322700001130624775200061 20240418MG551  0086581403T000000027767100000000000000000000000000000000000000000000000000000000N
5100071223436691ISENTO        20240401MG1  00011354050000000000000000000000000000000000000000000000000000                    N
5100003206244633ISENTO        20240401MG1  00011454050000000000000000000000000000000000000000000000000000                    N
5100067975054615ISENTO        20240401MG1  00011554050000000000000000000000000000000000000000000000000000                    N
5100080097227668ISENTO        20240402MG1  00011654050000000000000000000000000000000000000000000000000000                    N
5100000232691622ISENTO        20240402MG1  00011754050000000000000000000000000000000000000000000000000000                    N
5100007014083678ISENTO        20240405MG1  00011854050000000000000000000000000000000000000000000000000000                    N
5100043539475672ISENTO        20240405MG1  00011954050000000000000000000000000000000000000000000000000000                    N
5100005371679600ISENTO        20240405MG1  00012054050000000000000000000000000000000000000000000000000000                    N
5100002870034695ISENTO        20240405MG1  00012154050000000000000000000000000000000000000000000000000000                    N
5100024479659668ISENTO        20240406MG1  00012254050000000000000000000000000000000000000000000000000000                    N
5100008595372187ISENTO        20240406MG1  00012354050000000000000000000000000000000000000000000000000000                    N
5100066352827691ISENTO        20240410MG1  00012454050000000000000000000000000000000000000000000000000000                    N
5100010919509622ISENTO        20240411MG1  00012554050000000000000000000000000000000000000000000000000000                    N
5100010919509622ISENTO        20240411MG1  00012556560000000000000000000000000000000000000000000000000000                    N
5100083866086687ISENTO        20240411MG1  00012654050000000000000000000000000000000000000000000000000000                    N
5100001340790602ISENTO        20240411MG1  00012754050000000000000000000000000000000000000000000000000000                    N
5100001340790602ISENTO        20240411MG1  00012756560000000000000000000000000000000000000000000000000000                    N
51215322700001130624775200061 20240412MG1  00863114030000000000000000000000000000000000000000000000000000                    N
5100039974233852ISENTO        20240412MG1  00012856560000000000000000000000000000000000000000000000000000                    N
51045520380001280621387700080 20240415MG1  00012956560000000000000000000000000000000000000000000000000000                    N
51045520380001280621387700080 20240415MG1  00012954050000000000000000000000000000000000000000000000000000                    N
5100003469776652ISENTO        20240415MG1  00013054050000000000000000000000000000000000000000000000000000                    N
5100003469776652ISENTO        20240415MG1  00013056560000000000000000000000000000000000000000000000000000                    N
5100052571580604ISENTO        20240415MG1  00013156560000000000000000000000000000000000000000000000000000                    N
5100003185696638ISENTO        20240416MG1  00013254050000000000000000000000000000000000000000000000000000                    N
5100029179122604ISENTO        20240416MG1  00013354050000000000000000000000000000000000000000000000000000                    N
5100029179122604ISENTO        20240416MG1  00013356560000000000000000000000000000000000000000000000000000                    N
5100007276852601ISENTO        20240416MG1  00013454050000000000000000000000000000000000000000000000000000                    N
5100003916478656ISENTO        20240416MG1  00013556560000000000000000000000000000000000000000000000000000                    N
5100003916478656ISENTO        20240416MG1  00013554050000000000000000000000000000000000000000000000000000                    N
5100000123362628ISENTO        20240416MG1  00013656560000000000000000000000000000000000000000000000000000                    N
5100000123362628ISENTO        20240416MG1  00013654050000000000000000000000000000000000000000000000000000                    N
51215322700001130624775200061 20240418MG1  00865814030000000000000000000000000000000000000000000000000000                    N
5100002379501629ISENTO        20240418MG1  00013754050000000000000000000000000000000000000000000000000000                    N
5100030542855704ISENTO        20240418MG1  00013856560000000000000000000000000000000000000000000000000000                    N
5100032094825604ISENTO        20240418MG1  00013954050000000000000000000000000000000000000000000000000000                    N
5100039099261691ISENTO        20240418MG1  00014056560000000000000000000000000000000000000000000000000000                    N
5100076866629691ISENTO        20240419MG1  00014156560000000000000000000000000000000000000000000000000000                    N
5100076866629691ISENTO        20240419MG1  00014154050000000000000000000000000000000000000000000000000000                    N
5100001837339678ISENTO        20240419MG1  00014256560000000000000000000000000000000000000000000000000000                    N
5100001837339678ISENTO        20240419MG1  00014254050000000000000000000000000000000000000000000000000000                    N
5100017446910615ISENTO        20240420MG1  00014356560000000000000000000000000000000000000000000000000000                    N
5100017446910615ISENTO        20240420MG1  00014354050000000000000000000000000000000000000000000000000000                    N
5100003057790607ISENTO        20240422MG1  00014454050000000000000000000000000000000000000000000000000000                    N
5100007095953600ISENTO        20240422MG1  00014554050000000000000000000000000000000000000000000000000000                    N
5100004963915693ISENTO        20240423MG1  00014656560000000000000000000000000000000000000000000000000000                    N
5100003628527660ISENTO        20240423MG1  00014756560000000000000000000000000000000000000000000000000000                    N
5100001837339678ISENTO        20240423MG1  00014856560000000000000000000000000000000000000000000000000000                    N
5100023018518691ISENTO        20240424MG1  00014954050000000000000000000000000000000000000000000000000000                    N
5100023018518691ISENTO        20240424MG1  00014956560000000000000000000000000000000000000000000000000000                    N
5100020582200644ISENTO        20240425MG1  00015054050000000000000000000000000000000000000000000000000000                    N
5100002100420607ISENTO        20240425MG1  00015154050000000000000000000000000000000000000000000000000000                    N
5100002100420607ISENTO        20240425MG1  00015156560000000000000000000000000000000000000000000000000000                    N
5100005253169652ISENTO        20240425MG1  00015254050000000000000000000000000000000000000000000000000000                    N
5100005371679600ISENTO        20240425MG1  00015354050000000000000000000000000000000000000000000000000000                    N
5100040927954591ISENTO        20240430MG1  00015456560000000000000000000000000000000000000000000000000000                    N
5100093381131672ISENTO        20240430MG1  00015554050000000000000000000000000000000000000000000000000000                    N
5100015454916668ISENTO        20240430MG1  00015654050000000000000000000000000000000000000000000000000000                    N
5100003309050661ISENTO        20240430MG1  00015756560000000000000000000000000000000000000000000000000000                    N
5100003309050661ISENTO        20240430MG1  00015754050000000000000000000000000000000000000000000000000000                    N
5100004116831603ISENTO        20240430MG1  00015856560000000000000000000000000000000000000000000000000000                    N
5100007748348626ISENTO        20240430MG1  00015954050000000000000000000000000000000000000000000000000000                    N
5300080097227668ISENTO        20240402MG551  0001165405P000000000000000000000000000000000000000N                              
5300071223436691ISENTO        20240401MG551  0001135405P000000000000000000000000000000000000000N                              
5300003206244633ISENTO        20240401MG551  0001145405P000000000000000000000000000000000000000N                              
5300000232691622ISENTO        20240402MG551  0001175405P000000000000000000000000000000000000000N                              
5300007014083678ISENTO        20240405MG551  0001185405P000000000000000000000000000000000000000N                              
5300024479659668ISENTO        20240406MG551  0001225405P000000000000000000000000000000000000000N                              
5300067975054615ISENTO        20240401MG551  0001155405P000000000000000000000000000000000000000N                              
5300066352827691ISENTO        20240410MG551  0001245405P000000000000000000000000000000000000000N                              
5300043539475672ISENTO        20240405MG551  0001195405P000000000000000000000000000000000000000N                              
5300005371679600ISENTO        20240405MG551  0001205405P000000000000000000000000000000000000000N                              
5300008595372187ISENTO        20240406MG551  0001235405P000000000000000000000000000000000000000N                              
5300010919509622ISENTO        20240411MG551  0001255656P000000000000000000000000000000000000000N                              
5300010919509622ISENTO        20240411MG551  0001255405P000000000000000000000000000000000000000N                              
5300039974233852ISENTO        20240412MG551  0001285656P000000000000000000000000000000000000000N                              
53045520380001280621387700080 20240415MG551  0001295405P000000000000000000000000000000000000000N                              
53045520380001280621387700080 20240415MG551  0001295656P000000000000000000000000000000000000000N                              
5300083866086687ISENTO        20240411MG551  0001265405P000000000000000000000000000000000000000N                              
5300002870034695ISENTO        20240405MG551  0001215405P000000000000000000000000000000000000000N                              
5300001340790602ISENTO        20240411MG551  0001275656P000000000000000000000000000000000000000N                              
5300001340790602ISENTO        20240411MG551  0001275405P000000000000000000000000000000000000000N                              
5300003185696638ISENTO        20240416MG551  0001325405P000000000000000000000000000000000000000N                              
5300002379501629ISENTO        20240418MG551  0001375405P000000000000000000000000000000000000000N                              
5300076866629691ISENTO        20240419MG551  0001415656P000000000000000000000000000000000000000N                              
5300076866629691ISENTO        20240419MG551  0001415405P000000000000000000000000000000000000000N                              
5300003469776652ISENTO        20240415MG551  0001305656P000000000000000000000000000000000000000N                              
5300003469776652ISENTO        20240415MG551  0001305405P000000000000000000000000000000000000000N                              
5300052571580604ISENTO        20240415MG551  0001315656P000000000000000000000000000000000000000N                              
5300029179122604ISENTO        20240416MG551  0001335656P000000000000000000000000000000000000000N                              
5300029179122604ISENTO        20240416MG551  0001335405P000000000000000000000000000000000000000N                              
5300030542855704ISENTO        20240418MG551  0001385656P000000000000000000000000000000000000000N                              
5300003057790607ISENTO        20240422MG551  0001445405P000000000000000000000000000000000000000N                              
5300020582200644ISENTO        20240425MG551  0001505405P000000000000000000000000000000000000000N                              
5300007276852601ISENTO        20240416MG551  0001345405P000000000000000000000000000000000000000N                              
5300003916478656ISENTO        20240416MG551  0001355656P000000000000000000000000000000000000000N                              
5300003916478656ISENTO        20240416MG551  0001355405P000000000000000000000000000000000000000N                              
5300017446910615ISENTO        20240420MG551  0001435656P000000000000000000000000000000000000000N                              
5300017446910615ISENTO        20240420MG551  0001435405P000000000000000000000000000000000000000N                              
5300000123362628ISENTO        20240416MG551  0001365656P000000000000000000000000000000000000000N                              
5300000123362628ISENTO        20240416MG551  0001365405P000000000000000000000000000000000000000N                              
5300032094825604ISENTO        20240418MG551  0001395405P000000000000000000000000000000000000000N                              
5300007095953600ISENTO        20240422MG551  0001455405P000000000000000000000000000000000000000N                              
5300004963915693ISENTO        20240423MG551  0001465656P000000000000000000000000000000000000000N                              
5300023018518691ISENTO        20240424MG551  0001495656P000000000000000000000000000000000000000N                              
5300023018518691ISENTO        20240424MG551  0001495405P000000000000000000000000000000000000000N                              
5300040927954591ISENTO        20240430MG551  0001545656P000000000000000000000000000000000000000N                              
5300039099261691ISENTO        20240418MG551  0001405656P000000000000000000000000000000000000000N                              
5300003628527660ISENTO        20240423MG551  0001475656P000000000000000000000000000000000000000N                              
5300001837339678ISENTO        20240423MG551  0001485656P000000000000000000000000000000000000000N                              
5300001837339678ISENTO        20240419MG551  0001425656P000000000000000000000000000000000000000N                              
5300001837339678ISENTO        20240419MG551  0001425405P000000000000000000000000000000000000000N                              
5300093381131672ISENTO        20240430MG551  0001555405P000000000000000000000000000000000000000N                              
5300002100420607ISENTO        20240425MG551  0001515656P000000000000000000000000000000000000000N                              
5300002100420607ISENTO        20240425MG551  0001515405P000000000000000000000000000000000000000N                              
5300005253169652ISENTO        20240425MG551  0001525405P000000000000000000000000000000000000000N                              
5300015454916668ISENTO        20240430MG551  0001565405P000000000000000000000000000000000000000N                              
5300005371679600ISENTO        20240425MG551  0001535405P000000000000000000000000000000000000000N                              
5300003309050661ISENTO        20240430MG551  0001575405P000000000000000000000000000000000000000N                              
5300003309050661ISENTO        20240430MG551  0001575656P000000000000000000000000000000000000000N                              
5300004116831603ISENTO        20240430MG551  0001585656P000000000000000000000000000000000000000N                              
5300007748348626ISENTO        20240430MG551  0001595405P000000000000000000000000000000000000000N                              
53215322700001130624775200061 20240412MG551  0086311403T000000000000000000000000000000000000000N                              
53215322700001130624775200061 20240418MG551  0086581403T000000000000000000000000000000000000000N                              
5400080097227668551  0001165405500001721           000000010000000000023000000000000000000000000000000000000000000000000000000
5400080097227668551  0001165405500002722           000000020000000000126000000000000000000000000000000000000000000000000000000
5400080097227668551  0001165405500003723           000000040000000000168000000000000000000000000000000000000000000000000000000
5400071223436691551  0001135405500001504           000000020000000000064000000000000000000000000000000000000000000000000000000
5400003206244633551  0001145405500001861           000000010000000000278000000000000000000000000000000000000000000000000000000
5400003206244633551  0001145405500002883           000000010000000000079000000000000000000000000000000000000000000000000000000
5400003206244633551  0001145405500003879           000000010000000000282000000000000000000000000000000000000000000000000000000
5400003206244633551  0001145405500004881           000000010000000000042000000000000000000000000000000000000000000000000000000
5400003206244633551  0001145405500005880           000000010000000000031000000000000000000000000000000000000000000000000000000
5400003206244633551  0001145405500006757           000000010000000000162000000000000000000000000000000000000000000000000000000
5400003206244633551  0001145405500007882           000000010000000000036000000000000000000000000000000000000000000000000000000
5400003206244633551  0001145405500008864           000000020000000000224000000000000000000000000000000000000000000000000000000
5400003206244633551  0001145405500009878           000000020000000000210000000000000000000000000000000000000000000000000000000
5400003206244633551  0001145405500010629           000000040000000000122000000000000000000000000000000000000000000000000000000
5400000232691622551  0001175405500001531           000000080000000000064000000000000000000000000000000000000000000000000000000
5400007014083678551  0001185405500001843           000000010000000000031000000000000000000000000000000000000000000000000000000
5400007014083678551  0001185405500002876           000000010000000000042000000000000000000000000000000000000000000000000000000
5400007014083678551  0001185405500003657           000000010000000000024000000000000000000000000000000000000000000000000000000
5400024479659668551  0001225405500001760           000000010000000000225000000000000000000000000000000000000000000000000000000
5400024479659668551  0001225405500002636           000000040000000000088000000000000000000000000000000000000000000000000000000
5400024479659668551  0001225405500003692           000000010000000000148000000000000000000000000000000000000000000000000000000
5400067975054615551  0001155405500001821           000000010000000000096000000000000000000000000000000000000000000000000000000
5400066352827691551  0001245405500001512           000000010000000000464000000000000000000000000000000000000000000000000000000
5400043539475672551  0001195405500001750           000000010000000000216000000000000000000000000000000000000000000000000000000
5400043539475672551  0001195405500002515           000000040000000000098000000000000000000000000000000000000000000000000000000
5400005371679600551  0001205405500001784           000000010000000000276000000000000000000000000000000000000000000000000000000
5400008595372187551  0001235405500001711           000000010000000000987000000000000000000000000000000000000000000000000000000
5400008595372187551  0001235405500002790           000000010000000000048000000000000000000000000000000000000000000000000000000
5400010919509622551  0001255656500001887           000000045000000000189000000000000000000000000000000000000000000000000000000
5400010919509622551  0001255405500002882           000000010000000000025000000000000000000000000000000000000000000000000000000
5400039974233852551  0001285656500001886           000000035000000000154000000000000000000000000000000000000000000000000000000
5404552038000128551  0001295405500001901           000000010000000000146000000000000000000000000000000000000000000000000000000
5404552038000128551  0001295405500002903           000000010000000000134000000000000000000000000000000000000000000000000000000
5404552038000128551  0001295405500003902           000000010000000000134000000000000000000000000000000000000000000000000000000
5404552038000128551  0001295405500004829           000000010000000000025000000000000000000000000000000000000000000000000000000
5404552038000128551  0001295656500005887           000000030000000000126000000000000000000000000000000000000000000000000000000
5400083866086687551  0001265405500001872           000000010000000000138000000000000000000000000000000000000000000000000000000
5400083866086687551  0001265405500002633           000000040000000000232000000000000000000000000000000000000000000000000000000
5400083866086687551  0001265405500003867           000000010000000000048000000000000000000000000000000000000000000000000000000
5400083866086687551  0001265405500004882           000000010000000000024000000000000000000000000000000000000000000000000000000
5400002870034695551  0001215405500001633           000000040000000000232000000000000000000000000000000000000000000000000000000
5400002870034695551  0001215405500002874           000000010000000000056000000000000000000000000000000000000000000000000000000
5400002870034695551  0001215405500003882           000000010000000000024000000000000000000000000000000000000000000000000000000
5400001340790602551  0001275656500001886           000000030000000000132000000000000000000000000000000000000000000000000000000
5400001340790602551  0001275405500002867           000000010000000000034000000000000000000000000000000000000000000000000000000
5400001340790602551  0001275405500003882           000000010000000000024000000000000000000000000000000000000000000000000000000
5400003185696638551  0001325405500001711           000000010000000001268000000000000000000000000000000000000000000000000000000
5400003185696638551  0001325405500002896           000000010000000000274000000000000000000000000000000000000000000000000000000
5400003185696638551  0001325405500003646           000000010000000000078000000000000000000000000000000000000000000000000000000
5400003185696638551  0001325405500004889           000000010000000000143000000000000000000000000000000000000000000000000000000
5400003185696638551  0001325405500005732           000000010000000000148000000000000000000000000000000000000000000000000000000
5400002379501629551  0001375405500001652           000000010000000000059000000000000000000000000000000000000000000000000000000
5400002379501629551  0001375405500002653           000000010000000000022000000000000000000000000000000000000000000000000000000
5400076866629691551  0001415656500001887           000000040000000000168000000000000000000000000000000000000000000000000000000
5400076866629691551  0001415405500002882           000000010000000000024000000000000000000000000000000000000000000000000000000
5400076866629691551  0001415405500003693           000000010000000000042000000000000000000000000000000000000000000000000000000
5400076866629691551  0001415405500004509           000000010000000000032000000000000000000000000000000000000000000000000000000
5400076866629691551  0001415405500005872           000000010000000000149000000000000000000000000000000000000000000000000000000
5400003469776652551  0001305656500001887           000000045000000000189000000000000000000000000000000000000000000000000000000
5400003469776652551  0001305405500002559           000000010000000000035000000000000000000000000000000000000000000000000000000
5400052571580604551  0001315656500001886           000000010000000000046000000000000000000000000000000000000000000000000000000
5400029179122604551  0001335656500001887           000000035000000000147000000000000000000000000000000000000000000000000000000
5400029179122604551  0001335405500002658           000000010000000000104000000000000000000000000000000000000000000000000000000
5400030542855704551  0001385656500001887           000000045000000000189000000000000000000000000000000000000000000000000000000
5400003057790607551  0001445405500001691           000000010000000000187000000000000000000000000000000000000000000000000000000
5400020582200644551  0001505405500001633           000000040000000000232000000000000000000000000000000000000000000000000000000
5400007276852601551  0001345405500001898           000000040000000000518000000000000000000000000000000000000000000000000000000
5400003916478656551  0001355656500001887           000000030000000000126000000000000000000000000000000000000000000000000000000
5400003916478656551  0001355405500002882           000000010000000000024000000000000000000000000000000000000000000000000000000
5400003916478656551  0001355405500003509           000000010000000000032000000000000000000000000000000000000000000000000000000
5400017446910615551  0001435656500001887           000000030000000000126000000000000000000000000000000000000000000000000000000
5400017446910615551  0001435405500002882           000000010000000000024000000000000000000000000000000000000000000000000000000
5400000123362628551  0001365656500001887           000000045000000000189000000000000000000000000000000000000000000000000000000
5400000123362628551  0001365405500002893           000000010000000000046000000000000000000000000000000000000000000000000000000
5400000123362628551  0001365405500003513           000000020000000000072000000000000000000000000000000000000000000000000000000
5400032094825604551  0001395405500001874           000000010000000000034000000000000000000000000000000000000000000000000000000
5400007095953600551  0001455405500001916           000000030000000000126000000000000000000000000000000000000000000000000000000
5400007095953600551  0001455405500002801           000000010000000000049000000000000000000000000000000000000000000000000000000
5400004963915693551  0001465656500001887           000000040000000000168000000000000000000000000000000000000000000000000000000
5400023018518691551  0001495656500001887           000000035000000000147000000000000000000000000000000000000000000000000000000
5400023018518691551  0001495405500002745           000000010000000000034000000000000000000000000000000000000000000000000000000
5400023018518691551  0001495405500003905           000000010000000000032000000000000000000000000000000000000000000000000000000
5400040927954591551  0001545656500001887           000000045000000000189000000000000000000000000000000000000000000000000000000
5400039099261691551  0001405656500001886           000000040000000000184000000000000000000000000000000000000000000000000000000
5400003628527660551  0001475656500001886           000000040000000000176000000000000000000000000000000000000000000000000000000
5400001837339678551  0001485656500001886           000000035000000000154000000000000000000000000000000000000000000000000000000
5400001837339678551  0001425656500001887           000000040000000000168000000000000000000000000000000000000000000000000000000
5400001837339678551  0001425405500002882           000000010000000000024000000000000000000000000000000000000000000000000000000
5400001837339678551  0001425405500003693           000000010000000000042000000000000000000000000000000000000000000000000000000
5400001837339678551  0001425405500004780           000000010000000000028000000000000000000000000000000000000000000000000000000
5400001837339678551  0001425405500005880           000000010000000000032000000000000000000000000000000000000000000000000000000
5400001837339678551  0001425405500006872           000000010000000000139000000000000000000000000000000000000000000000000000000
5400001837339678551  0001425405500007509           000000020000000000064000000000000000000000000000000000000000000000000000000
5400001837339678551  0001425405500008767           000000020000000000148000000000000000000000000000000000000000000000000000000
5400093381131672551  0001555405500001671           000000010000000000115000000000000000000000000000000000000000000000000000000
5400093381131672551  0001555405500002509           000000015000000000048000000000000000000000000000000000000000000000000000000
5400002100420607551  0001515656500001887           000000040000000000168000000000000000000000000000000000000000000000000000000
5400002100420607551  0001515405500002882           000000010000000000024000000000000000000000000000000000000000000000000000000
5400002100420607551  0001515405500003893           000000010000000000046000000000000000000000000000000000000000000000000000000
5400002100420607551  0001515405500004880           000000010000000000034000000000000000000000000000000000000000000000000000000
5400005253169652551  0001525405500001629           000000040000000000096000000000000000000000000000000000000000000000000000000
5400005253169652551  0001525405500002692           000000010000000000128000000000000000000000000000000000000000000000000000000
5400015454916668551  0001565405500001902           000000010000000000105000000000000000000000000000000000000000000000000000000
5400015454916668551  0001565405500002903           000000010000000000105000000000000000000000000000000000000000000000000000000
5400005371679600551  0001535405500001759           000000010000000000115000000000000000000000000000000000000000000000000000000
5400005371679600551  0001535405500002578           000000010000000000074000000000000000000000000000000000000000000000000000000
5400003309050661551  0001575405500001693           000000010000000000039000000000000000000000000000000000000000000000000000000
5400003309050661551  0001575656500002887           000000035000000000147000000000000000000000000000000000000000000000000000000
5400003309050661551  0001575405500003680           000000010000000000034000000000000000000000000000000000000000000000000000000
5400004116831603551  0001585656500001886           000000040000000000176000000000000000000000000000000000000000000000000000000
5400007748348626551  0001595405500001633           000000040000000000232000000000000000000000000000000000000000000000000000000
5400007748348626551  0001595405500002882           000000010000000000024000000000000000000000000000000000000000000000000000000
5400007748348626551  0001595405500003885           000000010000000000064000000000000000000000000000000000000000000000000000000
5400007748348626551  0001595405500004538           000000010000000000256000000000000000000000000000000000000000000000000000000
5421532270000113551  0086311403060001888           000000020000000000084480000000000000000000000000000000000000000000000000000
5421532270000113551  0086311403060002889           000000010000000000109660000000000000000000000000000000000000000000000000000
5421532270000113551  0086311403060003890           000000010000000000064980000000000000000000000000000000000000000000000000000
5421532270000113551  0086311403060004809           000000030000000000029250000000000000000000000000000000000000000000000000000
5421532270000113551  0086311403060005891           000000040000000000050360000000000000000000000000000000000000000000000000000
5421532270000113551  0086311403060006892           000000010000000000090980000000000000000000000000000000000000000000000000000
5421532270000113551  0086311403060007893           000000010000000000042240000000000000000000000000000000005020000000000000000
5421532270000113551  0086311403060008559           000000010000000000025990000000000000000000000000000000003800000000000000000
5421532270000113551  0086311403060009894           000000010000000000032090000000000000000000000000000000000000000000000000000
5421532270000113551  0086311403060010895           000000020000000000077660000000000000000000000000000000011980000000000000000
5421532270000113551  0086311403060011896           000000010000000000223380000000000000000000000000000000026820000000000000000
5421532270000113551  0086311403060012511           000000040000000000378520000000000000000000000000000000000000000000000000000
5421532270000113551  0086311403060013897           000000010000000000063360000000000000000000000000000000000000000000000000000
5421532270000113551  0086311403060014898           000000040000000000337920000000000000000000000000000000060970000000000000000
5421532270000113551  0086311403060015642           000000010000000000072700000000000000000000000000000000009280000000000000000
5421532270000113551  0086311403060016899           000000010000000000099100000000000000000000000000000000000000000000000000000
5421532270000113551  0086311403060017900           000000040000000000428880000000000000000000000000000000000000000000000000000
5421532270000113551  0086311403060018901           000000010000000000108040000000000000000000000000000000013670000000000000000
5421532270000113551  0086311403060019902           000000010000000000102350000000000000000000000000000000000000000000000000000
5421532270000113551  0086311403060020903           000000010000000000102350000000000000000000000000000000000000000000000000000
5421532270000113551  0086311403060021750           000000010000000000161650000000000000000000000000000000000000000000000000000
5421532270000113551  0086311403060022613           000000010000000000105600000000000000000000000000000000014710000000000000000
5421532270000113551  0086311403060023636           000000040000000000067440000000000000000000000000000000000000000000000000000
5421532270000113551  0086311403060024904           000000010000000000103160000000000000000000000000000000000000000000000000000
5421532270000113551  0086311403060025905           000000010000000000020310000000000000000000000000000000002140000000000000000
5421532270000113551  0086311403060026906           000000010000000000190890000000000000000000000000000000022610000000000000000
5421532270000113551  0086311403060027907           000000010000000000351730000000000000000000000000000000045220000000000000000
5421532270000113551  0086311403060028908           000000010000000000304610000000000000000000000000000000041480000000000000000
5421532270000113551  0086581403060001909           000000010000000000614100000000000000000000000000000000000000000000000000000
5421532270000113551  0086581403060002910           000000020000000000035740000000000000000000000000000000005330000000000000000
5421532270000113551  0086581403060003911           000000010000000000085290000000000000000000000000000000000000000000000000000
5421532270000113551  0086581403060004912           000000010000000000085290000000000000000000000000000000000000000000000000000
5421532270000113551  0086581403060005913           000000020000000000093420000000000000000000000000000000000000000000000000000
5421532270000113551  0086581403060006914           000000020000000000216080000000000000000000000000000000000000000000000000000
5421532270000113551  0086581403060007915           000000010000000000025590000000000000000000000000000000000000000000000000000
5421532270000113551  0086581403060008916           000000010000000000030060000000000000000000000000000000000000000000000000000
5421532270000113551  0086581403060009872           000000010000000000079610000000000000000000000000000000008660000000000000000
5421532270000113551  0086581403060010917           000000010000000000079610000000000000000000000000000000000000000000000000000
5421532270000113551  0086581403060011918           000000010000000000050360000000000000000000000000000000000000000000000000000
5421532270000113551  0086581403060012919           000000010000000000006500000000000000000000000000000000000000000000000000000
5421532270000113551  0086581403060013920           000000010000000000009340000000000000000000000000000000000000000000000000000
5421532270000113551  0086581403060014921           000000010000000000080420000000000000000000000000000000000000000000000000000
5421532270000113551  0086581403060015922           000000010000000000182770000000000000000000000000000000000000000000000000000
5421532270000113551  0086581403060016923           000000010000000000002030000000000000000000000000000000000000000000000000000
5421532270000113551  0086581403060017924           000000020000000000051980000000000000000000000000000000000000000000000000000
5421532270000113551  0086581403060018925           000000020000000000138100000000000000000000000000000000016860000000000000000
5421532270000113551  0086581403060019926           000000010000000000142150000000000000000000000000000000014660000000000000000
5421532270000113551  0086581403060020652           000000010000000000043050000000000000000000000000000000004750000000000000000
5421532270000113551  0086581403060021653           000000010000000000013650000000000000000000000000000000001380000000000000000
5421532270000113551  0086581403060022750           000000010000000000161650000000000000000000000000000000000000000000000000000
5421532270000113551  0086581403060023927           000000010000000000153520000000000000000000000000000000000000000000000000000
5421532270000113551  0086581403060024928           000000040000000000396400000000000000000000000000000000000000000000000000000
752024040120240430504           401699900412440-BUCHA BARRA ESTABILIZADORA                   PC    000000000000000000000000000
752024040120240430509           38190000DOT4 ATE-OLEO FREIO                                  FR    000000000000000000000000000
752024040120240430511           85111000DILFR6D11D-VELA IGNICAO                              PC    000000000000000000000000000
752024040120240430512           870893003000000144-KIT EMBREAGEM                             JG    000000000000000000000000000
752024040120240430513           27101932SAE80 GL4-OLEO CAMBIO                                PC    000000000000000000000000000
752024040120240430515           85111000BKR7ESB-VELA IGNICAO                                 PC    000000000000000000000000000
752024040120240430531           731814002161453-PARAFUSO RODA                                PC    000000000000000000000000000
752024040120240430538           87083019P1492-PASTILHA FREIO                                 PC    000000000000000000000000000
752024040120240430559           84212300W8118-FILTRO OLEO MOTOR                              PC    000000000000000000000000000
752024040120240430578           40103500111SP170H-CORREIA DISTRIBUICAO                       PC    000000000000000000000000000
752024040120240430613           85443000SCG73-CABO VELA                                      JG    000000000000000000000000000
752024040120240430629           85111000LZKAR7A-VELA IGNICAO                                 PC    000000000000000000000000000
752024040120240430633           271019320W20 PRO DS-OLEO MOTOR                               LT    000000000000000000000000000
752024040120240430636           85111000BPR7E-VELA IGNICAO                                   PC    000000000000000000000000000
752024040120240430642           8413309020089-BOMBA DAGUA                                    PC    000000000000000000000000000
752024040120240430646           84835010VKM4909-POLIA ALTERNADOR                             PC    000000000000000000000000000
752024040120240430652           84139190F000TE13S3-TAMPA BOMBA COMB                          PC    000000000000000000000000000
752024040120240430653           39173290DS1506-TUBO FLUXO                                    JG    000000000000000000000000000
752024040120240430657           84219999HU71151X-FILTRO OLEO MOTOR                           PC    000000000000000000000000000
752024040120240430658           87083019P435-PASTILHA FREIO                                  JG    000000000000000000000000000
752024040120240430671           84212300WFC920-FILTRO CAMBIO AUTOMATICO                      PC    000000000000000000000000000
752024040120240430680           84212300W71930-FILTRO OLEO MOTOR                             PC    000000000000000000000000000
752024040120240430691           90261029TSA010200-SENSOR DE NIVEL DE COMBUSTIVEL             PC    000000000000000000000000000
752024040120240430692           85443000F00099C078-CABO VELA                                 PC    000000000000000000000000000
752024040120240430693           84219999LX684-FILTRO AR                                      PC    000000000000000000000000000
752024040120240430711           8413309046350532-BOMBA DAGUA                                 PC    000000000000000000000000000
752024040120240430721           84213990CU2442-FILTRO ANTI POLEM                             PC    000000000000000000000000000
752024040120240430722           87088000NAK93035-PIVO SUSPENSAO                              PC    000000000000000000000000000
752024040120240430723           87088000NAK1068-BIELETA BARRA ESTABILIZADORA                 PC    000000000000000000000000000
752024040120240430732           401031006PK1030EE-CORREIA                                    PC    000000000000000000000000000
752024040120240430745           84212300W7013-FILTRO OLEO MOTOR                              PC    000000000000000000000000000
752024040120240430750           85443000STV25-CABO VELA                                      JG    000000000000000000000000000
752024040120240430757           85443000SCR16-CABO VELA                                      JG    000000000000000000000000000
752024040120240430759           8413309020189-BOMBA DAGUA                                    PC    000000000000000000000000000
752024040120240430760           40091100MG339-MANGUEIRA FILTRO AR                            PC    000000000000000000000000000
752024040120240430767           87088000MB4200-KIT AMORTECEDOR DIANTEIRO                     PC    000000000000000000000000000
752024040120240430780           84212990WK583-FILTRO COMBUSTIVEL                             PC    000000000000000000000000000
752024040120240430784           84133010F000TE159A-BOMBA COMBUSTIVEL IE                      PC    000000000000000000000000000
752024040120240430790           38200000COOLANT UP-ADITIVO RADIADOR                          PC    000000000000000000000000000
752024040120240430801           87088000NAK6058-PIVO SUSPENSAO                               PC    000000000000000000000000000
752024040120240430809           7326190014329101-SELO CABECOTE MOTOR                         PC    000000000000000000000000000
752024040120240430821           87089990FNM089K-CABO EMBREAGEM                               PC    000000000000000000000000000
752024040120240430829           84212300W6880-FILTRO OLEO MOTOR                              PC    000000000000000000000000000
752024040120240430843           84213990FAC554-FILTRO ANTI POLEM                             PC    000000000000000000000000000
752024040120240430861           84835090VKMA06002B-KIT CORREIA TENSOR                        PC    000000000000000000000000000
752024040120240430864           870830900986AB8653-CILINDRO RODA                             PC    000000000000000000000000000
752024040120240430867           84219999C33661-FILTRO AR                                     PC    000000000000000000000000000
752024040120240430872           87083019P94-PASTILHA FREIO                                   JG    000000000000000000000000000
752024040120240430874           84219999HLP2203-FILTRO AR                                    PC    000000000000000000000000000
752024040120240430876           84219999HLP5053-FILTRO AR                                    PC    000000000000000000000000000
752024040120240430878           87088000SK8112A-COXIM AMORTECEDOR                            PC    000000000000000000000000000
752024040120240430879           87089990MB9051-COXIM MOTOR                                   PC    000000000000000000000000000
752024040120240430880           84213990LA87-FILTRO ANTI POLEM                               PC    000000000000000000000000000
752024040120240430881           84219999HLP5138-FILTRO AR                                    PC    000000000000000000000000000
752024040120240430882           84212300W6730-FILTRO OLEO MOTOR                              PC    000000000000000000000000000
752024040120240430883           87083019P338-PASTILHA FREIO                                  JG    000000000000000000000000000
752024040120240430885           84219999LX3815-FILTRO AR                                     PC    000000000000000000000000000
752024040120240430886           27101932RALOY ULTRA SYNTH SAE 5W40 API SN - 24/1             LT    000000000000000000000000000
752024040120240430887           27101932RALOY ULTRA SYNTH SAE 5W30 API SP - 24/1             LT    000000000000000000000000000
752024040120240430888           87088000BMG05002-AMORT TAMPA TRAS                            PC    000000000000000000000000000
752024040120240430889           84835010VKM4808-POLIA ALTERNADOR                             PC    000000000000000000000000000
752024040120240430890           84835010VKM4807-POLIA ALTERNADOR                             PC    000000000000000000000000000
752024040120240430891           870899902043529OP-KIT BARRA ESTABILIZADORA                   JG    000000000000000000000000000
752024040120240430892           8511900010535653M-PORTA ESCOVA MOTOR PARTIDA                 PC    000000000000000000000000000
752024040120240430893           84219999LX3452-FILTRO AR                                     PC    000000000000000000000000000
752024040120240430894           401031005PK1190-CORREIA                                      PC    000000000000000000000000000
752024040120240430895           84835010VKM32031H-POLIA ALTERNADOR                           PC    000000000000000000000000000
752024040120240430896           68138110PD1524-PASTILHA FREIO                                PC    000000000000000000000000000
752024040120240430897           84219999LX4664-FILTRO AR                                     PC    000000000000000000000000000
752024040120240430898           851110000242135559-VELA IGNICAO                              PC    000000000000000000000000000
752024040120240430899           848350105320326300-POLIA ALTERNADOR                          PC    000000000000000000000000000
752024040120240430900           840991900280157147-BICO INJETOR                              PC    000000000000000000000000000
752024040120240430901           87088000503379-PIVO SUSPENSAO                                PC    000000000000000000000000000
752024040120240430902           87088000NBJ3014E-SUPORTE BARRA ESTABILIZADORA                PC    000000000000000000000000000
752024040120240430903           87088000NBJ3014D-SUPORTE BARRA ESTABILIZADORA                PC    000000000000000000000000000
752024040120240430904           90261029F000TE198U-SENSOR DE NIVEL DE COMBUSTIVEL            PC    000000000000000000000000000
752024040120240430905           84213990LA117-FILTRO ANTI POLEM                              PC    000000000000000000000000000
752024040120240430906           87083019PD528-PASTILHA FREIO                                 JG    000000000000000000000000000
752024040120240430907           851130200221603451-BOBINA IGNICAO PLASTICA                   PC    000000000000000000000000000
752024040120240430908           870893003000001211-KIT EMBREAGEM                             JG    000000000000000000000000000
752024040120240430909           8413601955243968-BOMBA DAGUA                                 PC    000000000000000000000000000
752024040120240430910           85392910LMM7515-LAMPADA                                      PC    000000000000000000000000000
752024040120240430911           87083090FNM095E-CABO FREIO DE MAO                            PC    000000000000000000000000000
752024040120240430912           87083090FNM095D-CABO FREIO DE MAO                            PC    000000000000000000000000000
752024040120240430913           87083090ATE5780-CILINDRO RODA                                PC    000000000000000000000000000
752024040120240430914           870830902092106-REGULADOR FREIO                              PC    000000000000000000000000000
752024040120240430915           271019325W30 F1 MASTER-OLEO MOTOR                            LT    000000000000000000000000000
752024040120240430916           2710193210W40 GTX-OLEO MOTOR                                 LT    000000000000000000000000000
752024040120240430917           8413309020025-BOMBA DAGUA                                    PC    000000000000000000000000000
752024040120240430918           853650900309190811-INTER PRESSAO OLEO                        PC    000000000000000000000000000
752024040120240430919           68159990TAR220617-JUNTA ADMISSAO                             JG    000000000000000000000000000
752024040120240430920           482390992081834-JUNTA COLETOR ESCAP/ADM                      JG    000000000000000000000000000
752024040120240430921           87089100G1105-RESERV AGUA RADIADOR                           PC    000000000000000000000000000
752024040120240430922           87089990SK2421-SUPORTE DIANTEIRO MOTOR                       PC    000000000000000000000000000
752024040120240430923           401693002131835-VEDADOR                                      PC    000000000000000000000000000
752024040120240430924           840991908644622-TUBO                                         PC    000000000000000000000000000
752024040120240430925           87088000SK1098-COXIM AMORTECEDOR                             PC    000000000000000000000000000
752024040120240430926           4016930075505-JUNTA TAMPA VALVULA                            PC    000000000000000000000000000
752024040120240430927           8511302046344869-BOBINA IGNICAO PLASTICA                     PC    000000000000000000000000000
752024040120240430928           85111000IZKR8C10D-VELA IGNICAO                               PC    000000000000000000000000000
90336213140001600034450680073 50000000625100000062530000006254000001667500000100                                             2
90336213140001600034450680073 9900000456                                                                                     2
