10336213140001600034450680073 CRISTINA ISABEL DE CAMPOS          Belo Horizonte                MG31999760132025020120250228331
11Rua Caconde                       00875                      Renascença     31130510VINICIUS MURTA NERY         031934225098
5000061814121668ISENTO        20250206MG551  0006645405P000000002830000000000000000000000000000000000000000000000000737000000N
5000005253169652ISENTO        20250211MG551  0006655405P000000007810000000000000000000000000000000000000000000000001506000000N
5000031678521604ISENTO        20250214MG551  0006725405P000000002560000000000000000000000000000000000000000000000000634000000N
5000031678521604ISENTO        20250214MG551  0006725102P000000000400000000000000000000000000000000000000000000000000045000000N
5065139743000192ISENTO        20250218MG551  0006765405P000000009310000000000000000000000000000000000000000000000004700000000N
5065139743000192ISENTO        20250218MG551  0006765656P000000001980000000000000000000000000000000000000000000000000198000000N
5065139743000192ISENTO        20250218MG551  0006765102P000000000350000000000000000000000000000000000000000000000000035000000N
5000004537847638ISENTO        20250211MG551  0006665405P000000003440000000000000000000000000000000000000000000000001148000000N
5000004537847638ISENTO        20250211MG551  0006665102P000000000400000000000000000000000000000000000000000000000000045000000N
5000099788306691ISENTO        20250222MG551  0006805405P000000002400000000000000000000000000000000000000000000000000552000000N
5000001185162640ISENTO        20250214MG551  0006735405P000000004380000000000000000000000000000000000000000000000001432000000N
5000001185162640ISENTO        20250214MG551  0006735102P000000000050000000000000000000000000000000000000000000000000005000000N
5000004178914669ISENTO        20250211MG551  0006675405P000000003810000000000000000000000000000000000000000000000001041000000N
5000004178914669ISENTO        20250211MG551  0006675656P000000001320000000000000000000000000000000000000000000000000132000000N
5000004178914669ISENTO        20250211MG551  0006675102P000000000350000000000000000000000000000000000000000000000000035000000N
5000071223436691ISENTO        20250211MG551  0006685405P000000002460000000000000000000000000000000000000000000000000640000000N
5000071223436691ISENTO        20250211MG551  0006685102P000000000050000000000000000000000000000000000000000000000000005000000N
5000037354183172ISENTO        20250228MG551  0006935405P000000004030000000000000000000000000000000000000000000000001285000000N
5000037354183172ISENTO        20250228MG551  0006935102P000000000050000000000000000000000000000000000000000000000000005000000N
5000049616897691ISENTO        20250214MG551  0006745656P000000002200000000000000000000000000000000000000000000000000220000000N
5000049616897691ISENTO        20250214MG551  0006745405P000000000860000000000000000000000000000000000000000000000000190000000N
5000002870034695ISENTO        20250211MG551  0006695405P000000004000000000000000000000000000000000000000000000000000978000000N
5000014432854634ISENTO        20250211MG551  0006705405P000000001460000000000000000000000000000000000000000000000000266000000N
5000014432854634ISENTO        20250211MG551  0006705102P000000000060000000000000000000000000000000000000000000000000006000000N
5000011521426660ISENTO        20250218MG551  0006775405P000000002650000000000000000000000000000000000000000000000000652000000N
5000011521426660ISENTO        20250218MG551  0006775102P000000000400000000000000000000000000000000000000000000000000045000000N
5000003185696638ISENTO        20250214MG551  0006755656P000000002200000000000000000000000000000000000000000000000000220000000N
5000003185696638ISENTO        20250214MG551  0006755405P000000000908000000000000000000000000000000000000000000000000107600000N
5000016046242649ISENTO        20250222MG551  0006815405P000000000680000000000000000000000000000000000000000000000000068000000N
5000037162799604ISENTO        20250211MG551  0006715656P000000002200000000000000000000000000000000000000000000000000220000000N
5000037162799604ISENTO        20250211MG551  0006715405P000000001080000000000000000000000000000000000000000000000000144000000N
5000037162799604ISENTO        20250211MG551  0006715102P000000000510000000000000000000000000000000000000000000000000067000000N
5000049925652634ISENTO        20250218MG551  0006785405P000000002720000000000000000000000000000000000000000000000000704000000N
5000049925652634ISENTO        20250218MG551  0006785102P000000000350000000000000000000000000000000000000000000000000035000000N
5000091577187504ISENTO        20250222MG551  0006825405P000000005890000000000000000000000000000000000000000000000003051000000N
5000091577187504ISENTO        20250222MG551  0006825656P000000001760000000000000000000000000000000000000000000000000176000000N
5000091577187504ISENTO        20250222MG551  0006825102P000000000050000000000000000000000000000000000000000000000000005000000N
5000005431583654ISENTO        20250218MG551  0006795405P000000002460000000000000000000000000000000000000000000000000632000000N
5000005431583654ISENTO        20250218MG551  0006795102P000000000160000000000000000000000000000000000000000000000000016000000N
5000056703660697ISENTO        20250222MG551  0006835405P000000001320000000000000000000000000000000000000000000000000132000000N
5000052369692634ISENTO        20250228MG551  0006955405P000000007860000000000000000000000000000000000000000000000000874000000N
5000052369692634ISENTO        20250228MG551  0006955102P000000000420000000000000000000000000000000000000000000000000049000000N
5000006055005689ISENTO        20250222MG551  0006845102P000000000510000000000000000000000000000000000000000000000000086000000N
5000006055005689ISENTO        20250222MG551  0006845405P000000004250000000000000000000000000000000000000000000000001350000000N
5000011287241620ISENTO        20250228MG551  0006965405P000000002200000000000000000000000000000000000000000000000000498000000N
5000011287241620ISENTO        20250228MG551  0006965102P000000000150000000000000000000000000000000000000000000000000022000000N
5000061814083634ISENTO        20250222MG551  0006855405P000000007080000000000000000000000000000000000000000000000001372000000N
5000061814083634ISENTO        20250222MG551  0006855102P000000000330000000000000000000000000000000000000000000000000033000000N
5000002798585660ISENTO        20250222MG551  0006865656P000000001320000000000000000000000000000000000000000000000000132000000N
5000002798585660ISENTO        20250222MG551  0006865405P000000000590000000000000000000000000000000000000000000000000094000000N
5000002798585660ISENTO        20250222MG551  0006865102P000000000050000000000000000000000000000000000000000000000000005000000N
5000071701796600ISENTO        20250222MG551  0006875656P000000001320000000000000000000000000000000000000000000000000132000000N
5000071701796600ISENTO        20250222MG551  0006875405P000000002320000000000000000000000000000000000000000000000000650000000N
5000073964484687ISENTO        20250228MG551  0006975656P000000001320000000000000000000000000000000000000000000000000132000000N
5000073964484687ISENTO        20250228MG551  0006975405P000000000540000000000000000000000000000000000000000000000000074000000N
5000073964484687ISENTO        20250228MG551  0006975102P000000000350000000000000000000000000000000000000000000000000035000000N
5000007014083678ISENTO        20250222MG551  0006885656P000000001980000000000000000000000000000000000000000000000000198000000N
5000007014083678ISENTO        20250222MG551  0006885405P000000000900000000000000000000000000000000000000000000000000126000000N
5000007014083678ISENTO        20250222MG551  0006885102P000000000400000000000000000000000000000000000000000000000000045000000N
5000073964484687ISENTO        20250228MG551  0006985405P000000002560000000000000000000000000000000000000000000000000632000000N
5000073964484687ISENTO        20250228MG551  0006985102P000000000350000000000000000000000000000000000000000000000000035000000N
5000001550153625ISENTO        20250222MG551  0006895405P000000003240000000000000000000000000000000000000000000000000816000000N
5000001550153625ISENTO        20250222MG551  0006895102P000000000050000000000000000000000000000000000000000000000000005000000N
5000091577187504ISENTO        20250222MG551  0006905405P000000017850000000000000000000000000000000000000000000000008321000000N
5000029179122604ISENTO        20250228MG551  0006995405P000000002640000000000000000000000000000000000000000000000000484000000N
5000029179122604ISENTO        20250228MG551  0006995102P000000000050000000000000000000000000000000000000000000000000005000000N
5000001340790602ISENTO        20250222MG551  0006915405P000000000230000000000000000000000000000000000000000000000000023000000N
5000090122836634ISENTO        20250222MG551  0006925405P000000003560000000000000000000000000000000000000000000000000998000000N
5000090122836634ISENTO        20250222MG551  0006925102P000000000050000000000000000000000000000000000000000000000000005000000N
5000083866086687ISENTO        20250228MG551  0007005405P000000016420000000000000000000000000000000000000000000000004298000000N
5000020582200644ISENTO        20250228MG551  0007015405P000000003040000000000000000000000000000000000000000000000000796000000N
5000020582200644ISENTO        20250228MG551  0007015102P000000000160000000000000000000000000000000000000000000000000016000000N
5000004415214606ISENTO        20250228MG551  0007025656P000000001540000000000000000000000000000000000000000000000000154000000N
5000004415214606ISENTO        20250228MG551  0007025405P000000001600000000000000000000000000000000000000000000000000271000000N
5000004415214606ISENTO        20250228MG551  0007025102P000000000350000000000000000000000000000000000000000000000000035000000N
5000003447158689ISENTO        20250228MG551  0007035656P000000001320000000000000000000000000000000000000000000000000132000000N
5000003447158689ISENTO        20250228MG551  0007035405P000000000780000000000000000000000000000000000000000000000000112000000N
5000053502787549ISENTO        20250228MG551  0007045405P000000003920000000000000000000000000000000000000000000000000392000000N
5000000123362628ISENTO        20250228MG551  0007055656P000000001760000000000000000000000000000000000000000000000000176000000N
5000000123362628ISENTO        20250228MG551  0007055405P000000006600000000000000000000000000000000000000000000000002599000000N
5000000123362628ISENTO        20250228MG551  0007055102P000000000350000000000000000000000000000000000000000000000000035000000N
5000009103378616ISENTO        20250228MG551  0007065656P000000001760000000000000000000000000000000000000000000000000176000000N
5000009103378616ISENTO        20250228MG551  0007065405P000000009920000000000000000000000000000000000000000000000002159000000N
5000009103378616ISENTO        20250228MG551  0007065102P000000000160000000000000000000000000000000000000000000000000016000000N
5000009576375860ISENTO        20250228MG551  0007075405P000000002180000000000000000000000000000000000000000000000000402000000N
5000009576375860ISENTO        20250228MG551  0007075102P000000000160000000000000000000000000000000000000000000000000016000000N
5000006329909610ISENTO        20250228MG551  0007085656P000000001320000000000000000000000000000000000000000000000000132000000N
5000006329909610ISENTO        20250228MG551  0007085405P000000000790000000000000000000000000000000000000000000000000113000000N
5000006329909610ISENTO        20250228MG551  0007085102P000000000050000000000000000000000000000000000000000000000000005000000N
5000056331550682ISENTO        20250228MG551  0007095405P000000003880000000000000000000000000000000000000000000000000938000000N
5000008760208643ISENTO        20250228MG551  0007105656P000000002200000000000000000000000000000000000000000000000000220000000N
5000008760208643ISENTO        20250228MG551  0007105405P000000013710000000000000000000000000000000000000000000000001723000000N
5000008760208643ISENTO        20250228MG551  0007105102P000000000780000000000000000000000000000000000000000000000000158000000N
5000000123362628ISENTO        20250228MG551  0007115405P000000015530000000000000000000000000000000000000000000000009129000000N
5000006008371658ISENTO        20250228MG551  0007125405P000000004840000000000000000000000000000000000000000000000001680000000N
5000006008371658ISENTO        20250228MG551  0007125102P000000000140000000000000000000000000000000000000000000000000014000000N
50215322700001130624775200061 20250207MG551  0110721403T000000047034500000000000000000000000000000000000000000000000000000000N
50215322700001130624775200061 20250213MG551  0111601403T000000007371500000000000000000000000000000000000000000000000000000000N
50215322700001130624775200061 20250221MG551  0112671403T000000043564600000000000000000000000000000000000000000000000000000000N
50436489710053861312885600405 20250225MG551  2636081102T000000012492500000001249250000000022488000000000000000000000000001800N
50436489710053861312885600405 20250225MG551  2636081403T000000001081900000000000000000000000000000000000000000000000000000000N
5100061814121668ISENTO        20250206MG1  00066454050000000000000000000000000000000000000000000000000000                    N
51215322700001130624775200061 20250207MG1  01107214030000000000000000000000000000000000000000000000000000                    N
5100005253169652ISENTO        20250211MG1  00066554050000000000000000000000000000000000000000000000000000                    N
5100004537847638ISENTO        20250211MG1  00066654050000000000000000000000000000000000000000000000000000                    N
5100004537847638ISENTO        20250211MG1  00066651020000000000000000000000000000000000000000000000000000                    N
5100004178914669ISENTO        20250211MG1  00066751020000000000000000000000000000000000000000000000000000                    N
5100004178914669ISENTO        20250211MG1  00066754050000000000000000000000000000000000000000000000000000                    N
5100004178914669ISENTO        20250211MG1  00066756560000000000000000000000000000000000000000000000000000                    N
5100071223436691ISENTO        20250211MG1  00066854050000000000000000000000000000000000000000000000000000                    N
5100071223436691ISENTO        20250211MG1  00066851020000000000000000000000000000000000000000000000000000                    N
5100002870034695ISENTO        20250211MG1  00066954050000000000000000000000000000000000000000000000000000                    N
5100014432854634ISENTO        20250211MG1  00067054050000000000000000000000000000000000000000000000000000                    N
5100014432854634ISENTO        20250211MG1  00067051020000000000000000000000000000000000000000000000000000                    N
5100037162799604ISENTO        20250211MG1  00067156560000000000000000000000000000000000000000000000000000                    N
5100037162799604ISENTO        20250211MG1  00067154050000000000000000000000000000000000000000000000000000                    N
5100037162799604ISENTO        20250211MG1  00067151020000000000000000000000000000000000000000000000000000                    N
51215322700001130624775200061 20250213MG1  01116014030000000000000000000000000000000000000000000000000000                    N
5100031678521604ISENTO        20250214MG1  00067251020000000000000000000000000000000000000000000000000000                    N
5100031678521604ISENTO        20250214MG1  00067254050000000000000000000000000000000000000000000000000000                    N
5100001185162640ISENTO        20250214MG1  00067354050000000000000000000000000000000000000000000000000000                    N
5100001185162640ISENTO        20250214MG1  00067351020000000000000000000000000000000000000000000000000000                    N
5100049616897691ISENTO        20250214MG1  00067456560000000000000000000000000000000000000000000000000000                    N
5100049616897691ISENTO        20250214MG1  00067454050000000000000000000000000000000000000000000000000000                    N
5100003185696638ISENTO        20250214MG1  00067556560000000000000000000000000000000000000000000000000000                    N
5100003185696638ISENTO        20250214MG1  00067554050000000000000000000000000000000000000000000000000000                    N
5165139743000192ISENTO        20250218MG1  00067656560000000000000000000000000000000000000000000000000000                    N
5165139743000192ISENTO        20250218MG1  00067651020000000000000000000000000000000000000000000000000000                    N
5165139743000192ISENTO        20250218MG1  00067654050000000000000000000000000000000000000000000000000000                    N
5100011521426660ISENTO        20250218MG1  00067751020000000000000000000000000000000000000000000000000000                    N
5100011521426660ISENTO        20250218MG1  00067754050000000000000000000000000000000000000000000000000000                    N
5100049925652634ISENTO        20250218MG1  00067851020000000000000000000000000000000000000000000000000000                    N
5100049925652634ISENTO        20250218MG1  00067854050000000000000000000000000000000000000000000000000000                    N
5100005431583654ISENTO        20250218MG1  00067951020000000000000000000000000000000000000000000000000000                    N
5100005431583654ISENTO        20250218MG1  00067954050000000000000000000000000000000000000000000000000000                    N
51215322700001130624775200061 20250221MG1  01126714030000000000000000000000000000000000000000000000000000                    N
5100099788306691ISENTO        20250222MG1  00068054050000000000000000000000000000000000000000000000000000                    N
5100016046242649ISENTO        20250222MG1  00068154050000000000000000000000000000000000000000000000000000                    N
5100091577187504ISENTO        20250222MG1  00068254050000000000000000000000000000000000000000000000000000                    N
5100091577187504ISENTO        20250222MG1  00068256560000000000000000000000000000000000000000000000000000                    N
5100091577187504ISENTO        20250222MG1  00068251020000000000000000000000000000000000000000000000000000                    N
5100056703660697ISENTO        20250222MG1  00068354050000000000000000000000000000000000000000000000000000                    N
5100006055005689ISENTO        20250222MG1  00068454050000000000000000000000000000000000000000000000000000                    N
5100006055005689ISENTO        20250222MG1  00068451020000000000000000000000000000000000000000000000000000                    N
5100061814083634ISENTO        20250222MG1  00068551020000000000000000000000000000000000000000000000000000                    N
5100061814083634ISENTO        20250222MG1  00068554050000000000000000000000000000000000000000000000000000                    N
5100002798585660ISENTO        20250222MG1  00068656560000000000000000000000000000000000000000000000000000                    N
5100002798585660ISENTO        20250222MG1  00068654050000000000000000000000000000000000000000000000000000                    N
5100002798585660ISENTO        20250222MG1  00068651020000000000000000000000000000000000000000000000000000                    N
5100071701796600ISENTO        20250222MG1  00068754050000000000000000000000000000000000000000000000000000                    N
5100071701796600ISENTO        20250222MG1  00068756560000000000000000000000000000000000000000000000000000                    N
5100007014083678ISENTO        20250222MG1  00068854050000000000000000000000000000000000000000000000000000                    N
5100007014083678ISENTO        20250222MG1  00068856560000000000000000000000000000000000000000000000000000                    N
5100007014083678ISENTO        20250222MG1  00068851020000000000000000000000000000000000000000000000000000                    N
5100001550153625ISENTO        20250222MG1  00068951020000000000000000000000000000000000000000000000000000                    N
5100001550153625ISENTO        20250222MG1  00068954050000000000000000000000000000000000000000000000000000                    N
5100091577187504ISENTO        20250222MG1  00069054050000000000000000000000000000000000000000000000000000                    N
5100001340790602ISENTO        20250222MG1  00069154050000000000000000000000000000000000000000000000000000                    N
5100090122836634ISENTO        20250222MG1  00069254050000000000000000000000000000000000000000000000000000                    N
5100090122836634ISENTO        20250222MG1  00069251020000000000000000000000000000000000000000000000000000                    N
51436489710053861312885600405 20250225MG1  26360814030000000000000000000000000000000000000000000000000000                    N
51436489710053861312885600405 20250225MG1  26360811020000000000000000000000000000000000000000000000000000                    N
5100037354183172ISENTO        20250228MG1  00069354050000000000000000000000000000000000000000000000000000                    N
5100037354183172ISENTO        20250228MG1  00069351020000000000000000000000000000000000000000000000000000                    N
5100052369692634ISENTO        20250228MG1  00069551020000000000000000000000000000000000000000000000000000                    N
5100052369692634ISENTO        20250228MG1  00069554050000000000000000000000000000000000000000000000000000                    N
5100011287241620ISENTO        20250228MG1  00069651020000000000000000000000000000000000000000000000000000                    N
5100011287241620ISENTO        20250228MG1  00069654050000000000000000000000000000000000000000000000000000                    N
5100073964484687ISENTO        20250228MG1  00069756560000000000000000000000000000000000000000000000000000                    N
5100073964484687ISENTO        20250228MG1  00069754050000000000000000000000000000000000000000000000000000                    N
5100073964484687ISENTO        20250228MG1  00069751020000000000000000000000000000000000000000000000000000                    N
5100073964484687ISENTO        20250228MG1  00069854050000000000000000000000000000000000000000000000000000                    N
5100073964484687ISENTO        20250228MG1  00069851020000000000000000000000000000000000000000000000000000                    N
5100029179122604ISENTO        20250228MG1  00069954050000000000000000000000000000000000000000000000000000                    N
5100029179122604ISENTO        20250228MG1  00069951020000000000000000000000000000000000000000000000000000                    N
5100083866086687ISENTO        20250228MG1  00070054050000000000000000000000000000000000000000000000000000                    N
5100020582200644ISENTO        20250228MG1  00070154050000000000000000000000000000000000000000000000000000                    N
5100020582200644ISENTO        20250228MG1  00070151020000000000000000000000000000000000000000000000000000                    N
5100004415214606ISENTO        20250228MG1  00070251020000000000000000000000000000000000000000000000000000                    N
5100004415214606ISENTO        20250228MG1  00070254050000000000000000000000000000000000000000000000000000                    N
5100004415214606ISENTO        20250228MG1  00070256560000000000000000000000000000000000000000000000000000                    N
5100003447158689ISENTO        20250228MG1  00070356560000000000000000000000000000000000000000000000000000                    N
5100003447158689ISENTO        20250228MG1  00070354050000000000000000000000000000000000000000000000000000                    N
5100053502787549ISENTO        20250228MG1  00070454050000000000000000000000000000000000000000000000000000                    N
5100000123362628ISENTO        20250228MG1  00070556560000000000000000000000000000000000000000000000000000                    N
5100000123362628ISENTO        20250228MG1  00070554050000000000000000000000000000000000000000000000000000                    N
5100000123362628ISENTO        20250228MG1  00070551020000000000000000000000000000000000000000000000000000                    N
5100009103378616ISENTO        20250228MG1  00070656560000000000000000000000000000000000000000000000000000                    N
5100009103378616ISENTO        20250228MG1  00070654050000000000000000000000000000000000000000000000000000                    N
5100009103378616ISENTO        20250228MG1  00070651020000000000000000000000000000000000000000000000000000                    N
5100009576375860ISENTO        20250228MG1  00070754050000000000000000000000000000000000000000000000000000                    N
5100009576375860ISENTO        20250228MG1  00070751020000000000000000000000000000000000000000000000000000                    N
5100006329909610ISENTO        20250228MG1  00070856560000000000000000000000000000000000000000000000000000                    N
5100006329909610ISENTO        20250228MG1  00070854050000000000000000000000000000000000000000000000000000                    N
5100006329909610ISENTO        20250228MG1  00070851020000000000000000000000000000000000000000000000000000                    N
5100056331550682ISENTO        20250228MG1  00070954050000000000000000000000000000000000000000000000000000                    N
5100008760208643ISENTO        20250228MG1  00071054050000000000000000000000000000000000000000000000000000                    N
5100008760208643ISENTO        20250228MG1  00071056560000000000000000000000000000000000000000000000000000                    N
5100008760208643ISENTO        20250228MG1  00071051020000000000000000000000000000000000000000000000000000                    N
5100000123362628ISENTO        20250228MG1  00071154050000000000000000000000000000000000000000000000000000                    N
5100006008371658ISENTO        20250228MG1  00071251020000000000000000000000000000000000000000000000000000                    N
5100006008371658ISENTO        20250228MG1  00071254050000000000000000000000000000000000000000000000000000                    N
5300061814121668ISENTO        20250206MG551  0006645405P000000000000000000000000000000000000000N                              
5300005253169652ISENTO        20250211MG551  0006655405P000000000000000000000000000000000000000N                              
5300031678521604ISENTO        20250214MG551  0006725405P000000000000000000000000000000000000000N                              
5300031678521604ISENTO        20250214MG551  0006725102P000000000000000000000000000000000000000N                              
5365139743000192ISENTO        20250218MG551  0006765405P000000000000000000000000000000000000000N                              
5365139743000192ISENTO        20250218MG551  0006765656P000000000000000000000000000000000000000N                              
5365139743000192ISENTO        20250218MG551  0006765102P000000000000000000000000000000000000000N                              
5300004537847638ISENTO        20250211MG551  0006665405P000000000000000000000000000000000000000N                              
5300004537847638ISENTO        20250211MG551  0006665102P000000000000000000000000000000000000000N                              
5300099788306691ISENTO        20250222MG551  0006805405P000000000000000000000000000000000000000N                              
5300001185162640ISENTO        20250214MG551  0006735405P000000000000000000000000000000000000000N                              
5300001185162640ISENTO        20250214MG551  0006735102P000000000000000000000000000000000000000N                              
5300004178914669ISENTO        20250211MG551  0006675405P000000000000000000000000000000000000000N                              
5300004178914669ISENTO        20250211MG551  0006675656P000000000000000000000000000000000000000N                              
5300004178914669ISENTO        20250211MG551  0006675102P000000000000000000000000000000000000000N                              
5300071223436691ISENTO        20250211MG551  0006685405P000000000000000000000000000000000000000N                              
5300071223436691ISENTO        20250211MG551  0006685102P000000000000000000000000000000000000000N                              
5300037354183172ISENTO        20250228MG551  0006935405P000000000000000000000000000000000000000N                              
5300037354183172ISENTO        20250228MG551  0006935102P000000000000000000000000000000000000000N                              
5300049616897691ISENTO        20250214MG551  0006745656P000000000000000000000000000000000000000N                              
5300049616897691ISENTO        20250214MG551  0006745405P000000000000000000000000000000000000000N                              
5300002870034695ISENTO        20250211MG551  0006695405P000000000000000000000000000000000000000N                              
5300014432854634ISENTO        20250211MG551  0006705405P000000000000000000000000000000000000000N                              
5300014432854634ISENTO        20250211MG551  0006705102P000000000000000000000000000000000000000N                              
5300011521426660ISENTO        20250218MG551  0006775405P000000000000000000000000000000000000000N                              
5300011521426660ISENTO        20250218MG551  0006775102P000000000000000000000000000000000000000N                              
5300003185696638ISENTO        20250214MG551  0006755656P000000000000000000000000000000000000000N                              
5300003185696638ISENTO        20250214MG551  0006755405P000000000000000000000000000000000000000N                              
5300016046242649ISENTO        20250222MG551  0006815405P000000000000000000000000000000000000000N                              
5300037162799604ISENTO        20250211MG551  0006715656P000000000000000000000000000000000000000N                              
5300037162799604ISENTO        20250211MG551  0006715405P000000000000000000000000000000000000000N                              
5300037162799604ISENTO        20250211MG551  0006715102P000000000000000000000000000000000000000N                              
5300049925652634ISENTO        20250218MG551  0006785405P000000000000000000000000000000000000000N                              
5300049925652634ISENTO        20250218MG551  0006785102P000000000000000000000000000000000000000N                              
5300091577187504ISENTO        20250222MG551  0006825405P000000000000000000000000000000000000000N                              
5300091577187504ISENTO        20250222MG551  0006825656P000000000000000000000000000000000000000N                              
5300091577187504ISENTO        20250222MG551  0006825102P000000000000000000000000000000000000000N                              
5300005431583654ISENTO        20250218MG551  0006795405P000000000000000000000000000000000000000N                              
5300005431583654ISENTO        20250218MG551  0006795102P000000000000000000000000000000000000000N                              
5300056703660697ISENTO        20250222MG551  0006835405P000000000000000000000000000000000000000N                              
5300052369692634ISENTO        20250228MG551  0006955405P000000000000000000000000000000000000000N                              
5300052369692634ISENTO        20250228MG551  0006955102P000000000000000000000000000000000000000N                              
5300006055005689ISENTO        20250222MG551  0006845102P000000000000000000000000000000000000000N                              
5300006055005689ISENTO        20250222MG551  0006845405P000000000000000000000000000000000000000N                              
5300011287241620ISENTO        20250228MG551  0006965405P000000000000000000000000000000000000000N                              
5300011287241620ISENTO        20250228MG551  0006965102P000000000000000000000000000000000000000N                              
5300061814083634ISENTO        20250222MG551  0006855405P000000000000000000000000000000000000000N                              
5300061814083634ISENTO        20250222MG551  0006855102P000000000000000000000000000000000000000N                              
5300002798585660ISENTO        20250222MG551  0006865656P000000000000000000000000000000000000000N                              
5300002798585660ISENTO        20250222MG551  0006865405P000000000000000000000000000000000000000N                              
5300002798585660ISENTO        20250222MG551  0006865102P000000000000000000000000000000000000000N                              
5300071701796600ISENTO        20250222MG551  0006875656P000000000000000000000000000000000000000N                              
5300071701796600ISENTO        20250222MG551  0006875405P000000000000000000000000000000000000000N                              
5300073964484687ISENTO        20250228MG551  0006975656P000000000000000000000000000000000000000N                              
5300073964484687ISENTO        20250228MG551  0006975405P000000000000000000000000000000000000000N                              
5300073964484687ISENTO        20250228MG551  0006975102P000000000000000000000000000000000000000N                              
5300007014083678ISENTO        20250222MG551  0006885656P000000000000000000000000000000000000000N                              
5300007014083678ISENTO        20250222MG551  0006885405P000000000000000000000000000000000000000N                              
5300007014083678ISENTO        20250222MG551  0006885102P000000000000000000000000000000000000000N                              
5300073964484687ISENTO        20250228MG551  0006985405P000000000000000000000000000000000000000N                              
5300073964484687ISENTO        20250228MG551  0006985102P000000000000000000000000000000000000000N                              
5300001550153625ISENTO        20250222MG551  0006895405P000000000000000000000000000000000000000N                              
5300001550153625ISENTO        20250222MG551  0006895102P000000000000000000000000000000000000000N                              
5300091577187504ISENTO        20250222MG551  0006905405P000000000000000000000000000000000000000N                              
5300029179122604ISENTO        20250228MG551  0006995405P000000000000000000000000000000000000000N                              
5300029179122604ISENTO        20250228MG551  0006995102P000000000000000000000000000000000000000N                              
5300001340790602ISENTO        20250222MG551  0006915405P000000000000000000000000000000000000000N                              
5300090122836634ISENTO        20250222MG551  0006925405P000000000000000000000000000000000000000N                              
5300090122836634ISENTO        20250222MG551  0006925102P000000000000000000000000000000000000000N                              
5300083866086687ISENTO        20250228MG551  0007005405P000000000000000000000000000000000000000N                              
5300020582200644ISENTO        20250228MG551  0007015405P000000000000000000000000000000000000000N                              
5300020582200644ISENTO        20250228MG551  0007015102P000000000000000000000000000000000000000N                              
5300004415214606ISENTO        20250228MG551  0007025656P000000000000000000000000000000000000000N                              
5300004415214606ISENTO        20250228MG551  0007025405P000000000000000000000000000000000000000N                              
5300004415214606ISENTO        20250228MG551  0007025102P000000000000000000000000000000000000000N                              
5300003447158689ISENTO        20250228MG551  0007035656P000000000000000000000000000000000000000N                              
5300003447158689ISENTO        20250228MG551  0007035405P000000000000000000000000000000000000000N                              
5300053502787549ISENTO        20250228MG551  0007045405P000000000000000000000000000000000000000N                              
5300000123362628ISENTO        20250228MG551  0007055656P000000000000000000000000000000000000000N                              
5300000123362628ISENTO        20250228MG551  0007055405P000000000000000000000000000000000000000N                              
5300000123362628ISENTO        20250228MG551  0007055102P000000000000000000000000000000000000000N                              
5300009103378616ISENTO        20250228MG551  0007065656P000000000000000000000000000000000000000N                              
5300009103378616ISENTO        20250228MG551  0007065405P000000000000000000000000000000000000000N                              
5300009103378616ISENTO        20250228MG551  0007065102P000000000000000000000000000000000000000N                              
5300009576375860ISENTO        20250228MG551  0007075405P000000000000000000000000000000000000000N                              
5300009576375860ISENTO        20250228MG551  0007075102P000000000000000000000000000000000000000N                              
5300006329909610ISENTO        20250228MG551  0007085656P000000000000000000000000000000000000000N                              
5300006329909610ISENTO        20250228MG551  0007085405P000000000000000000000000000000000000000N                              
5300006329909610ISENTO        20250228MG551  0007085102P000000000000000000000000000000000000000N                              
5300056331550682ISENTO        20250228MG551  0007095405P000000000000000000000000000000000000000N                              
5300008760208643ISENTO        20250228MG551  0007105656P000000000000000000000000000000000000000N                              
5300008760208643ISENTO        20250228MG551  0007105405P000000000000000000000000000000000000000N                              
5300008760208643ISENTO        20250228MG551  0007105102P000000000000000000000000000000000000000N                              
5300000123362628ISENTO        20250228MG551  0007115405P000000000000000000000000000000000000000N                              
5300006008371658ISENTO        20250228MG551  0007125405P000000000000000000000000000000000000000N                              
5300006008371658ISENTO        20250228MG551  0007125102P000000000000000000000000000000000000000N                              
53215322700001130624775200061 20250207MG551  0110721403T000000000000000000000000000000000000000N                              
53215322700001130624775200061 20250213MG551  0111601403T000000000000000000000000000000000000000N                              
53215322700001130624775200061 20250221MG551  0112671403T000000000000000000000000000000000000000N                              
53436489710053861312885600405 20250225MG551  2636081102T000000000000000000000000000000000000000N                              
53436489710053861312885600405 20250225MG551  2636081403T000000000000000000000000000000000000000N                              
5400000123362628551  0007055656500001887           000000040000000000176000000000000000000000000000000000000000000000000000000
5400000123362628551  0007055405500002680           000000010000000000038000000000000000000000000000000000000000000000000000000
5400000123362628551  0007055405500003666           000000010000000000086000000000000000000000000000000000000000000000000000000
5400000123362628551  00070554055000041611          000000010000000000035000000000000000000000000000000000000000000000000000000
5400000123362628551  00070554055000051537          000000010000000000315000000000000000000000000000000000000000000000000000000
5400000123362628551  00070551021020061459          000000010000000000035000000000000000000000000000000000000000000000000000000
5400000123362628551  0007055405500007509           000000020000000000068000000000000000000000000000000000000000000000000000000
5400000123362628551  0007055405500008690           000000020000000000060000000000000000000000000000000000000000000000000000000
5400000123362628551  0007055405500009689           000000020000000000058000000000000000000000000000000000000000000000000000000
5400000123362628551  0007115405500001810           000000010000000000119000000000000000000000000000000000000000000000000000000
5400000123362628551  00071154055000021213          000000020000000000344000000000000000000000000000000000000000000000000000000
5400000123362628551  0007115405500003797           000000010000000000158000000000000000000000000000000000000000000000000000000
5400000123362628551  00071154055000041464          000000020000000000424000000000000000000000000000000000000000000000000000000
5400000123362628551  0007115405500005971           000000010000000000072000000000000000000000000000000000000000000000000000000
5400000123362628551  0007115405500006815           000000020000000000128000000000000000000000000000000000000000000000000000000
5400000123362628551  00071154055000071639          000000010000000000198000000000000000000000000000000000000000000000000000000
5400000123362628551  0007115405500008916           000000020000000000080000000000000000000000000000000000000000000000000000000
5400000123362628551  0007115405500009689           000000010000000000030000000000000000000000000000000000000000000000000000000
5400001185162640551  0006735405500001855           000000040000000000184000000000000000000000000000000000000000000000000000000
5400001185162640551  0006735405500002829           000000010000000000028000000000000000000000000000000000000000000000000000000
5400001185162640551  00067354055000031268          000000010000000000036000000000000000000000000000000000000000000000000000000
5400001185162640551  0006735102102004972           000000010000000000005000000000000000000000000000000000000000000000000000000
5400001185162640551  00067354055000051484          000000010000000000102000000000000000000000000000000000000000000000000000000
5400001185162640551  0006735405500006790           000000020000000000088000000000000000000000000000000000000000000000000000000
5400001340790602551  00069154055000011565          000000005000000000023000000000000000000000000000000000000000000000000000000
5400001550153625551  0006895405500001633           000000040000000000232000000000000000000000000000000000000000000000000000000
5400001550153625551  00068954055000021542          000000010000000000028000000000000000000000000000000000000000000000000000000
5400001550153625551  00068954055000031607          000000010000000000064000000000000000000000000000000000000000000000000000000
5400001550153625551  0006895102102004972           000000010000000000005000000000000000000000000000000000000000000000000000000
5400002798585660551  00068656565000011260          000000030000000000132000000000000000000000000000000000000000000000000000000
5400002798585660551  0006865405500002745           000000010000000000035000000000000000000000000000000000000000000000000000000
5400002798585660551  0006865102102003972           000000010000000000005000000000000000000000000000000000000000000000000000000
5400002798585660551  00068654055000041504          000000020000000000024000000000000000000000000000000000000000000000000000000
5400002870034695551  0006695405500001915           000000035000000000154000000000000000000000000000000000000000000000000000000
5400002870034695551  0006695405500002745           000000010000000000035000000000000000000000000000000000000000000000000000000
5400002870034695551  00066954055000031420          000000010000000000046000000000000000000000000000000000000000000000000000000
5400002870034695551  00066954055000041262          000000010000000000165000000000000000000000000000000000000000000000000000000
5400003185696638551  00067556565000011260          000000050000000000220000000000000000000000000000000000000000000000000000000
5400003185696638551  00067554055000021053          000000010000000000016800000000000000000000000000000000000000000000000000000
5400003185696638551  00067554055000031231          000000010000000000074000000000000000000000000000000000000000000000000000000
5400003447158689551  0007035656500001887           000000030000000000132000000000000000000000000000000000000000000000000000000
5400003447158689551  0007035405500002745           000000010000000000034000000000000000000000000000000000000000000000000000000
5400003447158689551  0007035405500003746           000000010000000000044000000000000000000000000000000000000000000000000000000
5400004178914669551  00066754055000011265          000000010000000000106000000000000000000000000000000000000000000000000000000
5400004178914669551  0006675656500002887           000000030000000000132000000000000000000000000000000000000000000000000000000
5400004178914669551  0006675405500003882           000000010000000000026000000000000000000000000000000000000000000000000000000
5400004178914669551  0006675405500004655           000000010000000000035000000000000000000000000000000000000000000000000000000
5400004178914669551  00066754055000051302          000000040000000000088000000000000000000000000000000000000000000000000000000
5400004178914669551  00066754055000061134          000000010000000000126000000000000000000000000000000000000000000000000000000
5400004178914669551  00066751021020071459          000000010000000000035000000000000000000000000000000000000000000000000000000
5400004415214606551  00070256565000011260          000000035000000000154000000000000000000000000000000000000000000000000000000
5400004415214606551  0007025405500002680           000000010000000000038000000000000000000000000000000000000000000000000000000
5400004415214606551  00070254055000031575          000000010000000000035000000000000000000000000000000000000000000000000000000
5400004415214606551  00070254055000041147          000000010000000000087000000000000000000000000000000000000000000000000000000
5400004415214606551  00070251021020051459          000000010000000000035000000000000000000000000000000000000000000000000000000
5400004537847638551  0006665405500001633           000000040000000000232000000000000000000000000000000000000000000000000000000
5400004537847638551  0006665405500002882           000000010000000000026000000000000000000000000000000000000000000000000000000
5400004537847638551  00066654055000031634          000000010000000000056000000000000000000000000000000000000000000000000000000
5400004537847638551  0006665102102004972           000000010000000000005000000000000000000000000000000000000000000000000000000
5400004537847638551  0006665405500005690           000000010000000000030000000000000000000000000000000000000000000000000000000
5400004537847638551  00066651021020061459          000000010000000000035000000000000000000000000000000000000000000000000000000
5400005253169652551  00066554055000011624          000000010000000000725000000000000000000000000000000000000000000000000000000
5400005253169652551  00066554055000021281          000000010000000000056000000000000000000000000000000000000000000000000000000
5400005431583654551  0006795405500001915           000000040000000000176000000000000000000000000000000000000000000000000000000
5400005431583654551  00067954055000021053          000000010000000000034000000000000000000000000000000000000000000000000000000
5400005431583654551  00067954055000031297          000000010000000000036000000000000000000000000000000000000000000000000000000
5400005431583654551  0006795102102004972           000000010000000000016000000000000000000000000000000000000000000000000000000
5400006008371658551  0007125405500001802           000000010000000000342000000000000000000000000000000000000000000000000000000
5400006008371658551  0007125405500002971           000000010000000000072000000000000000000000000000000000000000000000000000000
5400006008371658551  0007125405500003882           000000010000000000026000000000000000000000000000000000000000000000000000000
5400006008371658551  0007125405500004790           000000010000000000044000000000000000000000000000000000000000000000000000000
5400006008371658551  00071251021020051661          000000020000000000014000000000000000000000000000000000000000000000000000000
5400006055005689551  00068451021020011459          000000010000000000035000000000000000000000000000000000000000000000000000000
5400006055005689551  0006845405500002855           000000045000000000207000000000000000000000000000000000000000000000000000000
5400006055005689551  0006845405500003808           000000010000000000138000000000000000000000000000000000000000000000000000000
5400006055005689551  0006845405500004829           000000010000000000028000000000000000000000000000000000000000000000000000000
5400006055005689551  00068454055000051463          000000010000000000052000000000000000000000000000000000000000000000000000000
5400006055005689551  0006845102102006972           000000010000000000016000000000000000000000000000000000000000000000000000000
5400006329909610551  0007085656500001887           000000030000000000132000000000000000000000000000000000000000000000000000000
5400006329909610551  0007085405500002745           000000010000000000034000000000000000000000000000000000000000000000000000000
5400006329909610551  0007085405500003746           000000010000000000045000000000000000000000000000000000000000000000000000000
5400006329909610551  0007085102102004972           000000010000000000005000000000000000000000000000000000000000000000000000000
5400007014083678551  00068856565000011260          000000045000000000198000000000000000000000000000000000000000000000000000000
5400007014083678551  0006885405500002680           000000010000000000036000000000000000000000000000000000000000000000000000000
5400007014083678551  00068854055000031467          000000010000000000054000000000000000000000000000000000000000000000000000000
5400007014083678551  0006885102102004972           000000010000000000005000000000000000000000000000000000000000000000000000000
5400007014083678551  00068851021020051459          000000010000000000035000000000000000000000000000000000000000000000000000000
5400008760208643551  00071056565000011260          000000050000000000220000000000000000000000000000000000000000000000000000000
5400008760208643551  00071054055000021053          000000010000000000036000000000000000000000000000000000000000000000000000000
5400008760208643551  00071054055000031634          000000010000000000078000000000000000000000000000000000000000000000000000000
5400008760208643551  0007105102102004972           000000010000000000016000000000000000000000000000000000000000000000000000000
5400008760208643551  0007105405500005790           000000020000000000088000000000000000000000000000000000000000000000000000000
5400008760208643551  0007105405500006711           000000010000000001169000000000000000000000000000000000000000000000000000000
5400008760208643551  00071051021020071558          000000020000000000048000000000000000000000000000000000000000000000000000000
5400008760208643551  00071051021020081661          000000020000000000014000000000000000000000000000000000000000000000000000000
5400009103378616551  0007065656500001887           000000040000000000176000000000000000000000000000000000000000000000000000000
5400009103378616551  0007065405500002882           000000010000000000026000000000000000000000000000000000000000000000000000000
5400009103378616551  0007065405500003655           000000010000000000034000000000000000000000000000000000000000000000000000000
5400009103378616551  0007065405500004779           000000010000000000029000000000000000000000000000000000000000000000000000000
5400009103378616551  00070654055000051215          000000010000000000089000000000000000000000000000000000000000000000000000000
5400009103378616551  0007065102102006972           000000010000000000016000000000000000000000000000000000000000000000000000000
5400009103378616551  00070654055000071649          000000020000000000636000000000000000000000000000000000000000000000000000000
5400009103378616551  00070654055000081644          000000020000000000178000000000000000000000000000000000000000000000000000000
5400009576375860551  0007075405500001855           000000040000000000184000000000000000000000000000000000000000000000000000000
5400009576375860551  0007075405500002745           000000010000000000034000000000000000000000000000000000000000000000000000000
5400009576375860551  0007075102102003972           000000010000000000016000000000000000000000000000000000000000000000000000000
5400011287241620551  0006965405500001710           000000010000000000102000000000000000000000000000000000000000000000000000000
5400011287241620551  0006965405500002971           000000010000000000074000000000000000000000000000000000000000000000000000000
5400011287241620551  0006965405500003790           000000010000000000044000000000000000000000000000000000000000000000000000000
5400011287241620551  00069651021020041661          000000010000000000007000000000000000000000000000000000000000000000000000000
5400011287241620551  0006965102102005972           000000010000000000008000000000000000000000000000000000000000000000000000000
5400011521426660551  0006775405500001915           000000040000000000176000000000000000000000000000000000000000000000000000000
5400011521426660551  0006775405500002938           000000010000000000035000000000000000000000000000000000000000000000000000000
5400011521426660551  00067754055000031467          000000010000000000054000000000000000000000000000000000000000000000000000000
5400011521426660551  0006775102102004972           000000010000000000005000000000000000000000000000000000000000000000000000000
5400011521426660551  00067751021020051459          000000010000000000035000000000000000000000000000000000000000000000000000000
5400014432854634551  0006705405500001916           000000030000000000120000000000000000000000000000000000000000000000000000000
5400014432854634551  0006705405500002882           000000010000000000026000000000000000000000000000000000000000000000000000000
5400014432854634551  0006705102102003972           000000010000000000006000000000000000000000000000000000000000000000000000000
5400016046242649551  00068154055000011201          000000010000000000068000000000000000000000000000000000000000000000000000000
5400020582200644551  0007015405500001633           000000040000000000232000000000000000000000000000000000000000000000000000000
5400020582200644551  0007015405500002829           000000010000000000028000000000000000000000000000000000000000000000000000000
5400020582200644551  00070154055000031441          000000010000000000044000000000000000000000000000000000000000000000000000000
5400020582200644551  0007015102102004972           000000010000000000016000000000000000000000000000000000000000000000000000000
5421532270000113551  01107214030600011620          000000010000000000511750000000000000000000000000000000071920000000000000000
5421532270000113551  01107214030600021621          000000020000000000731060000000000000000000000000000000000000000000000000000
5421532270000113551  01107214030600031054          000000010000000000012180000000000000000000000000000000000630000000000000000
5421532270000113551  01107214030600041622          000000010000000000134030000000000000000000000000000000017060000000000000000
5421532270000113551  01107214030600051623          000000010000000000134030000000000000000000000000000000016680000000000000000
5421532270000113551  01107214030600061406          000000010000000000386650000000000000000000000000000000055480000000000000000
5421532270000113551  0110721403060007547           000000020000000000172200000000000000000000000000000000014400000000000000000
5421532270000113551  0110721403060008548           000000010000000000101540000000000000000000000000000000012710000000000000000
5421532270000113551  01107214030600091624          000000010000000000535310000000000000000000000000000000065550000000000000000
5421532270000113551  01107214030600101281          000000010000000000041430000000000000000000000000000000004160000000000000000
5421532270000113551  01107214030600111625          000000010000000000015840000000000000000000000000000000001580000000000000000
5421532270000113551  01107214030600121626          000000010000000000160840000000000000000000000000000000019160000000000000000
5421532270000113551  0110721403060013687           000000010000000000116160000000000000000000000000000000009910000000000000000
5421532270000113551  01107214030600141311          000000010000000000052800000000000000000000000000000000000000000000000000000
5421532270000113551  01107214030600151078          000000010000000000077170000000000000000000000000000000009740000000000000000
5421532270000113551  01107214030600161627          000000010000000000060920000000000000000000000000000000010140000000000000000
5421532270000113551  01107214030600171628          000000010000000000276180000000000000000000000000000000032390000000000000000
5421532270000113551  01107214030600181629          000000010000000000018520000000000000000000000000000000001950000000000000000
5421532270000113551  0110721403060019616           000000040000000000060920000000000000000000000000000000007530000000000000000
5421532270000113551  01107214030600201630          000000010000000000186830000000000000000000000000000000000000000000000000000
5421532270000113551  01107214030600211631          000000010000000000077980000000000000000000000000000000013270000000000000000
5421532270000113551  0110721403060022763           000000010000000000037770000000000000000000000000000000007060000000000000000
5421532270000113551  01107214030600231547          000000010000000000026400000000000000000000000000000000004240000000000000000
5421532270000113551  01107214030600241576          000000010000000000056050000000000000000000000000000000000000000000000000000
5421532270000113551  01107214030600251632          000000010000000000032490000000000000000000000000000000002380000000000000000
5421532270000113551  01107214030600261633          000000010000000000025990000000000000000000000000000000003580000000000000000
5421532270000113551  01107214030600271634          000000010000000000051170000000000000000000000000000000008910000000000000000
5421532270000113551  01107214030600281635          000000010000000000014620000000000000000000000000000000001690000000000000000
5421532270000113551  01107214030600291252          000000010000000000020310000000000000000000000000000000002250000000000000000
5421532270000113551  0110721403060030871           000000010000000000034120000000000000000000000000000000000000000000000000000
5421532270000113551  01107214030600311636          000000030000000000064590000000000000000000000000000000011600000000000000000
5421532270000113551  01107214030600321637          000000010000000000027210000000000000000000000000000000004360000000000000000
5421532270000113551  01107214030600331134          000000010000000000099910000000000000000000000000000000013010000000000000000
5421532270000113551  01107214030600341265          000000010000000000080420000000000000000000000000000000009500000000000000000
5421532270000113551  01107214030600351302          000000040000000000057680000000000000000000000000000000002880000000000000000
5421532270000113551  01107214030600361638          000000010000000000075540000000000000000000000000000000009320000000000000000
5421532270000113551  01107214030600371639          000000010000000000134840000000000000000000000000000000011070000000000000000
5421532270000113551  01116014030600011337          000000020000000000028440000000000000000000000000000000001960000000000000000
5421532270000113551  01116014030600021262          000000010000000000121840000000000000000000000000000000015570000000000000000
5421532270000113551  01116014030600031221          000000040000000000092600000000000000000000000000000000012030000000000000000
5421532270000113551  0111601403060004908           000000010000000000315980000000000000000000000000000000042110000000000000000
5421532270000113551  01116014030600051640          000000010000000000064170000000000000000000000000000000007230000000000000000
5421532270000113551  0111601403060006748           000000010000000000020710000000000000000000000000000000000000000000000000000
5421532270000113551  01116014030600071545          000000010000000000093410000000000000000000000000000000012920000000000000000
5421532270000113551  01126714030600011641          000000010000000000036150000000000000000000000000000000003680000000000000000
5421532270000113551  01126714030600021642          000000010000000000095850000000000000000000000000000000000000000000000000000
5421532270000113551  0112671403060003808           000000010000000000104380000000000000000000000000000000012820000000000000000
5421532270000113551  01126714030600041643          000000010000000000486570000000000000000000000000000000082870000000000000000
5421532270000113551  01126714030600051644          000000010000000000051990000000000000000000000000000000006120000000000000000
5421532270000113551  01126714030600061645          000000020000000000469500000000000000000000000000000000057000000000000000000
5421532270000113551  0112671403060007851           000000020000000000333040000000000000000000000000000000038630000000000000000
5421532270000113551  01126714030600081646          000000020000000000365540000000000000000000000000000000043670000000000000000
5421532270000113551  01126714030600091647          000000020000000000058480000000000000000000000000000000005750000000000000000
5421532270000113551  01126714030600101648          000000010000000000044270000000000000000000000000000000003660000000000000000
5421532270000113551  0112671403060011652           000000010000000000040530000000000000000000000000000000004820000000000000000
5421532270000113551  0112671403060012653           000000020000000000027300000000000000000000000000000000002570000000000000000
5421532270000113551  0112671403060013684           000000010000000000396400000000000000000000000000000000000000000000000000000
5421532270000113551  01126714030600141649          000000020000000000479260000000000000000000000000000000056160000000000000000
5421532270000113551  01126714030600151650          000000020000000000146220000000000000000000000000000000015580000000000000000
5421532270000113551  0112671403060016723           000000020000000000077660000000000000000000000000000000005620000000000000000
5421532270000113551  01126714030600171651          000000010000000000074730000000000000000000000000000000000000000000000000000
5421532270000113551  01126714030600181484          000000010000000000066610000000000000000000000000000000000000000000000000000
5421532270000113551  0112671403060019971           000000010000000000052800000000000000000000000000000000006670000000000000000
5421532270000113551  0112671403060020909           000000010000000000674210000000000000000000000000000000000000000000000000000
5421532270000113551  01126714030600211626          000000010000000000160840000000000000000000000000000000019160000000000000000
5421532270000113551  01126714030600221652          000000020000000000025180000000000000000000000000000000001420000000000000000
5421532270000113551  01126714030600231653          000000010000000000053610000000000000000000000000000000005780000000000000000
5421532270000113551  01126714030600241654          000000010000000000035340000000000000000000000000000000000000000000000000000
5400029179122604551  0006995405500001916           000000055000000000220000000000000000000000000000000000000000000000000000000
5400029179122604551  00069954055000021542          000000010000000000044000000000000000000000000000000000000000000000000000000
5400029179122604551  0006995102102003972           000000010000000000005000000000000000000000000000000000000000000000000000000
5400031678521604551  0006725405500001915           000000040000000000176000000000000000000000000000000000000000000000000000000
5400031678521604551  0006725405500002882           000000010000000000026000000000000000000000000000000000000000000000000000000
5400031678521604551  00067254055000031354          000000010000000000054000000000000000000000000000000000000000000000000000000
5400031678521604551  0006725102102004972           000000010000000000005000000000000000000000000000000000000000000000000000000
5400031678521604551  00067251021020051459          000000010000000000035000000000000000000000000000000000000000000000000000000
5400037162799604551  0006715656500001887           000000050000000000220000000000000000000000000000000000000000000000000000000
5400037162799604551  00067154055000021053          000000010000000000036000000000000000000000000000000000000000000000000000000
5400037162799604551  00067154055000031634          000000010000000000072000000000000000000000000000000000000000000000000000000
5400037162799604551  0006715102102004972           000000010000000000016000000000000000000000000000000000000000000000000000000
5400037162799604551  00067151021020051459          000000010000000000035000000000000000000000000000000000000000000000000000000
5400037354183172551  0006935405500001855           000000035000000000161000000000000000000000000000000000000000000000000000000
5400037354183172551  0006935405500002829           000000010000000000028000000000000000000000000000000000000000000000000000000
5400037354183172551  0006935405500003736           000000010000000000028000000000000000000000000000000000000000000000000000000
5400037354183172551  0006935102102004972           000000010000000000005000000000000000000000000000000000000000000000000000000
5400037354183172551  00069354055000051484          000000010000000000098000000000000000000000000000000000000000000000000000000
5400037354183172551  0006935405500006790           000000020000000000088000000000000000000000000000000000000000000000000000000
5443648971005386551  26360811020000011655          000000100000000000040900000000000000000000041750000000000000000000000001800
5443648971005386551  26360814030600021656          000000010000000000106000000000000000000000041750000000000000000000000000000
5443648971005386551  26360811020000031657          000000020000000000739990000000000000000000797040000000000000000000000001800
5443648971005386551  26360811020000041658          000000250000000000075750000000000000000000874360000000000000000000000001800
5443648971005386551  26360811020000051659          000000250000000000072750000000000000000000948610000000000000000000000001800
5443648971005386551  26360811020000061660          000000250000000000087750000000000000000001038170000000000000000000000001800
5443648971005386551  26360811020000071661          000000250000000000079010000000000000000001118810000000000000000000000001800
5443648971005386551  26360811020000081662          000000040000000000042000000000000000000001161680000000000000000000000001800
5443648971005386551  26360811020000091663          000000010000000000085800000000000000000001249250000000000000000000000001800
5400049616897691551  0006745656500001887           000000050000000000220000000000000000000000000000000000000000000000000000000
5400049616897691551  00067454055000021053          000000010000000000034000000000000000000000000000000000000000000000000000000
5400049616897691551  00067454055000031510          000000010000000000036000000000000000000000000000000000000000000000000000000
5400049616897691551  00067454055000041278          000000010000000000016000000000000000000000000000000000000000000000000000000
5400049925652634551  0006785405500001915           000000040000000000120000000000000000000000000000000000000000000000000000000
5400049925652634551  0006785405500002829           000000010000000000028000000000000000000000000000000000000000000000000000000
5400049925652634551  00067854055000031278          000000010000000000016000000000000000000000000000000000000000000000000000000
5400049925652634551  00067851021020041459          000000010000000000035000000000000000000000000000000000000000000000000000000
5400049925652634551  00067854055000051295          000000040000000000108000000000000000000000000000000000000000000000000000000
5400052369692634551  0006955405500001790           000000020000000000088000000000000000000000000000000000000000000000000000000
5400052369692634551  00069551021020021658          000000010000000000007000000000000000000000000000000000000000000000000000000
5400052369692634551  00069551021020031459          000000010000000000035000000000000000000000000000000000000000000000000000000
5400052369692634551  0006955405500004909           000000010000000000698000000000000000000000000000000000000000000000000000000
5400053502787549551  00070454055000011537          000000010000000000392000000000000000000000000000000000000000000000000000000
5400056331550682551  0007095405500001633           000000045000000000261000000000000000000000000000000000000000000000000000000
5400056331550682551  0007095405500002829           000000010000000000028000000000000000000000000000000000000000000000000000000
5400056331550682551  0007095405500003666           000000010000000000099000000000000000000000000000000000000000000000000000000
5400056703660697551  00068354055000011228          000000010000000000132000000000000000000000000000000000000000000000000000000
5400061814083634551  00068554055000011643          000000010000000000664000000000000000000000000000000000000000000000000000000
5400061814083634551  0006855405500002790           000000010000000000044000000000000000000000000000000000000000000000000000000
5400061814083634551  00068551021020031558          000000010000000000033000000000000000000000000000000000000000000000000000000
5400061814121668551  0006645405500001916           000000050000000000210000000000000000000000000000000000000000000000000000000
5400061814121668551  0006645405500002829           000000010000000000034000000000000000000000000000000000000000000000000000000
5400061814121668551  00066454055000031547          000000010000000000039000000000000000000000000000000000000000000000000000000
5465139743000192551  0006765405500001684           000000010000000000526000000000000000000000000000000000000000000000000000000
5465139743000192551  00067654055000021375          000000010000000000098000000000000000000000000000000000000000000000000000000
5465139743000192551  00067654055000031626          000000010000000000211000000000000000000000000000000000000000000000000000000
5465139743000192551  0006765656500004887           000000045000000000198000000000000000000000000000000000000000000000000000000
5465139743000192551  00067654055000051053          000000010000000000034000000000000000000000000000000000000000000000000000000
5465139743000192551  00067654055000061467          000000010000000000046000000000000000000000000000000000000000000000000000000
5465139743000192551  00067654055000071278          000000010000000000016000000000000000000000000000000000000000000000000000000
5465139743000192551  00067651021020081459          000000010000000000035000000000000000000000000000000000000000000000000000000
5400071223436691551  00066854055000011565          000000040000000000184000000000000000000000000000000000000000000000000000000
5400071223436691551  0006685405500002829           000000010000000000026000000000000000000000000000000000000000000000000000000
5400071223436691551  0006685405500003876           000000010000000000036000000000000000000000000000000000000000000000000000000
5400071223436691551  0006685102102004972           000000010000000000005000000000000000000000000000000000000000000000000000000
5400071701796600551  00068756565000011260          000000030000000000132000000000000000000000000000000000000000000000000000000
5400071701796600551  0006875405500002882           000000010000000000026000000000000000000000000000000000000000000000000000000
5400071701796600551  0006875405500003652           000000010000000000064000000000000000000000000000000000000000000000000000000
5400071701796600551  0006875405500004653           000000010000000000024000000000000000000000000000000000000000000000000000000
5400071701796600551  0006875405500005971           000000010000000000074000000000000000000000000000000000000000000000000000000
5400071701796600551  0006875405500006790           000000010000000000044000000000000000000000000000000000000000000000000000000
5400073964484687551  00069756565000011260          000000030000000000132000000000000000000000000000000000000000000000000000000
5400073964484687551  0006975405500002882           000000010000000000020000000000000000000000000000000000000000000000000000000
5400073964484687551  0006975405500003736           000000010000000000034000000000000000000000000000000000000000000000000000000
5400073964484687551  00069751021020041459          000000010000000000035000000000000000000000000000000000000000000000000000000
5400073964484687551  0006985405500001633           000000030000000000174000000000000000000000000000000000000000000000000000000
5400073964484687551  0006985405500002829           000000010000000000028000000000000000000000000000000000000000000000000000000
5400073964484687551  00069854055000031607          000000010000000000054000000000000000000000000000000000000000000000000000000
5400073964484687551  00069851021020041459          000000010000000000035000000000000000000000000000000000000000000000000000000
5400083866086687551  0007005405500001825           000000020000000001252000000000000000000000000000000000000000000000000000000
5400083866086687551  00070054055000021580          000000020000000000152000000000000000000000000000000000000000000000000000000
5400083866086687551  0007005405500003766           000000020000000000238000000000000000000000000000000000000000000000000000000
5400090122836634551  0006925405500001855           000000040000000000184000000000000000000000000000000000000000000000000000000
5400090122836634551  00069254055000021563          000000010000000000028000000000000000000000000000000000000000000000000000000
5400090122836634551  0006925405500003736           000000010000000000034000000000000000000000000000000000000000000000000000000
5400090122836634551  0006925102102004972           000000010000000000005000000000000000000000000000000000000000000000000000000
5400090122836634551  0006925405500005723           000000020000000000110000000000000000000000000000000000000000000000000000000
5400091577187504551  00068254055000011406          000000010000000000422000000000000000000000000000000000000000000000000000000
5400091577187504551  0006825405500002748           000000010000000000042000000000000000000000000000000000000000000000000000000
5400091577187504551  0006825656500003887           000000040000000000176000000000000000000000000000000000000000000000000000000
5400091577187504551  0006825405500004829           000000010000000000028000000000000000000000000000000000000000000000000000000
5400091577187504551  0006825405500005857           000000010000000000019000000000000000000000000000000000000000000000000000000
5400091577187504551  0006825102102006972           000000010000000000005000000000000000000000000000000000000000000000000000000
5400091577187504551  00068254055000071478          000000010000000000062000000000000000000000000000000000000000000000000000000
5400091577187504551  00068254055000081054          000000010000000000016000000000000000000000000000000000000000000000000000000
5400091577187504551  00069054055000011622          000000020000000000484000000000000000000000000000000000000000000000000000000
5400091577187504551  00069054055000021205          000000020000000000632000000000000000000000000000000000000000000000000000000
5400091577187504551  00069054055000031248          000000020000000000450000000000000000000000000000000000000000000000000000000
5400091577187504551  00069054055000041145          000000020000000000088000000000000000000000000000000000000000000000000000000
5400091577187504551  00069054055000051214          000000010000000000062000000000000000000000000000000000000000000000000000000
5400091577187504551  0006905405500006685           000000010000000000069000000000000000000000000000000000000000000000000000000
5400099788306691551  00068054055000011530          000000040000000000092000000000000000000000000000000000000000000000000000000
5400099788306691551  00068054055000021545          000000010000000000128000000000000000000000000000000000000000000000000000000
5400099788306691551  0006805405500003916           000000005000000000020000000000000000000000000000000000000000000000000000000
7520250201202502281053          84219999WOE912                                               PC    000000000000000000000000000
7520250201202502281054          4016930076090-ANEL VEDACAO                                   PC    000000000000000000000000000
7520250201202502281078          87089300511015510-CIL EMBREAGEM                              PC    000000000000000000000000000
7520250201202502281134          85443000SCT65-CABO VELA                                      PC    000000000000000000000000000
7520250201202502281145          87088000MB4028-KIT AMORTECEDOR TRASEIRO                      KI    000000000000000000000000000
7520250201202502281147          84219999LX17803-FILTRO AR                                    PC    000000000000000000000000000
7520250201202502281201          870829198550057-TUBO DAGUA                                   PC    000000000000000000000000000
7520250201202502281205          87088000SP020-AMORT SUSPENSAO DIANT                          PC    000000000000000000000000000
7520250201202502281213          87083090HFCT37-CUBO RODA TRASEIRO                            PC    000000000000000000000000000
7520250201202502281214          87083019P54-PASTILHA FREIO                                   JG    000000000000000000000000000
7520250201202502281215          4016930075022-JUNTA TAMPA VALVULA                            PC    000000000000000000000000000
7520250201202502281221          85111000TR6B10-VELA IGNICAO                                  PC    000000000000000000000000000
7520250201202502281228          40093100197055-MANGUEIRA INFERIOR RADIADOR                   PC    000000000000000000000000000
7520250201202502281231          84219999C2329-FILTRO AR                                      PC    000000000000000000000000000
7520250201202502281248          87088000SP271-AMORT SUSPENSAO TRAS                           PC    000000000000000000000000000
7520250201202502281252          84212300WK6133-FILTRO COMBUSTIVEL                            PC    000000000000000000000000000
7520250201202502281260          27101932RALOY SYNTH PLUS SAE 5W30 API SP - 24/1              LT    000000000000000000000000000
7520250201202502281262          87083019PD1438-PASTILHA FREIO                                JG    000000000000000000000000000
7520250201202502281265          85129000DYS402-PALHETA LIMPADOR                              PC    000000000000000000000000000
7520250201202502281268          84219999C340071-FILTRO AR                                    PC    000000000000000000000000000
7520250201202502281278          401693008642057-ANEL VEDACAO                                 PC    000000000000000000000000000
7520250201202502281281          40093100JM10387RB-MANGUEIRA SUSPIRO AR MOTOR                 PC    000000000000000000000000000
7520250201202502281295          85111000LKR7DDE-VELA IGNICAO                                 PC    000000000000000000000000000
7520250201202502281297          84219999HLP5135-FILTRO AR                                    PC    000000000000000000000000000
7520250201202502281302          8511100046480362-VELA IGNICAO                                PC    000000000000000000000000000
7520250201202502281311          40091100229213-MANGUEIRA BOCAL DO TANQUE                     PC    000000000000000000000000000
7520250201202502281337          40169990SK8285-BUCHA BARRA ESTABILIZADORA                    PC    000000000000000000000000000
7520250201202502281354          84219999HLP1032-FILTRO AR                                    PC    000000000000000000000000000
7520250201202502281375          84139190VP7020-TAMPA BOMBA ACEL                              PC    000000000000000000000000000
7520250201202502281406          870893003000000782-KIT EMBREAGEM                             JG    000000000000000000000000000
7520250201202502281420          84219999HLP6093-FILTRO AR                                    PC    000000000000000000000000000
7520250201202502281441          84219999C18584-FILTRO AR                                     PC    000000000000000000000000000
7520250201202502281459          38140090DESCARBONIZANTE PRO 300ML/230G                       UN    000000000000000000000000000
7520250201202502281463          84219999C301303-FILTRO AR                                    PC    000000000000000000000000000
7520250201202502281464          87083090BD9612-DISCO FREIO                                   PC    000000000000000000000000000
7520250201202502281467          84219999HLP2346-FILTRO AR                                    PC    000000000000000000000000000
7520250201202502281478          4016930055242412-JUNTA TAMPA VALVULA                         PC    000000000000000000000000000
7520250201202502281484          870899905U0121407-RESERV AGUA RADIADOR                       PC    000000000000000000000000000
7520250201202502281504          8539291012499-LAMPADA                                        PC    000000000000000000000000000
7520250201202502281510          84219999LX4894-FILTRO AR                                     PC    000000000000000000000000000
7520250201202502281530          85111000BKR6E11-VELA IGNICAO                                 PC    000000000000000000000000000
7520250201202502281537          87083019PD1494-PASTILHA FREIO                                PC    000000000000000000000000000
7520250201202502281542          84212300W752-FILTRO OLEO MOTOR                               PC    000000000000000000000000000
7520250201202502281545          85443000SCT09-CABO VELA                                      JG    000000000000000000000000000
7520250201202502281547          85129000S14-PALHETA LIMPADOR                                 PC    000000000000000000000000000
7520250201202502281558          22019000AGUA 3LT KOUBE-AGUA DESMINERALIZADA                  GL    000000000000000000000000000
7520250201202502281563          84212300W7125-FILTRO OLEO MOTOR                              PC    000000000000000000000000000
7520250201202502281565          271019325W40 FS540 SN-OLEO MOTOR                             LT    000000000000000000000000000
7520250201202502281575          84213990LA1477-FILTRO ANTI POLEM                             PC    000000000000000000000000000
7520250201202502281576          84219999ARL1659-FILTRO AR                                    PC    000000000000000000000000000
7520250201202502281580          87088000LT90202-KIT AMORTECEDOR DIANTEIRO                    PC    000000000000000000000000000
7520250201202502281607          84219999LX3696-FILTRO AR                                     PC    000000000000000000000000000
7520250201202502281611          84213990LA142-FILTRO ANTI POLEM                              PC    000000000000000000000000000
7520250201202502281620          87089300620343300-KIT EMBREAGEM                              PC    000000000000000000000000000
7520250201202502281621          870880009347515-AMORT SUSPENSAO DIANT                        PC    000000000000000000000000000
7520250201202502281622          87088000SK110CD-KIT AMORTECEDOR DIANTEIRO                    PC    000000000000000000000000000
7520250201202502281623          87088000SK110CE-KIT AMORTECEDOR DIANTEIRO                    PC    000000000000000000000000000
7520250201202502281624          84099999GTEF3611-CORPO DE BORBOLETA INJ ELETR                PC    000000000000000000000000000
7520250201202502281625          842139901987432072-FILTRO ANTI POLEM                         PC    000000000000000000000000000
7520250201202502281626          4016930075404-JUNTA TAMPA VALVULA                            PC    000000000000000000000000000
7520250201202502281627          87083090ATE7629-CILINDRO RODA                                PC    000000000000000000000000000
7520250201202502281628          87089990SK3164-COXIM MOTOR                                   PC    000000000000000000000000000
7520250201202502281629          84213990LA472-FILTRO ANTI POLEM                              PC    000000000000000000000000000
7520250201202502281630          84835010VKM43053-POLIA ALTERNADOR                            PC    000000000000000000000000000
7520250201202502281631          85129000BSD9-PALHETA LIMPADOR                                JG    000000000000000000000000000
7520250201202502281632          84213990AKX1986-FILTRO ANTI POLEM                            PC    000000000000000000000000000
7520250201202502281633          84213990AKX1970-FILTRO ANTI POLEM                            JG    000000000000000000000000000
7520250201202502281634          84219999C2337-FILTRO AR                                      PC    000000000000000000000000000
7520250201202502281635          84213990LA120-FILTRO ANTI POLEM                              PC    000000000000000000000000000
7520250201202502281636          84212300PSL134-FILTRO OLEO MOTOR                             PC    000000000000000000000000000
7520250201202502281637          85129000AF14-PALHETA LIMPADOR                                PC    000000000000000000000000000
7520250201202502281638          85129000DYSD7-PALHETA LIMPADOR                               JG    000000000000000000000000000
7520250201202502281639          87083019PD771-PASTILHA FREIO                                 JG    000000000000000000000000000
7520250201202502281640          85364100602692-TERMO - INTERRUPTOR                           PC    000000000000000000000000000
7520250201202502281641          87089990VC118B-TUBO DAGUA                                    PC    000000000000000000000000000
7520250201202502281642          40093100196577-MANGUEIRA INFERIOR RADIADOR                   PC    000000000000000000000000000
7520250201202502281643          8413309020256-BOMBA DAGUA                                    PC    000000000000000000000000000
7520250201202502281644          401699900112357-BUCHA BANDEJA                                PC    000000000000000000000000000
7520250201202502281645          87088000SP202-AMORT SUSPENSAO DIANT                          PC    000000000000000000000000000
7520250201202502281646          87088000SK226BS-KIT AMORTECEDOR DIANTEIRO                    PC    000000000000000000000000000
7520250201202502281647          87088000MB4011-KIT AMORTECEDOR TRASEIRO                      JG    000000000000000000000000000
7520250201202502281648          87083019P55-PASTILHA FREIO                                   JG    000000000000000000000000000
7520250201202502281649          87088000SP249-AMORT SUSPENSAO TRAS                           PC    000000000000000000000000000
7520250201202502281650          401699900111712-BUCHA BANDEJA                                PC    000000000000000000000000000
7520250201202502281651          87089990VP7154-TAMPA BOMBA COMB                              PC    000000000000000000000000000
7520250201202502281652          87088000525062-BATENTE AMORTECEDOR                           PC    000000000000000000000000000
7520250201202502281653          870880005312193-BIELETA BARRA ESTABILIZADORA                 PC    000000000000000000000000000
7520250201202502281654          87089990525162K-COIFA HOMOC                                  PC    000000000000000000000000000
7520250201202502281655          39191020FITA ISOLANTE ENERGY PRETA 18MMX10M                  UN    000000000000000000000000000
7520250201202502281656          34024200LIMPADOR UNIVERSAL 5L                                UN    000000000000000000000000000
7520250201202502281657          85131010LANTERNA LED RECARREGAVEL ERGO SATURN                UN    000000000000000000000000000
7520250201202502281658          73269090ABRACADEIRA SEM FIM ZNB 20X32X12                     UN    000000000000000000000000000
7520250201202502281659          73269090ABRACADEIRA SEM FIM ZNB 16X27X12                     UN    000000000000000000000000000
7520250201202502281660          73269090ABRACADEIRA SEM FIM ZNB 32X50X12                     UN    000000000000000000000000000
7520250201202502281661          73269090ABRACADEIRA SEM FIM ZNB 25X40X12                     UN    000000000000000000000000000
7520250201202502281662          39209990EMBALA TUDO 100MMX120M                               UN    000000000000000000000000000
7520250201202502281663          35061090VEDA FLANGE W873 50G                                 UN    000000000000000000000000000
752025020120250228509           38190000DOT4 ATE-OLEO FREIO                                  FR    000000000000000000000000000
752025020120250228547           87083090BD3545-DISCO FREIO                                   PC    000000000000000000000000000
752025020120250228548           87083019PD94-PASTILHA FREIO                                  JG    000000000000000000000000000
752025020120250228616           85111000BR8ES-VELA IGNICAO                                   PC    000000000000000000000000000
752025020120250228633           271019320W20 PRO DS-OLEO MOTOR                               LT    000000000000000000000000000
752025020120250228652           84139190F000TE13S3-TAMPA BOMBA COMB                          PC    000000000000000000000000000
752025020120250228653           39173290DS1506-TUBO FLUXO                                    JG    000000000000000000000000000
752025020120250228655           84219999C17021-FILTRO AR                                     PC    000000000000000000000000000
752025020120250228666           84219999C2330-FILTRO AR                                      PC    000000000000000000000000000
752025020120250228680           84212300W71930-FILTRO OLEO MOTOR                             PC    000000000000000000000000000
752025020120250228684           84133010F000TE11A5-BOMBA COMBUSTIVEL IE                      PC    000000000000000000000000000
752025020120250228685           870880000111526-BUCHA BANDEJA                                PC    000000000000000000000000000
752025020120250228687           87083019P92-PASTILHA FREIO                                   JG    000000000000000000000000000
752025020120250228689           853929107443-LAMPADA                                         PC    000000000000000000000000000
752025020120250228690           853929107440-LAMPADA                                         PC    000000000000000000000000000
752025020120250228710           84818021315187-VALVULA TERMOSTATICA                          PC    000000000000000000000000000
752025020120250228711           8413309046350532-BOMBA DAGUA                                 PC    000000000000000000000000000
752025020120250228723           87088000NAK1068-BIELETA BARRA ESTABILIZADORA                 PC    000000000000000000000000000
752025020120250228736           84219999C22952-FILTRO AR                                     PC    000000000000000000000000000
752025020120250228745           84212300W7013-FILTRO OLEO MOTOR                              PC    000000000000000000000000000
752025020120250228746           84219999C22035-FILTRO AR                                     PC    000000000000000000000000000
752025020120250228748           27101932ISAFLUIDO 556-OLEO CAMBIO                            1/    000000000000000000000000000
752025020120250228763           85129000S26-PALHETA LIMPADOR                                 PC    000000000000000000000000000
752025020120250228766           87088000LT90111-COXIM AMORTECEDOR                            PC    000000000000000000000000000
752025020120250228779           84212300WK6127-FILTRO COMBUSTIVEL                            PC    000000000000000000000000000
752025020120250228790           38200000COOLANT UP-ADITIVO RADIADOR                          PC    000000000000000000000000000
752025020120250228797           8708999050315C-COXIM CAMBIO                                  PC    000000000000000000000000000
752025020120250228802           87089100732353R-RADIADOR AGUA                                PC    000000000000000000000000000
752025020120250228808           87083019PD58-PASTILHA FREIO                                  JG    000000000000000000000000000
752025020120250228810           87089490335300-TERMINAL BARRA DIRECAO                        PC    000000000000000000000000000
752025020120250228815           87088000NAK96002-BIELETA BARRA ESTABILIZADORA                PC    000000000000000000000000000
752025020120250228825           87088000HG33004-AMORT SUSPENSAO DIANT                        PC    000000000000000000000000000
752025020120250228829           84212300W6880-FILTRO OLEO MOTOR                              PC    000000000000000000000000000
752025020120250228851           87088000SP224-AMORT SUSPENSAO TRAS                           PC    000000000000000000000000000
752025020120250228855           271019325W40 MAXI PERFORMANC-OLEO MOTOR                      LT    000000000000000000000000000
752025020120250228857           84219999C290031-FILTRO AR                                    PC    000000000000000000000000000
752025020120250228871           87089990030103485AA-TAMPA OLEO MOTOR                         PC    000000000000000000000000000
752025020120250228876           84219999HLP5053-FILTRO AR                                    PC    000000000000000000000000000
752025020120250228882           84212300W6730-FILTRO OLEO MOTOR                              PC    000000000000000000000000000
752025020120250228887           27101932RALOY ULTRA SYNTH SAE 5W30 API SP - 24/1             LT    000000000000000000000000000
752025020120250228908           870893003000001211-KIT EMBREAGEM                             JG    000000000000000000000000000
752025020120250228909           8413601955243968-BOMBA DAGUA                                 PC    000000000000000000000000000
752025020120250228915           271019325W30 F1 MASTER-OLEO MOTOR                            LT    000000000000000000000000000
752025020120250228916           2710193210W40 GTX-OLEO MOTOR                                 LT    000000000000000000000000000
752025020120250228938           84219999HU8162X-FILTRO OLEO MOTOR                            PC    000000000000000000000000000
752025020120250228971           87089100MF412-RESERV AGUA RADIADOR                           PC    000000000000000000000000000
752025020120250228972           4016999050008048-ANEL VEDACAO                                PC    000000000000000000000000000
90336213140001600034450680073 50000001015100000101530000010154000002957500000144                                             2
90336213140001600034450680073 9900000746                                                                                     2
