10336213140001600034450680073 CRISTINA ISABEL DE CAMPOS          Belo Horizonte                MG31999760132024030120240331331
11Rua Caconde                       00875                      Renascença     31130510VINICIUS MURTA NERY         031934225098
5000007014083678ISENTO        20240306MG551  0000765405P000000005690000000000000000000000000000000000000000000000000569000000N
5000093837151620ISENTO        20240304MG551  0000755405P000000002970000000000000000000000000000000000000000000000000395000000N
5000001441980610ISENTO        20240306MG551  0000775405P000000000520000000000000000000000000000000000000000000000000052000000N
5000055652042672ISENTO        20240309MG551  0000815405P000000007710000000000000000000000000000000000000000000000001427000000N
5000055978606668ISENTO        20240311MG551  0000835405P000000000550000000000000000000000000000000000000000000000000055000000N
5000080097227668ISENTO        20240306MG551  0000785405P000000001890000000000000000000000000000000000000000000000000189000000N
5000061125946687ISENTO        20240306MG551  0000795405P000000002270000000000000000000000000000000000000000000000000356000000N
5000010835151603ISENTO        20240312MG551  0000845405P000000003720000000000000000000000000000000000000000000000000372000000N
5000000263832686ISENTO        20240321MG551  0000895405P000000012640000000000000000000000000000000000000000000000003348000000N
5000061125946687ISENTO        20240308MG551  0000805405P000000001960000000000000000000000000000000000000000000000000196000000N
502654990600015328646120058   20240312MG551  0000855405P000000005780000000000000000000000000000000000000000000000001704000000N
5000039099261691ISENTO        20240325MG551  0001085405P000000004640000000000000000000000000000000000000000000000000782000000N
5000005023719600ISENTO        20240322MG551  0001075405P000000003190000000000000000000000000000000000000000000000000501000000N
5000008527048604ISENTO        20240321MG551  0000905405P000000011860000000000000000000000000000000000000000000000001476000000N
5000003447158689ISENTO        20240312MG551  0000875405P000000003640000000000000000000000000000000000000000000000001128000000N
5000005691927655ISENTO        20240312MG551  0000885405P000000001750000000000000000000000000000000000000000000000000311000000N
5000005685960646ISENTO        20240321MG551  0000915405P000000004980000000000000000000000000000000000000000000000000498000000N
5000004300672679ISENTO        20240325MG551  0001095405P000000000780000000000000000000000000000000000000000000000000078000000N
5000005697069634ISENTO        20240325MG551  0001105405P000000000640000000000000000000000000000000000000000000000000106000000N
5000011818958635ISENTO        20240321MG551  0000925405P000000000780000000000000000000000000000000000000000000000000112000000N
5000007711668694ISENTO        20240321MG551  0000935405P000000002460000000000000000000000000000000000000000000000000246000000N
5000004402062608ISENTO        20240321MG551  0000945405P000000000560000000000000000000000000000000000000000000000000056000000N
5000029267838172ISENTO        20240325MG551  0001115405P000000003020000000000000000000000000000000000000000000000000690000000N
5000021780064691ISENTO        20240321MG551  0000955405P000000003220000000000000000000000000000000000000000000000000580000000N
5000099788306691ISENTO        20240325MG551  0001125405P000000000950000000000000000000000000000000000000000000000000161000000N
5000005685960646ISENTO        20240321MG551  0000965405P000000003760000000000000000000000000000000000000000000000000614000000N
5000019558074691ISENTO        20240321MG551  0000975405P000000001380000000000000000000000000000000000000000000000000274000000N
5000009103378616ISENTO        20240321MG551  0000985405P000000001815700000000000000000000000000000000000000000000000242090000N
5000011600732607ISENTO        20240321MG551  0000995405P000000008520000000000000000000000000000000000000000000000001320000000N
5000063210029687ISENTO        20240321MG551  0001005405P000000002570000000000000000000000000000000000000000000000000435000000N
5000043857264691ISENTO        20240321MG551  0001015405P000000005940000000000000000000000000000000000000000000000001090000000N
5000002270457692ISENTO        20240321MG551  0001025405P000000002050000000000000000000000000000000000000000000000000205000000N
5000005535736678ISENTO        20240321MG551  0001035405P000000003010000000000000000000000000000000000000000000000000544000000N
5000027533425634ISENTO        20240321MG551  0001045405P000000000460000000000000000000000000000000000000000000000000046000000N
5000008442351647ISENTO        20240321MG551  0001055405P000000000300000000000000000000000000000000000000000000000000030000000N
5000056331550682ISENTO        20240321MG551  0001065405P000000002610000000000000000000000000000000000000000000000000261000000N
50215322700001130624775200061 20240301MG551  0083731403T000000019315600000000000000000000000000000000000000000000000000000000N
50215322700001130624775200061 20240308MG551  0084091403T000000012026300000000000000000000000000000000000000000000000000000000N
50215322700001130624775200061 20240320MG551  0084631403T000000063282100000000000000000000000000000000000000000000000000000000N
50215322700001130624775200061 20240328MG551  0085411403T000000039964900000000000000000000000000000000000000000000000000000000N
50215322700001130624775200061 20240328MG551  0085411403T000000039964900000000000000000000000000000000000000000000000000000000N
504444858100010246329510067   20240321MG551  0004195655T000000050899200000000000000000000000000000000000000000000007634880000N
51215322700001130624775200061 20240301MG1  00837314030000000000000000000000000000000000000000000000000000                    N
5100093837151620ISENTO        20240304MG1  00007554050000000000000000000000000000000000000000000000000000                    N
5100007014083678ISENTO        20240306MG1  00007654050000000000000000000000000000000000000000000000000000                    N
5100001441980610ISENTO        20240306MG1  00007754050000000000000000000000000000000000000000000000000000                    N
5100080097227668ISENTO        20240306MG1  00007854050000000000000000000000000000000000000000000000000000                    N
5100061125946687ISENTO        20240306MG1  00007954050000000000000000000000000000000000000000000000000000                    N
51215322700001130624775200061 20240308MG1  00840914030000000000000000000000000000000000000000000000000000                    N
5100061125946687ISENTO        20240308MG1  00008054050000000000000000000000000000000000000000000000000000                    N
5100055652042672ISENTO        20240309MG1  00008154050000000000000000000000000000000000000000000000000000                    N
5100055978606668ISENTO        20240311MG1  00008354050000000000000000000000000000000000000000000000000000                    N
5100010835151603ISENTO        20240312MG1  00008454050000000000000000000000000000000000000000000000000000                    N
512654990600015328646120058   20240312MG1  00008554050000000000000000000000000000000000000000000000000000                    N
5100003447158689ISENTO        20240312MG1  00008754050000000000000000000000000000000000000000000000000000                    N
5100005691927655ISENTO        20240312MG1  00008854050000000000000000000000000000000000000000000000000000                    N
51215322700001130624775200061 20240320MG1  00846314030000000000000000000000000000000000000000000000000000                    N
514444858100010246329510067   20240321MG1  00041956550000000000000000000000000000000000000000000000000000                    N
5100000263832686ISENTO        20240321MG1  00008954050000000000000000000000000000000000000000000000000000                    N
5100008527048604ISENTO        20240321MG1  00009054050000000000000000000000000000000000000000000000000000                    N
5100005685960646ISENTO        20240321MG1  00009154050000000000000000000000000000000000000000000000000000                    N
5100011818958635ISENTO        20240321MG1  00009254050000000000000000000000000000000000000000000000000000                    N
5100007711668694ISENTO        20240321MG1  00009354050000000000000000000000000000000000000000000000000000                    N
5100004402062608ISENTO        20240321MG1  00009454050000000000000000000000000000000000000000000000000000                    N
5100021780064691ISENTO        20240321MG1  00009554050000000000000000000000000000000000000000000000000000                    N
5100005685960646ISENTO        20240321MG1  00009654050000000000000000000000000000000000000000000000000000                    N
5100019558074691ISENTO        20240321MG1  00009754050000000000000000000000000000000000000000000000000000                    N
5100009103378616ISENTO        20240321MG1  00009854050000000000000000000000000000000000000000000000000000                    N
5100011600732607ISENTO        20240321MG1  00009954050000000000000000000000000000000000000000000000000000                    N
5100063210029687ISENTO        20240321MG1  00010054050000000000000000000000000000000000000000000000000000                    N
5100043857264691ISENTO        20240321MG1  00010154050000000000000000000000000000000000000000000000000000                    N
5100002270457692ISENTO        20240321MG1  00010254050000000000000000000000000000000000000000000000000000                    N
5100005535736678ISENTO        20240321MG1  00010354050000000000000000000000000000000000000000000000000000                    N
5100027533425634ISENTO        20240321MG1  00010454050000000000000000000000000000000000000000000000000000                    N
5100008442351647ISENTO        20240321MG1  00010554050000000000000000000000000000000000000000000000000000                    N
5100056331550682ISENTO        20240321MG1  00010654050000000000000000000000000000000000000000000000000000                    N
5100005023719600ISENTO        20240322MG1  00010754050000000000000000000000000000000000000000000000000000                    N
5100039099261691ISENTO        20240325MG1  00010854050000000000000000000000000000000000000000000000000000                    N
5100004300672679ISENTO        20240325MG1  00010954050000000000000000000000000000000000000000000000000000                    N
5100005697069634ISENTO        20240325MG1  00011054050000000000000000000000000000000000000000000000000000                    N
5100029267838172ISENTO        20240325MG1  00011154050000000000000000000000000000000000000000000000000000                    N
5100099788306691ISENTO        20240325MG1  00011254050000000000000000000000000000000000000000000000000000                    N
51215322700001130624775200061 20240328MG1  00854114030000000000000000000000000000000000000000000000000000                    N
51215322700001130624775200061 20240328MG1  00854114030000000000000000000000000000000000000000000000000000                    N
5300007014083678ISENTO        20240306MG551  0000765405P000000000000000000000000000000000000000N                              
5300093837151620ISENTO        20240304MG551  0000755405P000000000000000000000000000000000000000N                              
5300001441980610ISENTO        20240306MG551  0000775405P000000000000000000000000000000000000000N                              
5300055652042672ISENTO        20240309MG551  0000815405P000000000000000000000000000000000000000N                              
5300055978606668ISENTO        20240311MG551  0000835405P000000000000000000000000000000000000000N                              
5300080097227668ISENTO        20240306MG551  0000785405P000000000000000000000000000000000000000N                              
5300061125946687ISENTO        20240306MG551  0000795405P000000000000000000000000000000000000000N                              
5300010835151603ISENTO        20240312MG551  0000845405P000000000000000000000000000000000000000N                              
5300000263832686ISENTO        20240321MG551  0000895405P000000000000000000000000000000000000000N                              
5300061125946687ISENTO        20240308MG551  0000805405P000000000000000000000000000000000000000N                              
532654990600015328646120058   20240312MG551  0000855405P000000000000000000000000000000000000000N                              
5300039099261691ISENTO        20240325MG551  0001085405P000000000000000000000000000000000000000N                              
5300005023719600ISENTO        20240322MG551  0001075405P000000000000000000000000000000000000000N                              
5300008527048604ISENTO        20240321MG551  0000905405P000000000000000000000000000000000000000N                              
5300003447158689ISENTO        20240312MG551  0000875405P000000000000000000000000000000000000000N                              
5300005691927655ISENTO        20240312MG551  0000885405P000000000000000000000000000000000000000N                              
5300005685960646ISENTO        20240321MG551  0000915405P000000000000000000000000000000000000000N                              
5300004300672679ISENTO        20240325MG551  0001095405P000000000000000000000000000000000000000N                              
5300005697069634ISENTO        20240325MG551  0001105405P000000000000000000000000000000000000000N                              
5300011818958635ISENTO        20240321MG551  0000925405P000000000000000000000000000000000000000N                              
5300007711668694ISENTO        20240321MG551  0000935405P000000000000000000000000000000000000000N                              
5300004402062608ISENTO        20240321MG551  0000945405P000000000000000000000000000000000000000N                              
5300029267838172ISENTO        20240325MG551  0001115405P000000000000000000000000000000000000000N                              
5300021780064691ISENTO        20240321MG551  0000955405P000000000000000000000000000000000000000N                              
5300099788306691ISENTO        20240325MG551  0001125405P000000000000000000000000000000000000000N                              
5300005685960646ISENTO        20240321MG551  0000965405P000000000000000000000000000000000000000N                              
5300019558074691ISENTO        20240321MG551  0000975405P000000000000000000000000000000000000000N                              
5300009103378616ISENTO        20240321MG551  0000985405P000000000000000000000000000000000000000N                              
5300011600732607ISENTO        20240321MG551  0000995405P000000000000000000000000000000000000000N                              
5300063210029687ISENTO        20240321MG551  0001005405P000000000000000000000000000000000000000N                              
5300043857264691ISENTO        20240321MG551  0001015405P000000000000000000000000000000000000000N                              
5300002270457692ISENTO        20240321MG551  0001025405P000000000000000000000000000000000000000N                              
5300005535736678ISENTO        20240321MG551  0001035405P000000000000000000000000000000000000000N                              
5300027533425634ISENTO        20240321MG551  0001045405P000000000000000000000000000000000000000N                              
5300008442351647ISENTO        20240321MG551  0001055405P000000000000000000000000000000000000000N                              
5300056331550682ISENTO        20240321MG551  0001065405P000000000000000000000000000000000000000N                              
53215322700001130624775200061 20240301MG551  0083731403T000000000000000000000000000000000000000N                              
53215322700001130624775200061 20240308MG551  0084091403T000000000000000000000000000000000000000N                              
53215322700001130624775200061 20240320MG551  0084631403T000000000000000000000000000000000000000N                              
53215322700001130624775200061 20240328MG551  0085411403T000000000000000000000000000000000000000N                              
53215322700001130624775200061 20240328MG551  0085411403T000000000000000000000000000000000000000N                              
534444858100010246329510067   20240321MG551  0004195655T000000000000000000000000000000000000000N                              
5400007014083678551  0000765405500001824           000000010000000000569000000000000000000000000000000000000000000000000000000
5400093837151620551  0000755405500001515           000000040000000000098000000000000000000000000000000000000000000000000000000
5400093837151620551  0000755405500002750           000000010000000000199000000000000000000000000000000000000000000000000000000
5400001441980610551  0000775405500001816           000000020000000000052000000000000000000000000000000000000000000000000000000
5400055652042672551  0000815405500001701           000000080000000000656000000000000000000000000000000000000000000000000000000
5400055652042672551  0000815405500002671           000000010000000000115000000000000000000000000000000000000000000000000000000
5400055978606668551  0000835405500001578           000000010000000000055000000000000000000000000000000000000000000000000000000
5400080097227668551  0000785405500001538           000000010000000000189000000000000000000000000000000000000000000000000000000
5400061125946687551  0000795405500001777           000000010000000000129000000000000000000000000000000000000000000000000000000
5400061125946687551  0000795405500002707           000000010000000000098000000000000000000000000000000000000000000000000000000
5400010835151603551  0000845405500001826           000000010000000000372000000000000000000000000000000000000000000000000000000
5400000263832686551  0000895405500001765           000000020000000000896000000000000000000000000000000000000000000000000000000
5400000263832686551  0000895405500002766           000000020000000000292000000000000000000000000000000000000000000000000000000
5400000263832686551  0000895405500003836           000000020000000000076000000000000000000000000000000000000000000000000000000
5400061125946687551  0000805405500001750           000000010000000000196000000000000000000000000000000000000000000000000000000
5426549906000153551  0000855405500001581           000000010000000000032000000000000000000000000000000000000000000000000000000
5426549906000153551  0000855405500002834           000000010000000000086000000000000000000000000000000000000000000000000000000
5426549906000153551  0000855405500003833           000000080000000000156000000000000000000000000000000000000000000000000000000
5426549906000153551  0000855405500004803           000000020000000000024000000000000000000000000000000000000000000000000000000
5426549906000153551  0000855405500005804           000000010000000000106000000000000000000000000000000000000000000000000000000
5426549906000153551  0000855405500006805           000000020000000000174000000000000000000000000000000000000000000000000000000
5400039099261691551  0001085405500001695           000000020000000000318000000000000000000000000000000000000000000000000000000
5400039099261691551  0001085405500002808           000000010000000000146000000000000000000000000000000000000000000000000000000
5400005023719600551  0001075405500001661           000000010000000000052000000000000000000000000000000000000000000000000000000
5400005023719600551  0001075405500002525           000000010000000000078000000000000000000000000000000000000000000000000000000
5400005023719600551  0001075405500003520           000000010000000000189000000000000000000000000000000000000000000000000000000
5400008527048604551  0000905405500001766           000000020000000000290000000000000000000000000000000000000000000000000000000
5400008527048604551  0000905405500002765           000000020000000000896000000000000000000000000000000000000000000000000000000
5400003447158689551  0000875405500001807           000000020000000000148000000000000000000000000000000000000000000000000000000
5400003447158689551  0000875405500002751           000000020000000000138000000000000000000000000000000000000000000000000000000
5400003447158689551  0000875405500003746           000000010000000000044000000000000000000000000000000000000000000000000000000
5400003447158689551  0000875405500004559           000000010000000000034000000000000000000000000000000000000000000000000000000
5400005691927655551  0000885405500001828           000000010000000000136000000000000000000000000000000000000000000000000000000
5400005691927655551  0000885405500002827           000000010000000000039000000000000000000000000000000000000000000000000000000
5400005685960646551  0000915405500001854           000000010000000000498000000000000000000000000000000000000000000000000000000
5400004300672679551  0001095405500001744           000000010000000000078000000000000000000000000000000000000000000000000000000
5400005697069634551  0001105405500001763           000000010000000000042000000000000000000000000000000000000000000000000000000
5400005697069634551  0001105405500002708           000000010000000000022000000000000000000000000000000000000000000000000000000
5400011818958635551  0000925405500001829           000000010000000000034000000000000000000000000000000000000000000000000000000
5400011818958635551  0000925405500002735           000000010000000000044000000000000000000000000000000000000000000000000000000
5400007711668694551  0000935405500001856           000000020000000000246000000000000000000000000000000000000000000000000000000
5400004402062608551  0000945405500001858           000000010000000000056000000000000000000000000000000000000000000000000000000
5400029267838172551  0001115405500001769           000000020000000000178000000000000000000000000000000000000000000000000000000
5400029267838172551  0001115405500002770           000000010000000000032000000000000000000000000000000000000000000000000000000
5400029267838172551  0001115405500003771           000000010000000000092000000000000000000000000000000000000000000000000000000
5400021780064691551  0000955405500001842           000000020000000000258000000000000000000000000000000000000000000000000000000
5400021780064691551  0000955405500002509           000000020000000000064000000000000000000000000000000000000000000000000000000
5400099788306691551  0001125405500001652           000000010000000000066000000000000000000000000000000000000000000000000000000
5400099788306691551  0001125405500002653           000000010000000000029000000000000000000000000000000000000000000000000000000
5400005685960646551  0000965405500001844           000000010000000000238000000000000000000000000000000000000000000000000000000
5400005685960646551  0000965405500002665           000000010000000000138000000000000000000000000000000000000000000000000000000
5400019558074691551  0000975405500001835           000000010000000000032000000000000000000000000000000000000000000000000000000
5400019558074691551  0000975405500002513           000000020000000000072000000000000000000000000000000000000000000000000000000
5400019558074691551  0000975405500003709           000000010000000000034000000000000000000000000000000000000000000000000000000
5400009103378616551  0000985405500001509           000000020000000000064000000000003480000000000000000000000000000000000000000
5400009103378616551  0000985405500002840           000000020000000000128000000000006950000000000000000000000000000000000000000
5400011600732607551  0000995405500001773           000000020000000000128000000000000000000000000000000000000000000000000000000
5400011600732607551  0000995405500002697           000000010000000000212000000000000000000000000000000000000000000000000000000
5400011600732607551  0000995405500003841           000000020000000000512000000000000000000000000000000000000000000000000000000
5400063210029687551  0001005405500001845           000000020000000000178000000000000000000000000000000000000000000000000000000
5400063210029687551  0001005405500002846           000000010000000000079000000000000000000000000000000000000000000000000000000
5400043857264691551  0001015405500001851           000000020000000000496000000000000000000000000000000000000000000000000000000
5400043857264691551  0001015405500002852           000000020000000000098000000000000000000000000000000000000000000000000000000
5400002270457692551  0001025405500001850           000000010000000000205000000000000000000000000000000000000000000000000000000
5400005535736678551  0001035405500001855           000000045000000000243000000000000000000000000000000000000000000000000000000
5400005535736678551  0001035405500002746           000000010000000000058000000000000000000000000000000000000000000000000000000
5400027533425634551  0001045405500001736           000000010000000000046000000000000000000000000000000000000000000000000000000
5400008442351647551  0001055405500001743           000000010000000000030000000000000000000000000000000000000000000000000000000
5400056331550682551  0001065405500001633           000000045000000000261000000000000000000000000000000000000000000000000000000
5421532270000113551  0083731403060001750           000000010000000000161650000000000000000000000000000000000000000000000000000
5421532270000113551  0083731403060002817           000000010000000000014220000000000000000000000000000000000000000000000000000
5421532270000113551  0083731403060003818           000000010000000000027210000000000000000000000000000000000000000000000000000
5421532270000113551  0083731403060004819           000000010000000000007310000000000000000000000000000000000000000000000000000
5421532270000113551  0083731403060005820           000000010000000000034930000000000000000000000000000000000000000000000000000
5421532270000113551  0083731403060006821           000000010000000000054420000000000000000000000000000000000000000000000000000
5421532270000113551  0083731403060007816           000000020000000000031680000000000000000000000000000000000000000000000000000
5421532270000113551  0083731403060008822           000000010000000000069860000000000000000000000000000000000000000000000000000
5421532270000113551  0083731403060009816           000000020000000000031680000000000000000000000000000000000000000000000000000
5421532270000113551  0083731403060010538           000000010000000000129890000000000000000000000000000000000000000000000000000
5421532270000113551  0083731403060011823           000000010000000000050360000000000000000000000000000000000000000000000000000
5421532270000113551  0083731403060012824           000000010000000000332230000000000000000000000000000000000000000000000000000
5421532270000113551  0083731403060013825           000000020000000000430520000000000000000000000000000000000000000000000000000
5421532270000113551  0083731403060014799           000000010000000000158400000000000000000000000000000000000000000000000000000
5421532270000113551  0083731403060015800           000000010000000000158400000000000000000000000000000000000000000000000000000
5421532270000113551  0083731403060016610           000000010000000000046300000000000000000000000000000000000000000000000000000
5421532270000113551  0083731403060017662           000000010000000000109660000000000000000000000000000000000000000000000000000
5421532270000113551  0083731403060018664           000000040000000000082840000000000000000000000000000000000000000000000000000
5421532270000113551  0084091403060001826           000000010000000000272120000000000000000000000000000000000000000000000000000
5421532270000113551  0084091403060002827           000000010000000000025990000000000000000000000000000000000000000000000000000
5421532270000113551  0084091403060003828           000000010000000000103970000000000000000000000000000000000000000000000000000
5421532270000113551  0084091403060004829           000000010000000000024370000000000000000000000000000000003800000000000000000
5421532270000113551  0084091403060005708           000000010000000000017460000000000000000000000000000000000000000000000000000
5421532270000113551  0084091403060006830           000000010000000000043050000000000000000000000000000000000000000000000000000
5421532270000113551  0084091403060007723           000000010000000000040210000000000000000000000000000000000000000000000000000
5421532270000113551  0084091403060008831           000000010000000000098290000000000000000000000000000000000000000000000000000
5421532270000113551  0084091403060009821           000000010000000000054420000000000000000000000000000000000000000000000000000
5421532270000113551  0084091403060010832           000000020000000000093420000000000000000000000000000000000000000000000000000
5421532270000113551  0084091403060011833           000000080000000000113760000000000000000000000000000000013910000000000000000
5421532270000113551  0084091403060012581           000000010000000000022740000000000000000000000000000000000000000000000000000
5421532270000113551  0084091403060013834           000000010000000000061730000000000000000000000000000000000000000000000000000
5421532270000113551  0084091403060014803           000000020000000000012180000000000000000000000000000000000000000000000000000
5421532270000113551  0084091403060015804           000000010000000000077170000000000000000000000000000000000000000000000000000
5421532270000113551  0084091403060016805           000000020000000000129160000000000000000000000000000000000000000000000000000
5421532270000113551  0084091403060017835           000000010000000000012590000000000000000000000000000000000000000000000000000
5421532270000113551  0084631403060001768           000000010000000000066610000000000000000000000000000000000000000000000000000
5421532270000113551  0084631403060002789           000000010000000000129160000000000000000000000000000000000000000000000000000
5421532270000113551  0084631403060003838           000000020000000000042240000000000000000000000000000000000000000000000000000
5421532270000113551  0084631403060004750           000000010000000000161650000000000000000000000000000000000000000000000000000
5421532270000113551  0084631403060005515           000000040000000000077160000000000000000000000000000000000000000000000000000
5421532270000113551  0084631403060006839           000000010000000000062550000000000000000000000000000000000000000000000000000
5421532270000113551  0084631403060007765           000000020000000000685580000000000000000000000000000000089360000000000000000
5421532270000113551  0084631403060008766           000000020000000000203080000000000000000000000000000000020310000000000000000
5421532270000113551  0084631403060009836           000000020000000000051980000000000000000000000000000000000000000000000000000
5421532270000113551  0084631403060010765           000000020000000000685580000000000000000000000000000000089360000000000000000
5421532270000113551  0084631403060011766           000000020000000000203080000000000000000000000000000000020310000000000000000
5421532270000113551  0084631403060012837           000000020000000000051980000000000000000000000000000000000000000000000000000
5421532270000113551  0084631403060013840           000000020000000000090980000000000000000000000000000000000000000000000000000
5421532270000113551  0084631403060014509           000000030000000000067020000000000000000000000000000000000000000000000000000
5421532270000113551  0084631403060015773           000000020000000000099920000000000000000000000000000000012230000000000000000
5421532270000113551  0084631403060016697           000000010000000000153520000000000000000000000000000000000000000000000000000
5421532270000113551  0084631403060017841           000000020000000000415900000000000000000000000000000000052380000000000000000
5421532270000113551  0084631403060018842           000000020000000000194960000000000000000000000000000000000000000000000000000
5421532270000113551  0084631403060019843           000000010000000000013570000000000000000000000000000000000000000000000000000
5421532270000113551  0084631403060020755           000000020000000000079600000000000000000000000000000000000000000000000000000
5421532270000113551  0084631403060021844           000000010000000000140530000000000000000000000000000000000000000000000000000
5421532270000113551  0084631403060022665           000000010000000000145400000000000000000000000000000000000000000000000000000
5421532270000113551  0084631403060023821           000000010000000000054420000000000000000000000000000000000000000000000000000
5421532270000113551  0084631403060024845           000000020000000000133220000000000000000000000000000000000000000000000000000
5421532270000113551  0084631403060025846           000000010000000000054420000000000000000000000000000000000000000000000000000
5421532270000113551  0084631403060026671           000000010000000000071480000000000000000000000000000000000000000000000000000
5421532270000113551  0084631403060027701           000000020000000000110480000000000000000000000000000000000000000000000000000
5421532270000113551  0084631403060028847           000000010000000000129160000000000000000000000000000000000000000000000000000
5421532270000113551  0084631403060029555           000000010000000000055640000000000000000000000000000000000000000000000000000
5421532270000113551  0084631403060030848           000000010000000000006500000000000000000000000000000000000000000000000000000
5421532270000113551  0084631403060031849           000000010000000000034930000000000000000000000000000000000000000000000000000
5421532270000113551  0084631403060032850           000000010000000000129160000000000000000000000000000000000000000000000000000
5421532270000113551  0084631403060033851           000000020000000000362280000000000000000000000000000000000000000000000000000
5421532270000113551  0084631403060034852           000000020000000000064180000000000000000000000000000000000000000000000000000
5421532270000113551  0084631403060035853           000000010000000000057670000000000000000000000000000000000000000000000000000
5421532270000113551  0084631403060036854           000000010000000000337100000000000000000000000000000000000000000000000000000
5421532270000113551  0084631403060037746           000000010000000000040210000000000000000000000000000000000000000000000000000
5421532270000113551  0084631403060038855           000000040000000000167320000000000000000000000000000000000000000000000000000
5421532270000113551  0084631403060039856           000000020000000000178700000000000000000000000000000000000000000000000000000
5421532270000113551  0084631403060040857           000000010000000000021930000000000000000000000000000000002470000000000000000
5421532270000113551  0084631403060041858           000000020000000000081060000000000000000000000000000000000000000000000000000
5421532270000113551  0084631403060042859           000000010000000000280240000000000000000000000000000000000000000000000000000
5421532270000113551  0084631403060043723           000000010000000000040210000000000000000000000000000000000000000000000000000
5421532270000113551  0084631403060044860           000000010000000000095850000000000000000000000000000000000000000000000000000
5421532270000113551  0085411403060001652           000000010000000000043050000000000000000000000000000000004690000000000000000
5421532270000113551  0085411403060002653           000000010000000000013400000000000000000000000000000000001380000000000000000
5421532270000113551  0085411403060003865           000000020000000000227440000000000000000000000000000000019070000000000000000
5421532270000113551  0085411403060004808           000000010000000000103570000000000000000000000000000000011470000000000000000
5421532270000113551  0085411403060005862           000000010000000000082850000000000000000000000000000000012190000000000000000
5421532270000113551  0085411403060006866           000000010000000000030870000000000000000000000000000000000000000000000000000
5421532270000113551  0085411403060007867           000000010000000000028020000000000000000000000000000000002740000000000000000
5421532270000113551  0085411403060008863           000000010000000000190890000000000000000000000000000000000000000000000000000
5421532270000113551  0085411403060009868           000000020000000000160840000000000000000000000000000000018440000000000000000
5421532270000113551  0085411403060010869           000000010000000000337100000000000000000000000000000000000000000000000000000
5421532270000113551  0085411403060011784           000000010000000000216880000000000000000000000000000000030180000000000000000
5421532270000113551  0085411403060012870           000000010000000000190890000000000000000000000000000000000000000000000000000
5421532270000113551  0085411403060013871           000000010000000000031680000000000000000000000000000000000000000000000000000
5421532270000113551  0085411403060014872           000000010000000000079610000000000000000000000000000000008660000000000000000
5421532270000113551  0085411403060015873           000000010000000000048330000000000000000000000000000000006550000000000000000
5421532270000113551  0085411403060016720           000000010000000000121840000000000000000000000000000000000000000000000000000
5421532270000113551  0085411403060017531           000000080000000000052000000000000000000000000000000000000000000000000000000
5421532270000113551  0085411403060018874           000000020000000000063360000000000000000000000000000000000000000000000000000
5421532270000113551  0085411403060019875           000000010000000000030060000000000000000000000000000000000000000000000000000
5421532270000113551  0085411403060020504           000000020000000000026800000000000000000000000000000000003280000000000000000
5421532270000113551  0085411403060021876           000000010000000000025990000000000000000000000000000000000000000000000000000
5421532270000113551  0085411403060022657           000000010000000000021530000000000000000000000000000000000000000000000000000
5421532270000113551  0085411403060023877           000000010000000000109660000000000000000000000000000000000000000000000000000
5421532270000113551  0085411403060024757           000000010000000000117780000000000000000000000000000000000000000000000000000
5421532270000113551  0085411403060025864           000000020000000000165700000000000000000000000000000000024380000000000000000
5421532270000113551  0085411403060026878           000000020000000000152720000000000000000000000000000000000000000000000000000
5421532270000113551  0085411403060027879           000000010000000000203070000000000000000000000000000000000000000000000000000
5421532270000113551  0085411403060028880           000000010000000000017060000000000000000000000000000000001850000000000000000
5421532270000113551  0085411403060029881           000000010000000000021530000000000000000000000000000000000000000000000000000
5421532270000113551  0085411403060030882           000000010000000000017460000000000000000000000000000000002680000000000000000
5421532270000113551  0085411403060031861           000000010000000000190890000000000000000000000000000000000000000000000000000
5421532270000113551  0085411403060032883           000000010000000000054020000000000000000000000000000000004800000000000000000
5421532270000113551  0085411403060033629           000000040000000000085280000000000000000000000000000000000000000000000000000
5421532270000113551  0085411403060034884           000000010000000000614100000000000000000000000000000000000000000000000000000
5421532270000113551  0085411403060035849           000000010000000000034930000000000000000000000000000000000000000000000000000
5421532270000113551  0085411403060036885           000000010000000000059300000000000000000000000000000000000000000000000000000
5421532270000113551  0085411403060037559           000000010000000000025990000000000000000000000000000000003800000000000000000
5421532270000113551  0085411403060001652           000000010000000000043050000000000000000000000000000000004690000000000000000
5421532270000113551  0085411403060002653           000000010000000000013400000000000000000000000000000000001380000000000000000
5421532270000113551  0085411403060003865           000000020000000000227440000000000000000000000000000000019070000000000000000
5421532270000113551  0085411403060004808           000000010000000000103570000000000000000000000000000000011470000000000000000
5421532270000113551  0085411403060005862           000000010000000000082850000000000000000000000000000000012190000000000000000
5421532270000113551  0085411403060006866           000000010000000000030870000000000000000000000000000000000000000000000000000
5421532270000113551  0085411403060007867           000000010000000000028020000000000000000000000000000000002740000000000000000
5421532270000113551  0085411403060008863           000000010000000000190890000000000000000000000000000000000000000000000000000
5421532270000113551  0085411403060009868           000000020000000000160840000000000000000000000000000000018440000000000000000
5421532270000113551  0085411403060010869           000000010000000000337100000000000000000000000000000000000000000000000000000
5421532270000113551  0085411403060011784           000000010000000000216880000000000000000000000000000000030180000000000000000
5421532270000113551  0085411403060012870           000000010000000000190890000000000000000000000000000000000000000000000000000
5421532270000113551  0085411403060013871           000000010000000000031680000000000000000000000000000000000000000000000000000
5421532270000113551  0085411403060014872           000000010000000000079610000000000000000000000000000000008660000000000000000
5421532270000113551  0085411403060015873           000000010000000000048330000000000000000000000000000000006550000000000000000
5421532270000113551  0085411403060016720           000000010000000000121840000000000000000000000000000000000000000000000000000
5421532270000113551  0085411403060017531           000000080000000000052000000000000000000000000000000000000000000000000000000
5421532270000113551  0085411403060018874           000000020000000000063360000000000000000000000000000000000000000000000000000
5421532270000113551  0085411403060019875           000000010000000000030060000000000000000000000000000000000000000000000000000
5421532270000113551  0085411403060020504           000000020000000000026800000000000000000000000000000000003280000000000000000
5421532270000113551  0085411403060021876           000000010000000000025990000000000000000000000000000000000000000000000000000
5421532270000113551  0085411403060022657           000000010000000000021530000000000000000000000000000000000000000000000000000
5421532270000113551  0085411403060023877           000000010000000000109660000000000000000000000000000000000000000000000000000
5421532270000113551  0085411403060024757           000000010000000000117780000000000000000000000000000000000000000000000000000
5421532270000113551  0085411403060025862           000000020000000000165700000000000000000000000000000000024380000000000000000
5421532270000113551  0085411403060026878           000000020000000000152720000000000000000000000000000000000000000000000000000
5421532270000113551  0085411403060027879           000000010000000000203070000000000000000000000000000000000000000000000000000
5421532270000113551  0085411403060028880           000000010000000000017060000000000000000000000000000000001850000000000000000
5421532270000113551  0085411403060029881           000000010000000000021530000000000000000000000000000000000000000000000000000
5421532270000113551  0085411403060030882           000000010000000000017460000000000000000000000000000000002680000000000000000
5421532270000113551  0085411403060031863           000000010000000000190890000000000000000000000000000000000000000000000000000
5421532270000113551  0085411403060032883           000000010000000000054020000000000000000000000000000000004800000000000000000
5421532270000113551  0085411403060033629           000000040000000000085280000000000000000000000000000000000000000000000000000
5421532270000113551  0085411403060034884           000000010000000000614100000000000000000000000000000000000000000000000000000
5421532270000113551  0085411403060035849           000000010000000000034930000000000000000000000000000000000000000000000000000
5421532270000113551  0085411403060036885           000000010000000000059300000000000000000000000000000000000000000000000000000
5421532270000113551  0085411403060037559           000000010000000000025990000000000000000000000000000000003800000000000000000
5444448581000102551  0004195655500001886           000000960000000002544960000000000000000000000000000000287690000000000000000
5444448581000102551  0004195655500002887           000000960000000002544960000000000000000000000000000000318770000000000000000
752024030120240331504           401699900412440-BUCHA BARRA ESTABILIZADORA                   PC    000000000000000000000000000
752024030120240331509           38190000DOT4 ATE-OLEO FREIO                                  FR    000000000000000000000000000
752024030120240331513           27101932SAE80 GL4-OLEO CAMBIO                                PC    000000000000000000000000000
752024030120240331515           85111000BKR7ESB-VELA IGNICAO                                 PC    000000000000000000000000000
752024030120240331520           84213990030103464A-ANTI CHAMA                                PC    000000000000000000000000000
752024030120240331525           40103500CT453HNBR-CORREIA DISTRIBUICAO                       PC    000000000000000000000000000
752024030120240331531           731814002161453-PARAFUSO RODA                                PC    000000000000000000000000000
752024030120240331538           87083019P1492-PASTILHA FREIO                                 PC    000000000000000000000000000
752024030120240331555           85129000B316-PALHETA LIMPADOR                                JG    000000000000000000000000000
752024030120240331559           84212300W8118-FILTRO OLEO MOTOR                              PC    000000000000000000000000000
752024030120240331578           40103500111SP170H-CORREIA DISTRIBUICAO                       PC    000000000000000000000000000
752024030120240331581           4016930075613-JUNTA TAMPA VALVULA                            PC    000000000000000000000000000
752024030120240331610           85129000B056-PALHETA LIMPADOR                                JG    000000000000000000000000000
752024030120240331629           85111000LZKAR7A-VELA IGNICAO                                 PC    000000000000000000000000000
752024030120240331633           271019320W20 PRO DS-OLEO MOTOR                               LT    000000000000000000000000000
752024030120240331652           84139190F000TE13S3-TAMPA BOMBA COMB                          PC    000000000000000000000000000
752024030120240331653           39173290DS1506-TUBO FLUXO                                    JG    000000000000000000000000000
752024030120240331657           84219999HU71151X-FILTRO OLEO MOTOR                           PC    000000000000000000000000000
752024030120240331661           4016930005159BRAGF-RETENTOR VIRABREQUIM - POLIA              PC    000000000000000000000000000
752024030120240331662           85443000SCF30-CABO VELA                                      PC    000000000000000000000000000
752024030120240331664           85111000LTR7A10-VELA IGNICAO                                 PC    000000000000000000000000000
752024030120240331665           8481802155239819-VALVULA TERMOSTATICA                        PC    000000000000000000000000000
752024030120240331671           84212300WFC920-FILTRO CAMBIO AUTOMATICO                      PC    000000000000000000000000000
752024030120240331695           87083090BD5636-DISCO FREIO                                   PC    000000000000000000000000000
752024030120240331697           87085099JHC01115-HOMOC RODA                                  JG    000000000000000000000000000
752024030120240331701           27101932MULTI ATF 500-OLEO CAMBIO                            PC    000000000000000000000000000
752024030120240331707           87089100G1322-RESERV AGUA RADIADOR                           PC    000000000000000000000000000
752024030120240331708           87089990213659G-COIFA HOMOC                                  JG    000000000000000000000000000
752024030120240331709           87089990213659G-COIFA HOMOC                                  JG    000000000000000000000000000
752024030120240331720           84818021MTE37189-VALVULA TERMOSTATICA                        PC    000000000000000000000000000
752024030120240331723           87088000NAK1068-BIELETA BARRA ESTABILIZADORA                 PC    000000000000000000000000000
752024030120240331735           842139900986AF2441-FILTRO AR                                 PC    000000000000000000000000000
752024030120240331736           84219999C22952-FILTRO AR                                     PC    000000000000000000000000000
752024030120240331743           8539211012336-LAMPADA                                        PC    000000000000000000000000000
752024030120240331744           84219999LX4628-FILTRO AR                                     PC    000000000000000000000000000
752024030120240331746           84219999C22035-FILTRO AR                                     PC    000000000000000000000000000
752024030120240331750           85443000STV25-CABO VELA                                      JG    000000000000000000000000000
752024030120240331751           87088000NAK99141-BIELETA BARRA ESTABILIZADORA                PC    000000000000000000000000000
752024030120240331755           87088000BMG09002-AMORT TAMPA TRAS                            PC    000000000000000000000000000
752024030120240331757           85443000SCR16-CABO VELA                                      JG    000000000000000000000000000
752024030120240331763           85129000S26-PALHETA LIMPADOR                                 PC    000000000000000000000000000
752024030120240331765           87088000SP003-AMORT SUSPENSAO DIANT                          PC    000000000000000000000000000
752024030120240331766           87088000LT90111-COXIM AMORTECEDOR                            PC    000000000000000000000000000
752024030120240331768           85129000BSD6-PALHETA LIMPADOR                                JG    000000000000000000000000000
752024030120240331769           85129000DYSD2-PALHETA LIMPADOR                               JG    000000000000000000000000000
752024030120240331770           87089990KV0269-COIFA SEMI EIXO                               JG    000000000000000000000000000
752024030120240331771           870880000441577-KIT AMORTECEDOR DIANTEIRO                    JG    000000000000000000000000000
752024030120240331773           870880000111247-BUCHA BANDEJA                                PC    000000000000000000000000000
752024030120240331777           90261029F000TE106J-SENSOR DE NIVEL DE COMBUSTIVEL            PC    000000000000000000000000000
752024030120240331784           84133010F000TE159A-BOMBA COMBUSTIVEL IE                      PC    000000000000000000000000000
752024030120240331789           8708910095048411-RESERV AGUA RADIADOR                        PC    000000000000000000000000000
752024030120240331799           870899900441141-KIT AMORTECEDOR DIANTEIRO                    PC    000000000000000000000000000
752024030120240331800           870880000441140-KIT AMORTECEDOR DIANTEIRO                    PC    000000000000000000000000000
752024030120240331803           732090002092215-REPARO CENTRALIZADOR PATIM                   PC    000000000000000000000000000
752024030120240331804           87083090FI97CPA-SAPATA FREIO C/ LONA COLADA                  JG    000000000000000000000000000
752024030120240331805           87083090HF36-TAMBOR FREIO                                    PC    000000000000000000000000000
752024030120240331807           87088000SK423S-KIT AMORTECEDOR TRASEIRO                      JG    000000000000000000000000000
752024030120240331808           87083019PD58-PASTILHA FREIO                                  JG    000000000000000000000000000
752024030120240331816           8539211012342-LAMPADA                                        PC    000000000000000000000000000
752024030120240331817           84213990FAC556-FILTRO ANTI POLEM                             PC    000000000000000000000000000
752024030120240331818           4016930002539BRGP-RETENTOR COMANDO VALVULAS                  PC    000000000000000000000000000
752024030120240331819           854430008343253-CHICOTE                                      PC    000000000000000000000000000
752024030120240331820           85334011411280-SENSOR TEMPERATURA I.E.                       PC    000000000000000000000000000
752024030120240331821           87089990FNM089K-CABO EMBREAGEM                               PC    000000000000000000000000000
752024030120240331822           84219999LX3007-FILTRO AR                                     PC    000000000000000000000000000
752024030120240331823           85129000B017-PALHETA LIMPADOR                                PC    000000000000000000000000000
752024030120240331824           87089100RV12577-RADIADOR AGUA                                PC    000000000000000000000000000
752024030120240331825           87088000HG33004-AMORT SUSPENSAO DIANT                        PC    000000000000000000000000000
752024030120240331826           840991900280158231-BICO INJETOR                              PC    000000000000000000000000000
752024030120240331827           39172200087165-TUBO DAGUA                                    PC    000000000000000000000000000
752024030120240331828           84818021VT36182-VALVULA TERMOSTATICA                         PC    000000000000000000000000000
752024030120240331829           84212300W6880-FILTRO OLEO MOTOR                              PC    000000000000000000000000000
752024030120240331830           870880005312143-BIELETA BARRA ESTABILIZADORA                 PC    000000000000000000000000000
752024030120240331831           90261029DS23249-SENSOR DE NIVEL DE COMBUSTIVEL               PC    000000000000000000000000000
752024030120240331832           87088000LT60443-BIELETA BARRA ESTABILIZADORA                 PC    000000000000000000000000000
752024030120240331833           870880000120399-BUCHA BANDEJA                                PC    000000000000000000000000000
752024030120240331834           40091290C9001-MANGUEIRA FILTRO AR                            PC    000000000000000000000000000
752024030120240331835           84841000TAR270515-JUNTA COLETOR ESCAP/ADM                    PC    000000000000000000000000000
752024030120240331836           87088000068843-KIT AMORTECEDOR DIANTEIRO                     PC    000000000000000000000000000
752024030120240331837           87088000068843-KIT AMORTECEDOR DIANTEIRO                     PC    000000000000000000000000000
752024030120240331838           40169990SK8284-BUCHA BARRA ESTABILIZADORA                    PC    000000000000000000000000000
752024030120240331839           87089100G1244-RESERV AGUA RADIADOR                           PC    000000000000000000000000000
752024030120240331840           87083090ATE5516-CILINDRO RODA                                PC    000000000000000000000000000
752024030120240331841           87088000LT90115-KIT AMORTECEDOR DIANTEIRO                    PC    000000000000000000000000000
752024030120240331842           870830900986AB8579-CILINDRO RODA                             PC    000000000000000000000000000
752024030120240331843           84213990FAC554-FILTRO ANTI POLEM                             PC    000000000000000000000000000
752024030120240331844           8484900079409FLEX-JUNTA CABECOTE SUPERIOR                    PC    000000000000000000000000000
752024030120240331845           87083090HF23-DISCO FREIO                                     PC    000000000000000000000000000
752024030120240331846           87083019P82-PASTILHA FREIO                                   JG    000000000000000000000000000
752024030120240331847           84821090XGB41793R02-ROL RODA                                 PC    000000000000000000000000000
752024030120240331848           40169300W1026-JUNTA CARBURADOR                               JG    000000000000000000000000000
752024030120240331849           87089990TC7094-TAMPA RADIADOR AGUA                           PC    000000000000000000000000000
752024030120240331850           85432000MTE70578-SENSOR ROTACAO                              PC    000000000000000000000000000
752024030120240331851           87088000SP224-AMORT SUSPENSAO TRAS                           PC    000000000000000000000000000
752024030120240331852           87088000SK229S-KIT AMORTECEDOR TRASEIRO                      JG    000000000000000000000000000
752024030120240331853           87088000NAK3045-PIVO SUSPENSAO                               PC    000000000000000000000000000
752024030120240331854           8413303010188-BOMBA OLEO MOTOR                               PC    000000000000000000000000000
752024030120240331855           271019325W40 MAXI PERFORMANC-OLEO MOTOR                      LT    000000000000000000000000000
752024030120240331856           87088000503378-PIVO SUSPENSAO                                PC    000000000000000000000000000
752024030120240331857           84219999C290031-FILTRO AR                                    PC    000000000000000000000000000
752024030120240331858           87088000NAK6081-BIELETA BARRA ESTABILIZADORA                 PC    000000000000000000000000000
752024030120240331859           87089990LT50308-BANDEJA SUSP                                 PC    000000000000000000000000000
752024030120240331860           87088000NAK97032-PIVO SUSPENSAO                              PC    000000000000000000000000000
752024030120240331861           84835090VKMA06002B-KIT CORREIA TENSOR                        PC    000000000000000000000000000
752024030120240331862           870830900986AB8653-CILINDRO RODA                             PC    000000000000000000000000000
752024030120240331863           84835090VKMA06002B-KIT CORREIA TENSOR                        PC    000000000000000000000000000
752024030120240331864           870830900986AB8653-CILINDRO RODA                             PC    000000000000000000000000000
752024030120240331865           87083090BD5602-DISCO FREIO                                   PC    000000000000000000000000000
752024030120240331866           870899902028010OR-COIFA HOMOC                                JG    000000000000000000000000000
752024030120240331867           84219999C33661-FILTRO AR                                     PC    000000000000000000000000000
752024030120240331868           87088000503425-PIVO SUSPENSAO                                PC    000000000000000000000000000
752024030120240331869           87089100RV12900-RADIADOR AGUA                                PC    000000000000000000000000000
752024030120240331870           8708999052004316-COXIM CAMBIO                                PC    000000000000000000000000000
752024030120240331871           87089990030103485AA-TAMPA OLEO MOTOR                         PC    000000000000000000000000000
752024030120240331872           87083019P94-PASTILHA FREIO                                   JG    000000000000000000000000000
752024030120240331873           870894820680315-ARTICULACAO CAIXA DIRECAO                    PC    000000000000000000000000000
752024030120240331874           84219999HLP2203-FILTRO AR                                    PC    000000000000000000000000000
752024030120240331875           87089990TC3063-TAMPA RESERVATORIO                            PC    000000000000000000000000000
752024030120240331876           84219999HLP5053-FILTRO AR                                    PC    000000000000000000000000000
752024030120240331877           87083019P1348-PASTILHA FREIO                                 JG    000000000000000000000000000
752024030120240331878           87088000SK8112A-COXIM AMORTECEDOR                            PC    000000000000000000000000000
752024030120240331879           87089990MB9051-COXIM MOTOR                                   PC    000000000000000000000000000
752024030120240331880           84213990LA87-FILTRO ANTI POLEM                               PC    000000000000000000000000000
752024030120240331881           84219999HLP5138-FILTRO AR                                    PC    000000000000000000000000000
752024030120240331882           84212300W6730-FILTRO OLEO MOTOR                              PC    000000000000000000000000000
752024030120240331883           87083019P338-PASTILHA FREIO                                  JG    000000000000000000000000000
752024030120240331884           87089100RE14785126-RADIADOR AGUA                             PC    000000000000000000000000000
752024030120240331885           84219999LX3815-FILTRO AR                                     PC    000000000000000000000000000
752024030120240331886           27101932RALOY ULTRA SYNTH SAE 5W40 API SN - 24/1             LT    000000000000000000000000000
752024030120240331887           27101932RALOY ULTRA SYNTH SAE 5W30 API SP - 24/1             LT    000000000000000000000000000
90336213140001600034450680073 50000000425100000042530000004254000002247500000130                                             2
90336213140001600034450680073 9900000484                                                                                     2
