10336213140001600034450680073 CRISTINA ISABEL DE CAMPOS          Belo Horizonte                MG31999760132025060120250630331
11Rua Caconde                       00875                      Renascença     31130510VINICIUS MURTA NERY         031934225098
5060563731000762ISENTO        20250623MG551  0008725405P000000002830000000000000000000000000000000000000000000000000673000000N
5000029267838172ISENTO        20250626MG551  0008735405P000000001980000000000000000000000000000000000000000000000000198000000N
5000029267838172ISENTO        20250626MG551  0008735102P000000000140000000000000000000000000000000000000000000000000014000000N
5000067330886653ISENTO        20250628MG551  0008885656P000000001320000000000000000000000000000000000000000000000000132000000N
5000067330886653ISENTO        20250628MG551  0008885405P000000000480000000000000000000000000000000000000000000000000077000000N
5000067330886653ISENTO        20250628MG551  0008885102P000000000060000000000000000000000000000000000000000000000000006000000N
5000089577760600ISENTO        20250626MG551  0008745405P000000000640000000000000000000000000000000000000000000000000064000000N
5000089577760600ISENTO        20250626MG551  0008745102P000000000350000000000000000000000000000000000000000000000000035000000N
5000064986284649ISENTO        20250626MG551  0008755405P000000002300000000000000000000000000000000000000000000000000422000000N
5000004818869660ISENTO        20250628MG551  0008895405P000000002680000000000000000000000000000000000000000000000000268000000N
5000009576375860ISENTO        20250626MG551  0008765405P000000009450000000000000000000000000000000000000000000000003386000000N
5000009576375860ISENTO        20250626MG551  0008765102P000000000160000000000000000000000000000000000000000000000000016000000N
5000014399115688ISENTO        20250630MG551  0008915405P000000003130000000000000000000000000000000000000000000000000960000000N
5000014399115688ISENTO        20250630MG551  0008915102P000000000050000000000000000000000000000000000000000000000000005000000N
5000006666705602ISENTO        20250626MG551  0008775405P000000008150000000000000000000000000000000000000000000000005031000000N
5000006666705602ISENTO        20250626MG551  0008775102P000000000050000000000000000000000000000000000000000000000000005000000N
5000052823890610ISENTO        20250630MG551  0008925405P000000006540000000000000000000000000000000000000000000000002432000000N
5000052823890610ISENTO        20250630MG551  0008925102P000000000060000000000000000000000000000000000000000000000000006000000N
5000003185696638ISENTO        20250628MG551  0008905656P000000002200000000000000000000000000000000000000000000000000220000000N
5000003185696638ISENTO        20250628MG551  0008905405P000000001090000000000000000000000000000000000000000000000000144000000N
5000003185696638ISENTO        20250628MG551  0008905102P000000000160000000000000000000000000000000000000000000000000016000000N
5000014014050610ISENTO        20250626MG551  0008785405P000000002420000000000000000000000000000000000000000000000000426000000N
5000014014050610ISENTO        20250626MG551  0008785102P000000000050000000000000000000000000000000000000000000000000005000000N
5000054919428634ISENTO        20250626MG551  0008795405P000000001610000000000000000000000000000000000000000000000000293000000N
5000054919428634ISENTO        20250626MG551  0008795102P000000000350000000000000000000000000000000000000000000000000035000000N
5000007441423694ISENTO        20250626MG551  0008805405P000000003490000000000000000000000000000000000000000000000000995000000N
5000007441423694ISENTO        20250626MG551  0008805102P000000000160000000000000000000000000000000000000000000000000016000000N
5000005231670677ISENTO        20250630MG551  0008935102P000000002390000000000000000000000000000000000000000000000000239000000N
5000010919509622ISENTO        20250626MG551  0008815656P000000001980000000000000000000000000000000000000000000000000198000000N
5000010919509622ISENTO        20250626MG551  0008815405P000000000290000000000000000000000000000000000000000000000000029000000N
5000010919509622ISENTO        20250626MG551  0008815102P000000000140000000000000000000000000000000000000000000000000020000000N
5000022757961691ISENTO        20250626MG551  0008825405P000000003050000000000000000000000000000000000000000000000000742000000N
5000071001352653ISENTO        20250630MG551  0008945405P000000004580000000000000000000000000000000000000000000000000687000000N
5065139743000192ISENTO        20250626MG551  0008835405P000000001360000000000000000000000000000000000000000000000000136000000N
5000029179122604ISENTO        20250626MG551  0008845405P000000000530000000000000000000000000000000000000000000000000053000000N
5000029179122604ISENTO        20250626MG551  0008845102P000000000280000000000000000000000000000000000000000000000000028000000N
5000084016213649ISENTO        20250626MG551  0008855405P000000001760000000000000000000000000000000000000000000000000176000000N
5000040519457668ISENTO        20250630MG551  0008955405P000000003500000000000000000000000000000000000000000000000000843000000N
5000040519457668ISENTO        20250630MG551  0008955102P000000000050000000000000000000000000000000000000000000000000005000000N
5000049616897691ISENTO        20250630MG551  0008965405P000000003090000000000000000000000000000000000000000000000001017000000N
5000060389320625ISENTO        20250626MG551  0008875405P000000002950000000000000000000000000000000000000000000000000726000000N
5000060389320625ISENTO        20250626MG551  0008875102P000000000160000000000000000000000000000000000000000000000000016000000N
5000031699677620ISENTO        20250630MG551  0008975405P000000011370000000000000000000000000000000000000000000000009952000000N
5000031699677620ISENTO        20250630MG551  0008975102P000000000060000000000000000000000000000000000000000000000000006000000N
5000060415088615ISENTO        20250630MG551  0008985405P000000003120000000000000000000000000000000000000000000000001022000000N
5000060415088615ISENTO        20250630MG551  0008985102P000000000640000000000000000000000000000000000000000000000000064000000N
5000001569064652ISENTO        20250630MG551  0008995405P000000002380000000000000000000000000000000000000000000000000238000000N
5000029179122604ISENTO        20250630MG551  0009005405P000000003460000000000000000000000000000000000000000000000001096000000N
5000029179122604ISENTO        20250630MG551  0009005102P000000000050000000000000000000000000000000000000000000000000005000000N
5000076866629691ISENTO        20250630MG551  0009015405P000000002850000000000000000000000000000000000000000000000000985000000N
5000076866629691ISENTO        20250630MG551  0009015102P000000000160000000000000000000000000000000000000000000000000016000000N
5000002445879655ISENTO        20250630MG551  0009025405P000000001890000000000000000000000000000000000000000000000000349000000N
5000002445879655ISENTO        20250630MG551  0009025102P000000000160000000000000000000000000000000000000000000000000016000000N
5000001550153625ISENTO        20250630MG551  0009035405P000000002730000000000000000000000000000000000000000000000000273000000N
5000005431583654ISENTO        20250630MG551  0009045405P000000007670000000000000000000000000000000000000000000000001966000000N
5000005431583654ISENTO        20250630MG551  0009045102P000000000160000000000000000000000000000000000000000000000000016000000N
5000006329909610ISENTO        20250630MG551  0009055405P000000002420000000000000000000000000000000000000000000000000601000000N
5000006329909610ISENTO        20250630MG551  0009055656P000000001320000000000000000000000000000000000000000000000000132000000N
5000060389320625ISENTO        20250630MG551  0009065405P000000002120000000000000000000000000000000000000000000000000390000000N
5000055024491653ISENTO        20250630MG551  0009075405P000000002500000000000000000000000000000000000000000000000000596000000N
5000055024491653ISENTO        20250630MG551  0009075102P000000000050000000000000000000000000000000000000000000000000005000000N
5000016077118699ISENTO        20250630MG551  0009085405P000000001820000000000000000000000000000000000000000000000000396000000N
5000016077118699ISENTO        20250630MG551  0009085102P000000000070000000000000000000000000000000000000000000000000007000000N
5000039189627849ISENTO        20250630MG551  0009095405P000000003080000000000000000000000000000000000000000000000000486000000N
5000039189627849ISENTO        20250630MG551  0009095102P000000000350000000000000000000000000000000000000000000000000035000000N
5000003206244633ISENTO        20250630MG551  0009105405P000000004180000000000000000000000000000000000000000000000000767000000N
5000003206244633ISENTO        20250630MG551  0009105102P000000000510000000000000000000000000000000000000000000000000067000000N
5000080182763668ISENTO        20250630MG551  0009115405P000000002770000000000000000000000000000000000000000000000000873000000N
5000080182763668ISENTO        20250630MG551  0009115102P000000000400000000000000000000000000000000000000000000000000045000000N
5000004300672679ISENTO        20250630MG551  0009125405P000000004320000000000000000000000000000000000000000000000001224000000N
5000004300672679ISENTO        20250630MG551  0009125102P000000000160000000000000000000000000000000000000000000000000016000000N
5000007071725608ISENTO        20250630MG551  0009135405P000000021090000000000000000000000000000000000000000000000015687000000N
5000007071725608ISENTO        20250630MG551  0009135102P000000000840000000000000000000000000000000000000000000000000098000000N
5000003314891636ISENTO        20250630MG551  0009145405P000000002350000000000000000000000000000000000000000000000000235000000N
5000003314891636ISENTO        20250630MG551  0009145102P000000000350000000000000000000000000000000000000000000000000035000000N
5000000498426688ISENTO        20250630MG551  0009155405P000000000780000000000000000000000000000000000000000000000000078000000N
5000043857264691ISENTO        20250630MG551  0009165405P000000003030000000000000000000000000000000000000000000000000572000000N
5000043857264691ISENTO        20250630MG551  0009165102P000000000080000000000000000000000000000000000000000000000000008000000N
5000024479659668ISENTO        20250630MG551  0009175405P000000001300000000000000000000000000000000000000000000000000188000000N
5000024479659668ISENTO        20250630MG551  0009175102P000000000080000000000000000000000000000000000000000000000000008000000N
5000056043481634ISENTO        20250630MG551  0009185102P000000001740000000000000000000000000000000000000000000000000558000000N
5000056043481634ISENTO        20250630MG551  0009185405P000000004140000000000000000000000000000000000000000000000001323000000N
5000042965764615ISENTO        20250630MG551  0009195405P000000022070000000000000000000000000000000000000000000000016321000000N
5000042965764615ISENTO        20250630MG551  0009195102P000000000350000000000000000000000000000000000000000000000000035000000N
5000003003617699ISENTO        20250630MG551  0009205405P000000005360000000000000000000000000000000000000000000000001034000000N
5000011232543624ISENTO        20250630MG551  0009215405P000000006180000000000000000000000000000000000000000000000003332000000N
5000011232543624ISENTO        20250630MG551  0009215102P000000000350000000000000000000000000000000000000000000000000035000000N
5000003276225638ISENTO        20250630MG551  0009225405P000000006120000000000000000000000000000000000000000000000002414000000N
5000003276225638ISENTO        20250630MG551  0009225102P000000000050000000000000000000000000000000000000000000000000005000000N
5000045175942620ISENTO        20250630MG551  0009235405P000000006340000000000000000000000000000000000000000000000000810000000N
5000004335088680ISENTO        20250630MG551  0009245405P000000001800000000000000000000000000000000000000000000000000473000000N
5000016046242649ISENTO        20250630MG551  0009255405P000000006300000000000000000000000000000000000000000000000001176000000N
50215322700001130624775200061 20250604MG551  0125111403T000000024539200000000000000000000000000000000000000000000000000000000N
50215322700001130624775200061 20250611MG551  0126121403T000000020709200000000000000000000000000000000000000000000000000000000N
50215322700001130624775200061 20250611MG551  0126121102T000000001177800000000117780000000002120000000000000000000000000001800N
50215322700001130624775200061 20250626MG551  0128261403T000000024172200000000000000000000000000000000000000000000000000000000N
50215322700001130624775200061 20250618MG551  0127231403T000000034327500000000000000000000000000000000000000000000000000000000N
51215322700001130624775200061 20250604MG1  01251114030000000000000000000000000000000000000000000000000000                    N
51215322700001130624775200061 20250611MG1  01261214030000000000000000000000000000000000000000000000000000                    N
51215322700001130624775200061 20250611MG1  01261211020000000000000000000000000000000000000000000000000000                    N
51215322700001130624775200061 20250618MG1  01272314030000000000000000000000000000000000000000000000000000                    N
5160563731000762ISENTO        20250623MG1  00087254050000000000000000000000000000000000000000000000000000                    N
51215322700001130624775200061 20250626MG1  01282614030000000000000000000000000000000000000000000000000000                    N
5100029267838172ISENTO        20250626MG1  00087351020000000000000000000000000000000000000000000000000000                    N
5100029267838172ISENTO        20250626MG1  00087354050000000000000000000000000000000000000000000000000000                    N
5100089577760600ISENTO        20250626MG1  00087454050000000000000000000000000000000000000000000000000000                    N
5100089577760600ISENTO        20250626MG1  00087451020000000000000000000000000000000000000000000000000000                    N
5100064986284649ISENTO        20250626MG1  00087554050000000000000000000000000000000000000000000000000000                    N
5100009576375860ISENTO        20250626MG1  00087651020000000000000000000000000000000000000000000000000000                    N
5100009576375860ISENTO        20250626MG1  00087654050000000000000000000000000000000000000000000000000000                    N
5100006666705602ISENTO        20250626MG1  00087751020000000000000000000000000000000000000000000000000000                    N
5100006666705602ISENTO        20250626MG1  00087754050000000000000000000000000000000000000000000000000000                    N
5100014014050610ISENTO        20250626MG1  00087851020000000000000000000000000000000000000000000000000000                    N
5100014014050610ISENTO        20250626MG1  00087854050000000000000000000000000000000000000000000000000000                    N
5100054919428634ISENTO        20250626MG1  00087954050000000000000000000000000000000000000000000000000000                    N
5100054919428634ISENTO        20250626MG1  00087951020000000000000000000000000000000000000000000000000000                    N
5100007441423694ISENTO        20250626MG1  00088054050000000000000000000000000000000000000000000000000000                    N
5100007441423694ISENTO        20250626MG1  00088051020000000000000000000000000000000000000000000000000000                    N
5100010919509622ISENTO        20250626MG1  00088151020000000000000000000000000000000000000000000000000000                    N
5100010919509622ISENTO        20250626MG1  00088154050000000000000000000000000000000000000000000000000000                    N
5100010919509622ISENTO        20250626MG1  00088156560000000000000000000000000000000000000000000000000000                    N
5100022757961691ISENTO        20250626MG1  00088254050000000000000000000000000000000000000000000000000000                    N
5165139743000192ISENTO        20250626MG1  00088354050000000000000000000000000000000000000000000000000000                    N
5100029179122604ISENTO        20250626MG1  00088451020000000000000000000000000000000000000000000000000000                    N
5100029179122604ISENTO        20250626MG1  00088454050000000000000000000000000000000000000000000000000000                    N
5100084016213649ISENTO        20250626MG1  00088554050000000000000000000000000000000000000000000000000000                    N
5100060389320625ISENTO        20250626MG1  00088751020000000000000000000000000000000000000000000000000000                    N
5100060389320625ISENTO        20250626MG1  00088754050000000000000000000000000000000000000000000000000000                    N
5100067330886653ISENTO        20250628MG1  00088854050000000000000000000000000000000000000000000000000000                    N
5100067330886653ISENTO        20250628MG1  00088851020000000000000000000000000000000000000000000000000000                    N
5100067330886653ISENTO        20250628MG1  00088856560000000000000000000000000000000000000000000000000000                    N
5100004818869660ISENTO        20250628MG1  00088954050000000000000000000000000000000000000000000000000000                    N
5100003185696638ISENTO        20250628MG1  00089051020000000000000000000000000000000000000000000000000000                    N
5100003185696638ISENTO        20250628MG1  00089056560000000000000000000000000000000000000000000000000000                    N
5100003185696638ISENTO        20250628MG1  00089054050000000000000000000000000000000000000000000000000000                    N
5100014399115688ISENTO        20250630MG1  00089151020000000000000000000000000000000000000000000000000000                    N
5100014399115688ISENTO        20250630MG1  00089154050000000000000000000000000000000000000000000000000000                    N
5100052823890610ISENTO        20250630MG1  00089254050000000000000000000000000000000000000000000000000000                    N
5100052823890610ISENTO        20250630MG1  00089251020000000000000000000000000000000000000000000000000000                    N
5100005231670677ISENTO        20250630MG1  00089351020000000000000000000000000000000000000000000000000000                    N
5100071001352653ISENTO        20250630MG1  00089454050000000000000000000000000000000000000000000000000000                    N
5100040519457668ISENTO        20250630MG1  00089551020000000000000000000000000000000000000000000000000000                    N
5100040519457668ISENTO        20250630MG1  00089554050000000000000000000000000000000000000000000000000000                    N
5100049616897691ISENTO        20250630MG1  00089654050000000000000000000000000000000000000000000000000000                    N
5100031699677620ISENTO        20250630MG1  00089754050000000000000000000000000000000000000000000000000000                    N
5100031699677620ISENTO        20250630MG1  00089751020000000000000000000000000000000000000000000000000000                    N
5100060415088615ISENTO        20250630MG1  00089854050000000000000000000000000000000000000000000000000000                    N
5100060415088615ISENTO        20250630MG1  00089851020000000000000000000000000000000000000000000000000000                    N
5100001569064652ISENTO        20250630MG1  00089954050000000000000000000000000000000000000000000000000000                    N
5100029179122604ISENTO        20250630MG1  00090054050000000000000000000000000000000000000000000000000000                    N
5100029179122604ISENTO        20250630MG1  00090051020000000000000000000000000000000000000000000000000000                    N
5100076866629691ISENTO        20250630MG1  00090151020000000000000000000000000000000000000000000000000000                    N
5100076866629691ISENTO        20250630MG1  00090154050000000000000000000000000000000000000000000000000000                    N
5100002445879655ISENTO        20250630MG1  00090254050000000000000000000000000000000000000000000000000000                    N
5100002445879655ISENTO        20250630MG1  00090251020000000000000000000000000000000000000000000000000000                    N
5100001550153625ISENTO        20250630MG1  00090354050000000000000000000000000000000000000000000000000000                    N
5100005431583654ISENTO        20250630MG1  00090454050000000000000000000000000000000000000000000000000000                    N
5100005431583654ISENTO        20250630MG1  00090451020000000000000000000000000000000000000000000000000000                    N
5100006329909610ISENTO        20250630MG1  00090554050000000000000000000000000000000000000000000000000000                    N
5100006329909610ISENTO        20250630MG1  00090556560000000000000000000000000000000000000000000000000000                    N
5100060389320625ISENTO        20250630MG1  00090654050000000000000000000000000000000000000000000000000000                    N
5100055024491653ISENTO        20250630MG1  00090754050000000000000000000000000000000000000000000000000000                    N
5100055024491653ISENTO        20250630MG1  00090751020000000000000000000000000000000000000000000000000000                    N
5100016077118699ISENTO        20250630MG1  00090854050000000000000000000000000000000000000000000000000000                    N
5100016077118699ISENTO        20250630MG1  00090851020000000000000000000000000000000000000000000000000000                    N
5100039189627849ISENTO        20250630MG1  00090951020000000000000000000000000000000000000000000000000000                    N
5100039189627849ISENTO        20250630MG1  00090954050000000000000000000000000000000000000000000000000000                    N
5100003206244633ISENTO        20250630MG1  00091051020000000000000000000000000000000000000000000000000000                    N
5100003206244633ISENTO        20250630MG1  00091054050000000000000000000000000000000000000000000000000000                    N
5100080182763668ISENTO        20250630MG1  00091154050000000000000000000000000000000000000000000000000000                    N
5100080182763668ISENTO        20250630MG1  00091151020000000000000000000000000000000000000000000000000000                    N
5100004300672679ISENTO        20250630MG1  00091251020000000000000000000000000000000000000000000000000000                    N
5100004300672679ISENTO        20250630MG1  00091254050000000000000000000000000000000000000000000000000000                    N
5100007071725608ISENTO        20250630MG1  00091351020000000000000000000000000000000000000000000000000000                    N
5100007071725608ISENTO        20250630MG1  00091354050000000000000000000000000000000000000000000000000000                    N
5100003314891636ISENTO        20250630MG1  00091454050000000000000000000000000000000000000000000000000000                    N
5100003314891636ISENTO        20250630MG1  00091451020000000000000000000000000000000000000000000000000000                    N
5100000498426688ISENTO        20250630MG1  00091554050000000000000000000000000000000000000000000000000000                    N
5100043857264691ISENTO        20250630MG1  00091651020000000000000000000000000000000000000000000000000000                    N
5100043857264691ISENTO        20250630MG1  00091654050000000000000000000000000000000000000000000000000000                    N
5100024479659668ISENTO        20250630MG1  00091754050000000000000000000000000000000000000000000000000000                    N
5100024479659668ISENTO        20250630MG1  00091751020000000000000000000000000000000000000000000000000000                    N
5100056043481634ISENTO        20250630MG1  00091851020000000000000000000000000000000000000000000000000000                    N
5100056043481634ISENTO        20250630MG1  00091854050000000000000000000000000000000000000000000000000000                    N
5100042965764615ISENTO        20250630MG1  00091951020000000000000000000000000000000000000000000000000000                    N
5100042965764615ISENTO        20250630MG1  00091954050000000000000000000000000000000000000000000000000000                    N
5100003003617699ISENTO        20250630MG1  00092054050000000000000000000000000000000000000000000000000000                    N
5100011232543624ISENTO        20250630MG1  00092154050000000000000000000000000000000000000000000000000000                    N
5100011232543624ISENTO        20250630MG1  00092151020000000000000000000000000000000000000000000000000000                    N
5100003276225638ISENTO        20250630MG1  00092254050000000000000000000000000000000000000000000000000000                    N
5100003276225638ISENTO        20250630MG1  00092251020000000000000000000000000000000000000000000000000000                    N
5100045175942620ISENTO        20250630MG1  00092354050000000000000000000000000000000000000000000000000000                    N
5100004335088680ISENTO        20250630MG1  00092454050000000000000000000000000000000000000000000000000000                    N
5100016046242649ISENTO        20250630MG1  00092554050000000000000000000000000000000000000000000000000000                    N
5360563731000762ISENTO        20250623MG551  0008725405P000000000000000000000000000000000000000N                              
5300029267838172ISENTO        20250626MG551  0008735405P000000000000000000000000000000000000000N                              
5300029267838172ISENTO        20250626MG551  0008735102P000000000000000000000000000000000000000N                              
5300067330886653ISENTO        20250628MG551  0008885656P000000000000000000000000000000000000000N                              
5300067330886653ISENTO        20250628MG551  0008885405P000000000000000000000000000000000000000N                              
5300067330886653ISENTO        20250628MG551  0008885102P000000000000000000000000000000000000000N                              
5300089577760600ISENTO        20250626MG551  0008745405P000000000000000000000000000000000000000N                              
5300089577760600ISENTO        20250626MG551  0008745102P000000000000000000000000000000000000000N                              
5300064986284649ISENTO        20250626MG551  0008755405P000000000000000000000000000000000000000N                              
5300004818869660ISENTO        20250628MG551  0008895405P000000000000000000000000000000000000000N                              
5300009576375860ISENTO        20250626MG551  0008765405P000000000000000000000000000000000000000N                              
5300009576375860ISENTO        20250626MG551  0008765102P000000000000000000000000000000000000000N                              
5300014399115688ISENTO        20250630MG551  0008915405P000000000000000000000000000000000000000N                              
5300014399115688ISENTO        20250630MG551  0008915102P000000000000000000000000000000000000000N                              
5300006666705602ISENTO        20250626MG551  0008775405P000000000000000000000000000000000000000N                              
5300006666705602ISENTO        20250626MG551  0008775102P000000000000000000000000000000000000000N                              
5300052823890610ISENTO        20250630MG551  0008925405P000000000000000000000000000000000000000N                              
5300052823890610ISENTO        20250630MG551  0008925102P000000000000000000000000000000000000000N                              
5300003185696638ISENTO        20250628MG551  0008905656P000000000000000000000000000000000000000N                              
5300003185696638ISENTO        20250628MG551  0008905405P000000000000000000000000000000000000000N                              
5300003185696638ISENTO        20250628MG551  0008905102P000000000000000000000000000000000000000N                              
5300014014050610ISENTO        20250626MG551  0008785405P000000000000000000000000000000000000000N                              
5300014014050610ISENTO        20250626MG551  0008785102P000000000000000000000000000000000000000N                              
5300054919428634ISENTO        20250626MG551  0008795405P000000000000000000000000000000000000000N                              
5300054919428634ISENTO        20250626MG551  0008795102P000000000000000000000000000000000000000N                              
5300007441423694ISENTO        20250626MG551  0008805405P000000000000000000000000000000000000000N                              
5300007441423694ISENTO        20250626MG551  0008805102P000000000000000000000000000000000000000N                              
5300005231670677ISENTO        20250630MG551  0008935102P000000000000000000000000000000000000000N                              
5300010919509622ISENTO        20250626MG551  0008815656P000000000000000000000000000000000000000N                              
5300010919509622ISENTO        20250626MG551  0008815405P000000000000000000000000000000000000000N                              
5300010919509622ISENTO        20250626MG551  0008815102P000000000000000000000000000000000000000N                              
5300022757961691ISENTO        20250626MG551  0008825405P000000000000000000000000000000000000000N                              
5300071001352653ISENTO        20250630MG551  0008945405P000000000000000000000000000000000000000N                              
5365139743000192ISENTO        20250626MG551  0008835405P000000000000000000000000000000000000000N                              
5300029179122604ISENTO        20250626MG551  0008845405P000000000000000000000000000000000000000N                              
5300029179122604ISENTO        20250626MG551  0008845102P000000000000000000000000000000000000000N                              
5300084016213649ISENTO        20250626MG551  0008855405P000000000000000000000000000000000000000N                              
5300040519457668ISENTO        20250630MG551  0008955405P000000000000000000000000000000000000000N                              
5300040519457668ISENTO        20250630MG551  0008955102P000000000000000000000000000000000000000N                              
5300049616897691ISENTO        20250630MG551  0008965405P000000000000000000000000000000000000000N                              
5300060389320625ISENTO        20250626MG551  0008875405P000000000000000000000000000000000000000N                              
5300060389320625ISENTO        20250626MG551  0008875102P000000000000000000000000000000000000000N                              
5300031699677620ISENTO        20250630MG551  0008975405P000000000000000000000000000000000000000N                              
5300031699677620ISENTO        20250630MG551  0008975102P000000000000000000000000000000000000000N                              
5300060415088615ISENTO        20250630MG551  0008985405P000000000000000000000000000000000000000N                              
5300060415088615ISENTO        20250630MG551  0008985102P000000000000000000000000000000000000000N                              
5300001569064652ISENTO        20250630MG551  0008995405P000000000000000000000000000000000000000N                              
5300029179122604ISENTO        20250630MG551  0009005405P000000000000000000000000000000000000000N                              
5300029179122604ISENTO        20250630MG551  0009005102P000000000000000000000000000000000000000N                              
5300076866629691ISENTO        20250630MG551  0009015405P000000000000000000000000000000000000000N                              
5300076866629691ISENTO        20250630MG551  0009015102P000000000000000000000000000000000000000N                              
5300002445879655ISENTO        20250630MG551  0009025405P000000000000000000000000000000000000000N                              
5300002445879655ISENTO        20250630MG551  0009025102P000000000000000000000000000000000000000N                              
5300001550153625ISENTO        20250630MG551  0009035405P000000000000000000000000000000000000000N                              
5300005431583654ISENTO        20250630MG551  0009045405P000000000000000000000000000000000000000N                              
5300005431583654ISENTO        20250630MG551  0009045102P000000000000000000000000000000000000000N                              
5300006329909610ISENTO        20250630MG551  0009055405P000000000000000000000000000000000000000N                              
5300006329909610ISENTO        20250630MG551  0009055656P000000000000000000000000000000000000000N                              
5300060389320625ISENTO        20250630MG551  0009065405P000000000000000000000000000000000000000N                              
5300055024491653ISENTO        20250630MG551  0009075405P000000000000000000000000000000000000000N                              
5300055024491653ISENTO        20250630MG551  0009075102P000000000000000000000000000000000000000N                              
5300016077118699ISENTO        20250630MG551  0009085405P000000000000000000000000000000000000000N                              
5300016077118699ISENTO        20250630MG551  0009085102P000000000000000000000000000000000000000N                              
5300039189627849ISENTO        20250630MG551  0009095405P000000000000000000000000000000000000000N                              
5300039189627849ISENTO        20250630MG551  0009095102P000000000000000000000000000000000000000N                              
5300003206244633ISENTO        20250630MG551  0009105405P000000000000000000000000000000000000000N                              
5300003206244633ISENTO        20250630MG551  0009105102P000000000000000000000000000000000000000N                              
5300080182763668ISENTO        20250630MG551  0009115405P000000000000000000000000000000000000000N                              
5300080182763668ISENTO        20250630MG551  0009115102P000000000000000000000000000000000000000N                              
5300004300672679ISENTO        20250630MG551  0009125405P000000000000000000000000000000000000000N                              
5300004300672679ISENTO        20250630MG551  0009125102P000000000000000000000000000000000000000N                              
5300007071725608ISENTO        20250630MG551  0009135405P000000000000000000000000000000000000000N                              
5300007071725608ISENTO        20250630MG551  0009135102P000000000000000000000000000000000000000N                              
5300003314891636ISENTO        20250630MG551  0009145405P000000000000000000000000000000000000000N                              
5300003314891636ISENTO        20250630MG551  0009145102P000000000000000000000000000000000000000N                              
5300000498426688ISENTO        20250630MG551  0009155405P000000000000000000000000000000000000000N                              
5300043857264691ISENTO        20250630MG551  0009165405P000000000000000000000000000000000000000N                              
5300043857264691ISENTO        20250630MG551  0009165102P000000000000000000000000000000000000000N                              
5300024479659668ISENTO        20250630MG551  0009175405P000000000000000000000000000000000000000N                              
5300024479659668ISENTO        20250630MG551  0009175102P000000000000000000000000000000000000000N                              
5300056043481634ISENTO        20250630MG551  0009185102P000000000000000000000000000000000000000N                              
5300056043481634ISENTO        20250630MG551  0009185405P000000000000000000000000000000000000000N                              
5300042965764615ISENTO        20250630MG551  0009195405P000000000000000000000000000000000000000N                              
5300042965764615ISENTO        20250630MG551  0009195102P000000000000000000000000000000000000000N                              
5300003003617699ISENTO        20250630MG551  0009205405P000000000000000000000000000000000000000N                              
5300011232543624ISENTO        20250630MG551  0009215405P000000000000000000000000000000000000000N                              
5300011232543624ISENTO        20250630MG551  0009215102P000000000000000000000000000000000000000N                              
5300003276225638ISENTO        20250630MG551  0009225405P000000000000000000000000000000000000000N                              
5300003276225638ISENTO        20250630MG551  0009225102P000000000000000000000000000000000000000N                              
5300045175942620ISENTO        20250630MG551  0009235405P000000000000000000000000000000000000000N                              
5300004335088680ISENTO        20250630MG551  0009245405P000000000000000000000000000000000000000N                              
5300016046242649ISENTO        20250630MG551  0009255405P000000000000000000000000000000000000000N                              
53215322700001130624775200061 20250604MG551  0125111403T000000000000000000000000000000000000000N                              
53215322700001130624775200061 20250611MG551  0126121403T000000000000000000000000000000000000000N                              
53215322700001130624775200061 20250611MG551  0126121102T000000000000000000000000000000000000000N                              
53215322700001130624775200061 20250626MG551  0128261403T000000000000000000000000000000000000000N                              
53215322700001130624775200061 20250618MG551  0127231403T000000000000000000000000000000000000000N                              
5400000498426688551  00091554055000011673          000000010000000000078000000000000000000000000000000000000000000000000000000
5400001550153625551  0009035405500001947           000000010000000000273000000000000000000000000000000000000000000000000000000
5400001569064652551  0008995405500001750           000000010000000000238000000000000000000000000000000000000000000000000000000
5400002445879655551  0009025405500001916           000000040000000000160000000000000000000000000000000000000000000000000000000
5400002445879655551  00090254055000021793          000000010000000000029000000000000000000000000000000000000000000000000000000
5400002445879655551  0009025102102003972           000000010000000000016000000000000000000000000000000000000000000000000000000
5400003003617699551  00092054055000011873          000000010000000000498000000000000000000000000000000000000000000000000000000
5400003003617699551  0009205405500002783           000000010000000000038000000000000000000000000000000000000000000000000000000
5400003185696638551  0008905656500001887           000000050000000000220000000000000000000000000000000000000000000000000000000
5400003185696638551  00089054055000021053          000000010000000000035000000000000000000000000000000000000000000000000000000
5400003185696638551  00089054055000031231          000000010000000000074000000000000000000000000000000000000000000000000000000
5400003185696638551  0008905102102004972           000000010000000000016000000000000000000000000000000000000000000000000000000
5400003206244633551  0009105405500001916           000000040000000000160000000000000000000000000000000000000000000000000000000
5400003206244633551  00091054055000021293          000000010000000000029000000000000000000000000000000000000000000000000000000
5400003206244633551  0009105102102003972           000000010000000000016000000000000000000000000000000000000000000000000000000
5400003206244633551  00091054055000041245          000000010000000000229000000000000000000000000000000000000000000000000000000
5400003206244633551  00091051021020051459          000000010000000000035000000000000000000000000000000000000000000000000000000
5400003276225638551  00092254055000011553          000000010000000000318000000000000000000000000000000000000000000000000000000
5400003276225638551  0009225405500002790           000000010000000000044000000000000000000000000000000000000000000000000000000
5400003276225638551  0009225405500003855           000000040000000000184000000000000000000000000000000000000000000000000000000
5400003276225638551  00092254055000041572          000000010000000000030000000000000000000000000000000000000000000000000000000
5400003276225638551  0009225405500005736           000000010000000000036000000000000000000000000000000000000000000000000000000
5400003276225638551  0009225102102006972           000000010000000000005000000000000000000000000000000000000000000000000000000
5400003314891636551  0009145405500001952           000000010000000000235000000000000000000000000000000000000000000000000000000
5400003314891636551  00091451021020021459          000000010000000000035000000000000000000000000000000000000000000000000000000
5400004300672679551  0009125405500001915           000000045000000000198000000000000000000000000000000000000000000000000000000
5400004300672679551  00091254055000021053          000000010000000000000000000000000000000000000000000000000000000000000000000
5400004300672679551  0009125102102003972           000000010000000000016000000000000000000000000000000000000000000000000000000
5400004300672679551  0009125405500004926           000000010000000000198000000000000000000000000000000000000000000000000000000
5400004300672679551  00091254055000051054          000000010000000000036000000000000000000000000000000000000000000000000000000
5400004335088680551  0009245405500001915           000000030000000000132000000000000000000000000000000000000000000000000000000
5400004335088680551  00092454055000021793          000000010000000000029000000000000000000000000000000000000000000000000000000
5400004335088680551  00092454055000031830          000000010000000000019000000000000000000000000000000000000000000000000000000
5400004818869660551  00088954055000011138          000000010000000000268000000000000000000000000000000000000000000000000000000
5400005231670677551  00089351021020011892          000000010000000000239000000000000000000000000000000000000000000000000000000
5400005431583654551  0009045405500001915           000000050000000000220000000000000000000000000000000000000000000000000000000
5400005431583654551  00090454055000021053          000000010000000000035000000000000000000000000000000000000000000000000000000
5400005431583654551  00090454055000031891          000000010000000000036000000000000000000000000000000000000000000000000000000
5400005431583654551  00090454055000041911          000000010000000000142000000000000000000000000000000000000000000000000000000
5400005431583654551  00090454055000051910          000000020000000000334000000000000000000000000000000000000000000000000000000
5400005431583654551  0009045102102006972           000000010000000000016000000000000000000000000000000000000000000000000000000
5400006329909610551  00090554055000011262          000000010000000000162000000000000000000000000000000000000000000000000000000
5400006329909610551  00090556565000021260          000000030000000000132000000000000000000000000000000000000000000000000000000
5400006329909610551  00090554055000031563          000000010000000000035000000000000000000000000000000000000000000000000000000
5400006329909610551  00090554055000041891          000000010000000000045000000000000000000000000000000000000000000000000000000
5400006666705602551  0008775405500001954           000000010000000000110000000000000000000000000000000000000000000000000000000
5400006666705602551  0008775405500002955           000000010000000000110000000000000000000000000000000000000000000000000000000
5400006666705602551  00087754055000031146          000000010000000000089000000000000000000000000000000000000000000000000000000
5400006666705602551  00087754055000041519          000000010000000000062000000000000000000000000000000000000000000000000000000
5400006666705602551  0008775405500005944           000000010000000000098000000000000000000000000000000000000000000000000000000
5400006666705602551  00087754055000061874          000000020000000000068000000000000000000000000000000000000000000000000000000
5400006666705602551  0008775405500007915           000000035000000000154000000000000000000000000000000000000000000000000000000
5400006666705602551  00087754055000081572          000000010000000000029000000000000000000000000000000000000000000000000000000
5400006666705602551  0008775102102009972           000000010000000000005000000000000000000000000000000000000000000000000000000
5400006666705602551  0008775405500010652           000000010000000000069000000000000000000000000000000000000000000000000000000
5400006666705602551  0008775405500011653           000000010000000000026000000000000000000000000000000000000000000000000000000
5400007071725608551  00091354055000011867          000000010000000000074000000000000000000000000000000000000000000000000000000
5400007071725608551  00091354055000021216          000000010000000000129000000000000000000000000000000000000000000000000000000
5400007071725608551  0009135405500003809           000000070000000000098000000000000000000000000000000000000000000000000000000
5400007071725608551  00091351021020041661          000000020000000000014000000000000000000000000000000000000000000000000000000
5400007071725608551  00091354055000051907          000000020000000000084000000000000000000000000000000000000000000000000000000
5400007071725608551  00091354055000061197          000000010000000000124000000000000000000000000000000000000000000000000000000
5400007071725608551  00091351021020071459          000000020000000000070000000000000000000000000000000000000000000000000000000
5400007071725608551  00091354055000081906          000000010000000000194000000000000000000000000000000000000000000000000000000
5400007071725608551  00091354055000091275          000000010000000000388000000000000000000000000000000000000000000000000000000
5400007071725608551  0009135405500010968           000000010000000000166000000000000000000000000000000000000000000000000000000
5400007071725608551  00091354055000111904          000000010000000000182000000000000000000000000000000000000000000000000000000
5400007071725608551  00091354055000121905          000000010000000000209000000000000000000000000000000000000000000000000000000
5400007071725608551  00091354055000131903          000000010000000000295000000000000000000000000000000000000000000000000000000
5400007071725608551  0009135405500014736           000000010000000000035000000000000000000000000000000000000000000000000000000
5400007071725608551  00091354055000151909          000000010000000000069000000000000000000000000000000000000000000000000000000
5400007071725608551  0009135405500016734           000000010000000000062000000000000000000000000000000000000000000000000000000
5400007441423694551  0008805405500001915           000000040000000000176000000000000000000000000000000000000000000000000000000
5400007441423694551  00088054055000021542          000000010000000000030000000000000000000000000000000000000000000000000000000
5400007441423694551  00088054055000031891          000000010000000000058000000000000000000000000000000000000000000000000000000
5400007441423694551  0008805102102004972           000000010000000000016000000000000000000000000000000000000000000000000000000
5400007441423694551  00088054055000051854          000000010000000000085000000000000000000000000000000000000000000000000000000
5400009576375860551  00087654055000011643          000000010000000000674000000000000000000000000000000000000000000000000000000
5400009576375860551  0008765405500002855           000000040000000000192000000000000000000000000000000000000000000000000000000
5400009576375860551  00087654055000031782          000000010000000000035000000000000000000000000000000000000000000000000000000
5400009576375860551  0008765102102004972           000000010000000000016000000000000000000000000000000000000000000000000000000
5400009576375860551  0008765405500005790           000000010000000000044000000000000000000000000000000000000000000000000000000
5400010919509622551  00088156565000011260          000000045000000000198000000000000000000000000000000000000000000000000000000
5400010919509622551  00088154055000021782          000000010000000000029000000000000000000000000000000000000000000000000000000
5400010919509622551  0008815102102003972           000000010000000000006000000000000000000000000000000000000000000000000000000
5400010919509622551  00088151021020041719          000000010000000000008000000000000000000000000000000000000000000000000000000
5400011232543624551  0009215405500001855           000000040000000000184000000000000000000000000000000000000000000000000000000
5400011232543624551  00092154055000021563          000000010000000000030000000000000000000000000000000000000000000000000000000
5400011232543624551  0009215405500003857           000000010000000000036000000000000000000000000000000000000000000000000000000
5400011232543624551  00092154055000041252          000000010000000000032000000000000000000000000000000000000000000000000000000
5400011232543624551  0009215405500005871           000000010000000000048000000000000000000000000000000000000000000000000000000
5400011232543624551  00092151021020061459          000000010000000000035000000000000000000000000000000000000000000000000000000
5400011232543624551  0009215405500007637           000000010000000000068000000000000000000000000000000000000000000000000000000
5400011232543624551  0009215405500008862           000000010000000000108000000000000000000000000000000000000000000000000000000
5400011232543624551  0009215405500009504           000000020000000000044000000000000000000000000000000000000000000000000000000
5400011232543624551  0009215405500010509           000000020000000000068000000000000000000000000000000000000000000000000000000
5400014014050610551  0008785405500001855           000000040000000000184000000000000000000000000000000000000000000000000000000
5400014014050610551  0008785102102002972           000000010000000000005000000000000000000000000000000000000000000000000000000
5400014014050610551  00087854055000031696          000000010000000000058000000000000000000000000000000000000000000000000000000
5400014399115688551  0008915405500001855           000000040000000000184000000000000000000000000000000000000000000000000000000
5400014399115688551  00089154055000021563          000000010000000000030000000000000000000000000000000000000000000000000000000
5400014399115688551  00089154055000031891          000000010000000000035000000000000000000000000000000000000000000000000000000
5400014399115688551  0008915405500004794           000000010000000000064000000000000000000000000000000000000000000000000000000
5400014399115688551  0008915102102005972           000000010000000000005000000000000000000000000000000000000000000000000000000
5400016046242649551  0009255405500001996           000000010000000000546000000000000000000000000000000000000000000000000000000
5400016046242649551  00092554055000021654          000000010000000000084000000000000000000000000000000000000000000000000000000
5400016077118699551  00090854055000011484          000000010000000000076000000000000000000000000000000000000000000000000000000
5400016077118699551  00090854055000021201          000000010000000000062000000000000000000000000000000000000000000000000000000
5400016077118699551  00090851021020031658          000000010000000000007000000000000000000000000000000000000000000000000000000
5400016077118699551  0009085405500004790           000000010000000000044000000000000000000000000000000000000000000000000000000
5421532270000113551  0125111403060001702           000000010000000000216880000000000000000000000000000000028840000000000000000
5421532270000113551  0125111403060002865           000000020000000000191700000000000000000000000000000000014630000000000000000
5421532270000113551  01251114030600031578          000000010000000000093410000000000000000000000000000000000000000000000000000
5421532270000113551  01251114030600041875          000000010000000000088540000000000000000000000000000000000000000000000000000
5421532270000113551  01251114030600051876          000000010000000000064980000000000000000000000000000000002510000000000000000
5421532270000113551  01251114030600061603          000000010000000000054420000000000000000000000000000000002990000000000000000
5421532270000113551  0125111403060007808           000000010000000000107220000000000000000000000000000000014420000000000000000
5421532270000113551  01251114030600081685          000000010000000000099910000000000000000000000000000000010400000000000000000
5421532270000113551  01251114030600091877          000000010000000000086510000000000000000000000000000000010480000000000000000
5421532270000113551  01251114030600101318          000000010000000000006500000000000000000000000000000000000200000000000000000
5421532270000113551  01251114030600111878          000000010000000000153520000000000000000000000000000000000000000000000000000
5421532270000113551  01251114030600121484          000000010000000000073110000000000000000000000000000000005420000000000000000
5421532270000113551  01251114030600131879          000000010000000000207950000000000000000000000000000000027910000000000000000
5421532270000113551  0125111403060014944           000000010000000000072290000000000000000000000000000000009260000000000000000
5421532270000113551  01251114030600151061          000000010000000000043050000000000000000000000000000000001700000000000000000
5421532270000113551  01251114030600161487          000000010000000000048330000000000000000000000000000000001760000000000000000
5421532270000113551  01251114030600171874          000000020000000000042240000000000000000000000000000000003990000000000000000
5421532270000113551  01251114030600181197          000000010000000000093410000000000000000000000000000000010860000000000000000
5421532270000113551  01251114030600191880          000000010000000000056860000000000000000000000000000000006840000000000000000
5421532270000113551  0125111403060020581           000000010000000000025180000000000000000000000000000000002900000000000000000
5421532270000113551  01251114030600211881          000000010000000000109660000000000000000000000000000000010890000000000000000
5421532270000113551  01251114030600221882          000000010000000000093410000000000000000000000000000000000000000000000000000
5421532270000113551  01251114030600231883          000000010000000000027620000000000000000000000000000000000000000000000000000
5421532270000113551  01251114030600241884          000000010000000000089350000000000000000000000000000000000000000000000000000
5421532270000113551  01251114030600251885          000000010000000000231510000000000000000000000000000000020090000000000000000
5421532270000113551  01251114030600261886          000000010000000000030870000000000000000000000000000000003030000000000000000
5421532270000113551  01251114030600271887          000000010000000000045490000000000000000000000000000000005090000000000000000
5421532270000113551  01261214030600011888          000000010000000000014620000000000000000000000000000000001450000000000000000
5421532270000113551  01261214030600021889          000000010000000000051170000000000000000000000000000000004830000000000000000
5421532270000113551  01261214030600031249          000000010000000000031270000000000000000000000000000000004070000000000000000
5421532270000113551  01261214030600041643          000000010000000000486570000000000000000000000000000000078080000000000000000
5421532270000113551  01261214030600051782          000000040000000000082840000000000000000000000000000000013100000000000000000
5421532270000113551  01261214030600061890          000000010000000000140530000000000000000000000000000000017830000000000000000
5421532270000113551  01261214030600071807          000000010000000000150280000000000000000000000000000000012640000000000000000
5421532270000113551  01261214030600081891          000000010000000000029650000000000000000000000000000000003400000000000000000
5421532270000113551  01261211020000091892          000000010000000000117780000000000000000000117780000000000000000000000001800
5421532270000113551  0126121403060010662           000000010000000000125090000000000000000000117780000000015880000000000000000
5421532270000113551  01261214030600111221          000000040000000000092600000000000000000000117780000000011790000000000000000
5421532270000113551  0126121403060012799           000000010000000000174640000000000000000000117780000000020170000000000000000
5421532270000113551  0126121403060013800           000000010000000000174640000000000000000000117780000000020130000000000000000
5421532270000113551  01261214030600141784          000000020000000000020300000000000000000000117780000000002460000000000000000
5421532270000113551  0126121403060015543           000000010000000000052800000000000000000000117780000000006980000000000000000
5421532270000113551  0126121403060016655           000000010000000000028430000000000000000000117780000000003190000000000000000
5421532270000113551  01261214030600171893          000000010000000000117780000000000000000000117780000000000810000000000000000
5421532270000113551  01261214030600181854          000000010000000000062550000000000000000000117780000000006360000000000000000
5421532270000113551  0126121403060019754           000000010000000000093410000000000000000000117780000000005430000000000000000
5421532270000113551  01261214030600201307          000000010000000000113320000000000000000000117780000000008490000000000000000
5421532270000113551  01261214030600211369          000000010000000000028430000000000000000000117780000000002940000000000000000
5421532270000113551  01272314030600011689          000000010000000000045490000000000000000000117780000000003220000000000000000
5421532270000113551  01272314030600021894          000000010000000000109660000000000000000000117780000000000000000000000000000
5421532270000113551  01272314030600031134          000000010000000000100730000000000000000000117780000000011650000000000000000
5421532270000113551  0127231403060004970           000000010000000000052390000000000000000000117780000000005580000000000000000
5421532270000113551  01272314030600051895          000000010000000000137680000000000000000000117780000000013770000000000000000
5421532270000113551  01272314030600061545          000000010000000000099910000000000000000000117780000000011870000000000000000
5421532270000113551  0127231403060007579           000000010000000000052800000000000000000000117780000000000050000000000000000
5421532270000113551  01272314030600081896          000000010000000000124280000000000000000000117780000000000000000000000000000
5421532270000113551  01272314030600091360          000000020000000000154340000000000000000000117780000000012380000000000000000
5421532270000113551  01272314030600101362          000000010000000000045490000000000000000000117780000000003740000000000000000
5421532270000113551  0127231403060011801           000000010000000000032900000000000000000000117780000000002680000000000000000
5421532270000113551  01272314030600121897          000000010000000000019500000000000000000000117780000000000740000000000000000
5421532270000113551  01272314030600131898          000000010000000000055640000000000000000000117780000000003920000000000000000
5421532270000113551  01272314030600141899          000000020000000000039000000000000000000000117780000000003660000000000000000
5421532270000113551  01272314030600151779          000000010000000000034120000000000000000000117780000000000000000000000000000
5421532270000113551  01272314030600161133          000000010000000000054420000000000000000000117780000000007030000000000000000
5421532270000113551  01272314030600171070          000000010000000000074730000000000000000000117780000000010050000000000000000
5421532270000113551  01272314030600181900          000000090000000000365490000000000000000000117780000000000000000000000000000
5421532270000113551  01272314030600191224          000000020000000000035740000000000000000000117780000000003610000000000000000
5421532270000113551  0127231403060020543           000000020000000000105600000000000000000000117780000000014900000000000000000
5421532270000113551  01272314030600211901          000000010000000000022740000000000000000000117780000000001450000000000000000
5421532270000113551  01272314030600221902          000000010000000000037370000000000000000000117780000000003130000000000000000
5421532270000113551  0127231403060023680           000000010000000000034120000000000000000000117780000000004220000000000000000
5421532270000113551  01272314030600241552          000000010000000000046300000000000000000000117780000000005010000000000000000
5421532270000113551  0127231403060025750           000000010000000000174640000000000000000000117780000000000000000000000000000
5421532270000113551  01272314030600261903          000000010000000000144590000000000000000000117780000000000000000000000000000
5421532270000113551  01272314030600271275          000000010000000000296490000000000000000000117780000000036400000000000000000
5421532270000113551  01272314030600281904          000000010000000000137280000000000000000000117780000000000390000000000000000
5421532270000113551  01272314030600291905          000000010000000000159210000000000000000000117780000000021200000000000000000
5421532270000113551  01272314030600301906          000000010000000000144590000000000000000000117780000000016100000000000000000
5421532270000113551  0127231403060031968           000000010000000000126720000000000000000000117780000000016470000000000000000
5421532270000113551  01272314030600321197          000000010000000000093410000000000000000000117780000000009950000000000000000
5421532270000113551  01272314030600331880          000000010000000000057670000000000000000000117780000000007410000000000000000
5421532270000113551  0127231403060034809           000000070000000000068250000000000000000000117780000000001190000000000000000
5421532270000113551  01272314030600351907          000000020000000000063360000000000000000000117780000000002660000000000000000
5421532270000113551  01272314030600361908          000000010000000000033300000000000000000000117780000000000000000000000000000
5421532270000113551  01272314030600371909          000000010000000000052800000000000000000000117780000000006160000000000000000
5421532270000113551  0128261403060001947           000000010000000000194550000000000000000000117780000000000000000000000000000
5421532270000113551  01282614030600021910          000000020000000000253440000000000000000000117780000000000000000000000000000
5421532270000113551  01282614030600031911          000000010000000000082040000000000000000000117780000000006090000000000000000
5421532270000113551  01282614030600041262          000000010000000000125910000000000000000000117780000000009870000000000000000
5421532270000113551  01282614030600051220          000000010000000000008530000000000000000000117780000000000130000000000000000
5421532270000113551  0128261403060006652           000000010000000000041430000000000000000000117780000000004820000000000000000
5421532270000113551  0128261403060007653           000000010000000000013650000000000000000000117780000000001450000000000000000
5421532270000113551  01282614030600081912          000000010000000000010150000000000000000000117780000000000000000000000000000
5421532270000113551  01282614030600091913          000000010000000000026810000000000000000000117780000000000000000000000000000
5421532270000113551  01282614030600101914          000000010000000000148650000000000000000000117780000000018930000000000000000
5421532270000113551  01282614030600111078          000000010000000000079610000000000000000000117780000000010130000000000000000
5421532270000113551  01282614030600121915          000000010000000000050360000000000000000000117780000000000000000000000000000
5421532270000113551  0128261403060013597           000000020000000000111280000000000000000000117780000000018610000000000000000
5421532270000113551  01282614030600141553          000000010000000000234750000000000000000000117780000000025900000000000000000
5421532270000113551  0128261403060015746           000000010000000000036150000000000000000000117780000000003860000000000000000
5421532270000113551  01282614030600161916          000000010000000000186830000000000000000000117780000000022840000000000000000
5421532270000113551  01282614030600171221          000000040000000000090960000000000000000000117780000000011790000000000000000
5421532270000113551  01282614030600181092          000000010000000000061730000000000000000000117780000000006340000000000000000
5421532270000113551  01282614030600191054          000000010000000000012180000000000000000000117780000000000760000000000000000
5421532270000113551  0128261403060020926           000000010000000000145810000000000000000000117780000000017330000000000000000
5421532270000113551  0128261403060021952           000000010000000000142150000000000000000000117780000000017250000000000000000
5421532270000113551  01282614030600221917          000000040000000000055240000000000000000000117780000000000030000000000000000
5421532270000113551  0128261403060023867           000000010000000000028020000000000000000000117780000000002740000000000000000
5421532270000113551  01282614030600241918          000000010000000000166520000000000000000000117780000000004910000000000000000
5421532270000113551  01282614030600251673          000000010000000000030870000000000000000000117780000000002720000000000000000
5421532270000113551  01282614030600261919          000000010000000000050360000000000000000000117780000000000000000000000000000
5421532270000113551  01282614030600271409          000000010000000000029240000000000000000000117780000000002930000000000000000
5400022757961691551  00088254055000011485          000000010000000000176000000000000000000000000000000000000000000000000000000
5400022757961691551  00088254055000021854          000000010000000000085000000000000000000000000000000000000000000000000000000
5400022757961691551  0008825405500003790           000000010000000000044000000000000000000000000000000000000000000000000000000
5400024479659668551  00091754055000011409          000000010000000000058000000000000000000000000000000000000000000000000000000
5400024479659668551  00091754055000021218          000000010000000000072000000000000000000000000000000000000000000000000000000
5400024479659668551  00091751021020031661          000000010000000000008000000000000000000000000000000000000000000000000000000
5400029179122604551  00088454055000011369          000000010000000000053000000000000000000000000000000000000000000000000000000
5400029179122604551  00088451021020021660          000000040000000000028000000000000000000000000000000000000000000000000000000
5400029179122604551  0009005405500001916           000000050000000000200000000000000000000000000000000000000000000000000000000
5400029179122604551  0009005405500002680           000000010000000000046000000000000000000000000000000000000000000000000000000
5400029179122604551  00090054055000031842          000000010000000000058000000000000000000000000000000000000000000000000000000
5400029179122604551  0009005102102004972           000000010000000000005000000000000000000000000000000000000000000000000000000
5400029179122604551  00090054055000051838          000000010000000000042000000000000000000000000000000000000000000000000000000
5400029267838172551  00087354055000011314          000000010000000000198000000000000000000000000000000000000000000000000000000
5400029267838172551  00087351021020021658          000000020000000000014000000000000000000000000000000000000000000000000000000
5400031699677620551  00089754055000011164          000000010000000000062000000000000000000000000000000000000000000000000000000
5400031699677620551  00089754055000021360          000000020000000000204000000000000000000000000000000000000000000000000000000
5400031699677620551  00089754055000031384          000000010000000000168000000000000000000000000000000000000000000000000000000
5400031699677620551  00089754055000041654          000000010000000000082000000000000000000000000000000000000000000000000000000
5400031699677620551  00089754055000051316          000000010000000000029000000000000000000000000000000000000000000000000000000
5400031699677620551  00089754055000061362          000000010000000000064000000000000000000000000000000000000000000000000000000
5400031699677620551  0008975405500007801           000000010000000000048000000000000000000000000000000000000000000000000000000
5400031699677620551  00089754055000081688          000000010000000000074000000000000000000000000000000000000000000000000000000
5400031699677620551  0008975405500009579           000000010000000000069000000000000000000000000000000000000000000000000000000
5400031699677620551  00089754055000101545          000000010000000000135000000000000000000000000000000000000000000000000000000
5400031699677620551  0008975405500011916           000000030000000000126000000000000000000000000000000000000000000000000000000
5400031699677620551  00089754055000121793          000000010000000000029000000000000000000000000000000000000000000000000000000
5400031699677620551  00089754055000131830          000000010000000000019000000000000000000000000000000000000000000000000000000
5400031699677620551  0008975405500014781           000000010000000000028000000000000000000000000000000000000000000000000000000
5400031699677620551  0008975102102015972           000000010000000000006000000000000000000000000000000000000000000000000000000
5400039189627849551  0009095405500001662           000000010000000000178000000000000000000000000000000000000000000000000000000
5400039189627849551  00090954055000021221          000000040000000000130000000000000000000000000000000000000000000000000000000
5400039189627849551  00090951021020031459          000000010000000000035000000000000000000000000000000000000000000000000000000
5400040519457668551  0008955405500001633           000000040000000000232000000000000000000000000000000000000000000000000000000
5400040519457668551  00089554055000021793          000000010000000000029000000000000000000000000000000000000000000000000000000
5400040519457668551  00089554055000031674          000000010000000000089000000000000000000000000000000000000000000000000000000
5400040519457668551  0008955102102004972           000000010000000000005000000000000000000000000000000000000000000000000000000
5400042965764615551  0009195405500001855           000000040000000000184000000000000000000000000000000000000000000000000000000
5400042965764615551  00091954055000021572          000000010000000000030000000000000000000000000000000000000000000000000000000
5400042965764615551  00091954055000031891          000000010000000000036000000000000000000000000000000000000000000000000000000
5400042965764615551  00091954055000041252          000000010000000000032000000000000000000000000000000000000000000000000000000
5400042965764615551  00091954055000051599          000000010000000000031000000000000000000000000000000000000000000000000000000
5400042965764615551  00091954055000061248          000000020000000000572000000000000000000000000000000000000000000000000000000
5400042965764615551  00091954055000071250          000000020000000000138000000000000000000000000000000000000000000000000000000
5400042965764615551  00091954055000081627          000000010000000000099000000000000000000000000000000000000000000000000000000
5400042965764615551  0009195405500009656           000000010000000000515000000000000000000000000000000000000000000000000000000
5400042965764615551  0009195405500010520           000000010000000000208000000000000000000000000000000000000000000000000000000
5400042965764615551  0009195405500011750           000000010000000000236000000000000000000000000000000000000000000000000000000
5400042965764615551  00091951021020121459          000000010000000000035000000000000000000000000000000000000000000000000000000
5400042965764615551  0009195405500013509           000000010000000000034000000000000000000000000000000000000000000000000000000
5400042965764615551  00091954055000141696          000000010000000000048000000000000000000000000000000000000000000000000000000
5400042965764615551  0009195405500015790           000000010000000000044000000000000000000000000000000000000000000000000000000
5400043857264691551  00091654055000011220          000000010000000000019000000000000000000000000000000000000000000000000000000
5400043857264691551  00091654055000021092          000000010000000000084000000000000000000000000000000000000000000000000000000
5400043857264691551  00091651021020031658          000000010000000000008000000000000000000000000000000000000000000000000000000
5400043857264691551  0009165405500004790           000000010000000000044000000000000000000000000000000000000000000000000000000
5400043857264691551  0009165405500005597           000000020000000000156000000000000000000000000000000000000000000000000000000
5400045175942620551  0009235405500001942           000000010000000000176000000000000000000000000000000000000000000000000000000
5400045175942620551  0009235405500002879           000000010000000000458000000000000000000000000000000000000000000000000000000
5400049616897691551  0008965405500001915           000000045000000000198000000000000000000000000000000000000000000000000000000
5400049616897691551  00089654055000021053          000000010000000000035000000000000000000000000000000000000000000000000000000
5400049616897691551  0008965405500003790           000000010000000000044000000000000000000000000000000000000000000000000000000
5400049616897691551  00089654055000041167          000000010000000000032000000000000000000000000000000000000000000000000000000
5400052823890610551  00089254055000011890          000000010000000000188000000000000000000000000000000000000000000000000000000
5400052823890610551  00089254055000021807          000000010000000000215000000000000000000000000000000000000000000000000000000
5400052823890610551  0008925405500003915           000000040000000000176000000000000000000000000000000000000000000000000000000
5400052823890610551  00089254055000041793          000000010000000000029000000000000000000000000000000000000000000000000000000
5400052823890610551  00089254055000051891          000000010000000000046000000000000000000000000000000000000000000000000000000
5400052823890610551  0008925102102006972           000000010000000000006000000000000000000000000000000000000000000000000000000
5400054919428634551  0008795405500001915           000000030000000000132000000000000000000000000000000000000000000000000000000
5400054919428634551  00087954055000021793          000000010000000000029000000000000000000000000000000000000000000000000000000
5400054919428634551  00087951021020031459          000000010000000000035000000000000000000000000000000000000000000000000000000
5400055024491653551  0009075405500001915           000000035000000000154000000000000000000000000000000000000000000000000000000
5400055024491653551  00090754055000021765          000000010000000000038000000000000000000000000000000000000000000000000000000
5400055024491653551  0009075405500003893           000000010000000000058000000000000000000000000000000000000000000000000000000
5400055024491653551  0009075102102004972           000000010000000000005000000000000000000000000000000000000000000000000000000
5400056043481634551  00091851021020011718          000000040000000000120000000000000000000000000000000000000000000000000000000
5400056043481634551  00091854055000021900          000000035000000000154000000000000000000000000000000000000000000000000000000
5400056043481634551  00091854055000031572          000000010000000000029000000000000000000000000000000000000000000000000000000
5400056043481634551  00091854055000041830          000000010000000000019000000000000000000000000000000000000000000000000000000
5400056043481634551  0009185102102005972           000000010000000000005000000000000000000000000000000000000000000000000000000
5400056043481634551  00091854055000061307          000000010000000000168000000000000000000000000000000000000000000000000000000
5400056043481634551  00091851021020071660          000000020000000000014000000000000000000000000000000000000000000000000000000
5400056043481634551  0009185405500008790           000000010000000000044000000000000000000000000000000000000000000000000000000
5400056043481634551  00091851021020091459          000000010000000000035000000000000000000000000000000000000000000000000000000
5400060389320625551  00088754055000011900          000000045000000000198000000000000000000000000000000000000000000000000000000
5400060389320625551  00088754055000021053          000000010000000000035000000000000000000000000000000000000000000000000000000
5400060389320625551  00088754055000031539          000000010000000000062000000000000000000000000000000000000000000000000000000
5400060389320625551  0008875102102004972           000000010000000000016000000000000000000000000000000000000000000000000000000
5400060389320625551  00090654055000011078          000000010000000000178000000000000000000000000000000000000000000000000000000
5400060389320625551  0009065405500002509           000000010000000000034000000000000000000000000000000000000000000000000000000
5400060415088615551  0008985405500001633           000000035000000000203000000000000000000000000000000000000000000000000000000
5400060415088615551  00089854055000021780          000000010000000000036000000000000000000000000000000000000000000000000000000
5400060415088615551  0008985405500003780           000000010000000000029000000000000000000000000000000000000000000000000000000
5400060415088615551  0008985405500004790           000000010000000000044000000000000000000000000000000000000000000000000000000
5400060415088615551  00089851021020051558          000000020000000000064000000000000000000000000000000000000000000000000000000
5460563731000762551  0008725405500001915           000000040000000000176000000000000000000000000000000000000000000000000000000
5460563731000762551  00087254055000021766          000000010000000000038000000000000000000000000000000000000000000000000000000
5460563731000762551  0008725405500003621           000000010000000000069000000000000000000000000000000000000000000000000000000
5400064986284649551  0008755405500001855           000000040000000000192000000000000000000000000000000000000000000000000000000
5400064986284649551  00087554055000021782          000000010000000000038000000000000000000000000000000000000000000000000000000
5465139743000192551  0008835405500001509           000000040000000000136000000000000000000000000000000000000000000000000000000
5400067330886653551  0008885656500001887           000000030000000000132000000000000000000000000000000000000000000000000000000
5400067330886653551  00088854055000021793          000000010000000000029000000000000000000000000000000000000000000000000000000
5400067330886653551  00088854055000031831          000000010000000000019000000000000000000000000000000000000000000000000000000
5400067330886653551  0008885102102004972           000000010000000000006000000000000000000000000000000000000000000000000000000
5400071001352653551  0008945405500001799           000000010000000000229000000000000000000000000000000000000000000000000000000
5400071001352653551  0008945405500002800           000000010000000000229000000000000000000000000000000000000000000000000000000
5400076866629691551  00090154055000011900          000000045000000000198000000000000000000000000000000000000000000000000000000
5400076866629691551  00090154055000021053          000000010000000000035000000000000000000000000000000000000000000000000000000
5400076866629691551  00090154055000031000          000000010000000000036000000000000000000000000000000000000000000000000000000
5400076866629691551  00090154055000041054          000000010000000000016000000000000000000000000000000000000000000000000000000
5400076866629691551  00090151021020051719          000000020000000000016000000000000000000000000000000000000000000000000000000
5400080182763668551  0009115405500001916           000000040000000000160000000000000000000000000000000000000000000000000000000
5400080182763668551  00091154055000021793          000000010000000000029000000000000000000000000000000000000000000000000000000
5400080182763668551  0009115405500003621           000000010000000000058000000000000000000000000000000000000000000000000000000
5400080182763668551  0009115102102004972           000000010000000000005000000000000000000000000000000000000000000000000000000
5400080182763668551  0009115405500005816           000000010000000000030000000000000000000000000000000000000000000000000000000
5400080182763668551  00091151021020061459          000000010000000000035000000000000000000000000000000000000000000000000000000
5400084016213649551  0008855405500001915           000000040000000000176000000000000000000000000000000000000000000000000000000
5400089577760600551  00087454055000011369          000000010000000000064000000000000000000000000000000000000000000000000000000
5400089577760600551  00087451021020021661          000000050000000000035000000000000000000000000000000000000000000000000000000
7520250601202506301000          84219999LX3544-FILTRO AR                                     PC    000000000000000000000000000
7520250601202506301053          84219999WOE912                                               PC    000000000000000000000000000
7520250601202506301054          4016930076090-ANEL VEDACAO                                   PC    000000000000000000000000000
7520250601202506301061          9026209055202374-INTER PRESSAO OLEO                          PC    000000000000000000000000000
7520250601202506301070          84212300W9069-FILTRO OLEO MOTOR                              PC    000000000000000000000000000
7520250601202506301078          87089300511015510-CIL EMBREAGEM                              PC    000000000000000000000000000
7520250601202506301092          87089100MF462-RESERV AGUA RADIADOR                           PC    000000000000000000000000000
7520250601202506301133          84219999LX3819-FILTRO AR                                     PC    000000000000000000000000000
7520250601202506301134          85443000SCT65-CABO VELA                                      PC    000000000000000000000000000
7520250601202506301138          90261029F000TE113D-SENSOR DE NIVEL DE COMBUSTIVEL            PC    000000000000000000000000000
7520250601202506301146          4009310090467442-MANGUEIRA BOCAL DO TANQUE                   PC    000000000000000000000000000
7520250601202506301164          40103500104SP170H-CORREIA DISTRIBUICAO                       PC    000000000000000000000000000
7520250601202506301167          84213990CU23362-FILTRO ANTI POLEM                            PC    000000000000000000000000000
7520250601202506301197          8413309020143-BOMBA DAGUA                                    PC    000000000000000000000000000
7520250601202506301201          870829198550057-TUBO DAGUA                                   PC    000000000000000000000000000
7520250601202506301216          84835090VKM11107L-TENSOR CORREIA DENTADA                     PC    000000000000000000000000000
7520250601202506301218          400931009653-MANGUEIRA                                       PC    000000000000000000000000000
7520250601202506301220          7326909014328601-SELO COLETOR ADMISSAO                       PC    000000000000000000000000000
7520250601202506301221          85111000TR6B10-VELA IGNICAO                                  PC    000000000000000000000000000
7520250601202506301224          84213990CU21003-FILTRO ANTI POLEM                            PC    000000000000000000000000000
7520250601202506301231          84219999C2329-FILTRO AR                                      PC    000000000000000000000000000
7520250601202506301245          4009329051851014-MANGUEIRA SUPERIOR RADIADOR                 PC    000000000000000000000000000
7520250601202506301248          87088000SP271-AMORT SUSPENSAO TRAS                           PC    000000000000000000000000000
7520250601202506301249          870894820680192-ARTICULACAO CAIXA DIRECAO                    PC    000000000000000000000000000
7520250601202506301250          870880000441674-KIT AMORTECEDOR TRASEIRO                     JG    000000000000000000000000000
7520250601202506301252          84212300WK6133-FILTRO COMBUSTIVEL                            PC    000000000000000000000000000
7520250601202506301260          27101932RALOY SYNTH PLUS SAE 5W30 API SP - 24/1              LT    000000000000000000000000000
7520250601202506301262          87083019PD1438-PASTILHA FREIO                                JG    000000000000000000000000000
7520250601202506301275          8413303010189-BOMBA OLEO MOTOR                               PC    000000000000000000000000000
7520250601202506301293          84212300PSL78-FILTRO OLEO MOTOR                              PC    000000000000000000000000000
7520250601202506301307          4009329052099740-MANGUEIRA                                   PC    000000000000000000000000000
7520250601202506301314          40093100629570-MANGUEIRA INFERIOR RADIADOR                   PC    000000000000000000000000000
7520250601202506301316          8409919055243599-TAMPA                                       PC    000000000000000000000000000
7520250601202506301318          84841000221418-JUNTA TAMPA                                   PC    000000000000000000000000000
7520250601202506301360          87083090BD0178-DISCO FREIO                                   PC    000000000000000000000000000
7520250601202506301362          87083019PD60-PASTILHA FREIO                                  JG    000000000000000000000000000
7520250601202506301369          39172290087229-TUBO DAGUA                                    PC    000000000000000000000000000
7520250601202506301384          87089990SK1094-COXIM CAMBIO                                  PC    000000000000000000000000000
7520250601202506301409          39172290087210-TUBO DAGUA                                    PC    000000000000000000000000000
7520250601202506301459          38140090DESCARBONIZANTE PRO 300ML/230G                       UN    000000000000000000000000000
7520250601202506301484          870899905U0121407-RESERV AGUA RADIADOR                       PC    000000000000000000000000000
7520250601202506301485          8708999052223895-RESERV AGUA RADIADOR                        PC    000000000000000000000000000
7520250601202506301487          4009329051834364-MANGUEIRA                                   PC    000000000000000000000000000
7520250601202506301519          87089490335073-TERMINAL BARRA DIRECAO                        PC    000000000000000000000000000
7520250601202506301539          870880005312701-BIELETA BARRA ESTABILIZADORA                 PC    000000000000000000000000000
7520250601202506301542          84212300W752-FILTRO OLEO MOTOR                               PC    000000000000000000000000000
7520250601202506301545          85443000SCT09-CABO VELA                                      JG    000000000000000000000000000
7520250601202506301552          84219999ARL1032-FILTRO AR                                    PC    000000000000000000000000000
7520250601202506301553          870899903B0121321-TAMPA RESERVATORIO                         PC    000000000000000000000000000
7520250601202506301558          22019000AGUA 3LT KOUBE-AGUA DESMINERALIZADA                  GL    000000000000000000000000000
7520250601202506301563          84212300W7125-FILTRO OLEO MOTOR                              PC    000000000000000000000000000
7520250601202506301572          84212300W7122-FILTRO OLEO MOTOR                              PC    000000000000000000000000000
7520250601202506301578          400932905U0121156-MANGUEIRA                                  PC    000000000000000000000000000
7520250601202506301599          84213990CU2545-FILTRO ANTI POLEM                             PC    000000000000000000000000000
7520250601202506301603          400932905U0122101-MANGUEIRA SUPERIOR RADIADOR                PC    000000000000000000000000000
7520250601202506301627          87083090ATE7629-CILINDRO RODA                                PC    000000000000000000000000000
7520250601202506301643          8413309020256-BOMBA DAGUA                                    PC    000000000000000000000000000
7520250601202506301654          87089990525162K-COIFA HOMOC                                  PC    000000000000000000000000000
7520250601202506301658          73269090ABRACADEIRA SEM FIM ZNB 20X32X12                     UN    000000000000000000000000000
7520250601202506301660          73269090ABRACADEIRA SEM FIM ZNB 32X50X12                     UN    000000000000000000000000000
7520250601202506301661          73269090ABRACADEIRA SEM FIM ZNB 25X40X12                     UN    000000000000000000000000000
7520250601202506301673          4016930076860-DIAFRAGMA                                      PC    000000000000000000000000000
7520250601202506301674          84219999C25654-FILTRO AR                                     PC    000000000000000000000000000
7520250601202506301685          87089100MF420-RESERV AGUA RADIADOR                           PC    000000000000000000000000000
7520250601202506301688          87088000NAK96033-BIELETA BARRA ESTABILIZADORA                PC    000000000000000000000000000
7520250601202506301689          87088000NAK96032-BIELETA BARRA ESTABILIZADORA                PC    000000000000000000000000000
7520250601202506301696          40093100761713-MANGUEIRA                                     PC    000000000000000000000000000
7520250601202506301718          85392110LAMPADA AUTOMOTIVA H7 12V 55W                        UN    000000000000000000000000000
7520250601202506301719          85392910LAMPADA AUTOMOTIVA W5W 12V 5W                        UN    000000000000000000000000000
7520250601202506301765          84212300PSL818-FILTRO OLEO MOTOR                             PC    000000000000000000000000000
7520250601202506301766          84219999HU6006X-FILTRO OLEO MOTOR                            PC    000000000000000000000000000
7520250601202506301779          84219999LX3785-FILTRO AR                                     PC    000000000000000000000000000
7520250601202506301780          84212300PSL56-FILTRO OLEO MOTOR                              PC    000000000000000000000000000
7520250601202506301782          84212300W7128-FILTRO OLEO MOTOR                              PC    000000000000000000000000000
7520250601202506301784          84213990CU2629-FILTRO ANTI POLEM                             PC    000000000000000000000000000
7520250601202506301793          84212300W6MULTI20-FILTRO OLEO MOTOR                          PC    000000000000000000000000000
7520250601202506301807          84821090GB43479S01R-ROL RODA                                 PC    000000000000000000000000000
7520250601202506301830          84219999C2256-FILTRO AR                                      PC    000000000000000000000000000
7520250601202506301831          84219999C2969-FILTRO AR                                      PC    000000000000000000000000000
7520250601202506301838          84213990CU220111-FILTRO ANTI POLEM                           PC    000000000000000000000000000
7520250601202506301842          84219999ARL6074-FILTRO AR                                    PC    000000000000000000000000000
7520250601202506301854          87089990DG9Z8100A-TAMPA RESERVATORIO                         PC    000000000000000000000000000
7520250601202506301867          40103500129P8S220H-CORREIA DISTRIBUICAO                      PC    000000000000000000000000000
7520250601202506301873          84133010F000TE145H-BOMBA COMBUSTIVEL IE                      PC    000000000000000000000000000
7520250601202506301874          87089990213499G-COIFA HOMOC                                  JG    000000000000000000000000000
7520250601202506301875          39173900030133723AS-MANGUEIRA COMBUSTIVEL                    PC    000000000000000000000000000
7520250601202506301876          400931005699-MANGUEIRA INFERIOR RADIADOR                     PC    000000000000000000000000000
7520250601202506301877          8708999030127 KIT CIA-ALAVANCA                               PC    000000000000000000000000000
7520250601202506301878          40093100627729-MANGUEIRA                                     PC    000000000000000000000000000
7520250601202506301879          84133010F000TE0103-BOMBA COMBUSTIVEL IE                      PC    000000000000000000000000000
7520250601202506301880          40103500CT488-CORREIA DISTRIBUICAO                           PC    000000000000000000000000000
7520250601202506301881          87089100MF501-RESERV AGUA RADIADOR                           PC    000000000000000000000000000
7520250601202506301882          40091100MG281-MANGUEIRA RESPIRO OLEO                         PC    000000000000000000000000000
7520250601202506301883          400931008441-MANGUEIRA                                       PC    000000000000000000000000000
7520250601202506301884          4009129052007683-MANGUEIRA RESERVATORIO                      PC    000000000000000000000000000
7520250601202506301885          87083019PD1422-PASTILHA FREIO                                JG    000000000000000000000000000
7520250601202506301886          39172290087214-TUBO DAGUA                                    PC    000000000000000000000000000
7520250601202506301887          87089490335074-TERMINAL BARRA DIRECAO                        PC    000000000000000000000000000
7520250601202506301888          39173290DS1509-MANGUEIRA TBI                                 PC    000000000000000000000000000
7520250601202506301889          84139190F000TE13S2-TAMPA BOMBA COMB                          PC    000000000000000000000000000
7520250601202506301890          87083019PD1365-PASTILHA FREIO                                PC    000000000000000000000000000
7520250601202506301891          84219999C23021-FILTRO AR                                     PC    000000000000000000000000000
7520250601202506301892          85432000MTE70316-SENSOR ROTACAO                              PC    000000000000000000000000000
7520250601202506301893          87089990BE8Z8A080A-RESERV AGUA RADIADOR                      PC    000000000000000000000000000
7520250601202506301894          84818021MTE36187-VALVULA TERMOSTATICA                        PC    000000000000000000000000000
7520250601202506301895          90261029F000TE11C6-SENSOR DE NIVEL DE COMBUSTIVEL            PC    000000000000000000000000000
7520250601202506301896          87089990SK1073-COXIM CAMBIO                                  PC    000000000000000000000000000
7520250601202506301897          8708999051783661-TAMPA RESERVATORIO                          PC    000000000000000000000000000
7520250601202506301898          87089990NAK6016-TERMINAL BARRA DIRECAO                       PC    000000000000000000000000000
7520250601202506301899          84213990ACP707-FILTRO ANTI POLEM                             PC    000000000000000000000000000
7520250601202506301900          271019325W30 WR-OLEO MOTOR                                   LT    000000000000000000000000000
7520250601202506301901          842139900986BF0506-FILTRO ANTI POLEM                         PC    000000000000000000000000000
7520250601202506301902          84219999ARL6093-FILTRO AR                                    PC    000000000000000000000000000
7520250601202506301903          840991167087691-ANEL SEGMENTO                                JG    000000000000000000000000000
7520250601202506301904          8483302955210509-BRONZINA BIELA                              JG    000000000000000000000000000
7520250601202506301905          84833029SBC549JSTD-BRONZINA MANCAL                           JG    000000000000000000000000000
7520250601202506301906          8484900079410-JUNTA CABECOTE SUPERIOR                        PC    000000000000000000000000000
7520250601202506301907          7326190055207796-SELO MOTOR                                  PC    000000000000000000000000000
7520250601202506301908          841330902132022AL-TUBO                                       PC    000000000000000000000000000
7520250601202506301909          8413919011409-TUBO BOMBA OLEO                                PC    000000000000000000000000000
7520250601202506301910          87083090BD4070-DISCO FREIO                                   PC    000000000000000000000000000
7520250601202506301911          87083019P518-PASTILHA FREIO TRASEIRO                         JG    000000000000000000000000000
7520250601202506301912          848420002132927-JUNTA BOMBA OLEO                             PC    000000000000000000000000000
7520250601202506301913          8487900005266BRAG-RETENTOR VIRABREQUIM - POLIA               PC    000000000000000000000000000
7520250601202506301914          8409919005245MJEF-RETENTOR VIRABREQUIM - VOLANTE             PC    000000000000000000000000000
7520250601202506301915          401693007088488-ANEL VEDACAO                                 PC    000000000000000000000000000
7520250601202506301916          87083019PD1584-PASTILHA FREIO                                PC    000000000000000000000000000
7520250601202506301917          8511100055267121-VELA IGNICAO                                PC    000000000000000000000000000
7520250601202506301918          400931006833-MANGUEIRA SUPERIOR RADIADOR                     PC    000000000000000000000000000
7520250601202506301919          40093100326547-MANGUEIRA                                     PC    000000000000000000000000000
752025060120250630504           401699900412440-BUCHA BARRA ESTABILIZADORA                   PC    000000000000000000000000000
752025060120250630509           38190000DOT4 ATE-OLEO FREIO                                  FR    000000000000000000000000000
752025060120250630520           84213990030103464A-ANTI CHAMA                                PC    000000000000000000000000000
752025060120250630543           84219999LX4372-FILTRO AR                                     PC    000000000000000000000000000
752025060120250630579           9025909055214055-CARCACA                                     PC    000000000000000000000000000
752025060120250630581           4016930075613-JUNTA TAMPA VALVULA                            PC    000000000000000000000000000
752025060120250630597           84835010531089110-POLIA ALTERNADOR                           PC    000000000000000000000000000
752025060120250630621           84219999C24005-FILTRO AR                                     PC    000000000000000000000000000
752025060120250630633           271019320W20 PRO DS-OLEO MOTOR                               LT    000000000000000000000000000
752025060120250630637           40103500135STP8M190H-CORREIA DISTRIBUICAO                    PC    000000000000000000000000000
752025060120250630652           84139190F000TE13S3-TAMPA BOMBA COMB                          PC    000000000000000000000000000
752025060120250630653           39173290DS1506-TUBO FLUXO                                    JG    000000000000000000000000000
752025060120250630655           84219999C17021-FILTRO AR                                     PC    000000000000000000000000000
752025060120250630656           87089100735124R-RADIADOR AGUA                                PC    000000000000000000000000000
752025060120250630662           85443000SCF30-CABO VELA                                      PC    000000000000000000000000000
752025060120250630680           84212300W71930-FILTRO OLEO MOTOR                             PC    000000000000000000000000000
752025060120250630702           85443000SCY01-CABO VELA                                      PC    000000000000000000000000000
752025060120250630734           87082919504228-TUBO DAGUA                                    PC    000000000000000000000000000
752025060120250630736           84219999C22952-FILTRO AR                                     PC    000000000000000000000000000
752025060120250630746           84219999C22035-FILTRO AR                                     PC    000000000000000000000000000
