10336213140001600034450680073 CRISTINA ISABEL DE CAMPOS          Belo Horizonte                MG31999760132025090120250930331
11Rua Caconde                       00875                      Renascença     31130510VINICIUS MURTA NERY         031934225098
5000012240708603ISENTO        20250904MG551  0010115405P000000002840000000000000000000000000000000000000000000000000666000000N
5000012240708603ISENTO        20250904MG551  0010115102P000000000410000000000000000000000000000000000000000000000000047000000N
5000029866979687ISENTO        20250909MG551  0010125405P000000005520000000000000000000000000000000000000000000000001292000000N
5000029866979687ISENTO        20250909MG551  0010125102P000000000220000000000000000000000000000000000000000000000000036000000N
5000040085678600ISENTO        20250911MG551  0010145405P000000002970000000000000000000000000000000000000000000000000739000000N
5000055024491653ISENTO        20250912MG551  0010175405P000000002500000000000000000000000000000000000000000000000000596000000N
5000055024491653ISENTO        20250912MG551  0010175102P000000000060000000000000000000000000000000000000000000000000006000000N
5000001454990651ISENTO        20250909MG551  0010135405P000000000300000000000000000000000000000000000000000000000000030000000N
5000004402062608ISENTO        20250911MG551  0010155405P000000002710000000000000000000000000000000000000000000000000702000000N
5000004402062608ISENTO        20250911MG551  0010155102P000000000510000000000000000000000000000000000000000000000000067000000N
5000040927954591ISENTO        20250918MG551  0010185405P000000004920000000000000000000000000000000000000000000000001802000000N
5000000452115310ISENTO        20250923MG551  0010245405P000000000650000000000000000000000000000000000000000000000000065000000N
5000008739287688ISENTO        20250911MG551  0010165405P000000008690000000000000000000000000000000000000000000000002454000000N
5000014399115688ISENTO        20250918MG551  0010195405P000000003240000000000000000000000000000000000000000000000001516000000N
5000001312028637ISENTO        20250923MG551  0010255405P000000012010000000000000000000000000000000000000000000000008656000000N
5000001312028637ISENTO        20250923MG551  0010255102P000000000540000000000000000000000000000000000000000000000000103000000N
5000060389320625ISENTO        20250918MG551  0010205405P000000006210000000000000000000000000000000000000000000000001885000000N
5000076866629691ISENTO        20250926MG551  0010395102P000000000350000000000000000000000000000000000000000000000000035000000N
5000061343170630ISENTO        20250929MG551  0010505405P000000004520000000000000000000000000000000000000000000000001312000000N
5000061343170630ISENTO        20250929MG551  0010505102P000000000350000000000000000000000000000000000000000000000000035000000N
5000010210803657ISENTO        20250930MG551  0010535405P000000002520000000000000000000000000000000000000000000000000969000000N
5000010210803657ISENTO        20250930MG551  0010535102P000000000080000000000000000000000000000000000000000000000000008000000N
5000001340790602ISENTO        20250918MG551  0010215405P000000000500000000000000000000000000000000000000000000000000094000000N
5000003057790607ISENTO        20250923MG551  0010265405P000000002370000000000000000000000000000000000000000000000000575000000N
5000003057790607ISENTO        20250923MG551  0010265102P000000000560000000000000000000000000000000000000000000000000056000000N
5000057654891687ISENTO        20250918MG551  0010225405P000000000760000000000000000000000000000000000000000000000000154000000N
5000029179122604ISENTO        20250926MG551  0010405405P000000005000000000000000000000000000000000000000000000000000956000000N
5000057654891687ISENTO        20250923MG551  0010275405P000000001420000000000000000000000000000000000000000000000000414000000N
5000000961720611ISENTO        20250926MG551  0010415405P000000001940000000000000000000000000000000000000000000000000194000000N
5000005685960646ISENTO        20250918MG551  0010235405P000000008320000000000000000000000000000000000000000000000002182000000N
5000005685960646ISENTO        20250918MG551  0010235102P000000000740000000000000000000000000000000000000000000000000113000000N
5000054919428634ISENTO        20250923MG551  0010285405P000000003210000000000000000000000000000000000000000000000001119000000N
5000011182036660ISENTO        20250929MG551  0010515405P000000013180000000000000000000000000000000000000000000000005026000000N
5000055978606668ISENTO        20250926MG551  0010425405P000000010130000000000000000000000000000000000000000000000001472000000N
5000027533425634ISENTO        20250930MG551  0010545405P000000003240000000000000000000000000000000000000000000000001126000000N
5000007676903629ISENTO        20250926MG551  0010435405P000000001800000000000000000000000000000000000000000000000000473000000N
5000007676903629ISENTO        20250926MG551  0010435102P000000000350000000000000000000000000000000000000000000000000035000000N
5000007004330664ISENTO        20250926MG551  0010445405P000000008070000000000000000000000000000000000000000000000002346000000N
5000052369692634ISENTO        20250923MG551  0010295102P000000000950000000000000000000000000000000000000000000000000155000000N
5000052369692634ISENTO        20250923MG551  0010295405P000000015810000000000000000000000000000000000000000000000010829000000N
5000009103378616ISENTO        20250926MG551  0010455405P000000001920000000000000000000000000000000000000000000000000368000000N
5000019558074691ISENTO        20250929MG551  0010525405P000000002620000000000000000000000000000000000000000000000000640000000N
5000019558074691ISENTO        20250929MG551  0010525102P000000000730000000000000000000000000000000000000000000000000151000000N
5000099788306691ISENTO        20250923MG551  0010305405P000000004700000000000000000000000000000000000000000000000001598000000N
5000060389320625ISENTO        20250926MG551  0010465405P000000000420000000000000000000000000000000000000000000000000042000000N
5000020414498615ISENTO        20250926MG551  0010475405P000000002080000000000000000000000000000000000000000000000000749000000N
5000020414498615ISENTO        20250926MG551  0010475102P000000000350000000000000000000000000000000000000000000000000035000000N
5000059266660663ISENTO        20250923MG551  0010315405P000000001840000000000000000000000000000000000000000000000000262000000N
5000001220941662ISENTO        20250923MG551  0010325405P000000001280000000000000000000000000000000000000000000000000128000000N
5000000961720611ISENTO        20250923MG551  0010335405P000000001480000000000000000000000000000000000000000000000000148000000N
5000090122836634ISENTO        20250930MG551  0010555405P000000002550000000000000000000000000000000000000000000000000903000000N
5000087503778687ISENTO        20250923MG551  0010345656P000000000000000000000000000000000000000000000000000000000000000000000N
5000087503778687ISENTO        20250923MG551  0010345405P000000001420000000000000000000000000000000000000000000000000414000000N
5000016338952620ISENTO        20250926MG551  0010485405P000000012620000000000000000000000000000000000000000000000003024000000N
5000016338952620ISENTO        20250926MG551  0010485102P000000000480000000000000000000000000000000000000000000000000048000000N
5000003185696638ISENTO        20250923MG551  0010355102P000000000900000000000000000000000000000000000000000000000000090000000N
5000003185696638ISENTO        20250923MG551  0010355405P000000000440000000000000000000000000000000000000000000000000044000000N
5000000650826647ISENTO        20250923MG551  0010365405P000000003330000000000000000000000000000000000000000000000001436000000N
5000000650826647ISENTO        20250923MG551  0010365102P000000000160000000000000000000000000000000000000000000000000016000000N
5000007276852601ISENTO        20250926MG551  0010495405P000000002720000000000000000000000000000000000000000000000000748000000N
5000047980303687ISENTO        20250923MG551  0010375405P000000002240000000000000000000000000000000000000000000000000605000000N
5000049616897691ISENTO        20250930MG551  0010565405P000000002750000000000000000000000000000000000000000000000000558000000N
5000049616897691ISENTO        20250930MG551  0010565102P000000000280000000000000000000000000000000000000000000000000028000000N
5000098022245615ISENTO        20250923MG551  0010385405P000000017340000000000000000000000000000000000000000000000011953000000N
5000098022245615ISENTO        20250923MG551  0010385102P000000000210000000000000000000000000000000000000000000000000021000000N
5000000356577660ISENTO        20250930MG551  0010575405P000000002560000000000000000000000000000000000000000000000001002000000N
5000000356577660ISENTO        20250930MG551  0010575102P000000000350000000000000000000000000000000000000000000000000035000000N
5000004461026604ISENTO        20250930MG551  0010585405P000000000480000000000000000000000000000000000000000000000000077000000N
5000004461026604ISENTO        20250930MG551  0010585102P000000000350000000000000000000000000000000000000000000000000035000000N
5000005885341613ISENTO        20250930MG551  0010595405P000000002110000000000000000000000000000000000000000000000000387000000N
5000010159694612ISENTO        20250930MG551  0010605405P000000000700000000000000000000000000000000000000000000000000108000000N
5000010159694612ISENTO        20250930MG551  0010605102P000000000350000000000000000000000000000000000000000000000000035000000N
5000029179122604ISENTO        20250930MG551  0010615405P000000003040000000000000000000000000000000000000000000000000750000000N
5000016046242649ISENTO        20250930MG551  0010625405P000000008750000000000000000000000000000000000000000000000003369000000N
5000019558074691ISENTO        20250930MG551  0010635405P000000002080000000000000000000000000000000000000000000000000208000000N
5000019558074691ISENTO        20250930MG551  0010635102P000000000350000000000000000000000000000000000000000000000000035000000N
5000053355784672ISENTO        20250930MG551  0010645405P000000002590000000000000000000000000000000000000000000000000913000000N
5000053355784672ISENTO        20250930MG551  0010645102P000000000350000000000000000000000000000000000000000000000000035000000N
5000088236790606ISENTO        20250930MG551  0010655405P000000002380000000000000000000000000000000000000000000000000696000000N
5000006329909610ISENTO        20250930MG551  0010665405P000000001720000000000000000000000000000000000000000000000000471000000N
5000012375045629ISENTO        20250930MG551  0010675405P000000004110000000000000000000000000000000000000000000000001638000000N
5000012375045629ISENTO        20250930MG551  0010675102P000000000350000000000000000000000000000000000000000000000000035000000N
5000017446910615ISENTO        20250930MG551  0010685405P000000000490000000000000000000000000000000000000000000000000049000000N
5000017446910615ISENTO        20250930MG551  0010685102P000000000140000000000000000000000000000000000000000000000000014000000N
5000037264567672ISENTO        20250930MG551  0010695405P000000003020000000000000000000000000000000000000000000000001440000000N
5000037264567672ISENTO        20250930MG551  0010695102P000000000600000000000000000000000000000000000000000000000000118000000N
5000060415088615ISENTO        20250930MG551  0010705405P000000001290000000000000000000000000000000000000000000000000129000000N
5000007095953600ISENTO        20250930MG551  0010715405P000000002570000000000000000000000000000000000000000000000000853000000N
5000007095953600ISENTO        20250930MG551  0010715102P000000000350000000000000000000000000000000000000000000000000035000000N
5000041971000604ISENTO        20250930MG551  0010725405P000000003100000000000000000000000000000000000000000000000001070000000N
5000041971000604ISENTO        20250930MG551  0010725102P000000000650000000000000000000000000000000000000000000000000100000000N
50215322700001130624775200061 20250903MG551  0137861403T000000029888500000000000000000000000000000000000000000000000000000000N
50215322700001130624775200061 20250910MG551  0138911403T000000049041800000000000000000000000000000000000000000000000000000000N
50215322700001130624775200061 20250917MG551  0140141403T000000026895100000000000000000000000000000000000000000000000000000000N
50215322700001130624775200061 20250924MG551  0141361403T000000033593100000000000000000000000000000000000000000000000000000000N
51215322700001130624775200061 20250903MG1  01378614030000000000000000000000000000000000000000000000000000                    N
5100012240708603ISENTO        20250904MG1  00101151020000000000000000000000000000000000000000000000000000                    N
5100012240708603ISENTO        20250904MG1  00101154050000000000000000000000000000000000000000000000000000                    N
5100029866979687ISENTO        20250909MG1  00101251020000000000000000000000000000000000000000000000000000                    N
5100029866979687ISENTO        20250909MG1  00101254050000000000000000000000000000000000000000000000000000                    N
5100001454990651ISENTO        20250909MG1  00101354050000000000000000000000000000000000000000000000000000                    N
51215322700001130624775200061 20250910MG1  01389114030000000000000000000000000000000000000000000000000000                    N
5100040085678600ISENTO        20250911MG1  00101454050000000000000000000000000000000000000000000000000000                    N
5100004402062608ISENTO        20250911MG1  00101551020000000000000000000000000000000000000000000000000000                    N
5100004402062608ISENTO        20250911MG1  00101554050000000000000000000000000000000000000000000000000000                    N
5100008739287688ISENTO        20250911MG1  00101654050000000000000000000000000000000000000000000000000000                    N
5100055024491653ISENTO        20250912MG1  00101754050000000000000000000000000000000000000000000000000000                    N
5100055024491653ISENTO        20250912MG1  00101751020000000000000000000000000000000000000000000000000000                    N
51215322700001130624775200061 20250917MG1  01401414030000000000000000000000000000000000000000000000000000                    N
5100040927954591ISENTO        20250918MG1  00101854050000000000000000000000000000000000000000000000000000                    N
5100014399115688ISENTO        20250918MG1  00101954050000000000000000000000000000000000000000000000000000                    N
5100060389320625ISENTO        20250918MG1  00102054050000000000000000000000000000000000000000000000000000                    N
5100001340790602ISENTO        20250918MG1  00102154050000000000000000000000000000000000000000000000000000                    N
5100057654891687ISENTO        20250918MG1  00102254050000000000000000000000000000000000000000000000000000                    N
5100005685960646ISENTO        20250918MG1  00102351020000000000000000000000000000000000000000000000000000                    N
5100005685960646ISENTO        20250918MG1  00102354050000000000000000000000000000000000000000000000000000                    N
5100000452115310ISENTO        20250923MG1  00102454050000000000000000000000000000000000000000000000000000                    N
5100001312028637ISENTO        20250923MG1  00102551020000000000000000000000000000000000000000000000000000                    N
5100001312028637ISENTO        20250923MG1  00102554050000000000000000000000000000000000000000000000000000                    N
5100003057790607ISENTO        20250923MG1  00102651020000000000000000000000000000000000000000000000000000                    N
5100003057790607ISENTO        20250923MG1  00102654050000000000000000000000000000000000000000000000000000                    N
5100057654891687ISENTO        20250923MG1  00102754050000000000000000000000000000000000000000000000000000                    N
5100054919428634ISENTO        20250923MG1  00102854050000000000000000000000000000000000000000000000000000                    N
5100052369692634ISENTO        20250923MG1  00102951020000000000000000000000000000000000000000000000000000                    N
5100052369692634ISENTO        20250923MG1  00102954050000000000000000000000000000000000000000000000000000                    N
5100099788306691ISENTO        20250923MG1  00103054050000000000000000000000000000000000000000000000000000                    N
5100059266660663ISENTO        20250923MG1  00103154050000000000000000000000000000000000000000000000000000                    N
5100001220941662ISENTO        20250923MG1  00103254050000000000000000000000000000000000000000000000000000                    N
5100000961720611ISENTO        20250923MG1  00103354050000000000000000000000000000000000000000000000000000                    N
5100087503778687ISENTO        20250923MG1  00103454050000000000000000000000000000000000000000000000000000                    N
5100087503778687ISENTO        20250923MG1  00103456560000000000000000000000000000000000000000000000000000                    N
5100003185696638ISENTO        20250923MG1  00103551020000000000000000000000000000000000000000000000000000                    N
5100003185696638ISENTO        20250923MG1  00103554050000000000000000000000000000000000000000000000000000                    N
5100000650826647ISENTO        20250923MG1  00103654050000000000000000000000000000000000000000000000000000                    N
5100000650826647ISENTO        20250923MG1  00103651020000000000000000000000000000000000000000000000000000                    N
5100047980303687ISENTO        20250923MG1  00103754050000000000000000000000000000000000000000000000000000                    N
5100098022245615ISENTO        20250923MG1  00103854050000000000000000000000000000000000000000000000000000                    N
5100098022245615ISENTO        20250923MG1  00103851020000000000000000000000000000000000000000000000000000                    N
51215322700001130624775200061 20250924MG1  01413614030000000000000000000000000000000000000000000000000000                    N
5100076866629691ISENTO        20250926MG1  00103951020000000000000000000000000000000000000000000000000000                    N
5100029179122604ISENTO        20250926MG1  00104054050000000000000000000000000000000000000000000000000000                    N
5100000961720611ISENTO        20250926MG1  00104154050000000000000000000000000000000000000000000000000000                    N
5100055978606668ISENTO        20250926MG1  00104254050000000000000000000000000000000000000000000000000000                    N
5100007676903629ISENTO        20250926MG1  00104354050000000000000000000000000000000000000000000000000000                    N
5100007676903629ISENTO        20250926MG1  00104351020000000000000000000000000000000000000000000000000000                    N
5100007004330664ISENTO        20250926MG1  00104454050000000000000000000000000000000000000000000000000000                    N
5100009103378616ISENTO        20250926MG1  00104554050000000000000000000000000000000000000000000000000000                    N
5100060389320625ISENTO        20250926MG1  00104654050000000000000000000000000000000000000000000000000000                    N
5100020414498615ISENTO        20250926MG1  00104751020000000000000000000000000000000000000000000000000000                    N
5100020414498615ISENTO        20250926MG1  00104754050000000000000000000000000000000000000000000000000000                    N
5100016338952620ISENTO        20250926MG1  00104854050000000000000000000000000000000000000000000000000000                    N
5100016338952620ISENTO        20250926MG1  00104851020000000000000000000000000000000000000000000000000000                    N
5100007276852601ISENTO        20250926MG1  00104954050000000000000000000000000000000000000000000000000000                    N
5100061343170630ISENTO        20250929MG1  00105054050000000000000000000000000000000000000000000000000000                    N
5100061343170630ISENTO        20250929MG1  00105051020000000000000000000000000000000000000000000000000000                    N
5100011182036660ISENTO        20250929MG1  00105154050000000000000000000000000000000000000000000000000000                    N
5100019558074691ISENTO        20250929MG1  00105251020000000000000000000000000000000000000000000000000000                    N
5100019558074691ISENTO        20250929MG1  00105254050000000000000000000000000000000000000000000000000000                    N
5100010210803657ISENTO        20250930MG1  00105351020000000000000000000000000000000000000000000000000000                    N
5100010210803657ISENTO        20250930MG1  00105354050000000000000000000000000000000000000000000000000000                    N
5100027533425634ISENTO        20250930MG1  00105454050000000000000000000000000000000000000000000000000000                    N
5100090122836634ISENTO        20250930MG1  00105554050000000000000000000000000000000000000000000000000000                    N
5100049616897691ISENTO        20250930MG1  00105654050000000000000000000000000000000000000000000000000000                    N
5100049616897691ISENTO        20250930MG1  00105651020000000000000000000000000000000000000000000000000000                    N
5100000356577660ISENTO        20250930MG1  00105754050000000000000000000000000000000000000000000000000000                    N
5100000356577660ISENTO        20250930MG1  00105751020000000000000000000000000000000000000000000000000000                    N
5100004461026604ISENTO        20250930MG1  00105854050000000000000000000000000000000000000000000000000000                    N
5100004461026604ISENTO        20250930MG1  00105851020000000000000000000000000000000000000000000000000000                    N
5100005885341613ISENTO        20250930MG1  00105954050000000000000000000000000000000000000000000000000000                    N
5100010159694612ISENTO        20250930MG1  00106051020000000000000000000000000000000000000000000000000000                    N
5100010159694612ISENTO        20250930MG1  00106054050000000000000000000000000000000000000000000000000000                    N
5100029179122604ISENTO        20250930MG1  00106154050000000000000000000000000000000000000000000000000000                    N
5100016046242649ISENTO        20250930MG1  00106254050000000000000000000000000000000000000000000000000000                    N
5100019558074691ISENTO        20250930MG1  00106351020000000000000000000000000000000000000000000000000000                    N
5100019558074691ISENTO        20250930MG1  00106354050000000000000000000000000000000000000000000000000000                    N
5100053355784672ISENTO        20250930MG1  00106451020000000000000000000000000000000000000000000000000000                    N
5100053355784672ISENTO        20250930MG1  00106454050000000000000000000000000000000000000000000000000000                    N
5100088236790606ISENTO        20250930MG1  00106554050000000000000000000000000000000000000000000000000000                    N
5100006329909610ISENTO        20250930MG1  00106654050000000000000000000000000000000000000000000000000000                    N
5100012375045629ISENTO        20250930MG1  00106754050000000000000000000000000000000000000000000000000000                    N
5100012375045629ISENTO        20250930MG1  00106751020000000000000000000000000000000000000000000000000000                    N
5100017446910615ISENTO        20250930MG1  00106851020000000000000000000000000000000000000000000000000000                    N
5100017446910615ISENTO        20250930MG1  00106854050000000000000000000000000000000000000000000000000000                    N
5100037264567672ISENTO        20250930MG1  00106954050000000000000000000000000000000000000000000000000000                    N
5100037264567672ISENTO        20250930MG1  00106951020000000000000000000000000000000000000000000000000000                    N
5100060415088615ISENTO        20250930MG1  00107054050000000000000000000000000000000000000000000000000000                    N
5100007095953600ISENTO        20250930MG1  00107154050000000000000000000000000000000000000000000000000000                    N
5100007095953600ISENTO        20250930MG1  00107151020000000000000000000000000000000000000000000000000000                    N
5100041971000604ISENTO        20250930MG1  00107251020000000000000000000000000000000000000000000000000000                    N
5100041971000604ISENTO        20250930MG1  00107254050000000000000000000000000000000000000000000000000000                    N
5300012240708603ISENTO        20250904MG551  0010115405P000000000000000000000000000000000000000N                              
5300012240708603ISENTO        20250904MG551  0010115102P000000000000000000000000000000000000000N                              
5300029866979687ISENTO        20250909MG551  0010125405P000000000000000000000000000000000000000N                              
5300029866979687ISENTO        20250909MG551  0010125102P000000000000000000000000000000000000000N                              
5300040085678600ISENTO        20250911MG551  0010145405P000000000000000000000000000000000000000N                              
5300055024491653ISENTO        20250912MG551  0010175405P000000000000000000000000000000000000000N                              
5300055024491653ISENTO        20250912MG551  0010175102P000000000000000000000000000000000000000N                              
5300001454990651ISENTO        20250909MG551  0010135405P000000000000000000000000000000000000000N                              
5300004402062608ISENTO        20250911MG551  0010155405P000000000000000000000000000000000000000N                              
5300004402062608ISENTO        20250911MG551  0010155102P000000000000000000000000000000000000000N                              
5300040927954591ISENTO        20250918MG551  0010185405P000000000000000000000000000000000000000N                              
5300000452115310ISENTO        20250923MG551  0010245405P000000000000000000000000000000000000000N                              
5300008739287688ISENTO        20250911MG551  0010165405P000000000000000000000000000000000000000N                              
5300014399115688ISENTO        20250918MG551  0010195405P000000000000000000000000000000000000000N                              
5300001312028637ISENTO        20250923MG551  0010255405P000000000000000000000000000000000000000N                              
5300001312028637ISENTO        20250923MG551  0010255102P000000000000000000000000000000000000000N                              
5300060389320625ISENTO        20250918MG551  0010205405P000000000000000000000000000000000000000N                              
5300076866629691ISENTO        20250926MG551  0010395102P000000000000000000000000000000000000000N                              
5300061343170630ISENTO        20250929MG551  0010505405P000000000000000000000000000000000000000N                              
5300061343170630ISENTO        20250929MG551  0010505102P000000000000000000000000000000000000000N                              
5300010210803657ISENTO        20250930MG551  0010535405P000000000000000000000000000000000000000N                              
5300010210803657ISENTO        20250930MG551  0010535102P000000000000000000000000000000000000000N                              
5300001340790602ISENTO        20250918MG551  0010215405P000000000000000000000000000000000000000N                              
5300003057790607ISENTO        20250923MG551  0010265405P000000000000000000000000000000000000000N                              
5300003057790607ISENTO        20250923MG551  0010265102P000000000000000000000000000000000000000N                              
5300057654891687ISENTO        20250918MG551  0010225405P000000000000000000000000000000000000000N                              
5300029179122604ISENTO        20250926MG551  0010405405P000000000000000000000000000000000000000N                              
5300057654891687ISENTO        20250923MG551  0010275405P000000000000000000000000000000000000000N                              
5300000961720611ISENTO        20250926MG551  0010415405P000000000000000000000000000000000000000N                              
5300005685960646ISENTO        20250918MG551  0010235405P000000000000000000000000000000000000000N                              
5300005685960646ISENTO        20250918MG551  0010235102P000000000000000000000000000000000000000N                              
5300054919428634ISENTO        20250923MG551  0010285405P000000000000000000000000000000000000000N                              
5300011182036660ISENTO        20250929MG551  0010515405P000000000000000000000000000000000000000N                              
5300055978606668ISENTO        20250926MG551  0010425405P000000000000000000000000000000000000000N                              
5300027533425634ISENTO        20250930MG551  0010545405P000000000000000000000000000000000000000N                              
5300007676903629ISENTO        20250926MG551  0010435405P000000000000000000000000000000000000000N                              
5300007676903629ISENTO        20250926MG551  0010435102P000000000000000000000000000000000000000N                              
5300007004330664ISENTO        20250926MG551  0010445405P000000000000000000000000000000000000000N                              
5300052369692634ISENTO        20250923MG551  0010295102P000000000000000000000000000000000000000N                              
5300052369692634ISENTO        20250923MG551  0010295405P000000000000000000000000000000000000000N                              
5300009103378616ISENTO        20250926MG551  0010455405P000000000000000000000000000000000000000N                              
5300019558074691ISENTO        20250929MG551  0010525405P000000000000000000000000000000000000000N                              
5300019558074691ISENTO        20250929MG551  0010525102P000000000000000000000000000000000000000N                              
5300099788306691ISENTO        20250923MG551  0010305405P000000000000000000000000000000000000000N                              
5300060389320625ISENTO        20250926MG551  0010465405P000000000000000000000000000000000000000N                              
5300020414498615ISENTO        20250926MG551  0010475405P000000000000000000000000000000000000000N                              
5300020414498615ISENTO        20250926MG551  0010475102P000000000000000000000000000000000000000N                              
5300059266660663ISENTO        20250923MG551  0010315405P000000000000000000000000000000000000000N                              
5300001220941662ISENTO        20250923MG551  0010325405P000000000000000000000000000000000000000N                              
5300000961720611ISENTO        20250923MG551  0010335405P000000000000000000000000000000000000000N                              
5300090122836634ISENTO        20250930MG551  0010555405P000000000000000000000000000000000000000N                              
5300087503778687ISENTO        20250923MG551  0010345656P000000000000000000000000000000000000000N                              
5300087503778687ISENTO        20250923MG551  0010345405P000000000000000000000000000000000000000N                              
5300016338952620ISENTO        20250926MG551  0010485405P000000000000000000000000000000000000000N                              
5300016338952620ISENTO        20250926MG551  0010485102P000000000000000000000000000000000000000N                              
5300003185696638ISENTO        20250923MG551  0010355102P000000000000000000000000000000000000000N                              
5300003185696638ISENTO        20250923MG551  0010355405P000000000000000000000000000000000000000N                              
5300000650826647ISENTO        20250923MG551  0010365405P000000000000000000000000000000000000000N                              
5300000650826647ISENTO        20250923MG551  0010365102P000000000000000000000000000000000000000N                              
5300007276852601ISENTO        20250926MG551  0010495405P000000000000000000000000000000000000000N                              
5300047980303687ISENTO        20250923MG551  0010375405P000000000000000000000000000000000000000N                              
5300049616897691ISENTO        20250930MG551  0010565405P000000000000000000000000000000000000000N                              
5300049616897691ISENTO        20250930MG551  0010565102P000000000000000000000000000000000000000N                              
5300098022245615ISENTO        20250923MG551  0010385405P000000000000000000000000000000000000000N                              
5300098022245615ISENTO        20250923MG551  0010385102P000000000000000000000000000000000000000N                              
5300000356577660ISENTO        20250930MG551  0010575405P000000000000000000000000000000000000000N                              
5300000356577660ISENTO        20250930MG551  0010575102P000000000000000000000000000000000000000N                              
5300004461026604ISENTO        20250930MG551  0010585405P000000000000000000000000000000000000000N                              
5300004461026604ISENTO        20250930MG551  0010585102P000000000000000000000000000000000000000N                              
5300005885341613ISENTO        20250930MG551  0010595405P000000000000000000000000000000000000000N                              
5300010159694612ISENTO        20250930MG551  0010605405P000000000000000000000000000000000000000N                              
5300010159694612ISENTO        20250930MG551  0010605102P000000000000000000000000000000000000000N                              
5300029179122604ISENTO        20250930MG551  0010615405P000000000000000000000000000000000000000N                              
5300016046242649ISENTO        20250930MG551  0010625405P000000000000000000000000000000000000000N                              
5300019558074691ISENTO        20250930MG551  0010635405P000000000000000000000000000000000000000N                              
5300019558074691ISENTO        20250930MG551  0010635102P000000000000000000000000000000000000000N                              
5300053355784672ISENTO        20250930MG551  0010645405P000000000000000000000000000000000000000N                              
5300053355784672ISENTO        20250930MG551  0010645102P000000000000000000000000000000000000000N                              
5300088236790606ISENTO        20250930MG551  0010655405P000000000000000000000000000000000000000N                              
5300006329909610ISENTO        20250930MG551  0010665405P000000000000000000000000000000000000000N                              
5300012375045629ISENTO        20250930MG551  0010675405P000000000000000000000000000000000000000N                              
5300012375045629ISENTO        20250930MG551  0010675102P000000000000000000000000000000000000000N                              
5300017446910615ISENTO        20250930MG551  0010685405P000000000000000000000000000000000000000N                              
5300017446910615ISENTO        20250930MG551  0010685102P000000000000000000000000000000000000000N                              
5300037264567672ISENTO        20250930MG551  0010695405P000000000000000000000000000000000000000N                              
5300037264567672ISENTO        20250930MG551  0010695102P000000000000000000000000000000000000000N                              
5300060415088615ISENTO        20250930MG551  0010705405P000000000000000000000000000000000000000N                              
5300007095953600ISENTO        20250930MG551  0010715405P000000000000000000000000000000000000000N                              
5300007095953600ISENTO        20250930MG551  0010715102P000000000000000000000000000000000000000N                              
5300041971000604ISENTO        20250930MG551  0010725405P000000000000000000000000000000000000000N                              
5300041971000604ISENTO        20250930MG551  0010725102P000000000000000000000000000000000000000N                              
53215322700001130624775200061 20250903MG551  0137861403T000000000000000000000000000000000000000N                              
53215322700001130624775200061 20250910MG551  0138911403T000000000000000000000000000000000000000N                              
53215322700001130624775200061 20250917MG551  0140141403T000000000000000000000000000000000000000N                              
53215322700001130624775200061 20250924MG551  0141361403T000000000000000000000000000000000000000N                              
5400000356577660551  0010575405500001915           000000035000000000154000000000000000000000000000000000000000000000000000000
5400000356577660551  00105754055000021572          000000010000000000029000000000000000000000000000000000000000000000000000000
5400000356577660551  00105754055000031830          000000010000000000019000000000000000000000000000000000000000000000000000000
5400000356577660551  0010575405500004972           000000010000000000005000000000000000000000000000000000000000000000000000000
5400000356577660551  0010575405500005812           000000010000000000049000000000000000000000000000000000000000000000000000000
5400000356577660551  00105751021020061459          000000010000000000035000000000000000000000000000000000000000000000000000000
5400000452115310551  00102454055000011540          000000010000000000065000000000000000000000000000000000000000000000000000000
5400000650826647551  00103654055000011343          000000040000000000224000000000000000000000000000000000000000000000000000000
5400000650826647551  00103654055000021542          000000010000000000029000000000000000000000000000000000000000000000000000000
5400000650826647551  0010365405500003746           000000010000000000052000000000000000000000000000000000000000000000000000000
5400000650826647551  0010365405500004972           000000010000000000016000000000000000000000000000000000000000000000000000000
5400000650826647551  00103651021020051719          000000020000000000016000000000000000000000000000000000000000000000000000000
5400000650826647551  00103654055000061521          000000010000000000012000000000000000000000000000000000000000000000000000000
5400000961720611551  0010335405500001751           000000020000000000148000000000000000000000000000000000000000000000000000000
5400000961720611551  00104154055000011075          000000010000000000194000000000000000000000000000000000000000000000000000000
5400001220941662551  0010325405500001699           000000010000000000128000000000000000000000000000000000000000000000000000000
5400001312028637551  00102554055000011283          000000020000000000546000000000000000000000000000000000000000000000000000000
5400001312028637551  0010255405500002985           000000020000000000148000000000000000000000000000000000000000000000000000000
5400001312028637551  0010255405500003955           000000010000000000104000000000000000000000000000000000000000000000000000000
5400001312028637551  0010255405500004954           000000010000000000104000000000000000000000000000000000000000000000000000000
5400001312028637551  00102554055000051559          000000010000000000092000000000000000000000000000000000000000000000000000000
5400001312028637551  00102551021020061936          000000010000000000007000000000000000000000000000000000000000000000000000000
5400001312028637551  0010255405500007915           000000035000000000154000000000000000000000000000000000000000000000000000000
5400001312028637551  00102554055000081572          000000010000000000029000000000000000000000000000000000000000000000000000000
5400001312028637551  00102554055000091830          000000010000000000019000000000000000000000000000000000000000000000000000000
5400001312028637551  0010255405500010972           000000010000000000005000000000000000000000000000000000000000000000000000000
5400001312028637551  00102551021020111459          000000010000000000035000000000000000000000000000000000000000000000000000000
5400001312028637551  00102551021020121722          000000010000000000012000000000000000000000000000000000000000000000000000000
5400001340790602551  00102154055000011030          000000010000000000044000000000000000000000000000000000000000000000000000000
5400001340790602551  0010215405500002972           000000010000000000006000000000000000000000000000000000000000000000000000000
5400001454990651551  00101354055000011793          000000010000000000030000000000000000000000000000000000000000000000000000000
5400003057790607551  0010265405500001754           000000010000000000145000000000000000000000000000000000000000000000000000000
5400003057790607551  00102654055000021478          000000010000000000048000000000000000000000000000000000000000000000000000000
5400003057790607551  0010265405500003790           000000010000000000044000000000000000000000000000000000000000000000000000000
5400003057790607551  00102651021020041558          000000020000000000056000000000000000000000000000000000000000000000000000000
5400003185696638551  00103551021020011558          000000030000000000090000000000000000000000000000000000000000000000000000000
5400003185696638551  0010355405500002790           000000010000000000044000000000000000000000000000000000000000000000000000000
5400004402062608551  0010155405500001915           000000045000000000198000000000000000000000000000000000000000000000000000000
5400004402062608551  00101554055000021053          000000010000000000035000000000000000000000000000000000000000000000000000000
5400004402062608551  0010155405500003929           000000010000000000038000000000000000000000000000000000000000000000000000000
5400004402062608551  0010155102102004972           000000010000000000016000000000000000000000000000000000000000000000000000000
5400004402062608551  00101551021020051459          000000010000000000035000000000000000000000000000000000000000000000000000000
5400004461026604551  00105854055000011793          000000010000000000029000000000000000000000000000000000000000000000000000000
5400004461026604551  00105854055000021830          000000010000000000019000000000000000000000000000000000000000000000000000000
5400004461026604551  00105851021020031459          000000010000000000035000000000000000000000000000000000000000000000000000000
5400005685960646551  0010235405500001915           000000030000000000132000000000000000000000000000000000000000000000000000000
5400005685960646551  00102354055000021793          000000010000000000030000000000000000000000000000000000000000000000000000000
5400005685960646551  00102354055000031197          000000010000000000126000000000000000000000000000000000000000000000000000000
5400005685960646551  0010235405500004854           000000010000000000480000000000000000000000000000000000000000000000000000000
5400005685960646551  00102351021020051745          000000010000000000039000000000000000000000000000000000000000000000000000000
5400005685960646551  00102351021020061459          000000010000000000035000000000000000000000000000000000000000000000000000000
5400005685960646551  00102354055000071276          000000010000000000064000000000000000000000000000000000000000000000000000000
5400005885341613551  0010595405500001915           000000040000000000176000000000000000000000000000000000000000000000000000000
5400005885341613551  00105954055000021765          000000010000000000035000000000000000000000000000000000000000000000000000000
5400006329909610551  00106654055000011900          000000030000000000132000000000000000000000000000000000000000000000000000000
5400006329909610551  0010665405500002829           000000010000000000035000000000000000000000000000000000000000000000000000000
5400006329909610551  0010665405500003972           000000010000000000005000000000000000000000000000000000000000000000000000000
5400007004330664551  00104454055000011791          000000020000000000278000000000000000000000000000000000000000000000000000000
5400007004330664551  00104454055000021985          000000010000000000069000000000000000000000000000000000000000000000000000000
5400007004330664551  0010445405500003978           000000020000000000032000000000000000000000000000000000000000000000000000000
5400007004330664551  0010445405500004833           000000080000000000156000000000000000000000000000000000000000000000000000000
5400007004330664551  0010445405500005977           000000040000000000272000000000000000000000000000000000000000000000000000000
5400007095953600551  0010715405500001915           000000035000000000154000000000000000000000000000000000000000000000000000000
5400007095953600551  00107154055000021765          000000010000000000036000000000000000000000000000000000000000000000000000000
5400007095953600551  0010715405500003893           000000010000000000062000000000000000000000000000000000000000000000000000000
5400007095953600551  0010715405500004972           000000010000000000005000000000000000000000000000000000000000000000000000000
5400007095953600551  00107151021020051459          000000010000000000035000000000000000000000000000000000000000000000000000000
5400007276852601551  0010495405500001915           000000050000000000220000000000000000000000000000000000000000000000000000000
5400007276852601551  0010495405500002779           000000010000000000036000000000000000000000000000000000000000000000000000000
5400007276852601551  0010495405500003972           000000010000000000016000000000000000000000000000000000000000000000000000000
5400007676903629551  0010435405500001915           000000030000000000132000000000000000000000000000000000000000000000000000000
5400007676903629551  00104354055000021793          000000010000000000029000000000000000000000000000000000000000000000000000000
5400007676903629551  00104354055000031830          000000010000000000019000000000000000000000000000000000000000000000000000000
5400007676903629551  00104351021020041459          000000010000000000035000000000000000000000000000000000000000000000000000000
5400008739287688551  00101654055000011697          000000010000000000758000000000000000000000000000000000000000000000000000000
5400008739287688551  00101654055000021344          000000010000000000069000000000000000000000000000000000000000000000000000000
5400008739287688551  0010165405500003509           000000010000000000042000000000000000000000000000000000000000000000000000000
5400009103378616551  0010455405500001915           000000040000000000176000000000000000000000000000000000000000000000000000000
5400009103378616551  0010455405500002972           000000010000000000016000000000000000000000000000000000000000000000000000000
5400010159694612551  00106054055000011949          000000010000000000038000000000000000000000000000000000000000000000000000000
5400010159694612551  0010605405500002780           000000010000000000032000000000000000000000000000000000000000000000000000000
5400010159694612551  00106051021020031459          000000010000000000035000000000000000000000000000000000000000000000000000000
5400010210803657551  0010535405500001790           000000010000000000044000000000000000000000000000000000000000000000000000000
5400010210803657551  00105351021020021719          000000010000000000008000000000000000000000000000000000000000000000000000000
5400010210803657551  0010535405500003915           000000035000000000154000000000000000000000000000000000000000000000000000000
5400010210803657551  00105354055000041572          000000010000000000030000000000000000000000000000000000000000000000000000000
5400010210803657551  00105354055000051830          000000010000000000019000000000000000000000000000000000000000000000000000000
5400010210803657551  0010535405500006972           000000010000000000005000000000000000000000000000000000000000000000000000000
5400011182036660551  0010515405500001915           000000040000000000176000000000000000000000000000000000000000000000000000000
5400011182036660551  00105154055000021572          000000010000000000029000000000000000000000000000000000000000000000000000000
5400011182036660551  00105154055000031830          000000010000000000019000000000000000000000000000000000000000000000000000000
5400011182036660551  0010515405500004972           000000010000000000005000000000000000000000000000000000000000000000000000000
5400011182036660551  00105154055000051367          000000010000000000149000000000000000000000000000000000000000000000000000000
5400011182036660551  0010515405500006983           000000040000000000848000000000000000000000000000000000000000000000000000000
5400011182036660551  0010515405500007790           000000010000000000044000000000000000000000000000000000000000000000000000000
5400011182036660551  00105154055000081478          000000010000000000048000000000000000000000000000000000000000000000000000000
5400012240708603551  0010115405500001915           000000040000000000176000000000000000000000000000000000000000000000000000000
5400012240708603551  00101154055000021793          000000010000000000030000000000000000000000000000000000000000000000000000000
5400012240708603551  0010115102102003972           000000010000000000006000000000000000000000000000000000000000000000000000000
5400012240708603551  00101154055000041556          000000010000000000078000000000000000000000000000000000000000000000000000000
5400012240708603551  00101151021020051459          000000010000000000035000000000000000000000000000000000000000000000000000000
5400012375045629551  0010675405500001855           000000045000000000234000000000000000000000000000000000000000000000000000000
5400012375045629551  00106754055000021782          000000010000000000035000000000000000000000000000000000000000000000000000000
5400012375045629551  0010675405500003806           000000010000000000074000000000000000000000000000000000000000000000000000000
5400012375045629551  00106754055000041949          000000010000000000038000000000000000000000000000000000000000000000000000000
5400012375045629551  0010675405500005780           000000010000000000030000000000000000000000000000000000000000000000000000000
5400012375045629551  00106751021020061459          000000010000000000035000000000000000000000000000000000000000000000000000000
5400014399115688551  0010195405500001855           000000040000000000184000000000000000000000000000000000000000000000000000000
5400014399115688551  00101954055000021563          000000010000000000030000000000000000000000000000000000000000000000000000000
5400014399115688551  0010195405500003736           000000010000000000036000000000000000000000000000000000000000000000000000000
5400014399115688551  0010195405500004972           000000010000000000005000000000000000000000000000000000000000000000000000000
5400014399115688551  00101954055000051252          000000010000000000034000000000000000000000000000000000000000000000000000000
5400014399115688551  00101954055000061599          000000010000000000035000000000000000000000000000000000000000000000000000000
5400016046242649551  00106254055000011229          000000010000000000099000000000000000000000000000000000000000000000000000000
5400016046242649551  00106254055000021046          000000010000000000046000000000000000000000000000000000000000000000000000000
5400016046242649551  00106254055000031159          000000020000000000088000000000000000000000000000000000000000000000000000000
5400016046242649551  0010625405500004773           000000020000000000104000000000000000000000000000000000000000000000000000000
5400016046242649551  00106254055000051971          000000010000000000059000000000000000000000000000000000000000000000000000000
5400016046242649551  00106254055000061216          000000010000000000105000000000000000000000000000000000000000000000000000000
5400016046242649551  00106254055000071738          000000010000000000282000000000000000000000000000000000000000000000000000000
5400016046242649551  0010625405500008895           000000010000000000092000000000000000000000000000000000000000000000000000000
5400016338952620551  0010485405500001855           000000005000000000023000000000000000000000000000000000000000000000000000000
5400016338952620551  00104854055000021948          000000010000000000498000000000000000000000000000000000000000000000000000000
5400016338952620551  00104854055000031643          000000010000000000697000000000000000000000000000000000000000000000000000000
5400016338952620551  00104851021020041558          000000020000000000048000000000000000000000000000000000000000000000000000000
5400016338952620551  0010485405500005790           000000010000000000044000000000000000000000000000000000000000000000000000000
5400017446910615551  00106854055000011908          000000010000000000049000000000000000000000000000000000000000000000000000000
5400017446910615551  00106851021020021658          000000020000000000014000000000000000000000000000000000000000000000000000000
5400019558074691551  00105254055000011862          000000030000000000174000000000000000000000000000000000000000000000000000000
5400019558074691551  00105254055000021793          000000010000000000030000000000000000000000000000000000000000000000000000000
5400019558074691551  0010525405500003992           000000010000000000058000000000000000000000000000000000000000000000000000000
5400019558074691551  00105251021020041459          000000010000000000035000000000000000000000000000000000000000000000000000000
5400019558074691551  00105251021020051719          000000010000000000008000000000000000000000000000000000000000000000000000000
5400019558074691551  00105251021020061718          000000010000000000030000000000000000000000000000000000000000000000000000000
5400019558074691551  00106354055000011900          000000040000000000208000000000000000000000000000000000000000000000000000000
5400019558074691551  00106351021020021459          000000010000000000035000000000000000000000000000000000000000000000000000000
5400020414498615551  0010475405500001915           000000035000000000154000000000000000000000000000000000000000000000000000000
5400020414498615551  00104754055000021572          000000010000000000030000000000000000000000000000000000000000000000000000000
5400020414498615551  00104754055000031830          000000010000000000019000000000000000000000000000000000000000000000000000000
5400020414498615551  0010475405500004972           000000010000000000005000000000000000000000000000000000000000000000000000000
5400020414498615551  00104751021020051459          000000010000000000035000000000000000000000000000000000000000000000000000000
5421532270000113551  01378614030600011977          000000010000000000354160000000000000000000000000000000044190000000000000000
5421532270000113551  01378614030600021978          000000010000000000008530000000000000000000000000000000000000000000000000000
5421532270000113551  01378614030600031979          000000010000000000030060000000000000000000000000000000001170000000000000000
5421532270000113551  0137861403060004972           000000010000000000007310000000000000000000000000000000000210000000000000000
5421532270000113551  0137861403060005832           000000020000000000097480000000000000000000000000000000010390000000000000000
5421532270000113551  01378614030600061980          000000010000000000105600000000000000000000000000000000013250000000000000000
5421532270000113551  0137861403060007655           000000010000000000028430000000000000000000000000000000003240000000000000000
5421532270000113551  01378614030600081343          000000040000000000155960000000000000000000000000000000030550000000000000000
5421532270000113551  01378614030600091436          000000040000000000077160000000000000000000000000000000000000000000000000000
5421532270000113551  01378614030600101949          000000010000000000024370000000000000000000000000000000002550000000000000000
5421532270000113551  0137861403060011924           000000010000000000025990000000000000000000000000000000000000000000000000000
5421532270000113551  01378614030600121908          000000010000000000033300000000000000000000000000000000000000000000000000000
5421532270000113551  01378614030600131029          000000010000000000410210000000000000000000000000000000000000000000000000000
5421532270000113551  0137861403060014642           000000010000000000074730000000000000000000000000000000000000000000000000000
5421532270000113551  0137861403060015524           000000010000000000051170000000000000000000000000000000005720000000000000000
5421532270000113551  0137861403060016525           000000010000000000057670000000000000000000000000000000006000000000000000000
5421532270000113551  01378614030600171981          000000010000000000068640000000000000000000000000000000016230000000000000000
5421532270000113551  0137861403060018535           000000010000000000161650000000000000000000000000000000020980000000000000000
5421532270000113551  01378614030600191841          000000010000000000024370000000000000000000000000000000002510000000000000000
5421532270000113551  0137861403060020615           000000010000000000026810000000000000000000000000000000000000000000000000000
5421532270000113551  01378614030600211128          000000020000000000181960000000000000000000000000000000014280000000000000000
5421532270000113551  01378614030600221129          000000010000000000102350000000000000000000000000000000007080000000000000000
5421532270000113551  0137861403060023788           000000010000000000070260000000000000000000000000000000008600000000000000000
5421532270000113551  0137861403060024893           000000010000000000044680000000000000000000000000000000005270000000000000000
5421532270000113551  01378614030600251841          000000010000000000024370000000000000000000000000000000002510000000000000000
5421532270000113551  01378614030600261831          000000020000000000030060000000000000000000000000000000003330000000000000000
5421532270000113551  0137861403060027893           000000010000000000044680000000000000000000000000000000005270000000000000000
5421532270000113551  0137861403060028736           000000030000000000070680000000000000000000000000000000007550000000000000000
5421532270000113551  0137861403060029735           000000010000000000036550000000000000000000000000000000005630000000000000000
5421532270000113551  01378614030600301922          000000010000000000035740000000000000000000000000000000000000000000000000000
5421532270000113551  0137861403060031988           000000010000000000095040000000000000000000000000000000007690000000000000000
5421532270000113551  01378614030600321135          000000040000000000428880000000000000000000000000000000000000000000000000000
5421532270000113551  01389114030600011983          000000010000000000559670000000000000000000000000000000080610000000000000000
5421532270000113551  01389114030600021984          000000010000000000051170000000000000000000000000000000000000000000000000000
5421532270000113551  01389114030600031791          000000020000000000219320000000000000000000000000000000015860000000000000000
5421532270000113551  0138911403060004833           000000080000000000120240000000000000000000000000000000013680000000000000000
5421532270000113551  0138911403060005974           000000040000000000063360000000000000000000000000000000006620000000000000000
5421532270000113551  0138911403060006977           000000020000000000101540000000000000000000000000000000010780000000000000000
5421532270000113551  0138911403060007978           000000020000000000019500000000000000000000000000000000002030000000000000000
5421532270000113551  01389114030600081985          000000010000000000049550000000000000000000000000000000005180000000000000000
5421532270000113551  01389114030600091986          000000020000000000061740000000000000000000000000000000000000000000000000000
5421532270000113551  0138911403060010913           000000020000000000086100000000000000000000000000000000014570000000000000000
5421532270000113551  01389114030600111350          000000010000000000047110000000000000000000000000000000009180000000000000000
5421532270000113551  0138911403060012993           000000020000000000039000000000000000000000000000000000005910000000000000000
5421532270000113551  0138911403060013559           000000020000000000051980000000000000000000000000000000007590000000000000000
5421532270000113551  01389114030600141987          000000020000000000144580000000000000000000000000000000011210000000000000000
5421532270000113551  01389114030600151268          000000020000000000051980000000000000000000000000000000005680000000000000000
5421532270000113551  01389114030600161510          000000020000000000056860000000000000000000000000000000008280000000000000000
5421532270000113551  0138911403060017672           000000010000000000109660000000000000000000000000000000008400000000000000000
5421532270000113551  0138911403060018834           000000010000000000064170000000000000000000000000000000000000000000000000000
5421532270000113551  01389114030600191197          000000010000000000083670000000000000000000000000000000009720000000000000000
5421532270000113551  01389114030600201982          000000010000000000291620000000000000000000000000000000035750000000000000000
5421532270000113551  01389114030600211599          000000010000000000014620000000000000000000000000000000001530000000000000000
5421532270000113551  01389114030600221252          000000010000000000021120000000000000000000000000000000002320000000000000000
5421532270000113551  0138911403060023799           000000010000000000174640000000000000000000000000000000022000000000000000000
5421532270000113551  0138911403060024800           000000010000000000174640000000000000000000000000000000022000000000000000000
5421532270000113551  01389114030600251423          000000010000000000082040000000000000000000000000000000010660000000000000000
5421532270000113551  01389114030600261988          000000200000000000016200000000000000000000000000000000000000000000000000000
5421532270000113551  01389114030600271989          000000040000000000048720000000000000000000000000000000005700000000000000000
5421532270000113551  01389114030600281766          000000020000000000035740000000000000000000000000000000003580000000000000000
5421532270000113551  01389114030600291572          000000060000000000075540000000000000000000000000000000011590000000000000000
5421532270000113551  01389114030600301283          000000020000000000414280000000000000000000000000000000053660000000000000000
5421532270000113551  0138911403060031985           000000020000000000108840000000000000000000000000000000012970000000000000000
5421532270000113551  0138911403060032954           000000010000000000075540000000000000000000000000000000006030000000000000000
5421532270000113551  0138911403060033955           000000010000000000075540000000000000000000000000000000006030000000000000000
5421532270000113551  0138911403060034754           000000010000000000093410000000000000000000000000000000005640000000000000000
5421532270000113551  0138911403060035812           000000010000000000031680000000000000000000000000000000003280000000000000000
5421532270000113551  01389114030600361276          000000010000000000042240000000000000000000000000000000001460000000000000000
5421532270000113551  0138911403060037627           000000010000000000014620000000000000000000000000000000001430000000000000000
5421532270000113551  01389114030600381599          000000030000000000043860000000000000000000000000000000004600000000000000000
5421532270000113551  01389114030600391784          000000020000000000020300000000000000000000000000000000002460000000000000000
5421532270000113551  0138911403060040857           000000020000000000049560000000000000000000000000000000004860000000000000000
5421532270000113551  01389114030600411563          000000040000000000068240000000000000000000000000000000010770000000000000000
5421532270000113551  0138911403060042858           000000010000000000045080000000000000000000000000000000003080000000000000000
5421532270000113551  01389114030600431990          000000010000000000069050000000000000000000000000000000007960000000000000000
5421532270000113551  01389114030600441991          000000010000000000138090000000000000000000000000000000016250000000000000000
5421532270000113551  01389114030600451992          000000010000000000697770000000000000000000000000000000093150000000000000000
5421532270000113551  01401414030600011626          000000010000000000168960000000000000000000000000000000016200000000000000000
5421532270000113551  0140141403060002987           000000010000000000047520000000000000000000000000000000005360000000000000000
5421532270000113551  01401414030600031993          000000010000000000027620000000000000000000000000000000003170000000000000000
5421532270000113551  0140141403060004555           000000010000000000057670000000000000000000000000000000009400000000000000000
5421532270000113551  0140141403060005798           000000010000000000153930000000000000000000000000000000012900000000000000000
5421532270000113551  0140141403060006581           000000010000000000025180000000000000000000000000000000002900000000000000000
5421532270000113551  01401414030600071994          000000010000000000210790000000000000000000000000000000008090000000000000000
5421532270000113551  0140141403060008756           000000010000000000056050000000000000000000000000000000004400000000000000000
5421532270000113551  01401414030600091030          000000040000000000126720000000000000000000000000000000000000000000000000000
5421532270000113551  01401414030600101995          000000020000000000106420000000000000000000000000000000015480000000000000000
5421532270000113551  0140141403060011754           000000010000000000093410000000000000000000000000000000005640000000000000000
5421532270000113551  01401414030600121971          000000010000000000043050000000000000000000000000000000005040000000000000000
5421532270000113551  01401414030600131002          000000010000000000109660000000000000000000000000000000012870000000000000000
5421532270000113551  0140141403060014908           000000010000000000337100000000000000000000000000000000045770000000000000000
5421532270000113551  01401414030600151996          000000010000000000071480000000000000000000000000000000000000000000000000000
5421532270000113551  01401414030600161997          000000010000000000019500000000000000000000000000000000000000000000000000000
5421532270000113551  0140141403060017814           000000010000000000048330000000000000000000000000000000000000000000000000000
5421532270000113551  0140141403060018619           000000010000000000068230000000000000000000000000000000009710000000000000000
5421532270000113551  01401414030600191998          000000010000000000053610000000000000000000000000000000007770000000000000000
5421532270000113551  0140141403060020824           000000010000000000343600000000000000000000000000000000000000000000000000000
5421532270000113551  01401414030600211999          000000010000000000040610000000000000000000000000000000004240000000000000000
5421532270000113551  01401414030600221343          000000040000000000155960000000000000000000000000000000030550000000000000000
5421532270000113551  01401414030600232000          000000010000000000324110000000000000000000000000000000025040000000000000000
5421532270000113551  01413614030600011075          000000010000000000139720000000000000000000000000000000011220000000000000000
5421532270000113551  01413614030600021376          000000010000000000503630000000000000000000000000000000000000000000000000000
5421532270000113551  0141361403060003503           000000010000000000167330000000000000000000000000000000018200000000000000000
5421532270000113551  0141361403060004515           000000040000000000091800000000000000000000000000000000012700000000000000000
5421532270000113551  01413614030600052001          000000030000000000048750000000000000000000000000000000005040000000000000000
5421532270000113551  0141361403060006595           000000020000000000043060000000000000000000000000000000004430000000000000000
5421532270000113551  0141361403060007736           000000020000000000047120000000000000000000000000000000005040000000000000000
5421532270000113551  01413614030600082002          000000040000000000061720000000000000000000000000000000010250000000000000000
5421532270000113551  0141361403060009962           000000010000000000030060000000000000000000000000000000000000000000000000000
5421532270000113551  0141361403060010824           000000010000000000365530000000000000000000000000000000000000000000000000000
5421532270000113551  01413614030600112003          000000010000000000050360000000000000000000000000000000005940000000000000000
5421532270000113551  01413614030600121643          000000010000000000486570000000000000000000000000000000078660000000000000000
5421532270000113551  01413614030600131948          000000010000000000379340000000000000000000000000000000057980000000000000000
5421532270000113551  0141361403060014801           000000010000000000031270000000000000000000000000000000002580000000000000000
5421532270000113551  01413614030600152004          000000040000000000630360000000000000000000000000000000000000000000000000000
5421532270000113551  01413614030600161367          000000010000000000112910000000000000000000000000000000000000000000000000000
5421532270000113551  01413614030600172005          000000020000000000089360000000000000000000000000000000000000000000000000000
5421532270000113551  0141361403060018992           000000020000000000080420000000000000000000000000000000008670000000000000000
5400027533425634551  0010545405500001633           000000040000000000232000000000000000000000000000000000000000000000000000000
5400027533425634551  00105454055000021572          000000010000000000030000000000000000000000000000000000000000000000000000000
5400027533425634551  00105454055000031955          000000010000000000046000000000000000000000000000000000000000000000000000000
5400027533425634551  0010545405500004972           000000010000000000016000000000000000000000000000000000000000000000000000000
5400029179122604551  0010405405500001824           000000010000000000456000000000000000000000000000000000000000000000000000000
5400029179122604551  0010405405500002790           000000010000000000044000000000000000000000000000000000000000000000000000000
5400029179122604551  0010615405500001916           000000050000000000200000000000000000000000000000000000000000000000000000000
5400029179122604551  0010615405500002680           000000010000000000046000000000000000000000000000000000000000000000000000000
5400029179122604551  00106154055000031902          000000010000000000058000000000000000000000000000000000000000000000000000000
5400029866979687551  00101254055000011626          000000010000000000232000000000000000000000000000000000000000000000000000000
5400029866979687551  00101254055000021245          000000010000000000276000000000000000000000000000000000000000000000000000000
5400029866979687551  00101251021020031660          000000020000000000014000000000000000000000000000000000000000000000000000000
5400029866979687551  0010125405500004790           000000010000000000044000000000000000000000000000000000000000000000000000000
5400029866979687551  00101251021020051719          000000010000000000008000000000000000000000000000000000000000000000000000000
5400037264567672551  0010695405500001915           000000040000000000176000000000000000000000000000000000000000000000000000000
5400037264567672551  00106954055000021572          000000010000000000030000000000000000000000000000000000000000000000000000000
5400037264567672551  00106954055000031830          000000010000000000019000000000000000000000000000000000000000000000000000000
5400037264567672551  0010695405500004972           000000010000000000016000000000000000000000000000000000000000000000000000000
5400037264567672551  00106954055000051908          000000010000000000049000000000000000000000000000000000000000000000000000000
5400037264567672551  00106951021020061658          000000020000000000014000000000000000000000000000000000000000000000000000000
5400037264567672551  00106951021020071746          000000010000000000030000000000000000000000000000000000000000000000000000000
5400037264567672551  00106954055000081756          000000010000000000012000000000000000000000000000000000000000000000000000000
5400037264567672551  00106951021020091719          000000020000000000016000000000000000000000000000000000000000000000000000000
5400040085678600551  0010145405500001633           000000035000000000203000000000000000000000000000000000000000000000000000000
5400040085678600551  00101454055000021780          000000010000000000036000000000000000000000000000000000000000000000000000000
5400040085678600551  00101454055000031931          000000010000000000058000000000000000000000000000000000000000000000000000000
5400040927954591551  0010185405500001633           000000040000000000232000000000000000000000000000000000000000000000000000000
5400040927954591551  00101854055000021793          000000010000000000030000000000000000000000000000000000000000000000000000000
5400040927954591551  00101854055000031350          000000010000000000068000000000000000000000000000000000000000000000000000000
5400040927954591551  0010185405500004672           000000010000000000156000000000000000000000000000000000000000000000000000000
5400040927954591551  0010185405500005972           000000010000000000006000000000000000000000000000000000000000000000000000000
5400041971000604551  00107254055000011343          000000040000000000216000000000000000000000000000000000000000000000000000000
5400041971000604551  0010725405500002745           000000010000000000034000000000000000000000000000000000000000000000000000000
5400041971000604551  0010725405500003655           000000010000000000044000000000000000000000000000000000000000000000000000000
5400041971000604551  0010725405500004972           000000010000000000016000000000000000000000000000000000000000000000000000000
5400041971000604551  00107251021020051459          000000010000000000035000000000000000000000000000000000000000000000000000000
5400041971000604551  00107251021020061721          000000010000000000030000000000000000000000000000000000000000000000000000000
5400047980303687551  0010375405500001915           000000040000000000176000000000000000000000000000000000000000000000000000000
5400047980303687551  00103754055000021793          000000010000000000029000000000000000000000000000000000000000000000000000000
5400047980303687551  00103754055000031830          000000010000000000019000000000000000000000000000000000000000000000000000000
5400049616897691551  00105654055000011908          000000010000000000052000000000000000000000000000000000000000000000000000000
5400049616897691551  00105654055000021062          000000010000000000179000000000000000000000000000000000000000000000000000000
5400049616897691551  00105651021020031661          000000040000000000028000000000000000000000000000000000000000000000000000000
5400049616897691551  0010565405500004790           000000010000000000044000000000000000000000000000000000000000000000000000000
5400052369692634551  00102951021020011718          000000020000000000060000000000000000000000000000000000000000000000000000000
5400052369692634551  00102951021020021459          000000010000000000035000000000000000000000000000000000000000000000000000000
5400052369692634551  00102954055000031992          000000010000000000978000000000000000000000000000000000000000000000000000000
5400052369692634551  00102954055000041384          000000010000000000189000000000000000000000000000000000000000000000000000000
5400052369692634551  00102954055000051030          000000020000000000078000000000000000000000000000000000000000000000000000000
5400052369692634551  0010295405500006509           000000010000000000042000000000000000000000000000000000000000000000000000000
5400052369692634551  0010295405500007915           000000045000000000198000000000000000000000000000000000000000000000000000000
5400052369692634551  00102954055000081053          000000010000000000036000000000000000000000000000000000000000000000000000000
5400052369692634551  00102954055000091496          000000010000000000044000000000000000000000000000000000000000000000000000000
5400052369692634551  0010295405500010972           000000010000000000016000000000000000000000000000000000000000000000000000000
5400053355784672551  0010645405500001855           000000040000000000184000000000000000000000000000000000000000000000000000000
5400053355784672551  00106454055000021563          000000010000000000032000000000000000000000000000000000000000000000000000000
5400053355784672551  0010645405500003736           000000010000000000038000000000000000000000000000000000000000000000000000000
5400053355784672551  0010645405500004972           000000010000000000005000000000000000000000000000000000000000000000000000000
5400053355784672551  00106451021020051459          000000010000000000035000000000000000000000000000000000000000000000000000000
5400054919428634551  0010285405500001633           000000040000000000232000000000000000000000000000000000000000000000000000000
5400054919428634551  00102854055000021572          000000010000000000029000000000000000000000000000000000000000000000000000000
5400054919428634551  00102854055000031902          000000010000000000044000000000000000000000000000000000000000000000000000000
5400054919428634551  0010285405500004972           000000010000000000016000000000000000000000000000000000000000000000000000000
5400055024491653551  00101754055000011900          000000035000000000154000000000000000000000000000000000000000000000000000000
5400055024491653551  00101754055000021765          000000010000000000038000000000000000000000000000000000000000000000000000000
5400055024491653551  0010175405500003893           000000010000000000058000000000000000000000000000000000000000000000000000000
5400055024491653551  0010175102102004972           000000010000000000006000000000000000000000000000000000000000000000000000000
5400055978606668551  0010425405500001515           000000040000000000120000000000000000000000000000000000000000000000000000000
5400055978606668551  0010425405500002750           000000010000000000219000000000000000000000000000000000000000000000000000000
5400055978606668551  00104254055000031376          000000010000000000674000000000000000000000000000000000000000000000000000000
5400057654891687551  00102254055000011766          000000010000000000036000000000000000000000000000000000000000000000000000000
5400057654891687551  0010225405500002972           000000010000000000006000000000000000000000000000000000000000000000000000000
5400057654891687551  0010225405500003627           000000010000000000034000000000000000000000000000000000000000000000000000000
5400057654891687551  00102754055000011563          000000010000000000030000000000000000000000000000000000000000000000000000000
5400057654891687551  0010275405500002736           000000010000000000036000000000000000000000000000000000000000000000000000000
5400057654891687551  0010275405500003972           000000010000000000006000000000000000000000000000000000000000000000000000000
5400057654891687551  00102754055000041599          000000010000000000032000000000000000000000000000000000000000000000000000000
5400057654891687551  00102754055000051252          000000010000000000038000000000000000000000000000000000000000000000000000000
5400059266660663551  00103154055000011999          000000010000000000078000000000000000000000000000000000000000000000000000000
5400059266660663551  00103154055000021975          000000010000000000106000000000000000000000000000000000000000000000000000000
5400060389320625551  0010205405500001799           000000010000000000229000000000000000000000000000000000000000000000000000000
5400060389320625551  0010205405500002800           000000010000000000229000000000000000000000000000000000000000000000000000000
5400060389320625551  00102054055000031423          000000010000000000119000000000000000000000000000000000000000000000000000000
5400060389320625551  0010205405500004915           000000010000000000044000000000000000000000000000000000000000000000000000000
5400060389320625551  0010465405500001509           000000010000000000042000000000000000000000000000000000000000000000000000000
5400060415088615551  0010705405500001988           000000010000000000129000000000000000000000000000000000000000000000000000000
5400061343170630551  0010505405500001915           000000035000000000154000000000000000000000000000000000000000000000000000000
5400061343170630551  00105054055000021636          000000010000000000036000000000000000000000000000000000000000000000000000000
5400061343170630551  00105054055000031510          000000010000000000052000000000000000000000000000000000000000000000000000000
5400061343170630551  0010505405500004627           000000010000000000032000000000000000000000000000000000000000000000000000000
5400061343170630551  00105054055000051262          000000010000000000178000000000000000000000000000000000000000000000000000000
5400061343170630551  00105051021020061459          000000010000000000035000000000000000000000000000000000000000000000000000000
5400076866629691551  00103951021020011459          000000010000000000035000000000000000000000000000000000000000000000000000000
5400087503778687551  0010345656500001886           000000040000000000000000000000000000000000000000000000000000000000000000000
5400087503778687551  00103454055000021563          000000010000000000030000000000000000000000000000000000000000000000000000000
5400087503778687551  0010345405500003736           000000010000000000036000000000000000000000000000000000000000000000000000000
5400087503778687551  0010345405500004972           000000010000000000006000000000000000000000000000000000000000000000000000000
5400087503778687551  00103454055000051599          000000010000000000032000000000000000000000000000000000000000000000000000000
5400087503778687551  00103454055000061252          000000010000000000038000000000000000000000000000000000000000000000000000000
5400088236790606551  00106554055000011880          000000010000000000078000000000000000000000000000000000000000000000000000000
5400088236790606551  00106554055000021197          000000010000000000108000000000000000000000000000000000000000000000000000000
5400088236790606551  0010655405500003972           000000010000000000008000000000000000000000000000000000000000000000000000000
5400088236790606551  0010655405500004790           000000010000000000044000000000000000000000000000000000000000000000000000000
5400090122836634551  0010555405500001855           000000040000000000184000000000000000000000000000000000000000000000000000000
5400090122836634551  00105554055000021563          000000010000000000030000000000000000000000000000000000000000000000000000000
5400090122836634551  0010555405500003736           000000010000000000036000000000000000000000000000000000000000000000000000000
5400090122836634551  0010555405500004972           000000010000000000005000000000000000000000000000000000000000000000000000000
5400098022245615551  00103854055000011225          000000010000000000152000000000000000000000000000000000000000000000000000000
5400098022245615551  00103854055000021703          000000010000000000098000000000000000000000000000000000000000000000000000000
5400098022245615551  0010385405500003619           000000010000000000089000000000000000000000000000000000000000000000000000000
5400098022245615551  00103854055000041786          000000010000000000029000000000000000000000000000000000000000000000000000000
5400098022245615551  0010385405500005754           000000010000000000129000000000000000000000000000000000000000000000000000000
5400098022245615551  0010385405500006814           000000010000000000064000000000000000000000000000000000000000000000000000000
5400098022245615551  0010385405500007578           000000010000000000059000000000000000000000000000000000000000000000000000000
5400098022245615551  0010385405500008908           000000010000000000456000000000000000000000000000000000000000000000000000000
5400098022245615551  0010385405500009915           000000035000000000154000000000000000000000000000000000000000000000000000000
5400098022245615551  00103854055000101572          000000010000000000029000000000000000000000000000000000000000000000000000000
5400098022245615551  00103854055000111830          000000010000000000019000000000000000000000000000000000000000000000000000000
5400098022245615551  0010385405500012972           000000010000000000005000000000000000000000000000000000000000000000000000000
5400098022245615551  00103854055000131030          000000005000000000023000000000000000000000000000000000000000000000000000000
5400098022245615551  00103854055000141767          000000010000000000428000000000000000000000000000000000000000000000000000000
5400098022245615551  00103851021020151936          000000030000000000021000000000000000000000000000000000000000000000000000000
5400099788306691551  0010305405500001915           000000030000000000132000000000000000000000000000000000000000000000000000000
5400099788306691551  00103054055000021793          000000010000000000029000000000000000000000000000000000000000000000000000000
5400099788306691551  00103054055000031830          000000010000000000019000000000000000000000000000000000000000000000000000000
5400099788306691551  00103054055000041030          000000010000000000043000000000000000000000000000000000000000000000000000000
5400099788306691551  0010305405500005798           000000010000000000209000000000000000000000000000000000000000000000000000000
5400099788306691551  0010305405500006674           000000010000000000038000000000000000000000000000000000000000000000000000000
7520250901202509301002          8484900079519-JUNTA CABECOTE SUPERIOR                        JG    000000000000000000000000000
7520250901202509301029          8413303010254-BOMBA OLEO MOTOR                               PC    000000000000000000000000000
7520250901202509301030          27101932SAE80-OLEO CAMBIO                                    PC    000000000000000000000000000
7520250901202509301046          39174090VC140L-CONEXAO                                       PC    000000000000000000000000000
7520250901202509301053          84219999WOE912                                               PC    000000000000000000000000000
7520250901202509301062          8481802155242321-VALVULA TERMOSTATICA                        PC    000000000000000000000000000
7520250901202509301075          87083019PD1348-PASTILHA FREIO                                JG    000000000000000000000000000
7520250901202509301128          87083090BD5297-DISCO FREIO                                   PC    000000000000000000000000000
7520250901202509301129          87083019PD1346-PASTILHA FREIO                                JG    000000000000000000000000000
7520250901202509301135          8511100046480362-VELA IGNICAO                                PC    000000000000000000000000000
7520250901202509301159          87088000SK403S-KIT AMORTECEDOR TRASEIRO                      PC    000000000000000000000000000
7520250901202509301197          8413309020143-BOMBA DAGUA                                    PC    000000000000000000000000000
7520250901202509301216          84835090VKM11107L-TENSOR CORREIA DENTADA                     PC    000000000000000000000000000
7520250901202509301225          8484900079532-JUNTA CABECOTE SUPERIOR                        JG    000000000000000000000000000
7520250901202509301229          4016930075960-JUNTA TAMPA VALVULA                            PC    000000000000000000000000000
7520250901202509301245          4009329051851014-MANGUEIRA SUPERIOR RADIADOR                 PC    000000000000000000000000000
7520250901202509301252          84212300WK6133-FILTRO COMBUSTIVEL                            PC    000000000000000000000000000
7520250901202509301262          87083019PD1438-PASTILHA FREIO                                JG    000000000000000000000000000
7520250901202509301268          84219999C340071-FILTRO AR                                    PC    000000000000000000000000000
7520250901202509301276          84139190P35001-TUBO BOMBA OLEO                               PC    000000000000000000000000000
7520250901202509301283          87088000808053MM-AMORT SUSPENSAO DIANT                       PC    000000000000000000000000000
7520250901202509301343          271019325W20-OLEO MOTOR                                      PC    000000000000000000000000000
7520250901202509301344          27101932ZC75W80SYNTH-OLEO CAMBIO                             PC    000000000000000000000000000
7520250901202509301350          84219999LX3712-FILTRO AR                                     PC    000000000000000000000000000
7520250901202509301367          87089990VC428-TUBO DAGUA                                     PC    000000000000000000000000000
7520250901202509301376          85113020U6043-BOBINA IGNICAO PLASTICA                        PC    000000000000000000000000000
7520250901202509301384          87089990SK1094-COXIM CAMBIO                                  PC    000000000000000000000000000
7520250901202509301423          87088000503189-PIVO SUSPENSAO                                PC    000000000000000000000000000
7520250901202509301436          85111000BPR6EY-VELA IGNICAO                                  PC    000000000000000000000000000
7520250901202509301459          38140090DESCARBONIZANTE PRO 300ML/230G                       UN    000000000000000000000000000
7520250901202509301478          4016930055242412-JUNTA TAMPA VALVULA                         PC    000000000000000000000000000
7520250901202509301496          84219999ARL4157-FILTRO AR                                    PC    000000000000000000000000000
7520250901202509301510          84219999LX4894-FILTRO AR                                     PC    000000000000000000000000000
7520250901202509301521          8539291012821-LAMPADA                                        PC    000000000000000000000000000
7520250901202509301540          870880005312700-BIELETA BARRA ESTABILIZADORA                 PC    000000000000000000000000000
7520250901202509301542          84212300W752-FILTRO OLEO MOTOR                               PC    000000000000000000000000000
7520250901202509301556          87088000NAK99086-BIELETA BARRA ESTABILIZADORA                PC    000000000000000000000000000
7520250901202509301558          22019000AGUA 3LT KOUBE-AGUA DESMINERALIZADA                  GL    000000000000000000000000000
7520250901202509301559          40093100JM8123-MANGUEIRA                                     PC    000000000000000000000000000
7520250901202509301563          84212300W7125-FILTRO OLEO MOTOR                              PC    000000000000000000000000000
7520250901202509301572          84212300W7122-FILTRO OLEO MOTOR                              PC    000000000000000000000000000
7520250901202509301599          84213990CU2545-FILTRO ANTI POLEM                             PC    000000000000000000000000000
7520250901202509301626          4016930075404-JUNTA TAMPA VALVULA                            PC    000000000000000000000000000
7520250901202509301636          84212300PSL134-FILTRO OLEO MOTOR                             PC    000000000000000000000000000
7520250901202509301643          8413309020256-BOMBA DAGUA                                    PC    000000000000000000000000000
7520250901202509301658          73269090ABRACADEIRA SEM FIM ZNB 20X32X12                     UN    000000000000000000000000000
7520250901202509301660          73269090ABRACADEIRA SEM FIM ZNB 32X50X12                     UN    000000000000000000000000000
7520250901202509301661          73269090ABRACADEIRA SEM FIM ZNB 25X40X12                     UN    000000000000000000000000000
7520250901202509301697          870893003000001240-KIT EMBREAGEM                             PC    000000000000000000000000000
7520250901202509301703          40093100210792-MANGUEIRA SUPERIOR RADIADOR                   PC    000000000000000000000000000
7520250901202509301718          85392110LAMPADA AUTOMOTIVA H7 12V 55W                        UN    000000000000000000000000000
7520250901202509301719          85392910LAMPADA AUTOMOTIVA W5W 12V 5W                        UN    000000000000000000000000000
7520250901202509301721          85392910LAMPADA AUTOMOTIVA H4 12V 60/55W                     UN    000000000000000000000000000
7520250901202509301722          85392910LAMPADA AUT 12V-21/5W 2 POLOS PINO DESENCONTRADO     UN    000000000000000000000000000
7520250901202509301738          84821090VKBC4220-ROL RODA                                    PC    000000000000000000000000000
7520250901202509301745          32141010SILICONE NEUTRO ALTA TEMP HT CZA 60G BLI             UN    000000000000000000000000000
7520250901202509301746          85392910LAMPADA AUTOMOTIVA H1 12V 55W                        UN    000000000000000000000000000
7520250901202509301756          85392110LAMPADA TORPEDO 11X36 12V 5W                         PC    000000000000000000000000000
7520250901202509301765          84212300PSL818-FILTRO OLEO MOTOR                             PC    000000000000000000000000000
7520250901202509301766          84219999HU6006X-FILTRO OLEO MOTOR                            PC    000000000000000000000000000
7520250901202509301767          87089100522219-RADIADOR AGUA                                 PC    000000000000000000000000000
7520250901202509301780          84212300PSL56-FILTRO OLEO MOTOR                              PC    000000000000000000000000000
7520250901202509301782          84212300W7128-FILTRO OLEO MOTOR                              PC    000000000000000000000000000
7520250901202509301784          84213990CU2629-FILTRO ANTI POLEM                             PC    000000000000000000000000000
7520250901202509301786          400931005U0121073-MANGUEIRA                                  PC    000000000000000000000000000
7520250901202509301791          87088000NBJ4001P-BRACO SUSPENSAO                             PC    000000000000000000000000000
7520250901202509301793          84212300W6MULTI20-FILTRO OLEO MOTOR                          PC    000000000000000000000000000
7520250901202509301830          84219999C2256-FILTRO AR                                      PC    000000000000000000000000000
7520250901202509301831          84219999C2969-FILTRO AR                                      PC    000000000000000000000000000
7520250901202509301841          84219999C301251-FILTRO AR                                    PC    000000000000000000000000000
7520250901202509301862          271019320W20 VALORA-OLEO MOTOR                               LT    000000000000000000000000000
7520250901202509301880          40103500CT488-CORREIA DISTRIBUICAO                           PC    000000000000000000000000000
7520250901202509301900          271019325W30 WR-OLEO MOTOR                                   LT    000000000000000000000000000
7520250901202509301902          84219999ARL6093-FILTRO AR                                    PC    000000000000000000000000000
7520250901202509301908          841330902132022AL-TUBO                                       PC    000000000000000000000000000
7520250901202509301922          87089990030103485AC-TAMPA OLEO MOTOR                         PC    000000000000000000000000000
7520250901202509301931          84219999ARL4161-FILTRO AR                                    PC    000000000000000000000000000
7520250901202509301936          73269090ABRACADEIRA SEM FIM ZNB 30X45X12                     UN    000000000000000000000000000
7520250901202509301948          848350905300592110-KIT CORREIA TENSOR                        PC    000000000000000000000000000
7520250901202509301949          84213990CU26021-FILTRO ANTI POLEM                            PC    000000000000000000000000000
7520250901202509301955          84219999ARL8827-FILTRO AR                                    PC    000000000000000000000000000
7520250901202509301971          40103500CT874HNBR-CORREIA DISTRIBUICAO                       PC    000000000000000000000000000
7520250901202509301975          8421230071754237-FILTRO OLEO MOTOR                           PC    000000000000000000000000000
7520250901202509301977          84099116STA7268STD-ANEL SEGMENTO                             JG    000000000000000000000000000
7520250901202509301978          68159990TAR240412-JUNTA BOMBA OLEO                           PC    000000000000000000000000000
7520250901202509301979          4016930040004820-RETENTOR EIXO PILOTO                        PC    000000000000000000000000000
7520250901202509301980          87083019N1377-PASTILHA FREIO                                 JG    000000000000000000000000000
7520250901202509301981          87083019P1346-PASTILHA FREIO                                 JG    000000000000000000000000000
7520250901202509301982          8413303010188-BOMBA OLEO MOTOR                               PC    000000000000000000000000000
7520250901202509301983          870893003000001210-KIT EMBREAGEM                             JG    000000000000000000000000000
7520250901202509301984          27101932ZC75W90SYNTH-OLEO CAMBIO                             LT    000000000000000000000000000
7520250901202509301985          87089490335018-TERMINAL BARRA DIRECAO                        PC    000000000000000000000000000
7520250901202509301986          87088000650178-BATENTE AMORTECEDOR                           PC    000000000000000000000000000
7520250901202509301987          83023000MG17126-AMORT TAMPA TRAS                             PC    000000000000000000000000000
7520250901202509301988          761610005061008-ARRUELA ALUMINIO                             PC    000000000000000000000000000
7520250901202509301989          84219999C2585-FILTRO AR                                      PC    000000000000000000000000000
7520250901202509301990          40093100JM8160RB-MANGUEIRA                                   PC    000000000000000000000000000
7520250901202509301991          87089990SK1093-COXIM CAMBIO                                  PC    000000000000000000000000000
7520250901202509301992          870893003000001238-KIT EMBREAGEM                             JG    000000000000000000000000000
7520250901202509301993          85129000DYR12-PALHETA LIMPADOR                               PC    000000000000000000000000000
7520250901202509301994          4009329051847602-MANGUEIRA SUPERIOR RADIADOR                 PC    000000000000000000000000000
7520250901202509301995          87088000N99150-BIELETA BARRA ESTABILIZADORA                  PC    000000000000000000000000000
7520250901202509301996          40093100217876-MANGUEIRA                                     PC    000000000000000000000000000
7520250901202509301997          40093100070389-MANGUEIRA SUPERIOR RADIADOR                   PC    000000000000000000000000000
7520250901202509301998          84219999HU7013X-FILTRO OLEO MOTOR                            PC    000000000000000000000000000
7520250901202509301999          84219999C22031-FILTRO AR                                     PC    000000000000000000000000000
7520250901202509302000          87089100RMM1066HGM-RADIADOR AGUA                             PC    000000000000000000000000000
7520250901202509302001          84219999C2496-FILTRO AR                                      PC    000000000000000000000000000
7520250901202509302002          84212300W7MULTI34S-FILTRO OLEO MOTOR                         PC    000000000000000000000000000
7520250901202509302003          87089490335072-TERMINAL BARRA DIRECAO                        PC    000000000000000000000000000
7520250901202509302004          84099190FJ10739-BICO INJETOR                                 PC    000000000000000000000000000
7520250901202509302005          87088000YNAMFT1973-AMORT TAMPA TRAS                          PC    000000000000000000000000000
752025090120250930503           85443000STV42-CABO VELA                                      PC    000000000000000000000000000
