10336213140001600034450680073 CRISTINA ISABEL DE CAMPOS          Belo Horizonte                MG31999760132024110120241130331
11Rua Caconde                       00875                      Renascença     31130510VINICIUS MURTA NERY         031934225098
5000008739287688ISENTO        20241125MG551  0004955656P000000001760000000000000000000000000000000000000000000000000176000000N
5000008739287688ISENTO        20241125MG551  0004955405P000000005300000000000000000000000000000000000000000000000001532000000N
5000008739287688ISENTO        20241125MG551  0004955102P000000000160000000000000000000000000000000000000000000000000016000000N
5000004116831603ISENTO        20241130MG551  0005055656P000000001840000000000000000000000000000000000000000000000000184000000N
5000004116831603ISENTO        20241130MG551  0005055405P000000000600000000000000000000000000000000000000000000000000086000000N
5000055978606668ISENTO        20241125MG551  0004965656P000000001610000000000000000000000000000000000000000000000000161000000N
5000055978606668ISENTO        20241125MG551  0004965405P000000000260000000000000000000000000000000000000000000000000026000000N
5000055978606668ISENTO        20241125MG551  0004965102P000000000050000000000000000000000000000000000000000000000000005000000N
5000007557238648ISENTO        20241126MG551  0004975405P000000003420000000000000000000000000000000000000000000000000638000000N
5000007557238648ISENTO        20241126MG551  0004975656P000000000220000000000000000000000000000000000000000000000000022000000N
5000006329909610ISENTO        20241126MG551  0004985405P000000007690000000000000000000000000000000000000000000000002181000000N
5000006329909610ISENTO        20241126MG551  0004985656P000000001320000000000000000000000000000000000000000000000000132000000N
5000006329909610ISENTO        20241126MG551  0004985102P000000000050000000000000000000000000000000000000000000000000005000000N
5000001445585642ISENTO        20241126MG551  0004995405P000000001680000000000000000000000000000000000000000000000000168000000N
5000011037563620ISENTO        20241126MG551  0005005405P000000002860000000000000000000000000000000000000000000000000720000000N
5000011037563620ISENTO        20241126MG551  0005005102P000000000160000000000000000000000000000000000000000000000000016000000N
5000004818869660ISENTO        20241126MG551  0005015405P000000013140000000000000000000000000000000000000000000000003170000000N
5000005685960646ISENTO        20241126MG551  0005025656P000000001320000000000000000000000000000000000000000000000000132000000N
5000005685960646ISENTO        20241126MG551  0005025405P000000001960000000000000000000000000000000000000000000000000404000000N
5000013699715671ISENTO        20241130MG551  0005075405P000000006620000000000000000000000000000000000000000000000002390000000N
5000013699715671ISENTO        20241130MG551  0005075656P000000001840000000000000000000000000000000000000000000000000184000000N
5000013699715671ISENTO        20241130MG551  0005075102P000000000050000000000000000000000000000000000000000000000000005000000N
5000007790176684ISENTO        20241126MG551  0005035405P000000004040000000000000000000000000000000000000000000000001596000000N
5000007790176684ISENTO        20241126MG551  0005035102P000000000050000000000000000000000000000000000000000000000000005000000N
5000052954366249ISENTO        20241126MG551  0005045656P000000001540000000000000000000000000000000000000000000000000154000000N
5000052954366249ISENTO        20241126MG551  0005045405P000000008020000000000000000000000000000000000000000000000001658000000N
5000052954366249ISENTO        20241126MG551  0005045102P000000000050000000000000000000000000000000000000000000000000005000000N
5000007455538693ISENTO        20241130MG551  0005085656P000000002070000000000000000000000000000000000000000000000000207000000N
5000007455538693ISENTO        20241130MG551  0005085405P000000001360000000000000000000000000000000000000000000000000260000000N
5000045416249668ISENTO        20241130MG551  0005095656P000000002070000000000000000000000000000000000000000000000000207000000N
5000045416249668ISENTO        20241130MG551  0005095405P000000000730000000000000000000000000000000000000000000000000107000000N
5000045416249668ISENTO        20241130MG551  0005095102P000000000160000000000000000000000000000000000000000000000000016000000N
5000005885341613ISENTO        20241130MG551  0005105405P000000001400000000000000000000000000000000000000000000000000236000000N
5000003469776652ISENTO        20241130MG551  0005115656P000000001980000000000000000000000000000000000000000000000000198000000N
5000003469776652ISENTO        20241130MG551  0005115405P000000000930000000000000000000000000000000000000000000000000128000000N
5000045175942620ISENTO        20241130MG551  0005125102P000000000350000000000000000000000000000000000000000000000000035000000N
5000023018518691ISENTO        20241130MG551  0005135656P000000001540000000000000000000000000000000000000000000000000154000000N
5000023018518691ISENTO        20241130MG551  0005135405P000000001240000000000000000000000000000000000000000000000000250000000N
5000020316399604ISENTO        20241130MG551  0005145405P000000001080000000000000000000000000000000000000000000000000190000000N
5000020316399604ISENTO        20241130MG551  0005145656P000000001610000000000000000000000000000000000000000000000000161000000N
5000008442351647ISENTO        20241130MG551  0005155656P000000001840000000000000000000000000000000000000000000000000184000000N
5000008442351647ISENTO        20241130MG551  0005155405P000000000600000000000000000000000000000000000000000000000000086000000N
5000008442351647ISENTO        20241130MG551  0005155102P000000000050000000000000000000000000000000000000000000000000005000000N
5000050736175687ISENTO        20241130MG551  0005165405P000000002980000000000000000000000000000000000000000000000000740000000N
5000040519457668ISENTO        20241130MG551  0005175405P000000003820000000000000000000000000000000000000000000000001219000000N
5000007711668694ISENTO        20241130MG551  0005185656P000000001760000000000000000000000000000000000000000000000000176000000N
5000007711668694ISENTO        20241130MG551  0005185405P000000000780000000000000000000000000000000000000000000000000104000000N
5000000263832686ISENTO        20241130MG551  0005195405P000000001284200000000000000000000000000000000000000000000000202420000N
5000004300672679ISENTO        20241130MG551  0005205405P000000006980000000000000000000000000000000000000000000000000698000000N
5000020546750672ISENTO        20241130MG551  0005215405P000000000880000000000000000000000000000000000000000000000000088000000N
5000004963915693ISENTO        20241130MG551  0005225656P000000001760000000000000000000000000000000000000000000000000176000000N
5000004963915693ISENTO        20241130MG551  0005225405P000000000710000000000000000000000000000000000000000000000000097000000N
5000010967421608ISENTO        20241130MG551  0005235405P000000001180000000000000000000000000000000000000000000000000146000000N
5000016338952620ISENTO        20241130MG551  0005245405P000000002880000000000000000000000000000000000000000000000000730000000N
5000068516460649ISENTO        20241130MG551  0005255405P000000000920000000000000000000000000000000000000000000000000092000000N
5000003309050661ISENTO        20241130MG551  0005265656P000000001540000000000000000000000000000000000000000000000000154000000N
5000003309050661ISENTO        20241130MG551  0005265405P000000000730000000000000000000000000000000000000000000000000107000000N
5000006724336643ISENTO        20241130MG551  0005275405P000000003780000000000000000000000000000000000000000000000001198000000N
5000005253169652ISENTO        20241130MG551  0005285405P000000001860000000000000000000000000000000000000000000000000560000000N
5000005253169652ISENTO        20241130MG551  0005285656P000000001320000000000000000000000000000000000000000000000000132000000N
5000003634098660ISENTO        20241130MG551  0005295405P000000003320000000000000000000000000000000000000000000000000822000000N
5000003634098660ISENTO        20241130MG551  0005295102P000000000350000000000000000000000000000000000000000000000000035000000N
5000016041259691ISENTO        20241130MG551  0005305405P000000005440000000000000000000000000000000000000000000000001521000000N
5000016041259691ISENTO        20241130MG551  0005305656P000000001760000000000000000000000000000000000000000000000000176000000N
5000016041259691ISENTO        20241130MG551  0005305102P000000000160000000000000000000000000000000000000000000000000016000000N
5000009845685650ISENTO        20241130MG551  0005315405P000000000340000000000000000000000000000000000000000000000000034000000N
5000057654891687ISENTO        20241130MG551  0005325656P000000000000000000000000000000000000000000000000000000000000000000000N
5000057654891687ISENTO        20241130MG551  0005325405P000000000880000000000000000000000000000000000000000000000000124000000N
5000037845454249ISENTO        20241130MG551  0005335405P000000007300000000000000000000000000000000000000000000000002368000000N
5000001553726618ISENTO        20241130MG551  0005345405P000000002360000000000000000000000000000000000000000000000000588000000N
5000001553726618ISENTO        20241130MG551  0005345102P000000000160000000000000000000000000000000000000000000000000016000000N
5000003161043618ISENTO        20241130MG551  0005365656P000000001320000000000000000000000000000000000000000000000000132000000N
5000003161043618ISENTO        20241130MG551  0005365405P000000000700000000000000000000000000000000000000000000000000104000000N
5000003161043618ISENTO        20241130MG551  0005365102P000000000050000000000000000000000000000000000000000000000000005000000N
5000007276852601ISENTO        20241130MG551  0005375656P000000002200000000000000000000000000000000000000000000000000220000000N
5000007276852601ISENTO        20241130MG551  0005375405P000000001020000000000000000000000000000000000000000000000000136000000N
5000007276852601ISENTO        20241130MG551  0005375102P000000000160000000000000000000000000000000000000000000000000016000000N
5000086201638687ISENTO        20241130MG551  0005385102P000000000050000000000000000000000000000000000000000000000000005000000N
5000031216293600ISENTO        20241130MG551  0005395656P000000002070000000000000000000000000000000000000000000000000207000000N
5000031216293600ISENTO        20241130MG551  0005395405P000000000800000000000000000000000000000000000000000000000000114000000N
5000031216293600ISENTO        20241130MG551  0005395102P000000000160000000000000000000000000000000000000000000000000016000000N
5000005691927655ISENTO        20241130MG551  0005405405P000000002060000000000000000000000000000000000000000000000000386000000N
5000005691927655ISENTO        20241130MG551  0005405102P000000000160000000000000000000000000000000000000000000000000016000000N
5000004577681692ISENTO        20241130MG551  0005415656P000000001840000000000000000000000000000000000000000000000000184000000N
5000004577681692ISENTO        20241130MG551  0005415405P000000000610000000000000000000000000000000000000000000000000087000000N
5000004577681692ISENTO        20241130MG551  0005415102P000000000050000000000000000000000000000000000000000000000000005000000N
5000008595372187ISENTO        20241130MG551  0005425405P000000011440000000000000000000000000000000000000000000000004897000000N
5000008595372187ISENTO        20241130MG551  0005425656P000000002070000000000000000000000000000000000000000000000000207000000N
5000008595372187ISENTO        20241130MG551  0005425102P000000000160000000000000000000000000000000000000000000000000016000000N
5000003068601630ISENTO        20241130MG551  0005435656P000000001320000000000000000000000000000000000000000000000000132000000N
5000003068601630ISENTO        20241130MG551  0005435405P000000000260000000000000000000000000000000000000000000000000026000000N
5000003068601630ISENTO        20241130MG551  0005435102P000000000060000000000000000000000000000000000000000000000000006000000N
5000068516460649ISENTO        20241130MG551  0005445405P000000010240000000000000000000000000000000000000000000000002136000000N
5000043676375653ISENTO        20241130MG551  0005455405P000000003060000000000000000000000000000000000000000000000000756000000N
5000043676375653ISENTO        20241130MG551  0005455102P000000000160000000000000000000000000000000000000000000000000016000000N
5000001563860627ISENTO        20241130MG551  0005465405P000000007440000000000000000000000000000000000000000000000001922000000N
5000014014050610ISENTO        20241130MG551  0005475656P000000001320000000000000000000000000000000000000000000000000132000000N
5000014014050610ISENTO        20241130MG551  0005475405P000000000260000000000000000000000000000000000000000000000000026000000N
5000014014050610ISENTO        20241130MG551  0005475102P000000000060000000000000000000000000000000000000000000000000006000000N
5000009878258602ISENTO        20241130MG551  0005485656P000000001760000000000000000000000000000000000000000000000000176000000N
5000009878258602ISENTO        20241130MG551  0005485405P000000002170000000000000000000000000000000000000000000000000379000000N
5000071001352653ISENTO        20241130MG551  0005495405P000000007920000000000000000000000000000000000000000000000001806000000N
5000059266660663ISENTO        20241130MG551  0005505656P000000000000000000000000000000000000000000000000000000000000000000000N
5000059266660663ISENTO        20241130MG551  0005505405P000000001000000000000000000000000000000000000000000000000000198000000N
5000092017991600ISENTO        20241130MG551  0005515656P000000001320000000000000000000000000000000000000000000000000132000000N
5000092017991600ISENTO        20241130MG551  0005515405P000000001450000000000000000000000000000000000000000000000000281000000N
50215322700001130624775200061 20241107MG551  0102251403T000000008910900000000000000000000000000000000000000000000000000000000N
50227615840080540032156090718 20241127MG555  0047281403T000000005471800000000000000000000000000000000000000000000000000990000N
50215322700001130624775200061 20241114MG551  0102821403T000000025749700000000000000000000000000000000000000000000000000000000N
50215322700001130624775200061 20241121MG551  0103261403T000000015327200000000000000000000000000000000000000000000000000000000N
50215322700001130624775200061 20241129MG551  0104051403T000000015189800000000000000000000000000000000000000000000000000000000N
50215322700001130624775200061 20241129MG551  0104051102T000000000130000000000013000000000000234000000000000000000000000001800N
504444858100010246329510067   20241129MG551  0006405655T000000013910400000000000000000000000000000000000000000000001391040000N
51215322700001130624775200061 20241107MG1  01022514030000000000000000000000000000000000000000000000000000                    N
51215322700001130624775200061 20241114MG1  01028214030000000000000000000000000000000000000000000000000000                    N
51215322700001130624775200061 20241121MG1  01032614030000000000000000000000000000000000000000000000000000                    N
5100008739287688ISENTO        20241125MG1  00049556560000000000000000000000000000000000000000000000000000                    N
5100008739287688ISENTO        20241125MG1  00049554050000000000000000000000000000000000000000000000000000                    N
5100008739287688ISENTO        20241125MG1  00049551020000000000000000000000000000000000000000000000000000                    N
5100055978606668ISENTO        20241125MG1  00049651020000000000000000000000000000000000000000000000000000                    N
5100055978606668ISENTO        20241125MG1  00049654050000000000000000000000000000000000000000000000000000                    N
5100055978606668ISENTO        20241125MG1  00049656560000000000000000000000000000000000000000000000000000                    N
5100007557238648ISENTO        20241126MG1  00049756560000000000000000000000000000000000000000000000000000                    N
5100007557238648ISENTO        20241126MG1  00049754050000000000000000000000000000000000000000000000000000                    N
5100006329909610ISENTO        20241126MG1  00049851020000000000000000000000000000000000000000000000000000                    N
5100006329909610ISENTO        20241126MG1  00049856560000000000000000000000000000000000000000000000000000                    N
5100006329909610ISENTO        20241126MG1  00049854050000000000000000000000000000000000000000000000000000                    N
5100001445585642ISENTO        20241126MG1  00049954050000000000000000000000000000000000000000000000000000                    N
5100011037563620ISENTO        20241126MG1  00050051020000000000000000000000000000000000000000000000000000                    N
5100011037563620ISENTO        20241126MG1  00050054050000000000000000000000000000000000000000000000000000                    N
5100004818869660ISENTO        20241126MG1  00050154050000000000000000000000000000000000000000000000000000                    N
5100005685960646ISENTO        20241126MG1  00050254050000000000000000000000000000000000000000000000000000                    N
5100005685960646ISENTO        20241126MG1  00050256560000000000000000000000000000000000000000000000000000                    N
5100007790176684ISENTO        20241126MG1  00050354050000000000000000000000000000000000000000000000000000                    N
5100007790176684ISENTO        20241126MG1  00050351020000000000000000000000000000000000000000000000000000                    N
5100052954366249ISENTO        20241126MG1  00050454050000000000000000000000000000000000000000000000000000                    N
5100052954366249ISENTO        20241126MG1  00050451020000000000000000000000000000000000000000000000000000                    N
5100052954366249ISENTO        20241126MG1  00050456560000000000000000000000000000000000000000000000000000                    N
51227615840080540032156090718 20241127MG5  00472814030000000000000000000000000000000000000000000000000000                    N
51215322700001130624775200061 20241129MG1  01040514030000000000000000000000000000000000000000000000000000                    N
51215322700001130624775200061 20241129MG1  01040511020000000000000000000000000000000000000000000000000000                    N
514444858100010246329510067   20241129MG1  00064056550000000000000000000000000000000000000000000000000000                    N
5100004116831603ISENTO        20241130MG1  00050556560000000000000000000000000000000000000000000000000000                    N
5100004116831603ISENTO        20241130MG1  00050554050000000000000000000000000000000000000000000000000000                    N
5100013699715671ISENTO        20241130MG1  00050751020000000000000000000000000000000000000000000000000000                    N
5100013699715671ISENTO        20241130MG1  00050756560000000000000000000000000000000000000000000000000000                    N
5100013699715671ISENTO        20241130MG1  00050754050000000000000000000000000000000000000000000000000000                    N
5100007455538693ISENTO        20241130MG1  00050854050000000000000000000000000000000000000000000000000000                    N
5100007455538693ISENTO        20241130MG1  00050856560000000000000000000000000000000000000000000000000000                    N
5100045416249668ISENTO        20241130MG1  00050954050000000000000000000000000000000000000000000000000000                    N
5100045416249668ISENTO        20241130MG1  00050956560000000000000000000000000000000000000000000000000000                    N
5100045416249668ISENTO        20241130MG1  00050951020000000000000000000000000000000000000000000000000000                    N
5100005885341613ISENTO        20241130MG1  00051054050000000000000000000000000000000000000000000000000000                    N
5100003469776652ISENTO        20241130MG1  00051154050000000000000000000000000000000000000000000000000000                    N
5100003469776652ISENTO        20241130MG1  00051156560000000000000000000000000000000000000000000000000000                    N
5100045175942620ISENTO        20241130MG1  00051251020000000000000000000000000000000000000000000000000000                    N
5100023018518691ISENTO        20241130MG1  00051356560000000000000000000000000000000000000000000000000000                    N
5100023018518691ISENTO        20241130MG1  00051354050000000000000000000000000000000000000000000000000000                    N
5100020316399604ISENTO        20241130MG1  00051454050000000000000000000000000000000000000000000000000000                    N
5100020316399604ISENTO        20241130MG1  00051456560000000000000000000000000000000000000000000000000000                    N
5100008442351647ISENTO        20241130MG1  00051556560000000000000000000000000000000000000000000000000000                    N
5100008442351647ISENTO        20241130MG1  00051554050000000000000000000000000000000000000000000000000000                    N
5100008442351647ISENTO        20241130MG1  00051551020000000000000000000000000000000000000000000000000000                    N
5100050736175687ISENTO        20241130MG1  00051654050000000000000000000000000000000000000000000000000000                    N
5100040519457668ISENTO        20241130MG1  00051754050000000000000000000000000000000000000000000000000000                    N
5100007711668694ISENTO        20241130MG1  00051856560000000000000000000000000000000000000000000000000000                    N
5100007711668694ISENTO        20241130MG1  00051854050000000000000000000000000000000000000000000000000000                    N
5100000263832686ISENTO        20241130MG1  00051954050000000000000000000000000000000000000000000000000000                    N
5100004300672679ISENTO        20241130MG1  00052054050000000000000000000000000000000000000000000000000000                    N
5100020546750672ISENTO        20241130MG1  00052154050000000000000000000000000000000000000000000000000000                    N
5100004963915693ISENTO        20241130MG1  00052256560000000000000000000000000000000000000000000000000000                    N
5100004963915693ISENTO        20241130MG1  00052254050000000000000000000000000000000000000000000000000000                    N
5100010967421608ISENTO        20241130MG1  00052354050000000000000000000000000000000000000000000000000000                    N
5100016338952620ISENTO        20241130MG1  00052454050000000000000000000000000000000000000000000000000000                    N
5100068516460649ISENTO        20241130MG1  00052554050000000000000000000000000000000000000000000000000000                    N
5100003309050661ISENTO        20241130MG1  00052656560000000000000000000000000000000000000000000000000000                    N
5100003309050661ISENTO        20241130MG1  00052654050000000000000000000000000000000000000000000000000000                    N
5100006724336643ISENTO        20241130MG1  00052754050000000000000000000000000000000000000000000000000000                    N
5100005253169652ISENTO        20241130MG1  00052856560000000000000000000000000000000000000000000000000000                    N
5100005253169652ISENTO        20241130MG1  00052854050000000000000000000000000000000000000000000000000000                    N
5100003634098660ISENTO        20241130MG1  00052954050000000000000000000000000000000000000000000000000000                    N
5100003634098660ISENTO        20241130MG1  00052951020000000000000000000000000000000000000000000000000000                    N
5100016041259691ISENTO        20241130MG1  00053051020000000000000000000000000000000000000000000000000000                    N
5100016041259691ISENTO        20241130MG1  00053056560000000000000000000000000000000000000000000000000000                    N
5100016041259691ISENTO        20241130MG1  00053054050000000000000000000000000000000000000000000000000000                    N
5100009845685650ISENTO        20241130MG1  00053154050000000000000000000000000000000000000000000000000000                    N
5100057654891687ISENTO        20241130MG1  00053256560000000000000000000000000000000000000000000000000000                    N
5100057654891687ISENTO        20241130MG1  00053254050000000000000000000000000000000000000000000000000000                    N
5100037845454249ISENTO        20241130MG1  00053354050000000000000000000000000000000000000000000000000000                    N
5100001553726618ISENTO        20241130MG1  00053451020000000000000000000000000000000000000000000000000000                    N
5100001553726618ISENTO        20241130MG1  00053454050000000000000000000000000000000000000000000000000000                    N
5100003161043618ISENTO        20241130MG1  00053651020000000000000000000000000000000000000000000000000000                    N
5100003161043618ISENTO        20241130MG1  00053654050000000000000000000000000000000000000000000000000000                    N
5100003161043618ISENTO        20241130MG1  00053656560000000000000000000000000000000000000000000000000000                    N
5100007276852601ISENTO        20241130MG1  00053751020000000000000000000000000000000000000000000000000000                    N
5100007276852601ISENTO        20241130MG1  00053754050000000000000000000000000000000000000000000000000000                    N
5100007276852601ISENTO        20241130MG1  00053756560000000000000000000000000000000000000000000000000000                    N
5100086201638687ISENTO        20241130MG1  00053851020000000000000000000000000000000000000000000000000000                    N
5100031216293600ISENTO        20241130MG1  00053951020000000000000000000000000000000000000000000000000000                    N
5100031216293600ISENTO        20241130MG1  00053954050000000000000000000000000000000000000000000000000000                    N
5100031216293600ISENTO        20241130MG1  00053956560000000000000000000000000000000000000000000000000000                    N
5100005691927655ISENTO        20241130MG1  00054054050000000000000000000000000000000000000000000000000000                    N
5100005691927655ISENTO        20241130MG1  00054051020000000000000000000000000000000000000000000000000000                    N
5100004577681692ISENTO        20241130MG1  00054154050000000000000000000000000000000000000000000000000000                    N
5100004577681692ISENTO        20241130MG1  00054151020000000000000000000000000000000000000000000000000000                    N
5100004577681692ISENTO        20241130MG1  00054156560000000000000000000000000000000000000000000000000000                    N
5100008595372187ISENTO        20241130MG1  00054254050000000000000000000000000000000000000000000000000000                    N
5100008595372187ISENTO        20241130MG1  00054256560000000000000000000000000000000000000000000000000000                    N
5100008595372187ISENTO        20241130MG1  00054251020000000000000000000000000000000000000000000000000000                    N
5100003068601630ISENTO        20241130MG1  00054354050000000000000000000000000000000000000000000000000000                    N
5100003068601630ISENTO        20241130MG1  00054351020000000000000000000000000000000000000000000000000000                    N
5100003068601630ISENTO        20241130MG1  00054356560000000000000000000000000000000000000000000000000000                    N
5100068516460649ISENTO        20241130MG1  00054454050000000000000000000000000000000000000000000000000000                    N
5100043676375653ISENTO        20241130MG1  00054551020000000000000000000000000000000000000000000000000000                    N
5100043676375653ISENTO        20241130MG1  00054554050000000000000000000000000000000000000000000000000000                    N
5100001563860627ISENTO        20241130MG1  00054654050000000000000000000000000000000000000000000000000000                    N
5100014014050610ISENTO        20241130MG1  00054751020000000000000000000000000000000000000000000000000000                    N
5100014014050610ISENTO        20241130MG1  00054754050000000000000000000000000000000000000000000000000000                    N
5100014014050610ISENTO        20241130MG1  00054756560000000000000000000000000000000000000000000000000000                    N
5100009878258602ISENTO        20241130MG1  00054856560000000000000000000000000000000000000000000000000000                    N
5100009878258602ISENTO        20241130MG1  00054854050000000000000000000000000000000000000000000000000000                    N
5100071001352653ISENTO        20241130MG1  00054954050000000000000000000000000000000000000000000000000000                    N
5100059266660663ISENTO        20241130MG1  00055056560000000000000000000000000000000000000000000000000000                    N
5100059266660663ISENTO        20241130MG1  00055054050000000000000000000000000000000000000000000000000000                    N
5100092017991600ISENTO        20241130MG1  00055156560000000000000000000000000000000000000000000000000000                    N
5100092017991600ISENTO        20241130MG1  00055154050000000000000000000000000000000000000000000000000000                    N
5300008739287688ISENTO        20241125MG551  0004955656P000000000000000000000000000000000000000N                              
5300008739287688ISENTO        20241125MG551  0004955405P000000000000000000000000000000000000000N                              
5300008739287688ISENTO        20241125MG551  0004955102P000000000000000000000000000000000000000N                              
5300004116831603ISENTO        20241130MG551  0005055656P000000000000000000000000000000000000000N                              
5300004116831603ISENTO        20241130MG551  0005055405P000000000000000000000000000000000000000N                              
5300055978606668ISENTO        20241125MG551  0004965656P000000000000000000000000000000000000000N                              
5300055978606668ISENTO        20241125MG551  0004965405P000000000000000000000000000000000000000N                              
5300055978606668ISENTO        20241125MG551  0004965102P000000000000000000000000000000000000000N                              
5300007557238648ISENTO        20241126MG551  0004975405P000000000000000000000000000000000000000N                              
5300007557238648ISENTO        20241126MG551  0004975656P000000000000000000000000000000000000000N                              
5300006329909610ISENTO        20241126MG551  0004985405P000000000000000000000000000000000000000N                              
5300006329909610ISENTO        20241126MG551  0004985656P000000000000000000000000000000000000000N                              
5300006329909610ISENTO        20241126MG551  0004985102P000000000000000000000000000000000000000N                              
5300001445585642ISENTO        20241126MG551  0004995405P000000000000000000000000000000000000000N                              
5300011037563620ISENTO        20241126MG551  0005005405P000000000000000000000000000000000000000N                              
5300011037563620ISENTO        20241126MG551  0005005102P000000000000000000000000000000000000000N                              
5300004818869660ISENTO        20241126MG551  0005015405P000000000000000000000000000000000000000N                              
5300005685960646ISENTO        20241126MG551  0005025656P000000000000000000000000000000000000000N                              
5300005685960646ISENTO        20241126MG551  0005025405P000000000000000000000000000000000000000N                              
5300013699715671ISENTO        20241130MG551  0005075405P000000000000000000000000000000000000000N                              
5300013699715671ISENTO        20241130MG551  0005075656P000000000000000000000000000000000000000N                              
5300013699715671ISENTO        20241130MG551  0005075102P000000000000000000000000000000000000000N                              
5300007790176684ISENTO        20241126MG551  0005035405P000000000000000000000000000000000000000N                              
5300007790176684ISENTO        20241126MG551  0005035102P000000000000000000000000000000000000000N                              
5300052954366249ISENTO        20241126MG551  0005045656P000000000000000000000000000000000000000N                              
5300052954366249ISENTO        20241126MG551  0005045405P000000000000000000000000000000000000000N                              
5300052954366249ISENTO        20241126MG551  0005045102P000000000000000000000000000000000000000N                              
5300007455538693ISENTO        20241130MG551  0005085656P000000000000000000000000000000000000000N                              
5300007455538693ISENTO        20241130MG551  0005085405P000000000000000000000000000000000000000N                              
5300045416249668ISENTO        20241130MG551  0005095656P000000000000000000000000000000000000000N                              
5300045416249668ISENTO        20241130MG551  0005095405P000000000000000000000000000000000000000N                              
5300045416249668ISENTO        20241130MG551  0005095102P000000000000000000000000000000000000000N                              
5300005885341613ISENTO        20241130MG551  0005105405P000000000000000000000000000000000000000N                              
5300003469776652ISENTO        20241130MG551  0005115656P000000000000000000000000000000000000000N                              
5300003469776652ISENTO        20241130MG551  0005115405P000000000000000000000000000000000000000N                              
5300045175942620ISENTO        20241130MG551  0005125102P000000000000000000000000000000000000000N                              
5300023018518691ISENTO        20241130MG551  0005135656P000000000000000000000000000000000000000N                              
5300023018518691ISENTO        20241130MG551  0005135405P000000000000000000000000000000000000000N                              
5300020316399604ISENTO        20241130MG551  0005145405P000000000000000000000000000000000000000N                              
5300020316399604ISENTO        20241130MG551  0005145656P000000000000000000000000000000000000000N                              
5300008442351647ISENTO        20241130MG551  0005155656P000000000000000000000000000000000000000N                              
5300008442351647ISENTO        20241130MG551  0005155405P000000000000000000000000000000000000000N                              
5300008442351647ISENTO        20241130MG551  0005155102P000000000000000000000000000000000000000N                              
5300050736175687ISENTO        20241130MG551  0005165405P000000000000000000000000000000000000000N                              
5300040519457668ISENTO        20241130MG551  0005175405P000000000000000000000000000000000000000N                              
5300007711668694ISENTO        20241130MG551  0005185656P000000000000000000000000000000000000000N                              
5300007711668694ISENTO        20241130MG551  0005185405P000000000000000000000000000000000000000N                              
5300000263832686ISENTO        20241130MG551  0005195405P000000000000000000000000000000000000000N                              
5300004300672679ISENTO        20241130MG551  0005205405P000000000000000000000000000000000000000N                              
5300020546750672ISENTO        20241130MG551  0005215405P000000000000000000000000000000000000000N                              
5300004963915693ISENTO        20241130MG551  0005225656P000000000000000000000000000000000000000N                              
5300004963915693ISENTO        20241130MG551  0005225405P000000000000000000000000000000000000000N                              
5300010967421608ISENTO        20241130MG551  0005235405P000000000000000000000000000000000000000N                              
5300016338952620ISENTO        20241130MG551  0005245405P000000000000000000000000000000000000000N                              
5300068516460649ISENTO        20241130MG551  0005255405P000000000000000000000000000000000000000N                              
5300003309050661ISENTO        20241130MG551  0005265656P000000000000000000000000000000000000000N                              
5300003309050661ISENTO        20241130MG551  0005265405P000000000000000000000000000000000000000N                              
5300006724336643ISENTO        20241130MG551  0005275405P000000000000000000000000000000000000000N                              
5300005253169652ISENTO        20241130MG551  0005285405P000000000000000000000000000000000000000N                              
5300005253169652ISENTO        20241130MG551  0005285656P000000000000000000000000000000000000000N                              
5300003634098660ISENTO        20241130MG551  0005295405P000000000000000000000000000000000000000N                              
5300003634098660ISENTO        20241130MG551  0005295102P000000000000000000000000000000000000000N                              
5300016041259691ISENTO        20241130MG551  0005305405P000000000000000000000000000000000000000N                              
5300016041259691ISENTO        20241130MG551  0005305656P000000000000000000000000000000000000000N                              
5300016041259691ISENTO        20241130MG551  0005305102P000000000000000000000000000000000000000N                              
5300009845685650ISENTO        20241130MG551  0005315405P000000000000000000000000000000000000000N                              
5300057654891687ISENTO        20241130MG551  0005325656P000000000000000000000000000000000000000N                              
5300057654891687ISENTO        20241130MG551  0005325405P000000000000000000000000000000000000000N                              
5300037845454249ISENTO        20241130MG551  0005335405P000000000000000000000000000000000000000N                              
5300001553726618ISENTO        20241130MG551  0005345405P000000000000000000000000000000000000000N                              
5300001553726618ISENTO        20241130MG551  0005345102P000000000000000000000000000000000000000N                              
5300003161043618ISENTO        20241130MG551  0005365656P000000000000000000000000000000000000000N                              
5300003161043618ISENTO        20241130MG551  0005365405P000000000000000000000000000000000000000N                              
5300003161043618ISENTO        20241130MG551  0005365102P000000000000000000000000000000000000000N                              
5300007276852601ISENTO        20241130MG551  0005375656P000000000000000000000000000000000000000N                              
5300007276852601ISENTO        20241130MG551  0005375405P000000000000000000000000000000000000000N                              
5300007276852601ISENTO        20241130MG551  0005375102P000000000000000000000000000000000000000N                              
5300086201638687ISENTO        20241130MG551  0005385102P000000000000000000000000000000000000000N                              
5300031216293600ISENTO        20241130MG551  0005395656P000000000000000000000000000000000000000N                              
5300031216293600ISENTO        20241130MG551  0005395405P000000000000000000000000000000000000000N                              
5300031216293600ISENTO        20241130MG551  0005395102P000000000000000000000000000000000000000N                              
5300005691927655ISENTO        20241130MG551  0005405405P000000000000000000000000000000000000000N                              
5300005691927655ISENTO        20241130MG551  0005405102P000000000000000000000000000000000000000N                              
5300004577681692ISENTO        20241130MG551  0005415656P000000000000000000000000000000000000000N                              
5300004577681692ISENTO        20241130MG551  0005415405P000000000000000000000000000000000000000N                              
5300004577681692ISENTO        20241130MG551  0005415102P000000000000000000000000000000000000000N                              
5300008595372187ISENTO        20241130MG551  0005425405P000000000000000000000000000000000000000N                              
5300008595372187ISENTO        20241130MG551  0005425656P000000000000000000000000000000000000000N                              
5300008595372187ISENTO        20241130MG551  0005425102P000000000000000000000000000000000000000N                              
5300003068601630ISENTO        20241130MG551  0005435656P000000000000000000000000000000000000000N                              
5300003068601630ISENTO        20241130MG551  0005435405P000000000000000000000000000000000000000N                              
5300003068601630ISENTO        20241130MG551  0005435102P000000000000000000000000000000000000000N                              
5300068516460649ISENTO        20241130MG551  0005445405P000000000000000000000000000000000000000N                              
5300043676375653ISENTO        20241130MG551  0005455405P000000000000000000000000000000000000000N                              
5300043676375653ISENTO        20241130MG551  0005455102P000000000000000000000000000000000000000N                              
5300001563860627ISENTO        20241130MG551  0005465405P000000000000000000000000000000000000000N                              
5300014014050610ISENTO        20241130MG551  0005475656P000000000000000000000000000000000000000N                              
5300014014050610ISENTO        20241130MG551  0005475405P000000000000000000000000000000000000000N                              
5300014014050610ISENTO        20241130MG551  0005475102P000000000000000000000000000000000000000N                              
5300009878258602ISENTO        20241130MG551  0005485656P000000000000000000000000000000000000000N                              
5300009878258602ISENTO        20241130MG551  0005485405P000000000000000000000000000000000000000N                              
5300071001352653ISENTO        20241130MG551  0005495405P000000000000000000000000000000000000000N                              
5300059266660663ISENTO        20241130MG551  0005505656P000000000000000000000000000000000000000N                              
5300059266660663ISENTO        20241130MG551  0005505405P000000000000000000000000000000000000000N                              
5300092017991600ISENTO        20241130MG551  0005515656P000000000000000000000000000000000000000N                              
5300092017991600ISENTO        20241130MG551  0005515405P000000000000000000000000000000000000000N                              
53215322700001130624775200061 20241107MG551  0102251403T000000000000000000000000000000000000000N                              
53227615840080540032156090718 20241127MG555  0047281403T000000000000000000000000000000000000000N                              
53215322700001130624775200061 20241114MG551  0102821403T000000000000000000000000000000000000000N                              
53215322700001130624775200061 20241121MG551  0103261403T000000000000000000000000000000000000000N                              
53215322700001130624775200061 20241129MG551  0104051403T000000000000000000000000000000000000000N                              
53215322700001130624775200061 20241129MG551  0104051102T000000000000000000000000000000000000000N                              
534444858100010246329510067   20241129MG551  0006405655T000000000000000000000000000000000000000N                              
5400000263832686551  00051954055000011070          000000010000000000074000000000000000000000000000000000000000000000000000000
5400000263832686551  00051954055000021133          000000010000000000054420000000000000000000000000000000000000000000000000000
5400001445585642551  0004995405500001832           000000020000000000168000000000000000000000000000000000000000000000000000000
5400001553726618551  0005345405500001916           000000040000000000160000000000000000000000000000000000000000000000000000000
5400001553726618551  0005345405500002745           000000010000000000032000000000000000000000000000000000000000000000000000000
5400001553726618551  00053454055000031441          000000010000000000044000000000000000000000000000000000000000000000000000000
5400001553726618551  0005345102102004972           000000010000000000016000000000000000000000000000000000000000000000000000000
5400001563860627551  00054654055000011446          000000010000000000468000000000000000000000000000000000000000000000000000000
5400001563860627551  00054654055000021447          000000010000000000242000000000000000000000000000000000000000000000000000000
5400001563860627551  0005465405500003509           000000010000000000034000000000000000000000000000000000000000000000000000000
5400003068601630551  0005435656500001887           000000030000000000132000000000000000000000000000000000000000000000000000000
5400003068601630551  0005435405500002882           000000010000000000026000000000000000000000000000000000000000000000000000000
5400003068601630551  0005435102102003972           000000010000000000006000000000000000000000000000000000000000000000000000000
5400003161043618551  00053656565000011260          000000030000000000132000000000000000000000000000000000000000000000000000000
5400003161043618551  0005365405500002745           000000010000000000034000000000000000000000000000000000000000000000000000000
5400003161043618551  0005365405500003736           000000010000000000036000000000000000000000000000000000000000000000000000000
5400003161043618551  0005365102102004972           000000010000000000005000000000000000000000000000000000000000000000000000000
5400003309050661551  0005265656500001887           000000035000000000154000000000000000000000000000000000000000000000000000000
5400003309050661551  0005265405500002829           000000010000000000034000000000000000000000000000000000000000000000000000000
5400003309050661551  0005265405500003874           000000010000000000039000000000000000000000000000000000000000000000000000000
5400003469776652551  0005115656500001887           000000045000000000198000000000000000000000000000000000000000000000000000000
5400003469776652551  0005115405500002680           000000010000000000035000000000000000000000000000000000000000000000000000000
5400003469776652551  0005115405500003624           000000010000000000058000000000000000000000000000000000000000000000000000000
5400003634098660551  0005295405500001633           000000040000000000232000000000000000000000000000000000000000000000000000000
5400003634098660551  0005295405500002882           000000010000000000026000000000000000000000000000000000000000000000000000000
5400003634098660551  0005295405500003997           000000010000000000074000000000000000000000000000000000000000000000000000000
5400003634098660551  00052951021020041259          000000010000000000035000000000000000000000000000000000000000000000000000000
5400004116831603551  0005055656500001886           000000040000000000184000000000000000000000000000000000000000000000000000000
5400004116831603551  0005055405500002882           000000010000000000026000000000000000000000000000000000000000000000000000000
5400004116831603551  0005055405500003857           000000010000000000034000000000000000000000000000000000000000000000000000000
5400004300672679551  00052054055000011445          000000040000000000698000000000000000000000000000000000000000000000000000000
5400004577681692551  0005415656500001886           000000040000000000184000000000000000000000000000000000000000000000000000000
5400004577681692551  0005415405500002882           000000010000000000026000000000000000000000000000000000000000000000000000000
5400004577681692551  0005415405500003736           000000010000000000035000000000000000000000000000000000000000000000000000000
5400004577681692551  0005415102102004972           000000010000000000005000000000000000000000000000000000000000000000000000000
5400004818869660551  0005015405500001713           000000010000000000640000000000000000000000000000000000000000000000000000000
5400004818869660551  00050154055000021442          000000080000000000576000000000000000000000000000000000000000000000000000000
5400004818869660551  00050154055000031251          000000010000000000098000000000000000000000000000000000000000000000000000000
5400004963915693551  0005225656500001887           000000040000000000176000000000000000000000000000000000000000000000000000000
5400004963915693551  0005225405500002882           000000010000000000026000000000000000000000000000000000000000000000000000000
5400004963915693551  00052254055000031297          000000010000000000045000000000000000000000000000000000000000000000000000000
5400005253169652551  00052854055000011385          000000010000000000096000000000000000000000000000000000000000000000000000000
5400005253169652551  0005285656500002887           000000030000000000132000000000000000000000000000000000000000000000000000000
5400005253169652551  0005285405500003882           000000010000000000026000000000000000000000000000000000000000000000000000000
5400005253169652551  0005285405500004736           000000010000000000034000000000000000000000000000000000000000000000000000000
5400005253169652551  0005285405500005689           000000010000000000030000000000000000000000000000000000000000000000000000000
5400005685960646551  00050256565000011260          000000030000000000132000000000000000000000000000000000000000000000000000000
5400005685960646551  0005025405500002882           000000010000000000026000000000000000000000000000000000000000000000000000000
5400005685960646551  0005025405500003655           000000010000000000034000000000000000000000000000000000000000000000000000000
5400005685960646551  0005025405500004858           000000010000000000062000000000000000000000000000000000000000000000000000000
5400005685960646551  0005025405500005699           000000010000000000074000000000000000000000000000000000000000000000000000000
5400005691927655551  0005405405500001916           000000045000000000180000000000000000000000000000000000000000000000000000000
5400005691927655551  0005405405500002882           000000010000000000026000000000000000000000000000000000000000000000000000000
5400005691927655551  0005405102102003972           000000010000000000016000000000000000000000000000000000000000000000000000000
5400005885341613551  00051054055000011385          000000010000000000096000000000000000000000000000000000000000000000000000000
5400005885341613551  0005105405500002790           000000010000000000044000000000000000000000000000000000000000000000000000000
5400006329909610551  00049854055000011036          000000010000000000689000000000000000000000000000000000000000000000000000000
5400006329909610551  0004985656500002887           000000030000000000132000000000000000000000000000000000000000000000000000000
5400006329909610551  0004985405500003829           000000010000000000034000000000000000000000000000000000000000000000000000000
5400006329909610551  00049854055000041441          000000010000000000046000000000000000000000000000000000000000000000000000000
5400006329909610551  0004985102102005972           000000010000000000005000000000000000000000000000000000000000000000000000000
5400006724336643551  0005275405500001633           000000040000000000232000000000000000000000000000000000000000000000000000000
5400006724336643551  0005275405500002882           000000010000000000026000000000000000000000000000000000000000000000000000000
5400006724336643551  00052754055000031420          000000010000000000072000000000000000000000000000000000000000000000000000000
5400006724336643551  00052754055000041349          000000010000000000048000000000000000000000000000000000000000000000000000000
5400007276852601551  00053756565000011260          000000050000000000220000000000000000000000000000000000000000000000000000000
5400007276852601551  0005375405500002745           000000010000000000034000000000000000000000000000000000000000000000000000000
5400007276852601551  00053754055000031420          000000010000000000068000000000000000000000000000000000000000000000000000000
5400007276852601551  0005375102102004972           000000010000000000016000000000000000000000000000000000000000000000000000000
5400007455538693551  0005085656500001886           000000045000000000207000000000000000000000000000000000000000000000000000000
5400007455538693551  0005085405500002680           000000010000000000036000000000000000000000000000000000000000000000000000000
5400007455538693551  0005085405500003746           000000010000000000052000000000000000000000000000000000000000000000000000000
5400007455538693551  00050854055000041349          000000010000000000048000000000000000000000000000000000000000000000000000000
5400007557238648551  00049754055000011439          000000010000000000296000000000000000000000000000000000000000000000000000000
5400007557238648551  00049754055000021437          000000010000000000046000000000000000000000000000000000000000000000000000000
5400007557238648551  00049756565000031260          000000005000000000022000000000000000000000000000000000000000000000000000000
5400007711668694551  0005185656500001887           000000040000000000176000000000000000000000000000000000000000000000000000000
5400007711668694551  0005185405500002882           000000010000000000026000000000000000000000000000000000000000000000000000000
5400007711668694551  00051854055000031350          000000010000000000052000000000000000000000000000000000000000000000000000000
5400007790176684551  0005035405500001916           000000040000000000160000000000000000000000000000000000000000000000000000000
5400007790176684551  0005035405500002882           000000010000000000026000000000000000000000000000000000000000000000000000000
5400007790176684551  0005035405500003624           000000010000000000058000000000000000000000000000000000000000000000000000000
5400007790176684551  0005035102102004972           000000010000000000005000000000000000000000000000000000000000000000000000000
5400007790176684551  00050354055000051167          000000010000000000042000000000000000000000000000000000000000000000000000000
5400007790176684551  0005035405500006690           000000010000000000030000000000000000000000000000000000000000000000000000000
5400007790176684551  0005035405500007790           000000020000000000088000000000000000000000000000000000000000000000000000000
5400008442351647551  0005155656500001886           000000040000000000184000000000000000000000000000000000000000000000000000000
5400008442351647551  0005155405500002882           000000010000000000026000000000000000000000000000000000000000000000000000000
5400008442351647551  0005155405500003655           000000010000000000034000000000000000000000000000000000000000000000000000000
5400008442351647551  0005155102102004972           000000010000000000005000000000000000000000000000000000000000000000000000000
5400008595372187551  00054254055000011442          000000090000000000666000000000000000000000000000000000000000000000000000000
5400008595372187551  00054254055000021168          000000010000000000259000000000000000000000000000000000000000000000000000000
5400008595372187551  0005425405500003808           000000010000000000139000000000000000000000000000000000000000000000000000000
5400008595372187551  0005425656500004886           000000045000000000207000000000000000000000000000000000000000000000000000000
5400008595372187551  0005425405500005745           000000010000000000034000000000000000000000000000000000000000000000000000000
5400008595372187551  00054254055000061441          000000010000000000046000000000000000000000000000000000000000000000000000000
5400008595372187551  0005425102102007972           000000010000000000016000000000000000000000000000000000000000000000000000000
5400008739287688551  0004955656500001887           000000040000000000176000000000000000000000000000000000000000000000000000000
5400008739287688551  0004955405500002882           000000010000000000026000000000000000000000000000000000000000000000000000000
5400008739287688551  00049554055000031354          000000010000000000046000000000000000000000000000000000000000000000000000000
5400008739287688551  0004955102102004972           000000010000000000016000000000000000000000000000000000000000000000000000000
5400008739287688551  00049554055000051415          000000020000000000316000000000000000000000000000000000000000000000000000000
5400008739287688551  00049554055000061416          000000020000000000128000000000000000000000000000000000000000000000000000000
5400008739287688551  00049554055000071417          000000010000000000014000000000000000000000000000000000000000000000000000000
5400009845685650551  0005315405500001509           000000010000000000034000000000000000000000000000000000000000000000000000000
5400009878258602551  00054856565000011260          000000040000000000176000000000000000000000000000000000000000000000000000000
5400009878258602551  0005485405500002745           000000010000000000034000000000000000000000000000000000000000000000000000000
5400009878258602551  0005485405500003822           000000010000000000094000000000000000000000000000000000000000000000000000000
5400009878258602551  00054854055000041348          000000010000000000089000000000000000000000000000000000000000000000000000000
5400010967421608551  0005235405500001819           000000010000000000028000000000000000000000000000000000000000000000000000000
5400010967421608551  0005235405500002690           000000020000000000090000000000000000000000000000000000000000000000000000000
5400011037563620551  0005005405500001916           000000050000000000200000000000000000000000000000000000000000000000000000000
5400011037563620551  0005005405500002680           000000010000000000034000000000000000000000000000000000000000000000000000000
5400011037563620551  00050054055000031441          000000010000000000052000000000000000000000000000000000000000000000000000000
5400011037563620551  0005005102102004972           000000010000000000016000000000000000000000000000000000000000000000000000000
5400013699715671551  00050754055000011406          000000010000000000498000000000000000000000000000000000000000000000000000000
5400013699715671551  00050754055000021249          000000020000000000104000000000000000000000000000000000000000000000000000000
5400013699715671551  0005075656500003886           000000040000000000184000000000000000000000000000000000000000000000000000000
5400013699715671551  0005075405500004829           000000010000000000026000000000000000000000000000000000000000000000000000000
5400013699715671551  0005075405500005736           000000010000000000034000000000000000000000000000000000000000000000000000000
5400013699715671551  0005075102102006972           000000010000000000005000000000000000000000000000000000000000000000000000000
5400014014050610551  0005475656500001887           000000030000000000132000000000000000000000000000000000000000000000000000000
5400014014050610551  0005475405500002882           000000010000000000026000000000000000000000000000000000000000000000000000000
5400014014050610551  0005475102102003972           000000010000000000006000000000000000000000000000000000000000000000000000000
5400016041259691551  00053054055000011255          000000010000000000459000000000000000000000000000000000000000000000000000000
5400016041259691551  00053054055000021019          000000010000000000059000000000000000000000000000000000000000000000000000000
5400016041259691551  0005305656500003887           000000040000000000176000000000000000000000000000000000000000000000000000000
5400016041259691551  0005305405500004882           000000010000000000026000000000000000000000000000000000000000000000000000000
5400016041259691551  0005305102102005972           000000010000000000016000000000000000000000000000000000000000000000000000000
5400016338952620551  0005245405500001633           000000035000000000203000000000000000000000000000000000000000000000000000000
5400016338952620551  0005245405500002680           000000010000000000036000000000000000000000000000000000000000000000000000000
5400016338952620551  0005245405500003624           000000010000000000049000000000000000000000000000000000000000000000000000000
5400020316399604551  00051454055000011105          000000010000000000082000000000000000000000000000000000000000000000000000000
5400020316399604551  0005145656500002886           000000035000000000161000000000000000000000000000000000000000000000000000000
5400020316399604551  0005145405500003882           000000010000000000026000000000000000000000000000000000000000000000000000000
5400020546750672551  0005215405500001790           000000020000000000088000000000000000000000000000000000000000000000000000000
5421532270000113551  0102251403060001801           000000010000000000032900000000000000000000000000000000003050000000000000000
5421532270000113551  0102251403060002652           000000010000000000043050000000000000000000000000000000005020000000000000000
5421532270000113551  0102251403060003653           000000010000000000013650000000000000000000000000000000001450000000000000000
5421532270000113551  0102251403060004504           000000020000000000027620000000000000000000000000000000003040000000000000000
5421532270000113551  0102251403060005759           000000010000000000071480000000000000000000000000000000008270000000000000000
5421532270000113551  0102251403060006754           000000010000000000093410000000000000000000000000000000005610000000000000000
5421532270000113551  01022514030600071139          000000010000000000030870000000000000000000000000000000000000000000000000000
5421532270000113551  0102251403060008578           000000010000000000039800000000000000000000000000000000007050000000000000000
5421532270000113551  01022514030600091071          000000010000000000008940000000000000000000000000000000000800000000000000000
5421532270000113551  01022514030600101078          000000010000000000082850000000000000000000000000000000009160000000000000000
5421532270000113551  01022514030600111390          000000010000000000138010000000000000000000000000000000014810000000000000000
5421532270000113551  0102251403060012512           000000010000000000251810000000000000000000000000000000034750000000000000000
5421532270000113551  0102251403060013652           000000010000000000043050000000000000000000000000000000005020000000000000000
5421532270000113551  0102251403060014653           000000010000000000013650000000000000000000000000000000001450000000000000000
5421532270000113551  0102821403060001739           000000010000000000057670000000000000000000000000000000009450000000000000000
5421532270000113551  01028214030600021438          000000010000000000095850000000000000000000000000000000010080000000000000000
5421532270000113551  01028214030600031036          000000010000000000510940000000000000000000000000000000000000000000000000000
5421532270000113551  01028214030600041439          000000010000000000225820000000000000000000000000000000027750000000000000000
5421532270000113551  01028214030600051086          000000010000000000035740000000000000000000000000000000005310000000000000000
5421532270000113551  01028214030600061440          000000010000000000056050000000000000000000000000000000007590000000000000000
5421532270000113551  0102821403060007552           000000010000000000058490000000000000000000000000000000006190000000000000000
5421532270000113551  01028214030600081283          000000020000000000393160000000000000000000000000000000048860000000000000000
5421532270000113551  0102821403060009985           000000020000000000105600000000000000000000000000000000012920000000000000000
5421532270000113551  01028214030600101441          000000010000000000035340000000000000000000000000000000004440000000000000000
5421532270000113551  0102821403060011555           000000010000000000054420000000000000000000000000000000009520000000000000000
5421532270000113551  0102821403060012712           000000010000000000324510000000000000000000000000000000021490000000000000000
5421532270000113551  01028214030600131251          000000010000000000063360000000000000000000000000000000005620000000000000000
5421532270000113551  01028214030600141442          000000080000000000435360000000000000000000000000000000000000000000000000000
5421532270000113551  0102821403060015858           000000010000000000042240000000000000000000000000000000003120000000000000000
5421532270000113551  01028214030600161443          000000010000000000080420000000000000000000000000000000006430000000000000000
5421532270000113551  01032614030600011249          000000020000000000068240000000000000000000000000000000008360000000000000000
5421532270000113551  01032614030600021406          000000010000000000381700000000000000000000000000000000053980000000000000000
5421532270000113551  01032614030600031385          000000010000000000072290000000000000000000000000000000002910000000000000000
5421532270000113551  0103261403060004545           000000010000000000017060000000000000000000000000000000001720000000000000000
5421532270000113551  0103261403060005546           000000010000000000048330000000000000000000000000000000006700000000000000000
5421532270000113551  01032614030600061444          000000010000000000023960000000000000000000000000000000001780000000000000000
5421532270000113551  0103261403060007893           000000010000000000043050000000000000000000000000000000005160000000000000000
5421532270000113551  0103261403060008559           000000020000000000051980000000000000000000000000000000007290000000000000000
5421532270000113551  0103261403060009736           000000010000000000022740000000000000000000000000000000002480000000000000000
5421532270000113551  0103261403060010552           000000010000000000058490000000000000000000000000000000006190000000000000000
5421532270000113551  01032614030600111224          000000020000000000039800000000000000000000000000000000003850000000000000000
5421532270000113551  0103261403060012543           000000020000000000105600000000000000000000000000000000014030000000000000000
5421532270000113551  01032614030600131445          000000040000000000536120000000000000000000000000000000088610000000000000000
5421532270000113551  0103261403060014563           000000010000000000038180000000000000000000000000000000004210000000000000000
5421532270000113551  0103261403060015565           000000010000000000025180000000000000000000000000000000004300000000000000000
5421532270000113551  01040514030600011385          000000010000000000072290000000000000000000000000000000002910000000000000000
5421532270000113551  01040514030600021448          000000010000000000044680000000000000000000000000000000000000000000000000000
5421532270000113551  01040514030600031255          000000010000000000349290000000000000000000000000000000031420000000000000000
5421532270000113551  01040514030600041449          000000010000000000051170000000000000000000000000000000000000000000000000000
5421532270000113551  01040514030600051450          000000020000000000087720000000000000000000000000000000008980000000000000000
5421532270000113551  01040514030600061451          000000020000000000040620000000000000000000000000000000000000000000000000000
5421532270000113551  01040514030600071415          000000020000000000235560000000000000000000000000000000025480000000000000000
5421532270000113551  0104051403060008768           000000010000000000066610000000000000000000000000000000011580000000000000000
5421532270000113551  01040514030600091452          000000010000000000076360000000000000000000000000000000005800000000000000000
5421532270000113551  01040514030600101453          000000010000000000036960000000000000000000000000000000004850000000000000000
5421532270000113551  01040514030600111028          000000010000000000077170000000000000000000000000000000003050000000000000000
5421532270000113551  01040514030600121454          000000010000000000068230000000000000000000000000000000000000000000000000000
5421532270000113551  01040514030600131455          000000010000000000203070000000000000000000000000000000000000000000000000000
5421532270000113551  01040511020000141456          000000010000000000013000000000000000000000013000000000000000000000000001800
5421532270000113551  0104051403060015867           000000010000000000028020000000000000000000013000000000002740000000000000000
5421532270000113551  0104051403060016882           000000010000000000017870000000000000000000013000000000002630000000000000000
5421532270000113551  01040514030600171457          000000010000000000063360000000000000000000013000000000000000000000000000000
5422761584008054555  00472814030600011446          000000010000000000358990000000000000000000000000000000000000000000000000000
5422761584008054555  00472814030600021447          000000010000000000187200000000000000000000000000000000000000000000000000000
5400023018518691551  0005135656500001887           000000035000000000154000000000000000000000000000000000000000000000000000000
5400023018518691551  0005135405500002745           000000010000000000034000000000000000000000000000000000000000000000000000000
5400023018518691551  0005135405500003746           000000010000000000058000000000000000000000000000000000000000000000000000000
5400023018518691551  00051354055000041349          000000010000000000032000000000000000000000000000000000000000000000000000000
5400031216293600551  0005395656500001886           000000045000000000207000000000000000000000000000000000000000000000000000000
5400031216293600551  0005395405500002745           000000010000000000034000000000000000000000000000000000000000000000000000000
5400031216293600551  0005395405500003680           000000010000000000046000000000000000000000000000000000000000000000000000000
5400031216293600551  0005395102102004972           000000010000000000016000000000000000000000000000000000000000000000000000000
5400037845454249551  00053354055000011452          000000010000000000106000000000000000000000000000000000000000000000000000000
5400037845454249551  00053354055000021415          000000020000000000318000000000000000000000000000000000000000000000000000000
5400037845454249551  0005335405500003974           000000020000000000068000000000000000000000000000000000000000000000000000000
5400037845454249551  0005335405500004723           000000020000000000124000000000000000000000000000000000000000000000000000000
5400037845454249551  00053354055000051028          000000010000000000114000000000000000000000000000000000000000000000000000000
5400040519457668551  0005175405500001633           000000040000000000232000000000000000000000000000000000000000000000000000000
5400040519457668551  0005175405500002882           000000010000000000026000000000000000000000000000000000000000000000000000000
5400040519457668551  00051754055000031069          000000010000000000089000000000000000000000000000000000000000000000000000000
5400040519457668551  00051754055000041349          000000010000000000035000000000000000000000000000000000000000000000000000000
5400043676375653551  0005455405500001855           000000040000000000208000000000000000000000000000000000000000000000000000000
5400043676375653551  0005455405500002745           000000010000000000034000000000000000000000000000000000000000000000000000000
5400043676375653551  0005455405500003670           000000010000000000064000000000000000000000000000000000000000000000000000000
5400043676375653551  0005455102102004972           000000010000000000016000000000000000000000000000000000000000000000000000000
5444448581000102551  00064056555000011260          000000480000000001391040000000000000000000000000000000149710000000000000000
5400045175942620551  00051251021020011259          000000010000000000035000000000000000000000000000000000000000000000000000000
5400045416249668551  0005095656500001886           000000045000000000207000000000000000000000000000000000000000000000000000000
5400045416249668551  0005095405500002829           000000010000000000034000000000000000000000000000000000000000000000000000000
5400045416249668551  00050954055000031441          000000010000000000039000000000000000000000000000000000000000000000000000000
5400045416249668551  0005095102102004972           000000010000000000016000000000000000000000000000000000000000000000000000000
5400050736175687551  0005165405500001633           000000035000000000203000000000000000000000000000000000000000000000000000000
5400050736175687551  0005165405500002680           000000010000000000036000000000000000000000000000000000000000000000000000000
5400050736175687551  00051654055000031350          000000010000000000059000000000000000000000000000000000000000000000000000000
5400052954366249551  00050456565000011260          000000035000000000154000000000000000000000000000000000000000000000000000000
5400052954366249551  0005045405500002882           000000010000000000026000000000000000000000000000000000000000000000000000000
5400052954366249551  0005045405500003881           000000010000000000022000000000000000000000000000000000000000000000000000000
5400052954366249551  0005045405500004788           000000010000000000076000000000000000000000000000000000000000000000000000000
5400052954366249551  00050454055000051283          000000020000000000534000000000000000000000000000000000000000000000000000000
5400052954366249551  0005045405500006985           000000020000000000144000000000000000000000000000000000000000000000000000000
5400052954366249551  0005045102102007972           000000010000000000005000000000000000000000000000000000000000000000000000000
5400055978606668551  0004965656500001886           000000035000000000161000000000000000000000000000000000000000000000000000000
5400055978606668551  0004965405500002882           000000010000000000026000000000000000000000000000000000000000000000000000000
5400055978606668551  0004965102102003972           000000010000000000005000000000000000000000000000000000000000000000000000000
5400057654891687551  0005325656500001887           000000040000000000000000000000000000000000000000000000000000000000000000000
5400057654891687551  0005325405500002745           000000010000000000036000000000000000000000000000000000000000000000000000000
5400057654891687551  00053254055000031350          000000010000000000052000000000000000000000000000000000000000000000000000000
5400059266660663551  00055056565000011260          000000040000000000000000000000000000000000000000000000000000000000000000000
5400059266660663551  0005505405500002882           000000010000000000026000000000000000000000000000000000000000000000000000000
5400059266660663551  00055054055000031441          000000010000000000046000000000000000000000000000000000000000000000000000000
5400059266660663551  0005505405500004779           000000010000000000028000000000000000000000000000000000000000000000000000000
5400068516460649551  00052554055000011009          000000040000000000092000000000000000000000000000000000000000000000000000000
5400068516460649551  0005445405500001863           000000010000000000462000000000000000000000000000000000000000000000000000000
5400068516460649551  0005445405500002947           000000010000000000188000000000000000000000000000000000000000000000000000000
5400068516460649551  00054454055000031187          000000020000000000374000000000000000000000000000000000000000000000000000000
5400071001352653551  00054954055000011413          000000010000000000458000000000000000000000000000000000000000000000000000000
5400071001352653551  00054954055000021425          000000010000000000098000000000000000000000000000000000000000000000000000000
5400071001352653551  00054954055000031385          000000010000000000236000000000000000000000000000000000000000000000000000000
5400086201638687551  0005385102102001972           000000010000000000005000000000000000000000000000000000000000000000000000000
5400092017991600551  00055156565000011260          000000030000000000132000000000000000000000000000000000000000000000000000000
5400092017991600551  0005515405500002680           000000010000000000036000000000000000000000000000000000000000000000000000000
5400092017991600551  0005515405500003893           000000010000000000064000000000000000000000000000000000000000000000000000000
5400092017991600551  00055154055000041349          000000010000000000045000000000000000000000000000000000000000000000000000000
7520241101202411301009          85111000BKR6ESZ10-VELA IGNICAO                               PC    000000000000000000000000000
7520241101202411301019          40093100913082-MANGUEIRA                                     PC    000000000000000000000000000
7520241101202411301028          8708999024578675-JUNTA TAMPA VALVULA                         PC    000000000000000000000000000
7520241101202411301036          870893003000001340-KIT EMBREAGEM                             PC    000000000000000000000000000
7520241101202411301069          84219999LX3713-FILTRO AR                                     PC    000000000000000000000000000
7520241101202411301070          84212300W9069-FILTRO OLEO MOTOR                              PC    000000000000000000000000000
7520241101202411301071          87089990VC408-CONEXAO MANG RADIADOR                          PC    000000000000000000000000000
7520241101202411301078          87089300511015510-CIL EMBREAGEM                              PC    000000000000000000000000000
7520241101202411301086          84835010NY1129-POLIA ALTERNADOR                              PC    000000000000000000000000000
7520241101202411301105          870899902028012-COIFA HOMOC                                  PC    000000000000000000000000000
7520241101202411301133          84219999LX3819-FILTRO AR                                     PC    000000000000000000000000000
7520241101202411301139          40093100212017-MANGUEIRA SUPERIOR RADIADOR                   PC    000000000000000000000000000
7520241101202411301167          84213990CU23362-FILTRO ANTI POLEM                            PC    000000000000000000000000000
7520241101202411301168          84212300WFC244-FILTRO CAMBIO AUTOMATICO                      PC    000000000000000000000000000
7520241101202411301187          87083090BD4009-DISCO FREIO                                   PC    000000000000000000000000000
7520241101202411301224          84213990CU21003-FILTRO ANTI POLEM                            PC    000000000000000000000000000
7520241101202411301249          870894820680192-ARTICULACAO CAIXA DIRECAO                    PC    000000000000000000000000000
7520241101202411301251          84212990FCA1580-FILTRO CAMBIO AUTOMATICO                     PC    000000000000000000000000000
7520241101202411301255          84818021412326100-VALVULA TERMOSTATICA                       PC    000000000000000000000000000
7520241101202411301259          38249941CHESY DESENGRIPANTE E ANTICORROSIVO 125G/300ML 2405-6UN    000000000000000000000000000
7520241101202411301260          27101932RALOY SYNTH PLUS SAE 5W30 API SP - 24/1              LT    000000000000000000000000000
7520241101202411301283          87088000808053MM-AMORT SUSPENSAO DIANT                       PC    000000000000000000000000000
7520241101202411301297          84219999HLP5135-FILTRO AR                                    PC    000000000000000000000000000
7520241101202411301348          85129000S22-PALHETA LIMPADOR                                 PC    000000000000000000000000000
7520241101202411301349          84213990LA1171-FILTRO ANTI POLEM                             PC    000000000000000000000000000
7520241101202411301350          84219999LX3712-FILTRO AR                                     PC    000000000000000000000000000
7520241101202411301354          84219999HLP1032-FILTRO AR                                    PC    000000000000000000000000000
7520241101202411301385          8708999055254086-TUBO DAGUA                                  PC    000000000000000000000000000
7520241101202411301390          87089300512017410-CIL ESCRAVO                                PC    000000000000000000000000000
7520241101202411301406          870893003000000782-KIT EMBREAGEM                             JG    000000000000000000000000000
7520241101202411301413          841330907000354501-BOMBA DAGUA                               PC    000000000000000000000000000
7520241101202411301415          401699900442588-COXIM AMORTECEDOR                            PC    000000000000000000000000000
7520241101202411301416          87088000MB4182-KIT AMORTECEDOR DIANTEIRO                     PC    000000000000000000000000000
7520241101202411301417          731815004111013-PORCA RODA CROMADA                           PC    000000000000000000000000000
7520241101202411301420          84219999HLP6093-FILTRO AR                                    PC    000000000000000000000000000
7520241101202411301425          84099190634963-FLANGE                                        PC    000000000000000000000000000
7520241101202411301437          84219999C37001-FILTRO AR                                     PC    000000000000000000000000000
7520241101202411301438          84835010VKM4753-POLIA ESTICADOR CORREIA COMPRESSOR           PC    000000000000000000000000000
7520241101202411301439          87083019N373-PASTILHA FREIO                                  JG    000000000000000000000000000
7520241101202411301440          87088000503125-PIVO SUSPENSAO                                PC    000000000000000000000000000
7520241101202411301441          84219999C18584-FILTRO AR                                     PC    000000000000000000000000000
7520241101202411301442          27101932ATF D VI-OLEO HIDRAULICO                             LT    000000000000000000000000000
7520241101202411301443          87083019PD85-PASTILHA FREIO                                  JG    000000000000000000000000000
7520241101202411301444          84212300PSL166-FILTRO OLEO MOTOR                             PC    000000000000000000000000000
7520241101202411301445          85111000SILZKR7C11DS-VELA IGNICAO                            PC    000000000000000000000000000
7520241101202411301446          87089300KIT EMBREAGEM DISCO/PLATO/ROLAMENTO 200MM 14 ESTRIAS PC    000000000000000000000000000
7520241101202411301447          87089300ATUADOR EMB                                          PC    000000000000000000000000000
7520241101202411301448          40093100118678-MANGUEIRA RESERVATORIO                        PC    000000000000000000000000000
7520241101202411301449          84219999ARL1047-FILTRO AR                                    PC    000000000000000000000000000
7520241101202411301450          87088000NAK93036-BIELETA BARRA ESTABILIZADORA                PC    000000000000000000000000000
7520241101202411301451          401699900112599-BUCHA BARRA ESTABILIZADORA                   PC    000000000000000000000000000
7520241101202411301452          87089990NAK93079-TERMINAL BARRA DIRECAO                      PC    000000000000000000000000000
7520241101202411301453          84219999ARL2203-FILTRO AR                                    PC    000000000000000000000000000
7520241101202411301454          8708910053330779-TAMPA RESERVATORIO                          PC    000000000000000000000000000
7520241101202411301455          8481802155267985-VALVULA TERMOSTATICA                        PC    000000000000000000000000000
7520241101202411301456          28539090CD 5LTS-AGUA DESMINERALIZADA                         LT    000000000000000000000000000
7520241101202411301457          84219999CA4309-FILTRO AR                                     PC    000000000000000000000000000
752024110120241130504           401699900412440-BUCHA BARRA ESTABILIZADORA                   PC    000000000000000000000000000
752024110120241130509           38190000DOT4 ATE-OLEO FREIO                                  FR    000000000000000000000000000
752024110120241130512           870893003000000144-KIT EMBREAGEM                             JG    000000000000000000000000000
752024110120241130543           84219999LX4372-FILTRO AR                                     PC    000000000000000000000000000
752024110120241130545           84213990CU22019-FILTRO ANTI POLEM                            PC    000000000000000000000000000
752024110120241130546           84219999LX4669-FILTRO AR                                     PC    000000000000000000000000000
752024110120241130552           87088000LT60000-BIELETA BARRA ESTABILIZADORA                 PC    000000000000000000000000000
752024110120241130555           85129000B316-PALHETA LIMPADOR                                JG    000000000000000000000000000
752024110120241130559           84212300W8118-FILTRO OLEO MOTOR                              PC    000000000000000000000000000
752024110120241130563           84219999C23023-FILTRO AR                                     PC    000000000000000000000000000
752024110120241130565           84212300W7561-FILTRO OLEO MOTOR                              PC    000000000000000000000000000
752024110120241130578           40103500111SP170H-CORREIA DISTRIBUICAO                       PC    000000000000000000000000000
752024110120241130624           84219999C26135-FILTRO AR                                     PC    000000000000000000000000000
752024110120241130633           271019320W20 PRO DS-OLEO MOTOR                               LT    000000000000000000000000000
752024110120241130652           84139190F000TE13S3-TAMPA BOMBA COMB                          PC    000000000000000000000000000
752024110120241130653           39173290DS1506-TUBO FLUXO                                    JG    000000000000000000000000000
752024110120241130655           84219999C17021-FILTRO AR                                     PC    000000000000000000000000000
752024110120241130670           84219999C24021-FILTRO AR                                     PC    000000000000000000000000000
752024110120241130680           84212300W71930-FILTRO OLEO MOTOR                             PC    000000000000000000000000000
752024110120241130689           853929107443-LAMPADA                                         PC    000000000000000000000000000
752024110120241130690           853929107440-LAMPADA                                         PC    000000000000000000000000000
752024110120241130699           85129000B314-PALHETA LIMPADOR                                JG    000000000000000000000000000
752024110120241130712           87089990525132-COXIM MOTOR                                   PC    000000000000000000000000000
752024110120241130713           40169990525155-COXIM MOTOR                                   PC    000000000000000000000000000
752024110120241130723           87088000NAK1068-BIELETA BARRA ESTABILIZADORA                 PC    000000000000000000000000000
752024110120241130736           84219999C22952-FILTRO AR                                     PC    000000000000000000000000000
752024110120241130739           40103500146STP8M200H-CORREIA DISTRIBUICAO                    PC    000000000000000000000000000
752024110120241130745           84212300W7013-FILTRO OLEO MOTOR                              PC    000000000000000000000000000
752024110120241130746           84219999C22035-FILTRO AR                                     PC    000000000000000000000000000
752024110120241130754           3917409093383625-CONEXAO                                     PC    000000000000000000000000000
752024110120241130759           8413309020189-BOMBA DAGUA                                    PC    000000000000000000000000000
752024110120241130768           85129000BSD6-PALHETA LIMPADOR                                JG    000000000000000000000000000
752024110120241130779           84212300WK6127-FILTRO COMBUSTIVEL                            PC    000000000000000000000000000
752024110120241130788           87088000503193-PIVO SUSPENSAO                                PC    000000000000000000000000000
752024110120241130790           38200000COOLANT UP-ADITIVO RADIADOR                          PC    000000000000000000000000000
752024110120241130801           87088000NAK6058-PIVO SUSPENSAO                               PC    000000000000000000000000000
752024110120241130808           87083019PD58-PASTILHA FREIO                                  JG    000000000000000000000000000
752024110120241130819           854430008343253-CHICOTE                                      PC    000000000000000000000000000
752024110120241130822           84219999LX3007-FILTRO AR                                     PC    000000000000000000000000000
752024110120241130829           84212300W6880-FILTRO OLEO MOTOR                              PC    000000000000000000000000000
752024110120241130832           87088000LT60443-BIELETA BARRA ESTABILIZADORA                 PC    000000000000000000000000000
752024110120241130855           271019325W40 MAXI PERFORMANC-OLEO MOTOR                      LT    000000000000000000000000000
752024110120241130857           84219999C290031-FILTRO AR                                    PC    000000000000000000000000000
752024110120241130858           87088000NAK6081-BIELETA BARRA ESTABILIZADORA                 PC    000000000000000000000000000
752024110120241130863           84835090VKMA06002B-KIT CORREIA TENSOR                        PC    000000000000000000000000000
752024110120241130867           84219999C33661-FILTRO AR                                     PC    000000000000000000000000000
752024110120241130874           84219999HLP2203-FILTRO AR                                    PC    000000000000000000000000000
752024110120241130881           84219999HLP5138-FILTRO AR                                    PC    000000000000000000000000000
752024110120241130882           84212300W6730-FILTRO OLEO MOTOR                              PC    000000000000000000000000000
752024110120241130886           27101932RALOY ULTRA SYNTH SAE 5W40 API SN - 24/1             LT    000000000000000000000000000
752024110120241130887           27101932RALOY ULTRA SYNTH SAE 5W30 API SP - 24/1             LT    000000000000000000000000000
752024110120241130893           84219999LX3452-FILTRO AR                                     PC    000000000000000000000000000
752024110120241130916           2710193210W40 GTX-OLEO MOTOR                                 LT    000000000000000000000000000
752024110120241130947           87083019PD1492-PASTILHA FREIO                                PC    000000000000000000000000000
752024110120241130972           4016999050008048-ANEL VEDACAO                                PC    000000000000000000000000000
752024110120241130974           401699900110438-BUCHA BARRA ESTABILIZADORA                   PC    000000000000000000000000000
752024110120241130985           870880000440840-KIT AMORTECEDOR DIANTEIRO                    PC    000000000000000000000000000
752024110120241130997           84219999HLP1659-FILTRO AR                                    PC    000000000000000000000000000
90336213140001600034450680073 50000001135100000113530000011354000002597500000115                                             2
90336213140001600034450680073 9900000717                                                                                     2
