10336213140001600034450680073 CRISTINA ISABEL DE CAMPOS          Belo Horizonte                MG31999760132025070120250731331
11Rua Caconde                       00875                      Renascença     31130510VINICIUS MURTA NERY         031934225098
5000004331403645ISENTO        20250709MG551  0009265405P000000001890000000000000000000000000000000000000000000000000189000000N
5000042026369615ISENTO        20250709MG551  0009275405P000000001970000000000000000000000000000000000000000000000000358000000N
5000042026369615ISENTO        20250709MG551  0009275102P000000000160000000000000000000000000000000000000000000000000016000000N
5000070110319605ISENTO        20250729MG551  0009285405P000000004490000000000000000000000000000000000000000000000001311000000N
5000070110319605ISENTO        20250729MG551  0009285102P000000000530000000000000000000000000000000000000000000000000079000000N
5000002797964632ISENTO        20250731MG551  0009375405P000000001920000000000000000000000000000000000000000000000000508000000N
5000004412199690ISENTO        20250729MG551  0009295405P000000001830000000000000000000000000000000000000000000000000337000000N
5000004412199690ISENTO        20250729MG551  0009295102P000000000400000000000000000000000000000000000000000000000000045000000N
5000004577681692ISENTO        20250731MG551  0009385405P000000010710000000000000000000000000000000000000000000000004001000000N
5000004577681692ISENTO        20250731MG551  0009385102P000000000400000000000000000000000000000000000000000000000000045000000N
5000029179122604ISENTO        20250729MG551  0009305405P000000001460000000000000000000000000000000000000000000000000146000000N
5000007850812670ISENTO        20250729MG551  0009315405P000000004220000000000000000000000000000000000000000000000001070000000N
5000007850812670ISENTO        20250729MG551  0009315102P000000000050000000000000000000000000000000000000000000000000005000000N
5000006724336643ISENTO        20250729MG551  0009325405P000000002620000000000000000000000000000000000000000000000000494000000N
5000006724336643ISENTO        20250729MG551  0009325102P000000000350000000000000000000000000000000000000000000000000035000000N
5000011923192655ISENTO        20250731MG551  0009395405P000000002140000000000000000000000000000000000000000000000000522000000N
5000011923192655ISENTO        20250731MG551  0009395102P000000000160000000000000000000000000000000000000000000000000016000000N
5000004621598686ISENTO        20250729MG551  0009335405P000000008940000000000000000000000000000000000000000000000000894000000N
5000004621598686ISENTO        20250729MG551  0009335102P000000000350000000000000000000000000000000000000000000000000035000000N
5000010337326649ISENTO        20250729MG551  0009345405P000000002460000000000000000000000000000000000000000000000000785000000N
5000010337326649ISENTO        20250729MG551  0009345102P000000000050000000000000000000000000000000000000000000000000005000000N
5000031990037615ISENTO        20250731MG551  0009405405P000000000680000000000000000000000000000000000000000000000000068000000N
5000000452115310ISENTO        20250729MG551  0009355405P000000001610000000000000000000000000000000000000000000000000293000000N
5000002798585660ISENTO        20250729MG551  0009365405P000000002210000000000000000000000000000000000000000000000000520000000N
5000002798585660ISENTO        20250729MG551  0009365102P000000000050000000000000000000000000000000000000000000000000005000000N
5000039099261691ISENTO        20250731MG551  0009415405P000000002140000000000000000000000000000000000000000000000000398000000N
5000039099261691ISENTO        20250731MG551  0009415102P000000000050000000000000000000000000000000000000000000000000005000000N
5000016046242649ISENTO        20250731MG551  0009425405P000000008560000000000000000000000000000000000000000000000000856000000N
5000008527855690ISENTO        20250731MG551  0009435405P000000013900000000000000000000000000000000000000000000000002938000000N
5000008527855690ISENTO        20250731MG551  0009435102P000000000120000000000000000000000000000000000000000000000000012000000N
5000056331550682ISENTO        20250731MG551  0009445405P000000003890000000000000000000000000000000000000000000000000940000000N
5000056331550682ISENTO        20250731MG551  0009445102P000000000050000000000000000000000000000000000000000000000000005000000N
5000040085678600ISENTO        20250731MG551  0009455405P000000002970000000000000000000000000000000000000000000000000739000000N
5000017446910615ISENTO        20250731MG551  0009465405P000000001800000000000000000000000000000000000000000000000000463000000N
5000017446910615ISENTO        20250731MG551  0009465102P000000000160000000000000000000000000000000000000000000000000016000000N
5000001441980610ISENTO        20250731MG551  0009475405P000000002500000000000000000000000000000000000000000000000000631000000N
5000055024491653ISENTO        20250731MG551  0009485405P000000004820000000000000000000000000000000000000000000000001556000000N
5000055024491653ISENTO        20250731MG551  0009485102P000000000160000000000000000000000000000000000000000000000000016000000N
5000080182763668ISENTO        20250731MG551  0009495405P000000002250000000000000000000000000000000000000000000000000225000000N
5000012511618630ISENTO        20250731MG551  0009505405P000000002390000000000000000000000000000000000000000000000000583000000N
5000012511618630ISENTO        20250731MG551  0009505102P000000000350000000000000000000000000000000000000000000000000035000000N
5000000524234680ISENTO        20250731MG551  0009515405P000000005000000000000000000000000000000000000000000000000001112000000N
5000000524234680ISENTO        20250731MG551  0009515102P000000000510000000000000000000000000000000000000000000000000067000000N
5000004818869660ISENTO        20250731MG551  0009525405P000000001180000000000000000000000000000000000000000000000000308000000N
5000004818869660ISENTO        20250731MG551  0009525102P000000000350000000000000000000000000000000000000000000000000035000000N
5000001220941662ISENTO        20250731MG551  0009535405P000000003130000000000000000000000000000000000000000000000000748000000N
5000001220941662ISENTO        20250731MG551  0009535102P000000000050000000000000000000000000000000000000000000000000005000000N
5000037845454249ISENTO        20250731MG551  0009545405P000000002330000000000000000000000000000000000000000000000000422000000N
5000008595372187ISENTO        20250731MG551  0009555405P000000002920000000000000000000000000000000000000000000000000742000000N
5000008595372187ISENTO        20250731MG551  0009555102P000000000160000000000000000000000000000000000000000000000000016000000N
5000005371679600ISENTO        20250731MG551  0009565405P000000003640000000000000000000000000000000000000000000000001140000000N
5000005371679600ISENTO        20250731MG551  0009565102P000000000050000000000000000000000000000000000000000000000000005000000N
5000030542855704ISENTO        20250731MG551  0009575405P000000002960000000000000000000000000000000000000000000000000728000000N
5000030542855704ISENTO        20250731MG551  0009575102P000000000400000000000000000000000000000000000000000000000000045000000N
5000071389288668ISENTO        20250731MG551  0009585405P000000002140000000000000000000000000000000000000000000000000514000000N
5000071389288668ISENTO        20250731MG551  0009585102P000000000350000000000000000000000000000000000000000000000000035000000N
5000039902099653ISENTO        20250731MG551  0009595405P000000004400000000000000000000000000000000000000000000000001072000000N
5000039902099653ISENTO        20250731MG551  0009595102P000000000350000000000000000000000000000000000000000000000000035000000N
5000010372725600ISENTO        20250731MG551  0009605405P000000002940000000000000000000000000000000000000000000000000770000000N
5000010372725600ISENTO        20250731MG551  0009605102P000000000160000000000000000000000000000000000000000000000000016000000N
5000020582200644ISENTO        20250731MG551  0009615405P000000002850000000000000000000000000000000000000000000000000933000000N
5000020582200644ISENTO        20250731MG551  0009615102P000000000050000000000000000000000000000000000000000000000000005000000N
5000006008371658ISENTO        20250731MG551  0009625405P000000003140000000000000000000000000000000000000000000000000802000000N
5000008950380641ISENTO        20250731MG551  0009635405P000000002610000000000000000000000000000000000000000000000000493000000N
5000050774719672ISENTO        20250731MG551  0009645405P000000001800000000000000000000000000000000000000000000000000473000000N
5000050774719672ISENTO        20250731MG551  0009645102P000000000300000000000000000000000000000000000000000000000000030000000N
5000005253169652ISENTO        20250731MG551  0009655405P000000001000000000000000000000000000000000000000000000000000178000000N
5000005253169652ISENTO        20250731MG551  0009655102P000000000070000000000000000000000000000000000000000000000000007000000N
5000006329909610ISENTO        20250731MG551  0009665405P000000002120000000000000000000000000000000000000000000000000511000000N
5000006329909610ISENTO        20250731MG551  0009665102P000000000050000000000000000000000000000000000000000000000000005000000N
5000059215607668ISENTO        20250731MG551  0009675405P000000006650000000000000000000000000000000000000000000000002992000000N
5000059215607668ISENTO        20250731MG551  0009675102P000000000700000000000000000000000000000000000000000000000000105000000N
5000083866086687ISENTO        20250731MG551  0009685405P000000002380000000000000000000000000000000000000000000000000582000000N
5000083866086687ISENTO        20250731MG551  0009685102P000000000050000000000000000000000000000000000000000000000000005000000N
5000040924343672ISENTO        20250731MG551  0009695405P000000004120000000000000000000000000000000000000000000000000862000000N
5000040924343672ISENTO        20250731MG551  0009695102P000000000350000000000000000000000000000000000000000000000000035000000N
5000017446910615ISENTO        20250731MG551  0009705405P000000000630000000000000000000000000000000000000000000000000112000000N
5000005500533606ISENTO        20250731MG551  0009715405P000000002500000000000000000000000000000000000000000000000000648000000N
5000005500533606ISENTO        20250731MG551  0009715102P000000000050000000000000000000000000000000000000000000000000005000000N
5000049533371668ISENTO        20250731MG551  0009725405P000000003170000000000000000000000000000000000000000000000000810000000N
5000049533371668ISENTO        20250731MG551  0009725102P000000000350000000000000000000000000000000000000000000000000035000000N
5000050736175687ISENTO        20250731MG551  0009735405P000000002980000000000000000000000000000000000000000000000000740000000N
5000050736175687ISENTO        20250731MG551  0009735102P000000000350000000000000000000000000000000000000000000000000035000000N
5000093381131672ISENTO        20250731MG551  0009745405P000000002050000000000000000000000000000000000000000000000000381000000N
5000014399115688ISENTO        20250731MG551  0009755405P000000010720000000000000000000000000000000000000000000000001072000000N
5000066352827691ISENTO        20250731MG551  0009765405P000000002020000000000000000000000000000000000000000000000000539000000N
5000066352827691ISENTO        20250731MG551  0009765102P000000000050000000000000000000000000000000000000000000000000005000000N
5000004485067696ISENTO        20250731MG551  0009775405P000000004970000000000000000000000000000000000000000000000001021000000N
5000004485067696ISENTO        20250731MG551  0009775102P000000000160000000000000000000000000000000000000000000000000016000000N
5000002797964632ISENTO        20250731MG551  0009785405P000000003620000000000000000000000000000000000000000000000000408000000N
5000049403745649ISENTO        20250731MG551  0009795405P000000004160000000000000000000000000000000000000000000000000624000000N
5000049403745649ISENTO        20250731MG551  0009795102P000000000350000000000000000000000000000000000000000000000000035000000N
5000004481778628ISENTO        20250731MG551  0009805405P000000003240000000000000000000000000000000000000000000000000520000000N
5000008304283646ISENTO        20250731MG551  0009815405P000000004690000000000000000000000000000000000000000000000001067000000N
5000008304283646ISENTO        20250731MG551  0009815102P000000000350000000000000000000000000000000000000000000000000035000000N
5000025594702687ISENTO        20250731MG551  0009825405P000000001520000000000000000000000000000000000000000000000000152000000N
50215322700001130624775200061 20250703MG551  0129121403T000000032093800000000000000000000000000000000000000000000000000000000N
50215322700001130624775200061 20250716MG551  0130961403T000000034760700000000000000000000000000000000000000000000000000000000N
50436489710053861312885600405 20250728MG551  3007211102T000000002089600000000208960000000006478000000000000000000000000003100N
50436489710053861312885600405 20250728MG551  3007211102T000000005890900000000589090000000010604000000000000000000000000001800N
50436489710053861312885600405 20250728MG551  3007211403T000000001161400000000000000000000000000000000000000000000000000000000N
50215322700001130624775200061 20250731MG551  0132791403T000000016636000000000000000000000000000000000000000000000000000000000N
51215322700001130624775200061 20250703MG1  01291214030000000000000000000000000000000000000000000000000000                    N
5100004331403645ISENTO        20250709MG1  00092654050000000000000000000000000000000000000000000000000000                    N
5100042026369615ISENTO        20250709MG1  00092751020000000000000000000000000000000000000000000000000000                    N
5100042026369615ISENTO        20250709MG1  00092754050000000000000000000000000000000000000000000000000000                    N
51215322700001130624775200061 20250716MG1  01309614030000000000000000000000000000000000000000000000000000                    N
51436489710053861312885600405 20250728MG1  30072111020000000000000000000000000000000000000000000000000000                    N
51436489710053861312885600405 20250728MG1  30072114030000000000000000000000000000000000000000000000000000                    N
51436489710053861312885600405 20250728MG1  30072111020000000000000000000000000000000000000000000000000000                    N
5100070110319605ISENTO        20250729MG1  00092851020000000000000000000000000000000000000000000000000000                    N
5100070110319605ISENTO        20250729MG1  00092854050000000000000000000000000000000000000000000000000000                    N
5100004412199690ISENTO        20250729MG1  00092951020000000000000000000000000000000000000000000000000000                    N
5100004412199690ISENTO        20250729MG1  00092954050000000000000000000000000000000000000000000000000000                    N
5100029179122604ISENTO        20250729MG1  00093054050000000000000000000000000000000000000000000000000000                    N
5100007850812670ISENTO        20250729MG1  00093151020000000000000000000000000000000000000000000000000000                    N
5100007850812670ISENTO        20250729MG1  00093154050000000000000000000000000000000000000000000000000000                    N
5100006724336643ISENTO        20250729MG1  00093254050000000000000000000000000000000000000000000000000000                    N
5100006724336643ISENTO        20250729MG1  00093251020000000000000000000000000000000000000000000000000000                    N
5100004621598686ISENTO        20250729MG1  00093351020000000000000000000000000000000000000000000000000000                    N
5100004621598686ISENTO        20250729MG1  00093354050000000000000000000000000000000000000000000000000000                    N
5100010337326649ISENTO        20250729MG1  00093451020000000000000000000000000000000000000000000000000000                    N
5100010337326649ISENTO        20250729MG1  00093454050000000000000000000000000000000000000000000000000000                    N
5100000452115310ISENTO        20250729MG1  00093554050000000000000000000000000000000000000000000000000000                    N
5100002798585660ISENTO        20250729MG1  00093651020000000000000000000000000000000000000000000000000000                    N
5100002798585660ISENTO        20250729MG1  00093654050000000000000000000000000000000000000000000000000000                    N
51215322700001130624775200061 20250731MG1  01327914030000000000000000000000000000000000000000000000000000                    N
5100002797964632ISENTO        20250731MG1  00093754050000000000000000000000000000000000000000000000000000                    N
5100004577681692ISENTO        20250731MG1  00093854050000000000000000000000000000000000000000000000000000                    N
5100004577681692ISENTO        20250731MG1  00093851020000000000000000000000000000000000000000000000000000                    N
5100011923192655ISENTO        20250731MG1  00093954050000000000000000000000000000000000000000000000000000                    N
5100011923192655ISENTO        20250731MG1  00093951020000000000000000000000000000000000000000000000000000                    N
5100031990037615ISENTO        20250731MG1  00094054050000000000000000000000000000000000000000000000000000                    N
5100039099261691ISENTO        20250731MG1  00094154050000000000000000000000000000000000000000000000000000                    N
5100039099261691ISENTO        20250731MG1  00094151020000000000000000000000000000000000000000000000000000                    N
5100016046242649ISENTO        20250731MG1  00094254050000000000000000000000000000000000000000000000000000                    N
5100008527855690ISENTO        20250731MG1  00094354050000000000000000000000000000000000000000000000000000                    N
5100008527855690ISENTO        20250731MG1  00094351020000000000000000000000000000000000000000000000000000                    N
5100056331550682ISENTO        20250731MG1  00094451020000000000000000000000000000000000000000000000000000                    N
5100056331550682ISENTO        20250731MG1  00094454050000000000000000000000000000000000000000000000000000                    N
5100040085678600ISENTO        20250731MG1  00094554050000000000000000000000000000000000000000000000000000                    N
5100017446910615ISENTO        20250731MG1  00094651020000000000000000000000000000000000000000000000000000                    N
5100017446910615ISENTO        20250731MG1  00094654050000000000000000000000000000000000000000000000000000                    N
5100001441980610ISENTO        20250731MG1  00094754050000000000000000000000000000000000000000000000000000                    N
5100055024491653ISENTO        20250731MG1  00094854050000000000000000000000000000000000000000000000000000                    N
5100055024491653ISENTO        20250731MG1  00094851020000000000000000000000000000000000000000000000000000                    N
5100080182763668ISENTO        20250731MG1  00094954050000000000000000000000000000000000000000000000000000                    N
5100012511618630ISENTO        20250731MG1  00095054050000000000000000000000000000000000000000000000000000                    N
5100012511618630ISENTO        20250731MG1  00095051020000000000000000000000000000000000000000000000000000                    N
5100000524234680ISENTO        20250731MG1  00095154050000000000000000000000000000000000000000000000000000                    N
5100000524234680ISENTO        20250731MG1  00095151020000000000000000000000000000000000000000000000000000                    N
5100004818869660ISENTO        20250731MG1  00095251020000000000000000000000000000000000000000000000000000                    N
5100004818869660ISENTO        20250731MG1  00095254050000000000000000000000000000000000000000000000000000                    N
5100001220941662ISENTO        20250731MG1  00095354050000000000000000000000000000000000000000000000000000                    N
5100001220941662ISENTO        20250731MG1  00095351020000000000000000000000000000000000000000000000000000                    N
5100037845454249ISENTO        20250731MG1  00095454050000000000000000000000000000000000000000000000000000                    N
5100008595372187ISENTO        20250731MG1  00095551020000000000000000000000000000000000000000000000000000                    N
5100008595372187ISENTO        20250731MG1  00095554050000000000000000000000000000000000000000000000000000                    N
5100005371679600ISENTO        20250731MG1  00095654050000000000000000000000000000000000000000000000000000                    N
5100005371679600ISENTO        20250731MG1  00095651020000000000000000000000000000000000000000000000000000                    N
5100030542855704ISENTO        20250731MG1  00095751020000000000000000000000000000000000000000000000000000                    N
5100030542855704ISENTO        20250731MG1  00095754050000000000000000000000000000000000000000000000000000                    N
5100071389288668ISENTO        20250731MG1  00095851020000000000000000000000000000000000000000000000000000                    N
5100071389288668ISENTO        20250731MG1  00095854050000000000000000000000000000000000000000000000000000                    N
5100039902099653ISENTO        20250731MG1  00095954050000000000000000000000000000000000000000000000000000                    N
5100039902099653ISENTO        20250731MG1  00095951020000000000000000000000000000000000000000000000000000                    N
5100010372725600ISENTO        20250731MG1  00096051020000000000000000000000000000000000000000000000000000                    N
5100010372725600ISENTO        20250731MG1  00096054050000000000000000000000000000000000000000000000000000                    N
5100020582200644ISENTO        20250731MG1  00096151020000000000000000000000000000000000000000000000000000                    N
5100020582200644ISENTO        20250731MG1  00096154050000000000000000000000000000000000000000000000000000                    N
5100006008371658ISENTO        20250731MG1  00096254050000000000000000000000000000000000000000000000000000                    N
5100008950380641ISENTO        20250731MG1  00096354050000000000000000000000000000000000000000000000000000                    N
5100050774719672ISENTO        20250731MG1  00096454050000000000000000000000000000000000000000000000000000                    N
5100050774719672ISENTO        20250731MG1  00096451020000000000000000000000000000000000000000000000000000                    N
5100005253169652ISENTO        20250731MG1  00096554050000000000000000000000000000000000000000000000000000                    N
5100005253169652ISENTO        20250731MG1  00096551020000000000000000000000000000000000000000000000000000                    N
5100006329909610ISENTO        20250731MG1  00096651020000000000000000000000000000000000000000000000000000                    N
5100006329909610ISENTO        20250731MG1  00096654050000000000000000000000000000000000000000000000000000                    N
5100059215607668ISENTO        20250731MG1  00096751020000000000000000000000000000000000000000000000000000                    N
5100059215607668ISENTO        20250731MG1  00096754050000000000000000000000000000000000000000000000000000                    N
5100083866086687ISENTO        20250731MG1  00096854050000000000000000000000000000000000000000000000000000                    N
5100083866086687ISENTO        20250731MG1  00096851020000000000000000000000000000000000000000000000000000                    N
5100040924343672ISENTO        20250731MG1  00096951020000000000000000000000000000000000000000000000000000                    N
5100040924343672ISENTO        20250731MG1  00096954050000000000000000000000000000000000000000000000000000                    N
5100017446910615ISENTO        20250731MG1  00097054050000000000000000000000000000000000000000000000000000                    N
5100005500533606ISENTO        20250731MG1  00097154050000000000000000000000000000000000000000000000000000                    N
5100005500533606ISENTO        20250731MG1  00097151020000000000000000000000000000000000000000000000000000                    N
5100049533371668ISENTO        20250731MG1  00097254050000000000000000000000000000000000000000000000000000                    N
5100049533371668ISENTO        20250731MG1  00097251020000000000000000000000000000000000000000000000000000                    N
5100050736175687ISENTO        20250731MG1  00097354050000000000000000000000000000000000000000000000000000                    N
5100050736175687ISENTO        20250731MG1  00097351020000000000000000000000000000000000000000000000000000                    N
5100093381131672ISENTO        20250731MG1  00097454050000000000000000000000000000000000000000000000000000                    N
5100014399115688ISENTO        20250731MG1  00097554050000000000000000000000000000000000000000000000000000                    N
5100066352827691ISENTO        20250731MG1  00097651020000000000000000000000000000000000000000000000000000                    N
5100066352827691ISENTO        20250731MG1  00097654050000000000000000000000000000000000000000000000000000                    N
5100004485067696ISENTO        20250731MG1  00097751020000000000000000000000000000000000000000000000000000                    N
5100004485067696ISENTO        20250731MG1  00097754050000000000000000000000000000000000000000000000000000                    N
5100002797964632ISENTO        20250731MG1  00097854050000000000000000000000000000000000000000000000000000                    N
5100049403745649ISENTO        20250731MG1  00097951020000000000000000000000000000000000000000000000000000                    N
5100049403745649ISENTO        20250731MG1  00097954050000000000000000000000000000000000000000000000000000                    N
5100004481778628ISENTO        20250731MG1  00098054050000000000000000000000000000000000000000000000000000                    N
5100008304283646ISENTO        20250731MG1  00098154050000000000000000000000000000000000000000000000000000                    N
5100008304283646ISENTO        20250731MG1  00098151020000000000000000000000000000000000000000000000000000                    N
5100025594702687ISENTO        20250731MG1  00098254050000000000000000000000000000000000000000000000000000                    N
5300004331403645ISENTO        20250709MG551  0009265405P000000000000000000000000000000000000000N                              
5300042026369615ISENTO        20250709MG551  0009275405P000000000000000000000000000000000000000N                              
5300042026369615ISENTO        20250709MG551  0009275102P000000000000000000000000000000000000000N                              
5300070110319605ISENTO        20250729MG551  0009285405P000000000000000000000000000000000000000N                              
5300070110319605ISENTO        20250729MG551  0009285102P000000000000000000000000000000000000000N                              
5300002797964632ISENTO        20250731MG551  0009375405P000000000000000000000000000000000000000N                              
5300004412199690ISENTO        20250729MG551  0009295405P000000000000000000000000000000000000000N                              
5300004412199690ISENTO        20250729MG551  0009295102P000000000000000000000000000000000000000N                              
5300004577681692ISENTO        20250731MG551  0009385405P000000000000000000000000000000000000000N                              
5300004577681692ISENTO        20250731MG551  0009385102P000000000000000000000000000000000000000N                              
5300029179122604ISENTO        20250729MG551  0009305405P000000000000000000000000000000000000000N                              
5300007850812670ISENTO        20250729MG551  0009315405P000000000000000000000000000000000000000N                              
5300007850812670ISENTO        20250729MG551  0009315102P000000000000000000000000000000000000000N                              
5300006724336643ISENTO        20250729MG551  0009325405P000000000000000000000000000000000000000N                              
5300006724336643ISENTO        20250729MG551  0009325102P000000000000000000000000000000000000000N                              
5300011923192655ISENTO        20250731MG551  0009395405P000000000000000000000000000000000000000N                              
5300011923192655ISENTO        20250731MG551  0009395102P000000000000000000000000000000000000000N                              
5300004621598686ISENTO        20250729MG551  0009335405P000000000000000000000000000000000000000N                              
5300004621598686ISENTO        20250729MG551  0009335102P000000000000000000000000000000000000000N                              
5300010337326649ISENTO        20250729MG551  0009345405P000000000000000000000000000000000000000N                              
5300010337326649ISENTO        20250729MG551  0009345102P000000000000000000000000000000000000000N                              
5300031990037615ISENTO        20250731MG551  0009405405P000000000000000000000000000000000000000N                              
5300000452115310ISENTO        20250729MG551  0009355405P000000000000000000000000000000000000000N                              
5300002798585660ISENTO        20250729MG551  0009365405P000000000000000000000000000000000000000N                              
5300002798585660ISENTO        20250729MG551  0009365102P000000000000000000000000000000000000000N                              
5300039099261691ISENTO        20250731MG551  0009415405P000000000000000000000000000000000000000N                              
5300039099261691ISENTO        20250731MG551  0009415102P000000000000000000000000000000000000000N                              
5300016046242649ISENTO        20250731MG551  0009425405P000000000000000000000000000000000000000N                              
5300008527855690ISENTO        20250731MG551  0009435405P000000000000000000000000000000000000000N                              
5300008527855690ISENTO        20250731MG551  0009435102P000000000000000000000000000000000000000N                              
5300056331550682ISENTO        20250731MG551  0009445405P000000000000000000000000000000000000000N                              
5300056331550682ISENTO        20250731MG551  0009445102P000000000000000000000000000000000000000N                              
5300040085678600ISENTO        20250731MG551  0009455405P000000000000000000000000000000000000000N                              
5300017446910615ISENTO        20250731MG551  0009465405P000000000000000000000000000000000000000N                              
5300017446910615ISENTO        20250731MG551  0009465102P000000000000000000000000000000000000000N                              
5300001441980610ISENTO        20250731MG551  0009475405P000000000000000000000000000000000000000N                              
5300055024491653ISENTO        20250731MG551  0009485405P000000000000000000000000000000000000000N                              
5300055024491653ISENTO        20250731MG551  0009485102P000000000000000000000000000000000000000N                              
5300080182763668ISENTO        20250731MG551  0009495405P000000000000000000000000000000000000000N                              
5300012511618630ISENTO        20250731MG551  0009505405P000000000000000000000000000000000000000N                              
5300012511618630ISENTO        20250731MG551  0009505102P000000000000000000000000000000000000000N                              
5300000524234680ISENTO        20250731MG551  0009515405P000000000000000000000000000000000000000N                              
5300000524234680ISENTO        20250731MG551  0009515102P000000000000000000000000000000000000000N                              
5300004818869660ISENTO        20250731MG551  0009525405P000000000000000000000000000000000000000N                              
5300004818869660ISENTO        20250731MG551  0009525102P000000000000000000000000000000000000000N                              
5300001220941662ISENTO        20250731MG551  0009535405P000000000000000000000000000000000000000N                              
5300001220941662ISENTO        20250731MG551  0009535102P000000000000000000000000000000000000000N                              
5300037845454249ISENTO        20250731MG551  0009545405P000000000000000000000000000000000000000N                              
5300008595372187ISENTO        20250731MG551  0009555405P000000000000000000000000000000000000000N                              
5300008595372187ISENTO        20250731MG551  0009555102P000000000000000000000000000000000000000N                              
5300005371679600ISENTO        20250731MG551  0009565405P000000000000000000000000000000000000000N                              
5300005371679600ISENTO        20250731MG551  0009565102P000000000000000000000000000000000000000N                              
5300030542855704ISENTO        20250731MG551  0009575405P000000000000000000000000000000000000000N                              
5300030542855704ISENTO        20250731MG551  0009575102P000000000000000000000000000000000000000N                              
5300071389288668ISENTO        20250731MG551  0009585405P000000000000000000000000000000000000000N                              
5300071389288668ISENTO        20250731MG551  0009585102P000000000000000000000000000000000000000N                              
5300039902099653ISENTO        20250731MG551  0009595405P000000000000000000000000000000000000000N                              
5300039902099653ISENTO        20250731MG551  0009595102P000000000000000000000000000000000000000N                              
5300010372725600ISENTO        20250731MG551  0009605405P000000000000000000000000000000000000000N                              
5300010372725600ISENTO        20250731MG551  0009605102P000000000000000000000000000000000000000N                              
5300020582200644ISENTO        20250731MG551  0009615405P000000000000000000000000000000000000000N                              
5300020582200644ISENTO        20250731MG551  0009615102P000000000000000000000000000000000000000N                              
5300006008371658ISENTO        20250731MG551  0009625405P000000000000000000000000000000000000000N                              
5300008950380641ISENTO        20250731MG551  0009635405P000000000000000000000000000000000000000N                              
5300050774719672ISENTO        20250731MG551  0009645405P000000000000000000000000000000000000000N                              
5300050774719672ISENTO        20250731MG551  0009645102P000000000000000000000000000000000000000N                              
5300005253169652ISENTO        20250731MG551  0009655405P000000000000000000000000000000000000000N                              
5300005253169652ISENTO        20250731MG551  0009655102P000000000000000000000000000000000000000N                              
5300006329909610ISENTO        20250731MG551  0009665405P000000000000000000000000000000000000000N                              
5300006329909610ISENTO        20250731MG551  0009665102P000000000000000000000000000000000000000N                              
5300059215607668ISENTO        20250731MG551  0009675405P000000000000000000000000000000000000000N                              
5300059215607668ISENTO        20250731MG551  0009675102P000000000000000000000000000000000000000N                              
5300083866086687ISENTO        20250731MG551  0009685405P000000000000000000000000000000000000000N                              
5300083866086687ISENTO        20250731MG551  0009685102P000000000000000000000000000000000000000N                              
5300040924343672ISENTO        20250731MG551  0009695405P000000000000000000000000000000000000000N                              
5300040924343672ISENTO        20250731MG551  0009695102P000000000000000000000000000000000000000N                              
5300017446910615ISENTO        20250731MG551  0009705405P000000000000000000000000000000000000000N                              
5300005500533606ISENTO        20250731MG551  0009715405P000000000000000000000000000000000000000N                              
5300005500533606ISENTO        20250731MG551  0009715102P000000000000000000000000000000000000000N                              
5300049533371668ISENTO        20250731MG551  0009725405P000000000000000000000000000000000000000N                              
5300049533371668ISENTO        20250731MG551  0009725102P000000000000000000000000000000000000000N                              
5300050736175687ISENTO        20250731MG551  0009735405P000000000000000000000000000000000000000N                              
5300050736175687ISENTO        20250731MG551  0009735102P000000000000000000000000000000000000000N                              
5300093381131672ISENTO        20250731MG551  0009745405P000000000000000000000000000000000000000N                              
5300014399115688ISENTO        20250731MG551  0009755405P000000000000000000000000000000000000000N                              
5300066352827691ISENTO        20250731MG551  0009765405P000000000000000000000000000000000000000N                              
5300066352827691ISENTO        20250731MG551  0009765102P000000000000000000000000000000000000000N                              
5300004485067696ISENTO        20250731MG551  0009775405P000000000000000000000000000000000000000N                              
5300004485067696ISENTO        20250731MG551  0009775102P000000000000000000000000000000000000000N                              
5300002797964632ISENTO        20250731MG551  0009785405P000000000000000000000000000000000000000N                              
5300049403745649ISENTO        20250731MG551  0009795405P000000000000000000000000000000000000000N                              
5300049403745649ISENTO        20250731MG551  0009795102P000000000000000000000000000000000000000N                              
5300004481778628ISENTO        20250731MG551  0009805405P000000000000000000000000000000000000000N                              
5300008304283646ISENTO        20250731MG551  0009815405P000000000000000000000000000000000000000N                              
5300008304283646ISENTO        20250731MG551  0009815102P000000000000000000000000000000000000000N                              
5300025594702687ISENTO        20250731MG551  0009825405P000000000000000000000000000000000000000N                              
53215322700001130624775200061 20250703MG551  0129121403T000000000000000000000000000000000000000N                              
53215322700001130624775200061 20250716MG551  0130961403T000000000000000000000000000000000000000N                              
53436489710053861312885600405 20250728MG551  3007211102T000000000000000000000000000000000000000N                              
53436489710053861312885600405 20250728MG551  3007211102T000000000000000000000000000000000000000N                              
53436489710053861312885600405 20250728MG551  3007211403T000000000000000000000000000000000000000N                              
53215322700001130624775200061 20250731MG551  0132791403T000000000000000000000000000000000000000N                              
5400000452115310551  0009355405500001915           000000030000000000132000000000000000000000000000000000000000000000000000000
5400000452115310551  00093554055000021793          000000010000000000029000000000000000000000000000000000000000000000000000000
5400000524234680551  00095154055000011112          000000010000000000254000000000000000000000000000000000000000000000000000000
5400000524234680551  00095154055000021530          000000040000000000104000000000000000000000000000000000000000000000000000000
5400000524234680551  00095154055000031545          000000010000000000142000000000000000000000000000000000000000000000000000000
5400000524234680551  00095151021020041719          000000020000000000016000000000000000000000000000000000000000000000000000000
5400000524234680551  00095151021020051459          000000010000000000035000000000000000000000000000000000000000000000000000000
5400001220941662551  0009535405500001915           000000045000000000198000000000000000000000000000000000000000000000000000000
5400001220941662551  00095354055000021765          000000010000000000039000000000000000000000000000000000000000000000000000000
5400001220941662551  0009535102102003972           000000010000000000005000000000000000000000000000000000000000000000000000000
5400001220941662551  0009535405500004670           000000010000000000076000000000000000000000000000000000000000000000000000000
5400001441980610551  00094754055000011565          000000040000000000176000000000000000000000000000000000000000000000000000000
5400001441980610551  00094754055000021793          000000010000000000029000000000000000000000000000000000000000000000000000000
5400001441980610551  00094754055000031706          000000010000000000045000000000000000000000000000000000000000000000000000000
5400002797964632551  0009375405500001916           000000035000000000140000000000000000000000000000000000000000000000000000000
5400002797964632551  00093754055000021766          000000010000000000036000000000000000000000000000000000000000000000000000000
5400002797964632551  00093754055000031278          000000010000000000016000000000000000000000000000000000000000000000000000000
5400002797964632551  00097854055000011681          000000010000000000046000000000000000000000000000000000000000000000000000000
5400002797964632551  00097854055000021910          000000020000000000316000000000000000000000000000000000000000000000000000000
5400002798585660551  00093654055000011900          000000030000000000132000000000000000000000000000000000000000000000000000000
5400002798585660551  00093654055000021293          000000010000000000035000000000000000000000000000000000000000000000000000000
5400002798585660551  00093654055000031453          000000010000000000054000000000000000000000000000000000000000000000000000000
5400002798585660551  0009365102102004972           000000010000000000005000000000000000000000000000000000000000000000000000000
5400004331403645551  00092654055000011057          000000010000000000189000000000000000000000000000000000000000000000000000000
5400004412199690551  0009295405500001915           000000035000000000154000000000000000000000000000000000000000000000000000000
5400004412199690551  00092954055000021572          000000010000000000029000000000000000000000000000000000000000000000000000000
5400004412199690551  0009295102102003972           000000010000000000005000000000000000000000000000000000000000000000000000000
5400004412199690551  00092951021020041459          000000010000000000035000000000000000000000000000000000000000000000000000000
5400004481778628551  00098054055000011928          000000020000000000196000000000000000000000000000000000000000000000000000000
5400004481778628551  00098054055000021929          000000020000000000128000000000000000000000000000000000000000000000000000000
5400004485067696551  0009775405500001915           000000030000000000132000000000000000000000000000000000000000000000000000000
5400004485067696551  00097754055000021780          000000010000000000035000000000000000000000000000000000000000000000000000000
5400004485067696551  00097754055000031931          000000010000000000058000000000000000000000000000000000000000000000000000000
5400004485067696551  0009775102102004972           000000010000000000016000000000000000000000000000000000000000000000000000000
5400004485067696551  00097754055000051296          000000020000000000272000000000000000000000000000000000000000000000000000000
5400004577681692551  0009385405500001855           000000040000000000184000000000000000000000000000000000000000000000000000000
5400004577681692551  00093854055000021563          000000010000000000029000000000000000000000000000000000000000000000000000000
5400004577681692551  0009385405500003874           000000010000000000036000000000000000000000000000000000000000000000000000000
5400004577681692551  0009385102102004972           000000010000000000005000000000000000000000000000000000000000000000000000000
5400004577681692551  0009385405500005525           000000010000000000068000000000000000000000000000000000000000000000000000000
5400004577681692551  00093854055000061216          000000010000000000132000000000000000000000000000000000000000000000000000000
5400004577681692551  00093854055000071252          000000010000000000032000000000000000000000000000000000000000000000000000000
5400004577681692551  0009385405500008841           000000020000000000556000000000000000000000000000000000000000000000000000000
5400004577681692551  00093851021020091459          000000010000000000035000000000000000000000000000000000000000000000000000000
5400004577681692551  00093854055000101167          000000010000000000034000000000000000000000000000000000000000000000000000000
5400004621598686551  00093354055000011269          000000030000000000894000000000000000000000000000000000000000000000000000000
5400004621598686551  00093351021020021459          000000010000000000035000000000000000000000000000000000000000000000000000000
5400004818869660551  00095254055000011808          000000010000000000048000000000000000000000000000000000000000000000000000000
5400004818869660551  00095251021020021459          000000010000000000035000000000000000000000000000000000000000000000000000000
5400004818869660551  00095254055000031504          000000010000000000012000000000000000000000000000000000000000000000000000000
5400004818869660551  0009525405500004915           000000005000000000022000000000000000000000000000000000000000000000000000000
5400004818869660551  00095254055000051224          000000010000000000036000000000000000000000000000000000000000000000000000000
5400005253169652551  00096554055000011099          000000010000000000078000000000000000000000000000000000000000000000000000000
5400005253169652551  00096551021020021661          000000010000000000007000000000000000000000000000000000000000000000000000000
5400005253169652551  00096554055000031900          000000005000000000022000000000000000000000000000000000000000000000000000000
5400005371679600551  0009565405500001916           000000050000000000210000000000000000000000000000000000000000000000000000000
5400005371679600551  00095654055000021636          000000010000000000036000000000000000000000000000000000000000000000000000000
5400005371679600551  00095654055000031634          000000010000000000074000000000000000000000000000000000000000000000000000000
5400005371679600551  00095654055000041224          000000010000000000044000000000000000000000000000000000000000000000000000000
5400005371679600551  0009565102102005972           000000010000000000005000000000000000000000000000000000000000000000000000000
5400005500533606551  0009715405500001855           000000040000000000184000000000000000000000000000000000000000000000000000000
5400005500533606551  00097154055000021542          000000010000000000030000000000000000000000000000000000000000000000000000000
5400005500533606551  00097154055000031891          000000010000000000036000000000000000000000000000000000000000000000000000000
5400005500533606551  0009715102102004972           000000010000000000005000000000000000000000000000000000000000000000000000000
5400006008371658551  00096254055000011483          000000010000000000072000000000000000000000000000000000000000000000000000000
5400006008371658551  00096254055000021482          000000010000000000072000000000000000000000000000000000000000000000000000000
5400006008371658551  0009625405500003913           000000020000000000128000000000000000000000000000000000000000000000000000000
5400006008371658551  0009625405500004509           000000010000000000042000000000000000000000000000000000000000000000000000000
5400006329909610551  00096654055000011900          000000030000000000132000000000000000000000000000000000000000000000000000000
5400006329909610551  0009665405500002829           000000010000000000035000000000000000000000000000000000000000000000000000000
5400006329909610551  0009665405500003746           000000010000000000045000000000000000000000000000000000000000000000000000000
5400006329909610551  0009665102102004972           000000010000000000005000000000000000000000000000000000000000000000000000000
5400006724336643551  0009325405500001633           000000040000000000232000000000000000000000000000000000000000000000000000000
5400006724336643551  00093254055000021793          000000010000000000030000000000000000000000000000000000000000000000000000000
5400006724336643551  00093251021020031459          000000010000000000035000000000000000000000000000000000000000000000000000000
5400007850812670551  0009315405500001855           000000040000000000184000000000000000000000000000000000000000000000000000000
5400007850812670551  00093154055000021542          000000010000000000030000000000000000000000000000000000000000000000000000000
5400007850812670551  00093154055000031486          000000010000000000036000000000000000000000000000000000000000000000000000000
5400007850812670551  0009315102102004972           000000010000000000005000000000000000000000000000000000000000000000000000000
5400007850812670551  00093154055000051738          000000010000000000172000000000000000000000000000000000000000000000000000000
5400008304283646551  0009815405500001915           000000035000000000154000000000000000000000000000000000000000000000000000000
5400008304283646551  00098154055000021765          000000010000000000036000000000000000000000000000000000000000000000000000000
5400008304283646551  0009815405500003893           000000010000000000064000000000000000000000000000000000000000000000000000000
5400008304283646551  00098154055000041075          000000010000000000215000000000000000000000000000000000000000000000000000000
5400008304283646551  00098151021020051459          000000010000000000035000000000000000000000000000000000000000000000000000000
5400008527855690551  00094354055000011900          000000030000000000132000000000000000000000000000000000000000000000000000000
5400008527855690551  0009435405500002829           000000010000000000036000000000000000000000000000000000000000000000000000000
5400008527855690551  00094354055000031704          000000010000000000046000000000000000000000000000000000000000000000000000000
5400008527855690551  0009435405500004765           000000020000000000820000000000000000000000000000000000000000000000000000000
5400008527855690551  00094354055000051606          000000020000000000356000000000000000000000000000000000000000000000000000000
5400008527855690551  00094351021020061722          000000010000000000012000000000000000000000000000000000000000000000000000000
5400008595372187551  0009555405500001855           000000045000000000207000000000000000000000000000000000000000000000000000000
5400008595372187551  00095554055000021782          000000010000000000036000000000000000000000000000000000000000000000000000000
5400008595372187551  00095554055000031441          000000010000000000049000000000000000000000000000000000000000000000000000000
5400008595372187551  0009555102102004972           000000010000000000016000000000000000000000000000000000000000000000000000000
5400008950380641551  00096354055000011862          000000040000000000232000000000000000000000000000000000000000000000000000000
5400008950380641551  00096354055000021793          000000010000000000029000000000000000000000000000000000000000000000000000000
5400010337326649551  0009345405500001915           000000035000000000154000000000000000000000000000000000000000000000000000000
5400010337326649551  00093454055000021572          000000010000000000029000000000000000000000000000000000000000000000000000000
5400010337326649551  00093454055000031830          000000010000000000019000000000000000000000000000000000000000000000000000000
5400010337326649551  0009345102102004972           000000010000000000005000000000000000000000000000000000000000000000000000000
5400010337326649551  0009345405500005790           000000010000000000044000000000000000000000000000000000000000000000000000000
5400010372725600551  0009605405500001915           000000050000000000220000000000000000000000000000000000000000000000000000000
5400010372725600551  00096054055000021053          000000010000000000036000000000000000000000000000000000000000000000000000000
5400010372725600551  0009605405500003659           000000010000000000038000000000000000000000000000000000000000000000000000000
5400010372725600551  0009605102102004972           000000010000000000016000000000000000000000000000000000000000000000000000000
5400011923192655551  00093954055000011245          000000010000000000118000000000000000000000000000000000000000000000000000000
5400011923192655551  0009395405500002652           000000010000000000072000000000000000000000000000000000000000000000000000000
5400011923192655551  0009395405500003653           000000010000000000024000000000000000000000000000000000000000000000000000000
5400011923192655551  00093951021020041659          000000020000000000016000000000000000000000000000000000000000000000000000000
5400012511618630551  00095054055000011565          000000035000000000154000000000000000000000000000000000000000000000000000000
5400012511618630551  0009505405500002829           000000010000000000036000000000000000000000000000000000000000000000000000000
5400012511618630551  00095054055000031441          000000010000000000049000000000000000000000000000000000000000000000000000000
5400012511618630551  00095051021020041459          000000010000000000035000000000000000000000000000000000000000000000000000000
5400014399115688551  0009755405500001772           000000040000000001072000000000000000000000000000000000000000000000000000000
5400016046242649551  00094254055000011927          000000020000000000856000000000000000000000000000000000000000000000000000000
5400017446910615551  0009465405500001915           000000030000000000132000000000000000000000000000000000000000000000000000000
5400017446910615551  00094654055000021830          000000010000000000019000000000000000000000000000000000000000000000000000000
5400017446910615551  00094654055000031793          000000010000000000029000000000000000000000000000000000000000000000000000000
5400017446910615551  0009465102102004972           000000020000000000016000000000000000000000000000000000000000000000000000000
5400017446910615551  0009705405500001818           000000010000000000049000000000000000000000000000000000000000000000000000000
5400017446910615551  00097054055000021054          000000010000000000014000000000000000000000000000000000000000000000000000000
5400020582200644551  0009615405500001855           000000040000000000184000000000000000000000000000000000000000000000000000000
5400020582200644551  00096154055000021572          000000010000000000030000000000000000000000000000000000000000000000000000000
5400020582200644551  0009615405500003736           000000010000000000036000000000000000000000000000000000000000000000000000000
5400020582200644551  0009615102102004972           000000010000000000005000000000000000000000000000000000000000000000000000000
5400020582200644551  00096154055000051599          000000010000000000035000000000000000000000000000000000000000000000000000000
5421532270000113551  01291214030600011920          000000020000000000420780000000000000000000000000000000066720000000000000000
5421532270000113551  01291214030600021921          000000010000000000147840000000000000000000000000000000000000000000000000000
5421532270000113551  0129121403060003750           000000010000000000174640000000000000000000000000000000024330000000000000000
5421532270000113551  0129121403060004864           000000010000000000072700000000000000000000000000000000011640000000000000000
5421532270000113551  01291214030600051599          000000010000000000015840000000000000000000000000000000001630000000000000000
5421532270000113551  01291214030600061252          000000010000000000020310000000000000000000000000000000002260000000000000000
5421532270000113551  01291214030600071250          000000020000000000099100000000000000000000000000000000009630000000000000000
5421532270000113551  0129121403060008656           000000010000000000369600000000000000000000000000000000046590000000000000000
5421532270000113551  01291214030600091307          000000010000000000121840000000000000000000000000000000008490000000000000000
5421532270000113551  01291214030600101766          000000020000000000035740000000000000000000000000000000003380000000000000000
5421532270000113551  0129121403060011504           000000020000000000027620000000000000000000000000000000003000000000000000000
5421532270000113551  0129121403060012525           000000010000000000051170000000000000000000000000000000006920000000000000000
5421532270000113551  01291214030600131599          000000010000000000015840000000000000000000000000000000001630000000000000000
5421532270000113551  01291214030600141252          000000010000000000020310000000000000000000000000000000002260000000000000000
5421532270000113551  01291214030600151922          000000010000000000035740000000000000000000000000000000000000000000000000000
5421532270000113551  01291214030600161216          000000010000000000108040000000000000000000000000000000013280000000000000000
5421532270000113551  01291214030600171923          000000010000000000348880000000000000000000000000000000039430000000000000000
5421532270000113551  0129121403060018942           000000010000000000129970000000000000000000000000000000017020000000000000000
5421532270000113551  01291214030600191924          000000010000000000014620000000000000000000000000000000001610000000000000000
5421532270000113551  01291214030600201873          000000010000000000361470000000000000000000000000000000000000000000000000000
5421532270000113551  0129121403060021862           000000010000000000082850000000000000000000000000000000012940000000000000000
5421532270000113551  0129121403060022515           000000040000000000090160000000000000000000000000000000012120000000000000000
5421532270000113551  01291214030600231925          000000010000000000315980000000000000000000000000000000039010000000000000000
5421532270000113551  01291214030600241738          000000010000000000128340000000000000000000000000000000015620000000000000000
5421532270000113551  0130961403060001736           000000040000000000089360000000000000000000000000000000010300000000000000000
5421532270000113551  01309614030600021599          000000030000000000047520000000000000000000000000000000004900000000000000000
5421532270000113551  01309614030600031874          000000010000000000021120000000000000000000000000000000002000000000000000000
5421532270000113551  0130961403060004908           000000010000000000349290000000000000000000000000000000047490000000000000000
5421532270000113551  0130961403060005748           000000010000000000020710000000000000000000000000000000000000000000000000000
5421532270000113551  0130961403060006524           000000010000000000047930000000000000000000000000000000006650000000000000000
5421532270000113551  01309614030600071926          000000010000000000074330000000000000000000000000000000000000000000000000000
5421532270000113551  01309614030600081563          000000020000000000034120000000000000000000000000000000005230000000000000000
5421532270000113551  01309614030600091927          000000020000000000648220000000000000000000000000000000000000000000000000000
5421532270000113551  0130961403060010954           000000010000000000082850000000000000000000000000000000014070000000000000000
5421532270000113551  0130961403060011955           000000010000000000082850000000000000000000000000000000006030000000000000000
5421532270000113551  01309614030600121928          000000020000000000134840000000000000000000000000000000015230000000000000000
5421532270000113551  01309614030600131929          000000020000000000077980000000000000000000000000000000008540000000000000000
5421532270000113551  01309614030600141930          000000010000000000016650000000000000000000000000000000000000000000000000000
5421532270000113551  0130961403060015789           000000010000000000144590000000000000000000000000000000011160000000000000000
5421532270000113551  01309614030600161889          000000010000000000051170000000000000000000000000000000005350000000000000000
5421532270000113551  0130961403060017653           000000010000000000013650000000000000000000000000000000001450000000000000000
5421532270000113551  0130961403060018765           000000020000000000607600000000000000000000000000000000081930000000000000000
5421532270000113551  01309614030600191606          000000020000000000268060000000000000000000000000000000029460000000000000000
5421532270000113551  0130961403060020581           000000010000000000025180000000000000000000000000000000002860000000000000000
5421532270000113551  0130961403060021808           000000010000000000099910000000000000000000000000000000008600000000000000000
5421532270000113551  0130961403060022992           000000010000000000040210000000000000000000000000000000004060000000000000000
5421532270000113551  01309614030600231931          000000010000000000042240000000000000000000000000000000003520000000000000000
5421532270000113551  01309614030600241599          000000020000000000031680000000000000000000000000000000003270000000000000000
5421532270000113551  01309614030600251268          000000020000000000051980000000000000000000000000000000005680000000000000000
5421532270000113551  01309614030600261932          000000010000000000023560000000000000000000000000000000002460000000000000000
5421532270000113551  01309614030600271510          000000020000000000056860000000000000000000000000000000008280000000000000000
5421532270000113551  01309614030600281933          000000010000000000191700000000000000000000000000000000026180000000000000000
5421532270000113551  01309614030600291545          000000010000000000099910000000000000000000000000000000011870000000000000000
5421532270000113551  01327914030600011939          000000020000000000199820000000000000000000798050000000027010000000000000000
5421532270000113551  01327914030600021931          000000010000000000042240000000000000000000798050000000003520000000000000000
5421532270000113551  01327914030600031443          000000010000000000079610000000000000000000798050000000009630000000000000000
5421532270000113551  01327914030600041931          000000010000000000042240000000000000000000798050000000003520000000000000000
5421532270000113551  01327914030600051940          000000020000000000191700000000000000000000798050000000016360000000000000000
5421532270000113551  01327914030600061941          000000010000000000020710000000000000000000798050000000000000000000000000000
5421532270000113551  01327914030600071942          000000020000000000156780000000000000000000798050000000014420000000000000000
5421532270000113551  01327914030600081075          000000010000000000152710000000000000000000798050000000000000000000000000000
5421532270000113551  01327914030600091080          000000020000000000149460000000000000000000798050000000016990000000000000000
5421532270000113551  01327914030600101943          000000010000000000071480000000000000000000798050000000008300000000000000000
5421532270000113551  0132791403060011504           000000020000000000027620000000000000000000798050000000003150000000000000000
5421532270000113551  01327914030600121912          000000010000000000010150000000000000000000798050000000000000000000000000000
5421532270000113551  01327914030600131389          000000020000000000169780000000000000000000798050000000018920000000000000000
5421532270000113551  01327914030600141830          000000010000000000011780000000000000000000798050000000001240000000000000000
5421532270000113551  0132791403060015595           000000020000000000043060000000000000000000798050000000004930000000000000000
5421532270000113551  01327914030600161944          000000010000000000045490000000000000000000798050000000006180000000000000000
5421532270000113551  01327914030600171781          000000060000000000082860000000000000000000798050000000013000000000000000000
5421532270000113551  0132791403060018674           000000010000000000023150000000000000000000798050000000002210000000000000000
5421532270000113551  0132791403060019818           000000010000000000034120000000000000000000798050000000000000000000000000000
5421532270000113551  01327914030600201250          000000020000000000108840000000000000000000798050000000010370000000000000000
5400025594702687551  00098254055000011250          000000020000000000152000000000000000000000000000000000000000000000000000000
5400029179122604551  00093054055000011511          000000010000000000146000000000000000000000000000000000000000000000000000000
5400030542855704551  00095754055000011900          000000045000000000198000000000000000000000000000000000000000000000000000000
5400030542855704551  0009575405500002680           000000010000000000036000000000000000000000000000000000000000000000000000000
5400030542855704551  0009575405500003806           000000010000000000062000000000000000000000000000000000000000000000000000000
5400030542855704551  0009575102102004972           000000010000000000005000000000000000000000000000000000000000000000000000000
5400030542855704551  00095751021020051459          000000010000000000035000000000000000000000000000000000000000000000000000000
5400031990037615551  0009405405500001524           000000010000000000068000000000000000000000000000000000000000000000000000000
5400037845454249551  0009545405500001789           000000010000000000189000000000000000000000000000000000000000000000000000000
5400037845454249551  0009545405500002790           000000010000000000044000000000000000000000000000000000000000000000000000000
5400039099261691551  0009415405500001855           000000040000000000184000000000000000000000000000000000000000000000000000000
5400039099261691551  00094154055000021542          000000010000000000030000000000000000000000000000000000000000000000000000000
5400039099261691551  0009415102102003972           000000010000000000005000000000000000000000000000000000000000000000000000000
5400039902099653551  0009595405500001915           000000040000000000176000000000000000000000000000000000000000000000000000000
5400039902099653551  00095954055000021793          000000010000000000029000000000000000000000000000000000000000000000000000000
5400039902099653551  00095954055000031779          000000010000000000046000000000000000000000000000000000000000000000000000000
5400039902099653551  00095954055000041262          000000010000000000189000000000000000000000000000000000000000000000000000000
5400039902099653551  00095951021020051459          000000010000000000035000000000000000000000000000000000000000000000000000000
5400040085678600551  0009455405500001633           000000035000000000203000000000000000000000000000000000000000000000000000000
5400040085678600551  00094554055000021780          000000010000000000036000000000000000000000000000000000000000000000000000000
5400040085678600551  00094554055000031496          000000010000000000058000000000000000000000000000000000000000000000000000000
5400040924343672551  0009695405500001855           000000045000000000207000000000000000000000000000000000000000000000000000000
5400040924343672551  0009695405500002829           000000010000000000036000000000000000000000000000000000000000000000000000000
5400040924343672551  00096954055000031076          000000010000000000169000000000000000000000000000000000000000000000000000000
5400040924343672551  00096951021020041459          000000010000000000035000000000000000000000000000000000000000000000000000000
5400042026369615551  0009275405500001855           000000035000000000161000000000000000000000000000000000000000000000000000000
5400042026369615551  00092754055000021782          000000010000000000036000000000000000000000000000000000000000000000000000000
5400042026369615551  0009275102102003972           000000010000000000016000000000000000000000000000000000000000000000000000000
5443648971005386551  30072111020000011459          000000130000000000201500000000000000000000208960000000000000000000000003100
5443648971005386551  30072111020000021743          000000500000000000047000000000000000000000257710000000000000000000000001800
5443648971005386551  30072111020000031934          000000030000000000059700000000000000000000319620000000000000000000000001800
5443648971005386551  30072111020000041935          000000010000000000154400000000000000000000479730000000000000000000000001800
5443648971005386551  30072114030600051656          000000010000000000112000000000000000000000479730000000000000000000000000000
5443648971005386551  30072111020000061659          000000250000000000073000000000000000000000555430000000000000000000000001800
5443648971005386551  30072111020000071661          000000250000000000079250000000000000000000637610000000000000000000000001800
5443648971005386551  30072111020000081936          000000250000000000082500000000000000000000723160000000000000000000000001800
5443648971005386551  30072111020000091727          000000010000000000024900000000000000000000748980000000000000000000000001800
5443648971005386551  30072111020000101937          000000010000000000003320000000000000000000752420000000000000000000000001800
5443648971005386551  30072111020000111938          000000100000000000044000000000000000000000798050000000000000000000000001800
5400049403745649551  00097954055000011075          000000010000000000208000000000000000000000000000000000000000000000000000000
5400049403745649551  00097954055000021605          000000020000000000208000000000000000000000000000000000000000000000000000000
5400049403745649551  00097951021020031459          000000010000000000035000000000000000000000000000000000000000000000000000000
5400049533371668551  0009725405500001633           000000040000000000232000000000000000000000000000000000000000000000000000000
5400049533371668551  00097254055000021793          000000010000000000029000000000000000000000000000000000000000000000000000000
5400049533371668551  00097254055000031808          000000010000000000056000000000000000000000000000000000000000000000000000000
5400049533371668551  00097251021020041459          000000010000000000035000000000000000000000000000000000000000000000000000000
5400050736175687551  0009735405500001633           000000035000000000203000000000000000000000000000000000000000000000000000000
5400050736175687551  00097354055000021780          000000010000000000036000000000000000000000000000000000000000000000000000000
5400050736175687551  00097354055000031634          000000010000000000059000000000000000000000000000000000000000000000000000000
5400050736175687551  00097351021020041459          000000010000000000035000000000000000000000000000000000000000000000000000000
5400050774719672551  00096454055000011900          000000030000000000132000000000000000000000000000000000000000000000000000000
5400050774719672551  00096454055000021793          000000010000000000029000000000000000000000000000000000000000000000000000000
5400050774719672551  00096454055000031830          000000010000000000019000000000000000000000000000000000000000000000000000000
5400050774719672551  00096451021020041746          000000010000000000030000000000000000000000000000000000000000000000000000000
5400055024491653551  0009485405500001855           000000045000000000207000000000000000000000000000000000000000000000000000000
5400055024491653551  00094854055000021782          000000010000000000036000000000000000000000000000000000000000000000000000000
5400055024491653551  00094854055000031808          000000010000000000052000000000000000000000000000000000000000000000000000000
5400055024491653551  0009485102102004972           000000010000000000016000000000000000000000000000000000000000000000000000000
5400055024491653551  00094854055000051599          000000010000000000034000000000000000000000000000000000000000000000000000000
5400055024491653551  0009485405500006808           000000010000000000153000000000000000000000000000000000000000000000000000000
5400056331550682551  00094454055000011862          000000045000000000261000000000000000000000000000000000000000000000000000000
5400056331550682551  00094454055000021793          000000010000000000029000000000000000000000000000000000000000000000000000000
5400056331550682551  00094454055000031926          000000010000000000099000000000000000000000000000000000000000000000000000000
5400056331550682551  0009445102102004972           000000010000000000005000000000000000000000000000000000000000000000000000000
5400059215607668551  00096754055000011793          000000010000000000029000000000000000000000000000000000000000000000000000000
5400059215607668551  0009675405500002915           000000030000000000132000000000000000000000000000000000000000000000000000000
5400059215607668551  00096754055000031912          000000010000000000019000000000000000000000000000000000000000000000000000000
5400059215607668551  00096754055000041914          000000010000000000192000000000000000000000000000000000000000000000000000000
5400059215607668551  00096754055000051913          000000010000000000039000000000000000000000000000000000000000000000000000000
5400059215607668551  00096754055000061134          000000010000000000142000000000000000000000000000000000000000000000000000000
5400059215607668551  00096751021020071459          000000010000000000035000000000000000000000000000000000000000000000000000000
5400059215607668551  00096751021020081727          000000010000000000035000000000000000000000000000000000000000000000000000000
5400059215607668551  00096754055000091867          000000010000000000068000000000000000000000000000000000000000000000000000000
5400059215607668551  0009675405500010790           000000010000000000044000000000000000000000000000000000000000000000000000000
5400066352827691551  00097654055000011900          000000035000000000154000000000000000000000000000000000000000000000000000000
5400066352827691551  00097654055000021572          000000010000000000029000000000000000000000000000000000000000000000000000000
5400066352827691551  00097654055000031830          000000010000000000019000000000000000000000000000000000000000000000000000000
5400066352827691551  0009765102102004972           000000010000000000005000000000000000000000000000000000000000000000000000000
5400070110319605551  0009285405500001915           000000035000000000154000000000000000000000000000000000000000000000000000000
5400070110319605551  0009285405500002829           000000010000000000036000000000000000000000000000000000000000000000000000000
5400070110319605551  00092854055000031704          000000010000000000052000000000000000000000000000000000000000000000000000000
5400070110319605551  00092854055000041599          000000010000000000034000000000000000000000000000000000000000000000000000000
5400070110319605551  00092851021020051719          000000010000000000008000000000000000000000000000000000000000000000000000000
5400070110319605551  00092851021020061722          000000010000000000010000000000000000000000000000000000000000000000000000000
5400070110319605551  00092851021020071459          000000010000000000035000000000000000000000000000000000000000000000000000000
5400070110319605551  00092854055000081262          000000010000000000173000000000000000000000000000000000000000000000000000000
5400071389288668551  00095854055000011900          000000030000000000132000000000000000000000000000000000000000000000000000000
5400071389288668551  0009585405500002829           000000010000000000036000000000000000000000000000000000000000000000000000000
5400071389288668551  00095854055000031486          000000010000000000046000000000000000000000000000000000000000000000000000000
5400071389288668551  00095851021020041459          000000010000000000035000000000000000000000000000000000000000000000000000000
5400080182763668551  0009495405500001700           000000010000000000225000000000000000000000000000000000000000000000000000000
5400083866086687551  0009685405500001915           000000035000000000154000000000000000000000000000000000000000000000000000000
5400083866086687551  0009685405500002829           000000010000000000036000000000000000000000000000000000000000000000000000000
5400083866086687551  00096854055000031441          000000010000000000048000000000000000000000000000000000000000000000000000000
5400083866086687551  0009685102102004972           000000010000000000005000000000000000000000000000000000000000000000000000000
5400093381131672551  0009745405500001915           000000040000000000176000000000000000000000000000000000000000000000000000000
5400093381131672551  00097454055000021793          000000010000000000029000000000000000000000000000000000000000000000000000000
7520250701202507311053          84219999WOE912                                               PC    000000000000000000000000000
7520250701202507311054          4016930076090-ANEL VEDACAO                                   PC    000000000000000000000000000
7520250701202507311057          87089100MF580-RESERV AGUA RADIADOR                           PC    000000000000000000000000000
7520250701202507311075          87083019PD1348-PASTILHA FREIO                                JG    000000000000000000000000000
7520250701202507311076          84219999ARL2218-FILTRO AR                                    PC    000000000000000000000000000
7520250701202507311080          401699900221517-COXIM AMORTECEDOR                            PC    000000000000000000000000000
7520250701202507311099          87089100MF441-RESERV AGUA RADIADOR                           PC    000000000000000000000000000
7520250701202507311112          85113020F000ZS0210-BOBINA IGNICAO PLASTICA                   PC    000000000000000000000000000
7520250701202507311134          85443000SCT65-CABO VELA                                      PC    000000000000000000000000000
7520250701202507311167          84213990CU23362-FILTRO ANTI POLEM                            PC    000000000000000000000000000
7520250701202507311216          84835090VKM11107L-TENSOR CORREIA DENTADA                     PC    000000000000000000000000000
7520250701202507311224          84213990CU21003-FILTRO ANTI POLEM                            PC    000000000000000000000000000
7520250701202507311245          4009329051851014-MANGUEIRA SUPERIOR RADIADOR                 PC    000000000000000000000000000
7520250701202507311250          870880000441674-KIT AMORTECEDOR TRASEIRO                     JG    000000000000000000000000000
7520250701202507311252          84212300WK6133-FILTRO COMBUSTIVEL                            PC    000000000000000000000000000
7520250701202507311262          87083019PD1438-PASTILHA FREIO                                JG    000000000000000000000000000
7520250701202507311268          84219999C340071-FILTRO AR                                    PC    000000000000000000000000000
7520250701202507311269          85113020245882-BOBINA IGNICAO PLASTICA                       PC    000000000000000000000000000
7520250701202507311278          401693008642057-ANEL VEDACAO                                 PC    000000000000000000000000000
7520250701202507311293          84212300PSL78-FILTRO OLEO MOTOR                              PC    000000000000000000000000000
7520250701202507311296          87083090BD3103-DISCO FREIO                                   PC    000000000000000000000000000
7520250701202507311307          4009329052099740-MANGUEIRA                                   PC    000000000000000000000000000
7520250701202507311389          870880000441487-KIT AMORTECEDOR DIANTEIRO                    PC    000000000000000000000000000
7520250701202507311441          84219999C18584-FILTRO AR                                     PC    000000000000000000000000000
7520250701202507311443          87083019PD85-PASTILHA FREIO                                  JG    000000000000000000000000000
7520250701202507311453          84219999ARL2203-FILTRO AR                                    PC    000000000000000000000000000
7520250701202507311459          38140090DESCARBONIZANTE PRO 300ML/230G                       UN    000000000000000000000000000
7520250701202507311482          8708999015268 KIT CIA-REGULADOR FREIO                        PC    000000000000000000000000000
7520250701202507311483          8708999015269 KIT CIA-REGULADOR FREIO                        PC    000000000000000000000000000
7520250701202507311486          84219999ARL4154-FILTRO AR                                    PC    000000000000000000000000000
7520250701202507311496          84219999ARL4157-FILTRO AR                                    PC    000000000000000000000000000
7520250701202507311504          8539291012499-LAMPADA                                        PC    000000000000000000000000000
7520250701202507311510          84219999LX4894-FILTRO AR                                     PC    000000000000000000000000000
7520250701202507311511          87083019PD362-PASTILHA FREIO TRASEIRO                        JG    000000000000000000000000000
7520250701202507311530          85111000BKR6E11-VELA IGNICAO                                 PC    000000000000000000000000000
7520250701202507311542          84212300W752-FILTRO OLEO MOTOR                               PC    000000000000000000000000000
7520250701202507311545          85443000SCT09-CABO VELA                                      JG    000000000000000000000000000
7520250701202507311563          84212300W7125-FILTRO OLEO MOTOR                              PC    000000000000000000000000000
7520250701202507311565          271019325W40 FS540 SN-OLEO MOTOR                             LT    000000000000000000000000000
7520250701202507311572          84212300W7122-FILTRO OLEO MOTOR                              PC    000000000000000000000000000
7520250701202507311599          84213990CU2545-FILTRO ANTI POLEM                             PC    000000000000000000000000000
7520250701202507311605          83023000MG17173-AMORT TAMPA TRAS                             PC    000000000000000000000000000
7520250701202507311606          87088000LT90201-KIT AMORTECEDOR DIANTEIRO                    PC    000000000000000000000000000
7520250701202507311634          84219999C2337-FILTRO AR                                      PC    000000000000000000000000000
7520250701202507311636          84212300PSL134-FILTRO OLEO MOTOR                             PC    000000000000000000000000000
7520250701202507311656          34024200LIMPADOR UNIVERSAL 5L                                UN    000000000000000000000000000
7520250701202507311659          73269090ABRACADEIRA SEM FIM ZNB 16X27X12                     UN    000000000000000000000000000
7520250701202507311661          73269090ABRACADEIRA SEM FIM ZNB 25X40X12                     UN    000000000000000000000000000
7520250701202507311681          401693008642022-KIT ANEIS VEDACAO                            JG    000000000000000000000000000
7520250701202507311704          84219999ARL2204-FILTRO AR                                    PC    000000000000000000000000000
7520250701202507311706          84219999C29015-FILTRO AR                                     PC    000000000000000000000000000
7520250701202507311719          85392910LAMPADA AUTOMOTIVA W5W 12V 5W                        UN    000000000000000000000000000
7520250701202507311722          85392910LAMPADA AUT 12V-21/5W 2 POLOS PINO DESENCONTRADO     UN    000000000000000000000000000
7520250701202507311727          32141010SILICONE NEUTRO ALTA TEMP HT CZA 60G BLI             UN    000000000000000000000000000
7520250701202507311738          84821090VKBC4220-ROL RODA                                    PC    000000000000000000000000000
7520250701202507311743          40151900LUVA NITRILICA LARANJA DIAMOND TAM.10                UN    000000000000000000000000000
7520250701202507311746          85392910LAMPADA AUTOMOTIVA H1 12V 55W                        UN    000000000000000000000000000
7520250701202507311765          84212300PSL818-FILTRO OLEO MOTOR                             PC    000000000000000000000000000
7520250701202507311766          84219999HU6006X-FILTRO OLEO MOTOR                            PC    000000000000000000000000000
7520250701202507311779          84219999LX3785-FILTRO AR                                     PC    000000000000000000000000000
7520250701202507311780          84212300PSL56-FILTRO OLEO MOTOR                              PC    000000000000000000000000000
7520250701202507311781          84212300W6100-FILTRO OLEO MOTOR                              PC    000000000000000000000000000
7520250701202507311782          84212300W7128-FILTRO OLEO MOTOR                              PC    000000000000000000000000000
7520250701202507311793          84212300W6MULTI20-FILTRO OLEO MOTOR                          PC    000000000000000000000000000
7520250701202507311808          84219999C26201-FILTRO AR                                     PC    000000000000000000000000000
7520250701202507311830          84219999C2256-FILTRO AR                                      PC    000000000000000000000000000
7520250701202507311862          271019320W20 VALORA-OLEO MOTOR                               LT    000000000000000000000000000
7520250701202507311867          40103500129P8S220H-CORREIA DISTRIBUICAO                      PC    000000000000000000000000000
7520250701202507311873          84133010F000TE145H-BOMBA COMBUSTIVEL IE                      PC    000000000000000000000000000
7520250701202507311874          87089990213499G-COIFA HOMOC                                  JG    000000000000000000000000000
7520250701202507311889          84139190F000TE13S2-TAMPA BOMBA COMB                          PC    000000000000000000000000000
7520250701202507311891          84219999C23021-FILTRO AR                                     PC    000000000000000000000000000
7520250701202507311900          271019325W30 WR-OLEO MOTOR                                   LT    000000000000000000000000000
7520250701202507311910          87083090BD4070-DISCO FREIO                                   PC    000000000000000000000000000
7520250701202507311912          848420002132927-JUNTA BOMBA OLEO                             PC    000000000000000000000000000
7520250701202507311913          8487900005266BRAG-RETENTOR VIRABREQUIM - POLIA               PC    000000000000000000000000000
7520250701202507311914          8409919005245MJEF-RETENTOR VIRABREQUIM - VOLANTE             PC    000000000000000000000000000
7520250701202507311920          87088000SP282-AMORT SUSPENSAO TRAS                           PC    000000000000000000000000000
7520250701202507311921          87081000036103464P-ANTI CHAMA                                PC    000000000000000000000000000
7520250701202507311922          87089990030103485AC-TAMPA OLEO MOTOR                         PC    000000000000000000000000000
7520250701202507311923          87089990MB6112-COXIM MOTOR                                   PC    000000000000000000000000000
7520250701202507311924          40169300DS1450-ANEL VEDACAO                                  PC    000000000000000000000000000
7520250701202507311925          8708999048956938-HOMOC RODA                                  PC    000000000000000000000000000
7520250701202507311926          84219999ARL9682-FILTRO AR                                    PC    000000000000000000000000000
7520250701202507311927          8708800052057034-COXIM AMORTECEDOR                           PC    000000000000000000000000000
7520250701202507311928          870880000112234-BUCHA BANDEJA                                PC    000000000000000000000000000
7520250701202507311929          870880000112418-BUCHA BANDEJA                                PC    000000000000000000000000000
7520250701202507311930          38101010KOUB LIMPA RAD-LIMPA RADIADOR                        FR    000000000000000000000000000
7520250701202507311931          84219999ARL4161-FILTRO AR                                    PC    000000000000000000000000000
7520250701202507311932          84219999C21014-FILTRO AR                                     PC    000000000000000000000000000
7520250701202507311933          85113020F000ZS0206-BOBINA IGNICAO PLASTICA                   PC    000000000000000000000000000
7520250701202507311934          34012010PASTA DESENGRAXANTE P/ MAOS 1KG                      UN    000000000000000000000000000
7520250701202507311935          34053000PASTA CU 800 BISNAGA 100G                            UN    000000000000000000000000000
7520250701202507311936          73269090ABRACADEIRA SEM FIM ZNB 30X45X12                     UN    000000000000000000000000000
7520250701202507311937          39173290TUBO TERMORETRATIL 3,2 MM X 1 M                      UN    000000000000000000000000000
7520250701202507311938          87082999GRAMPO P.CHOQUE FRONTIER/KICKS/MARCH                 UN    000000000000000000000000000
7520250701202507311939          87083090BD3466-DISCO FREIO                                   PC    000000000000000000000000000
7520250701202507311940          87083090BD4298-DISCO FREIO                                   PC    000000000000000000000000000
7520250701202507311941          401693008642283-KIT ANEIS VEDACAO                            JG    000000000000000000000000000
7520250701202507311942          83023000MG17274-AMORT TAMPA TRAS                             PC    000000000000000000000000000
7520250701202507311943          87088000503192-PIVO SUSPENSAO                                PC    000000000000000000000000000
7520250701202507311944          84219999LX3697-FILTRO AR                                     PC    000000000000000000000000000
752025070120250731504           401699900412440-BUCHA BARRA ESTABILIZADORA                   PC    000000000000000000000000000
752025070120250731509           38190000DOT4 ATE-OLEO FREIO                                  FR    000000000000000000000000000
752025070120250731515           85111000BKR7ESB-VELA IGNICAO                                 PC    000000000000000000000000000
752025070120250731524           401031006PK1200ELASTICA-CORREIA                              PC    000000000000000000000000000
752025070120250731525           40103500CT453HNBR-CORREIA DISTRIBUICAO                       PC    000000000000000000000000000
752025070120250731581           4016930075613-JUNTA TAMPA VALVULA                            PC    000000000000000000000000000
752025070120250731595           84219999C4151-FILTRO AR                                      PC    000000000000000000000000000
752025070120250731633           271019320W20 PRO DS-OLEO MOTOR                               LT    000000000000000000000000000
752025070120250731652           84139190F000TE13S3-TAMPA BOMBA COMB                          PC    000000000000000000000000000
752025070120250731653           39173290DS1506-TUBO FLUXO                                    JG    000000000000000000000000000
752025070120250731656           87089100735124R-RADIADOR AGUA                                PC    000000000000000000000000000
752025070120250731659           84219999HLP6076-FILTRO AR                                    PC    000000000000000000000000000
752025070120250731670           84219999C24021-FILTRO AR                                     PC    000000000000000000000000000
752025070120250731674           4016930075629-JUNTA TAMPA VALVULA                            PC    000000000000000000000000000
752025070120250731680           84212300W71930-FILTRO OLEO MOTOR                             PC    000000000000000000000000000
752025070120250731700           4016930015171942BN-JUNTA TAMPA VALVULA                       PC    000000000000000000000000000
752025070120250731736           84219999C22952-FILTRO AR                                     PC    000000000000000000000000000
752025070120250731746           84219999C22035-FILTRO AR                                     PC    000000000000000000000000000
752025070120250731748           27101932ISAFLUIDO 556-OLEO CAMBIO                            1/    000000000000000000000000000
752025070120250731750           85443000STV25-CABO VELA                                      JG    000000000000000000000000000
752025070120250731765           87088000SP003-AMORT SUSPENSAO DIANT                          PC    000000000000000000000000000
752025070120250731772           840991900280156403-BICO INJETOR                              PC    000000000000000000000000000
752025070120250731789           8708910095048411-RESERV AGUA RADIADOR                        PC    000000000000000000000000000
752025070120250731790           38200000COOLANT UP-ADITIVO RADIADOR                          PC    000000000000000000000000000
752025070120250731806           84219999C27009-FILTRO AR                                     PC    000000000000000000000000000
752025070120250731808           87083019PD58-PASTILHA FREIO                                  JG    000000000000000000000000000
752025070120250731818           4016930002539BRGP-RETENTOR COMANDO VALVULAS                  PC    000000000000000000000000000
752025070120250731829           84212300W6880-FILTRO OLEO MOTOR                              PC    000000000000000000000000000
752025070120250731841           87088000LT90115-KIT AMORTECEDOR DIANTEIRO                    PC    000000000000000000000000000
752025070120250731855           271019325W40 MAXI PERFORMANC-OLEO MOTOR                      LT    000000000000000000000000000
752025070120250731862           870830900986AB8653-CILINDRO RODA                             PC    000000000000000000000000000
752025070120250731864           870830900986AB8653-CILINDRO RODA                             PC    000000000000000000000000000
752025070120250731874           84219999HLP2203-FILTRO AR                                    PC    000000000000000000000000000
752025070120250731893           84219999LX3452-FILTRO AR                                     PC    000000000000000000000000000
752025070120250731908           870893003000001211-KIT EMBREAGEM                             JG    000000000000000000000000000
752025070120250731913           87083090ATE5780-CILINDRO RODA                                PC    000000000000000000000000000
752025070120250731915           271019325W30 F1 MASTER-OLEO MOTOR                            LT    000000000000000000000000000
752025070120250731916           2710193210W40 GTX-OLEO MOTOR                                 LT    000000000000000000000000000
752025070120250731942           87083019PD685-PASTILHA FREIO                                 JG    000000000000000000000000000
752025070120250731954           87089990NBJ3010D-SUPORTE BARRA ESTABILIZADORA                PC    000000000000000000000000000
752025070120250731955           87088000NBJ3010E-SUPORTE BARRA ESTABILIZADORA                PC    000000000000000000000000000
752025070120250731972           4016999050008048-ANEL VEDACAO                                PC    000000000000000000000000000
752025070120250731992           84219999C30904-FILTRO AR                                     PC    000000000000000000000000000
90336213140001600034450680073 50000001025100000102530000010254000002977500000145                                             2
90336213140001600034450680073 9900000752                                                                                     2
