10336213140001600034450680073 CRISTINA ISABEL DE CAMPOS          Belo Horizonte                MG31999760132024050120240531331
11Rua Caconde                       00875                      Renascença     31130510VINICIUS MURTA NERY         031934225098
5000074137824649ISENTO        20240507MG551  0001605405P000000001080000000000000000000000000000000000000000000000000144000000N
5000073964484687ISENTO        20240508MG551  0001635405P000000002260000000000000000000000000000000000000000000000000400000000N
5000005537570670ISENTO        20240514MG551  0001645405P000000001450000000000000000000000000000000000000000000000000265000000N
5000008726348683ISENTO        20240507MG551  0001615405P000000000350000000000000000000000000000000000000000000000000035000000N
5000004621598686ISENTO        20240524MG551  0001755405P000000003090000000000000000000000000000000000000000000000000964000000N
5000008170537606ISENTO        20240507MG551  0001625405P000000004940000000000000000000000000000000000000000000000001760000000N
5000008170537606ISENTO        20240507MG551  0001625656P000000000440000000000000000000000000000000000000000000000000044000000N
5004070420000103ISENTO        20240515MG551  0001655405P000000001360000000000000000000000000000000000000000000000000136000000N
5000008950380641ISENTO        20240523MG551  0001745405P000000003110000000000000000000000000000000000000000000000000800000000N
5000045416249668ISENTO        20240520MG551  0001705656P000000002070000000000000000000000000000000000000000000000000207000000N
5000045416249668ISENTO        20240520MG551  0001705405P000000001110000000000000000000000000000000000000000000000000218000000N
5000001563860627ISENTO        20240518MG551  0001695405P000000001450000000000000000000000000000000000000000000000000145000000N
5000012511618630ISENTO        20240516MG551  0001665656P000000001540000000000000000000000000000000000000000000000000154000000N
5000012511618630ISENTO        20240516MG551  0001665405P000000001180000000000000000000000000000000000000000000000000234000000N
5000025072846687ISENTO        20240516MG551  0001675405P000000000430000000000000000000000000000000000000000000000000043000000N
5000001220941662ISENTO        20240516MG551  0001685656P000000001980000000000000000000000000000000000000000000000000198000000N
5000001220941662ISENTO        20240516MG551  0001685405P000000001150000000000000000000000000000000000000000000000000154000000N
5000001340790602ISENTO        20240527MG551  0001795656P000000001320000000000000000000000000000000000000000000000000132000000N
5000001340790602ISENTO        20240527MG551  0001795405P000000000590000000000000000000000000000000000000000000000000084000000N
5000004602797695ISENTO        20240524MG551  0001765656P000000001470000000000000000000000000000000000000000000000000147000000N
5000004602797695ISENTO        20240524MG551  0001765405P000000000800000000000000000000000000000000000000000000000000114000000N
5000006055005689ISENTO        20240528MG551  0001865656P000000001320000000000000000000000000000000000000000000000000132000000N
5000006055005689ISENTO        20240528MG551  0001865405P000000000600000000000000000000000000000000000000000000000000085000000N
5000037354183172ISENTO        20240523MG551  0001715656P000000001540000000000000000000000000000000000000000000000000154000000N
5000037354183172ISENTO        20240523MG551  0001715405P000000001790000000000000000000000000000000000000000000000000451000000N
5000007753430645ISENTO        20240523MG551  0001725405P000000008220000000000000000000000000000000000000000000000002860000000N
5000007753430645ISENTO        20240523MG551  0001725656P000000001890000000000000000000000000000000000000000000000000189000000N
5000004300672679ISENTO        20240523MG551  0001735656P000000001890000000000000000000000000000000000000000000000000189000000N
5000004300672679ISENTO        20240523MG551  0001735405P000000001010000000000000000000000000000000000000000000000000205000000N
5000042026369615ISENTO        20240527MG551  0001805656P000000001680000000000000000000000000000000000000000000000000168000000N
5000042026369615ISENTO        20240527MG551  0001805405P000000000460000000000000000000000000000000000000000000000000046000000N
5000005135147675ISENTO        20240529MG551  0001925405P000000002980000000000000000000000000000000000000000000000000740000000N
5000020315490659ISENTO        20240531MG551  0001995656P000000001890000000000000000000000000000000000000000000000000189000000N
5000020315490659ISENTO        20240531MG551  0001995405P000000000810000000000000000000000000000000000000000000000000109000000N
5000003573013660ISENTO        20240524MG551  0001775405P000000004210000000000000000000000000000000000000000000000001705000000N
5000014317397668ISENTO        20240528MG551  0001875405P000000007510000000000000000000000000000000000000000000000002734000000N
5000014317397668ISENTO        20240528MG551  0001875656P000000001680000000000000000000000000000000000000000000000000168000000N
5000012240708603ISENTO        20240528MG551  0001885405P000000003560000000000000000000000000000000000000000000000000846000000N
5000000238909670ISENTO        20240524MG551  0001785656P000000001680000000000000000000000000000000000000000000000000168000000N
5000000238909670ISENTO        20240524MG551  0001785405P000000007080000000000000000000000000000000000000000000000001883000000N
5000074979809634ISENTO        20240528MG551  0001895656P000000001680000000000000000000000000000000000000000000000000168000000N
5000074979809634ISENTO        20240528MG551  0001895405P000000001260000000000000000000000000000000000000000000000000274000000N
5000049403745649ISENTO        20240529MG551  0001935656P000000001470000000000000000000000000000000000000000000000000147000000N
5000049403745649ISENTO        20240529MG551  0001935405P000000000920000000000000000000000000000000000000000000000000130000000N
5000037845454249ISENTO        20240527MG551  0001815405P000000005780000000000000000000000000000000000000000000000002366000000N
5000029745802620ISENTO        20240528MG551  0001905405P000000010320000000000000000000000000000000000000000000000001032000000N
5000023078600610ISENTO        20240527MG551  0001825405P000000001990000000000000000000000000000000000000000000000000199000000N
5000004266124694ISENTO        20240527MG551  0001835405P000000003690000000000000000000000000000000000000000000000000369000000N
5000050774719672ISENTO        20240527MG551  0001845656P000000001260000000000000000000000000000000000000000000000000126000000N
5000050774719672ISENTO        20240527MG551  0001845405P000000000550000000000000000000000000000000000000000000000000080000000N
5000005371679600ISENTO        20240529MG551  0001945405P000000000600000000000000000000000000000000000000000000000000060000000N
5000061343170630ISENTO        20240529MG551  0001955405P000000001470000000000000000000000000000000000000000000000000226000000N
5000007814597706ISENTO        20240527MG551  0001855405P000000002990000000000000000000000000000000000000000000000000299000000N
5000081788193687ISENTO        20240529MG551  0001965405P000000005070000000000000000000000000000000000000000000000001325000000N
5000014431297634ISENTO        20240528MG551  0001915656P000000001760000000000000000000000000000000000000000000000000176000000N
5000014431297634ISENTO        20240528MG551  0001915405P000000001390000000000000000000000000000000000000000000000000226000000N
5000050797670653ISENTO        20240531MG551  0002005405P000000005840000000000000000000000000000000000000000000000000584000000N
5000010161941613ISENTO        20240529MG551  0001975656P000000001540000000000000000000000000000000000000000000000000154000000N
5000010161941613ISENTO        20240529MG551  0001975405P000000000340000000000000000000000000000000000000000000000000034000000N
5000019876688634ISENTO        20240531MG551  0002015656P000000001680000000000000000000000000000000000000000000000000168000000N
5000019876688634ISENTO        20240531MG551  0002015405P000000002060000000000000000000000000000000000000000000000000304000000N
5000010919509622ISENTO        20240531MG551  0002025405P000000004360000000000000000000000000000000000000000000000001272000000N
5000000498426688ISENTO        20240529MG551  0001985405P000000002600000000000000000000000000000000000000000000000000642000000N
5000002400675929ISENTO        20240531MG551  0002035656P000000001470000000000000000000000000000000000000000000000000147000000N
5000002400675929ISENTO        20240531MG551  0002035405P000000001160000000000000000000000000000000000000000000000000228000000N
5000004577681692ISENTO        20240531MG551  0002045656P000000001760000000000000000000000000000000000000000000000000176000000N
5000004577681692ISENTO        20240531MG551  0002045405P000000000610000000000000000000000000000000000000000000000000086000000N
50215322700001130624775200061 20240502MG551  0087651403T000000016747600000000000000000000000000000000000000000000000000000000N
50033166610005426940411980200 20240524MG551  0530545655T000000010992000000000000000000000000000000000000000000000000000000000N
50215322700001130624775200061 20240510MG551  0088191403T000000018509100000000000000000000000000000000000000000000000000000000N
50215322700001130624775200061 20240522MG551  0089231403T000000027215400000000000000000000000000000000000000000000000000000000N
51215322700001130624775200061 20240502MG1  00876514030000000000000000000000000000000000000000000000000000                    N
5100074137824649ISENTO        20240507MG1  00016054050000000000000000000000000000000000000000000000000000                    N
5100008726348683ISENTO        20240507MG1  00016154050000000000000000000000000000000000000000000000000000                    N
5100008170537606ISENTO        20240507MG1  00016254050000000000000000000000000000000000000000000000000000                    N
5100008170537606ISENTO        20240507MG1  00016256560000000000000000000000000000000000000000000000000000                    N
5100073964484687ISENTO        20240508MG1  00016354050000000000000000000000000000000000000000000000000000                    N
51215322700001130624775200061 20240510MG1  00881914030000000000000000000000000000000000000000000000000000                    N
5100005537570670ISENTO        20240514MG1  00016454050000000000000000000000000000000000000000000000000000                    N
5104070420000103ISENTO        20240515MG1  00016554050000000000000000000000000000000000000000000000000000                    N
5100012511618630ISENTO        20240516MG1  00016656560000000000000000000000000000000000000000000000000000                    N
5100012511618630ISENTO        20240516MG1  00016654050000000000000000000000000000000000000000000000000000                    N
5100025072846687ISENTO        20240516MG1  00016754050000000000000000000000000000000000000000000000000000                    N
5100001220941662ISENTO        20240516MG1  00016854050000000000000000000000000000000000000000000000000000                    N
5100001220941662ISENTO        20240516MG1  00016856560000000000000000000000000000000000000000000000000000                    N
5100001563860627ISENTO        20240518MG1  00016954050000000000000000000000000000000000000000000000000000                    N
5100045416249668ISENTO        20240520MG1  00017054050000000000000000000000000000000000000000000000000000                    N
5100045416249668ISENTO        20240520MG1  00017056560000000000000000000000000000000000000000000000000000                    N
51215322700001130624775200061 20240522MG1  00892314030000000000000000000000000000000000000000000000000000                    N
5100037354183172ISENTO        20240523MG1  00017156560000000000000000000000000000000000000000000000000000                    N
5100037354183172ISENTO        20240523MG1  00017154050000000000000000000000000000000000000000000000000000                    N
5100007753430645ISENTO        20240523MG1  00017254050000000000000000000000000000000000000000000000000000                    N
5100007753430645ISENTO        20240523MG1  00017256560000000000000000000000000000000000000000000000000000                    N
5100004300672679ISENTO        20240523MG1  00017356560000000000000000000000000000000000000000000000000000                    N
5100004300672679ISENTO        20240523MG1  00017354050000000000000000000000000000000000000000000000000000                    N
5100008950380641ISENTO        20240523MG1  00017454050000000000000000000000000000000000000000000000000000                    N
5100004621598686ISENTO        20240524MG1  00017554050000000000000000000000000000000000000000000000000000                    N
5100004602797695ISENTO        20240524MG1  00017656560000000000000000000000000000000000000000000000000000                    N
5100004602797695ISENTO        20240524MG1  00017654050000000000000000000000000000000000000000000000000000                    N
5100003573013660ISENTO        20240524MG1  00017754050000000000000000000000000000000000000000000000000000                    N
5100000238909670ISENTO        20240524MG1  00017856560000000000000000000000000000000000000000000000000000                    N
5100000238909670ISENTO        20240524MG1  00017854050000000000000000000000000000000000000000000000000000                    N
51033166610005426940411980200 20240524MG1  05305456550000000000000000000000000000000000000000000000000000                    N
5100001340790602ISENTO        20240527MG1  00017954050000000000000000000000000000000000000000000000000000                    N
5100001340790602ISENTO        20240527MG1  00017956560000000000000000000000000000000000000000000000000000                    N
5100042026369615ISENTO        20240527MG1  00018056560000000000000000000000000000000000000000000000000000                    N
5100042026369615ISENTO        20240527MG1  00018054050000000000000000000000000000000000000000000000000000                    N
5100037845454249ISENTO        20240527MG1  00018154050000000000000000000000000000000000000000000000000000                    N
5100023078600610ISENTO        20240527MG1  00018254050000000000000000000000000000000000000000000000000000                    N
5100004266124694ISENTO        20240527MG1  00018354050000000000000000000000000000000000000000000000000000                    N
5100050774719672ISENTO        20240527MG1  00018454050000000000000000000000000000000000000000000000000000                    N
5100050774719672ISENTO        20240527MG1  00018456560000000000000000000000000000000000000000000000000000                    N
5100007814597706ISENTO        20240527MG1  00018554050000000000000000000000000000000000000000000000000000                    N
5100006055005689ISENTO        20240528MG1  00018654050000000000000000000000000000000000000000000000000000                    N
5100006055005689ISENTO        20240528MG1  00018656560000000000000000000000000000000000000000000000000000                    N
5100014317397668ISENTO        20240528MG1  00018754050000000000000000000000000000000000000000000000000000                    N
5100014317397668ISENTO        20240528MG1  00018756560000000000000000000000000000000000000000000000000000                    N
5100012240708603ISENTO        20240528MG1  00018854050000000000000000000000000000000000000000000000000000                    N
5100074979809634ISENTO        20240528MG1  00018956560000000000000000000000000000000000000000000000000000                    N
5100074979809634ISENTO        20240528MG1  00018954050000000000000000000000000000000000000000000000000000                    N
5100029745802620ISENTO        20240528MG1  00019054050000000000000000000000000000000000000000000000000000                    N
5100014431297634ISENTO        20240528MG1  00019156560000000000000000000000000000000000000000000000000000                    N
5100014431297634ISENTO        20240528MG1  00019154050000000000000000000000000000000000000000000000000000                    N
5100005135147675ISENTO        20240529MG1  00019254050000000000000000000000000000000000000000000000000000                    N
5100049403745649ISENTO        20240529MG1  00019354050000000000000000000000000000000000000000000000000000                    N
5100049403745649ISENTO        20240529MG1  00019356560000000000000000000000000000000000000000000000000000                    N
5100005371679600ISENTO        20240529MG1  00019454050000000000000000000000000000000000000000000000000000                    N
5100061343170630ISENTO        20240529MG1  00019554050000000000000000000000000000000000000000000000000000                    N
5100081788193687ISENTO        20240529MG1  00019654050000000000000000000000000000000000000000000000000000                    N
5100010161941613ISENTO        20240529MG1  00019754050000000000000000000000000000000000000000000000000000                    N
5100010161941613ISENTO        20240529MG1  00019756560000000000000000000000000000000000000000000000000000                    N
5100000498426688ISENTO        20240529MG1  00019854050000000000000000000000000000000000000000000000000000                    N
5100020315490659ISENTO        20240531MG1  00019954050000000000000000000000000000000000000000000000000000                    N
5100020315490659ISENTO        20240531MG1  00019956560000000000000000000000000000000000000000000000000000                    N
5100050797670653ISENTO        20240531MG1  00020054050000000000000000000000000000000000000000000000000000                    N
5100019876688634ISENTO        20240531MG1  00020154050000000000000000000000000000000000000000000000000000                    N
5100019876688634ISENTO        20240531MG1  00020156560000000000000000000000000000000000000000000000000000                    N
5100010919509622ISENTO        20240531MG1  00020254050000000000000000000000000000000000000000000000000000                    N
5100002400675929ISENTO        20240531MG1  00020356560000000000000000000000000000000000000000000000000000                    N
5100002400675929ISENTO        20240531MG1  00020354050000000000000000000000000000000000000000000000000000                    N
5100004577681692ISENTO        20240531MG1  00020456560000000000000000000000000000000000000000000000000000                    N
5100004577681692ISENTO        20240531MG1  00020454050000000000000000000000000000000000000000000000000000                    N
5300074137824649ISENTO        20240507MG551  0001605405P000000000000000000000000000000000000000N                              
5300073964484687ISENTO        20240508MG551  0001635405P000000000000000000000000000000000000000N                              
5300005537570670ISENTO        20240514MG551  0001645405P000000000000000000000000000000000000000N                              
5300008726348683ISENTO        20240507MG551  0001615405P000000000000000000000000000000000000000N                              
5300004621598686ISENTO        20240524MG551  0001755405P000000000000000000000000000000000000000N                              
5300008170537606ISENTO        20240507MG551  0001625405P000000000000000000000000000000000000000N                              
5300008170537606ISENTO        20240507MG551  0001625656P000000000000000000000000000000000000000N                              
5304070420000103ISENTO        20240515MG551  0001655405P000000000000000000000000000000000000000N                              
5300008950380641ISENTO        20240523MG551  0001745405P000000000000000000000000000000000000000N                              
5300045416249668ISENTO        20240520MG551  0001705656P000000000000000000000000000000000000000N                              
5300045416249668ISENTO        20240520MG551  0001705405P000000000000000000000000000000000000000N                              
5300001563860627ISENTO        20240518MG551  0001695405P000000000000000000000000000000000000000N                              
5300012511618630ISENTO        20240516MG551  0001665656P000000000000000000000000000000000000000N                              
5300012511618630ISENTO        20240516MG551  0001665405P000000000000000000000000000000000000000N                              
5300025072846687ISENTO        20240516MG551  0001675405P000000000000000000000000000000000000000N                              
5300001220941662ISENTO        20240516MG551  0001685656P000000000000000000000000000000000000000N                              
5300001220941662ISENTO        20240516MG551  0001685405P000000000000000000000000000000000000000N                              
5300001340790602ISENTO        20240527MG551  0001795656P000000000000000000000000000000000000000N                              
5300001340790602ISENTO        20240527MG551  0001795405P000000000000000000000000000000000000000N                              
5300004602797695ISENTO        20240524MG551  0001765656P000000000000000000000000000000000000000N                              
5300004602797695ISENTO        20240524MG551  0001765405P000000000000000000000000000000000000000N                              
5300006055005689ISENTO        20240528MG551  0001865656P000000000000000000000000000000000000000N                              
5300006055005689ISENTO        20240528MG551  0001865405P000000000000000000000000000000000000000N                              
5300037354183172ISENTO        20240523MG551  0001715656P000000000000000000000000000000000000000N                              
5300037354183172ISENTO        20240523MG551  0001715405P000000000000000000000000000000000000000N                              
5300007753430645ISENTO        20240523MG551  0001725405P000000000000000000000000000000000000000N                              
5300007753430645ISENTO        20240523MG551  0001725656P000000000000000000000000000000000000000N                              
5300004300672679ISENTO        20240523MG551  0001735656P000000000000000000000000000000000000000N                              
5300004300672679ISENTO        20240523MG551  0001735405P000000000000000000000000000000000000000N                              
5300042026369615ISENTO        20240527MG551  0001805656P000000000000000000000000000000000000000N                              
5300042026369615ISENTO        20240527MG551  0001805405P000000000000000000000000000000000000000N                              
5300005135147675ISENTO        20240529MG551  0001925405P000000000000000000000000000000000000000N                              
5300020315490659ISENTO        20240531MG551  0001995656P000000000000000000000000000000000000000N                              
5300020315490659ISENTO        20240531MG551  0001995405P000000000000000000000000000000000000000N                              
5300003573013660ISENTO        20240524MG551  0001775405P000000000000000000000000000000000000000N                              
5300014317397668ISENTO        20240528MG551  0001875405P000000000000000000000000000000000000000N                              
5300014317397668ISENTO        20240528MG551  0001875656P000000000000000000000000000000000000000N                              
5300012240708603ISENTO        20240528MG551  0001885405P000000000000000000000000000000000000000N                              
5300000238909670ISENTO        20240524MG551  0001785656P000000000000000000000000000000000000000N                              
5300000238909670ISENTO        20240524MG551  0001785405P000000000000000000000000000000000000000N                              
5300074979809634ISENTO        20240528MG551  0001895656P000000000000000000000000000000000000000N                              
5300074979809634ISENTO        20240528MG551  0001895405P000000000000000000000000000000000000000N                              
5300049403745649ISENTO        20240529MG551  0001935656P000000000000000000000000000000000000000N                              
5300049403745649ISENTO        20240529MG551  0001935405P000000000000000000000000000000000000000N                              
5300037845454249ISENTO        20240527MG551  0001815405P000000000000000000000000000000000000000N                              
5300029745802620ISENTO        20240528MG551  0001905405P000000000000000000000000000000000000000N                              
5300023078600610ISENTO        20240527MG551  0001825405P000000000000000000000000000000000000000N                              
5300004266124694ISENTO        20240527MG551  0001835405P000000000000000000000000000000000000000N                              
5300050774719672ISENTO        20240527MG551  0001845656P000000000000000000000000000000000000000N                              
5300050774719672ISENTO        20240527MG551  0001845405P000000000000000000000000000000000000000N                              
5300005371679600ISENTO        20240529MG551  0001945405P000000000000000000000000000000000000000N                              
5300061343170630ISENTO        20240529MG551  0001955405P000000000000000000000000000000000000000N                              
5300007814597706ISENTO        20240527MG551  0001855405P000000000000000000000000000000000000000N                              
5300081788193687ISENTO        20240529MG551  0001965405P000000000000000000000000000000000000000N                              
5300014431297634ISENTO        20240528MG551  0001915656P000000000000000000000000000000000000000N                              
5300014431297634ISENTO        20240528MG551  0001915405P000000000000000000000000000000000000000N                              
5300050797670653ISENTO        20240531MG551  0002005405P000000000000000000000000000000000000000N                              
5300010161941613ISENTO        20240529MG551  0001975656P000000000000000000000000000000000000000N                              
5300010161941613ISENTO        20240529MG551  0001975405P000000000000000000000000000000000000000N                              
5300019876688634ISENTO        20240531MG551  0002015656P000000000000000000000000000000000000000N                              
5300019876688634ISENTO        20240531MG551  0002015405P000000000000000000000000000000000000000N                              
5300010919509622ISENTO        20240531MG551  0002025405P000000000000000000000000000000000000000N                              
5300000498426688ISENTO        20240529MG551  0001985405P000000000000000000000000000000000000000N                              
5300002400675929ISENTO        20240531MG551  0002035656P000000000000000000000000000000000000000N                              
5300002400675929ISENTO        20240531MG551  0002035405P000000000000000000000000000000000000000N                              
5300004577681692ISENTO        20240531MG551  0002045656P000000000000000000000000000000000000000N                              
5300004577681692ISENTO        20240531MG551  0002045405P000000000000000000000000000000000000000N                              
53215322700001130624775200061 20240502MG551  0087651403T000000000000000000000000000000000000000N                              
53033166610005426940411980200 20240524MG551  0530545655T000000000000000000000000000000000000000N                              
53215322700001130624775200061 20240510MG551  0088191403T000000000000000000000000000000000000000N                              
53215322700001130624775200061 20240522MG551  0089231403T000000000000000000000000000000000000000N                              
5400074137824649551  0001605405500001708           000000010000000000036000000000000000000000000000000000000000000000000000000
5400074137824649551  0001605405500002513           000000020000000000072000000000000000000000000000000000000000000000000000000
5400073964484687551  0001635405500001633           000000030000000000174000000000000000000000000000000000000000000000000000000
5400073964484687551  0001635405500002893           000000010000000000052000000000000000000000000000000000000000000000000000000
5400005537570670551  0001645405500001916           000000030000000000120000000000000000000000000000000000000000000000000000000
5400005537570670551  0001645405500002882           000000010000000000025000000000000000000000000000000000000000000000000000000
5400008726348683551  0001615405500001924           000000010000000000035000000000000000000000000000000000000000000000000000000
5400004621598686551  0001755405500001916           000000045000000000180000000000000000000000000000000000000000000000000000000
5400004621598686551  0001755405500002882           000000010000000000025000000000000000000000000000000000000000000000000000000
5400004621598686551  0001755405500003885           000000010000000000065000000000000000000000000000000000000000000000000000000
5400004621598686551  0001755405500004905           000000010000000000039000000000000000000000000000000000000000000000000000000
5400008170537606551  0001625405500001908           000000010000000000378000000000000000000000000000000000000000000000000000000
5400008170537606551  0001625405500002690           000000010000000000030000000000000000000000000000000000000000000000000000000
5400008170537606551  0001625405500003513           000000020000000000072000000000000000000000000000000000000000000000000000000
5400008170537606551  0001625656500004886           000000010000000000044000000000000000000000000000000000000000000000000000000
5400008170537606551  0001625405500005923           000000010000000000014000000000000000000000000000000000000000000000000000000
5404070420000103551  0001655405500001538           000000010000000000136000000000000000000000000000000000000000000000000000000
5400008950380641551  0001745405500001633           000000040000000000232000000000000000000000000000000000000000000000000000000
5400008950380641551  0001745405500002882           000000010000000000025000000000000000000000000000000000000000000000000000000
5400008950380641551  0001745405500003893           000000010000000000054000000000000000000000000000000000000000000000000000000
5400045416249668551  0001705656500001886           000000045000000000207000000000000000000000000000000000000000000000000000000
5400045416249668551  0001705405500002745           000000010000000000034000000000000000000000000000000000000000000000000000000
5400045416249668551  0001705405500003693           000000010000000000039000000000000000000000000000000000000000000000000000000
5400045416249668551  0001705405500004880           000000010000000000038000000000000000000000000000000000000000000000000000000
5400001563860627551  0001695405500001872           000000010000000000145000000000000000000000000000000000000000000000000000000
5400012511618630551  0001665656500001887           000000035000000000154000000000000000000000000000000000000000000000000000000
5400012511618630551  0001665405500002745           000000010000000000034000000000000000000000000000000000000000000000000000000
5400012511618630551  0001665405500003693           000000010000000000048000000000000000000000000000000000000000000000000000000
5400012511618630551  0001665405500004905           000000010000000000036000000000000000000000000000000000000000000000000000000
5400025072846687551  0001675405500001790           000000010000000000043000000000000000000000000000000000000000000000000000000
5400001220941662551  0001685656500001887           000000045000000000198000000000000000000000000000000000000000000000000000000
5400001220941662551  0001685405500002680           000000010000000000039000000000000000000000000000000000000000000000000000000
5400001220941662551  0001685405500003822           000000010000000000076000000000000000000000000000000000000000000000000000000
5400001340790602551  0001795656500001886           000000030000000000132000000000000000000000000000000000000000000000000000000
5400001340790602551  0001795405500002829           000000010000000000025000000000000000000000000000000000000000000000000000000
5400001340790602551  0001795405500003857           000000010000000000034000000000000000000000000000000000000000000000000000000
5400004602797695551  0001765656500001887           000000035000000000147000000000000000000000000000000000000000000000000000000
5400004602797695551  0001765405500002829           000000010000000000034000000000000000000000000000000000000000000000000000000
5400004602797695551  0001765405500003929           000000010000000000046000000000000000000000000000000000000000000000000000000
5400006055005689551  0001865656500001886           000000030000000000132000000000000000000000000000000000000000000000000000000
5400006055005689551  0001865405500002829           000000010000000000025000000000000000000000000000000000000000000000000000000
5400006055005689551  0001865405500003929           000000010000000000035000000000000000000000000000000000000000000000000000000
5400037354183172551  0001715656500001886           000000035000000000154000000000000000000000000000000000000000000000000000000
5400037354183172551  0001715405500002882           000000010000000000025000000000000000000000000000000000000000000000000000000
5400037354183172551  0001715405500003736           000000010000000000028000000000000000000000000000000000000000000000000000000
5400037354183172551  0001715405500004781           000000010000000000026000000000000000000000000000000000000000000000000000000
5400037354183172551  0001715405500005905           000000010000000000036000000000000000000000000000000000000000000000000000000
5400037354183172551  0001715405500006509           000000020000000000064000000000000000000000000000000000000000000000000000000
5400007753430645551  0001725405500001865           000000020000000000544000000000000000000000000000000000000000000000000000000
5400007753430645551  0001725405500002942           000000010000000000186000000000000000000000000000000000000000000000000000000
5400007753430645551  0001725656500003887           000000045000000000189000000000000000000000000000000000000000000000000000000
5400007753430645551  0001725405500004745           000000010000000000034000000000000000000000000000000000000000000000000000000
5400007753430645551  0001725405500005893           000000010000000000058000000000000000000000000000000000000000000000000000000
5400004300672679551  0001735656500001887           000000045000000000189000000000000000000000000000000000000000000000000000000
5400004300672679551  0001735405500002745           000000010000000000034000000000000000000000000000000000000000000000000000000
5400004300672679551  0001735405500003735           000000010000000000036000000000000000000000000000000000000000000000000000000
5400004300672679551  0001735405500004880           000000010000000000031000000000000000000000000000000000000000000000000000000
5400042026369615551  0001805656500001887           000000040000000000168000000000000000000000000000000000000000000000000000000
5400042026369615551  0001805405500002893           000000010000000000046000000000000000000000000000000000000000000000000000000
5400005135147675551  0001925405500001633           000000035000000000203000000000000000000000000000000000000000000000000000000
5400005135147675551  0001925405500002680           000000010000000000036000000000000000000000000000000000000000000000000000000
5400005135147675551  0001925405500003806           000000010000000000059000000000000000000000000000000000000000000000000000000
5400020315490659551  0001995656500001887           000000045000000000189000000000000000000000000000000000000000000000000000000
5400020315490659551  0001995405500002829           000000010000000000028000000000000000000000000000000000000000000000000000000
5400020315490659551  0001995405500003655           000000010000000000053000000000000000000000000000000000000000000000000000000
5400003573013660551  0001775405500001633           000000030000000000174000000000000000000000000000000000000000000000000000000
5400003573013660551  0001775405500002829           000000010000000000034000000000000000000000000000000000000000000000000000000
5400003573013660551  0001775405500003621           000000010000000000058000000000000000000000000000000000000000000000000000000
5400003573013660551  0001775405500004905           000000010000000000038000000000000000000000000000000000000000000000000000000
5400003573013660551  0001775405500005781           000000010000000000028000000000000000000000000000000000000000000000000000000
5400003573013660551  0001775405500006756           000000010000000000089000000000000000000000000000000000000000000000000000000
5400014317397668551  0001875405500001679           000000020000000000598000000000000000000000000000000000000000000000000000000
5400014317397668551  0001875405500002701           000000010000000000082000000000000000000000000000000000000000000000000000000
5400014317397668551  0001875656500003887           000000040000000000168000000000000000000000000000000000000000000000000000000
5400014317397668551  0001875405500004829           000000010000000000025000000000000000000000000000000000000000000000000000000
5400014317397668551  0001875405500005746           000000010000000000046000000000000000000000000000000000000000000000000000000
5400012240708603551  0001885405500001633           000000040000000000232000000000000000000000000000000000000000000000000000000
5400012240708603551  0001885405500002829           000000010000000000026000000000000000000000000000000000000000000000000000000
5400012240708603551  0001885405500003806           000000010000000000098000000000000000000000000000000000000000000000000000000
5400000238909670551  0001785656500001887           000000040000000000168000000000000000000000000000000000000000000000000000000
5400000238909670551  0001785405500002829           000000010000000000025000000000000000000000000000000000000000000000000000000
5400000238909670551  0001785405500003736           000000010000000000021000000000000000000000000000000000000000000000000000000
5400000238909670551  0001785405500004908           000000010000000000422000000000000000000000000000000000000000000000000000000
5400000238909670551  0001785405500005953           000000040000000000168000000000000000000000000000000000000000000000000000000
5400000238909670551  0001785405500006748           000000020000000000072000000000000000000000000000000000000000000000000000000
5400074979809634551  0001895656500001887           000000040000000000168000000000000000000000000000000000000000000000000000000
5400074979809634551  0001895405500002829           000000010000000000028000000000000000000000000000000000000000000000000000000
5400074979809634551  0001895405500003670           000000010000000000092000000000000000000000000000000000000000000000000000000
5400074979809634551  0001895405500004923           000000010000000000006000000000000000000000000000000000000000000000000000000
5400049403745649551  0001935656500001887           000000035000000000147000000000000000000000000000000000000000000000000000000
5400049403745649551  0001935405500002680           000000010000000000038000000000000000000000000000000000000000000000000000000
5400049403745649551  0001935405500003621           000000010000000000054000000000000000000000000000000000000000000000000000000
5400037845454249551  0001815405500001960           000000010000000000054000000000000000000000000000000000000000000000000000000
5400037845454249551  0001815405500002872           000000010000000000139000000000000000000000000000000000000000000000000000000
5400037845454249551  0001815405500003920           000000010000000000022000000000000000000000000000000000000000000000000000000
5400037845454249551  0001815405500004578           000000010000000000064000000000000000000000000000000000000000000000000000000
5400037845454249551  0001815405500005633           000000040000000000232000000000000000000000000000000000000000000000000000000
5400037845454249551  0001815405500006829           000000010000000000025000000000000000000000000000000000000000000000000000000
5400037845454249551  0001815405500007929           000000010000000000042000000000000000000000000000000000000000000000000000000
5400029745802620551  0001905405500001900           000000040000000001032000000000000000000000000000000000000000000000000000000
5400023078600610551  0001825405500001750           000000010000000000199000000000000000000000000000000000000000000000000000000
5400004266124694551  0001835405500001927           000000010000000000369000000000000000000000000000000000000000000000000000000
5400050774719672551  0001845656500001887           000000030000000000126000000000000000000000000000000000000000000000000000000
5400050774719672551  0001845405500002882           000000010000000000025000000000000000000000000000000000000000000000000000000
5400050774719672551  0001845405500003910           000000010000000000030000000000000000000000000000000000000000000000000000000
5400005371679600551  0001945405500001756           000000010000000000060000000000000000000000000000000000000000000000000000000
5400061343170630551  0001955405500001764           000000010000000000079000000000000000000000000000000000000000000000000000000
5400061343170630551  0001955405500002790           000000020000000000068000000000000000000000000000000000000000000000000000000
5400007814597706551  0001855405500001934           000000010000000000299000000000000000000000000000000000000000000000000000000
5400081788193687551  0001965405500001633           000000040000000000232000000000000000000000000000000000000000000000000000000
5400081788193687551  0001965405500002829           000000010000000000025000000000000000000000000000000000000000000000000000000
5400081788193687551  0001965405500003744           000000010000000000072000000000000000000000000000000000000000000000000000000
5400081788193687551  0001965405500004832           000000020000000000178000000000000000000000000000000000000000000000000000000
5400014431297634551  0001915656500001886           000000040000000000176000000000000000000000000000000000000000000000000000000
5400014431297634551  0001915405500002829           000000010000000000026000000000000000000000000000000000000000000000000000000
5400014431297634551  0001915405500003867           000000010000000000035000000000000000000000000000000000000000000000000000000
5400014431297634551  0001915405500004705           000000020000000000078000000000000000000000000000000000000000000000000000000
5400050797670653551  0002005405500001870           000000010000000000584000000000000000000000000000000000000000000000000000000
5400010161941613551  0001975656500001886           000000035000000000154000000000000000000000000000000000000000000000000000000
5400010161941613551  0001975405500002644           000000010000000000034000000000000000000000000000000000000000000000000000000
5400019876688634551  0002015656500001887           000000040000000000168000000000000000000000000000000000000000000000000000000
5400019876688634551  0002015405500002829           000000010000000000027000000000000000000000000000000000000000000000000000000
5400019876688634551  0002015405500003624           000000010000000000044000000000000000000000000000000000000000000000000000000
5400019876688634551  0002015405500004872           000000010000000000135000000000000000000000000000000000000000000000000000000
5400010919509622551  0002025405500001738           000000010000000000122000000000000000000000000000000000000000000000000000000
5400010919509622551  0002025405500002739           000000010000000000078000000000000000000000000000000000000000000000000000000
5400010919509622551  0002025405500003972           000000010000000000026000000000000000000000000000000000000000000000000000000
5400010919509622551  0002025405500004966           000000010000000000062000000000000000000000000000000000000000000000000000000
5400010919509622551  0002025405500005965           000000010000000000148000000000000000000000000000000000000000000000000000000
5400000498426688551  0001985405500001633           000000030000000000174000000000000000000000000000000000000000000000000000000
5400000498426688551  0001985405500002745           000000010000000000034000000000000000000000000000000000000000000000000000000
5400000498426688551  0001985405500003893           000000010000000000052000000000000000000000000000000000000000000000000000000
5400002400675929551  0002035656500001887           000000035000000000147000000000000000000000000000000000000000000000000000000
5400002400675929551  0002035405500002680           000000010000000000034000000000000000000000000000000000000000000000000000000
5400002400675929551  0002035405500003746           000000010000000000044000000000000000000000000000000000000000000000000000000
5400002400675929551  0002035405500004880           000000010000000000038000000000000000000000000000000000000000000000000000000
5400004577681692551  0002045656500001886           000000040000000000176000000000000000000000000000000000000000000000000000000
5400004577681692551  0002045405500002829           000000010000000000025000000000000000000000000000000000000000000000000000000
5400004577681692551  0002045405500003655           000000010000000000036000000000000000000000000000000000000000000000000000000
5421532270000113551  0087651403060001759           000000020000000000142960000000000000000000000000000000017950000000000000000
5421532270000113551  0087651403060002578           000000010000000000041020000000000000000000000000000000007060000000000000000
5421532270000113551  0087651403060003943           000000010000000000021930000000000000000000000000000000000000000000000000000
5421532270000113551  0087651403060004619           000000010000000000063360000000000000000000000000000000007650000000000000000
5421532270000113551  0087651403060005944           000000010000000000072290000000000000000000000000000000005150000000000000000
5421532270000113551  0087651403060006945           000000010000000000253450000000000000000000000000000000000000000000000000000
5421532270000113551  0087651403060007946           000000010000000000066610000000000000000000000000000000004290000000000000000
5421532270000113551  0087651403060008542           000000010000000000016250000000000000000000000000000000001930000000000000000
5421532270000113551  0087651403060009947           000000010000000000188450000000000000000000000000000000020490000000000000000
5421532270000113551  0087651403060010948           000000010000000000069050000000000000000000000000000000008300000000000000000
5421532270000113551  0087651403060011949           000000010000000000017870000000000000000000000000000000002010000000000000000
5421532270000113551  0087651403060012950           000000020000000000049560000000000000000000000000000000004860000000000000000
5421532270000113551  0087651403060013951           000000010000000000088950000000000000000000000000000000011550000000000000000
5421532270000113551  0087651403060014952           000000010000000000142150000000000000000000000000000000017820000000000000000
5421532270000113551  0087651403060015953           000000040000000000065000000000000000000000000000000000007160000000000000000
5421532270000113551  0087651403060016954           000000010000000000077170000000000000000000000000000000006240000000000000000
5421532270000113551  0087651403060017955           000000010000000000077170000000000000000000000000000000006240000000000000000
5421532270000113551  0087651403060018956           000000010000000000051170000000000000000000000000000000000000000000000000000
5421532270000113551  0087651403060019957           000000010000000000030870000000000000000000000000000000000000000000000000000
5421532270000113551  0087651403060020627           000000010000000000014380000000000000000000000000000000000000000000000000000
5421532270000113551  0087651403060021958           000000010000000000062550000000000000000000000000000000000000000000000000000
5421532270000113551  0087651403060022959           000000010000000000062550000000000000000000000000000000000000000000000000000
5403316661000542551  0530545655060001980           000000010000000000465600000000000000000000000000000000092420000000000000000
5403316661000542551  0530545655060002981           000000010000000000633600000000000000000000000000000000123810000000000000000
5421532270000113551  0088191403060001960           000000010000000000014620000000000000000000000000000000000000000000000000000
5421532270000113551  0088191403060002961           000000010000000000014620000000000000000000000000000000000950000000000000000
5421532270000113551  0088191403060003962           000000020000000000057680000000000000000000000000000000000000000000000000000
5421532270000113551  0088191403060004963           000000020000000000048740000000000000000000000000000000005420000000000000000
5421532270000113551  0088191403060005964           000000010000000000043860000000000000000000000000000000000000000000000000000
5421532270000113551  0088191403060006965           000000010000000000063360000000000000000000000000000000006990000000000000000
5421532270000113551  0088191403060007966           000000010000000000025990000000000000000000000000000000000000000000000000000
5421532270000113551  0088191403060008708           000000020000000000034920000000000000000000000000000000003460000000000000000
5421532270000113551  0088191403060009967           000000010000000000177080000000000000000000000000000000015200000000000000000
5421532270000113551  0088191403060010968           000000010000000000121840000000000000000000000000000000013630000000000000000
5421532270000113551  0088191403060011969           000000010000000000190890000000000000000000000000000000000000000000000000000
5421532270000113551  0088191403060012970           000000010000000000052390000000000000000000000000000000005270000000000000000
5421532270000113551  0088191403060013799           000000010000000000158400000000000000000000000000000000021080000000000000000
5421532270000113551  0088191403060014800           000000010000000000158400000000000000000000000000000000021080000000000000000
5421532270000113551  0088191403060015971           000000010000000000055240000000000000000000000000000000005230000000000000000
5421532270000113551  0088191403060016665           000000010000000000145400000000000000000000000000000000005550000000000000000
5421532270000113551  0088191403060017801           000000020000000000064820000000000000000000000000000000005880000000000000000
5421532270000113551  0088191403060018972           000000010000000000007310000000000000000000000000000000000000000000000000000
5421532270000113551  0088191403060019973           000000010000000000026810000000000000000000000000000000003120000000000000000
5421532270000113551  0088191403060020974           000000040000000000060120000000000000000000000000000000004640000000000000000
5421532270000113551  0088191403060021975           000000020000000000048580000000000000000000000000000000005120000000000000000
5421532270000113551  0088191403060022579           000000010000000000052800000000000000000000000000000000000000000000000000000
5421532270000113551  0088191403060023976           000000010000000000061730000000000000000000000000000000007430000000000000000
5421532270000113551  0088191403060024835           000000010000000000012590000000000000000000000000000000000000000000000000000
5421532270000113551  0088191403060025977           000000020000000000089360000000000000000000000000000000012520000000000000000
5421532270000113551  0088191403060026978           000000020000000000016240000000000000000000000000000000001780000000000000000
5421532270000113551  0088191403060027979           000000020000000000027620000000000000000000000000000000003210000000000000000
5421532270000113551  0088191403060028809           000000020000000000019500000000000000000000000000000000000000000000000000000
5421532270000113551  0089231403060001548           000000010000000000103160000000000000000000000000000000012940000000000000000
5421532270000113551  0089231403060002982           000000010000000000137280000000000000000000000000000000000000000000000000000
5421532270000113551  0089231403060003983           000000010000000000172210000000000000000000000000000000019420000000000000000
5421532270000113551  0089231403060004613           000000010000000000108040000000000000000000000000000000015090000000000000000
5421532270000113551  0089231403060005984           000000020000000000108840000000000000000000000000000000018460000000000000000
5421532270000113551  0089231403060006578           000000010000000000041020000000000000000000000000000000007060000000000000000
5421532270000113551  0089231403060007985           000000020000000000099100000000000000000000000000000000015090000000000000000
5421532270000113551  0089231403060008597           000000010000000000052800000000000000000000000000000000007670000000000000000
5421532270000113551  0089231403060009619           000000010000000000063360000000000000000000000000000000000000000000000000000
5421532270000113551  0089231403060010986           000000020000000000251820000000000000000000000000000000032880000000000000000
5421532270000113551  0089231403060011987           000000010000000000045490000000000000000000000000000000006510000000000000000
5421532270000113551  0089231403060012988           000000010000000000093410000000000000000000000000000000011660000000000000000
5421532270000113551  0089231403060013953           000000040000000000065000000000000000000000000000000000007160000000000000000
5421532270000113551  0089231403060014989           000000010000000000078790000000000000000000000000000000000000000000000000000
5421532270000113551  0089231403060015990           000000010000000000225820000000000000000000000000000000034380000000000000000
5421532270000113551  0089231403060016908           000000010000000000296490000000000000000000000000000000041480000000000000000
5421532270000113551  0089231403060017991           000000010000000000234750000000000000000000000000000000000000000000000000000
5421532270000113551  0089231403060018992           000000010000000000042240000000000000000000000000000000000000000000000000000
5421532270000113551  0089231403060019993           000000010000000000021120000000000000000000000000000000003090000000000000000
5421532270000113551  0089231403060020994           000000010000000000040530000000000000000000000000000000003310000000000000000
5421532270000113551  0089231403060021549           000000010000000000060110000000000000000000000000000000005480000000000000000
5421532270000113551  0089231403060022738           000000010000000000080420000000000000000000000000000000009740000000000000000
5421532270000113551  0089231403060023739           000000010000000000056860000000000000000000000000000000009360000000000000000
5421532270000113551  0089231403060024995           000000010000000000242880000000000000000000000000000000019330000000000000000
752024050120240531509           38190000DOT4 ATE-OLEO FREIO                                  FR    000000000000000000000000000
752024050120240531513           27101932SAE80 GL4-OLEO CAMBIO                                PC    000000000000000000000000000
752024050120240531538           87083019P1492-PASTILHA FREIO                                 PC    000000000000000000000000000
752024050120240531542           84213990LA607-FILTRO ANTI POLEM                              PC    000000000000000000000000000
752024050120240531548           87083019PD94-PASTILHA FREIO                                  JG    000000000000000000000000000
752024050120240531549           87083019P85-PASTILHA FREIO                                   JG    000000000000000000000000000
752024050120240531578           40103500111SP170H-CORREIA DISTRIBUICAO                       PC    000000000000000000000000000
752024050120240531579           9025909055214055-CARCACA                                     PC    000000000000000000000000000
752024050120240531597           84835010531089110-POLIA ALTERNADOR                           PC    000000000000000000000000000
752024050120240531613           85443000SCG73-CABO VELA                                      JG    000000000000000000000000000
752024050120240531619           84818021314792-VALVULA TERMOSTATICA                          PC    000000000000000000000000000
752024050120240531621           84219999C24005-FILTRO AR                                     PC    000000000000000000000000000
752024050120240531624           84219999C26135-FILTRO AR                                     PC    000000000000000000000000000
752024050120240531627           84213990CU1919-FILTRO ANTI POLEM                             PC    000000000000000000000000000
752024050120240531633           271019320W20 PRO DS-OLEO MOTOR                               LT    000000000000000000000000000
752024050120240531644           87089990MF71-TAMPA RESERVATORIO                              PC    000000000000000000000000000
752024050120240531655           84219999C17021-FILTRO AR                                     PC    000000000000000000000000000
752024050120240531665           8481802155239819-VALVULA TERMOSTATICA                        PC    000000000000000000000000000
752024050120240531670           84219999C24021-FILTRO AR                                     PC    000000000000000000000000000
752024050120240531679           87089990NJH075061-HOMOC RODA                                 PC    000000000000000000000000000
752024050120240531680           84212300W71930-FILTRO OLEO MOTOR                             PC    000000000000000000000000000
752024050120240531690           853929107440-LAMPADA                                         PC    000000000000000000000000000
752024050120240531693           84219999LX684-FILTRO AR                                      PC    000000000000000000000000000
752024050120240531701           27101932MULTI ATF 500-OLEO CAMBIO                            PC    000000000000000000000000000
752024050120240531705           85129000S19-PALHETA LIMPADOR                                 PC    000000000000000000000000000
752024050120240531708           87089990213659G-COIFA HOMOC                                  JG    000000000000000000000000000
752024050120240531735           842139900986AF2441-FILTRO AR                                 PC    000000000000000000000000000
752024050120240531736           84219999C22952-FILTRO AR                                     PC    000000000000000000000000000
752024050120240531738           8413309020036-BOMBA DAGUA                                    PC    000000000000000000000000000
752024050120240531739           40103500146STP8M200H-CORREIA DISTRIBUICAO                    PC    000000000000000000000000000
752024050120240531744           84219999LX4628-FILTRO AR                                     PC    000000000000000000000000000
752024050120240531745           84212300W7013-FILTRO OLEO MOTOR                              PC    000000000000000000000000000
752024050120240531746           84219999C22035-FILTRO AR                                     PC    000000000000000000000000000
752024050120240531748           27101932ISAFLUIDO 556-OLEO CAMBIO                            1/    000000000000000000000000000
752024050120240531750           85443000STV25-CABO VELA                                      JG    000000000000000000000000000
752024050120240531756           87083019P88-PASTILHA FREIO                                   JG    000000000000000000000000000
752024050120240531759           8413309020189-BOMBA DAGUA                                    PC    000000000000000000000000000
752024050120240531764           87089100MF498-RESERV AGUA RADIADOR                           PC    000000000000000000000000000
752024050120240531781           84212300WK58-FILTRO COMBUSTIVEL                              PC    000000000000000000000000000
752024050120240531790           38200000COOLANT UP-ADITIVO RADIADOR                          PC    000000000000000000000000000
752024050120240531799           870899900441141-KIT AMORTECEDOR DIANTEIRO                    PC    000000000000000000000000000
752024050120240531800           870880000441140-KIT AMORTECEDOR DIANTEIRO                    PC    000000000000000000000000000
752024050120240531801           87088000NAK6058-PIVO SUSPENSAO                               PC    000000000000000000000000000
752024050120240531806           84219999C27009-FILTRO AR                                     PC    000000000000000000000000000
752024050120240531809           7326190014329101-SELO CABECOTE MOTOR                         PC    000000000000000000000000000
752024050120240531822           84219999LX3007-FILTRO AR                                     PC    000000000000000000000000000
752024050120240531829           84212300W6880-FILTRO OLEO MOTOR                              PC    000000000000000000000000000
752024050120240531832           87088000LT60443-BIELETA BARRA ESTABILIZADORA                 PC    000000000000000000000000000
752024050120240531835           84841000TAR270515-JUNTA COLETOR ESCAP/ADM                    PC    000000000000000000000000000
752024050120240531857           84219999C290031-FILTRO AR                                    PC    000000000000000000000000000
752024050120240531865           87083090BD5602-DISCO FREIO                                   PC    000000000000000000000000000
752024050120240531867           84219999C33661-FILTRO AR                                     PC    000000000000000000000000000
752024050120240531870           8708999052004316-COXIM CAMBIO                                PC    000000000000000000000000000
752024050120240531872           87083019P94-PASTILHA FREIO                                   JG    000000000000000000000000000
752024050120240531880           84213990LA87-FILTRO ANTI POLEM                               PC    000000000000000000000000000
752024050120240531882           84212300W6730-FILTRO OLEO MOTOR                              PC    000000000000000000000000000
752024050120240531885           84219999LX3815-FILTRO AR                                     PC    000000000000000000000000000
752024050120240531886           27101932RALOY ULTRA SYNTH SAE 5W40 API SN - 24/1             LT    000000000000000000000000000
752024050120240531887           27101932RALOY ULTRA SYNTH SAE 5W30 API SP - 24/1             LT    000000000000000000000000000
752024050120240531893           84219999LX3452-FILTRO AR                                     PC    000000000000000000000000000
752024050120240531900           840991900280157147-BICO INJETOR                              PC    000000000000000000000000000
752024050120240531905           84213990LA117-FILTRO ANTI POLEM                              PC    000000000000000000000000000
752024050120240531908           870893003000001211-KIT EMBREAGEM                             JG    000000000000000000000000000
752024050120240531910           85392910LMM7515-LAMPADA                                      PC    000000000000000000000000000
752024050120240531916           2710193210W40 GTX-OLEO MOTOR                                 LT    000000000000000000000000000
752024050120240531920           482390992081834-JUNTA COLETOR ESCAP/ADM                      JG    000000000000000000000000000
752024050120240531923           401693002131835-VEDADOR                                      PC    000000000000000000000000000
752024050120240531924           840991908644622-TUBO                                         PC    000000000000000000000000000
752024050120240531927           8511302046344869-BOBINA IGNICAO PLASTICA                     PC    000000000000000000000000000
752024050120240531929           84219999C24034-FILTRO AR                                     PC    000000000000000000000000000
752024050120240531934           87083090PD1512-PASTILHA FREIO                                PC    000000000000000000000000000
752024050120240531942           87083019PD685-PASTILHA FREIO                                 JG    000000000000000000000000000
752024050120240531943           4016930024587738-RETENTOR COMANDO VALVULAS                   PC    000000000000000000000000000
752024050120240531944           40091100C9018-MANGUEIRA FILTRO AR                            PC    000000000000000000000000000
752024050120240531945           87083090CI344CPA-SAPATA FREIO C/ LONA COLADA                 JG    000000000000000000000000000
752024050120240531946           87089300030379-CABO EMBREAGEM                                PC    000000000000000000000000000
752024050120240531947           87083019PD1492-PASTILHA FREIO                                PC    000000000000000000000000000
752024050120240531948           870894820680212-ARTICULACAO CAIXA DIRECAO                    PC    000000000000000000000000000
752024050120240531949           84213990FAC903-FILTRO ANTI POLEM                             PC    000000000000000000000000000
752024050120240531950           87088000MB6031-KIT AMORTECEDOR DIANTEIRO                     PC    000000000000000000000000000
752024050120240531951           84822090FC40570S06R-ROL RODA                                 PC    000000000000000000000000000
752024050120240531952           85113020F000ZS0235-BOBINA IGNICAO PLASTICA                   PC    000000000000000000000000000
752024050120240531953           87088000SK3018A-KIT BARRA ESTABILIZADORA                     PC    000000000000000000000000000
752024050120240531954           87089990NBJ3010D-SUPORTE BARRA ESTABILIZADORA                PC    000000000000000000000000000
752024050120240531955           87088000NBJ3010E-SUPORTE BARRA ESTABILIZADORA                PC    000000000000000000000000000
752024050120240531956           87089990NAK3072-TERMINAL BARRA DIRECAO                       PC    000000000000000000000000000
752024050120240531957           40093100JM10183-MANGUEIRA SUPERIOR RADIADOR                  PC    000000000000000000000000000
752024050120240531958           87088000SK846D-KIT AMORTECEDOR DIANTEIRO                     PC    000000000000000000000000000
752024050120240531959           87088000SK846E-KIT AMORTECEDOR DIANTEIRO                     PC    000000000000000000000000000
752024050120240531960           40169300114061-KIT TAMPA VALVULA                             JG    000000000000000000000000000
752024050120240531961           40093100JM3093MM-MANGUEIRA TUBO A BOMBA D'AGUA               PC    000000000000000000000000000
752024050120240531962           27101932ATF GIM TASA-OLEO HIDRAULICO                         LT    000000000000000000000000000
752024050120240531963           4016930001942BRGP-RETENTOR COMANDO VALVULAS                  PC    000000000000000000000000000
752024050120240531964           84818021425687-VALVULA TERMOSTATICA                          PC    000000000000000000000000000
752024050120240531965           841391907005450000-CARCACA BOMBA DAGUA                       PC    000000000000000000000000000
752024050120240531966           400931008501145-MANGUEIRA BOMBA D'AGUA                       PC    000000000000000000000000000
752024050120240531967           87085099JHC03131-HOMOC RODA                                  PC    000000000000000000000000000
752024050120240531968           4016930005772GAHFE-RETENTOR VIRABREQUIM - VOLANTE            PC    000000000000000000000000000
752024050120240531969           8708999051834103-COXIM MOTOR                                 PC    000000000000000000000000000
752024050120240531970           4016930075305-JUNTA TAMPA VALVULA                            PC    000000000000000000000000000
752024050120240531971           87089100MF412-RESERV AGUA RADIADOR                           PC    000000000000000000000000000
752024050120240531972           4016999050008048-ANEL VEDACAO                                PC    000000000000000000000000000
752024050120240531973           4016930002009BP-RETENTOR EIXO PILOTO                         PC    000000000000000000000000000
752024050120240531974           401699900110438-BUCHA BARRA ESTABILIZADORA                   PC    000000000000000000000000000
752024050120240531975           401699900110690-BUCHA BRACO OSCILANTE                        PC    000000000000000000000000000
752024050120240531976           87089990SK1072-COXIM CAMBIO                                  PC    000000000000000000000000000
752024050120240531977           870880000440842-KIT AMORTECEDOR DIANTEIRO                    JG    000000000000000000000000000
752024050120240531978           87088000SK1101A-KIT BARRA ESTABILIZADORA                     JG    000000000000000000000000000
752024050120240531979           87088000SK1103A-KIT BARRA ESTABILIZADORA                     JG    000000000000000000000000000
752024050120240531980           27101932LUBRAX TECNO PRO 10W40 SN CX 24X1L - BASE CALCULO ICMCX    000000000000000000000000000
752024050120240531981           27101932LUBRAX VALORA FLEX 5W40 SN A3/B4 CX24X1L - BASE CALCUCX    000000000000000000000000000
752024050120240531982           84099190DGM734-BICO INJETOR                                  PC    000000000000000000000000000
752024050120240531983           84099190FJ10734-BICO INJETOR                                 PC    000000000000000000000000000
752024050120240531984           87083090ATE6447-CILINDRO RODA                                PC    000000000000000000000000000
752024050120240531985           870880000440840-KIT AMORTECEDOR DIANTEIRO                    PC    000000000000000000000000000
752024050120240531986           87083090BD3900-DISCO FREIO                                   PC    000000000000000000000000000
752024050120240531987           84219999LX3511-FILTRO AR                                     PC    000000000000000000000000000
752024050120240531988           87083019PD1482-PASTILHA FREIO                                JG    000000000000000000000000000
752024050120240531989           87089990AL30-TRIZETA EIXO HOMOCINETICO                       PC    000000000000000000000000000
752024050120240531990           87089990AL1264-TULIPA CAMBIO                                 JG    000000000000000000000000000
752024050120240531991           85113020BI0114MM-BOBINA IGNICAO PLASTICA                     PC    000000000000000000000000000
752024050120240531992           84219999C30904-FILTRO AR                                     PC    000000000000000000000000000
752024050120240531993           84212300W71230-FILTRO OLEO MOTOR                             PC    000000000000000000000000000
752024050120240531994           87083019P42-PASTILHA FREIO                                   JG    000000000000000000000000000
752024050120240531995           87083090PD2225-PASTILHA FREIO                                PC    000000000000000000000000000
90336213140001600034450680073 50000000715100000071530000007154000002157500000125                                             2
90336213140001600034450680073 9900000557                                                                                     2
